{
	"FlipEngine.sol": {
		"FlipEngine": {
			"abi": [
				{
					"inputs": [],
					"stateMutability": "nonpayable",
					"type": "constructor"
				},
				{
					"inputs": [
						{
							"internalType": "string",
							"name": "chunkData",
							"type": "string"
						}
					],
					"name": "addFirstImageChunk",
					"outputs": [],
					"stateMutability": "nonpayable",
					"type": "function"
				},
				{
					"inputs": [
						{
							"internalType": "string",
							"name": "chunkData",
							"type": "string"
						}
					],
					"name": "addSecondImageChunk",
					"outputs": [],
					"stateMutability": "nonpayable",
					"type": "function"
				},
				{
					"inputs": [],
					"name": "deleteFirstImage",
					"outputs": [],
					"stateMutability": "nonpayable",
					"type": "function"
				},
				{
					"inputs": [],
					"name": "deleteSecondImage",
					"outputs": [],
					"stateMutability": "nonpayable",
					"type": "function"
				},
				{
					"inputs": [],
					"name": "flip",
					"outputs": [],
					"stateMutability": "nonpayable",
					"type": "function"
				},
				{
					"inputs": [],
					"name": "getFirstImage",
					"outputs": [
						{
							"internalType": "string",
							"name": "",
							"type": "string"
						}
					],
					"stateMutability": "view",
					"type": "function"
				},
				{
					"inputs": [],
					"name": "getImage",
					"outputs": [
						{
							"internalType": "string",
							"name": "",
							"type": "string"
						}
					],
					"stateMutability": "view",
					"type": "function"
				},
				{
					"inputs": [],
					"name": "getSecondImage",
					"outputs": [
						{
							"internalType": "string",
							"name": "",
							"type": "string"
						}
					],
					"stateMutability": "view",
					"type": "function"
				},
				{
					"inputs": [
						{
							"internalType": "address",
							"name": "addr",
							"type": "address"
						}
					],
					"name": "grantAccess",
					"outputs": [],
					"stateMutability": "nonpayable",
					"type": "function"
				},
				{
					"inputs": [
						{
							"internalType": "address",
							"name": "account",
							"type": "address"
						}
					],
					"name": "hasAccess",
					"outputs": [
						{
							"internalType": "bool",
							"name": "",
							"type": "bool"
						}
					],
					"stateMutability": "view",
					"type": "function"
				},
				{
					"inputs": [],
					"name": "isOwner",
					"outputs": [
						{
							"internalType": "bool",
							"name": "",
							"type": "bool"
						}
					],
					"stateMutability": "view",
					"type": "function"
				},
				{
					"inputs": [
						{
							"internalType": "address",
							"name": "addr",
							"type": "address"
						}
					],
					"name": "revokeAccess",
					"outputs": [],
					"stateMutability": "nonpayable",
					"type": "function"
				},
				{
					"inputs": [],
					"name": "withdrawAll",
					"outputs": [],
					"stateMutability": "nonpayable",
					"type": "function"
				}
			],
			"devdoc": {
				"kind": "dev",
				"methods": {},
				"version": 1
			},
			"evm": {
				"assembly": "    /* \"FlipEngine.sol\":143:1512  contract FlipEngine is AccessControl{... */\n  mstore(0x40, 0x80)\n    /* \"FlipEngine.sol\":294:320  bool private _flip = false */\n  0x05\n  dup1\n  sload\n  not(0xff)\n  and\n  swap1\n  sstore\n    /* \"FlipEngine.sol\":327:348  constructor() {... */\n  callvalue\n  dup1\n  iszero\n  tag_1\n  jumpi\n  0x00\n  dup1\n  revert\ntag_1:\n  pop\n    /* \"AccessControl.sol\":431:437  _admin */\n  0x00\n    /* \"AccessControl.sol\":431:450  _admin = msg.sender */\n  dup1\n  sload\n  not(sub(shl(0xa0, 0x01), 0x01))\n  and\n    /* \"AccessControl.sol\":440:450  msg.sender */\n  caller\n    /* \"AccessControl.sol\":431:450  _admin = msg.sender */\n  or\n  swap1\n  sstore\n    /* \"FlipEngine.sol\":143:1512  contract FlipEngine is AccessControl{... */\n  dataSize(sub_0)\n  dup1\n  dataOffset(sub_0)\n  0x00\n  codecopy\n  0x00\n  return\nstop\n\nsub_0: assembly {\n        /* \"FlipEngine.sol\":143:1512  contract FlipEngine is AccessControl{... */\n      mstore(0x40, 0x80)\n      callvalue\n      dup1\n      iszero\n      tag_1\n      jumpi\n      0x00\n      dup1\n      revert\n    tag_1:\n      pop\n      jumpi(tag_2, lt(calldatasize, 0x04))\n      shr(0xe0, calldataload(0x00))\n      dup1\n      0x85e68531\n      gt\n      tag_16\n      jumpi\n      dup1\n      0x95a078e8\n      gt\n      tag_17\n      jumpi\n      dup1\n      0x95a078e8\n      eq\n      tag_12\n      jumpi\n      dup1\n      0x9a9ed199\n      eq\n      tag_13\n      jumpi\n      dup1\n      0xcde4efa9\n      eq\n      tag_14\n      jumpi\n      dup1\n      0xf3651cbb\n      eq\n      tag_15\n      jumpi\n      0x00\n      dup1\n      revert\n    tag_17:\n      dup1\n      0x85e68531\n      eq\n      tag_9\n      jumpi\n      dup1\n      0x8f32d59b\n      eq\n      tag_10\n      jumpi\n      dup1\n      0x8feb144e\n      eq\n      tag_11\n      jumpi\n      0x00\n      dup1\n      revert\n    tag_16:\n      dup1\n      0x03e03c6e\n      eq\n      tag_3\n      jumpi\n      dup1\n      0x0ae5e739\n      eq\n      tag_4\n      jumpi\n      dup1\n      0x2e918ff7\n      eq\n      tag_5\n      jumpi\n      dup1\n      0x5923e3dc\n      eq\n      tag_6\n      jumpi\n      dup1\n      0x668f7b78\n      eq\n      tag_7\n      jumpi\n      dup1\n      0x853828b6\n      eq\n      tag_8\n      jumpi\n    tag_2:\n      0x00\n      dup1\n      revert\n        /* \"FlipEngine.sol\":1280:1386  function getSecondImage() public view returns (string memory)  {... */\n    tag_3:\n      tag_18\n      tag_19\n      jump\t// in\n    tag_18:\n      mload(0x40)\n      tag_20\n      swap2\n      swap1\n      tag_21\n      jump\t// in\n    tag_20:\n      mload(0x40)\n      dup1\n      swap2\n      sub\n      swap1\n      return\n        /* \"AccessControl.sol\":463:556  function grantAccess(address addr) public onlyAdmin {... */\n    tag_4:\n      tag_22\n      tag_23\n      calldatasize\n      0x04\n      tag_24\n      jump\t// in\n    tag_23:\n      tag_25\n      jump\t// in\n    tag_22:\n      stop\n        /* \"FlipEngine.sol\":354:522  function addFirstImageChunk(string memory chunkData) public onlyAuthorized {... */\n    tag_5:\n      tag_22\n      tag_27\n      calldatasize\n      0x04\n      tag_28\n      jump\t// in\n    tag_27:\n      tag_29\n      jump\t// in\n        /* \"FlipEngine.sol\":624:795  function addSecondImageChunk(string memory chunkData) public onlyAuthorized {... */\n    tag_6:\n      tag_22\n      tag_31\n      calldatasize\n      0x04\n      tag_28\n      jump\t// in\n    tag_31:\n      tag_32\n      jump\t// in\n        /* \"FlipEngine.sol\":528:618  function deleteFirstImage() public onlyAuthorized {... */\n    tag_7:\n      tag_22\n      tag_34\n      jump\t// in\n        /* \"FlipEngine.sol\":1392:1510  function withdrawAll() public onlyAuthorized {... */\n    tag_8:\n      tag_22\n      tag_36\n      jump\t// in\n        /* \"AccessControl.sol\":562:657  function revokeAccess(address addr) public onlyAdmin {... */\n    tag_9:\n      tag_22\n      tag_38\n      calldatasize\n      0x04\n      tag_24\n      jump\t// in\n    tag_38:\n      tag_39\n      jump\t// in\n        /* \"AccessControl.sol\":663:753  function isOwner() public view returns (bool) {... */\n    tag_10:\n        /* \"AccessControl.sol\":703:707  bool */\n      0x00\n        /* \"AccessControl.sol\":740:746  _admin */\n      sload\n      sub(shl(0xa0, 0x01), 0x01)\n      and\n        /* \"AccessControl.sol\":726:736  msg.sender */\n      caller\n        /* \"AccessControl.sol\":726:746  msg.sender == _admin */\n      eq\n        /* \"AccessControl.sol\":663:753  function isOwner() public view returns (bool) {... */\n    tag_40:\n      mload(0x40)\n        /* \"#utility.yul\":1975:1989   */\n      swap1\n      iszero\n        /* \"#utility.yul\":1968:1990   */\n      iszero\n        /* \"#utility.yul\":1950:1991   */\n      dup2\n      mstore\n        /* \"#utility.yul\":1938:1940   */\n      0x20\n        /* \"#utility.yul\":1923:1941   */\n      add\n        /* \"AccessControl.sol\":663:753  function isOwner() public view returns (bool) {... */\n      tag_20\n        /* \"#utility.yul\":1810:1997   */\n      jump\n        /* \"FlipEngine.sol\":801:893  function deleteSecondImage() public onlyAuthorized {... */\n    tag_11:\n      tag_22\n      tag_45\n      jump\t// in\n        /* \"AccessControl.sol\":759:866  function hasAccess(address account) public view returns (bool) {... */\n    tag_12:\n      tag_40\n      tag_47\n      calldatasize\n      0x04\n      tag_24\n      jump\t// in\n    tag_47:\n      sub(shl(0xa0, 0x01), 0x01)\n        /* \"AccessControl.sol\":839:859  _accessList[account] */\n      and\n        /* \"AccessControl.sol\":816:820  bool */\n      0x00\n        /* \"AccessControl.sol\":839:859  _accessList[account] */\n      swap1\n      dup2\n      mstore\n        /* \"AccessControl.sol\":839:850  _accessList */\n      0x01\n        /* \"AccessControl.sol\":839:859  _accessList[account] */\n      0x20\n      mstore\n      0x40\n      swap1\n      keccak256\n      sload\n      0xff\n      and\n      swap1\n        /* \"AccessControl.sol\":759:866  function hasAccess(address account) public view returns (bool) {... */\n      jump\n        /* \"FlipEngine.sol\":1171:1274  function getFirstImage() public view returns (string memory) {... */\n    tag_13:\n      tag_18\n      tag_51\n      jump\t// in\n        /* \"FlipEngine.sol\":903:972  function flip() public onlyAuthorized {... */\n    tag_14:\n      tag_22\n      tag_54\n      jump\t// in\n        /* \"FlipEngine.sol\":978:1165  function getImage() public view returns (string memory) {... */\n    tag_15:\n      tag_18\n      tag_56\n      jump\t// in\n        /* \"FlipEngine.sol\":1280:1386  function getSecondImage() public view returns (string memory)  {... */\n    tag_19:\n        /* \"FlipEngine.sol\":1327:1340  string memory */\n      0x60\n        /* \"FlipEngine.sol\":1360:1379  _secondImageDataUri */\n      0x03\n        /* \"FlipEngine.sol\":1353:1379  return _secondImageDataUri */\n      dup1\n      sload\n      tag_59\n      swap1\n      tag_60\n      jump\t// in\n    tag_59:\n      dup1\n      0x1f\n      add\n      0x20\n      dup1\n      swap2\n      div\n      mul\n      0x20\n      add\n      mload(0x40)\n      swap1\n      dup2\n      add\n      0x40\n      mstore\n      dup1\n      swap3\n      swap2\n      swap1\n      dup2\n      dup2\n      mstore\n      0x20\n      add\n      dup3\n      dup1\n      sload\n      tag_61\n      swap1\n      tag_60\n      jump\t// in\n    tag_61:\n      dup1\n      iszero\n      tag_62\n      jumpi\n      dup1\n      0x1f\n      lt\n      tag_63\n      jumpi\n      0x0100\n      dup1\n      dup4\n      sload\n      div\n      mul\n      dup4\n      mstore\n      swap2\n      0x20\n      add\n      swap2\n      jump(tag_62)\n    tag_63:\n      dup3\n      add\n      swap2\n      swap1\n      0x00\n      mstore\n      keccak256(0x00, 0x20)\n      swap1\n    tag_64:\n      dup2\n      sload\n      dup2\n      mstore\n      swap1\n      0x01\n      add\n      swap1\n      0x20\n      add\n      dup1\n      dup4\n      gt\n      tag_64\n      jumpi\n      dup3\n      swap1\n      sub\n      0x1f\n      and\n      dup3\n      add\n      swap2\n    tag_62:\n      pop\n      pop\n      pop\n      pop\n      pop\n      swap1\n      pop\n        /* \"FlipEngine.sol\":1280:1386  function getSecondImage() public view returns (string memory)  {... */\n      swap1\n      jump\t// out\n        /* \"AccessControl.sol\":463:556  function grantAccess(address addr) public onlyAdmin {... */\n    tag_25:\n        /* \"AccessControl.sol\":228:234  _admin */\n      and(sub(shl(0xa0, 0x01), 0x01), sload(0x00))\n        /* \"AccessControl.sol\":214:224  msg.sender */\n      caller\n        /* \"AccessControl.sol\":214:234  msg.sender == _admin */\n      eq\n        /* \"AccessControl.sol\":206:249  require(msg.sender == _admin, \"Not andrew\") */\n      tag_66\n      jumpi\n      mload(0x40)\n      shl(0xe5, 0x461bcd)\n      dup2\n      mstore\n        /* \"#utility.yul\":2589:2591   */\n      0x20\n        /* \"AccessControl.sol\":206:249  require(msg.sender == _admin, \"Not andrew\") */\n      0x04\n      dup3\n      add\n        /* \"#utility.yul\":2571:2592   */\n      mstore\n        /* \"#utility.yul\":2628:2630   */\n      0x0a\n        /* \"#utility.yul\":2608:2626   */\n      0x24\n      dup3\n      add\n        /* \"#utility.yul\":2601:2631   */\n      mstore\n      shl(0xb0, 0x4e6f7420616e64726577)\n        /* \"#utility.yul\":2647:2665   */\n      0x44\n      dup3\n      add\n        /* \"#utility.yul\":2640:2680   */\n      mstore\n        /* \"#utility.yul\":2697:2715   */\n      0x64\n      add\n        /* \"AccessControl.sol\":206:249  require(msg.sender == _admin, \"Not andrew\") */\n    tag_67:\n      mload(0x40)\n      dup1\n      swap2\n      sub\n      swap1\n      revert\n    tag_66:\n      sub(shl(0xa0, 0x01), 0x01)\n        /* \"AccessControl.sol\":525:542  _accessList[addr] */\n      and\n      0x00\n      swap1\n      dup2\n      mstore\n        /* \"AccessControl.sol\":545:549  true */\n      0x01\n        /* \"AccessControl.sol\":525:542  _accessList[addr] */\n      0x20\n      dup2\n      swap1\n      mstore\n      0x40\n      swap1\n      swap2\n      keccak256\n        /* \"AccessControl.sol\":525:549  _accessList[addr] = true */\n      dup1\n      sload\n      not(0xff)\n      and\n      swap1\n      swap2\n      or\n      swap1\n      sstore\n        /* \"AccessControl.sol\":463:556  function grantAccess(address addr) public onlyAdmin {... */\n      jump\t// out\n        /* \"FlipEngine.sol\":354:522  function addFirstImageChunk(string memory chunkData) public onlyAuthorized {... */\n    tag_29:\n        /* \"AccessControl.sol\":331:337  _admin */\n      and(sub(shl(0xa0, 0x01), 0x01), sload(0x00))\n        /* \"AccessControl.sol\":317:327  msg.sender */\n      caller\n        /* \"AccessControl.sol\":317:337  msg.sender == _admin */\n      eq\n      dup1\n        /* \"AccessControl.sol\":317:364  msg.sender == _admin || _accessList[msg.sender] */\n      tag_71\n      jumpi\n      pop\n        /* \"AccessControl.sol\":353:363  msg.sender */\n      caller\n        /* \"AccessControl.sol\":341:364  _accessList[msg.sender] */\n      0x00\n      swap1\n      dup2\n      mstore\n        /* \"AccessControl.sol\":341:352  _accessList */\n      0x01\n        /* \"AccessControl.sol\":341:364  _accessList[msg.sender] */\n      0x20\n      mstore\n      0x40\n      swap1\n      keccak256\n      sload\n      0xff\n      and\n        /* \"AccessControl.sol\":317:364  msg.sender == _admin || _accessList[msg.sender] */\n    tag_71:\n        /* \"AccessControl.sol\":309:383  require(msg.sender == _admin || _accessList[msg.sender], \"Not authorized\") */\n      tag_72\n      jumpi\n      mload(0x40)\n      shl(0xe5, 0x461bcd)\n      dup2\n      mstore\n      0x04\n      add\n      tag_67\n      swap1\n      tag_74\n      jump\t// in\n    tag_72:\n        /* \"FlipEngine.sol\":484:502  _firstImageDataUri */\n      0x02\n        /* \"FlipEngine.sol\":504:513  chunkData */\n      dup2\n        /* \"FlipEngine.sol\":467:514  abi.encodePacked(_firstImageDataUri, chunkData) */\n      add(0x20, mload(0x40))\n      tag_76\n      swap3\n      swap2\n      swap1\n      tag_77\n      jump\t// in\n    tag_76:\n      mload(0x40)\n      0x20\n      dup2\n      dup4\n      sub\n      sub\n      dup2\n      mstore\n      swap1\n      0x40\n      mstore\n        /* \"FlipEngine.sol\":439:457  _firstImageDataUri */\n      0x02\n        /* \"FlipEngine.sol\":439:515  _firstImageDataUri = string(abi.encodePacked(_firstImageDataUri, chunkData)) */\n      swap1\n      dup2\n      tag_78\n      swap2\n      swap1\n      tag_79\n      jump\t// in\n    tag_78:\n      pop\n        /* \"FlipEngine.sol\":354:522  function addFirstImageChunk(string memory chunkData) public onlyAuthorized {... */\n      pop\n      jump\t// out\n        /* \"FlipEngine.sol\":624:795  function addSecondImageChunk(string memory chunkData) public onlyAuthorized {... */\n    tag_32:\n        /* \"AccessControl.sol\":331:337  _admin */\n      and(sub(shl(0xa0, 0x01), 0x01), sload(0x00))\n        /* \"AccessControl.sol\":317:327  msg.sender */\n      caller\n        /* \"AccessControl.sol\":317:337  msg.sender == _admin */\n      eq\n      dup1\n        /* \"AccessControl.sol\":317:364  msg.sender == _admin || _accessList[msg.sender] */\n      tag_81\n      jumpi\n      pop\n        /* \"AccessControl.sol\":353:363  msg.sender */\n      caller\n        /* \"AccessControl.sol\":341:364  _accessList[msg.sender] */\n      0x00\n      swap1\n      dup2\n      mstore\n        /* \"AccessControl.sol\":341:352  _accessList */\n      0x01\n        /* \"AccessControl.sol\":341:364  _accessList[msg.sender] */\n      0x20\n      mstore\n      0x40\n      swap1\n      keccak256\n      sload\n      0xff\n      and\n        /* \"AccessControl.sol\":317:364  msg.sender == _admin || _accessList[msg.sender] */\n    tag_81:\n        /* \"AccessControl.sol\":309:383  require(msg.sender == _admin || _accessList[msg.sender], \"Not authorized\") */\n      tag_82\n      jumpi\n      mload(0x40)\n      shl(0xe5, 0x461bcd)\n      dup2\n      mstore\n      0x04\n      add\n      tag_67\n      swap1\n      tag_74\n      jump\t// in\n    tag_82:\n        /* \"FlipEngine.sol\":756:775  _secondImageDataUri */\n      0x03\n        /* \"FlipEngine.sol\":777:786  chunkData */\n      dup2\n        /* \"FlipEngine.sol\":739:787  abi.encodePacked(_secondImageDataUri, chunkData) */\n      add(0x20, mload(0x40))\n      tag_85\n      swap3\n      swap2\n      swap1\n      tag_77\n      jump\t// in\n    tag_85:\n      mload(0x40)\n      0x20\n      dup2\n      dup4\n      sub\n      sub\n      dup2\n      mstore\n      swap1\n      0x40\n      mstore\n        /* \"FlipEngine.sol\":710:729  _secondImageDataUri */\n      0x03\n        /* \"FlipEngine.sol\":710:788  _secondImageDataUri = string(abi.encodePacked(_secondImageDataUri, chunkData)) */\n      swap1\n      dup2\n      tag_78\n      swap2\n      swap1\n      tag_79\n      jump\t// in\n        /* \"FlipEngine.sol\":528:618  function deleteFirstImage() public onlyAuthorized {... */\n    tag_34:\n        /* \"AccessControl.sol\":331:337  _admin */\n      and(sub(shl(0xa0, 0x01), 0x01), sload(0x00))\n        /* \"AccessControl.sol\":317:327  msg.sender */\n      caller\n        /* \"AccessControl.sol\":317:337  msg.sender == _admin */\n      eq\n      dup1\n        /* \"AccessControl.sol\":317:364  msg.sender == _admin || _accessList[msg.sender] */\n      tag_88\n      jumpi\n      pop\n        /* \"AccessControl.sol\":353:363  msg.sender */\n      caller\n        /* \"AccessControl.sol\":341:364  _accessList[msg.sender] */\n      0x00\n      swap1\n      dup2\n      mstore\n        /* \"AccessControl.sol\":341:352  _accessList */\n      0x01\n        /* \"AccessControl.sol\":341:364  _accessList[msg.sender] */\n      0x20\n      mstore\n      0x40\n      swap1\n      keccak256\n      sload\n      0xff\n      and\n        /* \"AccessControl.sol\":317:364  msg.sender == _admin || _accessList[msg.sender] */\n    tag_88:\n        /* \"AccessControl.sol\":309:383  require(msg.sender == _admin || _accessList[msg.sender], \"Not authorized\") */\n      tag_89\n      jumpi\n      mload(0x40)\n      shl(0xe5, 0x461bcd)\n      dup2\n      mstore\n      0x04\n      add\n      tag_67\n      swap1\n      tag_74\n      jump\t// in\n    tag_89:\n        /* \"FlipEngine.sol\":588:611  _firstImageDataUri = \"\" */\n      0x40\n      dup1\n      mload\n      0x20\n      dup2\n      add\n      swap1\n      swap2\n      mstore\n      0x00\n      dup2\n      mstore\n        /* \"FlipEngine.sol\":588:606  _firstImageDataUri */\n      0x02\n      swap1\n        /* \"FlipEngine.sol\":588:611  _firstImageDataUri = \"\" */\n      tag_92\n      swap1\n        /* \"FlipEngine.sol\":588:606  _firstImageDataUri */\n      dup3\n        /* \"FlipEngine.sol\":588:611  _firstImageDataUri = \"\" */\n      tag_79\n      jump\t// in\n    tag_92:\n      pop\n        /* \"FlipEngine.sol\":528:618  function deleteFirstImage() public onlyAuthorized {... */\n      jump\t// out\n        /* \"FlipEngine.sol\":1392:1510  function withdrawAll() public onlyAuthorized {... */\n    tag_36:\n        /* \"AccessControl.sol\":331:337  _admin */\n      and(sub(shl(0xa0, 0x01), 0x01), sload(0x00))\n        /* \"AccessControl.sol\":317:327  msg.sender */\n      caller\n        /* \"AccessControl.sol\":317:337  msg.sender == _admin */\n      eq\n      dup1\n        /* \"AccessControl.sol\":317:364  msg.sender == _admin || _accessList[msg.sender] */\n      tag_94\n      jumpi\n      pop\n        /* \"AccessControl.sol\":353:363  msg.sender */\n      caller\n        /* \"AccessControl.sol\":341:364  _accessList[msg.sender] */\n      0x00\n      swap1\n      dup2\n      mstore\n        /* \"AccessControl.sol\":341:352  _accessList */\n      0x01\n        /* \"AccessControl.sol\":341:364  _accessList[msg.sender] */\n      0x20\n      mstore\n      0x40\n      swap1\n      keccak256\n      sload\n      0xff\n      and\n        /* \"AccessControl.sol\":317:364  msg.sender == _admin || _accessList[msg.sender] */\n    tag_94:\n        /* \"AccessControl.sol\":309:383  require(msg.sender == _admin || _accessList[msg.sender], \"Not authorized\") */\n      tag_95\n      jumpi\n      mload(0x40)\n      shl(0xe5, 0x461bcd)\n      dup2\n      mstore\n      0x04\n      add\n      tag_67\n      swap1\n      tag_74\n      jump\t// in\n    tag_95:\n        /* \"FlipEngine.sol\":1455:1502  payable(msg.sender).send(address(this).balance) */\n      mload(0x40)\n        /* \"FlipEngine.sol\":1463:1473  msg.sender */\n      caller\n      swap1\n        /* \"FlipEngine.sol\":1480:1501  address(this).balance */\n      selfbalance\n        /* \"FlipEngine.sol\":1455:1502  payable(msg.sender).send(address(this).balance) */\n      dup1\n      iszero\n      0x08fc\n      mul\n      swap2\n      0x00\n      dup2\n      dup2\n      dup2\n        /* \"FlipEngine.sol\":1480:1501  address(this).balance */\n      dup6\n        /* \"FlipEngine.sol\":1463:1473  msg.sender */\n      dup9\n        /* \"FlipEngine.sol\":1455:1502  payable(msg.sender).send(address(this).balance) */\n      dup9\n      call\n      swap4\n      pop\n      pop\n      pop\n      pop\n        /* \"FlipEngine.sol\":1447:1503  require(payable(msg.sender).send(address(this).balance)) */\n      tag_99\n      jumpi\n      0x00\n      dup1\n      revert\n    tag_99:\n        /* \"FlipEngine.sol\":1392:1510  function withdrawAll() public onlyAuthorized {... */\n      jump\t// out\n        /* \"AccessControl.sol\":562:657  function revokeAccess(address addr) public onlyAdmin {... */\n    tag_39:\n        /* \"AccessControl.sol\":228:234  _admin */\n      and(sub(shl(0xa0, 0x01), 0x01), sload(0x00))\n        /* \"AccessControl.sol\":214:224  msg.sender */\n      caller\n        /* \"AccessControl.sol\":214:234  msg.sender == _admin */\n      eq\n        /* \"AccessControl.sol\":206:249  require(msg.sender == _admin, \"Not andrew\") */\n      tag_101\n      jumpi\n      mload(0x40)\n      shl(0xe5, 0x461bcd)\n      dup2\n      mstore\n        /* \"#utility.yul\":2589:2591   */\n      0x20\n        /* \"AccessControl.sol\":206:249  require(msg.sender == _admin, \"Not andrew\") */\n      0x04\n      dup3\n      add\n        /* \"#utility.yul\":2571:2592   */\n      mstore\n        /* \"#utility.yul\":2628:2630   */\n      0x0a\n        /* \"#utility.yul\":2608:2626   */\n      0x24\n      dup3\n      add\n        /* \"#utility.yul\":2601:2631   */\n      mstore\n      shl(0xb0, 0x4e6f7420616e64726577)\n        /* \"#utility.yul\":2647:2665   */\n      0x44\n      dup3\n      add\n        /* \"#utility.yul\":2640:2680   */\n      mstore\n        /* \"#utility.yul\":2697:2715   */\n      0x64\n      add\n        /* \"AccessControl.sol\":206:249  require(msg.sender == _admin, \"Not andrew\") */\n      tag_67\n        /* \"#utility.yul\":2387:2721   */\n      jump\n        /* \"AccessControl.sol\":206:249  require(msg.sender == _admin, \"Not andrew\") */\n    tag_101:\n      sub(shl(0xa0, 0x01), 0x01)\n        /* \"AccessControl.sol\":625:642  _accessList[addr] */\n      and\n        /* \"AccessControl.sol\":645:650  false */\n      0x00\n        /* \"AccessControl.sol\":625:642  _accessList[addr] */\n      swap1\n      dup2\n      mstore\n        /* \"AccessControl.sol\":625:636  _accessList */\n      0x01\n        /* \"AccessControl.sol\":625:642  _accessList[addr] */\n      0x20\n      mstore\n      0x40\n      swap1\n      keccak256\n        /* \"AccessControl.sol\":625:650  _accessList[addr] = false */\n      dup1\n      sload\n      not(0xff)\n      and\n      swap1\n      sstore\n        /* \"AccessControl.sol\":562:657  function revokeAccess(address addr) public onlyAdmin {... */\n      jump\t// out\n        /* \"FlipEngine.sol\":801:893  function deleteSecondImage() public onlyAuthorized {... */\n    tag_45:\n        /* \"AccessControl.sol\":331:337  _admin */\n      and(sub(shl(0xa0, 0x01), 0x01), sload(0x00))\n        /* \"AccessControl.sol\":317:327  msg.sender */\n      caller\n        /* \"AccessControl.sol\":317:337  msg.sender == _admin */\n      eq\n      dup1\n        /* \"AccessControl.sol\":317:364  msg.sender == _admin || _accessList[msg.sender] */\n      tag_106\n      jumpi\n      pop\n        /* \"AccessControl.sol\":353:363  msg.sender */\n      caller\n        /* \"AccessControl.sol\":341:364  _accessList[msg.sender] */\n      0x00\n      swap1\n      dup2\n      mstore\n        /* \"AccessControl.sol\":341:352  _accessList */\n      0x01\n        /* \"AccessControl.sol\":341:364  _accessList[msg.sender] */\n      0x20\n      mstore\n      0x40\n      swap1\n      keccak256\n      sload\n      0xff\n      and\n        /* \"AccessControl.sol\":317:364  msg.sender == _admin || _accessList[msg.sender] */\n    tag_106:\n        /* \"AccessControl.sol\":309:383  require(msg.sender == _admin || _accessList[msg.sender], \"Not authorized\") */\n      tag_107\n      jumpi\n      mload(0x40)\n      shl(0xe5, 0x461bcd)\n      dup2\n      mstore\n      0x04\n      add\n      tag_67\n      swap1\n      tag_74\n      jump\t// in\n    tag_107:\n        /* \"FlipEngine.sol\":862:886  _secondImageDataUri = \"\" */\n      0x40\n      dup1\n      mload\n      0x20\n      dup2\n      add\n      swap1\n      swap2\n      mstore\n      0x00\n      dup2\n      mstore\n        /* \"FlipEngine.sol\":862:881  _secondImageDataUri */\n      0x03\n      swap1\n        /* \"FlipEngine.sol\":862:886  _secondImageDataUri = \"\" */\n      tag_92\n      swap1\n        /* \"FlipEngine.sol\":862:881  _secondImageDataUri */\n      dup3\n        /* \"FlipEngine.sol\":862:886  _secondImageDataUri = \"\" */\n      tag_79\n      jump\t// in\n        /* \"FlipEngine.sol\":1171:1274  function getFirstImage() public view returns (string memory) {... */\n    tag_51:\n        /* \"FlipEngine.sol\":1217:1230  string memory */\n      0x60\n        /* \"FlipEngine.sol\":1249:1267  _firstImageDataUri */\n      0x02\n        /* \"FlipEngine.sol\":1242:1267  return _firstImageDataUri */\n      dup1\n      sload\n      tag_59\n      swap1\n      tag_60\n      jump\t// in\n        /* \"FlipEngine.sol\":903:972  function flip() public onlyAuthorized {... */\n    tag_54:\n        /* \"AccessControl.sol\":331:337  _admin */\n      and(sub(shl(0xa0, 0x01), 0x01), sload(0x00))\n        /* \"AccessControl.sol\":317:327  msg.sender */\n      caller\n        /* \"AccessControl.sol\":317:337  msg.sender == _admin */\n      eq\n      dup1\n        /* \"AccessControl.sol\":317:364  msg.sender == _admin || _accessList[msg.sender] */\n      tag_119\n      jumpi\n      pop\n        /* \"AccessControl.sol\":353:363  msg.sender */\n      caller\n        /* \"AccessControl.sol\":341:364  _accessList[msg.sender] */\n      0x00\n      swap1\n      dup2\n      mstore\n        /* \"AccessControl.sol\":341:352  _accessList */\n      0x01\n        /* \"AccessControl.sol\":341:364  _accessList[msg.sender] */\n      0x20\n      mstore\n      0x40\n      swap1\n      keccak256\n      sload\n      0xff\n      and\n        /* \"AccessControl.sol\":317:364  msg.sender == _admin || _accessList[msg.sender] */\n    tag_119:\n        /* \"AccessControl.sol\":309:383  require(msg.sender == _admin || _accessList[msg.sender], \"Not authorized\") */\n      tag_120\n      jumpi\n      mload(0x40)\n      shl(0xe5, 0x461bcd)\n      dup2\n      mstore\n      0x04\n      add\n      tag_67\n      swap1\n      tag_74\n      jump\t// in\n    tag_120:\n        /* \"FlipEngine.sol\":960:965  _flip */\n      0x05\n      dup1\n      sload\n      not(0xff)\n        /* \"FlipEngine.sol\":951:965  _flip = !_flip */\n      dup2\n      and\n        /* \"FlipEngine.sol\":960:965  _flip */\n      0xff\n      swap1\n      swap2\n      and\n        /* \"FlipEngine.sol\":959:965  !_flip */\n      iszero\n        /* \"FlipEngine.sol\":951:965  _flip = !_flip */\n      or\n      swap1\n      sstore\n        /* \"FlipEngine.sol\":903:972  function flip() public onlyAuthorized {... */\n      jump\t// out\n        /* \"FlipEngine.sol\":978:1165  function getImage() public view returns (string memory) {... */\n    tag_56:\n        /* \"FlipEngine.sol\":1047:1052  _flip */\n      sload(0x05)\n        /* \"FlipEngine.sol\":1019:1032  string memory */\n      0x60\n      swap1\n        /* \"FlipEngine.sol\":1047:1052  _flip */\n      0xff\n      and\n        /* \"FlipEngine.sol\":1044:1159  if(_flip) {... */\n      iszero\n      tag_124\n      jumpi\n        /* \"FlipEngine.sol\":1074:1093  _secondImageDataUri */\n      0x03\n        /* \"FlipEngine.sol\":1067:1093  return _secondImageDataUri */\n      dup1\n      sload\n      tag_59\n      swap1\n      tag_60\n      jump\t// in\n        /* \"FlipEngine.sol\":1044:1159  if(_flip) {... */\n    tag_124:\n        /* \"FlipEngine.sol\":1130:1148  _firstImageDataUri */\n      0x02\n        /* \"FlipEngine.sol\":1123:1148  return _firstImageDataUri */\n      dup1\n      sload\n      tag_59\n      swap1\n      tag_60\n      jump\t// in\n        /* \"#utility.yul\":14:432   */\n    tag_21:\n        /* \"#utility.yul\":163:165   */\n      0x20\n        /* \"#utility.yul\":152:161   */\n      dup2\n        /* \"#utility.yul\":145:166   */\n      mstore\n        /* \"#utility.yul\":126:130   */\n      0x00\n        /* \"#utility.yul\":195:201   */\n      dup3\n        /* \"#utility.yul\":189:202   */\n      mload\n        /* \"#utility.yul\":238:244   */\n      dup1\n        /* \"#utility.yul\":233:235   */\n      0x20\n        /* \"#utility.yul\":222:231   */\n      dup5\n        /* \"#utility.yul\":218:236   */\n      add\n        /* \"#utility.yul\":211:245   */\n      mstore\n        /* \"#utility.yul\":297:303   */\n      dup1\n        /* \"#utility.yul\":292:294   */\n      0x20\n        /* \"#utility.yul\":284:290   */\n      dup6\n        /* \"#utility.yul\":280:295   */\n      add\n        /* \"#utility.yul\":275:277   */\n      0x40\n        /* \"#utility.yul\":264:273   */\n      dup6\n        /* \"#utility.yul\":260:278   */\n      add\n        /* \"#utility.yul\":254:304   */\n      mcopy\n        /* \"#utility.yul\":353:354   */\n      0x00\n        /* \"#utility.yul\":348:350   */\n      0x40\n        /* \"#utility.yul\":339:345   */\n      dup3\n        /* \"#utility.yul\":328:337   */\n      dup6\n        /* \"#utility.yul\":324:346   */\n      add\n        /* \"#utility.yul\":320:351   */\n      add\n        /* \"#utility.yul\":313:355   */\n      mstore\n        /* \"#utility.yul\":423:425   */\n      0x40\n        /* \"#utility.yul\":416:418   */\n      0x1f\n        /* \"#utility.yul\":412:419   */\n      not\n        /* \"#utility.yul\":407:409   */\n      0x1f\n        /* \"#utility.yul\":399:405   */\n      dup4\n        /* \"#utility.yul\":395:410   */\n      add\n        /* \"#utility.yul\":391:420   */\n      and\n        /* \"#utility.yul\":380:389   */\n      dup5\n        /* \"#utility.yul\":376:421   */\n      add\n        /* \"#utility.yul\":372:426   */\n      add\n        /* \"#utility.yul\":364:426   */\n      swap2\n      pop\n      pop\n        /* \"#utility.yul\":14:432   */\n      swap3\n      swap2\n      pop\n      pop\n      jump\t// out\n        /* \"#utility.yul\":437:723   */\n    tag_24:\n        /* \"#utility.yul\":496:502   */\n      0x00\n        /* \"#utility.yul\":549:551   */\n      0x20\n        /* \"#utility.yul\":537:546   */\n      dup3\n        /* \"#utility.yul\":528:535   */\n      dup5\n        /* \"#utility.yul\":524:547   */\n      sub\n        /* \"#utility.yul\":520:552   */\n      slt\n        /* \"#utility.yul\":517:569   */\n      iszero\n      tag_143\n      jumpi\n        /* \"#utility.yul\":565:566   */\n      0x00\n        /* \"#utility.yul\":562:563   */\n      dup1\n        /* \"#utility.yul\":555:567   */\n      revert\n        /* \"#utility.yul\":517:569   */\n    tag_143:\n        /* \"#utility.yul\":591:614   */\n      dup2\n      calldataload\n      sub(shl(0xa0, 0x01), 0x01)\n        /* \"#utility.yul\":643:674   */\n      dup2\n      and\n        /* \"#utility.yul\":633:675   */\n      dup2\n      eq\n        /* \"#utility.yul\":623:693   */\n      tag_144\n      jumpi\n        /* \"#utility.yul\":689:690   */\n      0x00\n        /* \"#utility.yul\":686:687   */\n      dup1\n        /* \"#utility.yul\":679:691   */\n      revert\n        /* \"#utility.yul\":623:693   */\n    tag_144:\n        /* \"#utility.yul\":712:717   */\n      swap4\n        /* \"#utility.yul\":437:723   */\n      swap3\n      pop\n      pop\n      pop\n      jump\t// out\n        /* \"#utility.yul\":728:855   */\n    tag_136:\n        /* \"#utility.yul\":789:799   */\n      0x4e487b71\n        /* \"#utility.yul\":784:787   */\n      0xe0\n        /* \"#utility.yul\":780:800   */\n      shl\n        /* \"#utility.yul\":777:778   */\n      0x00\n        /* \"#utility.yul\":770:801   */\n      mstore\n        /* \"#utility.yul\":820:824   */\n      0x41\n        /* \"#utility.yul\":817:818   */\n      0x04\n        /* \"#utility.yul\":810:825   */\n      mstore\n        /* \"#utility.yul\":844:848   */\n      0x24\n        /* \"#utility.yul\":841:842   */\n      0x00\n        /* \"#utility.yul\":834:849   */\n      revert\n        /* \"#utility.yul\":860:1805   */\n    tag_28:\n        /* \"#utility.yul\":929:935   */\n      0x00\n        /* \"#utility.yul\":982:984   */\n      0x20\n        /* \"#utility.yul\":970:979   */\n      dup3\n        /* \"#utility.yul\":961:968   */\n      dup5\n        /* \"#utility.yul\":957:980   */\n      sub\n        /* \"#utility.yul\":953:985   */\n      slt\n        /* \"#utility.yul\":950:1002   */\n      iszero\n      tag_147\n      jumpi\n        /* \"#utility.yul\":998:999   */\n      0x00\n        /* \"#utility.yul\":995:996   */\n      dup1\n        /* \"#utility.yul\":988:1000   */\n      revert\n        /* \"#utility.yul\":950:1002   */\n    tag_147:\n        /* \"#utility.yul\":1038:1047   */\n      dup2\n        /* \"#utility.yul\":1025:1048   */\n      calldataload\n        /* \"#utility.yul\":1071:1089   */\n      0xffffffffffffffff\n        /* \"#utility.yul\":1063:1069   */\n      dup2\n        /* \"#utility.yul\":1060:1090   */\n      gt\n        /* \"#utility.yul\":1057:1107   */\n      iszero\n      tag_148\n      jumpi\n        /* \"#utility.yul\":1103:1104   */\n      0x00\n        /* \"#utility.yul\":1100:1101   */\n      dup1\n        /* \"#utility.yul\":1093:1105   */\n      revert\n        /* \"#utility.yul\":1057:1107   */\n    tag_148:\n        /* \"#utility.yul\":1126:1148   */\n      dup3\n      add\n        /* \"#utility.yul\":1179:1183   */\n      0x1f\n        /* \"#utility.yul\":1171:1184   */\n      dup2\n      add\n        /* \"#utility.yul\":1167:1194   */\n      dup5\n      sgt\n        /* \"#utility.yul\":1157:1212   */\n      tag_149\n      jumpi\n        /* \"#utility.yul\":1208:1209   */\n      0x00\n        /* \"#utility.yul\":1205:1206   */\n      dup1\n        /* \"#utility.yul\":1198:1210   */\n      revert\n        /* \"#utility.yul\":1157:1212   */\n    tag_149:\n        /* \"#utility.yul\":1248:1250   */\n      dup1\n        /* \"#utility.yul\":1235:1251   */\n      calldataload\n        /* \"#utility.yul\":1274:1292   */\n      0xffffffffffffffff\n        /* \"#utility.yul\":1266:1272   */\n      dup2\n        /* \"#utility.yul\":1263:1293   */\n      gt\n        /* \"#utility.yul\":1260:1316   */\n      iszero\n      tag_151\n      jumpi\n        /* \"#utility.yul\":1296:1314   */\n      tag_151\n      tag_136\n      jump\t// in\n    tag_151:\n        /* \"#utility.yul\":1345:1347   */\n      0x40\n        /* \"#utility.yul\":1339:1348   */\n      mload\n        /* \"#utility.yul\":1437:1439   */\n      0x1f\n        /* \"#utility.yul\":1399:1416   */\n      dup3\n      add\n      not(0x1f)\n        /* \"#utility.yul\":1395:1426   */\n      swap1\n      dup2\n      and\n        /* \"#utility.yul\":1428:1430   */\n      0x3f\n        /* \"#utility.yul\":1391:1431   */\n      add\n        /* \"#utility.yul\":1387:1441   */\n      and\n        /* \"#utility.yul\":1375:1442   */\n      dup2\n      add\n        /* \"#utility.yul\":1472:1490   */\n      0xffffffffffffffff\n        /* \"#utility.yul\":1457:1491   */\n      dup2\n      gt\n        /* \"#utility.yul\":1493:1515   */\n      dup3\n      dup3\n      lt\n        /* \"#utility.yul\":1454:1516   */\n      or\n        /* \"#utility.yul\":1451:1539   */\n      iszero\n      tag_153\n      jumpi\n        /* \"#utility.yul\":1519:1537   */\n      tag_153\n      tag_136\n      jump\t// in\n    tag_153:\n        /* \"#utility.yul\":1555:1557   */\n      0x40\n        /* \"#utility.yul\":1548:1570   */\n      mstore\n        /* \"#utility.yul\":1579:1601   */\n      dup2\n      dup2\n      mstore\n        /* \"#utility.yul\":1620:1635   */\n      dup3\n      dup3\n      add\n        /* \"#utility.yul\":1637:1639   */\n      0x20\n        /* \"#utility.yul\":1616:1640   */\n      add\n        /* \"#utility.yul\":1613:1650   */\n      dup7\n      lt\n        /* \"#utility.yul\":1610:1667   */\n      iszero\n      tag_154\n      jumpi\n        /* \"#utility.yul\":1663:1664   */\n      0x00\n        /* \"#utility.yul\":1660:1661   */\n      dup1\n        /* \"#utility.yul\":1653:1665   */\n      revert\n        /* \"#utility.yul\":1610:1667   */\n    tag_154:\n        /* \"#utility.yul\":1719:1725   */\n      dup2\n        /* \"#utility.yul\":1714:1716   */\n      0x20\n        /* \"#utility.yul\":1710:1712   */\n      dup5\n        /* \"#utility.yul\":1706:1717   */\n      add\n        /* \"#utility.yul\":1701:1703   */\n      0x20\n        /* \"#utility.yul\":1693:1699   */\n      dup4\n        /* \"#utility.yul\":1689:1704   */\n      add\n        /* \"#utility.yul\":1676:1726   */\n      calldatacopy\n        /* \"#utility.yul\":1772:1773   */\n      0x00\n        /* \"#utility.yul\":1746:1765   */\n      swap2\n      dup2\n      add\n        /* \"#utility.yul\":1767:1769   */\n      0x20\n        /* \"#utility.yul\":1742:1770   */\n      add\n        /* \"#utility.yul\":1735:1774   */\n      swap2\n      swap1\n      swap2\n      mstore\n        /* \"#utility.yul\":1750:1756   */\n      swap5\n        /* \"#utility.yul\":860:1805   */\n      swap4\n      pop\n      pop\n      pop\n      pop\n      jump\t// out\n        /* \"#utility.yul\":2002:2382   */\n    tag_60:\n        /* \"#utility.yul\":2081:2082   */\n      0x01\n        /* \"#utility.yul\":2077:2089   */\n      dup2\n      dup2\n      shr\n      swap1\n        /* \"#utility.yul\":2124:2136   */\n      dup3\n      and\n      dup1\n        /* \"#utility.yul\":2145:2206   */\n      tag_157\n      jumpi\n        /* \"#utility.yul\":2199:2203   */\n      0x7f\n        /* \"#utility.yul\":2191:2197   */\n      dup3\n        /* \"#utility.yul\":2187:2204   */\n      and\n        /* \"#utility.yul\":2177:2204   */\n      swap2\n      pop\n        /* \"#utility.yul\":2145:2206   */\n    tag_157:\n        /* \"#utility.yul\":2252:2254   */\n      0x20\n        /* \"#utility.yul\":2244:2250   */\n      dup3\n        /* \"#utility.yul\":2241:2255   */\n      lt\n        /* \"#utility.yul\":2221:2239   */\n      dup2\n        /* \"#utility.yul\":2218:2256   */\n      sub\n        /* \"#utility.yul\":2215:2376   */\n      tag_158\n      jumpi\n        /* \"#utility.yul\":2298:2308   */\n      0x4e487b71\n        /* \"#utility.yul\":2293:2296   */\n      0xe0\n        /* \"#utility.yul\":2289:2309   */\n      shl\n        /* \"#utility.yul\":2286:2287   */\n      0x00\n        /* \"#utility.yul\":2279:2310   */\n      mstore\n        /* \"#utility.yul\":2333:2337   */\n      0x22\n        /* \"#utility.yul\":2330:2331   */\n      0x04\n        /* \"#utility.yul\":2323:2338   */\n      mstore\n        /* \"#utility.yul\":2361:2365   */\n      0x24\n        /* \"#utility.yul\":2358:2359   */\n      0x00\n        /* \"#utility.yul\":2351:2366   */\n      revert\n        /* \"#utility.yul\":2215:2376   */\n    tag_158:\n      pop\n        /* \"#utility.yul\":2002:2382   */\n      swap2\n      swap1\n      pop\n      jump\t// out\n        /* \"#utility.yul\":2726:3064   */\n    tag_74:\n        /* \"#utility.yul\":2928:2930   */\n      0x20\n        /* \"#utility.yul\":2910:2931   */\n      dup1\n      dup3\n      mstore\n        /* \"#utility.yul\":2967:2969   */\n      0x0e\n        /* \"#utility.yul\":2947:2965   */\n      swap1\n      dup3\n      add\n        /* \"#utility.yul\":2940:2970   */\n      mstore\n      shl(0x92, 0x139bdd08185d5d1a1bdc9a5e9959)\n        /* \"#utility.yul\":3001:3003   */\n      0x40\n        /* \"#utility.yul\":2986:3004   */\n      dup3\n      add\n        /* \"#utility.yul\":2979:3023   */\n      mstore\n        /* \"#utility.yul\":3055:3057   */\n      0x60\n        /* \"#utility.yul\":3040:3058   */\n      add\n      swap1\n        /* \"#utility.yul\":2726:3064   */\n      jump\t// out\n        /* \"#utility.yul\":3195:4184   */\n    tag_77:\n        /* \"#utility.yul\":3371:3374   */\n      0x00\n        /* \"#utility.yul\":3400:3401   */\n      dup1\n        /* \"#utility.yul\":3433:3439   */\n      dup5\n        /* \"#utility.yul\":3427:3440   */\n      sload\n        /* \"#utility.yul\":3463:3499   */\n      tag_163\n        /* \"#utility.yul\":3489:3498   */\n      dup2\n        /* \"#utility.yul\":3463:3499   */\n      tag_60\n      jump\t// in\n    tag_163:\n        /* \"#utility.yul\":3530:3531   */\n      0x01\n        /* \"#utility.yul\":3515:3532   */\n      dup3\n      and\n        /* \"#utility.yul\":3541:3674   */\n      dup1\n      iszero\n      tag_165\n      jumpi\n        /* \"#utility.yul\":3688:3689   */\n      0x01\n        /* \"#utility.yul\":3683:4015   */\n      dup2\n      eq\n      tag_166\n      jumpi\n        /* \"#utility.yul\":3508:4015   */\n      jump(tag_164)\n        /* \"#utility.yul\":3541:3674   */\n    tag_165:\n      not(0xff)\n        /* \"#utility.yul\":3574:3598   */\n      dup4\n      and\n        /* \"#utility.yul\":3562:3599   */\n      dup7\n      mstore\n        /* \"#utility.yul\":3647:3661   */\n      dup2\n      iszero\n        /* \"#utility.yul\":3640:3662   */\n      iszero\n        /* \"#utility.yul\":3628:3663   */\n      dup3\n      mul\n        /* \"#utility.yul\":3619:3664   */\n      dup7\n      add\n      swap4\n      pop\n        /* \"#utility.yul\":3541:3674   */\n      jump(tag_164)\n        /* \"#utility.yul\":3683:4015   */\n    tag_166:\n        /* \"#utility.yul\":3714:3720   */\n      dup8\n        /* \"#utility.yul\":3711:3712   */\n      0x00\n        /* \"#utility.yul\":3704:3721   */\n      mstore\n        /* \"#utility.yul\":3762:3766   */\n      0x20\n        /* \"#utility.yul\":3759:3760   */\n      0x00\n        /* \"#utility.yul\":3749:3767   */\n      keccak256\n        /* \"#utility.yul\":3789:3790   */\n      0x00\n        /* \"#utility.yul\":3803:3969   */\n    tag_167:\n        /* \"#utility.yul\":3817:3823   */\n      dup4\n        /* \"#utility.yul\":3814:3815   */\n      dup2\n        /* \"#utility.yul\":3811:3824   */\n      lt\n        /* \"#utility.yul\":3803:3969   */\n      iszero\n      tag_169\n      jumpi\n        /* \"#utility.yul\":3897:3911   */\n      dup2\n      sload\n        /* \"#utility.yul\":3884:3895   */\n      dup9\n      dup3\n      add\n        /* \"#utility.yul\":3877:3912   */\n      mstore\n        /* \"#utility.yul\":3953:3954   */\n      0x01\n        /* \"#utility.yul\":3940:3955   */\n      swap1\n      swap2\n      add\n      swap1\n        /* \"#utility.yul\":3839:3843   */\n      0x20\n        /* \"#utility.yul\":3832:3844   */\n      add\n        /* \"#utility.yul\":3803:3969   */\n      jump(tag_167)\n    tag_169:\n        /* \"#utility.yul\":3807:3810   */\n      pop\n      pop\n        /* \"#utility.yul\":3998:4004   */\n      dup2\n        /* \"#utility.yul\":3993:3996   */\n      dup7\n        /* \"#utility.yul\":3989:4005   */\n      add\n        /* \"#utility.yul\":3982:4005   */\n      swap4\n      pop\n        /* \"#utility.yul\":3508:4015   */\n    tag_164:\n      pop\n      pop\n      pop\n        /* \"#utility.yul\":4046:4052   */\n      dup4\n        /* \"#utility.yul\":4040:4053   */\n      mload\n        /* \"#utility.yul\":4092:4100   */\n      dup1\n        /* \"#utility.yul\":4085:4089   */\n      0x20\n        /* \"#utility.yul\":4077:4083   */\n      dup7\n        /* \"#utility.yul\":4073:4090   */\n      add\n        /* \"#utility.yul\":4068:4071   */\n      dup4\n        /* \"#utility.yul\":4062:4101   */\n      mcopy\n        /* \"#utility.yul\":4158:4159   */\n      0x00\n        /* \"#utility.yul\":4120:4138   */\n      swap2\n      add\n        /* \"#utility.yul\":4147:4160   */\n      swap1\n      dup2\n      mstore\n        /* \"#utility.yul\":4120:4138   */\n      swap5\n        /* \"#utility.yul\":3195:4184   */\n      swap4\n      pop\n      pop\n      pop\n      pop\n      jump\t// out\n        /* \"#utility.yul\":4189:4707   */\n    tag_138:\n        /* \"#utility.yul\":4291:4293   */\n      0x1f\n        /* \"#utility.yul\":4286:4289   */\n      dup3\n        /* \"#utility.yul\":4283:4294   */\n      gt\n        /* \"#utility.yul\":4280:4701   */\n      iszero\n      tag_171\n      jumpi\n        /* \"#utility.yul\":4327:4332   */\n      dup1\n        /* \"#utility.yul\":4324:4325   */\n      0x00\n        /* \"#utility.yul\":4317:4333   */\n      mstore\n        /* \"#utility.yul\":4371:4375   */\n      0x20\n        /* \"#utility.yul\":4368:4369   */\n      0x00\n        /* \"#utility.yul\":4358:4376   */\n      keccak256\n        /* \"#utility.yul\":4441:4443   */\n      0x1f\n        /* \"#utility.yul\":4429:4439   */\n      dup5\n        /* \"#utility.yul\":4425:4444   */\n      add\n        /* \"#utility.yul\":4422:4423   */\n      0x05\n        /* \"#utility.yul\":4418:4445   */\n      shr\n        /* \"#utility.yul\":4412:4416   */\n      dup2\n        /* \"#utility.yul\":4408:4446   */\n      add\n        /* \"#utility.yul\":4477:4481   */\n      0x20\n        /* \"#utility.yul\":4465:4475   */\n      dup6\n        /* \"#utility.yul\":4462:4482   */\n      lt\n        /* \"#utility.yul\":4459:4506   */\n      iszero\n      tag_172\n      jumpi\n      pop\n        /* \"#utility.yul\":4500:4504   */\n      dup1\n        /* \"#utility.yul\":4459:4506   */\n    tag_172:\n        /* \"#utility.yul\":4555:4557   */\n      0x1f\n        /* \"#utility.yul\":4550:4553   */\n      dup5\n        /* \"#utility.yul\":4546:4558   */\n      add\n        /* \"#utility.yul\":4543:4544   */\n      0x05\n        /* \"#utility.yul\":4539:4559   */\n      shr\n        /* \"#utility.yul\":4533:4537   */\n      dup3\n        /* \"#utility.yul\":4529:4560   */\n      add\n        /* \"#utility.yul\":4519:4560   */\n      swap2\n      pop\n        /* \"#utility.yul\":4610:4691   */\n    tag_173:\n        /* \"#utility.yul\":4628:4630   */\n      dup2\n        /* \"#utility.yul\":4621:4626   */\n      dup2\n        /* \"#utility.yul\":4618:4631   */\n      lt\n        /* \"#utility.yul\":4610:4691   */\n      iszero\n      tag_175\n      jumpi\n        /* \"#utility.yul\":4687:4688   */\n      0x00\n        /* \"#utility.yul\":4673:4689   */\n      dup2\n      sstore\n        /* \"#utility.yul\":4654:4655   */\n      0x01\n        /* \"#utility.yul\":4643:4656   */\n      add\n        /* \"#utility.yul\":4610:4691   */\n      jump(tag_173)\n    tag_175:\n        /* \"#utility.yul\":4614:4617   */\n      pop\n      pop\n        /* \"#utility.yul\":4280:4701   */\n    tag_171:\n        /* \"#utility.yul\":4189:4707   */\n      pop\n      pop\n      pop\n      jump\t// out\n        /* \"#utility.yul\":4883:6182   */\n    tag_79:\n        /* \"#utility.yul\":5009:5012   */\n      dup2\n        /* \"#utility.yul\":5003:5013   */\n      mload\n        /* \"#utility.yul\":5036:5054   */\n      0xffffffffffffffff\n        /* \"#utility.yul\":5028:5034   */\n      dup2\n        /* \"#utility.yul\":5025:5055   */\n      gt\n        /* \"#utility.yul\":5022:5078   */\n      iszero\n      tag_179\n      jumpi\n        /* \"#utility.yul\":5058:5076   */\n      tag_179\n      tag_136\n      jump\t// in\n    tag_179:\n        /* \"#utility.yul\":5087:5184   */\n      tag_180\n        /* \"#utility.yul\":5177:5183   */\n      dup2\n        /* \"#utility.yul\":5137:5175   */\n      tag_181\n        /* \"#utility.yul\":5169:5173   */\n      dup5\n        /* \"#utility.yul\":5163:5174   */\n      sload\n        /* \"#utility.yul\":5137:5175   */\n      tag_60\n      jump\t// in\n    tag_181:\n        /* \"#utility.yul\":5131:5135   */\n      dup5\n        /* \"#utility.yul\":5087:5184   */\n      tag_138\n      jump\t// in\n    tag_180:\n        /* \"#utility.yul\":5233:5237   */\n      0x20\n        /* \"#utility.yul\":5264:5266   */\n      0x1f\n        /* \"#utility.yul\":5253:5267   */\n      dup3\n      gt\n        /* \"#utility.yul\":5281:5282   */\n      0x01\n        /* \"#utility.yul\":5276:5925   */\n      dup2\n      eq\n      tag_183\n      jumpi\n        /* \"#utility.yul\":5969:5970   */\n      0x00\n        /* \"#utility.yul\":5986:5992   */\n      dup4\n        /* \"#utility.yul\":5983:6072   */\n      iszero\n      tag_184\n      jumpi\n      pop\n        /* \"#utility.yul\":6038:6057   */\n      dup5\n      dup3\n      add\n        /* \"#utility.yul\":6032:6058   */\n      mload\n        /* \"#utility.yul\":5983:6072   */\n    tag_184:\n      not(0x00)\n        /* \"#utility.yul\":4840:4841   */\n      0x03\n        /* \"#utility.yul\":4836:4847   */\n      dup6\n      swap1\n      shl\n        /* \"#utility.yul\":4832:4856   */\n      shr\n        /* \"#utility.yul\":4828:4857   */\n      not\n        /* \"#utility.yul\":4818:4858   */\n      and\n        /* \"#utility.yul\":4864:4865   */\n      0x01\n        /* \"#utility.yul\":4860:4871   */\n      dup5\n      swap1\n      shl\n        /* \"#utility.yul\":4815:4872   */\n      or\n        /* \"#utility.yul\":6085:6166   */\n      dup5\n      sstore\n        /* \"#utility.yul\":5246:6176   */\n      jump(tag_175)\n        /* \"#utility.yul\":5276:5925   */\n    tag_183:\n        /* \"#utility.yul\":3142:3143   */\n      0x00\n        /* \"#utility.yul\":3135:3149   */\n      dup5\n      dup2\n      mstore\n        /* \"#utility.yul\":3179:3183   */\n      0x20\n        /* \"#utility.yul\":3166:3184   */\n      dup2\n      keccak256\n      not(0x1f)\n        /* \"#utility.yul\":5312:5332   */\n      dup6\n      and\n      swap2\n        /* \"#utility.yul\":5430:5652   */\n    tag_187:\n        /* \"#utility.yul\":5444:5451   */\n      dup3\n        /* \"#utility.yul\":5441:5442   */\n      dup2\n        /* \"#utility.yul\":5438:5452   */\n      lt\n        /* \"#utility.yul\":5430:5652   */\n      iszero\n      tag_189\n      jumpi\n        /* \"#utility.yul\":5526:5545   */\n      dup8\n      dup6\n      add\n        /* \"#utility.yul\":5520:5546   */\n      mload\n        /* \"#utility.yul\":5505:5547   */\n      dup3\n      sstore\n        /* \"#utility.yul\":5633:5637   */\n      0x20\n        /* \"#utility.yul\":5618:5638   */\n      swap5\n      dup6\n      add\n      swap5\n        /* \"#utility.yul\":5586:5587   */\n      0x01\n        /* \"#utility.yul\":5574:5588   */\n      swap1\n      swap3\n      add\n      swap2\n        /* \"#utility.yul\":5460:5472   */\n      add\n        /* \"#utility.yul\":5430:5652   */\n      jump(tag_187)\n    tag_189:\n        /* \"#utility.yul\":5434:5437   */\n      pop\n        /* \"#utility.yul\":5680:5686   */\n      dup5\n        /* \"#utility.yul\":5671:5678   */\n      dup3\n        /* \"#utility.yul\":5668:5687   */\n      lt\n        /* \"#utility.yul\":5665:5866   */\n      iszero\n      tag_190\n      jumpi\n        /* \"#utility.yul\":5741:5760   */\n      dup7\n      dup5\n      add\n        /* \"#utility.yul\":5735:5761   */\n      mload\n      not(0x00)\n        /* \"#utility.yul\":5824:5825   */\n      0x03\n        /* \"#utility.yul\":5820:5834   */\n      dup8\n      swap1\n      shl\n        /* \"#utility.yul\":5836:5839   */\n      0xf8\n        /* \"#utility.yul\":5816:5840   */\n      and\n        /* \"#utility.yul\":5812:5849   */\n      shr\n        /* \"#utility.yul\":5808:5850   */\n      not\n        /* \"#utility.yul\":5793:5851   */\n      and\n        /* \"#utility.yul\":5778:5852   */\n      dup2\n      sstore\n        /* \"#utility.yul\":5665:5866   */\n    tag_190:\n      pop\n      pop\n      pop\n      pop\n        /* \"#utility.yul\":5912:5913   */\n      0x01\n        /* \"#utility.yul\":5896:5910   */\n      swap1\n      dup2\n      shl\n        /* \"#utility.yul\":5892:5914   */\n      add\n        /* \"#utility.yul\":5879:5915   */\n      swap1\n      sstore\n      pop\n        /* \"#utility.yul\":4883:6182   */\n      jump\t// out\n\n    auxdata: 0xa2646970667358221220df08e37c99c269ddf546e62da225bd06fcd568cefe65698532a7698957fe4f1364736f6c634300081a0033\n}\n",
				"bytecode": {
					"linkReferences": {},
					"object": "60806040526005805460ff191690553480156018575f80fd5b505f80546001600160a01b031916331790556108fb806100375f395ff3fe608060405234801561000f575f80fd5b50600436106100cb575f3560e01c806385e685311161008857806395a078e81161006357806395a078e8146101715780639a9ed1991461019c578063cde4efa9146101a4578063f3651cbb146101ac575f80fd5b806385e68531146101385780638f32d59b1461014b5780638feb144e14610169575f80fd5b806303e03c6e146100cf5780630ae5e739146100ed5780632e918ff7146101025780635923e3dc14610115578063668f7b7814610128578063853828b614610130575b5f80fd5b6100d76101b4565b6040516100e491906105b5565b60405180910390f35b6101006100fb3660046105ea565b610244565b005b61010061011036600461062b565b6102b5565b61010061012336600461062b565b61032c565b61010061039f565b6101006103ff565b6101006101463660046105ea565b610465565b5f546001600160a01b031633145b60405190151581526020016100e4565b6101006104cb565b61015961017f3660046105ea565b6001600160a01b03165f9081526001602052604090205460ff1690565b6100d7610528565b610100610537565b6100d761058d565b6060600380546101c3906106de565b80601f01602080910402602001604051908101604052809291908181526020018280546101ef906106de565b801561023a5780601f106102115761010080835404028352916020019161023a565b820191905f5260205f20905b81548152906001019060200180831161021d57829003601f168201915b5050505050905090565b5f546001600160a01b0316331461028f5760405162461bcd60e51b815260206004820152600a6024820152694e6f7420616e6472657760b01b60448201526064015b60405180910390fd5b6001600160a01b03165f908152600160208190526040909120805460ff19169091179055565b5f546001600160a01b03163314806102db5750335f9081526001602052604090205460ff165b6102f75760405162461bcd60e51b815260040161028690610716565b60028160405160200161030b92919061073e565b60405160208183030381529060405260029081610328919061080a565b5050565b5f546001600160a01b03163314806103525750335f9081526001602052604090205460ff165b61036e5760405162461bcd60e51b815260040161028690610716565b60038160405160200161038292919061073e565b60405160208183030381529060405260039081610328919061080a565b5f546001600160a01b03163314806103c55750335f9081526001602052604090205460ff165b6103e15760405162461bcd60e51b815260040161028690610716565b60408051602081019091525f81526002906103fc908261080a565b50565b5f546001600160a01b03163314806104255750335f9081526001602052604090205460ff165b6104415760405162461bcd60e51b815260040161028690610716565b60405133904780156108fc02915f818181858888f19350505050610463575f80fd5b565b5f546001600160a01b031633146104ab5760405162461bcd60e51b815260206004820152600a6024820152694e6f7420616e6472657760b01b6044820152606401610286565b6001600160a01b03165f908152600160205260409020805460ff19169055565b5f546001600160a01b03163314806104f15750335f9081526001602052604090205460ff165b61050d5760405162461bcd60e51b815260040161028690610716565b60408051602081019091525f81526003906103fc908261080a565b6060600280546101c3906106de565b5f546001600160a01b031633148061055d5750335f9081526001602052604090205460ff165b6105795760405162461bcd60e51b815260040161028690610716565b6005805460ff19811660ff90911615179055565b60055460609060ff16156105a857600380546101c3906106de565b600280546101c3906106de565b602081525f82518060208401528060208501604085015e5f604082850101526040601f19601f83011684010191505092915050565b5f602082840312156105fa575f80fd5b81356001600160a01b0381168114610610575f80fd5b9392505050565b634e487b7160e01b5f52604160045260245ffd5b5f6020828403121561063b575f80fd5b813567ffffffffffffffff811115610651575f80fd5b8201601f81018413610661575f80fd5b803567ffffffffffffffff81111561067b5761067b610617565b604051601f8201601f19908116603f0116810167ffffffffffffffff811182821017156106aa576106aa610617565b6040528181528282016020018610156106c1575f80fd5b816020840160208301375f91810160200191909152949350505050565b600181811c908216806106f257607f821691505b60208210810361071057634e487b7160e01b5f52602260045260245ffd5b50919050565b6020808252600e908201526d139bdd08185d5d1a1bdc9a5e995960921b604082015260600190565b5f80845461074b816106de565b6001821680156107625760018114610777576107a4565b60ff19831686528115158202860193506107a4565b875f5260205f205f5b8381101561079c57815488820152600190910190602001610780565b505081860193505b50505083518060208601835e5f9101908152949350505050565b601f82111561080557805f5260205f20601f840160051c810160208510156107e35750805b601f840160051c820191505b81811015610802575f81556001016107ef565b50505b505050565b815167ffffffffffffffff81111561082457610824610617565b6108388161083284546106de565b846107be565b6020601f82116001811461086a575f83156108535750848201515b5f19600385901b1c1916600184901b178455610802565b5f84815260208120601f198516915b828110156108995787850151825560209485019460019092019101610879565b50848210156108b657868401515f19600387901b60f8161c191681555b50505050600190811b0190555056fea2646970667358221220df08e37c99c269ddf546e62da225bd06fcd568cefe65698532a7698957fe4f1364736f6c634300081a0033",
					"opcodes": "PUSH1 0x80 PUSH1 0x40 MSTORE PUSH1 0x5 DUP1 SLOAD PUSH1 0xFF NOT AND SWAP1 SSTORE CALLVALUE DUP1 ISZERO PUSH1 0x18 JUMPI PUSH0 DUP1 REVERT JUMPDEST POP PUSH0 DUP1 SLOAD PUSH1 0x1 PUSH1 0x1 PUSH1 0xA0 SHL SUB NOT AND CALLER OR SWAP1 SSTORE PUSH2 0x8FB DUP1 PUSH2 0x37 PUSH0 CODECOPY PUSH0 RETURN INVALID PUSH1 0x80 PUSH1 0x40 MSTORE CALLVALUE DUP1 ISZERO PUSH2 0xF JUMPI PUSH0 DUP1 REVERT JUMPDEST POP PUSH1 0x4 CALLDATASIZE LT PUSH2 0xCB JUMPI PUSH0 CALLDATALOAD PUSH1 0xE0 SHR DUP1 PUSH4 0x85E68531 GT PUSH2 0x88 JUMPI DUP1 PUSH4 0x95A078E8 GT PUSH2 0x63 JUMPI DUP1 PUSH4 0x95A078E8 EQ PUSH2 0x171 JUMPI DUP1 PUSH4 0x9A9ED199 EQ PUSH2 0x19C JUMPI DUP1 PUSH4 0xCDE4EFA9 EQ PUSH2 0x1A4 JUMPI DUP1 PUSH4 0xF3651CBB EQ PUSH2 0x1AC JUMPI PUSH0 DUP1 REVERT JUMPDEST DUP1 PUSH4 0x85E68531 EQ PUSH2 0x138 JUMPI DUP1 PUSH4 0x8F32D59B EQ PUSH2 0x14B JUMPI DUP1 PUSH4 0x8FEB144E EQ PUSH2 0x169 JUMPI PUSH0 DUP1 REVERT JUMPDEST DUP1 PUSH4 0x3E03C6E EQ PUSH2 0xCF JUMPI DUP1 PUSH4 0xAE5E739 EQ PUSH2 0xED JUMPI DUP1 PUSH4 0x2E918FF7 EQ PUSH2 0x102 JUMPI DUP1 PUSH4 0x5923E3DC EQ PUSH2 0x115 JUMPI DUP1 PUSH4 0x668F7B78 EQ PUSH2 0x128 JUMPI DUP1 PUSH4 0x853828B6 EQ PUSH2 0x130 JUMPI JUMPDEST PUSH0 DUP1 REVERT JUMPDEST PUSH2 0xD7 PUSH2 0x1B4 JUMP JUMPDEST PUSH1 0x40 MLOAD PUSH2 0xE4 SWAP2 SWAP1 PUSH2 0x5B5 JUMP JUMPDEST PUSH1 0x40 MLOAD DUP1 SWAP2 SUB SWAP1 RETURN JUMPDEST PUSH2 0x100 PUSH2 0xFB CALLDATASIZE PUSH1 0x4 PUSH2 0x5EA JUMP JUMPDEST PUSH2 0x244 JUMP JUMPDEST STOP JUMPDEST PUSH2 0x100 PUSH2 0x110 CALLDATASIZE PUSH1 0x4 PUSH2 0x62B JUMP JUMPDEST PUSH2 0x2B5 JUMP JUMPDEST PUSH2 0x100 PUSH2 0x123 CALLDATASIZE PUSH1 0x4 PUSH2 0x62B JUMP JUMPDEST PUSH2 0x32C JUMP JUMPDEST PUSH2 0x100 PUSH2 0x39F JUMP JUMPDEST PUSH2 0x100 PUSH2 0x3FF JUMP JUMPDEST PUSH2 0x100 PUSH2 0x146 CALLDATASIZE PUSH1 0x4 PUSH2 0x5EA JUMP JUMPDEST PUSH2 0x465 JUMP JUMPDEST PUSH0 SLOAD PUSH1 0x1 PUSH1 0x1 PUSH1 0xA0 SHL SUB AND CALLER EQ JUMPDEST PUSH1 0x40 MLOAD SWAP1 ISZERO ISZERO DUP2 MSTORE PUSH1 0x20 ADD PUSH2 0xE4 JUMP JUMPDEST PUSH2 0x100 PUSH2 0x4CB JUMP JUMPDEST PUSH2 0x159 PUSH2 0x17F CALLDATASIZE PUSH1 0x4 PUSH2 0x5EA JUMP JUMPDEST PUSH1 0x1 PUSH1 0x1 PUSH1 0xA0 SHL SUB AND PUSH0 SWAP1 DUP2 MSTORE PUSH1 0x1 PUSH1 0x20 MSTORE PUSH1 0x40 SWAP1 KECCAK256 SLOAD PUSH1 0xFF AND SWAP1 JUMP JUMPDEST PUSH2 0xD7 PUSH2 0x528 JUMP JUMPDEST PUSH2 0x100 PUSH2 0x537 JUMP JUMPDEST PUSH2 0xD7 PUSH2 0x58D JUMP JUMPDEST PUSH1 0x60 PUSH1 0x3 DUP1 SLOAD PUSH2 0x1C3 SWAP1 PUSH2 0x6DE JUMP JUMPDEST DUP1 PUSH1 0x1F ADD PUSH1 0x20 DUP1 SWAP2 DIV MUL PUSH1 0x20 ADD PUSH1 0x40 MLOAD SWAP1 DUP2 ADD PUSH1 0x40 MSTORE DUP1 SWAP3 SWAP2 SWAP1 DUP2 DUP2 MSTORE PUSH1 0x20 ADD DUP3 DUP1 SLOAD PUSH2 0x1EF SWAP1 PUSH2 0x6DE JUMP JUMPDEST DUP1 ISZERO PUSH2 0x23A JUMPI DUP1 PUSH1 0x1F LT PUSH2 0x211 JUMPI PUSH2 0x100 DUP1 DUP4 SLOAD DIV MUL DUP4 MSTORE SWAP2 PUSH1 0x20 ADD SWAP2 PUSH2 0x23A JUMP JUMPDEST DUP3 ADD SWAP2 SWAP1 PUSH0 MSTORE PUSH1 0x20 PUSH0 KECCAK256 SWAP1 JUMPDEST DUP2 SLOAD DUP2 MSTORE SWAP1 PUSH1 0x1 ADD SWAP1 PUSH1 0x20 ADD DUP1 DUP4 GT PUSH2 0x21D JUMPI DUP3 SWAP1 SUB PUSH1 0x1F AND DUP3 ADD SWAP2 JUMPDEST POP POP POP POP POP SWAP1 POP SWAP1 JUMP JUMPDEST PUSH0 SLOAD PUSH1 0x1 PUSH1 0x1 PUSH1 0xA0 SHL SUB AND CALLER EQ PUSH2 0x28F JUMPI PUSH1 0x40 MLOAD PUSH3 0x461BCD PUSH1 0xE5 SHL DUP2 MSTORE PUSH1 0x20 PUSH1 0x4 DUP3 ADD MSTORE PUSH1 0xA PUSH1 0x24 DUP3 ADD MSTORE PUSH10 0x4E6F7420616E64726577 PUSH1 0xB0 SHL PUSH1 0x44 DUP3 ADD MSTORE PUSH1 0x64 ADD JUMPDEST PUSH1 0x40 MLOAD DUP1 SWAP2 SUB SWAP1 REVERT JUMPDEST PUSH1 0x1 PUSH1 0x1 PUSH1 0xA0 SHL SUB AND PUSH0 SWAP1 DUP2 MSTORE PUSH1 0x1 PUSH1 0x20 DUP2 SWAP1 MSTORE PUSH1 0x40 SWAP1 SWAP2 KECCAK256 DUP1 SLOAD PUSH1 0xFF NOT AND SWAP1 SWAP2 OR SWAP1 SSTORE JUMP JUMPDEST PUSH0 SLOAD PUSH1 0x1 PUSH1 0x1 PUSH1 0xA0 SHL SUB AND CALLER EQ DUP1 PUSH2 0x2DB JUMPI POP CALLER PUSH0 SWAP1 DUP2 MSTORE PUSH1 0x1 PUSH1 0x20 MSTORE PUSH1 0x40 SWAP1 KECCAK256 SLOAD PUSH1 0xFF AND JUMPDEST PUSH2 0x2F7 JUMPI PUSH1 0x40 MLOAD PUSH3 0x461BCD PUSH1 0xE5 SHL DUP2 MSTORE PUSH1 0x4 ADD PUSH2 0x286 SWAP1 PUSH2 0x716 JUMP JUMPDEST PUSH1 0x2 DUP2 PUSH1 0x40 MLOAD PUSH1 0x20 ADD PUSH2 0x30B SWAP3 SWAP2 SWAP1 PUSH2 0x73E JUMP JUMPDEST PUSH1 0x40 MLOAD PUSH1 0x20 DUP2 DUP4 SUB SUB DUP2 MSTORE SWAP1 PUSH1 0x40 MSTORE PUSH1 0x2 SWAP1 DUP2 PUSH2 0x328 SWAP2 SWAP1 PUSH2 0x80A JUMP JUMPDEST POP POP JUMP JUMPDEST PUSH0 SLOAD PUSH1 0x1 PUSH1 0x1 PUSH1 0xA0 SHL SUB AND CALLER EQ DUP1 PUSH2 0x352 JUMPI POP CALLER PUSH0 SWAP1 DUP2 MSTORE PUSH1 0x1 PUSH1 0x20 MSTORE PUSH1 0x40 SWAP1 KECCAK256 SLOAD PUSH1 0xFF AND JUMPDEST PUSH2 0x36E JUMPI PUSH1 0x40 MLOAD PUSH3 0x461BCD PUSH1 0xE5 SHL DUP2 MSTORE PUSH1 0x4 ADD PUSH2 0x286 SWAP1 PUSH2 0x716 JUMP JUMPDEST PUSH1 0x3 DUP2 PUSH1 0x40 MLOAD PUSH1 0x20 ADD PUSH2 0x382 SWAP3 SWAP2 SWAP1 PUSH2 0x73E JUMP JUMPDEST PUSH1 0x40 MLOAD PUSH1 0x20 DUP2 DUP4 SUB SUB DUP2 MSTORE SWAP1 PUSH1 0x40 MSTORE PUSH1 0x3 SWAP1 DUP2 PUSH2 0x328 SWAP2 SWAP1 PUSH2 0x80A JUMP JUMPDEST PUSH0 SLOAD PUSH1 0x1 PUSH1 0x1 PUSH1 0xA0 SHL SUB AND CALLER EQ DUP1 PUSH2 0x3C5 JUMPI POP CALLER PUSH0 SWAP1 DUP2 MSTORE PUSH1 0x1 PUSH1 0x20 MSTORE PUSH1 0x40 SWAP1 KECCAK256 SLOAD PUSH1 0xFF AND JUMPDEST PUSH2 0x3E1 JUMPI PUSH1 0x40 MLOAD PUSH3 0x461BCD PUSH1 0xE5 SHL DUP2 MSTORE PUSH1 0x4 ADD PUSH2 0x286 SWAP1 PUSH2 0x716 JUMP JUMPDEST PUSH1 0x40 DUP1 MLOAD PUSH1 0x20 DUP2 ADD SWAP1 SWAP2 MSTORE PUSH0 DUP2 MSTORE PUSH1 0x2 SWAP1 PUSH2 0x3FC SWAP1 DUP3 PUSH2 0x80A JUMP JUMPDEST POP JUMP JUMPDEST PUSH0 SLOAD PUSH1 0x1 PUSH1 0x1 PUSH1 0xA0 SHL SUB AND CALLER EQ DUP1 PUSH2 0x425 JUMPI POP CALLER PUSH0 SWAP1 DUP2 MSTORE PUSH1 0x1 PUSH1 0x20 MSTORE PUSH1 0x40 SWAP1 KECCAK256 SLOAD PUSH1 0xFF AND JUMPDEST PUSH2 0x441 JUMPI PUSH1 0x40 MLOAD PUSH3 0x461BCD PUSH1 0xE5 SHL DUP2 MSTORE PUSH1 0x4 ADD PUSH2 0x286 SWAP1 PUSH2 0x716 JUMP JUMPDEST PUSH1 0x40 MLOAD CALLER SWAP1 SELFBALANCE DUP1 ISZERO PUSH2 0x8FC MUL SWAP2 PUSH0 DUP2 DUP2 DUP2 DUP6 DUP9 DUP9 CALL SWAP4 POP POP POP POP PUSH2 0x463 JUMPI PUSH0 DUP1 REVERT JUMPDEST JUMP JUMPDEST PUSH0 SLOAD PUSH1 0x1 PUSH1 0x1 PUSH1 0xA0 SHL SUB AND CALLER EQ PUSH2 0x4AB JUMPI PUSH1 0x40 MLOAD PUSH3 0x461BCD PUSH1 0xE5 SHL DUP2 MSTORE PUSH1 0x20 PUSH1 0x4 DUP3 ADD MSTORE PUSH1 0xA PUSH1 0x24 DUP3 ADD MSTORE PUSH10 0x4E6F7420616E64726577 PUSH1 0xB0 SHL PUSH1 0x44 DUP3 ADD MSTORE PUSH1 0x64 ADD PUSH2 0x286 JUMP JUMPDEST PUSH1 0x1 PUSH1 0x1 PUSH1 0xA0 SHL SUB AND PUSH0 SWAP1 DUP2 MSTORE PUSH1 0x1 PUSH1 0x20 MSTORE PUSH1 0x40 SWAP1 KECCAK256 DUP1 SLOAD PUSH1 0xFF NOT AND SWAP1 SSTORE JUMP JUMPDEST PUSH0 SLOAD PUSH1 0x1 PUSH1 0x1 PUSH1 0xA0 SHL SUB AND CALLER EQ DUP1 PUSH2 0x4F1 JUMPI POP CALLER PUSH0 SWAP1 DUP2 MSTORE PUSH1 0x1 PUSH1 0x20 MSTORE PUSH1 0x40 SWAP1 KECCAK256 SLOAD PUSH1 0xFF AND JUMPDEST PUSH2 0x50D JUMPI PUSH1 0x40 MLOAD PUSH3 0x461BCD PUSH1 0xE5 SHL DUP2 MSTORE PUSH1 0x4 ADD PUSH2 0x286 SWAP1 PUSH2 0x716 JUMP JUMPDEST PUSH1 0x40 DUP1 MLOAD PUSH1 0x20 DUP2 ADD SWAP1 SWAP2 MSTORE PUSH0 DUP2 MSTORE PUSH1 0x3 SWAP1 PUSH2 0x3FC SWAP1 DUP3 PUSH2 0x80A JUMP JUMPDEST PUSH1 0x60 PUSH1 0x2 DUP1 SLOAD PUSH2 0x1C3 SWAP1 PUSH2 0x6DE JUMP JUMPDEST PUSH0 SLOAD PUSH1 0x1 PUSH1 0x1 PUSH1 0xA0 SHL SUB AND CALLER EQ DUP1 PUSH2 0x55D JUMPI POP CALLER PUSH0 SWAP1 DUP2 MSTORE PUSH1 0x1 PUSH1 0x20 MSTORE PUSH1 0x40 SWAP1 KECCAK256 SLOAD PUSH1 0xFF AND JUMPDEST PUSH2 0x579 JUMPI PUSH1 0x40 MLOAD PUSH3 0x461BCD PUSH1 0xE5 SHL DUP2 MSTORE PUSH1 0x4 ADD PUSH2 0x286 SWAP1 PUSH2 0x716 JUMP JUMPDEST PUSH1 0x5 DUP1 SLOAD PUSH1 0xFF NOT DUP2 AND PUSH1 0xFF SWAP1 SWAP2 AND ISZERO OR SWAP1 SSTORE JUMP JUMPDEST PUSH1 0x5 SLOAD PUSH1 0x60 SWAP1 PUSH1 0xFF AND ISZERO PUSH2 0x5A8 JUMPI PUSH1 0x3 DUP1 SLOAD PUSH2 0x1C3 SWAP1 PUSH2 0x6DE JUMP JUMPDEST PUSH1 0x2 DUP1 SLOAD PUSH2 0x1C3 SWAP1 PUSH2 0x6DE JUMP JUMPDEST PUSH1 0x20 DUP2 MSTORE PUSH0 DUP3 MLOAD DUP1 PUSH1 0x20 DUP5 ADD MSTORE DUP1 PUSH1 0x20 DUP6 ADD PUSH1 0x40 DUP6 ADD MCOPY PUSH0 PUSH1 0x40 DUP3 DUP6 ADD ADD MSTORE PUSH1 0x40 PUSH1 0x1F NOT PUSH1 0x1F DUP4 ADD AND DUP5 ADD ADD SWAP2 POP POP SWAP3 SWAP2 POP POP JUMP JUMPDEST PUSH0 PUSH1 0x20 DUP3 DUP5 SUB SLT ISZERO PUSH2 0x5FA JUMPI PUSH0 DUP1 REVERT JUMPDEST DUP2 CALLDATALOAD PUSH1 0x1 PUSH1 0x1 PUSH1 0xA0 SHL SUB DUP2 AND DUP2 EQ PUSH2 0x610 JUMPI PUSH0 DUP1 REVERT JUMPDEST SWAP4 SWAP3 POP POP POP JUMP JUMPDEST PUSH4 0x4E487B71 PUSH1 0xE0 SHL PUSH0 MSTORE PUSH1 0x41 PUSH1 0x4 MSTORE PUSH1 0x24 PUSH0 REVERT JUMPDEST PUSH0 PUSH1 0x20 DUP3 DUP5 SUB SLT ISZERO PUSH2 0x63B JUMPI PUSH0 DUP1 REVERT JUMPDEST DUP2 CALLDATALOAD PUSH8 0xFFFFFFFFFFFFFFFF DUP2 GT ISZERO PUSH2 0x651 JUMPI PUSH0 DUP1 REVERT JUMPDEST DUP3 ADD PUSH1 0x1F DUP2 ADD DUP5 SGT PUSH2 0x661 JUMPI PUSH0 DUP1 REVERT JUMPDEST DUP1 CALLDATALOAD PUSH8 0xFFFFFFFFFFFFFFFF DUP2 GT ISZERO PUSH2 0x67B JUMPI PUSH2 0x67B PUSH2 0x617 JUMP JUMPDEST PUSH1 0x40 MLOAD PUSH1 0x1F DUP3 ADD PUSH1 0x1F NOT SWAP1 DUP2 AND PUSH1 0x3F ADD AND DUP2 ADD PUSH8 0xFFFFFFFFFFFFFFFF DUP2 GT DUP3 DUP3 LT OR ISZERO PUSH2 0x6AA JUMPI PUSH2 0x6AA PUSH2 0x617 JUMP JUMPDEST PUSH1 0x40 MSTORE DUP2 DUP2 MSTORE DUP3 DUP3 ADD PUSH1 0x20 ADD DUP7 LT ISZERO PUSH2 0x6C1 JUMPI PUSH0 DUP1 REVERT JUMPDEST DUP2 PUSH1 0x20 DUP5 ADD PUSH1 0x20 DUP4 ADD CALLDATACOPY PUSH0 SWAP2 DUP2 ADD PUSH1 0x20 ADD SWAP2 SWAP1 SWAP2 MSTORE SWAP5 SWAP4 POP POP POP POP JUMP JUMPDEST PUSH1 0x1 DUP2 DUP2 SHR SWAP1 DUP3 AND DUP1 PUSH2 0x6F2 JUMPI PUSH1 0x7F DUP3 AND SWAP2 POP JUMPDEST PUSH1 0x20 DUP3 LT DUP2 SUB PUSH2 0x710 JUMPI PUSH4 0x4E487B71 PUSH1 0xE0 SHL PUSH0 MSTORE PUSH1 0x22 PUSH1 0x4 MSTORE PUSH1 0x24 PUSH0 REVERT JUMPDEST POP SWAP2 SWAP1 POP JUMP JUMPDEST PUSH1 0x20 DUP1 DUP3 MSTORE PUSH1 0xE SWAP1 DUP3 ADD MSTORE PUSH14 0x139BDD08185D5D1A1BDC9A5E9959 PUSH1 0x92 SHL PUSH1 0x40 DUP3 ADD MSTORE PUSH1 0x60 ADD SWAP1 JUMP JUMPDEST PUSH0 DUP1 DUP5 SLOAD PUSH2 0x74B DUP2 PUSH2 0x6DE JUMP JUMPDEST PUSH1 0x1 DUP3 AND DUP1 ISZERO PUSH2 0x762 JUMPI PUSH1 0x1 DUP2 EQ PUSH2 0x777 JUMPI PUSH2 0x7A4 JUMP JUMPDEST PUSH1 0xFF NOT DUP4 AND DUP7 MSTORE DUP2 ISZERO ISZERO DUP3 MUL DUP7 ADD SWAP4 POP PUSH2 0x7A4 JUMP JUMPDEST DUP8 PUSH0 MSTORE PUSH1 0x20 PUSH0 KECCAK256 PUSH0 JUMPDEST DUP4 DUP2 LT ISZERO PUSH2 0x79C JUMPI DUP2 SLOAD DUP9 DUP3 ADD MSTORE PUSH1 0x1 SWAP1 SWAP2 ADD SWAP1 PUSH1 0x20 ADD PUSH2 0x780 JUMP JUMPDEST POP POP DUP2 DUP7 ADD SWAP4 POP JUMPDEST POP POP POP DUP4 MLOAD DUP1 PUSH1 0x20 DUP7 ADD DUP4 MCOPY PUSH0 SWAP2 ADD SWAP1 DUP2 MSTORE SWAP5 SWAP4 POP POP POP POP JUMP JUMPDEST PUSH1 0x1F DUP3 GT ISZERO PUSH2 0x805 JUMPI DUP1 PUSH0 MSTORE PUSH1 0x20 PUSH0 KECCAK256 PUSH1 0x1F DUP5 ADD PUSH1 0x5 SHR DUP2 ADD PUSH1 0x20 DUP6 LT ISZERO PUSH2 0x7E3 JUMPI POP DUP1 JUMPDEST PUSH1 0x1F DUP5 ADD PUSH1 0x5 SHR DUP3 ADD SWAP2 POP JUMPDEST DUP2 DUP2 LT ISZERO PUSH2 0x802 JUMPI PUSH0 DUP2 SSTORE PUSH1 0x1 ADD PUSH2 0x7EF JUMP JUMPDEST POP POP JUMPDEST POP POP POP JUMP JUMPDEST DUP2 MLOAD PUSH8 0xFFFFFFFFFFFFFFFF DUP2 GT ISZERO PUSH2 0x824 JUMPI PUSH2 0x824 PUSH2 0x617 JUMP JUMPDEST PUSH2 0x838 DUP2 PUSH2 0x832 DUP5 SLOAD PUSH2 0x6DE JUMP JUMPDEST DUP5 PUSH2 0x7BE JUMP JUMPDEST PUSH1 0x20 PUSH1 0x1F DUP3 GT PUSH1 0x1 DUP2 EQ PUSH2 0x86A JUMPI PUSH0 DUP4 ISZERO PUSH2 0x853 JUMPI POP DUP5 DUP3 ADD MLOAD JUMPDEST PUSH0 NOT PUSH1 0x3 DUP6 SWAP1 SHL SHR NOT AND PUSH1 0x1 DUP5 SWAP1 SHL OR DUP5 SSTORE PUSH2 0x802 JUMP JUMPDEST PUSH0 DUP5 DUP2 MSTORE PUSH1 0x20 DUP2 KECCAK256 PUSH1 0x1F NOT DUP6 AND SWAP2 JUMPDEST DUP3 DUP2 LT ISZERO PUSH2 0x899 JUMPI DUP8 DUP6 ADD MLOAD DUP3 SSTORE PUSH1 0x20 SWAP5 DUP6 ADD SWAP5 PUSH1 0x1 SWAP1 SWAP3 ADD SWAP2 ADD PUSH2 0x879 JUMP JUMPDEST POP DUP5 DUP3 LT ISZERO PUSH2 0x8B6 JUMPI DUP7 DUP5 ADD MLOAD PUSH0 NOT PUSH1 0x3 DUP8 SWAP1 SHL PUSH1 0xF8 AND SHR NOT AND DUP2 SSTORE JUMPDEST POP POP POP POP PUSH1 0x1 SWAP1 DUP2 SHL ADD SWAP1 SSTORE POP JUMP INVALID LOG2 PUSH5 0x6970667358 0x22 SLT KECCAK256 0xDF ADDMOD 0xE3 PUSH29 0x99C269DDF546E62DA225BD06FCD568CEFE65698532A7698957FE4F1364 PUSH20 0x6F6C634300081A00330000000000000000000000 "
				},
				"gasEstimates": {
					"creation": {
						"codeDepositCost": "459800",
						"executionCost": "48943",
						"totalCost": "508743"
					},
					"external": {
						"addFirstImageChunk(string)": "infinite",
						"addSecondImageChunk(string)": "infinite",
						"deleteFirstImage()": "infinite",
						"deleteSecondImage()": "infinite",
						"flip()": "28782",
						"getFirstImage()": "infinite",
						"getImage()": "infinite",
						"getSecondImage()": "infinite",
						"grantAccess(address)": "26746",
						"hasAccess(address)": "2533",
						"isOwner()": "2353",
						"revokeAccess(address)": "26728",
						"withdrawAll()": "infinite"
					}
				},
				"methodIdentifiers": {
					"addFirstImageChunk(string)": "2e918ff7",
					"addSecondImageChunk(string)": "5923e3dc",
					"deleteFirstImage()": "668f7b78",
					"deleteSecondImage()": "8feb144e",
					"flip()": "cde4efa9",
					"getFirstImage()": "9a9ed199",
					"getImage()": "f3651cbb",
					"getSecondImage()": "03e03c6e",
					"grantAccess(address)": "0ae5e739",
					"hasAccess(address)": "95a078e8",
					"isOwner()": "8f32d59b",
					"revokeAccess(address)": "85e68531",
					"withdrawAll()": "853828b6"
				}
			},
			"storageLayout": {
				"storage": [
					{
						"astId": 3,
						"contract": "FlipEngine.sol:FlipEngine",
						"label": "_admin",
						"offset": 0,
						"slot": "0",
						"type": "t_address"
					},
					{
						"astId": 7,
						"contract": "FlipEngine.sol:FlipEngine",
						"label": "_accessList",
						"offset": 0,
						"slot": "1",
						"type": "t_mapping(t_address,t_bool)"
					},
					{
						"astId": 104,
						"contract": "FlipEngine.sol:FlipEngine",
						"label": "_firstImageDataUri",
						"offset": 0,
						"slot": "2",
						"type": "t_string_storage"
					},
					{
						"astId": 106,
						"contract": "FlipEngine.sol:FlipEngine",
						"label": "_secondImageDataUri",
						"offset": 0,
						"slot": "3",
						"type": "t_string_storage"
					},
					{
						"astId": 108,
						"contract": "FlipEngine.sol:FlipEngine",
						"label": "_tokenId",
						"offset": 0,
						"slot": "4",
						"type": "t_uint256"
					},
					{
						"astId": 111,
						"contract": "FlipEngine.sol:FlipEngine",
						"label": "_flip",
						"offset": 0,
						"slot": "5",
						"type": "t_bool"
					}
				],
				"types": {
					"t_address": {
						"encoding": "inplace",
						"label": "address",
						"numberOfBytes": "20"
					},
					"t_bool": {
						"encoding": "inplace",
						"label": "bool",
						"numberOfBytes": "1"
					},
					"t_mapping(t_address,t_bool)": {
						"encoding": "mapping",
						"key": "t_address",
						"label": "mapping(address => bool)",
						"numberOfBytes": "32",
						"value": "t_bool"
					},
					"t_string_storage": {
						"encoding": "bytes",
						"label": "string",
						"numberOfBytes": "32"
					},
					"t_uint256": {
						"encoding": "inplace",
						"label": "uint256",
						"numberOfBytes": "32"
					}
				}
			},
			"userdoc": {
				"kind": "user",
				"methods": {},
				"version": 1
			}
		}
	}
}