{
	"MoonEngine.sol": {
		"MoonEngine": {
			"abi": [
				{
					"inputs": [
						{
							"internalType": "address",
							"name": "creator",
							"type": "address"
						}
					],
					"stateMutability": "nonpayable",
					"type": "constructor"
				},
				{
					"inputs": [],
					"name": "_creator",
					"outputs": [
						{
							"internalType": "address",
							"name": "",
							"type": "address"
						}
					],
					"stateMutability": "view",
					"type": "function"
				},
				{
					"inputs": [],
					"name": "_darkImageDataUri",
					"outputs": [
						{
							"internalType": "string",
							"name": "",
							"type": "string"
						}
					],
					"stateMutability": "view",
					"type": "function"
				},
				{
					"inputs": [],
					"name": "_lightImageDataUri",
					"outputs": [
						{
							"internalType": "string",
							"name": "",
							"type": "string"
						}
					],
					"stateMutability": "view",
					"type": "function"
				},
				{
					"inputs": [],
					"name": "_owner",
					"outputs": [
						{
							"internalType": "address",
							"name": "",
							"type": "address"
						}
					],
					"stateMutability": "view",
					"type": "function"
				},
				{
					"inputs": [],
					"name": "_tokenId",
					"outputs": [
						{
							"internalType": "uint256",
							"name": "",
							"type": "uint256"
						}
					],
					"stateMutability": "view",
					"type": "function"
				},
				{
					"inputs": [
						{
							"internalType": "address",
							"name": "",
							"type": "address"
						}
					],
					"name": "accessList",
					"outputs": [
						{
							"internalType": "bool",
							"name": "",
							"type": "bool"
						}
					],
					"stateMutability": "view",
					"type": "function"
				},
				{
					"inputs": [
						{
							"internalType": "string",
							"name": "chunkData",
							"type": "string"
						}
					],
					"name": "addDarkImageChunk",
					"outputs": [],
					"stateMutability": "nonpayable",
					"type": "function"
				},
				{
					"inputs": [
						{
							"internalType": "string",
							"name": "chunkData",
							"type": "string"
						}
					],
					"name": "addLightImageChunk",
					"outputs": [],
					"stateMutability": "nonpayable",
					"type": "function"
				},
				{
					"inputs": [],
					"name": "deleteDarkImage",
					"outputs": [],
					"stateMutability": "nonpayable",
					"type": "function"
				},
				{
					"inputs": [],
					"name": "deleteLightImage",
					"outputs": [],
					"stateMutability": "nonpayable",
					"type": "function"
				},
				{
					"inputs": [],
					"name": "flip",
					"outputs": [],
					"stateMutability": "nonpayable",
					"type": "function"
				},
				{
					"inputs": [],
					"name": "getDarkImage",
					"outputs": [
						{
							"internalType": "string",
							"name": "",
							"type": "string"
						}
					],
					"stateMutability": "view",
					"type": "function"
				},
				{
					"inputs": [],
					"name": "getImage",
					"outputs": [
						{
							"internalType": "string",
							"name": "",
							"type": "string"
						}
					],
					"stateMutability": "view",
					"type": "function"
				},
				{
					"inputs": [],
					"name": "getLightImage",
					"outputs": [
						{
							"internalType": "string",
							"name": "",
							"type": "string"
						}
					],
					"stateMutability": "view",
					"type": "function"
				},
				{
					"inputs": [
						{
							"internalType": "address",
							"name": "_address",
							"type": "address"
						}
					],
					"name": "grantAccess",
					"outputs": [],
					"stateMutability": "nonpayable",
					"type": "function"
				},
				{
					"inputs": [
						{
							"internalType": "address",
							"name": "_address",
							"type": "address"
						}
					],
					"name": "revokeAccess",
					"outputs": [],
					"stateMutability": "nonpayable",
					"type": "function"
				}
			],
			"devdoc": {
				"kind": "dev",
				"methods": {},
				"version": 1
			},
			"evm": {
				"assembly": "    /* \"MoonEngine.sol\":1176:3202  contract MoonEngine {... */\n  mstore(0x40, 0x80)\n    /* \"MoonEngine.sol\":1383:1388  false */\n  0x00\n    /* \"MoonEngine.sol\":1362:1388  bool private _flip = false */\n  0x04\n  exp(0x0100, 0x14)\n  dup2\n  sload\n  dup2\n  0xff\n  mul\n  not\n  and\n  swap1\n  dup4\n  iszero\n  iszero\n  mul\n  or\n  swap1\n  sstore\n  pop\n    /* \"MoonEngine.sol\":1678:1881  constructor(address creator) {... */\n  callvalue\n  dup1\n  iszero\n  tag_1\n  jumpi\n  0x00\n  dup1\n  revert\ntag_1:\n  pop\n  mload(0x40)\n  sub(codesize, bytecodeSize)\n  dup1\n  bytecodeSize\n  dup4\n  codecopy\n  dup2\n  dup2\n  add\n  0x40\n  mstore\n  dup2\n  add\n  swap1\n  tag_2\n  swap2\n  swap1\n  tag_3\n  jump\t// in\ntag_2:\n    /* \"MoonEngine.sol\":1726:1736  msg.sender */\n  caller\n    /* \"MoonEngine.sol\":1717:1723  _owner */\n  0x00\n  dup1\n    /* \"MoonEngine.sol\":1717:1736  _owner = msg.sender */\n  0x0100\n  exp\n  dup2\n  sload\n  dup2\n  0xffffffffffffffffffffffffffffffffffffffff\n  mul\n  not\n  and\n  swap1\n  dup4\n  0xffffffffffffffffffffffffffffffffffffffff\n  and\n  mul\n  or\n  swap1\n  sstore\n  pop\n    /* \"MoonEngine.sol\":1757:1764  creator */\n  dup1\n    /* \"MoonEngine.sol\":1746:1754  _creator */\n  0x04\n  0x00\n    /* \"MoonEngine.sol\":1746:1764  _creator = creator */\n  0x0100\n  exp\n  dup2\n  sload\n  dup2\n  0xffffffffffffffffffffffffffffffffffffffff\n  mul\n  not\n  and\n  swap1\n  dup4\n  0xffffffffffffffffffffffffffffffffffffffff\n  and\n  mul\n  or\n  swap1\n  sstore\n  pop\n    /* \"MoonEngine.sol\":1831:1835  true */\n  0x01\n    /* \"MoonEngine.sol\":1774:1784  accessList */\n  0x05\n    /* \"MoonEngine.sol\":1774:1828  accessList[0xF1Da6E2d387e9DA611dAc8a7FC587Eaa4B010013] */\n  0x00\n    /* \"MoonEngine.sol\":1785:1827  0xF1Da6E2d387e9DA611dAc8a7FC587Eaa4B010013 */\n  0xf1da6e2d387e9da611dac8a7fc587eaa4b010013\n    /* \"MoonEngine.sol\":1774:1828  accessList[0xF1Da6E2d387e9DA611dAc8a7FC587Eaa4B010013] */\n  0xffffffffffffffffffffffffffffffffffffffff\n  and\n  0xffffffffffffffffffffffffffffffffffffffff\n  and\n  dup2\n  mstore\n  0x20\n  add\n  swap1\n  dup2\n  mstore\n  0x20\n  add\n  0x00\n  keccak256\n  0x00\n    /* \"MoonEngine.sol\":1774:1835  accessList[0xF1Da6E2d387e9DA611dAc8a7FC587Eaa4B010013] = true */\n  0x0100\n  exp\n  dup2\n  sload\n  dup2\n  0xff\n  mul\n  not\n  and\n  swap1\n  dup4\n  iszero\n  iszero\n  mul\n  or\n  swap1\n  sstore\n  pop\n    /* \"MoonEngine.sol\":1678:1881  constructor(address creator) {... */\n  pop\n    /* \"MoonEngine.sol\":1176:3202  contract MoonEngine {... */\n  jump(tag_6)\n    /* \"#utility.yul\":88:205   */\ntag_8:\n    /* \"#utility.yul\":197:198   */\n  0x00\n    /* \"#utility.yul\":194:195   */\n  dup1\n    /* \"#utility.yul\":187:199   */\n  revert\n    /* \"#utility.yul\":334:460   */\ntag_10:\n    /* \"#utility.yul\":371:378   */\n  0x00\n    /* \"#utility.yul\":411:453   */\n  0xffffffffffffffffffffffffffffffffffffffff\n    /* \"#utility.yul\":404:409   */\n  dup3\n    /* \"#utility.yul\":400:454   */\n  and\n    /* \"#utility.yul\":389:454   */\n  swap1\n  pop\n    /* \"#utility.yul\":334:460   */\n  swap2\n  swap1\n  pop\n  jump\t// out\n    /* \"#utility.yul\":466:562   */\ntag_11:\n    /* \"#utility.yul\":503:510   */\n  0x00\n    /* \"#utility.yul\":532:556   */\n  tag_20\n    /* \"#utility.yul\":550:555   */\n  dup3\n    /* \"#utility.yul\":532:556   */\n  tag_10\n  jump\t// in\ntag_20:\n    /* \"#utility.yul\":521:556   */\n  swap1\n  pop\n    /* \"#utility.yul\":466:562   */\n  swap2\n  swap1\n  pop\n  jump\t// out\n    /* \"#utility.yul\":568:690   */\ntag_12:\n    /* \"#utility.yul\":641:665   */\n  tag_22\n    /* \"#utility.yul\":659:664   */\n  dup2\n    /* \"#utility.yul\":641:665   */\n  tag_11\n  jump\t// in\ntag_22:\n    /* \"#utility.yul\":634:639   */\n  dup2\n    /* \"#utility.yul\":631:666   */\n  eq\n    /* \"#utility.yul\":621:684   */\n  tag_23\n  jumpi\n    /* \"#utility.yul\":680:681   */\n  0x00\n    /* \"#utility.yul\":677:678   */\n  dup1\n    /* \"#utility.yul\":670:682   */\n  revert\n    /* \"#utility.yul\":621:684   */\ntag_23:\n    /* \"#utility.yul\":568:690   */\n  pop\n  jump\t// out\n    /* \"#utility.yul\":696:839   */\ntag_13:\n    /* \"#utility.yul\":753:758   */\n  0x00\n    /* \"#utility.yul\":784:790   */\n  dup2\n    /* \"#utility.yul\":778:791   */\n  mload\n    /* \"#utility.yul\":769:791   */\n  swap1\n  pop\n    /* \"#utility.yul\":800:833   */\n  tag_25\n    /* \"#utility.yul\":827:832   */\n  dup2\n    /* \"#utility.yul\":800:833   */\n  tag_12\n  jump\t// in\ntag_25:\n    /* \"#utility.yul\":696:839   */\n  swap3\n  swap2\n  pop\n  pop\n  jump\t// out\n    /* \"#utility.yul\":845:1196   */\ntag_3:\n    /* \"#utility.yul\":915:921   */\n  0x00\n    /* \"#utility.yul\":964:966   */\n  0x20\n    /* \"#utility.yul\":952:961   */\n  dup3\n    /* \"#utility.yul\":943:950   */\n  dup5\n    /* \"#utility.yul\":939:962   */\n  sub\n    /* \"#utility.yul\":935:967   */\n  slt\n    /* \"#utility.yul\":932:1051   */\n  iszero\n  tag_27\n  jumpi\n    /* \"#utility.yul\":970:1049   */\n  tag_28\n  tag_8\n  jump\t// in\ntag_28:\n    /* \"#utility.yul\":932:1051   */\ntag_27:\n    /* \"#utility.yul\":1090:1091   */\n  0x00\n    /* \"#utility.yul\":1115:1179   */\n  tag_29\n    /* \"#utility.yul\":1171:1178   */\n  dup5\n    /* \"#utility.yul\":1162:1168   */\n  dup3\n    /* \"#utility.yul\":1151:1160   */\n  dup6\n    /* \"#utility.yul\":1147:1169   */\n  add\n    /* \"#utility.yul\":1115:1179   */\n  tag_13\n  jump\t// in\ntag_29:\n    /* \"#utility.yul\":1105:1179   */\n  swap2\n  pop\n    /* \"#utility.yul\":1061:1189   */\n  pop\n    /* \"#utility.yul\":845:1196   */\n  swap3\n  swap2\n  pop\n  pop\n  jump\t// out\n    /* \"MoonEngine.sol\":1176:3202  contract MoonEngine {... */\ntag_6:\n  dataSize(sub_0)\n  dup1\n  dataOffset(sub_0)\n  0x00\n  codecopy\n  0x00\n  return\nstop\n\nsub_0: assembly {\n        /* \"MoonEngine.sol\":1176:3202  contract MoonEngine {... */\n      mstore(0x40, 0x80)\n      callvalue\n      dup1\n      iszero\n      tag_1\n      jumpi\n      0x00\n      dup1\n      revert\n    tag_1:\n      pop\n      jumpi(tag_2, lt(calldatasize, 0x04))\n      shr(0xe0, calldataload(0x00))\n      dup1\n      0xbc8bde64\n      gt\n      tag_19\n      jumpi\n      dup1\n      0xd4613258\n      gt\n      tag_20\n      jumpi\n      dup1\n      0xd4613258\n      eq\n      tag_15\n      jumpi\n      dup1\n      0xda828593\n      eq\n      tag_16\n      jumpi\n      dup1\n      0xf3651cbb\n      eq\n      tag_17\n      jumpi\n      dup1\n      0xf86957c4\n      eq\n      tag_18\n      jumpi\n      jump(tag_2)\n    tag_20:\n      dup1\n      0xbc8bde64\n      eq\n      tag_11\n      jumpi\n      dup1\n      0xc2c428fd\n      eq\n      tag_12\n      jumpi\n      dup1\n      0xc6ff3474\n      eq\n      tag_13\n      jumpi\n      dup1\n      0xcde4efa9\n      eq\n      tag_14\n      jumpi\n      jump(tag_2)\n    tag_19:\n      dup1\n      0x55e19623\n      gt\n      tag_21\n      jumpi\n      dup1\n      0x55e19623\n      eq\n      tag_7\n      jumpi\n      dup1\n      0x85e68531\n      eq\n      tag_8\n      jumpi\n      dup1\n      0x87a5b67c\n      eq\n      tag_9\n      jumpi\n      dup1\n      0xb2bdfa7b\n      eq\n      tag_10\n      jumpi\n      jump(tag_2)\n    tag_21:\n      dup1\n      0x0ae5e739\n      eq\n      tag_3\n      jumpi\n      dup1\n      0x0e15572d\n      eq\n      tag_4\n      jumpi\n      dup1\n      0x24822514\n      eq\n      tag_5\n      jumpi\n      dup1\n      0x2b61f40d\n      eq\n      tag_6\n      jumpi\n    tag_2:\n      0x00\n      dup1\n      revert\n        /* \"MoonEngine.sol\":2988:3090  function grantAccess(address _address) external onlyOwner {... */\n    tag_3:\n      tag_22\n      0x04\n      dup1\n      calldatasize\n      sub\n      dup2\n      add\n      swap1\n      tag_23\n      swap2\n      swap1\n      tag_24\n      jump\t// in\n    tag_23:\n      tag_25\n      jump\t// in\n    tag_22:\n      stop\n        /* \"MoonEngine.sol\":2771:2874  function getLightImage() public view returns (string memory) {... */\n    tag_4:\n      tag_26\n      tag_27\n      jump\t// in\n    tag_26:\n      mload(0x40)\n      tag_28\n      swap2\n      swap1\n      tag_29\n      jump\t// in\n    tag_28:\n      mload(0x40)\n      dup1\n      swap2\n      sub\n      swap1\n      return\n        /* \"MoonEngine.sol\":1304:1327  uint256 public _tokenId */\n    tag_5:\n      tag_30\n      tag_31\n      jump\t// in\n    tag_30:\n      mload(0x40)\n      tag_32\n      swap2\n      swap1\n      tag_33\n      jump\t// in\n    tag_32:\n      mload(0x40)\n      dup1\n      swap2\n      sub\n      swap1\n      return\n        /* \"MoonEngine.sol\":1229:1261  string public _lightImageDataUri */\n    tag_6:\n      tag_34\n      tag_35\n      jump\t// in\n    tag_34:\n      mload(0x40)\n      tag_36\n      swap2\n      swap1\n      tag_29\n      jump\t// in\n    tag_36:\n      mload(0x40)\n      dup1\n      swap2\n      sub\n      swap1\n      return\n        /* \"MoonEngine.sol\":2328:2416  function deleteDarkImage() public onlyAuthorized {... */\n    tag_7:\n      tag_37\n      tag_38\n      jump\t// in\n    tag_37:\n      stop\n        /* \"MoonEngine.sol\":3096:3200  function revokeAccess(address _address) external onlyOwner {... */\n    tag_8:\n      tag_39\n      0x04\n      dup1\n      calldatasize\n      sub\n      dup2\n      add\n      swap1\n      tag_40\n      swap2\n      swap1\n      tag_24\n      jump\t// in\n    tag_40:\n      tag_41\n      jump\t// in\n    tag_39:\n      stop\n        /* \"MoonEngine.sol\":1394:1436  mapping(address => bool) public accessList */\n    tag_9:\n      tag_42\n      0x04\n      dup1\n      calldatasize\n      sub\n      dup2\n      add\n      swap1\n      tag_43\n      swap2\n      swap1\n      tag_24\n      jump\t// in\n    tag_43:\n      tag_44\n      jump\t// in\n    tag_42:\n      mload(0x40)\n      tag_45\n      swap2\n      swap1\n      tag_46\n      jump\t// in\n    tag_45:\n      mload(0x40)\n      dup1\n      swap2\n      sub\n      swap1\n      return\n        /* \"MoonEngine.sol\":1202:1223  address public _owner */\n    tag_10:\n      tag_47\n      tag_48\n      jump\t// in\n    tag_47:\n      mload(0x40)\n      tag_49\n      swap2\n      swap1\n      tag_50\n      jump\t// in\n    tag_49:\n      mload(0x40)\n      dup1\n      swap2\n      sub\n      swap1\n      return\n        /* \"MoonEngine.sol\":1333:1356  address public _creator */\n    tag_11:\n      tag_51\n      tag_52\n      jump\t// in\n    tag_51:\n      mload(0x40)\n      tag_53\n      swap2\n      swap1\n      tag_50\n      jump\t// in\n    tag_53:\n      mload(0x40)\n      dup1\n      swap2\n      sub\n      swap1\n      return\n        /* \"MoonEngine.sol\":1267:1298  string public _darkImageDataUri */\n    tag_12:\n      tag_54\n      tag_55\n      jump\t// in\n    tag_54:\n      mload(0x40)\n      tag_56\n      swap2\n      swap1\n      tag_29\n      jump\t// in\n    tag_56:\n      mload(0x40)\n      dup1\n      swap2\n      sub\n      swap1\n      return\n        /* \"MoonEngine.sol\":2061:2151  function deleteLightImage() public onlyAuthorized {... */\n    tag_13:\n      tag_57\n      tag_58\n      jump\t// in\n    tag_57:\n      stop\n        /* \"MoonEngine.sol\":2426:2574  function flip() public {... */\n    tag_14:\n      tag_59\n      tag_60\n      jump\t// in\n    tag_59:\n      stop\n        /* \"MoonEngine.sol\":1887:2055  function addLightImageChunk(string memory chunkData) public onlyAuthorized {... */\n    tag_15:\n      tag_61\n      0x04\n      dup1\n      calldatasize\n      sub\n      dup2\n      add\n      swap1\n      tag_62\n      swap2\n      swap1\n      tag_63\n      jump\t// in\n    tag_62:\n      tag_64\n      jump\t// in\n    tag_61:\n      stop\n        /* \"MoonEngine.sol\":2157:2322  function addDarkImageChunk(string memory chunkData) public onlyAuthorized {... */\n    tag_16:\n      tag_65\n      0x04\n      dup1\n      calldatasize\n      sub\n      dup2\n      add\n      swap1\n      tag_66\n      swap2\n      swap1\n      tag_63\n      jump\t// in\n    tag_66:\n      tag_67\n      jump\t// in\n    tag_65:\n      stop\n        /* \"MoonEngine.sol\":2580:2765  function getImage() public view returns (string memory) {... */\n    tag_17:\n      tag_68\n      tag_69\n      jump\t// in\n    tag_68:\n      mload(0x40)\n      tag_70\n      swap2\n      swap1\n      tag_29\n      jump\t// in\n    tag_70:\n      mload(0x40)\n      dup1\n      swap2\n      sub\n      swap1\n      return\n        /* \"MoonEngine.sol\":2880:2982  function getDarkImage() public view returns (string memory)  {... */\n    tag_18:\n      tag_71\n      tag_72\n      jump\t// in\n    tag_71:\n      mload(0x40)\n      tag_73\n      swap2\n      swap1\n      tag_29\n      jump\t// in\n    tag_73:\n      mload(0x40)\n      dup1\n      swap2\n      sub\n      swap1\n      return\n        /* \"MoonEngine.sol\":2988:3090  function grantAccess(address _address) external onlyOwner {... */\n    tag_25:\n        /* \"MoonEngine.sol\":1496:1502  _owner */\n      0x00\n      dup1\n      sload\n      swap1\n      0x0100\n      exp\n      swap1\n      div\n      0xffffffffffffffffffffffffffffffffffffffff\n      and\n        /* \"MoonEngine.sol\":1482:1502  msg.sender == _owner */\n      0xffffffffffffffffffffffffffffffffffffffff\n      and\n        /* \"MoonEngine.sol\":1482:1492  msg.sender */\n      caller\n        /* \"MoonEngine.sol\":1482:1502  msg.sender == _owner */\n      0xffffffffffffffffffffffffffffffffffffffff\n      and\n      eq\n        /* \"MoonEngine.sol\":1474:1521  require(msg.sender == _owner, \"Not the _owner\") */\n      tag_75\n      jumpi\n      mload(0x40)\n      0x08c379a000000000000000000000000000000000000000000000000000000000\n      dup2\n      mstore\n      0x04\n      add\n      tag_76\n      swap1\n      tag_77\n      jump\t// in\n    tag_76:\n      mload(0x40)\n      dup1\n      swap2\n      sub\n      swap1\n      revert\n    tag_75:\n        /* \"MoonEngine.sol\":3079:3083  true */\n      0x01\n        /* \"MoonEngine.sol\":3056:3066  accessList */\n      0x05\n        /* \"MoonEngine.sol\":3056:3076  accessList[_address] */\n      0x00\n        /* \"MoonEngine.sol\":3067:3075  _address */\n      dup4\n        /* \"MoonEngine.sol\":3056:3076  accessList[_address] */\n      0xffffffffffffffffffffffffffffffffffffffff\n      and\n      0xffffffffffffffffffffffffffffffffffffffff\n      and\n      dup2\n      mstore\n      0x20\n      add\n      swap1\n      dup2\n      mstore\n      0x20\n      add\n      0x00\n      keccak256\n      0x00\n        /* \"MoonEngine.sol\":3056:3083  accessList[_address] = true */\n      0x0100\n      exp\n      dup2\n      sload\n      dup2\n      0xff\n      mul\n      not\n      and\n      swap1\n      dup4\n      iszero\n      iszero\n      mul\n      or\n      swap1\n      sstore\n      pop\n        /* \"MoonEngine.sol\":2988:3090  function grantAccess(address _address) external onlyOwner {... */\n      pop\n      jump\t// out\n        /* \"MoonEngine.sol\":2771:2874  function getLightImage() public view returns (string memory) {... */\n    tag_27:\n        /* \"MoonEngine.sol\":2817:2830  string memory */\n      0x60\n        /* \"MoonEngine.sol\":2849:2867  _lightImageDataUri */\n      0x01\n        /* \"MoonEngine.sol\":2842:2867  return _lightImageDataUri */\n      dup1\n      sload\n      tag_80\n      swap1\n      tag_81\n      jump\t// in\n    tag_80:\n      dup1\n      0x1f\n      add\n      0x20\n      dup1\n      swap2\n      div\n      mul\n      0x20\n      add\n      mload(0x40)\n      swap1\n      dup2\n      add\n      0x40\n      mstore\n      dup1\n      swap3\n      swap2\n      swap1\n      dup2\n      dup2\n      mstore\n      0x20\n      add\n      dup3\n      dup1\n      sload\n      tag_82\n      swap1\n      tag_81\n      jump\t// in\n    tag_82:\n      dup1\n      iszero\n      tag_83\n      jumpi\n      dup1\n      0x1f\n      lt\n      tag_84\n      jumpi\n      0x0100\n      dup1\n      dup4\n      sload\n      div\n      mul\n      dup4\n      mstore\n      swap2\n      0x20\n      add\n      swap2\n      jump(tag_83)\n    tag_84:\n      dup3\n      add\n      swap2\n      swap1\n      0x00\n      mstore\n      keccak256(0x00, 0x20)\n      swap1\n    tag_85:\n      dup2\n      sload\n      dup2\n      mstore\n      swap1\n      0x01\n      add\n      swap1\n      0x20\n      add\n      dup1\n      dup4\n      gt\n      tag_85\n      jumpi\n      dup3\n      swap1\n      sub\n      0x1f\n      and\n      dup3\n      add\n      swap2\n    tag_83:\n      pop\n      pop\n      pop\n      pop\n      pop\n      swap1\n      pop\n        /* \"MoonEngine.sol\":2771:2874  function getLightImage() public view returns (string memory) {... */\n      swap1\n      jump\t// out\n        /* \"MoonEngine.sol\":1304:1327  uint256 public _tokenId */\n    tag_31:\n      sload(0x03)\n      dup2\n      jump\t// out\n        /* \"MoonEngine.sol\":1229:1261  string public _lightImageDataUri */\n    tag_35:\n      0x01\n      dup1\n      sload\n      tag_86\n      swap1\n      tag_81\n      jump\t// in\n    tag_86:\n      dup1\n      0x1f\n      add\n      0x20\n      dup1\n      swap2\n      div\n      mul\n      0x20\n      add\n      mload(0x40)\n      swap1\n      dup2\n      add\n      0x40\n      mstore\n      dup1\n      swap3\n      swap2\n      swap1\n      dup2\n      dup2\n      mstore\n      0x20\n      add\n      dup3\n      dup1\n      sload\n      tag_87\n      swap1\n      tag_81\n      jump\t// in\n    tag_87:\n      dup1\n      iszero\n      tag_88\n      jumpi\n      dup1\n      0x1f\n      lt\n      tag_89\n      jumpi\n      0x0100\n      dup1\n      dup4\n      sload\n      div\n      mul\n      dup4\n      mstore\n      swap2\n      0x20\n      add\n      swap2\n      jump(tag_88)\n    tag_89:\n      dup3\n      add\n      swap2\n      swap1\n      0x00\n      mstore\n      keccak256(0x00, 0x20)\n      swap1\n    tag_90:\n      dup2\n      sload\n      dup2\n      mstore\n      swap1\n      0x01\n      add\n      swap1\n      0x20\n      add\n      dup1\n      dup4\n      gt\n      tag_90\n      jumpi\n      dup3\n      swap1\n      sub\n      0x1f\n      and\n      dup3\n      add\n      swap2\n    tag_88:\n      pop\n      pop\n      pop\n      pop\n      pop\n      dup2\n      jump\t// out\n        /* \"MoonEngine.sol\":2328:2416  function deleteDarkImage() public onlyAuthorized {... */\n    tag_38:\n        /* \"MoonEngine.sol\":1603:1609  _owner */\n      0x00\n      dup1\n      sload\n      swap1\n      0x0100\n      exp\n      swap1\n      div\n      0xffffffffffffffffffffffffffffffffffffffff\n      and\n        /* \"MoonEngine.sol\":1589:1609  msg.sender == _owner */\n      0xffffffffffffffffffffffffffffffffffffffff\n      and\n        /* \"MoonEngine.sol\":1589:1599  msg.sender */\n      caller\n        /* \"MoonEngine.sol\":1589:1609  msg.sender == _owner */\n      0xffffffffffffffffffffffffffffffffffffffff\n      and\n      eq\n        /* \"MoonEngine.sol\":1589:1635  msg.sender == _owner || accessList[msg.sender] */\n      dup1\n      tag_92\n      jumpi\n      pop\n        /* \"MoonEngine.sol\":1613:1623  accessList */\n      0x05\n        /* \"MoonEngine.sol\":1613:1635  accessList[msg.sender] */\n      0x00\n        /* \"MoonEngine.sol\":1624:1634  msg.sender */\n      caller\n        /* \"MoonEngine.sol\":1613:1635  accessList[msg.sender] */\n      0xffffffffffffffffffffffffffffffffffffffff\n      and\n      0xffffffffffffffffffffffffffffffffffffffff\n      and\n      dup2\n      mstore\n      0x20\n      add\n      swap1\n      dup2\n      mstore\n      0x20\n      add\n      0x00\n      keccak256\n      0x00\n      swap1\n      sload\n      swap1\n      0x0100\n      exp\n      swap1\n      div\n      0xff\n      and\n        /* \"MoonEngine.sol\":1589:1635  msg.sender == _owner || accessList[msg.sender] */\n    tag_92:\n        /* \"MoonEngine.sol\":1581:1654  require(msg.sender == _owner || accessList[msg.sender], \"Not authorized\") */\n      tag_93\n      jumpi\n      mload(0x40)\n      0x08c379a000000000000000000000000000000000000000000000000000000000\n      dup2\n      mstore\n      0x04\n      add\n      tag_94\n      swap1\n      tag_95\n      jump\t// in\n    tag_94:\n      mload(0x40)\n      dup1\n      swap2\n      sub\n      swap1\n      revert\n    tag_93:\n        /* \"MoonEngine.sol\":2387:2409  _darkImageDataUri = \"\" */\n      mload(0x40)\n      dup1\n      0x20\n      add\n      0x40\n      mstore\n      dup1\n      0x00\n      dup2\n      mstore\n      pop\n        /* \"MoonEngine.sol\":2387:2404  _darkImageDataUri */\n      0x02\n        /* \"MoonEngine.sol\":2387:2409  _darkImageDataUri = \"\" */\n      swap1\n      dup2\n      tag_97\n      swap2\n      swap1\n      tag_98\n      jump\t// in\n    tag_97:\n      pop\n        /* \"MoonEngine.sol\":2328:2416  function deleteDarkImage() public onlyAuthorized {... */\n      jump\t// out\n        /* \"MoonEngine.sol\":3096:3200  function revokeAccess(address _address) external onlyOwner {... */\n    tag_41:\n        /* \"MoonEngine.sol\":1496:1502  _owner */\n      0x00\n      dup1\n      sload\n      swap1\n      0x0100\n      exp\n      swap1\n      div\n      0xffffffffffffffffffffffffffffffffffffffff\n      and\n        /* \"MoonEngine.sol\":1482:1502  msg.sender == _owner */\n      0xffffffffffffffffffffffffffffffffffffffff\n      and\n        /* \"MoonEngine.sol\":1482:1492  msg.sender */\n      caller\n        /* \"MoonEngine.sol\":1482:1502  msg.sender == _owner */\n      0xffffffffffffffffffffffffffffffffffffffff\n      and\n      eq\n        /* \"MoonEngine.sol\":1474:1521  require(msg.sender == _owner, \"Not the _owner\") */\n      tag_100\n      jumpi\n      mload(0x40)\n      0x08c379a000000000000000000000000000000000000000000000000000000000\n      dup2\n      mstore\n      0x04\n      add\n      tag_101\n      swap1\n      tag_77\n      jump\t// in\n    tag_101:\n      mload(0x40)\n      dup1\n      swap2\n      sub\n      swap1\n      revert\n    tag_100:\n        /* \"MoonEngine.sol\":3188:3193  false */\n      0x00\n        /* \"MoonEngine.sol\":3165:3175  accessList */\n      0x05\n        /* \"MoonEngine.sol\":3165:3185  accessList[_address] */\n      0x00\n        /* \"MoonEngine.sol\":3176:3184  _address */\n      dup4\n        /* \"MoonEngine.sol\":3165:3185  accessList[_address] */\n      0xffffffffffffffffffffffffffffffffffffffff\n      and\n      0xffffffffffffffffffffffffffffffffffffffff\n      and\n      dup2\n      mstore\n      0x20\n      add\n      swap1\n      dup2\n      mstore\n      0x20\n      add\n      0x00\n      keccak256\n      0x00\n        /* \"MoonEngine.sol\":3165:3193  accessList[_address] = false */\n      0x0100\n      exp\n      dup2\n      sload\n      dup2\n      0xff\n      mul\n      not\n      and\n      swap1\n      dup4\n      iszero\n      iszero\n      mul\n      or\n      swap1\n      sstore\n      pop\n        /* \"MoonEngine.sol\":3096:3200  function revokeAccess(address _address) external onlyOwner {... */\n      pop\n      jump\t// out\n        /* \"MoonEngine.sol\":1394:1436  mapping(address => bool) public accessList */\n    tag_44:\n      mstore(0x20, 0x05)\n      dup1\n      0x00\n      mstore\n      keccak256(0x00, 0x40)\n      0x00\n      swap2\n      pop\n      sload\n      swap1\n      0x0100\n      exp\n      swap1\n      div\n      0xff\n      and\n      dup2\n      jump\t// out\n        /* \"MoonEngine.sol\":1202:1223  address public _owner */\n    tag_48:\n      0x00\n      dup1\n      sload\n      swap1\n      0x0100\n      exp\n      swap1\n      div\n      0xffffffffffffffffffffffffffffffffffffffff\n      and\n      dup2\n      jump\t// out\n        /* \"MoonEngine.sol\":1333:1356  address public _creator */\n    tag_52:\n      0x04\n      0x00\n      swap1\n      sload\n      swap1\n      0x0100\n      exp\n      swap1\n      div\n      0xffffffffffffffffffffffffffffffffffffffff\n      and\n      dup2\n      jump\t// out\n        /* \"MoonEngine.sol\":1267:1298  string public _darkImageDataUri */\n    tag_55:\n      0x02\n      dup1\n      sload\n      tag_103\n      swap1\n      tag_81\n      jump\t// in\n    tag_103:\n      dup1\n      0x1f\n      add\n      0x20\n      dup1\n      swap2\n      div\n      mul\n      0x20\n      add\n      mload(0x40)\n      swap1\n      dup2\n      add\n      0x40\n      mstore\n      dup1\n      swap3\n      swap2\n      swap1\n      dup2\n      dup2\n      mstore\n      0x20\n      add\n      dup3\n      dup1\n      sload\n      tag_104\n      swap1\n      tag_81\n      jump\t// in\n    tag_104:\n      dup1\n      iszero\n      tag_105\n      jumpi\n      dup1\n      0x1f\n      lt\n      tag_106\n      jumpi\n      0x0100\n      dup1\n      dup4\n      sload\n      div\n      mul\n      dup4\n      mstore\n      swap2\n      0x20\n      add\n      swap2\n      jump(tag_105)\n    tag_106:\n      dup3\n      add\n      swap2\n      swap1\n      0x00\n      mstore\n      keccak256(0x00, 0x20)\n      swap1\n    tag_107:\n      dup2\n      sload\n      dup2\n      mstore\n      swap1\n      0x01\n      add\n      swap1\n      0x20\n      add\n      dup1\n      dup4\n      gt\n      tag_107\n      jumpi\n      dup3\n      swap1\n      sub\n      0x1f\n      and\n      dup3\n      add\n      swap2\n    tag_105:\n      pop\n      pop\n      pop\n      pop\n      pop\n      dup2\n      jump\t// out\n        /* \"MoonEngine.sol\":2061:2151  function deleteLightImage() public onlyAuthorized {... */\n    tag_58:\n        /* \"MoonEngine.sol\":1603:1609  _owner */\n      0x00\n      dup1\n      sload\n      swap1\n      0x0100\n      exp\n      swap1\n      div\n      0xffffffffffffffffffffffffffffffffffffffff\n      and\n        /* \"MoonEngine.sol\":1589:1609  msg.sender == _owner */\n      0xffffffffffffffffffffffffffffffffffffffff\n      and\n        /* \"MoonEngine.sol\":1589:1599  msg.sender */\n      caller\n        /* \"MoonEngine.sol\":1589:1609  msg.sender == _owner */\n      0xffffffffffffffffffffffffffffffffffffffff\n      and\n      eq\n        /* \"MoonEngine.sol\":1589:1635  msg.sender == _owner || accessList[msg.sender] */\n      dup1\n      tag_109\n      jumpi\n      pop\n        /* \"MoonEngine.sol\":1613:1623  accessList */\n      0x05\n        /* \"MoonEngine.sol\":1613:1635  accessList[msg.sender] */\n      0x00\n        /* \"MoonEngine.sol\":1624:1634  msg.sender */\n      caller\n        /* \"MoonEngine.sol\":1613:1635  accessList[msg.sender] */\n      0xffffffffffffffffffffffffffffffffffffffff\n      and\n      0xffffffffffffffffffffffffffffffffffffffff\n      and\n      dup2\n      mstore\n      0x20\n      add\n      swap1\n      dup2\n      mstore\n      0x20\n      add\n      0x00\n      keccak256\n      0x00\n      swap1\n      sload\n      swap1\n      0x0100\n      exp\n      swap1\n      div\n      0xff\n      and\n        /* \"MoonEngine.sol\":1589:1635  msg.sender == _owner || accessList[msg.sender] */\n    tag_109:\n        /* \"MoonEngine.sol\":1581:1654  require(msg.sender == _owner || accessList[msg.sender], \"Not authorized\") */\n      tag_110\n      jumpi\n      mload(0x40)\n      0x08c379a000000000000000000000000000000000000000000000000000000000\n      dup2\n      mstore\n      0x04\n      add\n      tag_111\n      swap1\n      tag_95\n      jump\t// in\n    tag_111:\n      mload(0x40)\n      dup1\n      swap2\n      sub\n      swap1\n      revert\n    tag_110:\n        /* \"MoonEngine.sol\":2121:2144  _lightImageDataUri = \"\" */\n      mload(0x40)\n      dup1\n      0x20\n      add\n      0x40\n      mstore\n      dup1\n      0x00\n      dup2\n      mstore\n      pop\n        /* \"MoonEngine.sol\":2121:2139  _lightImageDataUri */\n      0x01\n        /* \"MoonEngine.sol\":2121:2144  _lightImageDataUri = \"\" */\n      swap1\n      dup2\n      tag_113\n      swap2\n      swap1\n      tag_98\n      jump\t// in\n    tag_113:\n      pop\n        /* \"MoonEngine.sol\":2061:2151  function deleteLightImage() public onlyAuthorized {... */\n      jump\t// out\n        /* \"MoonEngine.sol\":2426:2574  function flip() public {... */\n    tag_60:\n        /* \"MoonEngine.sol\":2506:2516  msg.sender */\n      caller\n        /* \"MoonEngine.sol\":2467:2516  IERC721(_creator).ownerOf(_tokenId) == msg.sender */\n      0xffffffffffffffffffffffffffffffffffffffff\n      and\n        /* \"MoonEngine.sol\":2475:2483  _creator */\n      0x04\n      0x00\n      swap1\n      sload\n      swap1\n      0x0100\n      exp\n      swap1\n      div\n      0xffffffffffffffffffffffffffffffffffffffff\n      and\n        /* \"MoonEngine.sol\":2467:2492  IERC721(_creator).ownerOf */\n      0xffffffffffffffffffffffffffffffffffffffff\n      and\n      0x6352211e\n        /* \"MoonEngine.sol\":2493:2501  _tokenId */\n      sload(0x03)\n        /* \"MoonEngine.sol\":2467:2502  IERC721(_creator).ownerOf(_tokenId) */\n      mload(0x40)\n      dup3\n      0xffffffff\n      and\n      0xe0\n      shl\n      dup2\n      mstore\n      0x04\n      add\n      tag_115\n      swap2\n      swap1\n      tag_33\n      jump\t// in\n    tag_115:\n      0x20\n      mload(0x40)\n      dup1\n      dup4\n      sub\n      dup2\n      dup7\n      gas\n      staticcall\n      iszero\n      dup1\n      iszero\n      tag_117\n      jumpi\n      returndatasize\n      0x00\n      dup1\n      returndatacopy\n      revert(0x00, returndatasize)\n    tag_117:\n      pop\n      pop\n      pop\n      pop\n      mload(0x40)\n      returndatasize\n      not(0x1f)\n      0x1f\n      dup3\n      add\n      and\n      dup3\n      add\n      dup1\n      0x40\n      mstore\n      pop\n      dup2\n      add\n      swap1\n      tag_118\n      swap2\n      swap1\n      tag_119\n      jump\t// in\n    tag_118:\n        /* \"MoonEngine.sol\":2467:2516  IERC721(_creator).ownerOf(_tokenId) == msg.sender */\n      0xffffffffffffffffffffffffffffffffffffffff\n      and\n      eq\n        /* \"MoonEngine.sol\":2459:2543  require(IERC721(_creator).ownerOf(_tokenId) == msg.sender, \"You must own the mooon\") */\n      tag_120\n      jumpi\n      mload(0x40)\n      0x08c379a000000000000000000000000000000000000000000000000000000000\n      dup2\n      mstore\n      0x04\n      add\n      tag_121\n      swap1\n      tag_122\n      jump\t// in\n    tag_121:\n      mload(0x40)\n      dup1\n      swap2\n      sub\n      swap1\n      revert\n    tag_120:\n        /* \"MoonEngine.sol\":2562:2567  _flip */\n      0x04\n      0x14\n      swap1\n      sload\n      swap1\n      0x0100\n      exp\n      swap1\n      div\n      0xff\n      and\n        /* \"MoonEngine.sol\":2561:2567  !_flip */\n      iszero\n        /* \"MoonEngine.sol\":2553:2558  _flip */\n      0x04\n      0x14\n        /* \"MoonEngine.sol\":2553:2567  _flip = !_flip */\n      0x0100\n      exp\n      dup2\n      sload\n      dup2\n      0xff\n      mul\n      not\n      and\n      swap1\n      dup4\n      iszero\n      iszero\n      mul\n      or\n      swap1\n      sstore\n      pop\n        /* \"MoonEngine.sol\":2426:2574  function flip() public {... */\n      jump\t// out\n        /* \"MoonEngine.sol\":1887:2055  function addLightImageChunk(string memory chunkData) public onlyAuthorized {... */\n    tag_64:\n        /* \"MoonEngine.sol\":1603:1609  _owner */\n      0x00\n      dup1\n      sload\n      swap1\n      0x0100\n      exp\n      swap1\n      div\n      0xffffffffffffffffffffffffffffffffffffffff\n      and\n        /* \"MoonEngine.sol\":1589:1609  msg.sender == _owner */\n      0xffffffffffffffffffffffffffffffffffffffff\n      and\n        /* \"MoonEngine.sol\":1589:1599  msg.sender */\n      caller\n        /* \"MoonEngine.sol\":1589:1609  msg.sender == _owner */\n      0xffffffffffffffffffffffffffffffffffffffff\n      and\n      eq\n        /* \"MoonEngine.sol\":1589:1635  msg.sender == _owner || accessList[msg.sender] */\n      dup1\n      tag_124\n      jumpi\n      pop\n        /* \"MoonEngine.sol\":1613:1623  accessList */\n      0x05\n        /* \"MoonEngine.sol\":1613:1635  accessList[msg.sender] */\n      0x00\n        /* \"MoonEngine.sol\":1624:1634  msg.sender */\n      caller\n        /* \"MoonEngine.sol\":1613:1635  accessList[msg.sender] */\n      0xffffffffffffffffffffffffffffffffffffffff\n      and\n      0xffffffffffffffffffffffffffffffffffffffff\n      and\n      dup2\n      mstore\n      0x20\n      add\n      swap1\n      dup2\n      mstore\n      0x20\n      add\n      0x00\n      keccak256\n      0x00\n      swap1\n      sload\n      swap1\n      0x0100\n      exp\n      swap1\n      div\n      0xff\n      and\n        /* \"MoonEngine.sol\":1589:1635  msg.sender == _owner || accessList[msg.sender] */\n    tag_124:\n        /* \"MoonEngine.sol\":1581:1654  require(msg.sender == _owner || accessList[msg.sender], \"Not authorized\") */\n      tag_125\n      jumpi\n      mload(0x40)\n      0x08c379a000000000000000000000000000000000000000000000000000000000\n      dup2\n      mstore\n      0x04\n      add\n      tag_126\n      swap1\n      tag_95\n      jump\t// in\n    tag_126:\n      mload(0x40)\n      dup1\n      swap2\n      sub\n      swap1\n      revert\n    tag_125:\n        /* \"MoonEngine.sol\":2017:2035  _lightImageDataUri */\n      0x01\n        /* \"MoonEngine.sol\":2037:2046  chunkData */\n      dup2\n        /* \"MoonEngine.sol\":2000:2047  abi.encodePacked(_lightImageDataUri, chunkData) */\n      add(0x20, mload(0x40))\n      tag_128\n      swap3\n      swap2\n      swap1\n      tag_129\n      jump\t// in\n    tag_128:\n      mload(0x40)\n      0x20\n      dup2\n      dup4\n      sub\n      sub\n      dup2\n      mstore\n      swap1\n      0x40\n      mstore\n        /* \"MoonEngine.sol\":1972:1990  _lightImageDataUri */\n      0x01\n        /* \"MoonEngine.sol\":1972:2048  _lightImageDataUri = string(abi.encodePacked(_lightImageDataUri, chunkData)) */\n      swap1\n      dup2\n      tag_130\n      swap2\n      swap1\n      tag_98\n      jump\t// in\n    tag_130:\n      pop\n        /* \"MoonEngine.sol\":1887:2055  function addLightImageChunk(string memory chunkData) public onlyAuthorized {... */\n      pop\n      jump\t// out\n        /* \"MoonEngine.sol\":2157:2322  function addDarkImageChunk(string memory chunkData) public onlyAuthorized {... */\n    tag_67:\n        /* \"MoonEngine.sol\":1603:1609  _owner */\n      0x00\n      dup1\n      sload\n      swap1\n      0x0100\n      exp\n      swap1\n      div\n      0xffffffffffffffffffffffffffffffffffffffff\n      and\n        /* \"MoonEngine.sol\":1589:1609  msg.sender == _owner */\n      0xffffffffffffffffffffffffffffffffffffffff\n      and\n        /* \"MoonEngine.sol\":1589:1599  msg.sender */\n      caller\n        /* \"MoonEngine.sol\":1589:1609  msg.sender == _owner */\n      0xffffffffffffffffffffffffffffffffffffffff\n      and\n      eq\n        /* \"MoonEngine.sol\":1589:1635  msg.sender == _owner || accessList[msg.sender] */\n      dup1\n      tag_132\n      jumpi\n      pop\n        /* \"MoonEngine.sol\":1613:1623  accessList */\n      0x05\n        /* \"MoonEngine.sol\":1613:1635  accessList[msg.sender] */\n      0x00\n        /* \"MoonEngine.sol\":1624:1634  msg.sender */\n      caller\n        /* \"MoonEngine.sol\":1613:1635  accessList[msg.sender] */\n      0xffffffffffffffffffffffffffffffffffffffff\n      and\n      0xffffffffffffffffffffffffffffffffffffffff\n      and\n      dup2\n      mstore\n      0x20\n      add\n      swap1\n      dup2\n      mstore\n      0x20\n      add\n      0x00\n      keccak256\n      0x00\n      swap1\n      sload\n      swap1\n      0x0100\n      exp\n      swap1\n      div\n      0xff\n      and\n        /* \"MoonEngine.sol\":1589:1635  msg.sender == _owner || accessList[msg.sender] */\n    tag_132:\n        /* \"MoonEngine.sol\":1581:1654  require(msg.sender == _owner || accessList[msg.sender], \"Not authorized\") */\n      tag_133\n      jumpi\n      mload(0x40)\n      0x08c379a000000000000000000000000000000000000000000000000000000000\n      dup2\n      mstore\n      0x04\n      add\n      tag_134\n      swap1\n      tag_95\n      jump\t// in\n    tag_134:\n      mload(0x40)\n      dup1\n      swap2\n      sub\n      swap1\n      revert\n    tag_133:\n        /* \"MoonEngine.sol\":2285:2302  _darkImageDataUri */\n      0x02\n        /* \"MoonEngine.sol\":2304:2313  chunkData */\n      dup2\n        /* \"MoonEngine.sol\":2268:2314  abi.encodePacked(_darkImageDataUri, chunkData) */\n      add(0x20, mload(0x40))\n      tag_136\n      swap3\n      swap2\n      swap1\n      tag_129\n      jump\t// in\n    tag_136:\n      mload(0x40)\n      0x20\n      dup2\n      dup4\n      sub\n      sub\n      dup2\n      mstore\n      swap1\n      0x40\n      mstore\n        /* \"MoonEngine.sol\":2241:2258  _darkImageDataUri */\n      0x02\n        /* \"MoonEngine.sol\":2241:2315  _darkImageDataUri = string(abi.encodePacked(_darkImageDataUri, chunkData)) */\n      swap1\n      dup2\n      tag_137\n      swap2\n      swap1\n      tag_98\n      jump\t// in\n    tag_137:\n      pop\n        /* \"MoonEngine.sol\":2157:2322  function addDarkImageChunk(string memory chunkData) public onlyAuthorized {... */\n      pop\n      jump\t// out\n        /* \"MoonEngine.sol\":2580:2765  function getImage() public view returns (string memory) {... */\n    tag_69:\n        /* \"MoonEngine.sol\":2621:2634  string memory */\n      0x60\n        /* \"MoonEngine.sol\":2649:2654  _flip */\n      0x04\n      0x14\n      swap1\n      sload\n      swap1\n      0x0100\n      exp\n      swap1\n      div\n      0xff\n      and\n        /* \"MoonEngine.sol\":2646:2759  if(_flip) {... */\n      iszero\n      tag_139\n      jumpi\n        /* \"MoonEngine.sol\":2676:2693  _darkImageDataUri */\n      0x02\n        /* \"MoonEngine.sol\":2669:2693  return _darkImageDataUri */\n      dup1\n      sload\n      tag_140\n      swap1\n      tag_81\n      jump\t// in\n    tag_140:\n      dup1\n      0x1f\n      add\n      0x20\n      dup1\n      swap2\n      div\n      mul\n      0x20\n      add\n      mload(0x40)\n      swap1\n      dup2\n      add\n      0x40\n      mstore\n      dup1\n      swap3\n      swap2\n      swap1\n      dup2\n      dup2\n      mstore\n      0x20\n      add\n      dup3\n      dup1\n      sload\n      tag_141\n      swap1\n      tag_81\n      jump\t// in\n    tag_141:\n      dup1\n      iszero\n      tag_142\n      jumpi\n      dup1\n      0x1f\n      lt\n      tag_143\n      jumpi\n      0x0100\n      dup1\n      dup4\n      sload\n      div\n      mul\n      dup4\n      mstore\n      swap2\n      0x20\n      add\n      swap2\n      jump(tag_142)\n    tag_143:\n      dup3\n      add\n      swap2\n      swap1\n      0x00\n      mstore\n      keccak256(0x00, 0x20)\n      swap1\n    tag_144:\n      dup2\n      sload\n      dup2\n      mstore\n      swap1\n      0x01\n      add\n      swap1\n      0x20\n      add\n      dup1\n      dup4\n      gt\n      tag_144\n      jumpi\n      dup3\n      swap1\n      sub\n      0x1f\n      and\n      dup3\n      add\n      swap2\n    tag_142:\n      pop\n      pop\n      pop\n      pop\n      pop\n      swap1\n      pop\n      jump(tag_138)\n        /* \"MoonEngine.sol\":2646:2759  if(_flip) {... */\n    tag_139:\n        /* \"MoonEngine.sol\":2730:2748  _lightImageDataUri */\n      0x01\n        /* \"MoonEngine.sol\":2723:2748  return _lightImageDataUri */\n      dup1\n      sload\n      tag_146\n      swap1\n      tag_81\n      jump\t// in\n    tag_146:\n      dup1\n      0x1f\n      add\n      0x20\n      dup1\n      swap2\n      div\n      mul\n      0x20\n      add\n      mload(0x40)\n      swap1\n      dup2\n      add\n      0x40\n      mstore\n      dup1\n      swap3\n      swap2\n      swap1\n      dup2\n      dup2\n      mstore\n      0x20\n      add\n      dup3\n      dup1\n      sload\n      tag_147\n      swap1\n      tag_81\n      jump\t// in\n    tag_147:\n      dup1\n      iszero\n      tag_148\n      jumpi\n      dup1\n      0x1f\n      lt\n      tag_149\n      jumpi\n      0x0100\n      dup1\n      dup4\n      sload\n      div\n      mul\n      dup4\n      mstore\n      swap2\n      0x20\n      add\n      swap2\n      jump(tag_148)\n    tag_149:\n      dup3\n      add\n      swap2\n      swap1\n      0x00\n      mstore\n      keccak256(0x00, 0x20)\n      swap1\n    tag_150:\n      dup2\n      sload\n      dup2\n      mstore\n      swap1\n      0x01\n      add\n      swap1\n      0x20\n      add\n      dup1\n      dup4\n      gt\n      tag_150\n      jumpi\n      dup3\n      swap1\n      sub\n      0x1f\n      and\n      dup3\n      add\n      swap2\n    tag_148:\n      pop\n      pop\n      pop\n      pop\n      pop\n      swap1\n      pop\n        /* \"MoonEngine.sol\":2580:2765  function getImage() public view returns (string memory) {... */\n    tag_138:\n      swap1\n      jump\t// out\n        /* \"MoonEngine.sol\":2880:2982  function getDarkImage() public view returns (string memory)  {... */\n    tag_72:\n        /* \"MoonEngine.sol\":2925:2938  string memory */\n      0x60\n        /* \"MoonEngine.sol\":2958:2975  _darkImageDataUri */\n      0x02\n        /* \"MoonEngine.sol\":2951:2975  return _darkImageDataUri */\n      dup1\n      sload\n      tag_152\n      swap1\n      tag_81\n      jump\t// in\n    tag_152:\n      dup1\n      0x1f\n      add\n      0x20\n      dup1\n      swap2\n      div\n      mul\n      0x20\n      add\n      mload(0x40)\n      swap1\n      dup2\n      add\n      0x40\n      mstore\n      dup1\n      swap3\n      swap2\n      swap1\n      dup2\n      dup2\n      mstore\n      0x20\n      add\n      dup3\n      dup1\n      sload\n      tag_153\n      swap1\n      tag_81\n      jump\t// in\n    tag_153:\n      dup1\n      iszero\n      tag_154\n      jumpi\n      dup1\n      0x1f\n      lt\n      tag_155\n      jumpi\n      0x0100\n      dup1\n      dup4\n      sload\n      div\n      mul\n      dup4\n      mstore\n      swap2\n      0x20\n      add\n      swap2\n      jump(tag_154)\n    tag_155:\n      dup3\n      add\n      swap2\n      swap1\n      0x00\n      mstore\n      keccak256(0x00, 0x20)\n      swap1\n    tag_156:\n      dup2\n      sload\n      dup2\n      mstore\n      swap1\n      0x01\n      add\n      swap1\n      0x20\n      add\n      dup1\n      dup4\n      gt\n      tag_156\n      jumpi\n      dup3\n      swap1\n      sub\n      0x1f\n      and\n      dup3\n      add\n      swap2\n    tag_154:\n      pop\n      pop\n      pop\n      pop\n      pop\n      swap1\n      pop\n        /* \"MoonEngine.sol\":2880:2982  function getDarkImage() public view returns (string memory)  {... */\n      swap1\n      jump\t// out\n        /* \"#utility.yul\":7:82   */\n    tag_157:\n        /* \"#utility.yul\":40:46   */\n      0x00\n        /* \"#utility.yul\":73:75   */\n      0x40\n        /* \"#utility.yul\":67:76   */\n      mload\n        /* \"#utility.yul\":57:76   */\n      swap1\n      pop\n        /* \"#utility.yul\":7:82   */\n      swap1\n      jump\t// out\n        /* \"#utility.yul\":88:205   */\n    tag_158:\n        /* \"#utility.yul\":197:198   */\n      0x00\n        /* \"#utility.yul\":194:195   */\n      dup1\n        /* \"#utility.yul\":187:199   */\n      revert\n        /* \"#utility.yul\":211:328   */\n    tag_159:\n        /* \"#utility.yul\":320:321   */\n      0x00\n        /* \"#utility.yul\":317:318   */\n      dup1\n        /* \"#utility.yul\":310:322   */\n      revert\n        /* \"#utility.yul\":334:460   */\n    tag_160:\n        /* \"#utility.yul\":371:378   */\n      0x00\n        /* \"#utility.yul\":411:453   */\n      0xffffffffffffffffffffffffffffffffffffffff\n        /* \"#utility.yul\":404:409   */\n      dup3\n        /* \"#utility.yul\":400:454   */\n      and\n        /* \"#utility.yul\":389:454   */\n      swap1\n      pop\n        /* \"#utility.yul\":334:460   */\n      swap2\n      swap1\n      pop\n      jump\t// out\n        /* \"#utility.yul\":466:562   */\n    tag_161:\n        /* \"#utility.yul\":503:510   */\n      0x00\n        /* \"#utility.yul\":532:556   */\n      tag_215\n        /* \"#utility.yul\":550:555   */\n      dup3\n        /* \"#utility.yul\":532:556   */\n      tag_160\n      jump\t// in\n    tag_215:\n        /* \"#utility.yul\":521:556   */\n      swap1\n      pop\n        /* \"#utility.yul\":466:562   */\n      swap2\n      swap1\n      pop\n      jump\t// out\n        /* \"#utility.yul\":568:690   */\n    tag_162:\n        /* \"#utility.yul\":641:665   */\n      tag_217\n        /* \"#utility.yul\":659:664   */\n      dup2\n        /* \"#utility.yul\":641:665   */\n      tag_161\n      jump\t// in\n    tag_217:\n        /* \"#utility.yul\":634:639   */\n      dup2\n        /* \"#utility.yul\":631:666   */\n      eq\n        /* \"#utility.yul\":621:684   */\n      tag_218\n      jumpi\n        /* \"#utility.yul\":680:681   */\n      0x00\n        /* \"#utility.yul\":677:678   */\n      dup1\n        /* \"#utility.yul\":670:682   */\n      revert\n        /* \"#utility.yul\":621:684   */\n    tag_218:\n        /* \"#utility.yul\":568:690   */\n      pop\n      jump\t// out\n        /* \"#utility.yul\":696:835   */\n    tag_163:\n        /* \"#utility.yul\":742:747   */\n      0x00\n        /* \"#utility.yul\":780:786   */\n      dup2\n        /* \"#utility.yul\":767:787   */\n      calldataload\n        /* \"#utility.yul\":758:787   */\n      swap1\n      pop\n        /* \"#utility.yul\":796:829   */\n      tag_220\n        /* \"#utility.yul\":823:828   */\n      dup2\n        /* \"#utility.yul\":796:829   */\n      tag_162\n      jump\t// in\n    tag_220:\n        /* \"#utility.yul\":696:835   */\n      swap3\n      swap2\n      pop\n      pop\n      jump\t// out\n        /* \"#utility.yul\":841:1170   */\n    tag_24:\n        /* \"#utility.yul\":900:906   */\n      0x00\n        /* \"#utility.yul\":949:951   */\n      0x20\n        /* \"#utility.yul\":937:946   */\n      dup3\n        /* \"#utility.yul\":928:935   */\n      dup5\n        /* \"#utility.yul\":924:947   */\n      sub\n        /* \"#utility.yul\":920:952   */\n      slt\n        /* \"#utility.yul\":917:1036   */\n      iszero\n      tag_222\n      jumpi\n        /* \"#utility.yul\":955:1034   */\n      tag_223\n      tag_158\n      jump\t// in\n    tag_223:\n        /* \"#utility.yul\":917:1036   */\n    tag_222:\n        /* \"#utility.yul\":1075:1076   */\n      0x00\n        /* \"#utility.yul\":1100:1153   */\n      tag_224\n        /* \"#utility.yul\":1145:1152   */\n      dup5\n        /* \"#utility.yul\":1136:1142   */\n      dup3\n        /* \"#utility.yul\":1125:1134   */\n      dup6\n        /* \"#utility.yul\":1121:1143   */\n      add\n        /* \"#utility.yul\":1100:1153   */\n      tag_163\n      jump\t// in\n    tag_224:\n        /* \"#utility.yul\":1090:1153   */\n      swap2\n      pop\n        /* \"#utility.yul\":1046:1163   */\n      pop\n        /* \"#utility.yul\":841:1170   */\n      swap3\n      swap2\n      pop\n      pop\n      jump\t// out\n        /* \"#utility.yul\":1176:1275   */\n    tag_164:\n        /* \"#utility.yul\":1228:1234   */\n      0x00\n        /* \"#utility.yul\":1262:1267   */\n      dup2\n        /* \"#utility.yul\":1256:1268   */\n      mload\n        /* \"#utility.yul\":1246:1268   */\n      swap1\n      pop\n        /* \"#utility.yul\":1176:1275   */\n      swap2\n      swap1\n      pop\n      jump\t// out\n        /* \"#utility.yul\":1281:1450   */\n    tag_165:\n        /* \"#utility.yul\":1365:1376   */\n      0x00\n        /* \"#utility.yul\":1399:1405   */\n      dup3\n        /* \"#utility.yul\":1394:1397   */\n      dup3\n        /* \"#utility.yul\":1387:1406   */\n      mstore\n        /* \"#utility.yul\":1439:1443   */\n      0x20\n        /* \"#utility.yul\":1434:1437   */\n      dup3\n        /* \"#utility.yul\":1430:1444   */\n      add\n        /* \"#utility.yul\":1415:1444   */\n      swap1\n      pop\n        /* \"#utility.yul\":1281:1450   */\n      swap3\n      swap2\n      pop\n      pop\n      jump\t// out\n        /* \"#utility.yul\":1456:1595   */\n    tag_166:\n        /* \"#utility.yul\":1545:1551   */\n      dup3\n        /* \"#utility.yul\":1540:1543   */\n      dup2\n        /* \"#utility.yul\":1535:1538   */\n      dup4\n        /* \"#utility.yul\":1529:1552   */\n      mcopy\n        /* \"#utility.yul\":1586:1587   */\n      0x00\n        /* \"#utility.yul\":1577:1583   */\n      dup4\n        /* \"#utility.yul\":1572:1575   */\n      dup4\n        /* \"#utility.yul\":1568:1584   */\n      add\n        /* \"#utility.yul\":1561:1588   */\n      mstore\n        /* \"#utility.yul\":1456:1595   */\n      pop\n      pop\n      pop\n      jump\t// out\n        /* \"#utility.yul\":1601:1703   */\n    tag_167:\n        /* \"#utility.yul\":1642:1648   */\n      0x00\n        /* \"#utility.yul\":1693:1695   */\n      0x1f\n        /* \"#utility.yul\":1689:1696   */\n      not\n        /* \"#utility.yul\":1684:1686   */\n      0x1f\n        /* \"#utility.yul\":1677:1682   */\n      dup4\n        /* \"#utility.yul\":1673:1687   */\n      add\n        /* \"#utility.yul\":1669:1697   */\n      and\n        /* \"#utility.yul\":1659:1697   */\n      swap1\n      pop\n        /* \"#utility.yul\":1601:1703   */\n      swap2\n      swap1\n      pop\n      jump\t// out\n        /* \"#utility.yul\":1709:2086   */\n    tag_168:\n        /* \"#utility.yul\":1797:1800   */\n      0x00\n        /* \"#utility.yul\":1825:1864   */\n      tag_230\n        /* \"#utility.yul\":1858:1863   */\n      dup3\n        /* \"#utility.yul\":1825:1864   */\n      tag_164\n      jump\t// in\n    tag_230:\n        /* \"#utility.yul\":1880:1951   */\n      tag_231\n        /* \"#utility.yul\":1944:1950   */\n      dup2\n        /* \"#utility.yul\":1939:1942   */\n      dup6\n        /* \"#utility.yul\":1880:1951   */\n      tag_165\n      jump\t// in\n    tag_231:\n        /* \"#utility.yul\":1873:1951   */\n      swap4\n      pop\n        /* \"#utility.yul\":1960:2025   */\n      tag_232\n        /* \"#utility.yul\":2018:2024   */\n      dup2\n        /* \"#utility.yul\":2013:2016   */\n      dup6\n        /* \"#utility.yul\":2006:2010   */\n      0x20\n        /* \"#utility.yul\":1999:2004   */\n      dup7\n        /* \"#utility.yul\":1995:2011   */\n      add\n        /* \"#utility.yul\":1960:2025   */\n      tag_166\n      jump\t// in\n    tag_232:\n        /* \"#utility.yul\":2050:2079   */\n      tag_233\n        /* \"#utility.yul\":2072:2078   */\n      dup2\n        /* \"#utility.yul\":2050:2079   */\n      tag_167\n      jump\t// in\n    tag_233:\n        /* \"#utility.yul\":2045:2048   */\n      dup5\n        /* \"#utility.yul\":2041:2080   */\n      add\n        /* \"#utility.yul\":2034:2080   */\n      swap2\n      pop\n        /* \"#utility.yul\":1801:2086   */\n      pop\n        /* \"#utility.yul\":1709:2086   */\n      swap3\n      swap2\n      pop\n      pop\n      jump\t// out\n        /* \"#utility.yul\":2092:2405   */\n    tag_29:\n        /* \"#utility.yul\":2205:2209   */\n      0x00\n        /* \"#utility.yul\":2243:2245   */\n      0x20\n        /* \"#utility.yul\":2232:2241   */\n      dup3\n        /* \"#utility.yul\":2228:2246   */\n      add\n        /* \"#utility.yul\":2220:2246   */\n      swap1\n      pop\n        /* \"#utility.yul\":2292:2301   */\n      dup2\n        /* \"#utility.yul\":2286:2290   */\n      dup2\n        /* \"#utility.yul\":2282:2302   */\n      sub\n        /* \"#utility.yul\":2278:2279   */\n      0x00\n        /* \"#utility.yul\":2267:2276   */\n      dup4\n        /* \"#utility.yul\":2263:2280   */\n      add\n        /* \"#utility.yul\":2256:2303   */\n      mstore\n        /* \"#utility.yul\":2320:2398   */\n      tag_235\n        /* \"#utility.yul\":2393:2397   */\n      dup2\n        /* \"#utility.yul\":2384:2390   */\n      dup5\n        /* \"#utility.yul\":2320:2398   */\n      tag_168\n      jump\t// in\n    tag_235:\n        /* \"#utility.yul\":2312:2398   */\n      swap1\n      pop\n        /* \"#utility.yul\":2092:2405   */\n      swap3\n      swap2\n      pop\n      pop\n      jump\t// out\n        /* \"#utility.yul\":2411:2488   */\n    tag_169:\n        /* \"#utility.yul\":2448:2455   */\n      0x00\n        /* \"#utility.yul\":2477:2482   */\n      dup2\n        /* \"#utility.yul\":2466:2482   */\n      swap1\n      pop\n        /* \"#utility.yul\":2411:2488   */\n      swap2\n      swap1\n      pop\n      jump\t// out\n        /* \"#utility.yul\":2494:2612   */\n    tag_170:\n        /* \"#utility.yul\":2581:2605   */\n      tag_238\n        /* \"#utility.yul\":2599:2604   */\n      dup2\n        /* \"#utility.yul\":2581:2605   */\n      tag_169\n      jump\t// in\n    tag_238:\n        /* \"#utility.yul\":2576:2579   */\n      dup3\n        /* \"#utility.yul\":2569:2606   */\n      mstore\n        /* \"#utility.yul\":2494:2612   */\n      pop\n      pop\n      jump\t// out\n        /* \"#utility.yul\":2618:2840   */\n    tag_33:\n        /* \"#utility.yul\":2711:2715   */\n      0x00\n        /* \"#utility.yul\":2749:2751   */\n      0x20\n        /* \"#utility.yul\":2738:2747   */\n      dup3\n        /* \"#utility.yul\":2734:2752   */\n      add\n        /* \"#utility.yul\":2726:2752   */\n      swap1\n      pop\n        /* \"#utility.yul\":2762:2833   */\n      tag_240\n        /* \"#utility.yul\":2830:2831   */\n      0x00\n        /* \"#utility.yul\":2819:2828   */\n      dup4\n        /* \"#utility.yul\":2815:2832   */\n      add\n        /* \"#utility.yul\":2806:2812   */\n      dup5\n        /* \"#utility.yul\":2762:2833   */\n      tag_170\n      jump\t// in\n    tag_240:\n        /* \"#utility.yul\":2618:2840   */\n      swap3\n      swap2\n      pop\n      pop\n      jump\t// out\n        /* \"#utility.yul\":2846:2936   */\n    tag_171:\n        /* \"#utility.yul\":2880:2887   */\n      0x00\n        /* \"#utility.yul\":2923:2928   */\n      dup2\n        /* \"#utility.yul\":2916:2929   */\n      iszero\n        /* \"#utility.yul\":2909:2930   */\n      iszero\n        /* \"#utility.yul\":2898:2930   */\n      swap1\n      pop\n        /* \"#utility.yul\":2846:2936   */\n      swap2\n      swap1\n      pop\n      jump\t// out\n        /* \"#utility.yul\":2942:3051   */\n    tag_172:\n        /* \"#utility.yul\":3023:3044   */\n      tag_243\n        /* \"#utility.yul\":3038:3043   */\n      dup2\n        /* \"#utility.yul\":3023:3044   */\n      tag_171\n      jump\t// in\n    tag_243:\n        /* \"#utility.yul\":3018:3021   */\n      dup3\n        /* \"#utility.yul\":3011:3045   */\n      mstore\n        /* \"#utility.yul\":2942:3051   */\n      pop\n      pop\n      jump\t// out\n        /* \"#utility.yul\":3057:3267   */\n    tag_46:\n        /* \"#utility.yul\":3144:3148   */\n      0x00\n        /* \"#utility.yul\":3182:3184   */\n      0x20\n        /* \"#utility.yul\":3171:3180   */\n      dup3\n        /* \"#utility.yul\":3167:3185   */\n      add\n        /* \"#utility.yul\":3159:3185   */\n      swap1\n      pop\n        /* \"#utility.yul\":3195:3260   */\n      tag_245\n        /* \"#utility.yul\":3257:3258   */\n      0x00\n        /* \"#utility.yul\":3246:3255   */\n      dup4\n        /* \"#utility.yul\":3242:3259   */\n      add\n        /* \"#utility.yul\":3233:3239   */\n      dup5\n        /* \"#utility.yul\":3195:3260   */\n      tag_172\n      jump\t// in\n    tag_245:\n        /* \"#utility.yul\":3057:3267   */\n      swap3\n      swap2\n      pop\n      pop\n      jump\t// out\n        /* \"#utility.yul\":3273:3391   */\n    tag_173:\n        /* \"#utility.yul\":3360:3384   */\n      tag_247\n        /* \"#utility.yul\":3378:3383   */\n      dup2\n        /* \"#utility.yul\":3360:3384   */\n      tag_161\n      jump\t// in\n    tag_247:\n        /* \"#utility.yul\":3355:3358   */\n      dup3\n        /* \"#utility.yul\":3348:3385   */\n      mstore\n        /* \"#utility.yul\":3273:3391   */\n      pop\n      pop\n      jump\t// out\n        /* \"#utility.yul\":3397:3619   */\n    tag_50:\n        /* \"#utility.yul\":3490:3494   */\n      0x00\n        /* \"#utility.yul\":3528:3530   */\n      0x20\n        /* \"#utility.yul\":3517:3526   */\n      dup3\n        /* \"#utility.yul\":3513:3531   */\n      add\n        /* \"#utility.yul\":3505:3531   */\n      swap1\n      pop\n        /* \"#utility.yul\":3541:3612   */\n      tag_249\n        /* \"#utility.yul\":3609:3610   */\n      0x00\n        /* \"#utility.yul\":3598:3607   */\n      dup4\n        /* \"#utility.yul\":3594:3611   */\n      add\n        /* \"#utility.yul\":3585:3591   */\n      dup5\n        /* \"#utility.yul\":3541:3612   */\n      tag_173\n      jump\t// in\n    tag_249:\n        /* \"#utility.yul\":3397:3619   */\n      swap3\n      swap2\n      pop\n      pop\n      jump\t// out\n        /* \"#utility.yul\":3625:3742   */\n    tag_174:\n        /* \"#utility.yul\":3734:3735   */\n      0x00\n        /* \"#utility.yul\":3731:3732   */\n      dup1\n        /* \"#utility.yul\":3724:3736   */\n      revert\n        /* \"#utility.yul\":3748:3865   */\n    tag_175:\n        /* \"#utility.yul\":3857:3858   */\n      0x00\n        /* \"#utility.yul\":3854:3855   */\n      dup1\n        /* \"#utility.yul\":3847:3859   */\n      revert\n        /* \"#utility.yul\":3871:4051   */\n    tag_176:\n        /* \"#utility.yul\":3919:3996   */\n      0x4e487b7100000000000000000000000000000000000000000000000000000000\n        /* \"#utility.yul\":3916:3917   */\n      0x00\n        /* \"#utility.yul\":3909:3997   */\n      mstore\n        /* \"#utility.yul\":4016:4020   */\n      0x41\n        /* \"#utility.yul\":4013:4014   */\n      0x04\n        /* \"#utility.yul\":4006:4021   */\n      mstore\n        /* \"#utility.yul\":4040:4044   */\n      0x24\n        /* \"#utility.yul\":4037:4038   */\n      0x00\n        /* \"#utility.yul\":4030:4045   */\n      revert\n        /* \"#utility.yul\":4057:4338   */\n    tag_177:\n        /* \"#utility.yul\":4140:4167   */\n      tag_254\n        /* \"#utility.yul\":4162:4166   */\n      dup3\n        /* \"#utility.yul\":4140:4167   */\n      tag_167\n      jump\t// in\n    tag_254:\n        /* \"#utility.yul\":4132:4138   */\n      dup2\n        /* \"#utility.yul\":4128:4168   */\n      add\n        /* \"#utility.yul\":4270:4276   */\n      dup2\n        /* \"#utility.yul\":4258:4268   */\n      dup2\n        /* \"#utility.yul\":4255:4277   */\n      lt\n        /* \"#utility.yul\":4234:4252   */\n      0xffffffffffffffff\n        /* \"#utility.yul\":4222:4232   */\n      dup3\n        /* \"#utility.yul\":4219:4253   */\n      gt\n        /* \"#utility.yul\":4216:4278   */\n      or\n        /* \"#utility.yul\":4213:4301   */\n      iszero\n      tag_255\n      jumpi\n        /* \"#utility.yul\":4281:4299   */\n      tag_256\n      tag_176\n      jump\t// in\n    tag_256:\n        /* \"#utility.yul\":4213:4301   */\n    tag_255:\n        /* \"#utility.yul\":4321:4331   */\n      dup1\n        /* \"#utility.yul\":4317:4319   */\n      0x40\n        /* \"#utility.yul\":4310:4332   */\n      mstore\n        /* \"#utility.yul\":4100:4338   */\n      pop\n        /* \"#utility.yul\":4057:4338   */\n      pop\n      pop\n      jump\t// out\n        /* \"#utility.yul\":4344:4473   */\n    tag_178:\n        /* \"#utility.yul\":4378:4384   */\n      0x00\n        /* \"#utility.yul\":4405:4425   */\n      tag_258\n      tag_157\n      jump\t// in\n    tag_258:\n        /* \"#utility.yul\":4395:4425   */\n      swap1\n      pop\n        /* \"#utility.yul\":4434:4467   */\n      tag_259\n        /* \"#utility.yul\":4462:4466   */\n      dup3\n        /* \"#utility.yul\":4454:4460   */\n      dup3\n        /* \"#utility.yul\":4434:4467   */\n      tag_177\n      jump\t// in\n    tag_259:\n        /* \"#utility.yul\":4344:4473   */\n      swap2\n      swap1\n      pop\n      jump\t// out\n        /* \"#utility.yul\":4479:4787   */\n    tag_179:\n        /* \"#utility.yul\":4541:4545   */\n      0x00\n        /* \"#utility.yul\":4631:4649   */\n      0xffffffffffffffff\n        /* \"#utility.yul\":4623:4629   */\n      dup3\n        /* \"#utility.yul\":4620:4650   */\n      gt\n        /* \"#utility.yul\":4617:4673   */\n      iszero\n      tag_261\n      jumpi\n        /* \"#utility.yul\":4653:4671   */\n      tag_262\n      tag_176\n      jump\t// in\n    tag_262:\n        /* \"#utility.yul\":4617:4673   */\n    tag_261:\n        /* \"#utility.yul\":4691:4720   */\n      tag_263\n        /* \"#utility.yul\":4713:4719   */\n      dup3\n        /* \"#utility.yul\":4691:4720   */\n      tag_167\n      jump\t// in\n    tag_263:\n        /* \"#utility.yul\":4683:4720   */\n      swap1\n      pop\n        /* \"#utility.yul\":4775:4779   */\n      0x20\n        /* \"#utility.yul\":4769:4773   */\n      dup2\n        /* \"#utility.yul\":4765:4780   */\n      add\n        /* \"#utility.yul\":4757:4780   */\n      swap1\n      pop\n        /* \"#utility.yul\":4479:4787   */\n      swap2\n      swap1\n      pop\n      jump\t// out\n        /* \"#utility.yul\":4793:4941   */\n    tag_180:\n        /* \"#utility.yul\":4891:4897   */\n      dup3\n        /* \"#utility.yul\":4886:4889   */\n      dup2\n        /* \"#utility.yul\":4881:4884   */\n      dup4\n        /* \"#utility.yul\":4868:4898   */\n      calldatacopy\n        /* \"#utility.yul\":4932:4933   */\n      0x00\n        /* \"#utility.yul\":4923:4929   */\n      dup4\n        /* \"#utility.yul\":4918:4921   */\n      dup4\n        /* \"#utility.yul\":4914:4930   */\n      add\n        /* \"#utility.yul\":4907:4934   */\n      mstore\n        /* \"#utility.yul\":4793:4941   */\n      pop\n      pop\n      pop\n      jump\t// out\n        /* \"#utility.yul\":4947:5372   */\n    tag_181:\n        /* \"#utility.yul\":5025:5030   */\n      0x00\n        /* \"#utility.yul\":5050:5116   */\n      tag_266\n        /* \"#utility.yul\":5066:5115   */\n      tag_267\n        /* \"#utility.yul\":5108:5114   */\n      dup5\n        /* \"#utility.yul\":5066:5115   */\n      tag_179\n      jump\t// in\n    tag_267:\n        /* \"#utility.yul\":5050:5116   */\n      tag_178\n      jump\t// in\n    tag_266:\n        /* \"#utility.yul\":5041:5116   */\n      swap1\n      pop\n        /* \"#utility.yul\":5139:5145   */\n      dup3\n        /* \"#utility.yul\":5132:5137   */\n      dup2\n        /* \"#utility.yul\":5125:5146   */\n      mstore\n        /* \"#utility.yul\":5177:5181   */\n      0x20\n        /* \"#utility.yul\":5170:5175   */\n      dup2\n        /* \"#utility.yul\":5166:5182   */\n      add\n        /* \"#utility.yul\":5215:5218   */\n      dup5\n        /* \"#utility.yul\":5206:5212   */\n      dup5\n        /* \"#utility.yul\":5201:5204   */\n      dup5\n        /* \"#utility.yul\":5197:5213   */\n      add\n        /* \"#utility.yul\":5194:5219   */\n      gt\n        /* \"#utility.yul\":5191:5303   */\n      iszero\n      tag_268\n      jumpi\n        /* \"#utility.yul\":5222:5301   */\n      tag_269\n      tag_175\n      jump\t// in\n    tag_269:\n        /* \"#utility.yul\":5191:5303   */\n    tag_268:\n        /* \"#utility.yul\":5312:5366   */\n      tag_270\n        /* \"#utility.yul\":5359:5365   */\n      dup5\n        /* \"#utility.yul\":5354:5357   */\n      dup3\n        /* \"#utility.yul\":5349:5352   */\n      dup6\n        /* \"#utility.yul\":5312:5366   */\n      tag_180\n      jump\t// in\n    tag_270:\n        /* \"#utility.yul\":5031:5372   */\n      pop\n        /* \"#utility.yul\":4947:5372   */\n      swap4\n      swap3\n      pop\n      pop\n      pop\n      jump\t// out\n        /* \"#utility.yul\":5392:5732   */\n    tag_182:\n        /* \"#utility.yul\":5448:5453   */\n      0x00\n        /* \"#utility.yul\":5497:5500   */\n      dup3\n        /* \"#utility.yul\":5490:5494   */\n      0x1f\n        /* \"#utility.yul\":5482:5488   */\n      dup4\n        /* \"#utility.yul\":5478:5495   */\n      add\n        /* \"#utility.yul\":5474:5501   */\n      slt\n        /* \"#utility.yul\":5464:5586   */\n      tag_272\n      jumpi\n        /* \"#utility.yul\":5505:5584   */\n      tag_273\n      tag_174\n      jump\t// in\n    tag_273:\n        /* \"#utility.yul\":5464:5586   */\n    tag_272:\n        /* \"#utility.yul\":5622:5628   */\n      dup2\n        /* \"#utility.yul\":5609:5629   */\n      calldataload\n        /* \"#utility.yul\":5647:5726   */\n      tag_274\n        /* \"#utility.yul\":5722:5725   */\n      dup5\n        /* \"#utility.yul\":5714:5720   */\n      dup3\n        /* \"#utility.yul\":5707:5711   */\n      0x20\n        /* \"#utility.yul\":5699:5705   */\n      dup7\n        /* \"#utility.yul\":5695:5712   */\n      add\n        /* \"#utility.yul\":5647:5726   */\n      tag_181\n      jump\t// in\n    tag_274:\n        /* \"#utility.yul\":5638:5726   */\n      swap2\n      pop\n        /* \"#utility.yul\":5454:5732   */\n      pop\n        /* \"#utility.yul\":5392:5732   */\n      swap3\n      swap2\n      pop\n      pop\n      jump\t// out\n        /* \"#utility.yul\":5738:6247   */\n    tag_63:\n        /* \"#utility.yul\":5807:5813   */\n      0x00\n        /* \"#utility.yul\":5856:5858   */\n      0x20\n        /* \"#utility.yul\":5844:5853   */\n      dup3\n        /* \"#utility.yul\":5835:5842   */\n      dup5\n        /* \"#utility.yul\":5831:5854   */\n      sub\n        /* \"#utility.yul\":5827:5859   */\n      slt\n        /* \"#utility.yul\":5824:5943   */\n      iszero\n      tag_276\n      jumpi\n        /* \"#utility.yul\":5862:5941   */\n      tag_277\n      tag_158\n      jump\t// in\n    tag_277:\n        /* \"#utility.yul\":5824:5943   */\n    tag_276:\n        /* \"#utility.yul\":6010:6011   */\n      0x00\n        /* \"#utility.yul\":5999:6008   */\n      dup3\n        /* \"#utility.yul\":5995:6012   */\n      add\n        /* \"#utility.yul\":5982:6013   */\n      calldataload\n        /* \"#utility.yul\":6040:6058   */\n      0xffffffffffffffff\n        /* \"#utility.yul\":6032:6038   */\n      dup2\n        /* \"#utility.yul\":6029:6059   */\n      gt\n        /* \"#utility.yul\":6026:6143   */\n      iszero\n      tag_278\n      jumpi\n        /* \"#utility.yul\":6062:6141   */\n      tag_279\n      tag_159\n      jump\t// in\n    tag_279:\n        /* \"#utility.yul\":6026:6143   */\n    tag_278:\n        /* \"#utility.yul\":6167:6230   */\n      tag_280\n        /* \"#utility.yul\":6222:6229   */\n      dup5\n        /* \"#utility.yul\":6213:6219   */\n      dup3\n        /* \"#utility.yul\":6202:6211   */\n      dup6\n        /* \"#utility.yul\":6198:6220   */\n      add\n        /* \"#utility.yul\":6167:6230   */\n      tag_182\n      jump\t// in\n    tag_280:\n        /* \"#utility.yul\":6157:6230   */\n      swap2\n      pop\n        /* \"#utility.yul\":5953:6240   */\n      pop\n        /* \"#utility.yul\":5738:6247   */\n      swap3\n      swap2\n      pop\n      pop\n      jump\t// out\n        /* \"#utility.yul\":6253:6417   */\n    tag_183:\n        /* \"#utility.yul\":6393:6409   */\n      0x4e6f7420746865205f6f776e6572000000000000000000000000000000000000\n        /* \"#utility.yul\":6389:6390   */\n      0x00\n        /* \"#utility.yul\":6381:6387   */\n      dup3\n        /* \"#utility.yul\":6377:6391   */\n      add\n        /* \"#utility.yul\":6370:6410   */\n      mstore\n        /* \"#utility.yul\":6253:6417   */\n      pop\n      jump\t// out\n        /* \"#utility.yul\":6423:6789   */\n    tag_184:\n        /* \"#utility.yul\":6565:6568   */\n      0x00\n        /* \"#utility.yul\":6586:6653   */\n      tag_283\n        /* \"#utility.yul\":6650:6652   */\n      0x0e\n        /* \"#utility.yul\":6645:6648   */\n      dup4\n        /* \"#utility.yul\":6586:6653   */\n      tag_165\n      jump\t// in\n    tag_283:\n        /* \"#utility.yul\":6579:6653   */\n      swap2\n      pop\n        /* \"#utility.yul\":6662:6755   */\n      tag_284\n        /* \"#utility.yul\":6751:6754   */\n      dup3\n        /* \"#utility.yul\":6662:6755   */\n      tag_183\n      jump\t// in\n    tag_284:\n        /* \"#utility.yul\":6780:6782   */\n      0x20\n        /* \"#utility.yul\":6775:6778   */\n      dup3\n        /* \"#utility.yul\":6771:6783   */\n      add\n        /* \"#utility.yul\":6764:6783   */\n      swap1\n      pop\n        /* \"#utility.yul\":6423:6789   */\n      swap2\n      swap1\n      pop\n      jump\t// out\n        /* \"#utility.yul\":6795:7214   */\n    tag_77:\n        /* \"#utility.yul\":6961:6965   */\n      0x00\n        /* \"#utility.yul\":6999:7001   */\n      0x20\n        /* \"#utility.yul\":6988:6997   */\n      dup3\n        /* \"#utility.yul\":6984:7002   */\n      add\n        /* \"#utility.yul\":6976:7002   */\n      swap1\n      pop\n        /* \"#utility.yul\":7048:7057   */\n      dup2\n        /* \"#utility.yul\":7042:7046   */\n      dup2\n        /* \"#utility.yul\":7038:7058   */\n      sub\n        /* \"#utility.yul\":7034:7035   */\n      0x00\n        /* \"#utility.yul\":7023:7032   */\n      dup4\n        /* \"#utility.yul\":7019:7036   */\n      add\n        /* \"#utility.yul\":7012:7059   */\n      mstore\n        /* \"#utility.yul\":7076:7207   */\n      tag_286\n        /* \"#utility.yul\":7202:7206   */\n      dup2\n        /* \"#utility.yul\":7076:7207   */\n      tag_184\n      jump\t// in\n    tag_286:\n        /* \"#utility.yul\":7068:7207   */\n      swap1\n      pop\n        /* \"#utility.yul\":6795:7214   */\n      swap2\n      swap1\n      pop\n      jump\t// out\n        /* \"#utility.yul\":7220:7400   */\n    tag_185:\n        /* \"#utility.yul\":7268:7345   */\n      0x4e487b7100000000000000000000000000000000000000000000000000000000\n        /* \"#utility.yul\":7265:7266   */\n      0x00\n        /* \"#utility.yul\":7258:7346   */\n      mstore\n        /* \"#utility.yul\":7365:7369   */\n      0x22\n        /* \"#utility.yul\":7362:7363   */\n      0x04\n        /* \"#utility.yul\":7355:7370   */\n      mstore\n        /* \"#utility.yul\":7389:7393   */\n      0x24\n        /* \"#utility.yul\":7386:7387   */\n      0x00\n        /* \"#utility.yul\":7379:7394   */\n      revert\n        /* \"#utility.yul\":7406:7726   */\n    tag_81:\n        /* \"#utility.yul\":7450:7456   */\n      0x00\n        /* \"#utility.yul\":7487:7488   */\n      0x02\n        /* \"#utility.yul\":7481:7485   */\n      dup3\n        /* \"#utility.yul\":7477:7489   */\n      div\n        /* \"#utility.yul\":7467:7489   */\n      swap1\n      pop\n        /* \"#utility.yul\":7534:7535   */\n      0x01\n        /* \"#utility.yul\":7528:7532   */\n      dup3\n        /* \"#utility.yul\":7524:7536   */\n      and\n        /* \"#utility.yul\":7555:7573   */\n      dup1\n        /* \"#utility.yul\":7545:7626   */\n      tag_289\n      jumpi\n        /* \"#utility.yul\":7611:7615   */\n      0x7f\n        /* \"#utility.yul\":7603:7609   */\n      dup3\n        /* \"#utility.yul\":7599:7616   */\n      and\n        /* \"#utility.yul\":7589:7616   */\n      swap2\n      pop\n        /* \"#utility.yul\":7545:7626   */\n    tag_289:\n        /* \"#utility.yul\":7673:7675   */\n      0x20\n        /* \"#utility.yul\":7665:7671   */\n      dup3\n        /* \"#utility.yul\":7662:7676   */\n      lt\n        /* \"#utility.yul\":7642:7660   */\n      dup2\n        /* \"#utility.yul\":7639:7677   */\n      sub\n        /* \"#utility.yul\":7636:7720   */\n      tag_290\n      jumpi\n        /* \"#utility.yul\":7692:7710   */\n      tag_291\n      tag_185\n      jump\t// in\n    tag_291:\n        /* \"#utility.yul\":7636:7720   */\n    tag_290:\n        /* \"#utility.yul\":7457:7726   */\n      pop\n        /* \"#utility.yul\":7406:7726   */\n      swap2\n      swap1\n      pop\n      jump\t// out\n        /* \"#utility.yul\":7732:7896   */\n    tag_186:\n        /* \"#utility.yul\":7872:7888   */\n      0x4e6f7420617574686f72697a6564000000000000000000000000000000000000\n        /* \"#utility.yul\":7868:7869   */\n      0x00\n        /* \"#utility.yul\":7860:7866   */\n      dup3\n        /* \"#utility.yul\":7856:7870   */\n      add\n        /* \"#utility.yul\":7849:7889   */\n      mstore\n        /* \"#utility.yul\":7732:7896   */\n      pop\n      jump\t// out\n        /* \"#utility.yul\":7902:8268   */\n    tag_187:\n        /* \"#utility.yul\":8044:8047   */\n      0x00\n        /* \"#utility.yul\":8065:8132   */\n      tag_294\n        /* \"#utility.yul\":8129:8131   */\n      0x0e\n        /* \"#utility.yul\":8124:8127   */\n      dup4\n        /* \"#utility.yul\":8065:8132   */\n      tag_165\n      jump\t// in\n    tag_294:\n        /* \"#utility.yul\":8058:8132   */\n      swap2\n      pop\n        /* \"#utility.yul\":8141:8234   */\n      tag_295\n        /* \"#utility.yul\":8230:8233   */\n      dup3\n        /* \"#utility.yul\":8141:8234   */\n      tag_186\n      jump\t// in\n    tag_295:\n        /* \"#utility.yul\":8259:8261   */\n      0x20\n        /* \"#utility.yul\":8254:8257   */\n      dup3\n        /* \"#utility.yul\":8250:8262   */\n      add\n        /* \"#utility.yul\":8243:8262   */\n      swap1\n      pop\n        /* \"#utility.yul\":7902:8268   */\n      swap2\n      swap1\n      pop\n      jump\t// out\n        /* \"#utility.yul\":8274:8693   */\n    tag_95:\n        /* \"#utility.yul\":8440:8444   */\n      0x00\n        /* \"#utility.yul\":8478:8480   */\n      0x20\n        /* \"#utility.yul\":8467:8476   */\n      dup3\n        /* \"#utility.yul\":8463:8481   */\n      add\n        /* \"#utility.yul\":8455:8481   */\n      swap1\n      pop\n        /* \"#utility.yul\":8527:8536   */\n      dup2\n        /* \"#utility.yul\":8521:8525   */\n      dup2\n        /* \"#utility.yul\":8517:8537   */\n      sub\n        /* \"#utility.yul\":8513:8514   */\n      0x00\n        /* \"#utility.yul\":8502:8511   */\n      dup4\n        /* \"#utility.yul\":8498:8515   */\n      add\n        /* \"#utility.yul\":8491:8538   */\n      mstore\n        /* \"#utility.yul\":8555:8686   */\n      tag_297\n        /* \"#utility.yul\":8681:8685   */\n      dup2\n        /* \"#utility.yul\":8555:8686   */\n      tag_187\n      jump\t// in\n    tag_297:\n        /* \"#utility.yul\":8547:8686   */\n      swap1\n      pop\n        /* \"#utility.yul\":8274:8693   */\n      swap2\n      swap1\n      pop\n      jump\t// out\n        /* \"#utility.yul\":8699:8840   */\n    tag_188:\n        /* \"#utility.yul\":8748:8752   */\n      0x00\n        /* \"#utility.yul\":8771:8774   */\n      dup2\n        /* \"#utility.yul\":8763:8774   */\n      swap1\n      pop\n        /* \"#utility.yul\":8794:8797   */\n      dup2\n        /* \"#utility.yul\":8791:8792   */\n      0x00\n        /* \"#utility.yul\":8784:8798   */\n      mstore\n        /* \"#utility.yul\":8828:8832   */\n      0x20\n        /* \"#utility.yul\":8825:8826   */\n      0x00\n        /* \"#utility.yul\":8815:8833   */\n      keccak256\n        /* \"#utility.yul\":8807:8833   */\n      swap1\n      pop\n        /* \"#utility.yul\":8699:8840   */\n      swap2\n      swap1\n      pop\n      jump\t// out\n        /* \"#utility.yul\":8846:8939   */\n    tag_189:\n        /* \"#utility.yul\":8883:8889   */\n      0x00\n        /* \"#utility.yul\":8930:8932   */\n      0x20\n        /* \"#utility.yul\":8925:8927   */\n      0x1f\n        /* \"#utility.yul\":8918:8923   */\n      dup4\n        /* \"#utility.yul\":8914:8928   */\n      add\n        /* \"#utility.yul\":8910:8933   */\n      div\n        /* \"#utility.yul\":8900:8933   */\n      swap1\n      pop\n        /* \"#utility.yul\":8846:8939   */\n      swap2\n      swap1\n      pop\n      jump\t// out\n        /* \"#utility.yul\":8945:9052   */\n    tag_190:\n        /* \"#utility.yul\":8989:8997   */\n      0x00\n        /* \"#utility.yul\":9039:9044   */\n      dup3\n        /* \"#utility.yul\":9033:9037   */\n      dup3\n        /* \"#utility.yul\":9029:9045   */\n      shl\n        /* \"#utility.yul\":9008:9045   */\n      swap1\n      pop\n        /* \"#utility.yul\":8945:9052   */\n      swap3\n      swap2\n      pop\n      pop\n      jump\t// out\n        /* \"#utility.yul\":9058:9451   */\n    tag_191:\n        /* \"#utility.yul\":9127:9133   */\n      0x00\n        /* \"#utility.yul\":9177:9178   */\n      0x08\n        /* \"#utility.yul\":9165:9175   */\n      dup4\n        /* \"#utility.yul\":9161:9179   */\n      mul\n        /* \"#utility.yul\":9200:9297   */\n      tag_302\n        /* \"#utility.yul\":9230:9296   */\n      0xffffffffffffffffffffffffffffffffffffffffffffffffffffffffffffffff\n        /* \"#utility.yul\":9219:9228   */\n      dup3\n        /* \"#utility.yul\":9200:9297   */\n      tag_190\n      jump\t// in\n    tag_302:\n        /* \"#utility.yul\":9318:9357   */\n      tag_303\n        /* \"#utility.yul\":9348:9356   */\n      dup7\n        /* \"#utility.yul\":9337:9346   */\n      dup4\n        /* \"#utility.yul\":9318:9357   */\n      tag_190\n      jump\t// in\n    tag_303:\n        /* \"#utility.yul\":9306:9357   */\n      swap6\n      pop\n        /* \"#utility.yul\":9390:9394   */\n      dup1\n        /* \"#utility.yul\":9386:9395   */\n      not\n        /* \"#utility.yul\":9379:9384   */\n      dup5\n        /* \"#utility.yul\":9375:9396   */\n      and\n        /* \"#utility.yul\":9366:9396   */\n      swap4\n      pop\n        /* \"#utility.yul\":9439:9443   */\n      dup1\n        /* \"#utility.yul\":9429:9437   */\n      dup7\n        /* \"#utility.yul\":9425:9444   */\n      and\n        /* \"#utility.yul\":9418:9423   */\n      dup5\n        /* \"#utility.yul\":9415:9445   */\n      or\n        /* \"#utility.yul\":9405:9445   */\n      swap3\n      pop\n        /* \"#utility.yul\":9134:9451   */\n      pop\n      pop\n        /* \"#utility.yul\":9058:9451   */\n      swap4\n      swap3\n      pop\n      pop\n      pop\n      jump\t// out\n        /* \"#utility.yul\":9457:9517   */\n    tag_192:\n        /* \"#utility.yul\":9485:9488   */\n      0x00\n        /* \"#utility.yul\":9506:9511   */\n      dup2\n        /* \"#utility.yul\":9499:9511   */\n      swap1\n      pop\n        /* \"#utility.yul\":9457:9517   */\n      swap2\n      swap1\n      pop\n      jump\t// out\n        /* \"#utility.yul\":9523:9665   */\n    tag_193:\n        /* \"#utility.yul\":9573:9582   */\n      0x00\n        /* \"#utility.yul\":9606:9659   */\n      tag_306\n        /* \"#utility.yul\":9624:9658   */\n      tag_307\n        /* \"#utility.yul\":9633:9657   */\n      tag_308\n        /* \"#utility.yul\":9651:9656   */\n      dup5\n        /* \"#utility.yul\":9633:9657   */\n      tag_169\n      jump\t// in\n    tag_308:\n        /* \"#utility.yul\":9624:9658   */\n      tag_192\n      jump\t// in\n    tag_307:\n        /* \"#utility.yul\":9606:9659   */\n      tag_169\n      jump\t// in\n    tag_306:\n        /* \"#utility.yul\":9593:9659   */\n      swap1\n      pop\n        /* \"#utility.yul\":9523:9665   */\n      swap2\n      swap1\n      pop\n      jump\t// out\n        /* \"#utility.yul\":9671:9746   */\n    tag_194:\n        /* \"#utility.yul\":9714:9717   */\n      0x00\n        /* \"#utility.yul\":9735:9740   */\n      dup2\n        /* \"#utility.yul\":9728:9740   */\n      swap1\n      pop\n        /* \"#utility.yul\":9671:9746   */\n      swap2\n      swap1\n      pop\n      jump\t// out\n        /* \"#utility.yul\":9752:10021   */\n    tag_195:\n        /* \"#utility.yul\":9862:9901   */\n      tag_311\n        /* \"#utility.yul\":9893:9900   */\n      dup4\n        /* \"#utility.yul\":9862:9901   */\n      tag_193\n      jump\t// in\n    tag_311:\n        /* \"#utility.yul\":9923:10014   */\n      tag_312\n        /* \"#utility.yul\":9972:10013   */\n      tag_313\n        /* \"#utility.yul\":9996:10012   */\n      dup3\n        /* \"#utility.yul\":9972:10013   */\n      tag_194\n      jump\t// in\n    tag_313:\n        /* \"#utility.yul\":9964:9970   */\n      dup5\n        /* \"#utility.yul\":9957:9961   */\n      dup5\n        /* \"#utility.yul\":9951:9962   */\n      sload\n        /* \"#utility.yul\":9923:10014   */\n      tag_191\n      jump\t// in\n    tag_312:\n        /* \"#utility.yul\":9917:9921   */\n      dup3\n        /* \"#utility.yul\":9910:10015   */\n      sstore\n        /* \"#utility.yul\":9828:10021   */\n      pop\n        /* \"#utility.yul\":9752:10021   */\n      pop\n      pop\n      pop\n      jump\t// out\n        /* \"#utility.yul\":10027:10100   */\n    tag_196:\n        /* \"#utility.yul\":10072:10075   */\n      0x00\n        /* \"#utility.yul\":10027:10100   */\n      swap1\n      jump\t// out\n        /* \"#utility.yul\":10106:10295   */\n    tag_197:\n        /* \"#utility.yul\":10183:10215   */\n      tag_316\n      tag_196\n      jump\t// in\n    tag_316:\n        /* \"#utility.yul\":10224:10289   */\n      tag_317\n        /* \"#utility.yul\":10282:10288   */\n      dup2\n        /* \"#utility.yul\":10274:10280   */\n      dup5\n        /* \"#utility.yul\":10268:10272   */\n      dup5\n        /* \"#utility.yul\":10224:10289   */\n      tag_195\n      jump\t// in\n    tag_317:\n        /* \"#utility.yul\":10159:10295   */\n      pop\n        /* \"#utility.yul\":10106:10295   */\n      pop\n      pop\n      jump\t// out\n        /* \"#utility.yul\":10301:10487   */\n    tag_198:\n        /* \"#utility.yul\":10361:10481   */\n    tag_319:\n        /* \"#utility.yul\":10378:10381   */\n      dup2\n        /* \"#utility.yul\":10371:10376   */\n      dup2\n        /* \"#utility.yul\":10368:10382   */\n      lt\n        /* \"#utility.yul\":10361:10481   */\n      iszero\n      tag_321\n      jumpi\n        /* \"#utility.yul\":10432:10471   */\n      tag_322\n        /* \"#utility.yul\":10469:10470   */\n      0x00\n        /* \"#utility.yul\":10462:10467   */\n      dup3\n        /* \"#utility.yul\":10432:10471   */\n      tag_197\n      jump\t// in\n    tag_322:\n        /* \"#utility.yul\":10405:10406   */\n      0x01\n        /* \"#utility.yul\":10398:10403   */\n      dup2\n        /* \"#utility.yul\":10394:10407   */\n      add\n        /* \"#utility.yul\":10385:10407   */\n      swap1\n      pop\n        /* \"#utility.yul\":10361:10481   */\n      jump(tag_319)\n    tag_321:\n        /* \"#utility.yul\":10301:10487   */\n      pop\n      pop\n      jump\t// out\n        /* \"#utility.yul\":10493:11036   */\n    tag_199:\n        /* \"#utility.yul\":10594:10596   */\n      0x1f\n        /* \"#utility.yul\":10589:10592   */\n      dup3\n        /* \"#utility.yul\":10586:10597   */\n      gt\n        /* \"#utility.yul\":10583:11029   */\n      iszero\n      tag_324\n      jumpi\n        /* \"#utility.yul\":10628:10666   */\n      tag_325\n        /* \"#utility.yul\":10660:10665   */\n      dup2\n        /* \"#utility.yul\":10628:10666   */\n      tag_188\n      jump\t// in\n    tag_325:\n        /* \"#utility.yul\":10712:10741   */\n      tag_326\n        /* \"#utility.yul\":10730:10740   */\n      dup5\n        /* \"#utility.yul\":10712:10741   */\n      tag_189\n      jump\t// in\n    tag_326:\n        /* \"#utility.yul\":10702:10710   */\n      dup2\n        /* \"#utility.yul\":10698:10742   */\n      add\n        /* \"#utility.yul\":10895:10897   */\n      0x20\n        /* \"#utility.yul\":10883:10893   */\n      dup6\n        /* \"#utility.yul\":10880:10898   */\n      lt\n        /* \"#utility.yul\":10877:10926   */\n      iszero\n      tag_327\n      jumpi\n        /* \"#utility.yul\":10916:10924   */\n      dup2\n        /* \"#utility.yul\":10901:10924   */\n      swap1\n      pop\n        /* \"#utility.yul\":10877:10926   */\n    tag_327:\n        /* \"#utility.yul\":10939:11019   */\n      tag_328\n        /* \"#utility.yul\":10995:11017   */\n      tag_329\n        /* \"#utility.yul\":11013:11016   */\n      dup6\n        /* \"#utility.yul\":10995:11017   */\n      tag_189\n      jump\t// in\n    tag_329:\n        /* \"#utility.yul\":10985:10993   */\n      dup4\n        /* \"#utility.yul\":10981:11018   */\n      add\n        /* \"#utility.yul\":10968:10979   */\n      dup3\n        /* \"#utility.yul\":10939:11019   */\n      tag_198\n      jump\t// in\n    tag_328:\n        /* \"#utility.yul\":10598:11029   */\n      pop\n      pop\n        /* \"#utility.yul\":10583:11029   */\n    tag_324:\n        /* \"#utility.yul\":10493:11036   */\n      pop\n      pop\n      pop\n      jump\t// out\n        /* \"#utility.yul\":11042:11159   */\n    tag_200:\n        /* \"#utility.yul\":11096:11104   */\n      0x00\n        /* \"#utility.yul\":11146:11151   */\n      dup3\n        /* \"#utility.yul\":11140:11144   */\n      dup3\n        /* \"#utility.yul\":11136:11152   */\n      shr\n        /* \"#utility.yul\":11115:11152   */\n      swap1\n      pop\n        /* \"#utility.yul\":11042:11159   */\n      swap3\n      swap2\n      pop\n      pop\n      jump\t// out\n        /* \"#utility.yul\":11165:11334   */\n    tag_201:\n        /* \"#utility.yul\":11209:11215   */\n      0x00\n        /* \"#utility.yul\":11242:11293   */\n      tag_332\n        /* \"#utility.yul\":11290:11291   */\n      0x00\n        /* \"#utility.yul\":11286:11292   */\n      not\n        /* \"#utility.yul\":11278:11283   */\n      dup5\n        /* \"#utility.yul\":11275:11276   */\n      0x08\n        /* \"#utility.yul\":11271:11284   */\n      mul\n        /* \"#utility.yul\":11242:11293   */\n      tag_200\n      jump\t// in\n    tag_332:\n        /* \"#utility.yul\":11238:11294   */\n      not\n        /* \"#utility.yul\":11323:11327   */\n      dup1\n        /* \"#utility.yul\":11317:11321   */\n      dup4\n        /* \"#utility.yul\":11313:11328   */\n      and\n        /* \"#utility.yul\":11303:11328   */\n      swap2\n      pop\n        /* \"#utility.yul\":11216:11334   */\n      pop\n        /* \"#utility.yul\":11165:11334   */\n      swap3\n      swap2\n      pop\n      pop\n      jump\t// out\n        /* \"#utility.yul\":11339:11634   */\n    tag_202:\n        /* \"#utility.yul\":11415:11419   */\n      0x00\n        /* \"#utility.yul\":11561:11590   */\n      tag_334\n        /* \"#utility.yul\":11586:11589   */\n      dup4\n        /* \"#utility.yul\":11580:11584   */\n      dup4\n        /* \"#utility.yul\":11561:11590   */\n      tag_201\n      jump\t// in\n    tag_334:\n        /* \"#utility.yul\":11553:11590   */\n      swap2\n      pop\n        /* \"#utility.yul\":11623:11626   */\n      dup3\n        /* \"#utility.yul\":11620:11621   */\n      0x02\n        /* \"#utility.yul\":11616:11627   */\n      mul\n        /* \"#utility.yul\":11610:11614   */\n      dup3\n        /* \"#utility.yul\":11607:11628   */\n      or\n        /* \"#utility.yul\":11599:11628   */\n      swap1\n      pop\n        /* \"#utility.yul\":11339:11634   */\n      swap3\n      swap2\n      pop\n      pop\n      jump\t// out\n        /* \"#utility.yul\":11639:13034   */\n    tag_98:\n        /* \"#utility.yul\":11756:11793   */\n      tag_336\n        /* \"#utility.yul\":11789:11792   */\n      dup3\n        /* \"#utility.yul\":11756:11793   */\n      tag_164\n      jump\t// in\n    tag_336:\n        /* \"#utility.yul\":11858:11876   */\n      0xffffffffffffffff\n        /* \"#utility.yul\":11850:11856   */\n      dup2\n        /* \"#utility.yul\":11847:11877   */\n      gt\n        /* \"#utility.yul\":11844:11900   */\n      iszero\n      tag_337\n      jumpi\n        /* \"#utility.yul\":11880:11898   */\n      tag_338\n      tag_176\n      jump\t// in\n    tag_338:\n        /* \"#utility.yul\":11844:11900   */\n    tag_337:\n        /* \"#utility.yul\":11924:11962   */\n      tag_339\n        /* \"#utility.yul\":11956:11960   */\n      dup3\n        /* \"#utility.yul\":11950:11961   */\n      sload\n        /* \"#utility.yul\":11924:11962   */\n      tag_81\n      jump\t// in\n    tag_339:\n        /* \"#utility.yul\":12009:12076   */\n      tag_340\n        /* \"#utility.yul\":12069:12075   */\n      dup3\n        /* \"#utility.yul\":12061:12067   */\n      dup3\n        /* \"#utility.yul\":12055:12059   */\n      dup6\n        /* \"#utility.yul\":12009:12076   */\n      tag_199\n      jump\t// in\n    tag_340:\n        /* \"#utility.yul\":12103:12104   */\n      0x00\n        /* \"#utility.yul\":12127:12131   */\n      0x20\n        /* \"#utility.yul\":12114:12131   */\n      swap1\n      pop\n        /* \"#utility.yul\":12159:12161   */\n      0x1f\n        /* \"#utility.yul\":12151:12157   */\n      dup4\n        /* \"#utility.yul\":12148:12162   */\n      gt\n        /* \"#utility.yul\":12176:12177   */\n      0x01\n        /* \"#utility.yul\":12171:12789   */\n      dup2\n      eq\n      tag_342\n      jumpi\n        /* \"#utility.yul\":12833:12834   */\n      0x00\n        /* \"#utility.yul\":12850:12856   */\n      dup5\n        /* \"#utility.yul\":12847:12924   */\n      iszero\n      tag_343\n      jumpi\n        /* \"#utility.yul\":12899:12908   */\n      dup3\n        /* \"#utility.yul\":12894:12897   */\n      dup8\n        /* \"#utility.yul\":12890:12909   */\n      add\n        /* \"#utility.yul\":12884:12910   */\n      mload\n        /* \"#utility.yul\":12875:12910   */\n      swap1\n      pop\n        /* \"#utility.yul\":12847:12924   */\n    tag_343:\n        /* \"#utility.yul\":12950:13017   */\n      tag_344\n        /* \"#utility.yul\":13010:13016   */\n      dup6\n        /* \"#utility.yul\":13003:13008   */\n      dup3\n        /* \"#utility.yul\":12950:13017   */\n      tag_202\n      jump\t// in\n    tag_344:\n        /* \"#utility.yul\":12944:12948   */\n      dup7\n        /* \"#utility.yul\":12937:13018   */\n      sstore\n        /* \"#utility.yul\":12806:13028   */\n      pop\n        /* \"#utility.yul\":12141:13028   */\n      jump(tag_341)\n        /* \"#utility.yul\":12171:12789   */\n    tag_342:\n        /* \"#utility.yul\":12223:12227   */\n      0x1f\n        /* \"#utility.yul\":12219:12228   */\n      not\n        /* \"#utility.yul\":12211:12217   */\n      dup5\n        /* \"#utility.yul\":12207:12229   */\n      and\n        /* \"#utility.yul\":12257:12294   */\n      tag_345\n        /* \"#utility.yul\":12289:12293   */\n      dup7\n        /* \"#utility.yul\":12257:12294   */\n      tag_188\n      jump\t// in\n    tag_345:\n        /* \"#utility.yul\":12316:12317   */\n      0x00\n        /* \"#utility.yul\":12330:12538   */\n    tag_346:\n        /* \"#utility.yul\":12344:12351   */\n      dup3\n        /* \"#utility.yul\":12341:12342   */\n      dup2\n        /* \"#utility.yul\":12338:12352   */\n      lt\n        /* \"#utility.yul\":12330:12538   */\n      iszero\n      tag_348\n      jumpi\n        /* \"#utility.yul\":12423:12432   */\n      dup5\n        /* \"#utility.yul\":12418:12421   */\n      dup10\n        /* \"#utility.yul\":12414:12433   */\n      add\n        /* \"#utility.yul\":12408:12434   */\n      mload\n        /* \"#utility.yul\":12400:12406   */\n      dup3\n        /* \"#utility.yul\":12393:12435   */\n      sstore\n        /* \"#utility.yul\":12474:12475   */\n      0x01\n        /* \"#utility.yul\":12466:12472   */\n      dup3\n        /* \"#utility.yul\":12462:12476   */\n      add\n        /* \"#utility.yul\":12452:12476   */\n      swap2\n      pop\n        /* \"#utility.yul\":12521:12523   */\n      0x20\n        /* \"#utility.yul\":12510:12519   */\n      dup6\n        /* \"#utility.yul\":12506:12524   */\n      add\n        /* \"#utility.yul\":12493:12524   */\n      swap5\n      pop\n        /* \"#utility.yul\":12367:12371   */\n      0x20\n        /* \"#utility.yul\":12364:12365   */\n      dup2\n        /* \"#utility.yul\":12360:12372   */\n      add\n        /* \"#utility.yul\":12355:12372   */\n      swap1\n      pop\n        /* \"#utility.yul\":12330:12538   */\n      jump(tag_346)\n    tag_348:\n        /* \"#utility.yul\":12566:12572   */\n      dup7\n        /* \"#utility.yul\":12557:12564   */\n      dup4\n        /* \"#utility.yul\":12554:12573   */\n      lt\n        /* \"#utility.yul\":12551:12730   */\n      iszero\n      tag_349\n      jumpi\n        /* \"#utility.yul\":12624:12633   */\n      dup5\n        /* \"#utility.yul\":12619:12622   */\n      dup10\n        /* \"#utility.yul\":12615:12634   */\n      add\n        /* \"#utility.yul\":12609:12635   */\n      mload\n        /* \"#utility.yul\":12667:12715   */\n      tag_350\n        /* \"#utility.yul\":12709:12713   */\n      0x1f\n        /* \"#utility.yul\":12701:12707   */\n      dup10\n        /* \"#utility.yul\":12697:12714   */\n      and\n        /* \"#utility.yul\":12686:12695   */\n      dup3\n        /* \"#utility.yul\":12667:12715   */\n      tag_201\n      jump\t// in\n    tag_350:\n        /* \"#utility.yul\":12659:12665   */\n      dup4\n        /* \"#utility.yul\":12652:12716   */\n      sstore\n        /* \"#utility.yul\":12574:12730   */\n      pop\n        /* \"#utility.yul\":12551:12730   */\n    tag_349:\n        /* \"#utility.yul\":12776:12777   */\n      0x01\n        /* \"#utility.yul\":12772:12773   */\n      0x02\n        /* \"#utility.yul\":12764:12770   */\n      dup9\n        /* \"#utility.yul\":12760:12774   */\n      mul\n        /* \"#utility.yul\":12756:12778   */\n      add\n        /* \"#utility.yul\":12750:12754   */\n      dup9\n        /* \"#utility.yul\":12743:12779   */\n      sstore\n        /* \"#utility.yul\":12178:12789   */\n      pop\n      pop\n      pop\n        /* \"#utility.yul\":12141:13028   */\n    tag_341:\n      pop\n        /* \"#utility.yul\":11731:13034   */\n      pop\n      pop\n      pop\n        /* \"#utility.yul\":11639:13034   */\n      pop\n      pop\n      jump\t// out\n        /* \"#utility.yul\":13040:13183   */\n    tag_203:\n        /* \"#utility.yul\":13097:13102   */\n      0x00\n        /* \"#utility.yul\":13128:13134   */\n      dup2\n        /* \"#utility.yul\":13122:13135   */\n      mload\n        /* \"#utility.yul\":13113:13135   */\n      swap1\n      pop\n        /* \"#utility.yul\":13144:13177   */\n      tag_352\n        /* \"#utility.yul\":13171:13176   */\n      dup2\n        /* \"#utility.yul\":13144:13177   */\n      tag_162\n      jump\t// in\n    tag_352:\n        /* \"#utility.yul\":13040:13183   */\n      swap3\n      swap2\n      pop\n      pop\n      jump\t// out\n        /* \"#utility.yul\":13189:13540   */\n    tag_119:\n        /* \"#utility.yul\":13259:13265   */\n      0x00\n        /* \"#utility.yul\":13308:13310   */\n      0x20\n        /* \"#utility.yul\":13296:13305   */\n      dup3\n        /* \"#utility.yul\":13287:13294   */\n      dup5\n        /* \"#utility.yul\":13283:13306   */\n      sub\n        /* \"#utility.yul\":13279:13311   */\n      slt\n        /* \"#utility.yul\":13276:13395   */\n      iszero\n      tag_354\n      jumpi\n        /* \"#utility.yul\":13314:13393   */\n      tag_355\n      tag_158\n      jump\t// in\n    tag_355:\n        /* \"#utility.yul\":13276:13395   */\n    tag_354:\n        /* \"#utility.yul\":13434:13435   */\n      0x00\n        /* \"#utility.yul\":13459:13523   */\n      tag_356\n        /* \"#utility.yul\":13515:13522   */\n      dup5\n        /* \"#utility.yul\":13506:13512   */\n      dup3\n        /* \"#utility.yul\":13495:13504   */\n      dup6\n        /* \"#utility.yul\":13491:13513   */\n      add\n        /* \"#utility.yul\":13459:13523   */\n      tag_203\n      jump\t// in\n    tag_356:\n        /* \"#utility.yul\":13449:13523   */\n      swap2\n      pop\n        /* \"#utility.yul\":13405:13533   */\n      pop\n        /* \"#utility.yul\":13189:13540   */\n      swap3\n      swap2\n      pop\n      pop\n      jump\t// out\n        /* \"#utility.yul\":13546:13718   */\n    tag_204:\n        /* \"#utility.yul\":13686:13710   */\n      0x596f75206d757374206f776e20746865206d6f6f6f6e00000000000000000000\n        /* \"#utility.yul\":13682:13683   */\n      0x00\n        /* \"#utility.yul\":13674:13680   */\n      dup3\n        /* \"#utility.yul\":13670:13684   */\n      add\n        /* \"#utility.yul\":13663:13711   */\n      mstore\n        /* \"#utility.yul\":13546:13718   */\n      pop\n      jump\t// out\n        /* \"#utility.yul\":13724:14090   */\n    tag_205:\n        /* \"#utility.yul\":13866:13869   */\n      0x00\n        /* \"#utility.yul\":13887:13954   */\n      tag_359\n        /* \"#utility.yul\":13951:13953   */\n      0x16\n        /* \"#utility.yul\":13946:13949   */\n      dup4\n        /* \"#utility.yul\":13887:13954   */\n      tag_165\n      jump\t// in\n    tag_359:\n        /* \"#utility.yul\":13880:13954   */\n      swap2\n      pop\n        /* \"#utility.yul\":13963:14056   */\n      tag_360\n        /* \"#utility.yul\":14052:14055   */\n      dup3\n        /* \"#utility.yul\":13963:14056   */\n      tag_204\n      jump\t// in\n    tag_360:\n        /* \"#utility.yul\":14081:14083   */\n      0x20\n        /* \"#utility.yul\":14076:14079   */\n      dup3\n        /* \"#utility.yul\":14072:14084   */\n      add\n        /* \"#utility.yul\":14065:14084   */\n      swap1\n      pop\n        /* \"#utility.yul\":13724:14090   */\n      swap2\n      swap1\n      pop\n      jump\t// out\n        /* \"#utility.yul\":14096:14515   */\n    tag_122:\n        /* \"#utility.yul\":14262:14266   */\n      0x00\n        /* \"#utility.yul\":14300:14302   */\n      0x20\n        /* \"#utility.yul\":14289:14298   */\n      dup3\n        /* \"#utility.yul\":14285:14303   */\n      add\n        /* \"#utility.yul\":14277:14303   */\n      swap1\n      pop\n        /* \"#utility.yul\":14349:14358   */\n      dup2\n        /* \"#utility.yul\":14343:14347   */\n      dup2\n        /* \"#utility.yul\":14339:14359   */\n      sub\n        /* \"#utility.yul\":14335:14336   */\n      0x00\n        /* \"#utility.yul\":14324:14333   */\n      dup4\n        /* \"#utility.yul\":14320:14337   */\n      add\n        /* \"#utility.yul\":14313:14360   */\n      mstore\n        /* \"#utility.yul\":14377:14508   */\n      tag_362\n        /* \"#utility.yul\":14503:14507   */\n      dup2\n        /* \"#utility.yul\":14377:14508   */\n      tag_205\n      jump\t// in\n    tag_362:\n        /* \"#utility.yul\":14369:14508   */\n      swap1\n      pop\n        /* \"#utility.yul\":14096:14515   */\n      swap2\n      swap1\n      pop\n      jump\t// out\n        /* \"#utility.yul\":14521:14669   */\n    tag_206:\n        /* \"#utility.yul\":14623:14634   */\n      0x00\n        /* \"#utility.yul\":14660:14663   */\n      dup2\n        /* \"#utility.yul\":14645:14663   */\n      swap1\n      pop\n        /* \"#utility.yul\":14521:14669   */\n      swap3\n      swap2\n      pop\n      pop\n      jump\t// out\n        /* \"#utility.yul\":14699:15573   */\n    tag_207:\n        /* \"#utility.yul\":14802:14805   */\n      0x00\n        /* \"#utility.yul\":14839:14844   */\n      dup2\n        /* \"#utility.yul\":14833:14845   */\n      sload\n        /* \"#utility.yul\":14868:14904   */\n      tag_365\n        /* \"#utility.yul\":14894:14903   */\n      dup2\n        /* \"#utility.yul\":14868:14904   */\n      tag_81\n      jump\t// in\n    tag_365:\n        /* \"#utility.yul\":14920:15009   */\n      tag_366\n        /* \"#utility.yul\":15002:15008   */\n      dup2\n        /* \"#utility.yul\":14997:15000   */\n      dup7\n        /* \"#utility.yul\":14920:15009   */\n      tag_206\n      jump\t// in\n    tag_366:\n        /* \"#utility.yul\":14913:15009   */\n      swap5\n      pop\n        /* \"#utility.yul\":15040:15041   */\n      0x01\n        /* \"#utility.yul\":15029:15038   */\n      dup3\n        /* \"#utility.yul\":15025:15042   */\n      and\n        /* \"#utility.yul\":15056:15057   */\n      0x00\n        /* \"#utility.yul\":15051:15217   */\n      dup2\n      eq\n      tag_368\n      jumpi\n        /* \"#utility.yul\":15231:15232   */\n      0x01\n        /* \"#utility.yul\":15226:15567   */\n      dup2\n      eq\n      tag_369\n      jumpi\n        /* \"#utility.yul\":15018:15567   */\n      jump(tag_367)\n        /* \"#utility.yul\":15051:15217   */\n    tag_368:\n        /* \"#utility.yul\":15135:15139   */\n      0xff\n        /* \"#utility.yul\":15131:15140   */\n      not\n        /* \"#utility.yul\":15120:15129   */\n      dup4\n        /* \"#utility.yul\":15116:15141   */\n      and\n        /* \"#utility.yul\":15111:15114   */\n      dup7\n        /* \"#utility.yul\":15104:15142   */\n      mstore\n        /* \"#utility.yul\":15197:15203   */\n      dup2\n        /* \"#utility.yul\":15190:15204   */\n      iszero\n        /* \"#utility.yul\":15183:15205   */\n      iszero\n        /* \"#utility.yul\":15175:15181   */\n      dup3\n        /* \"#utility.yul\":15171:15206   */\n      mul\n        /* \"#utility.yul\":15166:15169   */\n      dup7\n        /* \"#utility.yul\":15162:15207   */\n      add\n        /* \"#utility.yul\":15155:15207   */\n      swap4\n      pop\n        /* \"#utility.yul\":15051:15217   */\n      jump(tag_367)\n        /* \"#utility.yul\":15226:15567   */\n    tag_369:\n        /* \"#utility.yul\":15293:15331   */\n      tag_370\n        /* \"#utility.yul\":15325:15330   */\n      dup6\n        /* \"#utility.yul\":15293:15331   */\n      tag_188\n      jump\t// in\n    tag_370:\n        /* \"#utility.yul\":15353:15354   */\n      0x00\n        /* \"#utility.yul\":15367:15521   */\n    tag_371:\n        /* \"#utility.yul\":15381:15387   */\n      dup4\n        /* \"#utility.yul\":15378:15379   */\n      dup2\n        /* \"#utility.yul\":15375:15388   */\n      lt\n        /* \"#utility.yul\":15367:15521   */\n      iszero\n      tag_373\n      jumpi\n        /* \"#utility.yul\":15455:15462   */\n      dup2\n        /* \"#utility.yul\":15449:15463   */\n      sload\n        /* \"#utility.yul\":15445:15446   */\n      dup2\n        /* \"#utility.yul\":15440:15443   */\n      dup10\n        /* \"#utility.yul\":15436:15447   */\n      add\n        /* \"#utility.yul\":15429:15464   */\n      mstore\n        /* \"#utility.yul\":15505:15506   */\n      0x01\n        /* \"#utility.yul\":15496:15503   */\n      dup3\n        /* \"#utility.yul\":15492:15507   */\n      add\n        /* \"#utility.yul\":15481:15507   */\n      swap2\n      pop\n        /* \"#utility.yul\":15403:15407   */\n      0x20\n        /* \"#utility.yul\":15400:15401   */\n      dup2\n        /* \"#utility.yul\":15396:15408   */\n      add\n        /* \"#utility.yul\":15391:15408   */\n      swap1\n      pop\n        /* \"#utility.yul\":15367:15521   */\n      jump(tag_371)\n    tag_373:\n        /* \"#utility.yul\":15550:15556   */\n      dup4\n        /* \"#utility.yul\":15545:15548   */\n      dup9\n        /* \"#utility.yul\":15541:15557   */\n      add\n        /* \"#utility.yul\":15534:15557   */\n      swap6\n      pop\n        /* \"#utility.yul\":15233:15567   */\n      pop\n      pop\n        /* \"#utility.yul\":15018:15567   */\n    tag_367:\n      pop\n        /* \"#utility.yul\":14806:15573   */\n      pop\n      pop\n        /* \"#utility.yul\":14699:15573   */\n      swap3\n      swap2\n      pop\n      pop\n      jump\t// out\n        /* \"#utility.yul\":15579:15969   */\n    tag_208:\n        /* \"#utility.yul\":15685:15688   */\n      0x00\n        /* \"#utility.yul\":15713:15752   */\n      tag_375\n        /* \"#utility.yul\":15746:15751   */\n      dup3\n        /* \"#utility.yul\":15713:15752   */\n      tag_164\n      jump\t// in\n    tag_375:\n        /* \"#utility.yul\":15768:15857   */\n      tag_376\n        /* \"#utility.yul\":15850:15856   */\n      dup2\n        /* \"#utility.yul\":15845:15848   */\n      dup6\n        /* \"#utility.yul\":15768:15857   */\n      tag_206\n      jump\t// in\n    tag_376:\n        /* \"#utility.yul\":15761:15857   */\n      swap4\n      pop\n        /* \"#utility.yul\":15866:15931   */\n      tag_377\n        /* \"#utility.yul\":15924:15930   */\n      dup2\n        /* \"#utility.yul\":15919:15922   */\n      dup6\n        /* \"#utility.yul\":15912:15916   */\n      0x20\n        /* \"#utility.yul\":15905:15910   */\n      dup7\n        /* \"#utility.yul\":15901:15917   */\n      add\n        /* \"#utility.yul\":15866:15931   */\n      tag_166\n      jump\t// in\n    tag_377:\n        /* \"#utility.yul\":15956:15962   */\n      dup1\n        /* \"#utility.yul\":15951:15954   */\n      dup5\n        /* \"#utility.yul\":15947:15963   */\n      add\n        /* \"#utility.yul\":15940:15963   */\n      swap2\n      pop\n        /* \"#utility.yul\":15689:15969   */\n      pop\n        /* \"#utility.yul\":15579:15969   */\n      swap3\n      swap2\n      pop\n      pop\n      jump\t// out\n        /* \"#utility.yul\":15975:16404   */\n    tag_129:\n        /* \"#utility.yul\":16152:16155   */\n      0x00\n        /* \"#utility.yul\":16174:16266   */\n      tag_379\n        /* \"#utility.yul\":16262:16265   */\n      dup3\n        /* \"#utility.yul\":16253:16259   */\n      dup6\n        /* \"#utility.yul\":16174:16266   */\n      tag_207\n      jump\t// in\n    tag_379:\n        /* \"#utility.yul\":16167:16266   */\n      swap2\n      pop\n        /* \"#utility.yul\":16283:16378   */\n      tag_380\n        /* \"#utility.yul\":16374:16377   */\n      dup3\n        /* \"#utility.yul\":16365:16371   */\n      dup5\n        /* \"#utility.yul\":16283:16378   */\n      tag_208\n      jump\t// in\n    tag_380:\n        /* \"#utility.yul\":16276:16378   */\n      swap2\n      pop\n        /* \"#utility.yul\":16395:16398   */\n      dup2\n        /* \"#utility.yul\":16388:16398   */\n      swap1\n      pop\n        /* \"#utility.yul\":15975:16404   */\n      swap4\n      swap3\n      pop\n      pop\n      pop\n      jump\t// out\n\n    auxdata: 0xa2646970667358221220024c566afaa8805e0f478226146cc8f8798f1091a0ad0f0b39a941245d4098bf64736f6c634300081a0033\n}\n",
				"bytecode": {
					"linkReferences": {},
					"object": "60806040525f600460146101000a81548160ff021916908315150217905550348015610029575f80fd5b506040516117ef3803806117ef833981810160405281019061004b9190610197565b335f806101000a81548173ffffffffffffffffffffffffffffffffffffffff021916908373ffffffffffffffffffffffffffffffffffffffff1602179055508060045f6101000a81548173ffffffffffffffffffffffffffffffffffffffff021916908373ffffffffffffffffffffffffffffffffffffffff160217905550600160055f73f1da6e2d387e9da611dac8a7fc587eaa4b01001373ffffffffffffffffffffffffffffffffffffffff1673ffffffffffffffffffffffffffffffffffffffff1681526020019081526020015f205f6101000a81548160ff021916908315150217905550506101c2565b5f80fd5b5f73ffffffffffffffffffffffffffffffffffffffff82169050919050565b5f6101668261013d565b9050919050565b6101768161015c565b8114610180575f80fd5b50565b5f815190506101918161016d565b92915050565b5f602082840312156101ac576101ab610139565b5b5f6101b984828501610183565b91505092915050565b611620806101cf5f395ff3fe608060405234801561000f575f80fd5b50600436106100fe575f3560e01c8063bc8bde6411610095578063d461325811610064578063d46132581461023c578063da82859314610258578063f3651cbb14610274578063f86957c414610292576100fe565b8063bc8bde64146101ec578063c2c428fd1461020a578063c6ff347414610228578063cde4efa914610232576100fe565b806355e19623116100d157806355e196231461017857806385e685311461018257806387a5b67c1461019e578063b2bdfa7b146101ce576100fe565b80630ae5e739146101025780630e15572d1461011e578063248225141461013c5780632b61f40d1461015a575b5f80fd5b61011c60048036038101906101179190610e13565b6102b0565b005b610126610395565b6040516101339190610eae565b60405180910390f35b610144610425565b6040516101519190610ee6565b60405180910390f35b61016261042b565b60405161016f9190610eae565b60405180910390f35b6101806104b7565b005b61019c60048036038101906101979190610e13565b6105b5565b005b6101b860048036038101906101b39190610e13565b610699565b6040516101c59190610f19565b60405180910390f35b6101d66106b6565b6040516101e39190610f41565b60405180910390f35b6101f46106d9565b6040516102019190610f41565b60405180910390f35b6102126106fe565b60405161021f9190610eae565b60405180910390f35b61023061078a565b005b61023a610888565b005b61025660048036038101906102519190611086565b6109bc565b005b610272600480360381019061026d9190611086565b610acf565b005b61027c610be2565b6040516102899190610eae565b60405180910390f35b61029a610d18565b6040516102a79190610eae565b60405180910390f35b5f8054906101000a900473ffffffffffffffffffffffffffffffffffffffff1673ffffffffffffffffffffffffffffffffffffffff163373ffffffffffffffffffffffffffffffffffffffff161461033d576040517f08c379a000000000000000000000000000000000000000000000000000000000815260040161033490611117565b60405180910390fd5b600160055f8373ffffffffffffffffffffffffffffffffffffffff1673ffffffffffffffffffffffffffffffffffffffff1681526020019081526020015f205f6101000a81548160ff02191690831515021790555050565b6060600180546103a490611162565b80601f01602080910402602001604051908101604052809291908181526020018280546103d090611162565b801561041b5780601f106103f25761010080835404028352916020019161041b565b820191905f5260205f20905b8154815290600101906020018083116103fe57829003601f168201915b5050505050905090565b60035481565b6001805461043890611162565b80601f016020809104026020016040519081016040528092919081815260200182805461046490611162565b80156104af5780601f10610486576101008083540402835291602001916104af565b820191905f5260205f20905b81548152906001019060200180831161049257829003601f168201915b505050505081565b5f8054906101000a900473ffffffffffffffffffffffffffffffffffffffff1673ffffffffffffffffffffffffffffffffffffffff163373ffffffffffffffffffffffffffffffffffffffff161480610556575060055f3373ffffffffffffffffffffffffffffffffffffffff1673ffffffffffffffffffffffffffffffffffffffff1681526020019081526020015f205f9054906101000a900460ff165b610595576040517f08c379a000000000000000000000000000000000000000000000000000000000815260040161058c906111dc565b60405180910390fd5b60405180602001604052805f815250600290816105b29190611397565b50565b5f8054906101000a900473ffffffffffffffffffffffffffffffffffffffff1673ffffffffffffffffffffffffffffffffffffffff163373ffffffffffffffffffffffffffffffffffffffff1614610642576040517f08c379a000000000000000000000000000000000000000000000000000000000815260040161063990611117565b60405180910390fd5b5f60055f8373ffffffffffffffffffffffffffffffffffffffff1673ffffffffffffffffffffffffffffffffffffffff1681526020019081526020015f205f6101000a81548160ff02191690831515021790555050565b6005602052805f5260405f205f915054906101000a900460ff1681565b5f8054906101000a900473ffffffffffffffffffffffffffffffffffffffff1681565b60045f9054906101000a900473ffffffffffffffffffffffffffffffffffffffff1681565b6002805461070b90611162565b80601f016020809104026020016040519081016040528092919081815260200182805461073790611162565b80156107825780601f1061075957610100808354040283529160200191610782565b820191905f5260205f20905b81548152906001019060200180831161076557829003601f168201915b505050505081565b5f8054906101000a900473ffffffffffffffffffffffffffffffffffffffff1673ffffffffffffffffffffffffffffffffffffffff163373ffffffffffffffffffffffffffffffffffffffff161480610829575060055f3373ffffffffffffffffffffffffffffffffffffffff1673ffffffffffffffffffffffffffffffffffffffff1681526020019081526020015f205f9054906101000a900460ff165b610868576040517f08c379a000000000000000000000000000000000000000000000000000000000815260040161085f906111dc565b60405180910390fd5b60405180602001604052805f815250600190816108859190611397565b50565b3373ffffffffffffffffffffffffffffffffffffffff1660045f9054906101000a900473ffffffffffffffffffffffffffffffffffffffff1673ffffffffffffffffffffffffffffffffffffffff16636352211e6003546040518263ffffffff1660e01b81526004016108fb9190610ee6565b602060405180830381865afa158015610916573d5f803e3d5ffd5b505050506040513d601f19601f8201168201806040525081019061093a919061147a565b73ffffffffffffffffffffffffffffffffffffffff1614610990576040517f08c379a0000000000000000000000000000000000000000000000000000000008152600401610987906114ef565b60405180910390fd5b600460149054906101000a900460ff1615600460146101000a81548160ff021916908315150217905550565b5f8054906101000a900473ffffffffffffffffffffffffffffffffffffffff1673ffffffffffffffffffffffffffffffffffffffff163373ffffffffffffffffffffffffffffffffffffffff161480610a5b575060055f3373ffffffffffffffffffffffffffffffffffffffff1673ffffffffffffffffffffffffffffffffffffffff1681526020019081526020015f205f9054906101000a900460ff165b610a9a576040517f08c379a0000000000000000000000000000000000000000000000000000000008152600401610a91906111dc565b60405180910390fd5b600181604051602001610aae9291906115c7565b60405160208183030381529060405260019081610acb9190611397565b5050565b5f8054906101000a900473ffffffffffffffffffffffffffffffffffffffff1673ffffffffffffffffffffffffffffffffffffffff163373ffffffffffffffffffffffffffffffffffffffff161480610b6e575060055f3373ffffffffffffffffffffffffffffffffffffffff1673ffffffffffffffffffffffffffffffffffffffff1681526020019081526020015f205f9054906101000a900460ff165b610bad576040517f08c379a0000000000000000000000000000000000000000000000000000000008152600401610ba4906111dc565b60405180910390fd5b600281604051602001610bc19291906115c7565b60405160208183030381529060405260029081610bde9190611397565b5050565b6060600460149054906101000a900460ff1615610c895760028054610c0690611162565b80601f0160208091040260200160405190810160405280929190818152602001828054610c3290611162565b8015610c7d5780601f10610c5457610100808354040283529160200191610c7d565b820191905f5260205f20905b815481529060010190602001808311610c6057829003601f168201915b50505050509050610d15565b60018054610c9690611162565b80601f0160208091040260200160405190810160405280929190818152602001828054610cc290611162565b8015610d0d5780601f10610ce457610100808354040283529160200191610d0d565b820191905f5260205f20905b815481529060010190602001808311610cf057829003601f168201915b505050505090505b90565b606060028054610d2790611162565b80601f0160208091040260200160405190810160405280929190818152602001828054610d5390611162565b8015610d9e5780601f10610d7557610100808354040283529160200191610d9e565b820191905f5260205f20905b815481529060010190602001808311610d8157829003601f168201915b5050505050905090565b5f604051905090565b5f80fd5b5f80fd5b5f73ffffffffffffffffffffffffffffffffffffffff82169050919050565b5f610de282610db9565b9050919050565b610df281610dd8565b8114610dfc575f80fd5b50565b5f81359050610e0d81610de9565b92915050565b5f60208284031215610e2857610e27610db1565b5b5f610e3584828501610dff565b91505092915050565b5f81519050919050565b5f82825260208201905092915050565b8281835e5f83830152505050565b5f601f19601f8301169050919050565b5f610e8082610e3e565b610e8a8185610e48565b9350610e9a818560208601610e58565b610ea381610e66565b840191505092915050565b5f6020820190508181035f830152610ec68184610e76565b905092915050565b5f819050919050565b610ee081610ece565b82525050565b5f602082019050610ef95f830184610ed7565b92915050565b5f8115159050919050565b610f1381610eff565b82525050565b5f602082019050610f2c5f830184610f0a565b92915050565b610f3b81610dd8565b82525050565b5f602082019050610f545f830184610f32565b92915050565b5f80fd5b5f80fd5b7f4e487b71000000000000000000000000000000000000000000000000000000005f52604160045260245ffd5b610f9882610e66565b810181811067ffffffffffffffff82111715610fb757610fb6610f62565b5b80604052505050565b5f610fc9610da8565b9050610fd58282610f8f565b919050565b5f67ffffffffffffffff821115610ff457610ff3610f62565b5b610ffd82610e66565b9050602081019050919050565b828183375f83830152505050565b5f61102a61102584610fda565b610fc0565b90508281526020810184848401111561104657611045610f5e565b5b61105184828561100a565b509392505050565b5f82601f83011261106d5761106c610f5a565b5b813561107d848260208601611018565b91505092915050565b5f6020828403121561109b5761109a610db1565b5b5f82013567ffffffffffffffff8111156110b8576110b7610db5565b5b6110c484828501611059565b91505092915050565b7f4e6f7420746865205f6f776e65720000000000000000000000000000000000005f82015250565b5f611101600e83610e48565b915061110c826110cd565b602082019050919050565b5f6020820190508181035f83015261112e816110f5565b9050919050565b7f4e487b71000000000000000000000000000000000000000000000000000000005f52602260045260245ffd5b5f600282049050600182168061117957607f821691505b60208210810361118c5761118b611135565b5b50919050565b7f4e6f7420617574686f72697a65640000000000000000000000000000000000005f82015250565b5f6111c6600e83610e48565b91506111d182611192565b602082019050919050565b5f6020820190508181035f8301526111f3816111ba565b9050919050565b5f819050815f5260205f209050919050565b5f6020601f8301049050919050565b5f82821b905092915050565b5f600883026112567fffffffffffffffffffffffffffffffffffffffffffffffffffffffffffffffff8261121b565b611260868361121b565b95508019841693508086168417925050509392505050565b5f819050919050565b5f61129b61129661129184610ece565b611278565b610ece565b9050919050565b5f819050919050565b6112b483611281565b6112c86112c0826112a2565b848454611227565b825550505050565b5f90565b6112dc6112d0565b6112e78184846112ab565b505050565b5b8181101561130a576112ff5f826112d4565b6001810190506112ed565b5050565b601f82111561134f57611320816111fa565b6113298461120c565b81016020851015611338578190505b61134c6113448561120c565b8301826112ec565b50505b505050565b5f82821c905092915050565b5f61136f5f1984600802611354565b1980831691505092915050565b5f6113878383611360565b9150826002028217905092915050565b6113a082610e3e565b67ffffffffffffffff8111156113b9576113b8610f62565b5b6113c38254611162565b6113ce82828561130e565b5f60209050601f8311600181146113ff575f84156113ed578287015190505b6113f7858261137c565b86555061145e565b601f19841661140d866111fa565b5f5b828110156114345784890151825560018201915060208501945060208101905061140f565b86831015611451578489015161144d601f891682611360565b8355505b6001600288020188555050505b505050505050565b5f8151905061147481610de9565b92915050565b5f6020828403121561148f5761148e610db1565b5b5f61149c84828501611466565b91505092915050565b7f596f75206d757374206f776e20746865206d6f6f6f6e000000000000000000005f82015250565b5f6114d9601683610e48565b91506114e4826114a5565b602082019050919050565b5f6020820190508181035f830152611506816114cd565b9050919050565b5f81905092915050565b5f815461152381611162565b61152d818661150d565b9450600182165f8114611547576001811461155c5761158e565b60ff198316865281151582028601935061158e565b611565856111fa565b5f5b8381101561158657815481890152600182019150602081019050611567565b838801955050505b50505092915050565b5f6115a182610e3e565b6115ab818561150d565b93506115bb818560208601610e58565b80840191505092915050565b5f6115d28285611517565b91506115de8284611597565b9150819050939250505056fea2646970667358221220024c566afaa8805e0f478226146cc8f8798f1091a0ad0f0b39a941245d4098bf64736f6c634300081a0033",
					"opcodes": "PUSH1 0x80 PUSH1 0x40 MSTORE PUSH0 PUSH1 0x4 PUSH1 0x14 PUSH2 0x100 EXP DUP2 SLOAD DUP2 PUSH1 0xFF MUL NOT AND SWAP1 DUP4 ISZERO ISZERO MUL OR SWAP1 SSTORE POP CALLVALUE DUP1 ISZERO PUSH2 0x29 JUMPI PUSH0 DUP1 REVERT JUMPDEST POP PUSH1 0x40 MLOAD PUSH2 0x17EF CODESIZE SUB DUP1 PUSH2 0x17EF DUP4 CODECOPY DUP2 DUP2 ADD PUSH1 0x40 MSTORE DUP2 ADD SWAP1 PUSH2 0x4B SWAP2 SWAP1 PUSH2 0x197 JUMP JUMPDEST CALLER PUSH0 DUP1 PUSH2 0x100 EXP DUP2 SLOAD DUP2 PUSH20 0xFFFFFFFFFFFFFFFFFFFFFFFFFFFFFFFFFFFFFFFF MUL NOT AND SWAP1 DUP4 PUSH20 0xFFFFFFFFFFFFFFFFFFFFFFFFFFFFFFFFFFFFFFFF AND MUL OR SWAP1 SSTORE POP DUP1 PUSH1 0x4 PUSH0 PUSH2 0x100 EXP DUP2 SLOAD DUP2 PUSH20 0xFFFFFFFFFFFFFFFFFFFFFFFFFFFFFFFFFFFFFFFF MUL NOT AND SWAP1 DUP4 PUSH20 0xFFFFFFFFFFFFFFFFFFFFFFFFFFFFFFFFFFFFFFFF AND MUL OR SWAP1 SSTORE POP PUSH1 0x1 PUSH1 0x5 PUSH0 PUSH20 0xF1DA6E2D387E9DA611DAC8A7FC587EAA4B010013 PUSH20 0xFFFFFFFFFFFFFFFFFFFFFFFFFFFFFFFFFFFFFFFF AND PUSH20 0xFFFFFFFFFFFFFFFFFFFFFFFFFFFFFFFFFFFFFFFF AND DUP2 MSTORE PUSH1 0x20 ADD SWAP1 DUP2 MSTORE PUSH1 0x20 ADD PUSH0 KECCAK256 PUSH0 PUSH2 0x100 EXP DUP2 SLOAD DUP2 PUSH1 0xFF MUL NOT AND SWAP1 DUP4 ISZERO ISZERO MUL OR SWAP1 SSTORE POP POP PUSH2 0x1C2 JUMP JUMPDEST PUSH0 DUP1 REVERT JUMPDEST PUSH0 PUSH20 0xFFFFFFFFFFFFFFFFFFFFFFFFFFFFFFFFFFFFFFFF DUP3 AND SWAP1 POP SWAP2 SWAP1 POP JUMP JUMPDEST PUSH0 PUSH2 0x166 DUP3 PUSH2 0x13D JUMP JUMPDEST SWAP1 POP SWAP2 SWAP1 POP JUMP JUMPDEST PUSH2 0x176 DUP2 PUSH2 0x15C JUMP JUMPDEST DUP2 EQ PUSH2 0x180 JUMPI PUSH0 DUP1 REVERT JUMPDEST POP JUMP JUMPDEST PUSH0 DUP2 MLOAD SWAP1 POP PUSH2 0x191 DUP2 PUSH2 0x16D JUMP JUMPDEST SWAP3 SWAP2 POP POP JUMP JUMPDEST PUSH0 PUSH1 0x20 DUP3 DUP5 SUB SLT ISZERO PUSH2 0x1AC JUMPI PUSH2 0x1AB PUSH2 0x139 JUMP JUMPDEST JUMPDEST PUSH0 PUSH2 0x1B9 DUP5 DUP3 DUP6 ADD PUSH2 0x183 JUMP JUMPDEST SWAP2 POP POP SWAP3 SWAP2 POP POP JUMP JUMPDEST PUSH2 0x1620 DUP1 PUSH2 0x1CF PUSH0 CODECOPY PUSH0 RETURN INVALID PUSH1 0x80 PUSH1 0x40 MSTORE CALLVALUE DUP1 ISZERO PUSH2 0xF JUMPI PUSH0 DUP1 REVERT JUMPDEST POP PUSH1 0x4 CALLDATASIZE LT PUSH2 0xFE JUMPI PUSH0 CALLDATALOAD PUSH1 0xE0 SHR DUP1 PUSH4 0xBC8BDE64 GT PUSH2 0x95 JUMPI DUP1 PUSH4 0xD4613258 GT PUSH2 0x64 JUMPI DUP1 PUSH4 0xD4613258 EQ PUSH2 0x23C JUMPI DUP1 PUSH4 0xDA828593 EQ PUSH2 0x258 JUMPI DUP1 PUSH4 0xF3651CBB EQ PUSH2 0x274 JUMPI DUP1 PUSH4 0xF86957C4 EQ PUSH2 0x292 JUMPI PUSH2 0xFE JUMP JUMPDEST DUP1 PUSH4 0xBC8BDE64 EQ PUSH2 0x1EC JUMPI DUP1 PUSH4 0xC2C428FD EQ PUSH2 0x20A JUMPI DUP1 PUSH4 0xC6FF3474 EQ PUSH2 0x228 JUMPI DUP1 PUSH4 0xCDE4EFA9 EQ PUSH2 0x232 JUMPI PUSH2 0xFE JUMP JUMPDEST DUP1 PUSH4 0x55E19623 GT PUSH2 0xD1 JUMPI DUP1 PUSH4 0x55E19623 EQ PUSH2 0x178 JUMPI DUP1 PUSH4 0x85E68531 EQ PUSH2 0x182 JUMPI DUP1 PUSH4 0x87A5B67C EQ PUSH2 0x19E JUMPI DUP1 PUSH4 0xB2BDFA7B EQ PUSH2 0x1CE JUMPI PUSH2 0xFE JUMP JUMPDEST DUP1 PUSH4 0xAE5E739 EQ PUSH2 0x102 JUMPI DUP1 PUSH4 0xE15572D EQ PUSH2 0x11E JUMPI DUP1 PUSH4 0x24822514 EQ PUSH2 0x13C JUMPI DUP1 PUSH4 0x2B61F40D EQ PUSH2 0x15A JUMPI JUMPDEST PUSH0 DUP1 REVERT JUMPDEST PUSH2 0x11C PUSH1 0x4 DUP1 CALLDATASIZE SUB DUP2 ADD SWAP1 PUSH2 0x117 SWAP2 SWAP1 PUSH2 0xE13 JUMP JUMPDEST PUSH2 0x2B0 JUMP JUMPDEST STOP JUMPDEST PUSH2 0x126 PUSH2 0x395 JUMP JUMPDEST PUSH1 0x40 MLOAD PUSH2 0x133 SWAP2 SWAP1 PUSH2 0xEAE JUMP JUMPDEST PUSH1 0x40 MLOAD DUP1 SWAP2 SUB SWAP1 RETURN JUMPDEST PUSH2 0x144 PUSH2 0x425 JUMP JUMPDEST PUSH1 0x40 MLOAD PUSH2 0x151 SWAP2 SWAP1 PUSH2 0xEE6 JUMP JUMPDEST PUSH1 0x40 MLOAD DUP1 SWAP2 SUB SWAP1 RETURN JUMPDEST PUSH2 0x162 PUSH2 0x42B JUMP JUMPDEST PUSH1 0x40 MLOAD PUSH2 0x16F SWAP2 SWAP1 PUSH2 0xEAE JUMP JUMPDEST PUSH1 0x40 MLOAD DUP1 SWAP2 SUB SWAP1 RETURN JUMPDEST PUSH2 0x180 PUSH2 0x4B7 JUMP JUMPDEST STOP JUMPDEST PUSH2 0x19C PUSH1 0x4 DUP1 CALLDATASIZE SUB DUP2 ADD SWAP1 PUSH2 0x197 SWAP2 SWAP1 PUSH2 0xE13 JUMP JUMPDEST PUSH2 0x5B5 JUMP JUMPDEST STOP JUMPDEST PUSH2 0x1B8 PUSH1 0x4 DUP1 CALLDATASIZE SUB DUP2 ADD SWAP1 PUSH2 0x1B3 SWAP2 SWAP1 PUSH2 0xE13 JUMP JUMPDEST PUSH2 0x699 JUMP JUMPDEST PUSH1 0x40 MLOAD PUSH2 0x1C5 SWAP2 SWAP1 PUSH2 0xF19 JUMP JUMPDEST PUSH1 0x40 MLOAD DUP1 SWAP2 SUB SWAP1 RETURN JUMPDEST PUSH2 0x1D6 PUSH2 0x6B6 JUMP JUMPDEST PUSH1 0x40 MLOAD PUSH2 0x1E3 SWAP2 SWAP1 PUSH2 0xF41 JUMP JUMPDEST PUSH1 0x40 MLOAD DUP1 SWAP2 SUB SWAP1 RETURN JUMPDEST PUSH2 0x1F4 PUSH2 0x6D9 JUMP JUMPDEST PUSH1 0x40 MLOAD PUSH2 0x201 SWAP2 SWAP1 PUSH2 0xF41 JUMP JUMPDEST PUSH1 0x40 MLOAD DUP1 SWAP2 SUB SWAP1 RETURN JUMPDEST PUSH2 0x212 PUSH2 0x6FE JUMP JUMPDEST PUSH1 0x40 MLOAD PUSH2 0x21F SWAP2 SWAP1 PUSH2 0xEAE JUMP JUMPDEST PUSH1 0x40 MLOAD DUP1 SWAP2 SUB SWAP1 RETURN JUMPDEST PUSH2 0x230 PUSH2 0x78A JUMP JUMPDEST STOP JUMPDEST PUSH2 0x23A PUSH2 0x888 JUMP JUMPDEST STOP JUMPDEST PUSH2 0x256 PUSH1 0x4 DUP1 CALLDATASIZE SUB DUP2 ADD SWAP1 PUSH2 0x251 SWAP2 SWAP1 PUSH2 0x1086 JUMP JUMPDEST PUSH2 0x9BC JUMP JUMPDEST STOP JUMPDEST PUSH2 0x272 PUSH1 0x4 DUP1 CALLDATASIZE SUB DUP2 ADD SWAP1 PUSH2 0x26D SWAP2 SWAP1 PUSH2 0x1086 JUMP JUMPDEST PUSH2 0xACF JUMP JUMPDEST STOP JUMPDEST PUSH2 0x27C PUSH2 0xBE2 JUMP JUMPDEST PUSH1 0x40 MLOAD PUSH2 0x289 SWAP2 SWAP1 PUSH2 0xEAE JUMP JUMPDEST PUSH1 0x40 MLOAD DUP1 SWAP2 SUB SWAP1 RETURN JUMPDEST PUSH2 0x29A PUSH2 0xD18 JUMP JUMPDEST PUSH1 0x40 MLOAD PUSH2 0x2A7 SWAP2 SWAP1 PUSH2 0xEAE JUMP JUMPDEST PUSH1 0x40 MLOAD DUP1 SWAP2 SUB SWAP1 RETURN JUMPDEST PUSH0 DUP1 SLOAD SWAP1 PUSH2 0x100 EXP SWAP1 DIV PUSH20 0xFFFFFFFFFFFFFFFFFFFFFFFFFFFFFFFFFFFFFFFF AND PUSH20 0xFFFFFFFFFFFFFFFFFFFFFFFFFFFFFFFFFFFFFFFF AND CALLER PUSH20 0xFFFFFFFFFFFFFFFFFFFFFFFFFFFFFFFFFFFFFFFF AND EQ PUSH2 0x33D JUMPI PUSH1 0x40 MLOAD PUSH32 0x8C379A000000000000000000000000000000000000000000000000000000000 DUP2 MSTORE PUSH1 0x4 ADD PUSH2 0x334 SWAP1 PUSH2 0x1117 JUMP JUMPDEST PUSH1 0x40 MLOAD DUP1 SWAP2 SUB SWAP1 REVERT JUMPDEST PUSH1 0x1 PUSH1 0x5 PUSH0 DUP4 PUSH20 0xFFFFFFFFFFFFFFFFFFFFFFFFFFFFFFFFFFFFFFFF AND PUSH20 0xFFFFFFFFFFFFFFFFFFFFFFFFFFFFFFFFFFFFFFFF AND DUP2 MSTORE PUSH1 0x20 ADD SWAP1 DUP2 MSTORE PUSH1 0x20 ADD PUSH0 KECCAK256 PUSH0 PUSH2 0x100 EXP DUP2 SLOAD DUP2 PUSH1 0xFF MUL NOT AND SWAP1 DUP4 ISZERO ISZERO MUL OR SWAP1 SSTORE POP POP JUMP JUMPDEST PUSH1 0x60 PUSH1 0x1 DUP1 SLOAD PUSH2 0x3A4 SWAP1 PUSH2 0x1162 JUMP JUMPDEST DUP1 PUSH1 0x1F ADD PUSH1 0x20 DUP1 SWAP2 DIV MUL PUSH1 0x20 ADD PUSH1 0x40 MLOAD SWAP1 DUP2 ADD PUSH1 0x40 MSTORE DUP1 SWAP3 SWAP2 SWAP1 DUP2 DUP2 MSTORE PUSH1 0x20 ADD DUP3 DUP1 SLOAD PUSH2 0x3D0 SWAP1 PUSH2 0x1162 JUMP JUMPDEST DUP1 ISZERO PUSH2 0x41B JUMPI DUP1 PUSH1 0x1F LT PUSH2 0x3F2 JUMPI PUSH2 0x100 DUP1 DUP4 SLOAD DIV MUL DUP4 MSTORE SWAP2 PUSH1 0x20 ADD SWAP2 PUSH2 0x41B JUMP JUMPDEST DUP3 ADD SWAP2 SWAP1 PUSH0 MSTORE PUSH1 0x20 PUSH0 KECCAK256 SWAP1 JUMPDEST DUP2 SLOAD DUP2 MSTORE SWAP1 PUSH1 0x1 ADD SWAP1 PUSH1 0x20 ADD DUP1 DUP4 GT PUSH2 0x3FE JUMPI DUP3 SWAP1 SUB PUSH1 0x1F AND DUP3 ADD SWAP2 JUMPDEST POP POP POP POP POP SWAP1 POP SWAP1 JUMP JUMPDEST PUSH1 0x3 SLOAD DUP2 JUMP JUMPDEST PUSH1 0x1 DUP1 SLOAD PUSH2 0x438 SWAP1 PUSH2 0x1162 JUMP JUMPDEST DUP1 PUSH1 0x1F ADD PUSH1 0x20 DUP1 SWAP2 DIV MUL PUSH1 0x20 ADD PUSH1 0x40 MLOAD SWAP1 DUP2 ADD PUSH1 0x40 MSTORE DUP1 SWAP3 SWAP2 SWAP1 DUP2 DUP2 MSTORE PUSH1 0x20 ADD DUP3 DUP1 SLOAD PUSH2 0x464 SWAP1 PUSH2 0x1162 JUMP JUMPDEST DUP1 ISZERO PUSH2 0x4AF JUMPI DUP1 PUSH1 0x1F LT PUSH2 0x486 JUMPI PUSH2 0x100 DUP1 DUP4 SLOAD DIV MUL DUP4 MSTORE SWAP2 PUSH1 0x20 ADD SWAP2 PUSH2 0x4AF JUMP JUMPDEST DUP3 ADD SWAP2 SWAP1 PUSH0 MSTORE PUSH1 0x20 PUSH0 KECCAK256 SWAP1 JUMPDEST DUP2 SLOAD DUP2 MSTORE SWAP1 PUSH1 0x1 ADD SWAP1 PUSH1 0x20 ADD DUP1 DUP4 GT PUSH2 0x492 JUMPI DUP3 SWAP1 SUB PUSH1 0x1F AND DUP3 ADD SWAP2 JUMPDEST POP POP POP POP POP DUP2 JUMP JUMPDEST PUSH0 DUP1 SLOAD SWAP1 PUSH2 0x100 EXP SWAP1 DIV PUSH20 0xFFFFFFFFFFFFFFFFFFFFFFFFFFFFFFFFFFFFFFFF AND PUSH20 0xFFFFFFFFFFFFFFFFFFFFFFFFFFFFFFFFFFFFFFFF AND CALLER PUSH20 0xFFFFFFFFFFFFFFFFFFFFFFFFFFFFFFFFFFFFFFFF AND EQ DUP1 PUSH2 0x556 JUMPI POP PUSH1 0x5 PUSH0 CALLER PUSH20 0xFFFFFFFFFFFFFFFFFFFFFFFFFFFFFFFFFFFFFFFF AND PUSH20 0xFFFFFFFFFFFFFFFFFFFFFFFFFFFFFFFFFFFFFFFF AND DUP2 MSTORE PUSH1 0x20 ADD SWAP1 DUP2 MSTORE PUSH1 0x20 ADD PUSH0 KECCAK256 PUSH0 SWAP1 SLOAD SWAP1 PUSH2 0x100 EXP SWAP1 DIV PUSH1 0xFF AND JUMPDEST PUSH2 0x595 JUMPI PUSH1 0x40 MLOAD PUSH32 0x8C379A000000000000000000000000000000000000000000000000000000000 DUP2 MSTORE PUSH1 0x4 ADD PUSH2 0x58C SWAP1 PUSH2 0x11DC JUMP JUMPDEST PUSH1 0x40 MLOAD DUP1 SWAP2 SUB SWAP1 REVERT JUMPDEST PUSH1 0x40 MLOAD DUP1 PUSH1 0x20 ADD PUSH1 0x40 MSTORE DUP1 PUSH0 DUP2 MSTORE POP PUSH1 0x2 SWAP1 DUP2 PUSH2 0x5B2 SWAP2 SWAP1 PUSH2 0x1397 JUMP JUMPDEST POP JUMP JUMPDEST PUSH0 DUP1 SLOAD SWAP1 PUSH2 0x100 EXP SWAP1 DIV PUSH20 0xFFFFFFFFFFFFFFFFFFFFFFFFFFFFFFFFFFFFFFFF AND PUSH20 0xFFFFFFFFFFFFFFFFFFFFFFFFFFFFFFFFFFFFFFFF AND CALLER PUSH20 0xFFFFFFFFFFFFFFFFFFFFFFFFFFFFFFFFFFFFFFFF AND EQ PUSH2 0x642 JUMPI PUSH1 0x40 MLOAD PUSH32 0x8C379A000000000000000000000000000000000000000000000000000000000 DUP2 MSTORE PUSH1 0x4 ADD PUSH2 0x639 SWAP1 PUSH2 0x1117 JUMP JUMPDEST PUSH1 0x40 MLOAD DUP1 SWAP2 SUB SWAP1 REVERT JUMPDEST PUSH0 PUSH1 0x5 PUSH0 DUP4 PUSH20 0xFFFFFFFFFFFFFFFFFFFFFFFFFFFFFFFFFFFFFFFF AND PUSH20 0xFFFFFFFFFFFFFFFFFFFFFFFFFFFFFFFFFFFFFFFF AND DUP2 MSTORE PUSH1 0x20 ADD SWAP1 DUP2 MSTORE PUSH1 0x20 ADD PUSH0 KECCAK256 PUSH0 PUSH2 0x100 EXP DUP2 SLOAD DUP2 PUSH1 0xFF MUL NOT AND SWAP1 DUP4 ISZERO ISZERO MUL OR SWAP1 SSTORE POP POP JUMP JUMPDEST PUSH1 0x5 PUSH1 0x20 MSTORE DUP1 PUSH0 MSTORE PUSH1 0x40 PUSH0 KECCAK256 PUSH0 SWAP2 POP SLOAD SWAP1 PUSH2 0x100 EXP SWAP1 DIV PUSH1 0xFF AND DUP2 JUMP JUMPDEST PUSH0 DUP1 SLOAD SWAP1 PUSH2 0x100 EXP SWAP1 DIV PUSH20 0xFFFFFFFFFFFFFFFFFFFFFFFFFFFFFFFFFFFFFFFF AND DUP2 JUMP JUMPDEST PUSH1 0x4 PUSH0 SWAP1 SLOAD SWAP1 PUSH2 0x100 EXP SWAP1 DIV PUSH20 0xFFFFFFFFFFFFFFFFFFFFFFFFFFFFFFFFFFFFFFFF AND DUP2 JUMP JUMPDEST PUSH1 0x2 DUP1 SLOAD PUSH2 0x70B SWAP1 PUSH2 0x1162 JUMP JUMPDEST DUP1 PUSH1 0x1F ADD PUSH1 0x20 DUP1 SWAP2 DIV MUL PUSH1 0x20 ADD PUSH1 0x40 MLOAD SWAP1 DUP2 ADD PUSH1 0x40 MSTORE DUP1 SWAP3 SWAP2 SWAP1 DUP2 DUP2 MSTORE PUSH1 0x20 ADD DUP3 DUP1 SLOAD PUSH2 0x737 SWAP1 PUSH2 0x1162 JUMP JUMPDEST DUP1 ISZERO PUSH2 0x782 JUMPI DUP1 PUSH1 0x1F LT PUSH2 0x759 JUMPI PUSH2 0x100 DUP1 DUP4 SLOAD DIV MUL DUP4 MSTORE SWAP2 PUSH1 0x20 ADD SWAP2 PUSH2 0x782 JUMP JUMPDEST DUP3 ADD SWAP2 SWAP1 PUSH0 MSTORE PUSH1 0x20 PUSH0 KECCAK256 SWAP1 JUMPDEST DUP2 SLOAD DUP2 MSTORE SWAP1 PUSH1 0x1 ADD SWAP1 PUSH1 0x20 ADD DUP1 DUP4 GT PUSH2 0x765 JUMPI DUP3 SWAP1 SUB PUSH1 0x1F AND DUP3 ADD SWAP2 JUMPDEST POP POP POP POP POP DUP2 JUMP JUMPDEST PUSH0 DUP1 SLOAD SWAP1 PUSH2 0x100 EXP SWAP1 DIV PUSH20 0xFFFFFFFFFFFFFFFFFFFFFFFFFFFFFFFFFFFFFFFF AND PUSH20 0xFFFFFFFFFFFFFFFFFFFFFFFFFFFFFFFFFFFFFFFF AND CALLER PUSH20 0xFFFFFFFFFFFFFFFFFFFFFFFFFFFFFFFFFFFFFFFF AND EQ DUP1 PUSH2 0x829 JUMPI POP PUSH1 0x5 PUSH0 CALLER PUSH20 0xFFFFFFFFFFFFFFFFFFFFFFFFFFFFFFFFFFFFFFFF AND PUSH20 0xFFFFFFFFFFFFFFFFFFFFFFFFFFFFFFFFFFFFFFFF AND DUP2 MSTORE PUSH1 0x20 ADD SWAP1 DUP2 MSTORE PUSH1 0x20 ADD PUSH0 KECCAK256 PUSH0 SWAP1 SLOAD SWAP1 PUSH2 0x100 EXP SWAP1 DIV PUSH1 0xFF AND JUMPDEST PUSH2 0x868 JUMPI PUSH1 0x40 MLOAD PUSH32 0x8C379A000000000000000000000000000000000000000000000000000000000 DUP2 MSTORE PUSH1 0x4 ADD PUSH2 0x85F SWAP1 PUSH2 0x11DC JUMP JUMPDEST PUSH1 0x40 MLOAD DUP1 SWAP2 SUB SWAP1 REVERT JUMPDEST PUSH1 0x40 MLOAD DUP1 PUSH1 0x20 ADD PUSH1 0x40 MSTORE DUP1 PUSH0 DUP2 MSTORE POP PUSH1 0x1 SWAP1 DUP2 PUSH2 0x885 SWAP2 SWAP1 PUSH2 0x1397 JUMP JUMPDEST POP JUMP JUMPDEST CALLER PUSH20 0xFFFFFFFFFFFFFFFFFFFFFFFFFFFFFFFFFFFFFFFF AND PUSH1 0x4 PUSH0 SWAP1 SLOAD SWAP1 PUSH2 0x100 EXP SWAP1 DIV PUSH20 0xFFFFFFFFFFFFFFFFFFFFFFFFFFFFFFFFFFFFFFFF AND PUSH20 0xFFFFFFFFFFFFFFFFFFFFFFFFFFFFFFFFFFFFFFFF AND PUSH4 0x6352211E PUSH1 0x3 SLOAD PUSH1 0x40 MLOAD DUP3 PUSH4 0xFFFFFFFF AND PUSH1 0xE0 SHL DUP2 MSTORE PUSH1 0x4 ADD PUSH2 0x8FB SWAP2 SWAP1 PUSH2 0xEE6 JUMP JUMPDEST PUSH1 0x20 PUSH1 0x40 MLOAD DUP1 DUP4 SUB DUP2 DUP7 GAS STATICCALL ISZERO DUP1 ISZERO PUSH2 0x916 JUMPI RETURNDATASIZE PUSH0 DUP1 RETURNDATACOPY RETURNDATASIZE PUSH0 REVERT JUMPDEST POP POP POP POP PUSH1 0x40 MLOAD RETURNDATASIZE PUSH1 0x1F NOT PUSH1 0x1F DUP3 ADD AND DUP3 ADD DUP1 PUSH1 0x40 MSTORE POP DUP2 ADD SWAP1 PUSH2 0x93A SWAP2 SWAP1 PUSH2 0x147A JUMP JUMPDEST PUSH20 0xFFFFFFFFFFFFFFFFFFFFFFFFFFFFFFFFFFFFFFFF AND EQ PUSH2 0x990 JUMPI PUSH1 0x40 MLOAD PUSH32 0x8C379A000000000000000000000000000000000000000000000000000000000 DUP2 MSTORE PUSH1 0x4 ADD PUSH2 0x987 SWAP1 PUSH2 0x14EF JUMP JUMPDEST PUSH1 0x40 MLOAD DUP1 SWAP2 SUB SWAP1 REVERT JUMPDEST PUSH1 0x4 PUSH1 0x14 SWAP1 SLOAD SWAP1 PUSH2 0x100 EXP SWAP1 DIV PUSH1 0xFF AND ISZERO PUSH1 0x4 PUSH1 0x14 PUSH2 0x100 EXP DUP2 SLOAD DUP2 PUSH1 0xFF MUL NOT AND SWAP1 DUP4 ISZERO ISZERO MUL OR SWAP1 SSTORE POP JUMP JUMPDEST PUSH0 DUP1 SLOAD SWAP1 PUSH2 0x100 EXP SWAP1 DIV PUSH20 0xFFFFFFFFFFFFFFFFFFFFFFFFFFFFFFFFFFFFFFFF AND PUSH20 0xFFFFFFFFFFFFFFFFFFFFFFFFFFFFFFFFFFFFFFFF AND CALLER PUSH20 0xFFFFFFFFFFFFFFFFFFFFFFFFFFFFFFFFFFFFFFFF AND EQ DUP1 PUSH2 0xA5B JUMPI POP PUSH1 0x5 PUSH0 CALLER PUSH20 0xFFFFFFFFFFFFFFFFFFFFFFFFFFFFFFFFFFFFFFFF AND PUSH20 0xFFFFFFFFFFFFFFFFFFFFFFFFFFFFFFFFFFFFFFFF AND DUP2 MSTORE PUSH1 0x20 ADD SWAP1 DUP2 MSTORE PUSH1 0x20 ADD PUSH0 KECCAK256 PUSH0 SWAP1 SLOAD SWAP1 PUSH2 0x100 EXP SWAP1 DIV PUSH1 0xFF AND JUMPDEST PUSH2 0xA9A JUMPI PUSH1 0x40 MLOAD PUSH32 0x8C379A000000000000000000000000000000000000000000000000000000000 DUP2 MSTORE PUSH1 0x4 ADD PUSH2 0xA91 SWAP1 PUSH2 0x11DC JUMP JUMPDEST PUSH1 0x40 MLOAD DUP1 SWAP2 SUB SWAP1 REVERT JUMPDEST PUSH1 0x1 DUP2 PUSH1 0x40 MLOAD PUSH1 0x20 ADD PUSH2 0xAAE SWAP3 SWAP2 SWAP1 PUSH2 0x15C7 JUMP JUMPDEST PUSH1 0x40 MLOAD PUSH1 0x20 DUP2 DUP4 SUB SUB DUP2 MSTORE SWAP1 PUSH1 0x40 MSTORE PUSH1 0x1 SWAP1 DUP2 PUSH2 0xACB SWAP2 SWAP1 PUSH2 0x1397 JUMP JUMPDEST POP POP JUMP JUMPDEST PUSH0 DUP1 SLOAD SWAP1 PUSH2 0x100 EXP SWAP1 DIV PUSH20 0xFFFFFFFFFFFFFFFFFFFFFFFFFFFFFFFFFFFFFFFF AND PUSH20 0xFFFFFFFFFFFFFFFFFFFFFFFFFFFFFFFFFFFFFFFF AND CALLER PUSH20 0xFFFFFFFFFFFFFFFFFFFFFFFFFFFFFFFFFFFFFFFF AND EQ DUP1 PUSH2 0xB6E JUMPI POP PUSH1 0x5 PUSH0 CALLER PUSH20 0xFFFFFFFFFFFFFFFFFFFFFFFFFFFFFFFFFFFFFFFF AND PUSH20 0xFFFFFFFFFFFFFFFFFFFFFFFFFFFFFFFFFFFFFFFF AND DUP2 MSTORE PUSH1 0x20 ADD SWAP1 DUP2 MSTORE PUSH1 0x20 ADD PUSH0 KECCAK256 PUSH0 SWAP1 SLOAD SWAP1 PUSH2 0x100 EXP SWAP1 DIV PUSH1 0xFF AND JUMPDEST PUSH2 0xBAD JUMPI PUSH1 0x40 MLOAD PUSH32 0x8C379A000000000000000000000000000000000000000000000000000000000 DUP2 MSTORE PUSH1 0x4 ADD PUSH2 0xBA4 SWAP1 PUSH2 0x11DC JUMP JUMPDEST PUSH1 0x40 MLOAD DUP1 SWAP2 SUB SWAP1 REVERT JUMPDEST PUSH1 0x2 DUP2 PUSH1 0x40 MLOAD PUSH1 0x20 ADD PUSH2 0xBC1 SWAP3 SWAP2 SWAP1 PUSH2 0x15C7 JUMP JUMPDEST PUSH1 0x40 MLOAD PUSH1 0x20 DUP2 DUP4 SUB SUB DUP2 MSTORE SWAP1 PUSH1 0x40 MSTORE PUSH1 0x2 SWAP1 DUP2 PUSH2 0xBDE SWAP2 SWAP1 PUSH2 0x1397 JUMP JUMPDEST POP POP JUMP JUMPDEST PUSH1 0x60 PUSH1 0x4 PUSH1 0x14 SWAP1 SLOAD SWAP1 PUSH2 0x100 EXP SWAP1 DIV PUSH1 0xFF AND ISZERO PUSH2 0xC89 JUMPI PUSH1 0x2 DUP1 SLOAD PUSH2 0xC06 SWAP1 PUSH2 0x1162 JUMP JUMPDEST DUP1 PUSH1 0x1F ADD PUSH1 0x20 DUP1 SWAP2 DIV MUL PUSH1 0x20 ADD PUSH1 0x40 MLOAD SWAP1 DUP2 ADD PUSH1 0x40 MSTORE DUP1 SWAP3 SWAP2 SWAP1 DUP2 DUP2 MSTORE PUSH1 0x20 ADD DUP3 DUP1 SLOAD PUSH2 0xC32 SWAP1 PUSH2 0x1162 JUMP JUMPDEST DUP1 ISZERO PUSH2 0xC7D JUMPI DUP1 PUSH1 0x1F LT PUSH2 0xC54 JUMPI PUSH2 0x100 DUP1 DUP4 SLOAD DIV MUL DUP4 MSTORE SWAP2 PUSH1 0x20 ADD SWAP2 PUSH2 0xC7D JUMP JUMPDEST DUP3 ADD SWAP2 SWAP1 PUSH0 MSTORE PUSH1 0x20 PUSH0 KECCAK256 SWAP1 JUMPDEST DUP2 SLOAD DUP2 MSTORE SWAP1 PUSH1 0x1 ADD SWAP1 PUSH1 0x20 ADD DUP1 DUP4 GT PUSH2 0xC60 JUMPI DUP3 SWAP1 SUB PUSH1 0x1F AND DUP3 ADD SWAP2 JUMPDEST POP POP POP POP POP SWAP1 POP PUSH2 0xD15 JUMP JUMPDEST PUSH1 0x1 DUP1 SLOAD PUSH2 0xC96 SWAP1 PUSH2 0x1162 JUMP JUMPDEST DUP1 PUSH1 0x1F ADD PUSH1 0x20 DUP1 SWAP2 DIV MUL PUSH1 0x20 ADD PUSH1 0x40 MLOAD SWAP1 DUP2 ADD PUSH1 0x40 MSTORE DUP1 SWAP3 SWAP2 SWAP1 DUP2 DUP2 MSTORE PUSH1 0x20 ADD DUP3 DUP1 SLOAD PUSH2 0xCC2 SWAP1 PUSH2 0x1162 JUMP JUMPDEST DUP1 ISZERO PUSH2 0xD0D JUMPI DUP1 PUSH1 0x1F LT PUSH2 0xCE4 JUMPI PUSH2 0x100 DUP1 DUP4 SLOAD DIV MUL DUP4 MSTORE SWAP2 PUSH1 0x20 ADD SWAP2 PUSH2 0xD0D JUMP JUMPDEST DUP3 ADD SWAP2 SWAP1 PUSH0 MSTORE PUSH1 0x20 PUSH0 KECCAK256 SWAP1 JUMPDEST DUP2 SLOAD DUP2 MSTORE SWAP1 PUSH1 0x1 ADD SWAP1 PUSH1 0x20 ADD DUP1 DUP4 GT PUSH2 0xCF0 JUMPI DUP3 SWAP1 SUB PUSH1 0x1F AND DUP3 ADD SWAP2 JUMPDEST POP POP POP POP POP SWAP1 POP JUMPDEST SWAP1 JUMP JUMPDEST PUSH1 0x60 PUSH1 0x2 DUP1 SLOAD PUSH2 0xD27 SWAP1 PUSH2 0x1162 JUMP JUMPDEST DUP1 PUSH1 0x1F ADD PUSH1 0x20 DUP1 SWAP2 DIV MUL PUSH1 0x20 ADD PUSH1 0x40 MLOAD SWAP1 DUP2 ADD PUSH1 0x40 MSTORE DUP1 SWAP3 SWAP2 SWAP1 DUP2 DUP2 MSTORE PUSH1 0x20 ADD DUP3 DUP1 SLOAD PUSH2 0xD53 SWAP1 PUSH2 0x1162 JUMP JUMPDEST DUP1 ISZERO PUSH2 0xD9E JUMPI DUP1 PUSH1 0x1F LT PUSH2 0xD75 JUMPI PUSH2 0x100 DUP1 DUP4 SLOAD DIV MUL DUP4 MSTORE SWAP2 PUSH1 0x20 ADD SWAP2 PUSH2 0xD9E JUMP JUMPDEST DUP3 ADD SWAP2 SWAP1 PUSH0 MSTORE PUSH1 0x20 PUSH0 KECCAK256 SWAP1 JUMPDEST DUP2 SLOAD DUP2 MSTORE SWAP1 PUSH1 0x1 ADD SWAP1 PUSH1 0x20 ADD DUP1 DUP4 GT PUSH2 0xD81 JUMPI DUP3 SWAP1 SUB PUSH1 0x1F AND DUP3 ADD SWAP2 JUMPDEST POP POP POP POP POP SWAP1 POP SWAP1 JUMP JUMPDEST PUSH0 PUSH1 0x40 MLOAD SWAP1 POP SWAP1 JUMP JUMPDEST PUSH0 DUP1 REVERT JUMPDEST PUSH0 DUP1 REVERT JUMPDEST PUSH0 PUSH20 0xFFFFFFFFFFFFFFFFFFFFFFFFFFFFFFFFFFFFFFFF DUP3 AND SWAP1 POP SWAP2 SWAP1 POP JUMP JUMPDEST PUSH0 PUSH2 0xDE2 DUP3 PUSH2 0xDB9 JUMP JUMPDEST SWAP1 POP SWAP2 SWAP1 POP JUMP JUMPDEST PUSH2 0xDF2 DUP2 PUSH2 0xDD8 JUMP JUMPDEST DUP2 EQ PUSH2 0xDFC JUMPI PUSH0 DUP1 REVERT JUMPDEST POP JUMP JUMPDEST PUSH0 DUP2 CALLDATALOAD SWAP1 POP PUSH2 0xE0D DUP2 PUSH2 0xDE9 JUMP JUMPDEST SWAP3 SWAP2 POP POP JUMP JUMPDEST PUSH0 PUSH1 0x20 DUP3 DUP5 SUB SLT ISZERO PUSH2 0xE28 JUMPI PUSH2 0xE27 PUSH2 0xDB1 JUMP JUMPDEST JUMPDEST PUSH0 PUSH2 0xE35 DUP5 DUP3 DUP6 ADD PUSH2 0xDFF JUMP JUMPDEST SWAP2 POP POP SWAP3 SWAP2 POP POP JUMP JUMPDEST PUSH0 DUP2 MLOAD SWAP1 POP SWAP2 SWAP1 POP JUMP JUMPDEST PUSH0 DUP3 DUP3 MSTORE PUSH1 0x20 DUP3 ADD SWAP1 POP SWAP3 SWAP2 POP POP JUMP JUMPDEST DUP3 DUP2 DUP4 MCOPY PUSH0 DUP4 DUP4 ADD MSTORE POP POP POP JUMP JUMPDEST PUSH0 PUSH1 0x1F NOT PUSH1 0x1F DUP4 ADD AND SWAP1 POP SWAP2 SWAP1 POP JUMP JUMPDEST PUSH0 PUSH2 0xE80 DUP3 PUSH2 0xE3E JUMP JUMPDEST PUSH2 0xE8A DUP2 DUP6 PUSH2 0xE48 JUMP JUMPDEST SWAP4 POP PUSH2 0xE9A DUP2 DUP6 PUSH1 0x20 DUP7 ADD PUSH2 0xE58 JUMP JUMPDEST PUSH2 0xEA3 DUP2 PUSH2 0xE66 JUMP JUMPDEST DUP5 ADD SWAP2 POP POP SWAP3 SWAP2 POP POP JUMP JUMPDEST PUSH0 PUSH1 0x20 DUP3 ADD SWAP1 POP DUP2 DUP2 SUB PUSH0 DUP4 ADD MSTORE PUSH2 0xEC6 DUP2 DUP5 PUSH2 0xE76 JUMP JUMPDEST SWAP1 POP SWAP3 SWAP2 POP POP JUMP JUMPDEST PUSH0 DUP2 SWAP1 POP SWAP2 SWAP1 POP JUMP JUMPDEST PUSH2 0xEE0 DUP2 PUSH2 0xECE JUMP JUMPDEST DUP3 MSTORE POP POP JUMP JUMPDEST PUSH0 PUSH1 0x20 DUP3 ADD SWAP1 POP PUSH2 0xEF9 PUSH0 DUP4 ADD DUP5 PUSH2 0xED7 JUMP JUMPDEST SWAP3 SWAP2 POP POP JUMP JUMPDEST PUSH0 DUP2 ISZERO ISZERO SWAP1 POP SWAP2 SWAP1 POP JUMP JUMPDEST PUSH2 0xF13 DUP2 PUSH2 0xEFF JUMP JUMPDEST DUP3 MSTORE POP POP JUMP JUMPDEST PUSH0 PUSH1 0x20 DUP3 ADD SWAP1 POP PUSH2 0xF2C PUSH0 DUP4 ADD DUP5 PUSH2 0xF0A JUMP JUMPDEST SWAP3 SWAP2 POP POP JUMP JUMPDEST PUSH2 0xF3B DUP2 PUSH2 0xDD8 JUMP JUMPDEST DUP3 MSTORE POP POP JUMP JUMPDEST PUSH0 PUSH1 0x20 DUP3 ADD SWAP1 POP PUSH2 0xF54 PUSH0 DUP4 ADD DUP5 PUSH2 0xF32 JUMP JUMPDEST SWAP3 SWAP2 POP POP JUMP JUMPDEST PUSH0 DUP1 REVERT JUMPDEST PUSH0 DUP1 REVERT JUMPDEST PUSH32 0x4E487B7100000000000000000000000000000000000000000000000000000000 PUSH0 MSTORE PUSH1 0x41 PUSH1 0x4 MSTORE PUSH1 0x24 PUSH0 REVERT JUMPDEST PUSH2 0xF98 DUP3 PUSH2 0xE66 JUMP JUMPDEST DUP2 ADD DUP2 DUP2 LT PUSH8 0xFFFFFFFFFFFFFFFF DUP3 GT OR ISZERO PUSH2 0xFB7 JUMPI PUSH2 0xFB6 PUSH2 0xF62 JUMP JUMPDEST JUMPDEST DUP1 PUSH1 0x40 MSTORE POP POP POP JUMP JUMPDEST PUSH0 PUSH2 0xFC9 PUSH2 0xDA8 JUMP JUMPDEST SWAP1 POP PUSH2 0xFD5 DUP3 DUP3 PUSH2 0xF8F JUMP JUMPDEST SWAP2 SWAP1 POP JUMP JUMPDEST PUSH0 PUSH8 0xFFFFFFFFFFFFFFFF DUP3 GT ISZERO PUSH2 0xFF4 JUMPI PUSH2 0xFF3 PUSH2 0xF62 JUMP JUMPDEST JUMPDEST PUSH2 0xFFD DUP3 PUSH2 0xE66 JUMP JUMPDEST SWAP1 POP PUSH1 0x20 DUP2 ADD SWAP1 POP SWAP2 SWAP1 POP JUMP JUMPDEST DUP3 DUP2 DUP4 CALLDATACOPY PUSH0 DUP4 DUP4 ADD MSTORE POP POP POP JUMP JUMPDEST PUSH0 PUSH2 0x102A PUSH2 0x1025 DUP5 PUSH2 0xFDA JUMP JUMPDEST PUSH2 0xFC0 JUMP JUMPDEST SWAP1 POP DUP3 DUP2 MSTORE PUSH1 0x20 DUP2 ADD DUP5 DUP5 DUP5 ADD GT ISZERO PUSH2 0x1046 JUMPI PUSH2 0x1045 PUSH2 0xF5E JUMP JUMPDEST JUMPDEST PUSH2 0x1051 DUP5 DUP3 DUP6 PUSH2 0x100A JUMP JUMPDEST POP SWAP4 SWAP3 POP POP POP JUMP JUMPDEST PUSH0 DUP3 PUSH1 0x1F DUP4 ADD SLT PUSH2 0x106D JUMPI PUSH2 0x106C PUSH2 0xF5A JUMP JUMPDEST JUMPDEST DUP2 CALLDATALOAD PUSH2 0x107D DUP5 DUP3 PUSH1 0x20 DUP7 ADD PUSH2 0x1018 JUMP JUMPDEST SWAP2 POP POP SWAP3 SWAP2 POP POP JUMP JUMPDEST PUSH0 PUSH1 0x20 DUP3 DUP5 SUB SLT ISZERO PUSH2 0x109B JUMPI PUSH2 0x109A PUSH2 0xDB1 JUMP JUMPDEST JUMPDEST PUSH0 DUP3 ADD CALLDATALOAD PUSH8 0xFFFFFFFFFFFFFFFF DUP2 GT ISZERO PUSH2 0x10B8 JUMPI PUSH2 0x10B7 PUSH2 0xDB5 JUMP JUMPDEST JUMPDEST PUSH2 0x10C4 DUP5 DUP3 DUP6 ADD PUSH2 0x1059 JUMP JUMPDEST SWAP2 POP POP SWAP3 SWAP2 POP POP JUMP JUMPDEST PUSH32 0x4E6F7420746865205F6F776E6572000000000000000000000000000000000000 PUSH0 DUP3 ADD MSTORE POP JUMP JUMPDEST PUSH0 PUSH2 0x1101 PUSH1 0xE DUP4 PUSH2 0xE48 JUMP JUMPDEST SWAP2 POP PUSH2 0x110C DUP3 PUSH2 0x10CD JUMP JUMPDEST PUSH1 0x20 DUP3 ADD SWAP1 POP SWAP2 SWAP1 POP JUMP JUMPDEST PUSH0 PUSH1 0x20 DUP3 ADD SWAP1 POP DUP2 DUP2 SUB PUSH0 DUP4 ADD MSTORE PUSH2 0x112E DUP2 PUSH2 0x10F5 JUMP JUMPDEST SWAP1 POP SWAP2 SWAP1 POP JUMP JUMPDEST PUSH32 0x4E487B7100000000000000000000000000000000000000000000000000000000 PUSH0 MSTORE PUSH1 0x22 PUSH1 0x4 MSTORE PUSH1 0x24 PUSH0 REVERT JUMPDEST PUSH0 PUSH1 0x2 DUP3 DIV SWAP1 POP PUSH1 0x1 DUP3 AND DUP1 PUSH2 0x1179 JUMPI PUSH1 0x7F DUP3 AND SWAP2 POP JUMPDEST PUSH1 0x20 DUP3 LT DUP2 SUB PUSH2 0x118C JUMPI PUSH2 0x118B PUSH2 0x1135 JUMP JUMPDEST JUMPDEST POP SWAP2 SWAP1 POP JUMP JUMPDEST PUSH32 0x4E6F7420617574686F72697A6564000000000000000000000000000000000000 PUSH0 DUP3 ADD MSTORE POP JUMP JUMPDEST PUSH0 PUSH2 0x11C6 PUSH1 0xE DUP4 PUSH2 0xE48 JUMP JUMPDEST SWAP2 POP PUSH2 0x11D1 DUP3 PUSH2 0x1192 JUMP JUMPDEST PUSH1 0x20 DUP3 ADD SWAP1 POP SWAP2 SWAP1 POP JUMP JUMPDEST PUSH0 PUSH1 0x20 DUP3 ADD SWAP1 POP DUP2 DUP2 SUB PUSH0 DUP4 ADD MSTORE PUSH2 0x11F3 DUP2 PUSH2 0x11BA JUMP JUMPDEST SWAP1 POP SWAP2 SWAP1 POP JUMP JUMPDEST PUSH0 DUP2 SWAP1 POP DUP2 PUSH0 MSTORE PUSH1 0x20 PUSH0 KECCAK256 SWAP1 POP SWAP2 SWAP1 POP JUMP JUMPDEST PUSH0 PUSH1 0x20 PUSH1 0x1F DUP4 ADD DIV SWAP1 POP SWAP2 SWAP1 POP JUMP JUMPDEST PUSH0 DUP3 DUP3 SHL SWAP1 POP SWAP3 SWAP2 POP POP JUMP JUMPDEST PUSH0 PUSH1 0x8 DUP4 MUL PUSH2 0x1256 PUSH32 0xFFFFFFFFFFFFFFFFFFFFFFFFFFFFFFFFFFFFFFFFFFFFFFFFFFFFFFFFFFFFFFFF DUP3 PUSH2 0x121B JUMP JUMPDEST PUSH2 0x1260 DUP7 DUP4 PUSH2 0x121B JUMP JUMPDEST SWAP6 POP DUP1 NOT DUP5 AND SWAP4 POP DUP1 DUP7 AND DUP5 OR SWAP3 POP POP POP SWAP4 SWAP3 POP POP POP JUMP JUMPDEST PUSH0 DUP2 SWAP1 POP SWAP2 SWAP1 POP JUMP JUMPDEST PUSH0 PUSH2 0x129B PUSH2 0x1296 PUSH2 0x1291 DUP5 PUSH2 0xECE JUMP JUMPDEST PUSH2 0x1278 JUMP JUMPDEST PUSH2 0xECE JUMP JUMPDEST SWAP1 POP SWAP2 SWAP1 POP JUMP JUMPDEST PUSH0 DUP2 SWAP1 POP SWAP2 SWAP1 POP JUMP JUMPDEST PUSH2 0x12B4 DUP4 PUSH2 0x1281 JUMP JUMPDEST PUSH2 0x12C8 PUSH2 0x12C0 DUP3 PUSH2 0x12A2 JUMP JUMPDEST DUP5 DUP5 SLOAD PUSH2 0x1227 JUMP JUMPDEST DUP3 SSTORE POP POP POP POP JUMP JUMPDEST PUSH0 SWAP1 JUMP JUMPDEST PUSH2 0x12DC PUSH2 0x12D0 JUMP JUMPDEST PUSH2 0x12E7 DUP2 DUP5 DUP5 PUSH2 0x12AB JUMP JUMPDEST POP POP POP JUMP JUMPDEST JUMPDEST DUP2 DUP2 LT ISZERO PUSH2 0x130A JUMPI PUSH2 0x12FF PUSH0 DUP3 PUSH2 0x12D4 JUMP JUMPDEST PUSH1 0x1 DUP2 ADD SWAP1 POP PUSH2 0x12ED JUMP JUMPDEST POP POP JUMP JUMPDEST PUSH1 0x1F DUP3 GT ISZERO PUSH2 0x134F JUMPI PUSH2 0x1320 DUP2 PUSH2 0x11FA JUMP JUMPDEST PUSH2 0x1329 DUP5 PUSH2 0x120C JUMP JUMPDEST DUP2 ADD PUSH1 0x20 DUP6 LT ISZERO PUSH2 0x1338 JUMPI DUP2 SWAP1 POP JUMPDEST PUSH2 0x134C PUSH2 0x1344 DUP6 PUSH2 0x120C JUMP JUMPDEST DUP4 ADD DUP3 PUSH2 0x12EC JUMP JUMPDEST POP POP JUMPDEST POP POP POP JUMP JUMPDEST PUSH0 DUP3 DUP3 SHR SWAP1 POP SWAP3 SWAP2 POP POP JUMP JUMPDEST PUSH0 PUSH2 0x136F PUSH0 NOT DUP5 PUSH1 0x8 MUL PUSH2 0x1354 JUMP JUMPDEST NOT DUP1 DUP4 AND SWAP2 POP POP SWAP3 SWAP2 POP POP JUMP JUMPDEST PUSH0 PUSH2 0x1387 DUP4 DUP4 PUSH2 0x1360 JUMP JUMPDEST SWAP2 POP DUP3 PUSH1 0x2 MUL DUP3 OR SWAP1 POP SWAP3 SWAP2 POP POP JUMP JUMPDEST PUSH2 0x13A0 DUP3 PUSH2 0xE3E JUMP JUMPDEST PUSH8 0xFFFFFFFFFFFFFFFF DUP2 GT ISZERO PUSH2 0x13B9 JUMPI PUSH2 0x13B8 PUSH2 0xF62 JUMP JUMPDEST JUMPDEST PUSH2 0x13C3 DUP3 SLOAD PUSH2 0x1162 JUMP JUMPDEST PUSH2 0x13CE DUP3 DUP3 DUP6 PUSH2 0x130E JUMP JUMPDEST PUSH0 PUSH1 0x20 SWAP1 POP PUSH1 0x1F DUP4 GT PUSH1 0x1 DUP2 EQ PUSH2 0x13FF JUMPI PUSH0 DUP5 ISZERO PUSH2 0x13ED JUMPI DUP3 DUP8 ADD MLOAD SWAP1 POP JUMPDEST PUSH2 0x13F7 DUP6 DUP3 PUSH2 0x137C JUMP JUMPDEST DUP7 SSTORE POP PUSH2 0x145E JUMP JUMPDEST PUSH1 0x1F NOT DUP5 AND PUSH2 0x140D DUP7 PUSH2 0x11FA JUMP JUMPDEST PUSH0 JUMPDEST DUP3 DUP2 LT ISZERO PUSH2 0x1434 JUMPI DUP5 DUP10 ADD MLOAD DUP3 SSTORE PUSH1 0x1 DUP3 ADD SWAP2 POP PUSH1 0x20 DUP6 ADD SWAP5 POP PUSH1 0x20 DUP2 ADD SWAP1 POP PUSH2 0x140F JUMP JUMPDEST DUP7 DUP4 LT ISZERO PUSH2 0x1451 JUMPI DUP5 DUP10 ADD MLOAD PUSH2 0x144D PUSH1 0x1F DUP10 AND DUP3 PUSH2 0x1360 JUMP JUMPDEST DUP4 SSTORE POP JUMPDEST PUSH1 0x1 PUSH1 0x2 DUP9 MUL ADD DUP9 SSTORE POP POP POP JUMPDEST POP POP POP POP POP POP JUMP JUMPDEST PUSH0 DUP2 MLOAD SWAP1 POP PUSH2 0x1474 DUP2 PUSH2 0xDE9 JUMP JUMPDEST SWAP3 SWAP2 POP POP JUMP JUMPDEST PUSH0 PUSH1 0x20 DUP3 DUP5 SUB SLT ISZERO PUSH2 0x148F JUMPI PUSH2 0x148E PUSH2 0xDB1 JUMP JUMPDEST JUMPDEST PUSH0 PUSH2 0x149C DUP5 DUP3 DUP6 ADD PUSH2 0x1466 JUMP JUMPDEST SWAP2 POP POP SWAP3 SWAP2 POP POP JUMP JUMPDEST PUSH32 0x596F75206D757374206F776E20746865206D6F6F6F6E00000000000000000000 PUSH0 DUP3 ADD MSTORE POP JUMP JUMPDEST PUSH0 PUSH2 0x14D9 PUSH1 0x16 DUP4 PUSH2 0xE48 JUMP JUMPDEST SWAP2 POP PUSH2 0x14E4 DUP3 PUSH2 0x14A5 JUMP JUMPDEST PUSH1 0x20 DUP3 ADD SWAP1 POP SWAP2 SWAP1 POP JUMP JUMPDEST PUSH0 PUSH1 0x20 DUP3 ADD SWAP1 POP DUP2 DUP2 SUB PUSH0 DUP4 ADD MSTORE PUSH2 0x1506 DUP2 PUSH2 0x14CD JUMP JUMPDEST SWAP1 POP SWAP2 SWAP1 POP JUMP JUMPDEST PUSH0 DUP2 SWAP1 POP SWAP3 SWAP2 POP POP JUMP JUMPDEST PUSH0 DUP2 SLOAD PUSH2 0x1523 DUP2 PUSH2 0x1162 JUMP JUMPDEST PUSH2 0x152D DUP2 DUP7 PUSH2 0x150D JUMP JUMPDEST SWAP5 POP PUSH1 0x1 DUP3 AND PUSH0 DUP2 EQ PUSH2 0x1547 JUMPI PUSH1 0x1 DUP2 EQ PUSH2 0x155C JUMPI PUSH2 0x158E JUMP JUMPDEST PUSH1 0xFF NOT DUP4 AND DUP7 MSTORE DUP2 ISZERO ISZERO DUP3 MUL DUP7 ADD SWAP4 POP PUSH2 0x158E JUMP JUMPDEST PUSH2 0x1565 DUP6 PUSH2 0x11FA JUMP JUMPDEST PUSH0 JUMPDEST DUP4 DUP2 LT ISZERO PUSH2 0x1586 JUMPI DUP2 SLOAD DUP2 DUP10 ADD MSTORE PUSH1 0x1 DUP3 ADD SWAP2 POP PUSH1 0x20 DUP2 ADD SWAP1 POP PUSH2 0x1567 JUMP JUMPDEST DUP4 DUP9 ADD SWAP6 POP POP POP JUMPDEST POP POP POP SWAP3 SWAP2 POP POP JUMP JUMPDEST PUSH0 PUSH2 0x15A1 DUP3 PUSH2 0xE3E JUMP JUMPDEST PUSH2 0x15AB DUP2 DUP6 PUSH2 0x150D JUMP JUMPDEST SWAP4 POP PUSH2 0x15BB DUP2 DUP6 PUSH1 0x20 DUP7 ADD PUSH2 0xE58 JUMP JUMPDEST DUP1 DUP5 ADD SWAP2 POP POP SWAP3 SWAP2 POP POP JUMP JUMPDEST PUSH0 PUSH2 0x15D2 DUP3 DUP6 PUSH2 0x1517 JUMP JUMPDEST SWAP2 POP PUSH2 0x15DE DUP3 DUP5 PUSH2 0x1597 JUMP JUMPDEST SWAP2 POP DUP2 SWAP1 POP SWAP4 SWAP3 POP POP POP JUMP INVALID LOG2 PUSH5 0x6970667358 0x22 SLT KECCAK256 MUL 0x4C JUMP PUSH11 0xFAA8805E0F478226146CC8 0xF8 PUSH26 0x8F1091A0AD0F0B39A941245D4098BF64736F6C634300081A0033 "
				},
				"gasEstimates": {
					"creation": {
						"codeDepositCost": "1132800",
						"executionCost": "infinite",
						"totalCost": "infinite"
					},
					"external": {
						"_creator()": "2531",
						"_darkImageDataUri()": "infinite",
						"_lightImageDataUri()": "infinite",
						"_owner()": "2594",
						"_tokenId()": "2493",
						"accessList(address)": "2900",
						"addDarkImageChunk(string)": "infinite",
						"addLightImageChunk(string)": "infinite",
						"deleteDarkImage()": "infinite",
						"deleteLightImage()": "infinite",
						"flip()": "infinite",
						"getDarkImage()": "infinite",
						"getImage()": "infinite",
						"getLightImage()": "infinite",
						"grantAccess(address)": "26993",
						"revokeAccess(address)": "27013"
					}
				},
				"methodIdentifiers": {
					"_creator()": "bc8bde64",
					"_darkImageDataUri()": "c2c428fd",
					"_lightImageDataUri()": "2b61f40d",
					"_owner()": "b2bdfa7b",
					"_tokenId()": "24822514",
					"accessList(address)": "87a5b67c",
					"addDarkImageChunk(string)": "da828593",
					"addLightImageChunk(string)": "d4613258",
					"deleteDarkImage()": "55e19623",
					"deleteLightImage()": "c6ff3474",
					"flip()": "cde4efa9",
					"getDarkImage()": "f86957c4",
					"getImage()": "f3651cbb",
					"getLightImage()": "0e15572d",
					"grantAccess(address)": "0ae5e739",
					"revokeAccess(address)": "85e68531"
				}
			},
			"storageLayout": {
				"storage": [
					{
						"astId": 3,
						"contract": "MoonEngine.sol:MoonEngine",
						"label": "_owner",
						"offset": 0,
						"slot": "0",
						"type": "t_address"
					},
					{
						"astId": 5,
						"contract": "MoonEngine.sol:MoonEngine",
						"label": "_lightImageDataUri",
						"offset": 0,
						"slot": "1",
						"type": "t_string_storage"
					},
					{
						"astId": 7,
						"contract": "MoonEngine.sol:MoonEngine",
						"label": "_darkImageDataUri",
						"offset": 0,
						"slot": "2",
						"type": "t_string_storage"
					},
					{
						"astId": 9,
						"contract": "MoonEngine.sol:MoonEngine",
						"label": "_tokenId",
						"offset": 0,
						"slot": "3",
						"type": "t_uint256"
					},
					{
						"astId": 11,
						"contract": "MoonEngine.sol:MoonEngine",
						"label": "_creator",
						"offset": 0,
						"slot": "4",
						"type": "t_address"
					},
					{
						"astId": 14,
						"contract": "MoonEngine.sol:MoonEngine",
						"label": "_flip",
						"offset": 20,
						"slot": "4",
						"type": "t_bool"
					},
					{
						"astId": 18,
						"contract": "MoonEngine.sol:MoonEngine",
						"label": "accessList",
						"offset": 0,
						"slot": "5",
						"type": "t_mapping(t_address,t_bool)"
					}
				],
				"types": {
					"t_address": {
						"encoding": "inplace",
						"label": "address",
						"numberOfBytes": "20"
					},
					"t_bool": {
						"encoding": "inplace",
						"label": "bool",
						"numberOfBytes": "1"
					},
					"t_mapping(t_address,t_bool)": {
						"encoding": "mapping",
						"key": "t_address",
						"label": "mapping(address => bool)",
						"numberOfBytes": "32",
						"value": "t_bool"
					},
					"t_string_storage": {
						"encoding": "bytes",
						"label": "string",
						"numberOfBytes": "32"
					},
					"t_uint256": {
						"encoding": "inplace",
						"label": "uint256",
						"numberOfBytes": "32"
					}
				}
			},
			"userdoc": {
				"kind": "user",
				"methods": {},
				"version": 1
			}
		}
	}
}