{"abi":[{"type":"constructor","inputs":[{"name":"_creator","type":"address","internalType":"address"},{"name":"_name","type":"string","internalType":"string"},{"name":"_description","type":"string","internalType":"string"},{"name":"PatinaEngine_1Addr","type":"address","internalType":"address"}],"stateMutability":"nonpayable"},{"type":"function","name":"addPreviewImageDataChunk","inputs":[{"name":"chunkData","type":"string","internalType":"string"}],"outputs":[],"stateMutability":"nonpayable"},{"type":"function","name":"animToURI","inputs":[{"name":"anim","type":"string","internalType":"string"}],"outputs":[{"name":"","type":"string","internalType":"string"}],"stateMutability":"pure"},{"type":"function","name":"approveAdmin","inputs":[{"name":"admin","type":"address","internalType":"address"}],"outputs":[],"stateMutability":"nonpayable"},{"type":"function","name":"bytes32ToHex","inputs":[{"name":"_bytes32","type":"bytes32","internalType":"bytes32"}],"outputs":[{"name":"","type":"string","internalType":"string"}],"stateMutability":"pure"},{"type":"function","name":"char","inputs":[{"name":"_byte","type":"bytes1","internalType":"bytes1"}],"outputs":[{"name":"","type":"bytes1","internalType":"bytes1"}],"stateMutability":"pure"},{"type":"function","name":"creator","inputs":[],"outputs":[{"name":"","type":"address","internalType":"address"}],"stateMutability":"view"},{"type":"function","name":"deletePreviewImageDataChunk","inputs":[],"outputs":[],"stateMutability":"nonpayable"},{"type":"function","name":"description","inputs":[],"outputs":[{"name":"","type":"string","internalType":"string"}],"stateMutability":"view"},{"type":"function","name":"formatTokenURI","inputs":[{"name":"tokenId","type":"uint256","internalType":"uint256"}],"outputs":[{"name":"","type":"string","internalType":"string"}],"stateMutability":"view"},{"type":"function","name":"getAdmins","inputs":[],"outputs":[{"name":"admins","type":"address[]","internalType":"address[]"}],"stateMutability":"view"},{"type":"function","name":"getMaxSupply","inputs":[],"outputs":[{"name":"","type":"uint256","internalType":"uint256"}],"stateMutability":"pure"},{"type":"function","name":"getTotalSupply","inputs":[],"outputs":[{"name":"","type":"uint256","internalType":"uint256"}],"stateMutability":"view"},{"type":"function","name":"grantAccess","inputs":[{"name":"addr","type":"address","internalType":"address"}],"outputs":[],"stateMutability":"nonpayable"},{"type":"function","name":"hasAccess","inputs":[{"name":"account","type":"address","internalType":"address"}],"outputs":[{"name":"","type":"bool","internalType":"bool"}],"stateMutability":"view"},{"type":"function","name":"heights","inputs":[{"name":"","type":"uint256","internalType":"uint256"}],"outputs":[{"name":"","type":"uint256","internalType":"uint256"}],"stateMutability":"view"},{"type":"function","name":"isAdmin","inputs":[{"name":"admin","type":"address","internalType":"address"}],"outputs":[{"name":"","type":"bool","internalType":"bool"}],"stateMutability":"view"},{"type":"function","name":"isOwner","inputs":[],"outputs":[{"name":"","type":"bool","internalType":"bool"}],"stateMutability":"view"},{"type":"function","name":"maxSupply","inputs":[],"outputs":[{"name":"","type":"uint256","internalType":"uint256"}],"stateMutability":"view"},{"type":"function","name":"mint","inputs":[{"name":"recipient","type":"address","internalType":"address"}],"outputs":[],"stateMutability":"payable"},{"type":"function","name":"name","inputs":[],"outputs":[{"name":"","type":"string","internalType":"string"}],"stateMutability":"view"},{"type":"function","name":"owner","inputs":[],"outputs":[{"name":"","type":"address","internalType":"address"}],"stateMutability":"view"},{"type":"function","name":"previewImageDataUri","inputs":[],"outputs":[{"name":"","type":"string","internalType":"string"}],"stateMutability":"view"},{"type":"function","name":"renounceOwnership","inputs":[],"outputs":[],"stateMutability":"nonpayable"},{"type":"function","name":"revokeAccess","inputs":[{"name":"addr","type":"address","internalType":"address"}],"outputs":[],"stateMutability":"nonpayable"},{"type":"function","name":"revokeAdmin","inputs":[{"name":"admin","type":"address","internalType":"address"}],"outputs":[],"stateMutability":"nonpayable"},{"type":"function","name":"setAspectRatio","inputs":[{"name":"tokenId","type":"uint256","internalType":"uint256"},{"name":"width","type":"uint256","internalType":"uint256"},{"name":"height","type":"uint256","internalType":"uint256"}],"outputs":[],"stateMutability":"nonpayable"},{"type":"function","name":"setDescription","inputs":[{"name":"_description","type":"string","internalType":"string"}],"outputs":[],"stateMutability":"nonpayable"},{"type":"function","name":"setDisplayOption","inputs":[{"name":"tokenId","type":"uint256","internalType":"uint256"},{"name":"shouldShowPreviewImage","type":"bool","internalType":"bool"}],"outputs":[],"stateMutability":"nonpayable"},{"type":"function","name":"setName","inputs":[{"name":"_name","type":"string","internalType":"string"}],"outputs":[],"stateMutability":"nonpayable"},{"type":"function","name":"setPatinaEngine_1","inputs":[{"name":"addr","type":"address","internalType":"address"}],"outputs":[],"stateMutability":"nonpayable"},{"type":"function","name":"showPreviewImage","inputs":[{"name":"","type":"uint256","internalType":"uint256"}],"outputs":[{"name":"","type":"bool","internalType":"bool"}],"stateMutability":"view"},{"type":"function","name":"supportsInterface","inputs":[{"name":"interfaceId","type":"bytes4","internalType":"bytes4"}],"outputs":[{"name":"","type":"bool","internalType":"bool"}],"stateMutability":"view"},{"type":"function","name":"tokenHashes","inputs":[{"name":"","type":"uint256","internalType":"uint256"}],"outputs":[{"name":"","type":"bytes32","internalType":"bytes32"}],"stateMutability":"view"},{"type":"function","name":"tokenURI","inputs":[{"name":"_creator","type":"address","internalType":"address"},{"name":"tokenId","type":"uint256","internalType":"uint256"}],"outputs":[{"name":"","type":"string","internalType":"string"}],"stateMutability":"view"},{"type":"function","name":"totalSupply","inputs":[],"outputs":[{"name":"","type":"uint256","internalType":"uint256"}],"stateMutability":"view"},{"type":"function","name":"transferOwnership","inputs":[{"name":"newOwner","type":"address","internalType":"address"}],"outputs":[],"stateMutability":"nonpayable"},{"type":"function","name":"uint2str","inputs":[{"name":"_i","type":"uint256","internalType":"uint256"}],"outputs":[{"name":"_uintAsString","type":"string","internalType":"string"}],"stateMutability":"pure"},{"type":"function","name":"widths","inputs":[{"name":"","type":"uint256","internalType":"uint256"}],"outputs":[{"name":"","type":"uint256","internalType":"uint256"}],"stateMutability":"view"},{"type":"function","name":"withdrawAll","inputs":[],"outputs":[],"stateMutability":"nonpayable"},{"type":"event","name":"AdminApproved","inputs":[{"name":"account","type":"address","indexed":true,"internalType":"address"},{"name":"sender","type":"address","indexed":true,"internalType":"address"}],"anonymous":false},{"type":"event","name":"AdminRevoked","inputs":[{"name":"account","type":"address","indexed":true,"internalType":"address"},{"name":"sender","type":"address","indexed":true,"internalType":"address"}],"anonymous":false},{"type":"event","name":"OwnershipTransferred","inputs":[{"name":"previousOwner","type":"address","indexed":true,"internalType":"address"},{"name":"newOwner","type":"address","indexed":true,"internalType":"address"}],"anonymous":false}],"bytecode":{"object":"0x6080604052346103b457600061261b8038038061001b816103b9565b9283398101916080828403126103b157610034826103de565b60208301516001600160401b0381116103af57846100539185016103f2565b60408401519094906001600160401b0381116103ab5761007a6100819260609287016103f2565b94016103de565b8254336001600160a01b0319821681178555919391906001600160a01b03167f8be0079c531659141344cd1fd0a4f28419497f9722a3daafe3b4186f6b6457e08380a3600380546001600160a01b031916331790556101906007556008819055600f546100ed9061045d565b601f811161037f575b5080600f5561010660105461045d565b601f8111610341575b5060108190558451906001600160401b03821161032d5750602094601f82116001146102c6579481929394956000926102bb575b50508160011b916000199060031b1c1916176010555b82516001600160401b0381116102a557610174600f5461045d565b601f811161025d575b506020601f82116001146101f657819293946000926101eb575b50508160011b916000199060031b1c191617600f555b600680546001600160a01b039283166001600160a01b0319918216179091556005805493909216921691909117905560405161214c90816104af8239f35b015190503880610197565b601f19821690600f600052806000209160005b8181106102455750958360019596971061022c575b505050811b01600f556101ad565b015160001960f88460031b161c1916905538808061021e565b9192602060018192868b015181550194019201610209565b600f600052610295906000805160206125fb833981519152601f840160051c8101916020851061029b575b601f0160051c0190610497565b3861017d565b9091508190610288565b634e487b7160e01b600052604160045260246000fd5b015190503880610143565b601f198216956010600052806000209160005b888110610315575083600195969798106102fc575b505050811b01601055610159565b015160001960f88460031b161c191690553880806102ee565b919260206001819286850151815501940192016102d9565b634e487b7160e01b81526041600452602490fd5b6010825261037990601f0160051c7f1b6847dc741a1b0cd08d278845f9d819d87b734759afb55fe2de5cb82a9ae67290810190610497565b3861010f565b600f82526103a590601f0160051c6000805160206125fb83398151915290810190610497565b386100f6565b8380fd5b825b80fd5b600080fd5b6040519190601f01601f191682016001600160401b038111838210176102a557604052565b51906001600160a01b03821682036103b457565b81601f820112156103b4578051906001600160401b0382116102a557610421601f8301601f19166020016103b9565b92828452602083830101116103b45760005b82811061044857505060206000918301015290565b80602080928401015182828701015201610433565b90600182811c9216801561048d575b602083101461047757565b634e487b7160e01b600052602260045260246000fd5b91607f169161046c565b8181106104a2575050565b6000815560010161049756fe608080604052600436101561001357600080fd5b60003560e01c90816301ffc9a71461155e5750806302d05d3f14611535578063045484681461149f57806306fdde03146114095780630ae5e739146113b757806318160ddd1461033e578063231ab1d41461126f57806324d7806c146112115780632d345670146111a257806331ae450b146110915780633df18e0a14610f6457806343ca734414610e645780634c0f38c214610e485780635413b00b14610cc35780635721421d14610ca45780635fef650c14610c1457806369f9ad2f14610bd15780636a62784214610a4e5780636d73e669146109dc578063715018a6146109835780637284e416146108c55780637432a38414610899578063853828b61461083057806385e68531146107e15780638da5cb5b146107b85780638f32d59b1461078e57806390c3f38f1461063d57806395a078e8146105fe578063a7a3b0ca146105d2578063ad9e0fdd146105a6578063b47d17c414610534578063c038fe04146104ce578063c47f00271461035c578063c4e41b221461033e578063d5abeb0114610320578063e9dc6375146102f8578063f2fde38b14610231578063f76f950e146102025763f9165c26146101cc57600080fd5b346101fd5760203660031901126101fd57600435600052600b602052602060ff604060002054166040519015158152f35b600080fd5b346101fd5760203660031901126101fd5761022d610221600435611c9f565b60405191829182611694565b0390f35b346101fd5760203660031901126101fd5761024a6116c0565b610252611d7a565b6001600160a01b031680156102a457600080546001600160a01b03198116831782556001600160a01b0316907f8be0079c531659141344cd1fd0a4f28419497f9722a3daafe3b4186f6b6457e09080a3005b60405162461bcd60e51b815260206004820152602660248201527f4f776e61626c653a206e6577206f776e657220697320746865207a65726f206160448201526564647265737360d01b6064820152608490fd5b346101fd5760403660031901126101fd576103116116c0565b5061022d61022160243561193d565b346101fd5760003660031901126101fd576020600754604051908152f35b346101fd5760003660031901126101fd576020600854604051908152f35b346101fd5761036a366116f2565b6003546001600160a01b0316331480156104b5575b6103889061182d565b805167ffffffffffffffff811161049f576103a4601054611615565b601f8111610457575b50602091601f82116001146103eb579181926000926103e0575b5050600019600383901b1c191660019190911b17601055005b0151905082806103c7565b601f1982169260106000526000805160206120d78339815191529160005b85811061043f57508360019510610426575b505050811b01601055005b015160001960f88460031b161c1916905582808061041b565b91926020600181928685015181550194019201610409565b601060005261048f906000805160206120d7833981519152601f840160051c81019160208510610495575b601f0160051c01906118e1565b826103ad565b9091508190610482565b634e487b7160e01b600052604160045260246000fd5b503360009081526004602052604090205460ff1661037f565b346101fd5761022d6104e76104e2366116f2565b611dd2565b610221603660405180937519185d184e9d195e1d0bda1d1b5b0ed8985cd94d8d0b60521b60208301526105238151809260208686019101611671565b81010301601f19810183528261164f565b346101fd5760203660031901126101fd5761054d6116c0565b6003546001600160a01b03163314801561058d575b61056b9061182d565b600580546001600160a01b0319166001600160a01b0392909216919091179055005b503360009081526004602052604090205460ff16610562565b346101fd5760203660031901126101fd57600435600052600c6020526020604060002054604051908152f35b346101fd5760203660031901126101fd57600435600052600d6020526020604060002054604051908152f35b346101fd5760203660031901126101fd576001600160a01b0361061f6116c0565b166000526004602052602060ff604060002054166040519015158152f35b346101fd5761064b366116f2565b6003546001600160a01b031633148015610775575b6106699061182d565b805167ffffffffffffffff811161049f57610685600f54611615565b601f8111610738575b50602091601f82116001146106cc579181926000926106c1575b5050600019600383901b1c191660019190911b17600f55005b0151905082806106a8565b601f19821692600f6000526000805160206120f78339815191529160005b85811061072057508360019510610707575b505050811b01600f55005b015160001960f88460031b161c191690558280806106fc565b919260206001819286850151815501940192016106ea565b600f60005261076f906000805160206120f7833981519152601f840160051c8101916020851061049557601f0160051c01906118e1565b8261068e565b503360009081526004602052604090205460ff16610660565b346101fd5760003660031901126101fd57602060018060a01b036003541633146040519015158152f35b346101fd5760003660031901126101fd576000546040516001600160a01b039091168152602090f35b346101fd5760203660031901126101fd576107fa6116c0565b61080f60018060a01b0360035416331461175b565b6001600160a01b03166000908152600460205260409020805460ff19169055005b346101fd5760003660031901126101fd576003546001600160a01b031633148015610880575b61085f9061182d565b600080808047818115610877575b3390f1156101fd57005b506108fc61086d565b503360009081526004602052604090205460ff16610856565b346101fd5760203660031901126101fd57600435600052600a6020526020604060002054604051908152f35b346101fd5760003660031901126101fd57604051600f54600090816108e982611615565b808552916001811690811561095c5750600114610911575b61022d846102218186038261164f565b600f81526000805160206120f7833981519152939250905b8082106109425750909150810160200161022182610901565b919260018160209254838588010152019101909291610929565b60ff191660208087019190915292151560051b850190920192506102219150839050610901565b346101fd5760003660031901126101fd5761099c611d7a565b600080546001600160a01b0319811682556001600160a01b03167f8be0079c531659141344cd1fd0a4f28419497f9722a3daafe3b4186f6b6457e08280a3005b346101fd5760203660031901126101fd576109f56116c0565b6109fd611d7a565b6001600160a01b031660008181526002602052604090205415610a1c57005b610a4c9033817f7e1a1a08d52e4ba0e21554733d66165fd5151f99460116223d9e3a608eec5cb1600080a3612056565b005b60203660031901126101fd57610a626116c0565b6003546001600160a01b031633148015610bb8575b610a809061182d565b6008546001811015610b7d57600091602091604051838101904282524460408201523360601b60608201523060601b607482015282608882015260888152610ac960a88261164f565b519020908452600a835260408420556008548352600d8252600360408420556008548352600c825260046040842055602460018060a01b0360065416916040519485938492630525194b60e31b845260018060a01b031660048401525af18015610b7157610b42575b610b3d600854611c90565b600855005b6020813d602011610b69575b81610b5b6020938361164f565b810103126101fd5751610b32565b3d9150610b4e565b6040513d6000823e3d90fd5b60405162461bcd60e51b8152602060048201526013602482015272139bc81b5bdc99481d1bdad95b9cc81b19599d606a1b6044820152606490fd5b503360009081526004602052604090205460ff16610a77565b346101fd5760203660031901126101fd576004356001600160f81b0319811681036101fd57610c01602091611c3e565b6040516001600160f81b03199091168152f35b346101fd5760003660031901126101fd576003546001600160a01b031633148015610c8b575b610c439061182d565b610c4e600e54611615565b601f8111610c5e575b6000600e55005b600e600052610c8590601f0160051c6000805160206120b7833981519152908101906118e1565b80610c57565b503360009081526004602052604090205460ff16610c3a565b346101fd5760203660031901126101fd5761022d61022160043561193d565b346101fd576020610d24610cd6366116f2565b6003546001600160a01b031633148015610e30575b610cf49061182d565b604051928391610d15610d0883850161186a565b9182815194859201611671565b0103601f19810183528261164f565b805167ffffffffffffffff811161049f57610d40600e54611615565b601f8111610df3575b50602091601f8211600114610d8757918192600092610d7c575b5050600019600383901b1c191660019190911b17600e55005b015190508280610d63565b601f19821692600e6000526000805160206120b78339815191529160005b858110610ddb57508360019510610dc2575b505050811b01600e55005b015160001960f88460031b161c19169055828080610db7565b91926020600181928685015181550194019201610da5565b600e600052610e2a906000805160206120b7833981519152601f840160051c8101916020851061049557601f0160051c01906118e1565b82610d49565b5033600090815260048452604090205460ff16610ceb565b346101fd5760003660031901126101fd57602060405160018152f35b346101fd5760403660031901126101fd57600435602435908115158092036101fd576003546001600160a01b031633148015610f4c575b8015610eca575b610eab906117b3565b600052600b60205260406000209060ff80198354169116179055600080f35b506006546040516331a9108f60e11b81526004810183905290602090829060249082906001600160a01b03165afa8015610b7157610eab91600091610f1d575b506001600160a01b031633149050610ea2565b610f3f915060203d602011610f45575b610f37818361164f565b810190611794565b84610f0a565b503d610f2d565b5033600052600460205260ff60406000205416610e9b565b346101fd5760203660031901126101fd57600435604051610f8660608261164f565b60408082523660208301376000915b60208310610fab576040518061022d8482611694565b82601f03601f811161106757600381901b906001600160fd1b038116036110675760ff81116110675760006001821b1561107d575081901c92610ff760f485901b600f60f81b16611c3e565b8160011b94828604600214831517156110675761102a9160001a61101b8787611806565b5360f81b600f60f81b16611c3e565b93600094600182018092116110535761104a9060019495961a9186611806565b53019190610f95565b634e487b7160e01b86526011600452602486fd5b634e487b7160e01b600052601160045260246000fd5b634e487b7160e01b81526012600452602490fd5b346101fd5760003660031901126101fd576001546110ae816117ee565b906110bc604051928361164f565b8082526110c8816117ee565b602083019190601f190136833760015460005b8281106111305783856040519182916020830190602084525180915260408301919060005b81811061110e575050500390f35b82516001600160a01b0316845285945060209384019390920191600101611100565b60008282101561118e57600190527fb10e2d527612073b26eecdfd717e6a320cf44b4afac2b0732d9fcbe2b7fa0cf681015485516001600160a01b039091169060009083101561118e5750600582901b8601602001526001016110db565b634e487b7160e01b81526032600452602490fd5b346101fd5760203660031901126101fd576111bb6116c0565b6111c3611d7a565b6001600160a01b03166000818152600260205260409020546111e157005b610a4c9033817f7c0c3c84c67c85fcac635147348bfe374c24a1a93d0366d1cfe9d8853cbf89d5600080a3611e51565b346101fd5760203660031901126101fd57602061122c6116c0565b6000546001600160a01b0391821691168114908115611251575b506040519015158152f35b61126991506000526002602052604060002054151590565b82611246565b346101fd5760603660031901126101fd57600435602435906044359160018060a01b03600354163314801561139f575b801561132d575b6112af906117b3565b80151580611324575b156112df5781600052600d602052604060002055600052600c602052604060002055600080f35b60405162461bcd60e51b815260206004820152601d60248201527f526174696f2076616c756573206d75737420626520706f7369746976650000006044820152606490fd5b508215156112b8565b506006546040516331a9108f60e11b81526004810184905290602090829060249082906001600160a01b03165afa8015610b71576112af91600091611380575b506001600160a01b0316331490506112a6565b611399915060203d602011610f4557610f37818361164f565b8561136d565b5033600052600460205260ff6040600020541661129f565b346101fd5760203660031901126101fd576113d06116c0565b6113e560018060a01b0360035416331461175b565b6001600160a01b03166000908152600460205260409020805460ff19166001179055005b346101fd5760003660031901126101fd576040516010546000908161142d82611615565b808552916001811690811561095c57506001146114545761022d846102218186038261164f565b601081526000805160206120d7833981519152939250905b8082106114855750909150810160200161022182610901565b91926001816020925483858801015201910190929161146c565b346101fd5760003660031901126101fd57604051600e54600090816114c382611615565b808552916001811690811561095c57506001146114ea5761022d846102218186038261164f565b600e81526000805160206120b7833981519152939250905b80821061151b5750909150810160200161022182610901565b919260018160209254838588010152019101909291611502565b346101fd5760003660031901126101fd576006546040516001600160a01b039091168152602090f35b346101fd5760203660031901126101fd576004359063ffffffff60e01b82168092036101fd5760209163e9dc637560e01b8114908115611604575b81156115f3575b81156115ae575b5015158152f35b637005caad60e01b8114915081156115c8575b50836115a7565b632a9f3abf60e11b8114915081156115e2575b50836115c1565b6301ffc9a760e01b149050836115db565b6354c1bcd960e01b811491506115a0565b6353efcf4f60e11b81149150611599565b90600182811c92168015611645575b602083101461162f57565b634e487b7160e01b600052602260045260246000fd5b91607f1691611624565b90601f8019910116810190811067ffffffffffffffff82111761049f57604052565b60005b8381106116845750506000910152565b8181015183820152602001611674565b604091602082526116b48151809281602086015260208686019101611671565b601f01601f1916010190565b600435906001600160a01b03821682036101fd57565b67ffffffffffffffff811161049f57601f01601f191660200190565b60206003198201126101fd5760043567ffffffffffffffff81116101fd57816023820112156101fd5780600401359061172a826116d6565b92611738604051948561164f565b828452602483830101116101fd5781600092602460209301838601378301015290565b1561176257565b60405162461bcd60e51b815260206004820152600a6024820152694e6f7420616e6472657760b01b6044820152606490fd5b908160209103126101fd57516001600160a01b03811681036101fd5790565b156117ba57565b60405162461bcd60e51b815260206004820152600c60248201526b155b985d5d1a1bdc9a5e995960a21b6044820152606490fd5b67ffffffffffffffff811161049f5760051b60200190565b908151811015611817570160200190565b634e487b7160e01b600052603260045260246000fd5b1561183457565b60405162461bcd60e51b815260206004820152600e60248201526d139bdd08185d5d1a1bdc9a5e995960921b6044820152606490fd5b600e546000929161187a82611615565b91600181169081156118cf5750600114611892575050565b600e600090815292935090916000805160206120b78339815191525b8382106118bb5750500190565b6001816020925484860152019101906118ae565b60ff1916825250811515909102019150565b8181106118ec575050565b600081556001016118e1565b81601f820112156101fd57805161190e816116d6565b9261191c604051948561164f565b818452602082840101116101fd5761193a9160208085019101611671565b90565b6005546000828152600a6020908152604080832054600d835281842054600c909352818420549151633b7d2f4960e01b81526004810187905260248101919091526044810192909252606482015291829060849082906001600160a01b03165afa908115610b7157600091611bd4575b50604051693d913730b6b2911d101160b11b602082015260105490926000916119d581611615565b9060018116908115611bb75750600114611b70575b5061202360f01b8252600282015272111610113232b9b1b934b83a34b7b7111d101160691b6022820152600f54600091611a2382611615565b9160018116908115611b4a5750600114611b02575b50506002601c84611abf9594611a66600d6104e2966c1116101134b6b0b3b2911d101160991b81520161186a565b661d1bdad95b925960ca1b8152741116101130b734b6b0ba34b7b72fbab936111d101160591b6007820152611aa48251809360208785019101611671565b0161227d60f01b838201520301601d1981018452018261164f565b61193a603d60405180937f646174613a6170706c69636174696f6e2f6a736f6e3b6261736536342c00000060208301526105238151809260208686019101611671565b600f6000908152919250906000805160206120f78339815191525b838210611b33575050016035016002601c611a38565b600181602092546035858701015201910190611b1d565b60ff1916603583810191909152831515909302909101909101915060029050601c611a38565b60106000908152919250906000805160206120d78339815191525b828210611ba05750508301602a0190386119ea565b60018160209254602a858a01015201910190611b8b565b9050602a92935060ff1916828601528015150284010190386119ea565b903d8082843e611be4818461164f565b820190604083830312611c3757825167ffffffffffffffff8111611c3a5782611c0e9185016118f8565b9260208101519167ffffffffffffffff8311611c375750611c309291016118f8565b50386119ad565b80fd5b5080fd5b600560f91b6001600160f81b031982161015611c725760f81c60300160ff81116110675760f81b6001600160f81b03191690565b60f81c60570160ff81116110675760f81b6001600160f81b03191690565b60001981146110675760010190565b8015611d5a5780816000925b611d46575080611cba836116d6565b92611cc8604051948561164f565b808452601f19611cd7826116d6565b01366020860137915b611ce957505090565b60001982019182116110675781600a820491600a8302838104600a14841517156110675781039081116110675760ff1660300160ff81116110675760f81b6001600160f81b03191660001a90611d3f9085611806565b5380611ce0565b91611d52600a91611c90565b920480611cab565b50604051611d6960408261164f565b60018152600360fc1b602082015290565b6000546001600160a01b03163303611d8e57565b606460405162461bcd60e51b815260206004820152602060248201527f4f776e61626c653a2063616c6c6572206973206e6f7420746865206f776e65726044820152fd5b60405161193a91611de460608361164f565b604082527f4142434445464748494a4b4c4d4e4f505152535455565758595a61626364656660208301527f6768696a6b6c6d6e6f707172737475767778797a303132333435363738392b2f6040830152611f39565b80548210156118175760005260206000200190600090565b6000818152600260205260409020548015611f325760001981018181116110675760015460001981019190821161106757808203611ee1575b5050506001548015611ecb5760001901611ea5816001611e39565b8154906000199060031b1b19169055600155600052600260205260006040812055600190565b634e487b7160e01b600052603160045260246000fd5b611f1a611ef2611f03936001611e39565b90549060031b1c9283926001611e39565b819391549060031b91821b91600019901b19161790565b90556000526002602052604060002055388080611e8a565b5050600090565b91909180511561203e578051600281018091116110675760039004600281901b91906001600160fe1b0381160361106757611f8c611f76836116d6565b92611f84604051948561164f565b8084526116d6565b6020830190601f1901368237908081518201956020870190815192600083525b888110611ff05750506003939495965052510680600114611fdd57600214611fd2575090565b603d90600019015390565b50603d9081600019820153600119015390565b600360049199969901986001603f8b5182828260121c16870101518453828282600c1c16870101518385015382828260061c1687010151600285015316840101516003820153019497611fac565b50905060405161204f60208261164f565b6000815290565b806000526002602052604060002054156000146120b0576001546801000000000000000081101561049f57612097611f038260018594016001556001611e39565b9055600154906000526002602052604060002055600190565b5060009056febb7b4a454dc3493923482f07822329ed19e8244eff582cc204f8554c3620c3fd1b6847dc741a1b0cd08d278845f9d819d87b734759afb55fe2de5cb82a9ae6728d1108e10bcb7c27dddfc02ed9d693a074039d026cf4ea4240b40f7d581ac802a2646970667358221220dc51c7050de17265dce58234cef7119ab7c5a1913572b4145daaddb2ec92778b64736f6c634300081c00338d1108e10bcb7c27dddfc02ed9d693a074039d026cf4ea4240b40f7d581ac802","linkReferences":{}},"methodIdentifiers":{"addPreviewImageDataChunk(string)":"5413b00b","animToURI(string)":"c038fe04","approveAdmin(address)":"6d73e669","bytes32ToHex(bytes32)":"3df18e0a","char(bytes1)":"69f9ad2f","creator()":"02d05d3f","deletePreviewImageDataChunk()":"5fef650c","description()":"7284e416","formatTokenURI(uint256)":"5721421d","getAdmins()":"31ae450b","getMaxSupply()":"4c0f38c2","getTotalSupply()":"c4e41b22","grantAccess(address)":"0ae5e739","hasAccess(address)":"95a078e8","heights(uint256)":"ad9e0fdd","isAdmin(address)":"24d7806c","isOwner()":"8f32d59b","maxSupply()":"d5abeb01","mint(address)":"6a627842","name()":"06fdde03","owner()":"8da5cb5b","previewImageDataUri()":"04548468","renounceOwnership()":"715018a6","revokeAccess(address)":"85e68531","revokeAdmin(address)":"2d345670","setAspectRatio(uint256,uint256,uint256)":"231ab1d4","setDescription(string)":"90c3f38f","setDisplayOption(uint256,bool)":"43ca7344","setName(string)":"c47f0027","setPatinaEngine_1(address)":"b47d17c4","showPreviewImage(uint256)":"f9165c26","supportsInterface(bytes4)":"01ffc9a7","tokenHashes(uint256)":"7432a384","tokenURI(address,uint256)":"e9dc6375","totalSupply()":"18160ddd","transferOwnership(address)":"f2fde38b","uint2str(uint256)":"f76f950e","widths(uint256)":"a7a3b0ca","withdrawAll()":"853828b6"},"id":38}