{"abi":[{"type":"constructor","inputs":[{"name":"_creator","type":"address","internalType":"address"},{"name":"_name","type":"string","internalType":"string"},{"name":"_description","type":"string","internalType":"string"},{"name":"popupEngineAddr","type":"address","internalType":"address"},{"name":"colorsAddr","type":"address","internalType":"address"}],"stateMutability":"nonpayable"},{"type":"function","name":"animToURI","inputs":[{"name":"anim","type":"string","internalType":"string"}],"outputs":[{"name":"","type":"string","internalType":"string"}],"stateMutability":"pure"},{"type":"function","name":"approveAdmin","inputs":[{"name":"admin","type":"address","internalType":"address"}],"outputs":[],"stateMutability":"nonpayable"},{"type":"function","name":"creator","inputs":[],"outputs":[{"name":"","type":"address","internalType":"address"}],"stateMutability":"view"},{"type":"function","name":"description","inputs":[],"outputs":[{"name":"","type":"string","internalType":"string"}],"stateMutability":"view"},{"type":"function","name":"formatTokenURI","inputs":[{"name":"tokenId","type":"uint256","internalType":"uint256"}],"outputs":[{"name":"","type":"string","internalType":"string"}],"stateMutability":"view"},{"type":"function","name":"getAdmins","inputs":[],"outputs":[{"name":"admins","type":"address[]","internalType":"address[]"}],"stateMutability":"view"},{"type":"function","name":"getMaxSupply","inputs":[],"outputs":[{"name":"","type":"uint256","internalType":"uint256"}],"stateMutability":"pure"},{"type":"function","name":"getTotalSupply","inputs":[],"outputs":[{"name":"","type":"uint256","internalType":"uint256"}],"stateMutability":"view"},{"type":"function","name":"grantAccess","inputs":[{"name":"addr","type":"address","internalType":"address"}],"outputs":[],"stateMutability":"nonpayable"},{"type":"function","name":"hasAccess","inputs":[{"name":"account","type":"address","internalType":"address"}],"outputs":[{"name":"","type":"bool","internalType":"bool"}],"stateMutability":"view"},{"type":"function","name":"isAdmin","inputs":[{"name":"admin","type":"address","internalType":"address"}],"outputs":[{"name":"","type":"bool","internalType":"bool"}],"stateMutability":"view"},{"type":"function","name":"isOwner","inputs":[],"outputs":[{"name":"","type":"bool","internalType":"bool"}],"stateMutability":"view"},{"type":"function","name":"maxSupply","inputs":[],"outputs":[{"name":"","type":"uint256","internalType":"uint256"}],"stateMutability":"view"},{"type":"function","name":"mint","inputs":[{"name":"recipient","type":"address","internalType":"address"},{"name":"colorPaletteName","type":"string","internalType":"string"}],"outputs":[],"stateMutability":"payable"},{"type":"function","name":"name","inputs":[],"outputs":[{"name":"","type":"string","internalType":"string"}],"stateMutability":"view"},{"type":"function","name":"owner","inputs":[],"outputs":[{"name":"","type":"address","internalType":"address"}],"stateMutability":"view"},{"type":"function","name":"pause","inputs":[],"outputs":[],"stateMutability":"nonpayable"},{"type":"function","name":"paused","inputs":[],"outputs":[{"name":"","type":"bool","internalType":"bool"}],"stateMutability":"view"},{"type":"function","name":"renounceOwnership","inputs":[],"outputs":[],"stateMutability":"nonpayable"},{"type":"function","name":"revokeAccess","inputs":[{"name":"addr","type":"address","internalType":"address"}],"outputs":[],"stateMutability":"nonpayable"},{"type":"function","name":"revokeAdmin","inputs":[{"name":"admin","type":"address","internalType":"address"}],"outputs":[],"stateMutability":"nonpayable"},{"type":"function","name":"setColors","inputs":[{"name":"addr","type":"address","internalType":"address"}],"outputs":[],"stateMutability":"nonpayable"},{"type":"function","name":"setDescription","inputs":[{"name":"_description","type":"string","internalType":"string"}],"outputs":[],"stateMutability":"nonpayable"},{"type":"function","name":"setName","inputs":[{"name":"_name","type":"string","internalType":"string"}],"outputs":[],"stateMutability":"nonpayable"},{"type":"function","name":"setPopupEngine","inputs":[{"name":"addr","type":"address","internalType":"address"}],"outputs":[],"stateMutability":"nonpayable"},{"type":"function","name":"supportsInterface","inputs":[{"name":"interfaceId","type":"bytes4","internalType":"bytes4"}],"outputs":[{"name":"","type":"bool","internalType":"bool"}],"stateMutability":"view"},{"type":"function","name":"svgToURI","inputs":[{"name":"svg","type":"string","internalType":"string"}],"outputs":[{"name":"","type":"string","internalType":"string"}],"stateMutability":"pure"},{"type":"function","name":"tokenHashes","inputs":[{"name":"","type":"uint256","internalType":"uint256"}],"outputs":[{"name":"","type":"bytes32","internalType":"bytes32"}],"stateMutability":"view"},{"type":"function","name":"tokenURI","inputs":[{"name":"_creator","type":"address","internalType":"address"},{"name":"tokenId","type":"uint256","internalType":"uint256"}],"outputs":[{"name":"","type":"string","internalType":"string"}],"stateMutability":"view"},{"type":"function","name":"totalSupply","inputs":[],"outputs":[{"name":"","type":"uint256","internalType":"uint256"}],"stateMutability":"view"},{"type":"function","name":"transferOwnership","inputs":[{"name":"newOwner","type":"address","internalType":"address"}],"outputs":[],"stateMutability":"nonpayable"},{"type":"function","name":"unpause","inputs":[],"outputs":[],"stateMutability":"nonpayable"},{"type":"function","name":"updateColorPaletteName","inputs":[{"name":"tokenId","type":"uint256","internalType":"uint256"},{"name":"colorPaletteName","type":"string","internalType":"string"}],"outputs":[],"stateMutability":"nonpayable"},{"type":"function","name":"withdrawAll","inputs":[],"outputs":[],"stateMutability":"nonpayable"},{"type":"event","name":"AdminApproved","inputs":[{"name":"account","type":"address","indexed":true,"internalType":"address"},{"name":"sender","type":"address","indexed":true,"internalType":"address"}],"anonymous":false},{"type":"event","name":"AdminRevoked","inputs":[{"name":"account","type":"address","indexed":true,"internalType":"address"},{"name":"sender","type":"address","indexed":true,"internalType":"address"}],"anonymous":false},{"type":"event","name":"OwnershipTransferred","inputs":[{"name":"previousOwner","type":"address","indexed":true,"internalType":"address"},{"name":"newOwner","type":"address","indexed":true,"internalType":"address"}],"anonymous":false}],"bytecode":{"object":"0x6080604052346103da5760006124c98038038061001b816103df565b92833981019060a0818303126103d65761003481610404565b60208201516001600160401b0381116103d25783610053918401610418565b604083015190936001600160401b0382116103ce57610073918401610418565b9361008c608061008560608601610404565b9401610404565b8154336001600160a01b0319821681178455919591906001600160a01b03167f8be0079c531659141344cd1fd0a4f28419497f9722a3daafe3b4186f6b6457e08480a3600380546001600160a01b0319163317905560726008556009829055600d546100f790610483565b601f81116103a2575b5081600d55610110600e54610483565b601f8111610364575b50600e829055600f805460ff191690558051916001600160401b038311610350575081906020906001601f8411146102e8576000926102dd575b50508160011b916000199060031b1c191617600e555b83516001600160401b0381116102c757610184600d54610483565b601f811161027f575b50602094601f82116001146102185794819293949560009261020d575b50508160011b916000199060031b1c191617600d555b600780546001600160a01b03199081166001600160a01b039384161790915560058054821693831693909317909255600680549092169216919091179055604051611fd490816104d58239f35b0151905038806101aa565b601f19821695600d600052806000209160005b8881106102675750836001959697981061024e575b505050811b01600d556101c0565b015160001960f88460031b161c19169055388080610240565b9192602060018192868501518155019401920161022b565b600d6000526102b7906000805160206124a9833981519152601f840160051c810191602085106102bd575b601f0160051c01906104bd565b3861018d565b90915081906102aa565b634e487b7160e01b600052604160045260246000fd5b015190503880610153565b600e60009081528281209350601f198516905b818110610338575090846001959493921061031f575b505050811b01600e55610169565b015160001960f88460031b161c19169055388080610311565b929360206001819287860151815501950193016102fb565b634e487b7160e01b81526041600452602490fd5b600e835261039c90601f0160051c7fbb7b4a454dc3493923482f07822329ed19e8244eff582cc204f8554c3620c3fd908101906104bd565b38610119565b600d83526103c890601f0160051c6000805160206124a9833981519152908101906104bd565b38610100565b8580fd5b8480fd5b8280fd5b600080fd5b6040519190601f01601f191682016001600160401b038111838210176102c757604052565b51906001600160a01b03821682036103da57565b81601f820112156103da578051906001600160401b0382116102c757610447601f8301601f19166020016103df565b92828452602083830101116103da5760005b82811061046e57505060206000918301015290565b80602080928401015182828701015201610459565b90600182811c921680156104b3575b602083101461049d57565b634e487b7160e01b600052602260045260246000fd5b91607f1691610492565b8181106104c8575050565b600081556001016104bd56fe608080604052600436101561001357600080fd5b600090813560e01c90816301ffc9a71461125a5750806302d05d3f1461123157806306fdde031461119c5780630ae5e7391461114b5780630eea09b3146110da57806318160ddd1461060d57806324d7806c1461107b5780632d3456701461100a57806331ae450b14610f0b5780633f4ba83a14610eb9578063413620d414610e7d5780634c0f38c214610e615780635134d0fd14610db75780635721421d14610d97578063585ba00814610d265780635c975abb14610d035780636d73e66914610c8d578063715018a614610c335780637284e41614610b765780637432a38414610b4c5780638456cb5914610af7578063853828b614610a9157806385e6853114610a435780638da5cb5b14610a1c5780638f32d59b146109f457806390c3f38f1461085757806395a078e814610818578063c038fe04146107dc578063c47f00271461062b578063c4e41b221461060d578063d0def521146102be578063d5abeb01146102a0578063e9dc63751461025f5763f2fde38b1461019757600080fd5b3461025c57602036600319011261025c576101b06113cc565b6101b8611b5a565b6001600160a01b031680156102085781546001600160a01b03198116821783556001600160a01b03167f8be0079c531659141344cd1fd0a4f28419497f9722a3daafe3b4186f6b6457e08380a380f35b60405162461bcd60e51b815260206004820152602660248201527f4f776e61626c653a206e6577206f776e657220697320746865207a65726f206160448201526564647265737360d01b6064820152608490fd5b80fd5b503461025c57604036600319011261025c576102796113cc565b5061029c6102886024356115a2565b6040519182916020835260208301906113a7565b0390f35b503461025c578060031936011261025c576020600854604051908152f35b50604036600319011261025c576102d36113cc565b6024356001600160401b038111610609576102f2903690600401611402565b90600954906008548210156105ce576001600160a01b0316808452600c6020526040842054909290600a11156105895760ff600f541661055057839160405160208101904282524460408201523360601b60608201523060601b60748201528260888201526088815261036660a88261134d565b519020908352600b602052604083205560018060a01b03600554169060048360018060a01b0360065416604051928380926387c79d1d60e01b82525afa908115610545578491610466575b506009546103be916114d6565b51823b1561046257610407926103f5858094604051968795869485936386c48f9d60e01b85526040600486015260448501906113a7565b838103600319016024850152906113a7565b03925af180156104575761043e575b5052600c6020526040812061042b8154611b35565b9055610438600954611b35565b60095580f35b816104489161134d565b610453578138610416565b5080fd5b6040513d84823e3d90fd5b8380fd5b91929350503d8086833e61047a818361134d565b81019060208183031261053d578051906001600160401b03821161054157019080601f8301121561053d578151916104b1836114bf565b926104bf604051948561134d565b80845260208085019160051b8301019183831161053957908160208a98979695949301915b8383106104f85750505050506103be6103b1565b90918093949596979850516001600160401b0381116105355760209161052387848094870101611560565b815201920190899796959493926104e4565b8a80fd5b8880fd5b8580fd5b8680fd5b6040513d86823e3d90fd5b60405162461bcd60e51b8152602060048201526011602482015270135a5b9d1a5b99c81a5cc81c185d5cd959607a1b6044820152606490fd5b60405162461bcd60e51b815260206004820152601c60248201527f4d6178206f6620313020746f6b656e73207065722061646472657373000000006044820152606490fd5b60405162461bcd60e51b8152602060048201526013602482015272139bc81b5bdc99481d1bdad95b9cc81b19599d606a1b6044820152606490fd5b8280fd5b503461025c578060031936011261025c576020600954604051908152f35b503461025c57602036600319011261025c576004356001600160401b0381116104535761065c903690600401611402565b9060018060a01b0360035416331480156107c6575b61067a90611482565b81516001600160401b0381116107b257610695600e54611313565b601f8111610747575b50602092601f82116001146106db579282938293926106d0575b50508160011b916000199060031b1c191617600e5580f35b0151905038806106b8565b600e8352601f19821693600080516020611f5f83398151915291845b86811061072f5750836001959610610716575b505050811b01600e5580f35b015160001960f88460031b161c1916905538808061070a565b919260206001819286850151815501940192016106f7565b600e8352601f820160051c600080516020611f5f83398151915201906020831061079c575b601f0160051c600080516020611f5f83398151915201905b818110610791575061069e565b838155600101610784565b600080516020611f5f833981519152915061076c565b634e487b7160e01b82526041600452602482fd5b503381526004602052604081205460ff16610671565b503461025c57602036600319011261025c57600435906001600160401b03821161025c5761029c6102886108133660048601611402565b611af0565b503461025c57602036600319011261025c5760209060ff906040906001600160a01b036108436113cc565b168152600484522054166040519015158152f35b503461025c57602036600319011261025c576004356001600160401b03811161045357610888903690600401611402565b9060018060a01b0360035416331480156109de575b6108a690611482565b81516001600160401b0381116107b2576108c1600d54611313565b601f8111610973575b50602092601f8211600114610907579282938293926108fc575b50508160011b916000199060031b1c191617600d5580f35b0151905038806108e4565b600d8352601f19821693600080516020611f7f83398151915291845b86811061095b5750836001959610610942575b505050811b01600d5580f35b015160001960f88460031b161c19169055388080610936565b91926020600181928685015181550194019201610923565b600d8352601f820160051c600080516020611f7f8339815191520190602083106109c8575b601f0160051c600080516020611f7f83398151915201905b8181106109bd57506108ca565b8381556001016109b0565b600080516020611f7f8339815191529150610998565b503381526004602052604081205460ff1661089d565b503461025c578060031936011261025c57602060018060a01b03600354163314604051908152f35b503461025c578060031936011261025c57546040516001600160a01b039091168152602090f35b503461025c57602036600319011261025c57610a5d6113cc565b610a7260018060a01b03600354163314611449565b6001600160a01b03168152600460205260408120805460ff1916905580f35b503461025c578060031936011261025c576003546001600160a01b031633148015610ae1575b610ac090611482565b8080808047818115610ad8575b3390f11561025c5780f35b506108fc610acd565b503381526004602052604081205460ff16610ab7565b503461025c578060031936011261025c576003546001600160a01b031633148015610b36575b610b2690611482565b600160ff19600f541617600f5580f35b503381526004602052604081205460ff16610b1d565b503461025c57602036600319011261025c5760406020916004358152600b83522054604051908152f35b503461025c578060031936011261025c576040519080600d5490610b9982611313565b8085529160018116908115610c0c5750600114610bc1575b61029c846102888186038261134d565b600d8152600080516020611f7f833981519152939250905b808210610bf25750909150810160200161028882610bb1565b919260018160209254838588010152019101909291610bd9565b60ff191660208087019190915292151560051b850190920192506102889150839050610bb1565b503461025c578060031936011261025c57610c4c611b5a565b80546001600160a01b03198116825581906001600160a01b03167f8be0079c531659141344cd1fd0a4f28419497f9722a3daafe3b4186f6b6457e08280a380f35b503461025c57602036600319011261025c57610ca76113cc565b610caf611b5a565b6001600160a01b031660008181526002602052604090205415610cd0575080f35b610cff9033817f7e1a1a08d52e4ba0e21554733d66165fd5151f99460116223d9e3a608eec5cb18580a3611efe565b5080f35b503461025c578060031936011261025c57602060ff600f54166040519015158152f35b503461025c57602036600319011261025c57610d406113cc565b6003546001600160a01b031633148015610d81575b610d5e90611482565b60018060a01b03166bffffffffffffffffffffffff60a01b600654161760065580f35b503382526004602052604082205460ff16610d55565b503461025c57602036600319011261025c5761029c6102886004356115a2565b503461025c57604036600319011261025c57806024356001600160401b038111610e5e57610de9903690600401611402565b6005546001600160a01b0316803b15610e5c57610e308392918392604051958680948193635134d0fd60e01b835260043560048401526040602484015260448301906113a7565b03925af18015610e4f57610e415780f35b610e4a9161134d565b388180f35b50604051903d90823e3d90fd5b505b50fd5b503461025c578060031936011261025c57602060405160018152f35b503461025c57602036600319011261025c57600435906001600160401b03821161025c5761029c610288610eb43660048601611402565b611500565b503461025c578060031936011261025c576003546001600160a01b031633148015610ef5575b610ee890611482565b60ff19600f5416600f5580f35b503381526004602052604081205460ff16610edf565b503461025c578060031936011261025c57600154610f28816114bf565b610f35604051918261134d565b818152610f41826114bf565b602082019290601f1901368437600154845b828110610fa85750505090604051928392602084019060208552518091526040840192915b818110610f86575050500390f35b82516001600160a01b0316845285945060209384019390920191600101610f78565b81811015610ff65760018087527fb10e2d527612073b26eecdfd717e6a320cf44b4afac2b0732d9fcbe2b7fa0cf68201549091906001600160a01b0316610fef82876114d6565b5201610f53565b634e487b7160e01b86526032600452602486fd5b503461025c57602036600319011261025c576110246113cc565b61102c611b5a565b6001600160a01b031660008181526002602052604090205461104c575080f35b610cff9033817f7c0c3c84c67c85fcac635147348bfe374c24a1a93d0366d1cfe9d8853cbf89d58580a3611cf9565b503461025c57602036600319011261025c576020906110986113cc565b90546001600160a01b03918216911681149081156110bc575b506040519015158152f35b6110d491506000526002602052604060002054151590565b386110b1565b503461025c57602036600319011261025c576110f46113cc565b6003546001600160a01b031633148015611135575b61111290611482565b60018060a01b03166bffffffffffffffffffffffff60a01b600554161760055580f35b503382526004602052604082205460ff16611109565b503461025c57602036600319011261025c576111656113cc565b61117a60018060a01b03600354163314611449565b6001600160a01b03168152600460205260408120805460ff1916600117905580f35b503461025c578060031936011261025c576040519080600e54906111bf82611313565b8085529160018116908115610c0c57506001146111e65761029c846102888186038261134d565b600e8152600080516020611f5f833981519152939250905b8082106112175750909150810160200161028882610bb1565b9192600181602092548385880101520191019092916111fe565b503461025c578060031936011261025c576007546040516001600160a01b039091168152602090f35b9050346104535760203660031901126104535760043563ffffffff60e01b8116809103610609576020925063e9dc637560e01b8114908115611302575b81156112f1575b81156112ac575b5015158152f35b637005caad60e01b8114915081156112c6575b50386112a5565b632a9f3abf60e11b8114915081156112e0575b50386112bf565b6301ffc9a760e01b149050386112d9565b6354c1bcd960e01b8114915061129e565b631d6313fd60e01b81149150611297565b90600182811c92168015611343575b602083101461132d57565b634e487b7160e01b600052602260045260246000fd5b91607f1691611322565b90601f801991011681019081106001600160401b0382111761136e57604052565b634e487b7160e01b600052604160045260246000fd5b60005b8381106113975750506000910152565b8181015183820152602001611387565b906020916113c081518092818552858086019101611384565b601f01601f1916010190565b600435906001600160a01b03821682036113e257565b600080fd5b6001600160401b03811161136e57601f01601f191660200190565b81601f820112156113e257803590611419826113e7565b92611427604051948561134d565b828452602083830101116113e257816000926020809301838601378301015290565b1561145057565b60405162461bcd60e51b815260206004820152600a6024820152694e6f7420616e6472657760b01b6044820152606490fd5b1561148957565b60405162461bcd60e51b815260206004820152600e60248201526d139bdd08185d5d1a1bdc9a5e995960921b6044820152606490fd5b6001600160401b03811161136e5760051b60200190565b80518210156114ea5760209160051b010190565b634e487b7160e01b600052603260045260246000fd5b61150990611bb2565b61155d603a60405180937f646174613a696d6167652f7376672b786d6c3b6261736536342c000000000000602083015261154c8151809260208686019101611384565b81010301601f19810183528261134d565b90565b81601f820112156113e2578051611576816113e7565b92611584604051948561134d565b818452602082840101116113e25761155d9160208085019101611384565b9060018060a01b036005541682600052600b6020526040600020549260405193635b9ceeed60e11b85528160048601526024850152600084604481855afa938415611a775760009283918496611a83575b5082600052600b6020526000604081205460446040518094819363902cb6c960e01b835288600484015260248301525afa8015611a7757600090611a35575b61163c9150611500565b94600090600381101561196557505061168061167a60405161165f60408261134d565b600881526756657279204c6f7760c01b602082015293611c19565b93611af0565b60405193693d913730b6b2911d101160b11b60208601526000600e546116a581611313565b906001811690811561194a5750600114611905575b5061202360f01b81526116d7825180936020600285019101611384565b019572111610113232b9b1b934b83a34b7b7111d101160691b6002880152600096600d5461170481611313565b90600181169081156118e05750600114611893575b5050603361184b946015600495600d6028968a966118509c9d6c1116101134b6b0b3b2911d101160991b81526117588251809360208785019101611384565b01741116101130b734b6b0ba34b7b72fbab936111d101160591b8382015261178a825180936020602285019101611384565b01017f2220617474726962757465733a5b7b202274726169745f74797065223a202250838201527230b632ba3a32911610113b30b63ab2911d101160691b60358201526117e1825180936020604885019101611384565b01017f227d2c7b202274726169745f74797065223a202244656e73697479222c202276838201526730b63ab2911d101160c11b605382015261182d825180936020605b85019101611384565b010163227d5d7d60e01b838201520301601b1981018452018261134d565b611bb2565b61155d603d60405180937f646174613a6170706c69636174696f6e2f6a736f6e3b6261736536342c000000602083015261154c8151809260208686019101611384565b600d600090815291985090600080516020611f7f8339815191525b8282106118c95750509690960160150195603361184b611719565b8054828b01601501526020909101906001016118ae565b60ff19166015848101919091528215159092029092010197506033905061184b611719565b600e6000908152909150600080516020611f5f8339815191525b8282106119335750508501602a01386116ba565b60018160209254602a858c0101520191019061191f565b9050602a925060ff19168288015280151502860101386116ba565b600581101561199b57505061168061167a60405161198460408261134d565b60038152624c6f7760e81b60208201525b93611c19565b60148110156119d257505061168061167a6040516119ba60408261134d565b60068152654d656469756d60d01b6020820152611995565b601e1115611a05575061168061167a6040516119ef60408261134d565b6004815263090d2ced60e31b6020820152611995565b5061168061167a604051611a1a60408261134d565b60098152680accae4f24090d2ced60bb1b6020820152611995565b3d8082843e611a44818461134d565b820191602081840312610453578051916001600160401b03831161025c575091611a729161163c9301611560565b611632565b6040513d6000823e3d90fd5b93915094503d8082853e611a97818561134d565b83016060848203126104535783516001600160401b0381116106095781611abf918601611560565b916020850151906001600160401b03821161025c5750604091611ae3918601611560565b93015190929094386115f3565b611af990611bb2565b61155d603660405180937519185d184e9d195e1d0bda1d1b5b0ed8985cd94d8d0b60521b602083015261154c8151809260208686019101611384565b6000198114611b445760010190565b634e487b7160e01b600052601160045260246000fd5b6000546001600160a01b03163303611b6e57565b606460405162461bcd60e51b815260206004820152602060248201527f4f776e61626c653a2063616c6c6572206973206e6f7420746865206f776e65726044820152fd5b60405161155d91611bc460608361134d565b604082527f4142434445464748494a4b4c4d4e4f505152535455565758595a61626364656660208301527f6768696a6b6c6d6e6f707172737475767778797a303132333435363738392b2f6040830152611de1565b8015611cc157600081805b611cad5750611c32816113e7565b90611c40604051928361134d565b808252601f19611c4f826113e7565b013660208401375b80928015611ca6576000198201918211611b44578193600a82066030019283603011611b4457845111156114ea57600a9260f81b6001600160f81b03191660001a908401601f01530491611c57565b5050905090565b90611cb9600a91611b35565b910480611c24565b50604051611cd060408261134d565b60018152600360fc1b602082015290565b80548210156114ea5760005260206000200190600090565b6000818152600260205260409020548015611dda576000198101818111611b4457600154600019810191908211611b4457808203611d89575b5050506001548015611d735760001901611d4d816001611ce1565b8154906000199060031b1b19169055600155600052600260205260006040812055600190565b634e487b7160e01b600052603160045260246000fd5b611dc2611d9a611dab936001611ce1565b90549060031b1c9283926001611ce1565b819391549060031b91821b91600019901b19161790565b90556000526002602052604060002055388080611d32565b5050600090565b919091805115611ee657805160028101809111611b445760039004600281901b91906001600160fe1b03811603611b4457611e34611e1e836113e7565b92611e2c604051948561134d565b8084526113e7565b6020830190601f1901368237908081518201956020870190815192600083525b888110611e985750506003939495965052510680600114611e8557600214611e7a575090565b603d90600019015390565b50603d9081600019820153600119015390565b600360049199969901986001603f8b5182828260121c16870101518453828282600c1c16870101518385015382828260061c1687010151600285015316840101516003820153019497611e54565b509050604051611ef760208261134d565b6000815290565b80600052600260205260406000205415600014611f58576001546801000000000000000081101561136e57611f3f611dab8260018594016001556001611ce1565b9055600154906000526002602052604060002055600190565b5060009056febb7b4a454dc3493923482f07822329ed19e8244eff582cc204f8554c3620c3fdd7b6990105719101dabeb77144f2a3385c8033acd3af97e9423a695e81ad1eb5a26469706673582212200a0805afb25d51f25589bae01edd9ea5304abdc78e56964893e5561ee6f9099164736f6c634300081c0033d7b6990105719101dabeb77144f2a3385c8033acd3af97e9423a695e81ad1eb5","linkReferences":{}},"methodIdentifiers":{"animToURI(string)":"c038fe04","approveAdmin(address)":"6d73e669","creator()":"02d05d3f","description()":"7284e416","formatTokenURI(uint256)":"5721421d","getAdmins()":"31ae450b","getMaxSupply()":"4c0f38c2","getTotalSupply()":"c4e41b22","grantAccess(address)":"0ae5e739","hasAccess(address)":"95a078e8","isAdmin(address)":"24d7806c","isOwner()":"8f32d59b","maxSupply()":"d5abeb01","mint(address,string)":"d0def521","name()":"06fdde03","owner()":"8da5cb5b","pause()":"8456cb59","paused()":"5c975abb","renounceOwnership()":"715018a6","revokeAccess(address)":"85e68531","revokeAdmin(address)":"2d345670","setColors(address)":"585ba008","setDescription(string)":"90c3f38f","setName(string)":"c47f0027","setPopupEngine(address)":"0eea09b3","supportsInterface(bytes4)":"01ffc9a7","svgToURI(string)":"413620d4","tokenHashes(uint256)":"7432a384","tokenURI(address,uint256)":"e9dc6375","totalSupply()":"18160ddd","transferOwnership(address)":"f2fde38b","unpause()":"3f4ba83a","updateColorPaletteName(uint256,string)":"5134d0fd","withdrawAll()":"853828b6"},"id":37}