{"abi":[{"type":"constructor","inputs":[{"name":"randomGeneratorAddr","type":"address","internalType":"address"}],"stateMutability":"nonpayable"},{"type":"function","name":"addDenseHorizontalGridTextureChunk","inputs":[{"name":"outerStart","type":"uint256","internalType":"uint256"},{"name":"innerStart","type":"uint256","internalType":"uint256"},{"name":"outerEnd","type":"uint256","internalType":"uint256"},{"name":"innerEnd","type":"uint256","internalType":"uint256"},{"name":"verticalSpacing","type":"uint256","internalType":"uint256"},{"name":"horizontalSpacing","type":"uint256","internalType":"uint256"}],"outputs":[],"stateMutability":"nonpayable"},{"type":"function","name":"addDenseVerticalGridTextureChunk","inputs":[{"name":"outerStart","type":"uint256","internalType":"uint256"},{"name":"innerStart","type":"uint256","internalType":"uint256"},{"name":"outerEnd","type":"uint256","internalType":"uint256"},{"name":"innerEnd","type":"uint256","internalType":"uint256"},{"name":"verticalSpacing","type":"uint256","internalType":"uint256"},{"name":"horizontalSpacing","type":"uint256","internalType":"uint256"}],"outputs":[],"stateMutability":"nonpayable"},{"type":"function","name":"addSparseHorizontalGridTextureChunk","inputs":[{"name":"outerStart","type":"uint256","internalType":"uint256"},{"name":"innerStart","type":"uint256","internalType":"uint256"},{"name":"outerEnd","type":"uint256","internalType":"uint256"},{"name":"innerEnd","type":"uint256","internalType":"uint256"},{"name":"verticalSpacing","type":"uint256","internalType":"uint256"},{"name":"horizontalSpacing","type":"uint256","internalType":"uint256"}],"outputs":[],"stateMutability":"nonpayable"},{"type":"function","name":"addSparseVerticalGridTextureChunk","inputs":[{"name":"outerStart","type":"uint256","internalType":"uint256"},{"name":"innerStart","type":"uint256","internalType":"uint256"},{"name":"outerEnd","type":"uint256","internalType":"uint256"},{"name":"innerEnd","type":"uint256","internalType":"uint256"},{"name":"verticalSpacing","type":"uint256","internalType":"uint256"},{"name":"horizontalSpacing","type":"uint256","internalType":"uint256"}],"outputs":[],"stateMutability":"nonpayable"},{"type":"function","name":"clearDenseGridTexture","inputs":[],"outputs":[],"stateMutability":"nonpayable"},{"type":"function","name":"clearSparseGridTexture","inputs":[],"outputs":[],"stateMutability":"nonpayable"},{"type":"function","name":"denseGrainTextureChunksCount","inputs":[{"name":"","type":"uint256","internalType":"uint256"}],"outputs":[{"name":"","type":"uint256","internalType":"uint256"}],"stateMutability":"view"},{"type":"function","name":"denseGrainTextures","inputs":[{"name":"","type":"uint256","internalType":"uint256"},{"name":"","type":"uint256","internalType":"uint256"}],"outputs":[{"name":"","type":"string","internalType":"string"}],"stateMutability":"view"},{"type":"function","name":"denseGridTextureChunksCount","inputs":[{"name":"","type":"uint256","internalType":"uint256"}],"outputs":[{"name":"","type":"uint256","internalType":"uint256"}],"stateMutability":"view"},{"type":"function","name":"denseGridTextures","inputs":[{"name":"","type":"uint256","internalType":"uint256"},{"name":"","type":"uint256","internalType":"uint256"}],"outputs":[{"name":"","type":"string","internalType":"string"}],"stateMutability":"view"},{"type":"function","name":"finalizeDenseGridTexture","inputs":[],"outputs":[],"stateMutability":"nonpayable"},{"type":"function","name":"finalizeSparseGridTexture","inputs":[],"outputs":[],"stateMutability":"nonpayable"},{"type":"function","name":"generateHorizontalGridTexture","inputs":[{"name":"outerStart","type":"uint256","internalType":"uint256"},{"name":"innerStart","type":"uint256","internalType":"uint256"},{"name":"outerEnd","type":"uint256","internalType":"uint256"},{"name":"innerEnd","type":"uint256","internalType":"uint256"},{"name":"verticalSpacing","type":"uint256","internalType":"uint256"},{"name":"horizontalSpacing","type":"uint256","internalType":"uint256"},{"name":"hash","type":"bytes32","internalType":"bytes32"},{"name":"nonce","type":"uint256","internalType":"uint256"}],"outputs":[{"name":"","type":"string","internalType":"string"},{"name":"","type":"uint256","internalType":"uint256"}],"stateMutability":"view"},{"type":"function","name":"generateVerticalGridTexture","inputs":[{"name":"outerStart","type":"uint256","internalType":"uint256"},{"name":"innerStart","type":"uint256","internalType":"uint256"},{"name":"outerEnd","type":"uint256","internalType":"uint256"},{"name":"innerEnd","type":"uint256","internalType":"uint256"},{"name":"verticalSpacing","type":"uint256","internalType":"uint256"},{"name":"horizontalSpacing","type":"uint256","internalType":"uint256"},{"name":"hash","type":"bytes32","internalType":"bytes32"},{"name":"nonce","type":"uint256","internalType":"uint256"}],"outputs":[{"name":"","type":"string","internalType":"string"},{"name":"","type":"uint256","internalType":"uint256"}],"stateMutability":"view"},{"type":"function","name":"getRandomDenseGridTexture","inputs":[{"name":"hash","type":"bytes32","internalType":"bytes32"},{"name":"nonce","type":"uint256","internalType":"uint256"}],"outputs":[{"name":"","type":"string","internalType":"string"}],"stateMutability":"view"},{"type":"function","name":"getRandomSparseGridTexture","inputs":[{"name":"hash","type":"bytes32","internalType":"bytes32"},{"name":"nonce","type":"uint256","internalType":"uint256"}],"outputs":[{"name":"","type":"string","internalType":"string"}],"stateMutability":"view"},{"type":"function","name":"grantAccess","inputs":[{"name":"addr","type":"address","internalType":"address"}],"outputs":[],"stateMutability":"nonpayable"},{"type":"function","name":"hasAccess","inputs":[{"name":"account","type":"address","internalType":"address"}],"outputs":[{"name":"","type":"bool","internalType":"bool"}],"stateMutability":"view"},{"type":"function","name":"initializeDenseGridTexture","inputs":[{"name":"thickness","type":"string","internalType":"string"},{"name":"color","type":"string","internalType":"string"}],"outputs":[],"stateMutability":"nonpayable"},{"type":"function","name":"initializeSparseGridTexture","inputs":[{"name":"thickness","type":"string","internalType":"string"},{"name":"color","type":"string","internalType":"string"}],"outputs":[],"stateMutability":"nonpayable"},{"type":"function","name":"isOwner","inputs":[],"outputs":[{"name":"","type":"bool","internalType":"bool"}],"stateMutability":"view"},{"type":"function","name":"lastDenseGrainTextureIndex","inputs":[],"outputs":[{"name":"","type":"uint256","internalType":"uint256"}],"stateMutability":"view"},{"type":"function","name":"lastDenseGridTextureIndex","inputs":[],"outputs":[{"name":"","type":"uint256","internalType":"uint256"}],"stateMutability":"view"},{"type":"function","name":"lastSparseGrainTextureIndex","inputs":[],"outputs":[{"name":"","type":"uint256","internalType":"uint256"}],"stateMutability":"view"},{"type":"function","name":"lastSparseGridTextureIndex","inputs":[],"outputs":[{"name":"","type":"uint256","internalType":"uint256"}],"stateMutability":"view"},{"type":"function","name":"randomGenerator","inputs":[],"outputs":[{"name":"","type":"address","internalType":"contract RandomGenerator"}],"stateMutability":"view"},{"type":"function","name":"revokeAccess","inputs":[{"name":"addr","type":"address","internalType":"address"}],"outputs":[],"stateMutability":"nonpayable"},{"type":"function","name":"setRandomGenerator","inputs":[{"name":"addr","type":"address","internalType":"address"}],"outputs":[],"stateMutability":"nonpayable"},{"type":"function","name":"sparseGrainTextureChunksCount","inputs":[{"name":"","type":"uint256","internalType":"uint256"}],"outputs":[{"name":"","type":"uint256","internalType":"uint256"}],"stateMutability":"view"},{"type":"function","name":"sparseGrainTextures","inputs":[{"name":"","type":"uint256","internalType":"uint256"},{"name":"","type":"uint256","internalType":"uint256"}],"outputs":[{"name":"","type":"string","internalType":"string"}],"stateMutability":"view"},{"type":"function","name":"sparseGridTextureChunksCount","inputs":[{"name":"","type":"uint256","internalType":"uint256"}],"outputs":[{"name":"","type":"uint256","internalType":"uint256"}],"stateMutability":"view"},{"type":"function","name":"sparseGridTextures","inputs":[{"name":"","type":"uint256","internalType":"uint256"},{"name":"","type":"uint256","internalType":"uint256"}],"outputs":[{"name":"","type":"string","internalType":"string"}],"stateMutability":"view"}],"bytecode":{"object":"0x608034609157601f6121d138819003918201601f19168301916001600160401b03831184841017609657808492602094604052833981010312609157516001600160a01b038116908190036091573360018060a01b03196000541617600055600060065560006007556000600855600060095560018060a01b0319600e541617600e5560405161212490816100ad8239f35b600080fd5b634e487b7160e01b600052604160045260246000fdfe6080604052600436101561001257600080fd5b6000803560e01c80630ae5e7391461126c5780630bb591f7146111cc5780631486a29c146111a257806322b5a0fa1461105157806330009755146110275780633588144714610ff8578063408d8ce714610fda57806341e5436414610f3a578063427034e514610e485780634bc19fee14610dd357806350b74cb514610db85780635c2b553514610d8e5780636f8e16c714610c8a5780637250a4cb14610c6f57806372889d1914610c4057806373bff5e014610b165780637999611f14610af857806382661f7814610a2957806385e68531146109d85780638f32d59b146109b05780639303f1301461098157806395a078e81461093b5780639f4fa34c146108a2578063be3417701461085f578063be5b225514610835578063c271f7d01461069e578063cd08f2e5146105ff578063d9e787e5146105e1578063dcbad90d146105b8578063e3d00eb81461059a578063e44912ef146103255763f5ece8331461017d57600080fd5b34610322576101ef61018e3661151d565b9360018060a09593951b038854163314801561030c575b6101ae9061157c565b6040805142602082019081523360601b6001600160601b031916928201929092526101e681605481015b03601f1981018352826113a8565b5190209561167e565b5090600654808252600260205260408220908252600a6020526040822054825260205260408120825167ffffffffffffffff81116102f85761023b81610235845461136e565b846117da565b6020601f8211600114610297578190849561026c94959261028c575b50508160011b916000199060031b1c19161790565b90555b6006548152600a60205260408120610287815461166f565b905580f35b015190503880610257565b82845280842090601f198316855b8181106102e0575095836001959697106102c7575b505050811b01905561026f565b015160001960f88460031b161c191690553880806102ba565b9192602060018192868b0151815501940192016102a5565b634e487b7160e01b83526041600452602483fd5b503388526001602052604088205460ff166101a5565b80fd5b503461032257610334366112c0565b600e54909860609897949695926001600160a01b03909216915b8689111561036957604051806103658d8d8361133c565b0390f35b90919293949596979861037a611650565b90875b8681111561040357506103f6916103f0600360098d94602060405195826103ad88945180928580880191016112f4565b8301683c7061746820643d2760b81b838201526103d382518093856029850191016112f4565b01016213979f60e91b838201520301601c198101845201826113a8565b9a611643565b979695949392919061034e565b919b604051630e6c328760e31b8152846004820152816024820152856044820152600560648201526020816084818a5afa801561058f5789918e91610556575b506104506104ce9361166f565b9e856104d35760016104c89161046e61046889611bac565b94611bac565b6020604051958361048888955180928580890191016112f4565b840161049c825180938580850191016112f4565b0101600b60fa1b81526104b882518093602087850191016112f4565b010301601f1981018352826113a8565b93611643565b61037d565b60016104c89160026104ed6104e78a611bac565b95611bac565b60206040519684610507899651809285808a0191016112f4565b850161081360f21b8382015261052682518093856022850191016112f4565b0101600b60fa1b838201526105458251809360206003850191016112f4565b01010301601f1981018352826113a8565b91505060203d8111610588575b61056d81836113a8565b6020826000928101031261032257508890508c610450610443565b503d610563565b6040513d88823e3d90fd5b50346103225780600319360112610322576020600954604051908152f35b5034610322578060031936011261032257600e546040516001600160a01b039091168152602090f35b50346103225780600319360112610322576020600754604051908152f35b503461032257806003193601126103225780546001600160a01b031633148015610688575b61062d9061157c565b600654808252600260205260408220908252600a602052604082205482526020526040812061066561065f825461136e565b826117b2565b6010671e17b39f1e17b39f60c11b0190556006546106829061166f565b60065580f35b503381526001602052604081205460ff16610624565b5034610322576107076106b03661151d565b9360018060a09593951b038854163314801561081f575b6106d09061157c565b6040805142602082019081523360601b6001600160601b031916928201929092526106fe81605481016101d8565b51902095611a7e565b509050600854806000526003602052604060002090600052600b6020526040600020546000526020526040600020815167ffffffffffffffff81116108095761075481610235845461136e565b602092601f82116001146107a6576107859293829160009261028c5750508160011b916000199060031b1c19161790565b90555b600854600052600b60205260406000206107a2815461166f565b9055005b601f1982169383600052806000209160005b8681106107f157508360019596106107d8575b505050811b019055610788565b015160001960f88460031b161c191690553880806107cb565b919260206001819286850151815501940192016107b8565b634e487b7160e01b600052604160045260246000fd5b503388526001602052604088205460ff166106c7565b50346103225760203660031901126103225760406020916004358152600a83522054604051908152f35b50346103225761088e60406103659261087736611358565b9082526005602052828220908252602052206113ca565b604051918291602083526020830190611317565b503461032257806003193601126103225780546001600160a01b031633148015610925575b6108d09061157c565b600854808252600360205260408220908252600b602052604082205482526020526040812061090261065f825461136e565b6010671e17b39f1e17b39f60c11b01905560085461091f9061166f565b60085580f35b503381526001602052604081205460ff166108c7565b5034610322576020366003190112610322576004356001600160a01b0381169081900361097d5760408260ff9260209452600184522054166040519015158152f35b5080fd5b50346103225761088e60406103659261099936611358565b9082526004602052828220908252602052206113ca565b503461032257806003193601126103225760209060018060a01b039054163314604051908152f35b5034610322576020366003190112610322576004356001600160a01b0381169081900361097d57610a1360018060a01b038354163314611543565b8152600160205260408120805460ff1916905580f35b503461032257610a3b6106b03661151d565b5090600654808252600260205260408220908252600a6020526040822054825260205260408120825167ffffffffffffffff81116102f857610a8181610235845461136e565b6020601f8211600114610ab1578190849561026c94959261028c5750508160011b916000199060031b1c19161790565b82845280842090601f198316855b818110610ae0575095836001959697106102c757505050811b01905561026f565b9192602060018192868b015181550194019201610abf565b50346103225780600319360112610322576020600654604051908152f35b503461032257610b4a610b28366114d1565b9060018060a01b0384541633148015610c2a575b610b459061157c565b611d13565b90600854815260036020526040812081805260205260408120825167ffffffffffffffff81116102f857610b8281610235845461136e565b6020601f8211600114610bc95781908495610bb294959261028c5750508160011b916000199060031b1c19161790565b90555b6008548152600b6020526001604082205580f35b82845280842090601f198316855b818110610c1257509583600195969710610bf9575b505050811b019055610bb5565b015160001960f88460031b161c19169055388080610bec565b9192602060018192868b015181550194019201610bd7565b503384526001602052604084205460ff16610b3c565b50346103225761088e604061036592610c5836611358565b9082526002602052828220908252602052206113ca565b50346103225761036561088e610c8436611358565b90611999565b503461032257610c9c61018e3661151d565b5090600854808252600360205260408220908252600b6020526040822054825260205260408120825167ffffffffffffffff81116102f857610ce281610235845461136e565b6020601f8211600114610d2d5781908495610d1294959261028c5750508160011b916000199060031b1c19161790565b90555b6008548152600b60205260408120610287815461166f565b82845280842090601f198316855b818110610d7657509583600195969710610d5d575b505050811b019055610d15565b015160001960f88460031b161c19169055388080610d50565b9192602060018192868b015181550194019201610d3b565b50346103225760203660031901126103225760406020916004358152600c83522054604051908152f35b50346103225761036561088e610dcd36611358565b9061188d565b5034610322576020366003190112610322576004356001600160a01b0381169081900361097d5781546001600160a01b031633148015610e32575b610e179061157c565b6bffffffffffffffffffffffff60a01b600e541617600e5580f35b503382526001602052604082205460ff16610e0e565b503461032257610e5a610b28366114d1565b90600654815260026020526040812081805260205260408120825167ffffffffffffffff81116102f857610e9281610235845461136e565b6020601f8211600114610ed95781908495610ec294959261028c5750508160011b916000199060031b1c19161790565b90555b6006548152600a6020526001604082205580f35b82845280842090601f198316855b818110610f2257509583600195969710610f09575b505050811b019055610ec5565b015160001960f88460031b161c19169055388080610efc565b9192602060018192868b015181550194019201610ee7565b503461032257806003193601126103225780546001600160a01b031633148015610fc4575b610f689061157c565b805b60085490818352600b6020526040832054811015610fa8576001918352600360205260408320818452602052610fa2604084206115d0565b01610f6a565b826008548152600b60205280604081205561091f600854611620565b503381526001602052604081205460ff16610f5f565b50346103225780600319360112610322576020600854604051908152f35b50346103225761088e60406103659261101036611358565b9082526003602052828220908252602052206113ca565b50346103225760203660031901126103225760406020916004358152600b83522054604051908152f35b503461032257611060366112c0565b979592919493906060979660018060a01b03600e5416915b8689111561108f57604051806103658d8d8361133c565b9091929394959697986110a0611650565b90875b868111156110e057506110d3916103f0600360098d94602060405195826103ad88945180928580880191016112f4565b9796959493929190611078565b919b604051630e6c328760e31b8152846004820152816024820152856044820152600560648201526020816084818a5afa801561058f5790899161116a575b5061112c61114b9261166f565b9d8d856111505760016111416104c892611bac565b9261046e88611bac565b6110a3565b600161115e6104c892611bac565b9260026104ed89611bac565b90506020813d821161119a575b81611184602093836113a8565b8101031261119657508761112c61111f565b8580fd5b3d9150611177565b50346103225760203660031901126103225760406020916004358152600d83522054604051908152f35b503461032257806003193601126103225780546001600160a01b031633148015611256575b6111fa9061157c565b805b60065490818352600a602052604083205481101561123a576001918352600260205260408320818452602052611234604084206115d0565b016111fc565b826006548152600a602052806040812055610682600654611620565b503381526001602052604081205460ff166111f1565b5034610322576020366003190112610322576004356001600160a01b0381169081900361097d576112a760018060a01b038354163314611543565b8152600160205260408120600160ff1982541617905580f35b6101009060031901126112ef57600435906024359060443590606435906084359060a4359060c4359060e43590565b600080fd5b60005b8381106113075750506000910152565b81810151838201526020016112f7565b90602091611330815180928185528580860191016112f4565b601f01601f1916010190565b929190611353602091604086526040860190611317565b930152565b60409060031901126112ef576004359060243590565b90600182811c9216801561139e575b602083101461138857565b634e487b7160e01b600052602260045260246000fd5b91607f169161137d565b90601f8019910116810190811067ffffffffffffffff82111761080957604052565b604051908160008254926113dd8461136e565b808452936001811690811561144c5750600114611405575b50611402925003826113a8565b90565b90506000929192526020600020906000915b81831061143057505090602061140292820101386113f5565b6020919350806001915483858801015201910190918392611417565b90506020925061140294915060ff191682840152151560051b820101386113f5565b67ffffffffffffffff811161080957601f01601f191660200190565b81601f820112156112ef578035906114a18261146e565b926114af60405194856113a8565b828452602083830101116112ef57816000926020809301838601378301015290565b9060406003198301126112ef5760043567ffffffffffffffff81116112ef57826114fd9160040161148a565b916024359067ffffffffffffffff82116112ef576114029160040161148a565b60c09060031901126112ef57600435906024359060443590606435906084359060a43590565b1561154a57565b60405162461bcd60e51b815260206004820152600a6024820152694e6f7420616e6472657760b01b6044820152606490fd5b1561158357565b60405162461bcd60e51b815260206004820152600e60248201526d139bdd08185d5d1a1bdc9a5e995960921b6044820152606490fd5b8181106115c4575050565b600081556001016115b9565b6115da815461136e565b90816115e4575050565b81601f600093116001146115f75750555b565b8183526020832061161391601f0160051c8101906001016115b9565b8082528160208120915555565b801561162d576000190190565b634e487b7160e01b600052601160045260246000fd5b9190820180921161162d57565b6040519061165f6040836113a8565b60018252604d60f81b6020830152565b600019811461162d5760010190565b600e546001989760609792969295916001600160a01b0316905b858811156116ac5750505050505050509190565b90919293949596976116bc611650565b90865b8581111561170157506116f5916116ef600360098c94602060405195826103ad88945180928580880191016112f4565b99611643565b96959493929190611698565b919b604051630e6c328760e31b81528460048201528160248201526000604482015260056064820152602081608481895afa9081156117a657889160009061176c575b50506117526117679261166f565b9d8c856111505760016111416104c892611bac565b6116bf565b9091506020823d821161179e575b81611787602093836113a8565b810103126103225750879050611752611767611744565b3d915061177a565b6040513d6000823e3d90fd5b90601f81116117bf575050565b6115f591600052601f6020600020910160051c8101906115b9565b9190601f81116117e957505050565b6115f5926000526020600020906020601f840160051c83019310611815575b601f0160051c01906115b9565b9091508190611808565b6000929181549161182f8361136e565b926001811690811561187a575060011461184857505050565b909192935060005260206000206000905b8382106118665750500190565b600181602092548486015201910190611859565b60ff191683525050811515909102019150565b60085491821561198157608460209260018060a01b03600e54166040519586948593630e6c328760e31b8552600485015260248401526000604484015260648301525afa9081156117a65760009161194f575b5060009060605b81600052600b602052604060002054831015611949576020611941600192846000526003835260406000208660005283526101d86040600020604051948361193887955180928480890191016112f4565b8401019061181f565b9201916118e7565b91505090565b906020823d602011611979575b81611969602093836113a8565b81010312610322575051386118e0565b3d915061195c565b5050506040516119926020826113a8565b6000815290565b60065491821561198157608460209260018060a01b03600e54166040519586948593630e6c328760e31b8552600485015260248401526000604484015260648301525afa9081156117a657600091611a4c575b5060009060605b81600052600a602052604060002054831015611949576020611a44600192846000526002835260406000208660005283526101d86040600020604051948361193887955180928480890191016112f4565b9201916119f3565b906020823d602011611a76575b81611a66602093836113a8565b81010312610322575051386119ec565b3d9150611a59565b600e5460019897606097929695916001600160a01b0316905b85881115611aab5750505050505050509190565b9091929394959697611abb611650565b90865b85811115611afa5750611aee916116ef600360098c94602060405195826103ad88945180928580880191016112f4565b96959493929190611a97565b919b604051630e6c328760e31b81528460048201528160248201526000604482015260056064820152602081608481895afa80156117a65788918d91600090611b51575b5050610450611b4c9361166f565b611abe565b915091506020823d8211611b85575b81611b6d602093836113a8565b8101031261032257508790508b610450611b4c611b3e565b3d9150611b60565b60405190611b9c6040836113a8565b60018252600360fc1b6020830152565b8015611d0a57600081805b611cf657506003811115611c2e57506103e880820691048115611c24576001611beb611be561140293612030565b93612030565b9260206040519482611c0687945180928580880191016112f4565b8301601760f91b8382015261054582518093856021850191016112f4565b6114029150612030565b906040928351611c3e85826113a8565b6002815261181760f11b6020820152916000925b846003036003811161162d57841015611ca757600190611c9f826020895184611c8482965180928580860191016112f4565b8101600360fc1b838201520301601e198101845201826113a8565b930192611c52565b919493506114029250611cbb602091612030565b93519382611cd286945180928580880191016112f4565b8301611ce6825180938580850191016112f4565b010103601f1981018352826113a8565b90611d02600a9161166f565b910480611bb7565b50611402611b8d565b6040805142602082019081523360601b6001600160601b03191692820192909252611d4181605481016101d8565b51902090602060018060a01b03600e541692608460405180958193630e6c328760e31b83526004830152600060248301526001604483015261271060648301525afa9182156117a657600092611ffb575b506010601a9160af611da661140295612030565b9160dd6040519788947f3c67207472616e73666f726d3d277472616e736c617465282d3130302c2d313060208701527f3029207363616c65283329273e3c646566733e3c66696c7465722069643d276760408701527f7269644e6f6973652720783d27302720793d2730272077696474683d2731303060608701527f2527206865696768743d2731303025273e3c666554757262756c656e6365207460808701527f7970653d276672616374616c4e6f6973652720626173654672657175656e637960a08701527f3d27302e303127206e756d4f6374617665733d27332720736565643d2700000060c0870152611ea6815180926020868a0191016112f4565b85017f2720726573756c743d276e6f697365272f3e3c6665446973706c6163656d656e838201527f744d617020696e3d27536f75726365477261706869632720696e323d276e6f6960fd8201527f736527207363616c653d27302e352720784368616e6e656c53656c6563746f7261011d8201527f3d27522720794368616e6e656c53656c6563746f723d2747272f3e3c2f66696c61013d8201527f7465723e3c2f646566733e3c672066696c7465723d2775726c2823677269644e61015d8201526e6f6973652927207374726f6b653d2760881b61017d820152611f9682518093602061018c850191016112f4565b01016f27207374726f6b652d77696474683d2760801b83820152611fc482518093602060bf850191016112f4565b01017f27206f7061636974793d2731272066696c6c3d276e6f6e65273e0000000000008382015203016005198101845201826113a8565b91506020823d602011612028575b81612016602093836113a8565b810103126112ef579051906010611d92565b3d9150612009565b8015611d0a57600081805b6120da57506120498161146e565b9061205760405192836113a8565b808252601f196120668261146e565b013660208401375b809280156120d357600019820191821161162d578193600a8206603001928360301161162d57845111156120bd57600a9260f81b6001600160f81b03191660001a908401601f0153049161206e565b634e487b7160e01b600052603260045260246000fd5b5050905090565b906120e6600a9161166f565b91048061203b56fea26469706673582212209bb8b66370f1373b3a34cdff39549a9af8f71899bb7431b01c937e2cf99ff3d564736f6c634300081c0033","linkReferences":{}},"methodIdentifiers":{"addDenseHorizontalGridTextureChunk(uint256,uint256,uint256,uint256,uint256,uint256)":"f5ece833","addDenseVerticalGridTextureChunk(uint256,uint256,uint256,uint256,uint256,uint256)":"82661f78","addSparseHorizontalGridTextureChunk(uint256,uint256,uint256,uint256,uint256,uint256)":"6f8e16c7","addSparseVerticalGridTextureChunk(uint256,uint256,uint256,uint256,uint256,uint256)":"c271f7d0","clearDenseGridTexture()":"0bb591f7","clearSparseGridTexture()":"41e54364","denseGrainTextureChunksCount(uint256)":"5c2b5535","denseGrainTextures(uint256,uint256)":"9303f130","denseGridTextureChunksCount(uint256)":"be5b2255","denseGridTextures(uint256,uint256)":"72889d19","finalizeDenseGridTexture()":"cd08f2e5","finalizeSparseGridTexture()":"9f4fa34c","generateHorizontalGridTexture(uint256,uint256,uint256,uint256,uint256,uint256,bytes32,uint256)":"22b5a0fa","generateVerticalGridTexture(uint256,uint256,uint256,uint256,uint256,uint256,bytes32,uint256)":"e44912ef","getRandomDenseGridTexture(bytes32,uint256)":"7250a4cb","getRandomSparseGridTexture(bytes32,uint256)":"50b74cb5","grantAccess(address)":"0ae5e739","hasAccess(address)":"95a078e8","initializeDenseGridTexture(string,string)":"427034e5","initializeSparseGridTexture(string,string)":"73bff5e0","isOwner()":"8f32d59b","lastDenseGrainTextureIndex()":"d9e787e5","lastDenseGridTextureIndex()":"7999611f","lastSparseGrainTextureIndex()":"e3d00eb8","lastSparseGridTextureIndex()":"408d8ce7","randomGenerator()":"dcbad90d","revokeAccess(address)":"85e68531","setRandomGenerator(address)":"4bc19fee","sparseGrainTextureChunksCount(uint256)":"1486a29c","sparseGrainTextures(uint256,uint256)":"be341770","sparseGridTextureChunksCount(uint256)":"30009755","sparseGridTextures(uint256,uint256)":"35881447"},"id":41}