{
    "contractName": "TextureEngine",
    "abi": [
        {
            "inputs": [
                {
                    "internalType": "address",
                    "name": "randomGeneratorAddr",
                    "type": "address"
                }
            ],
            "stateMutability": "nonpayable",
            "type": "constructor"
        },
        {
            "inputs": [
                {
                    "internalType": "uint256",
                    "name": "outerStart",
                    "type": "uint256"
                },
                {
                    "internalType": "uint256",
                    "name": "innerStart",
                    "type": "uint256"
                },
                {
                    "internalType": "uint256",
                    "name": "outerEnd",
                    "type": "uint256"
                },
                {
                    "internalType": "uint256",
                    "name": "innerEnd",
                    "type": "uint256"
                },
                {
                    "internalType": "uint256",
                    "name": "verticalSpacing",
                    "type": "uint256"
                },
                {
                    "internalType": "uint256",
                    "name": "horizontalSpacing",
                    "type": "uint256"
                },
                {
                    "internalType": "string",
                    "name": "color",
                    "type": "string"
                }
            ],
            "name": "addDenseGridTextureChunk",
            "outputs": [],
            "stateMutability": "nonpayable",
            "type": "function"
        },
        {
            "inputs": [
                {
                    "internalType": "uint256",
                    "name": "outerStart",
                    "type": "uint256"
                },
                {
                    "internalType": "uint256",
                    "name": "innerStart",
                    "type": "uint256"
                },
                {
                    "internalType": "uint256",
                    "name": "outerEnd",
                    "type": "uint256"
                },
                {
                    "internalType": "uint256",
                    "name": "innerEnd",
                    "type": "uint256"
                },
                {
                    "internalType": "uint256",
                    "name": "verticalSpacing",
                    "type": "uint256"
                },
                {
                    "internalType": "uint256",
                    "name": "horizontalSpacing",
                    "type": "uint256"
                },
                {
                    "internalType": "string",
                    "name": "color",
                    "type": "string"
                }
            ],
            "name": "addSparseGridTextureChunk",
            "outputs": [],
            "stateMutability": "nonpayable",
            "type": "function"
        },
        {
            "inputs": [],
            "name": "clearDenseGridTexture",
            "outputs": [],
            "stateMutability": "nonpayable",
            "type": "function"
        },
        {
            "inputs": [],
            "name": "clearSparseGridTexture",
            "outputs": [],
            "stateMutability": "nonpayable",
            "type": "function"
        },
        {
            "inputs": [
                {
                    "internalType": "uint256",
                    "name": "",
                    "type": "uint256"
                }
            ],
            "name": "denseGrainTextureChunksCount",
            "outputs": [
                {
                    "internalType": "uint256",
                    "name": "",
                    "type": "uint256"
                }
            ],
            "stateMutability": "view",
            "type": "function"
        },
        {
            "inputs": [
                {
                    "internalType": "uint256",
                    "name": "",
                    "type": "uint256"
                },
                {
                    "internalType": "uint256",
                    "name": "",
                    "type": "uint256"
                }
            ],
            "name": "denseGrainTextures",
            "outputs": [
                {
                    "internalType": "string",
                    "name": "",
                    "type": "string"
                }
            ],
            "stateMutability": "view",
            "type": "function"
        },
        {
            "inputs": [
                {
                    "internalType": "uint256",
                    "name": "",
                    "type": "uint256"
                }
            ],
            "name": "denseGridTextureChunksCount",
            "outputs": [
                {
                    "internalType": "uint256",
                    "name": "",
                    "type": "uint256"
                }
            ],
            "stateMutability": "view",
            "type": "function"
        },
        {
            "inputs": [
                {
                    "internalType": "uint256",
                    "name": "",
                    "type": "uint256"
                },
                {
                    "internalType": "uint256",
                    "name": "",
                    "type": "uint256"
                }
            ],
            "name": "denseGridTextures",
            "outputs": [
                {
                    "internalType": "string",
                    "name": "",
                    "type": "string"
                }
            ],
            "stateMutability": "view",
            "type": "function"
        },
        {
            "inputs": [],
            "name": "finalizeDenseGridTexture",
            "outputs": [],
            "stateMutability": "nonpayable",
            "type": "function"
        },
        {
            "inputs": [],
            "name": "finalizeSparseGridTexture",
            "outputs": [],
            "stateMutability": "nonpayable",
            "type": "function"
        },
        {
            "inputs": [
                {
                    "internalType": "uint256",
                    "name": "outerStart",
                    "type": "uint256"
                },
                {
                    "internalType": "uint256",
                    "name": "innerStart",
                    "type": "uint256"
                },
                {
                    "internalType": "uint256",
                    "name": "outerEnd",
                    "type": "uint256"
                },
                {
                    "internalType": "uint256",
                    "name": "innerEnd",
                    "type": "uint256"
                },
                {
                    "internalType": "uint256",
                    "name": "verticalSpacing",
                    "type": "uint256"
                },
                {
                    "internalType": "uint256",
                    "name": "horizontalSpacing",
                    "type": "uint256"
                },
                {
                    "internalType": "bytes32",
                    "name": "hash",
                    "type": "bytes32"
                },
                {
                    "internalType": "uint256",
                    "name": "nonce",
                    "type": "uint256"
                },
                {
                    "internalType": "string",
                    "name": "color",
                    "type": "string"
                }
            ],
            "name": "generateGridTexture",
            "outputs": [
                {
                    "internalType": "string",
                    "name": "",
                    "type": "string"
                },
                {
                    "internalType": "uint256",
                    "name": "",
                    "type": "uint256"
                }
            ],
            "stateMutability": "view",
            "type": "function"
        },
        {
            "inputs": [
                {
                    "internalType": "bytes32",
                    "name": "hash",
                    "type": "bytes32"
                },
                {
                    "internalType": "uint256",
                    "name": "nonce",
                    "type": "uint256"
                }
            ],
            "name": "getRandomDenseGridTexture",
            "outputs": [
                {
                    "internalType": "string",
                    "name": "",
                    "type": "string"
                }
            ],
            "stateMutability": "view",
            "type": "function"
        },
        {
            "inputs": [
                {
                    "internalType": "bytes32",
                    "name": "hash",
                    "type": "bytes32"
                },
                {
                    "internalType": "uint256",
                    "name": "nonce",
                    "type": "uint256"
                }
            ],
            "name": "getRandomSparseGridTexture",
            "outputs": [
                {
                    "internalType": "string",
                    "name": "",
                    "type": "string"
                }
            ],
            "stateMutability": "view",
            "type": "function"
        },
        {
            "inputs": [
                {
                    "internalType": "address",
                    "name": "addr",
                    "type": "address"
                }
            ],
            "name": "grantAccess",
            "outputs": [],
            "stateMutability": "nonpayable",
            "type": "function"
        },
        {
            "inputs": [
                {
                    "internalType": "address",
                    "name": "account",
                    "type": "address"
                }
            ],
            "name": "hasAccess",
            "outputs": [
                {
                    "internalType": "bool",
                    "name": "",
                    "type": "bool"
                }
            ],
            "stateMutability": "view",
            "type": "function"
        },
        {
            "inputs": [
                {
                    "internalType": "string",
                    "name": "thickness",
                    "type": "string"
                },
                {
                    "internalType": "string",
                    "name": "color",
                    "type": "string"
                }
            ],
            "name": "initializeDenseGridTexture",
            "outputs": [],
            "stateMutability": "nonpayable",
            "type": "function"
        },
        {
            "inputs": [
                {
                    "internalType": "string",
                    "name": "thickness",
                    "type": "string"
                },
                {
                    "internalType": "string",
                    "name": "color",
                    "type": "string"
                }
            ],
            "name": "initializeSparseGridTexture",
            "outputs": [],
            "stateMutability": "nonpayable",
            "type": "function"
        },
        {
            "inputs": [],
            "name": "isOwner",
            "outputs": [
                {
                    "internalType": "bool",
                    "name": "",
                    "type": "bool"
                }
            ],
            "stateMutability": "view",
            "type": "function"
        },
        {
            "inputs": [],
            "name": "lastDenseGrainTextureIndex",
            "outputs": [
                {
                    "internalType": "uint256",
                    "name": "",
                    "type": "uint256"
                }
            ],
            "stateMutability": "view",
            "type": "function"
        },
        {
            "inputs": [],
            "name": "lastDenseGridTextureIndex",
            "outputs": [
                {
                    "internalType": "uint256",
                    "name": "",
                    "type": "uint256"
                }
            ],
            "stateMutability": "view",
            "type": "function"
        },
        {
            "inputs": [],
            "name": "lastSparseGrainTextureIndex",
            "outputs": [
                {
                    "internalType": "uint256",
                    "name": "",
                    "type": "uint256"
                }
            ],
            "stateMutability": "view",
            "type": "function"
        },
        {
            "inputs": [],
            "name": "lastSparseGridTextureIndex",
            "outputs": [
                {
                    "internalType": "uint256",
                    "name": "",
                    "type": "uint256"
                }
            ],
            "stateMutability": "view",
            "type": "function"
        },
        {
            "inputs": [],
            "name": "randomGenerator",
            "outputs": [
                {
                    "internalType": "contract RandomGenerator",
                    "name": "",
                    "type": "address"
                }
            ],
            "stateMutability": "view",
            "type": "function"
        },
        {
            "inputs": [
                {
                    "internalType": "address",
                    "name": "addr",
                    "type": "address"
                }
            ],
            "name": "revokeAccess",
            "outputs": [],
            "stateMutability": "nonpayable",
            "type": "function"
        },
        {
            "inputs": [
                {
                    "internalType": "address",
                    "name": "addr",
                    "type": "address"
                }
            ],
            "name": "setRandomGenerator",
            "outputs": [],
            "stateMutability": "nonpayable",
            "type": "function"
        },
        {
            "inputs": [
                {
                    "internalType": "uint256",
                    "name": "",
                    "type": "uint256"
                }
            ],
            "name": "sparseGrainTextureChunksCount",
            "outputs": [
                {
                    "internalType": "uint256",
                    "name": "",
                    "type": "uint256"
                }
            ],
            "stateMutability": "view",
            "type": "function"
        },
        {
            "inputs": [
                {
                    "internalType": "uint256",
                    "name": "",
                    "type": "uint256"
                },
                {
                    "internalType": "uint256",
                    "name": "",
                    "type": "uint256"
                }
            ],
            "name": "sparseGrainTextures",
            "outputs": [
                {
                    "internalType": "string",
                    "name": "",
                    "type": "string"
                }
            ],
            "stateMutability": "view",
            "type": "function"
        },
        {
            "inputs": [
                {
                    "internalType": "uint256",
                    "name": "",
                    "type": "uint256"
                }
            ],
            "name": "sparseGridTextureChunksCount",
            "outputs": [
                {
                    "internalType": "uint256",
                    "name": "",
                    "type": "uint256"
                }
            ],
            "stateMutability": "view",
            "type": "function"
        },
        {
            "inputs": [
                {
                    "internalType": "uint256",
                    "name": "",
                    "type": "uint256"
                },
                {
                    "internalType": "uint256",
                    "name": "",
                    "type": "uint256"
                }
            ],
            "name": "sparseGridTextures",
            "outputs": [
                {
                    "internalType": "string",
                    "name": "",
                    "type": "string"
                }
            ],
            "stateMutability": "view",
            "type": "function"
        }
    ],
    "bytecode": "608034608b57601f61232038819003918201601f19168301916001600160401b03831184841017608f57808492602094604052833981010312608b57516001600160a01b03811690819003608b573360018060a01b03195f5416175f555f6006555f6007555f6008555f60095560018060a01b0319600e541617600e5560405161227c90816100a48239f35b5f80fd5b634e487b7160e01b5f52604160045260245ffdfe60806040526004361015610011575f80fd5b5f3560e01c80630ae5e7391461196e5780630b9676b51461158d5780630bb591f7146114e85780631486a29c146114be57806314883f4a146110a157806330009755146110775780633588144714611048578063408d8ce71461102b57806341e5436414610f86578063427034e514610d8e5780634bc19fee14610d1c57806350b74cb514610d025780635c2b553514610cd85780637250a4cb14610cbe57806372889d1914610c8f57806373bff5e0146108265780637999611f1461080957806385e68531146107b85780638f32d59b146107925780639303f1301461076357806395a078e8146107225780639f4fa34c146106ab578063be34177014610664578063be5b22551461063a578063cd08f2e5146105aa578063d9e787e51461058d578063dcbad90d14610565578063dcfd92cb146101795763e3d00eb814610158575f80fd5b34610175575f366003190112610175576020600954604051908152f35b5f80fd5b34610175576101203660031901126101755760043560c43560243560843560643560a4356044356101043567ffffffffffffffff811161017557916101c78897949295933690600401611a00565b50600e5460609660e43596916001600160a01b031690895b8381111561040f5750955b848711156102155761020b8989604051928392604084526040840190611b77565b9060208301520390f35b90919293949597610224611fb0565b8a5b8581111561029e5750602061028d600460096102939584808e976040519784899551918291018487015e840190683c7061746820643d2760b81b83830152805192839101602983015e0101631390179f60e11b838201520301601b198101845201826119c2565b99611fa3565b9594939291906101ea565b9098604051630e6c328760e31b81528460048201528160248201525f604482015260056064820152602081608481895afa9081156104045788916103d1575b5060206102ec61036093611cde565b9b8d856103655761035a9183600192818061030f6103098c6120d8565b936120d8565b9260405198868a9751918291018489015e8601908282015f8152815193849201905e010190600b60fa1b82528051928391018583015e015f838201520301601f1981018352826119c2565b92611fa3565b610226565b61035a916001848193818061037c6103098d6120d8565b9260405199878b985191829101848a015e870190601360fa1b83830152805192839101602183015e010190600b60fa1b84830152805192839101600283015e01015f838201520301601f1981018352826119c2565b90506020813d82116103fc575b816103eb602093836119c2565b8101031261017557508660206102dd565b3d91506103de565b6040513d5f823e3d90fd5b988461042098939495969798611fb0565b835b8981111561049a57506104886004600961048e9560208080966040519784899551918291018487015e840190683c7061746820643d2760b81b83830152805192839101602983015e0101631390179f60e11b838201520301601b198101845201826119c2565b9a611fa3565b969594939291966101df565b91506040519a630e6c328760e31b8c528560048d01528060248d01525f60448d0152600560648d015260208c6084818a5afa9b8c15610404578d9c610530575b50602061050c926104eb8d93611cde565b9d856105145761035a91836105016001936120d8565b818061030f8b6120d8565b908791610422565b61035a9160018461052582946120d8565b818061037c8c6120d8565b909b506020813d821161055d575b8161054b602093836119c2565b8101031261017557508b9a60206104da565b3d915061053e565b34610175575f36600319011261017557600e546040516001600160a01b039091168152602090f35b34610175575f366003190112610175576020600754604051908152f35b34610175575f366003190112610175575f546001600160a01b031633148015610622575b6105d790611c20565b600654805f52600260205260405f20905f52600a60205260405f20545f5260205260405f2061060f6106098254611aa2565b82611c73565b6010671e17b39f1e17b39f60c11b019055005b50335f9081526001602052604090205460ff166105ce565b34610175576020366003190112610175576004355f52600a602052602060405f2054604051908152f35b346101755761067236611a8c565b905f52600560205260405f20905f526020526106a761069360405f20611ada565b604051918291602083526020830190611b77565b0390f35b34610175575f366003190112610175575f546001600160a01b03163314801561070a575b6106d890611c20565b600854805f52600360205260405f20905f52600b60205260405f20545f5260205260405f2061060f6106098254611aa2565b50335f9081526001602052604090205460ff166106cf565b34610175576020366003190112610175576004356001600160a01b03811690819003610175575f526001602052602060ff60405f2054166040519015158152f35b346101755761077136611a8c565b905f52600460205260405f20905f526020526106a761069360405f20611ada565b34610175575f36600319011261017557602060018060a01b035f54163314604051908152f35b34610175576020366003190112610175576004356001600160a01b03811690819003610175576107f260018060a01b035f54163314611be7565b5f908152600160205260409020805460ff19169055005b34610175575f366003190112610175576020600654604051908152f35b346101755761083436611b9b565b5f546001600160a01b031633148015610c77575b61085190611c20565b61085c600854611cde565b9081600855604051602081019061089f81610891334286909160349282526001600160601b03199060601b1660208201520190565b03601f1981018352826119c2565b519020600e54604051630e6c328760e31b815260048101929092525f6024830152600160448301526127106064830152602090829060849082906001600160a01b03165afa908115610404575f91610c44575b506010610b46926020809681610909601a96612016565b93610ae56040519a8b96610a008289017f3c67207472616e73666f726d3d277472616e736c617465282d3130302c2d313081527f3029207363616c65283329273e3c646566733e3c66696c7465722069643d276760208201527f7269644e6f6973652720783d27302720793d2730272077696474683d2731303060408201527f2527206865696768743d2731303025273e3c666554757262756c656e6365207460608201527f7970653d276672616374616c4e6f6973652720626173654672657175656e637960808201527f3d27302e303127206e756d4f6374617665733d27332720736565643d2700000060a082015260bd0190565b90805192839101825e7f2720726573756c743d276e6f697365272f3e3c6665446973706c6163656d656e91019081527f744d617020696e3d27536f75726365477261706869632720696e323d276e6f6960208201527f736527207363616c653d27302e352720784368616e6e656c53656c6563746f7260408201527f3d27522720794368616e6e656c53656c6563746f723d2747272f3e3c2f66696c60608201527f7465723e3c2f646566733e3c672066696c7465723d2775726c2823677269644e60808201526e6f6973652927207374726f6b653d2760881b60a082015260af0190565b90805192839101825e01906f27207374726f6b652d77696474683d2760801b82528051928391018583015e017f27206f7061636974793d2731272066696c6c3d276e6f6e65273e0000000000008382015203016005198101855201836119c2565b5f52600360205260405f205f805260205260405f20815167ffffffffffffffff8111610c3057610b8081610b7a8454611aa2565b84611c9b565b602092601f8211600114610bd157610bb0929382915f92610bc6575b50508160011b915f199060031b1c19161790565b90555b6008545f908152600b6020526040812055005b015190508480610b9c565b601f19821693835f52805f20915f5b868110610c185750836001959610610c00575b505050811b019055610bb3565b01515f1960f88460031b161c19169055838080610bf3565b91926020600181928685015181550194019201610be0565b634e487b7160e01b5f52604160045260245ffd5b90506020813d602011610c6f575b81610c5f602093836119c2565b81010312610175575160106108f2565b3d9150610c52565b50335f9081526001602052604090205460ff16610848565b3461017557610c9d36611a8c565b905f52600260205260405f20905f526020526106a761069360405f20611ada565b34610175576106a7610693610cd236611a8c565b90611ec2565b34610175576020366003190112610175576004355f52600c602052602060405f2054604051908152f35b34610175576106a7610693610d1636611a8c565b90611dc4565b34610175576020366003190112610175576004356001600160a01b03811690819003610175575f546001600160a01b031633148015610d76575b610d5f90611c20565b6001600160601b0360a01b600e541617600e555f80f35b50335f9081526001602052604090205460ff16610d56565b3461017557610d9c36611b9b565b5f546001600160a01b031633148015610f6e575b610db990611c20565b610dc4600654611cde565b90816006556040516020810190610df981610891334286909160349282526001600160601b03199060601b1660208201520190565b519020600e54604051630e6c328760e31b815260048101929092525f6024830152600160448301526127106064830152602090829060849082906001600160a01b03165afa908115610404575f91610f3b575b506010610e63926020809681610909601a96612016565b5f52600260205260405f205f805260205260405f20815167ffffffffffffffff8111610c3057610e9781610b7a8454611aa2565b602092601f8211600114610edc57610ec6929382915f92610bc65750508160011b915f199060031b1c19161790565b90555b6006545f908152600a6020526040812055005b601f19821693835f52805f20915f5b868110610f235750836001959610610f0b575b505050811b019055610ec9565b01515f1960f88460031b161c19169055838080610efe565b91926020600181928685015181550194019201610eeb565b90506020813d602011610f66575b81610f56602093836119c2565b8101031261017557516010610e4c565b3d9150610f49565b50335f9081526001602052604090205460ff16610db0565b34610175575f366003190112610175575f546001600160a01b031633148015611013575b610fb390611c20565b5f5b60085490815f52600b60205260405f2054811015610ff3576001915f52600360205260405f20815f52602052610fed60405f20611d00565b01610fb5565b6008545f52600b6020525f604081205561100e600854611d4e565b600855005b50335f9081526001602052604090205460ff16610faa565b34610175575f366003190112610175576020600854604051908152f35b346101755761105636611a8c565b905f52600360205260405f20905f526020526106a761069360405f20611ada565b34610175576020366003190112610175576004355f52600b602052602060405f2054604051908152f35b34610175576110af36611a46565b50909260018060a09796971b035f5416331480156114a6575b6110d790959493929195611c20565b6040805142602082019081523360601b6bffffffffffffffffffffffff19169282019290925261110a8160548101610891565b519020600e546060979196916001916001600160a01b031690875b848111156113675750975b8589111561122a5789600654805f52600260205260405f20905f52600a60205260405f20545f5260205260405f20815167ffffffffffffffff8111610c305761117d81610b7a8454611aa2565b602092601f82116001146111cb576111ac929382915f92610bc65750508160011b915f199060031b1c19161790565b90555b6006545f52600a60205260405f206111c78154611cde565b9055005b601f19821693835f52805f20915f5b86811061121257508360019596106111fa575b505050811b0190556111af565b01515f1960f88460031b161c191690558380806111ed565b919260206001819286850151815501940192016111da565b9091929394958097989961123c611fb0565b8a5b878111156112b25750610488600460096112a5959460208080966040519784899551918291018487015e840190683c7061746820643d2760b81b83830152805192839101602983015e0101631390179f60e11b838201520301601b198101845201826119c2565b9796959493929190611130565b9192509460405195630e6c328760e31b87528460048801528160248801525f604488015260056064880152602087608481895afa918215610404578d978a9361132c575b506113239291611307602092611cde565b98856103655761035a9183600192818061030f6103098c6120d8565b9089929161123e565b91925096506020813d821161135f575b81611349602093836119c2565b8101031261017557508b958891906113236112f6565b3d915061133c565b999480969798999293949561137a611fb0565b835b8a8111156113f757506113e3600460096113e9959460208080966040519784899551918291018487015e840190683c7061746820643d2760b81b83830152805192839101602983015e0101631390179f60e11b838201520301601b198101845201826119c2565b9b611fa3565b989796959493929198611125565b9192509560405196630e6c328760e31b88528560048901528160248901525f6044890152600560648901526020886084818a5afa918215610404578e988d9361146b575b50611462929161144c602092611cde565b99856105145761035a91836105016001936120d8565b9088929161137c565b91925097506020813d821161149e575b81611488602093836119c2565b8101031261017557508c968b919061146261143b565b3d915061147b565b50335f9081526001602052604090205460ff166110c8565b34610175576020366003190112610175576004355f52600d602052602060405f2054604051908152f35b34610175575f366003190112610175575f546001600160a01b031633148015611575575b61151590611c20565b5f5b60065490815f52600a60205260405f2054811015611555576001915f52600260205260405f20815f5260205261154f60405f20611d00565b01611517565b6006545f52600a6020525f6040812055611570600654611d4e565b600655005b50335f9081526001602052604090205460ff1661150c565b346101755761159b36611a46565b50909260018060a09796971b035f541633148015611956575b6115c390959493929195611c20565b6040805142602082019081523360601b6bffffffffffffffffffffffff1916928201929092526115f68160548101610891565b519020600e546060979196916001916001600160a01b031690875b848111156118335750975b858911156117125789600854805f52600360205260405f20905f52600b60205260405f20545f5260205260405f20815167ffffffffffffffff8111610c305761166981610b7a8454611aa2565b602092601f82116001146116b357611698929382915f92610bc65750508160011b915f199060031b1c19161790565b90555b6008545f52600b60205260405f206111c78154611cde565b601f19821693835f52805f20915f5b8681106116fa57508360019596106116e2575b505050811b01905561169b565b01515f1960f88460031b161c191690558380806116d5565b919260206001819286850151815501940192016116c2565b90919293949580979899611724611fb0565b8a5b8781111561179a57506104886004600961178d959460208080966040519784899551918291018487015e840190683c7061746820643d2760b81b83830152805192839101602983015e0101631390179f60e11b838201520301601b198101845201826119c2565b979695949392919061161c565b9192509460405195630e6c328760e31b87528460048801528160248801525f604488015260056064880152602087608481895afa918215610404578d978a936117f8575b506117ef9291611307602092611cde565b90899291611726565b91925096506020813d821161182b575b81611815602093836119c2565b8101031261017557508b958891906117ef6117de565b3d9150611808565b9994809697989992939495611846611fb0565b835b8a8111156118bd57506113e3600460096118af959460208080966040519784899551918291018487015e840190683c7061746820643d2760b81b83830152805192839101602983015e0101631390179f60e11b838201520301601b198101845201826119c2565b989796959493929198611611565b9192509560405196630e6c328760e31b88528560048901528160248901525f6044890152600560648901526020886084818a5afa918215610404578e988d9361191b575b50611912929161144c602092611cde565b90889291611848565b91925097506020813d821161194e575b81611938602093836119c2565b8101031261017557508c968b9190611912611901565b3d915061192b565b50335f9081526001602052604090205460ff166115b4565b34610175576020366003190112610175576004356001600160a01b03811690819003610175576119a860018060a01b035f54163314611be7565b5f52600160205260405f20600160ff198254161790555f80f35b90601f8019910116810190811067ffffffffffffffff821117610c3057604052565b67ffffffffffffffff8111610c3057601f01601f191660200190565b81601f8201121561017557803590611a17826119e4565b92611a2560405194856119c2565b8284526020838301011161017557815f926020809301838601378301015290565b60e060031982011261017557600435916024359160443591606435916084359160a4359160c4359067ffffffffffffffff821161017557611a8991600401611a00565b90565b6040906003190112610175576004359060243590565b90600182811c92168015611ad0575b6020831014611abc57565b634e487b7160e01b5f52602260045260245ffd5b91607f1691611ab1565b60405190815f825492611aec84611aa2565b8084529360018116908115611b555750600114611b11575b50611a89925003826119c2565b90505f9291925260205f20905f915b818310611b39575050906020611a89928201015f611b04565b6020919350806001915483858801015201910190918392611b20565b905060209250611a8994915060ff191682840152151560051b8201015f611b04565b805180835260209291819084018484015e5f828201840152601f01601f1916010190565b9060406003198301126101755760043567ffffffffffffffff81116101755782611bc791600401611a00565b916024359067ffffffffffffffff821161017557611a8991600401611a00565b15611bee57565b60405162461bcd60e51b815260206004820152600a6024820152694e6f7420616e6472657760b01b6044820152606490fd5b15611c2757565b60405162461bcd60e51b815260206004820152600e60248201526d139bdd08185d5d1a1bdc9a5e995960921b6044820152606490fd5b818110611c68575050565b5f8155600101611c5d565b90601f8111611c80575050565b611c99915f52601f60205f20910160051c810190611c5d565b565b9190601f8111611caa57505050565b611c99925f5260205f20906020601f840160051c83019310611cd4575b601f0160051c0190611c5d565b9091508190611cc7565b5f198114611cec5760010190565b634e487b7160e01b5f52601160045260245ffd5b611d0a8154611aa2565b9081611d14575050565b81601f5f9311600114611d25575055565b81835260208320611d4191601f0160051c810190600101611c5d565b8082528160208120915555565b8015611cec575f190190565b5f9291815491611d6983611aa2565b9260018116908115611db15750600114611d8257505050565b90919293505f5260205f205f905b838210611d9d5750500190565b600181602092548486015201910190611d90565b60ff191683525050811515909102019150565b600854918215611eab57608460209260018060a01b03600e54166040519586948593630e6c328760e31b8552600485015260248401525f604484015260648301525afa908115610404575f91611e79575b505f9060605b815f52600b60205260405f2054831015611e73576020611e6b600192845f526003835260405f20865f52835261089160405f20846040519584879551918291018387015e840101905f8252611d5a565b920191611e1b565b91505090565b90506020813d602011611ea3575b81611e94602093836119c2565b8101031261017557515f611e15565b3d9150611e87565b505050604051611ebc6020826119c2565b5f815290565b600654918215611eab57608460209260018060a01b03600e54166040519586948593630e6c328760e31b8552600485015260248401525f604484015260648301525afa908115610404575f91611f71575b505f9060605b815f52600a60205260405f2054831015611e73576020611f69600192845f526002835260405f20865f52835261089160405f20846040519584879551918291018387015e840101905f8252611d5a565b920191611f19565b90506020813d602011611f9b575b81611f8c602093836119c2565b8101031261017557515f611f13565b3d9150611f7f565b91908201809211611cec57565b60405190611fbf6040836119c2565b60018252604d60f81b6020830152565b60405190611fde6040836119c2565b60018252600360fc1b6020830152565b8115611ff8570490565b634e487b7160e01b5f52601260045260245ffd5b8115611ff8570690565b80156120cf575f81805b6120bb575061202e816119e4565b9061203c60405192836119c2565b808252601f1961204b826119e4565b013660208401375b809280156120b4575f198201918211611cec578193600a82066030019283603011611cec57845111156120a057600a9260f81b6001600160f81b0319165f1a908401601f01530491612053565b634e487b7160e01b5f52603260045260245ffd5b5050905090565b906120c7600a91611cde565b910480612020565b50611a89611fcf565b80156120cf575f81805b612232575060048111156121735750612710906120ff8282611fee565b916121099161200c565b908115612169576001602092838061212c612126611a8996612016565b93612016565b6040519684889551918291018487015e840190601760f91b83830152805192839101602183015e01015f838201520301601f1981018352826119c2565b611a899150612016565b906040926040516121856040826119c2565b6002815261181760f11b6020820152915f925b8460040360048111611cec578410156121e75760206121df60018281948a519481869251918291018484015e8101600360fc1b838201520301601e198101845201826119c2565b930192612198565b9194506020809450611a8993506121fe8192612016565b6040519584879551918291018487015e8401908282015f8152815193849201905e01015f815203601f1981018352826119c2565b9061223e600a91611cde565b9104806120e256fea26469706673582212202f0e4c8a16888f87cfca7b06bb8907b285fce7e2f567a3aacb8eb582452d979264736f6c634300081d0033",
    "sourcePath": "/Users/andrewmitchell/Desktop/WIP2024/Patina.sol/Patina.sol/src/TextureEngine.sol",
    "compiler": {
        "name": "solc",
        "version": "0.8.29+commit.ab55807c"
    },
    "functionHashes": {
        "addDenseGridTextureChunk(uint256,uint256,uint256,uint256,uint256,uint256,string)": "14883f4a",
        "addSparseGridTextureChunk(uint256,uint256,uint256,uint256,uint256,uint256,string)": "0b9676b5",
        "clearDenseGridTexture()": "0bb591f7",
        "clearSparseGridTexture()": "41e54364",
        "denseGrainTextureChunksCount(uint256)": "5c2b5535",
        "denseGrainTextures(uint256,uint256)": "9303f130",
        "denseGridTextureChunksCount(uint256)": "be5b2255",
        "denseGridTextures(uint256,uint256)": "72889d19",
        "finalizeDenseGridTexture()": "cd08f2e5",
        "finalizeSparseGridTexture()": "9f4fa34c",
        "generateGridTexture(uint256,uint256,uint256,uint256,uint256,uint256,bytes32,uint256,string)": "dcfd92cb",
        "getRandomDenseGridTexture(bytes32,uint256)": "7250a4cb",
        "getRandomSparseGridTexture(bytes32,uint256)": "50b74cb5",
        "grantAccess(address)": "0ae5e739",
        "hasAccess(address)": "95a078e8",
        "initializeDenseGridTexture(string,string)": "427034e5",
        "initializeSparseGridTexture(string,string)": "73bff5e0",
        "isOwner()": "8f32d59b",
        "lastDenseGrainTextureIndex()": "d9e787e5",
        "lastDenseGridTextureIndex()": "7999611f",
        "lastSparseGrainTextureIndex()": "e3d00eb8",
        "lastSparseGridTextureIndex()": "408d8ce7",
        "randomGenerator()": "dcbad90d",
        "revokeAccess(address)": "85e68531",
        "setRandomGenerator(address)": "4bc19fee",
        "sparseGrainTextureChunksCount(uint256)": "1486a29c",
        "sparseGrainTextures(uint256,uint256)": "be341770",
        "sparseGridTextureChunksCount(uint256)": "30009755",
        "sparseGridTextures(uint256,uint256)": "35881447"
    },
    "gasEstimates": {
        "creation": {
            "codeDepositCost": "1765600",
            "executionCost": "infinite",
            "totalCost": "infinite"
        },
        "external": {
            "addDenseGridTextureChunk(uint256,uint256,uint256,uint256,uint256,uint256,string)": "infinite",
            "addSparseGridTextureChunk(uint256,uint256,uint256,uint256,uint256,uint256,string)": "infinite",
            "clearDenseGridTexture()": "infinite",
            "clearSparseGridTexture()": "infinite",
            "denseGrainTextureChunksCount(uint256)": "2577",
            "denseGrainTextures(uint256,uint256)": "infinite",
            "denseGridTextureChunksCount(uint256)": "2819",
            "denseGridTextures(uint256,uint256)": "infinite",
            "finalizeDenseGridTexture()": "infinite",
            "finalizeSparseGridTexture()": "infinite",
            "generateGridTexture(uint256,uint256,uint256,uint256,uint256,uint256,bytes32,uint256,string)": "infinite",
            "getRandomDenseGridTexture(bytes32,uint256)": "infinite",
            "getRandomSparseGridTexture(bytes32,uint256)": "infinite",
            "grantAccess(address)": "26626",
            "hasAccess(address)": "2811",
            "initializeDenseGridTexture(string,string)": "infinite",
            "initializeSparseGridTexture(string,string)": "infinite",
            "isOwner()": "2666",
            "lastDenseGrainTextureIndex()": "2798",
            "lastDenseGridTextureIndex()": "2600",
            "lastSparseGrainTextureIndex()": "2861",
            "lastSparseGridTextureIndex()": "2402",
            "randomGenerator()": "2844",
            "revokeAccess(address)": "26996",
            "setRandomGenerator(address)": "29010",
            "sparseGrainTextureChunksCount(uint256)": "2379",
            "sparseGrainTextures(uint256,uint256)": "infinite",
            "sparseGridTextureChunksCount(uint256)": "2423",
            "sparseGridTextures(uint256,uint256)": "infinite"
        },
        "internal": {
            "toDecimalString(uint256,uint256)": "infinite",
            "toString(uint256)": "infinite"
        }
    }
}