{
	"data": {
		"bytecode": {
			"linkReferences": {},
			"object": "5f600655600160075560c0604052601c60809081527f68747470733a2f2f7777772e6f6d656e74656a6f76656d2e636f6d2f0000000060a052600a9061004590826102ab565b5060408051602081019091525f8152600b9061006190826102ab565b5060408051602081019091525f8152600c9061007d90826102ab565b50348015610089575f80fd5b50604051611c6e380380611c6e8339810160408190526100a891610409565b33806100ce57604051631e4fbdf760e01b81525f60048201526024015b60405180910390fd5b6100d78161015a565b50600380546001600160a01b03191633179055600c6100f684826102ab565b50600b61010383826102ab565b50600980546001600160a01b038087166001600160a01b031992831617909255600580549284169290911691909117905561015173f1da6e2d387e9da611dac8a7fc587eaa4b0100136101a9565b5050505061048f565b5f80546001600160a01b038381166001600160a01b0319831681178455604051919092169283917f8be0079c531659141344cd1fd0a4f28419497f9722a3daafe3b4186f6b6457e09190a35050565b6003546001600160a01b031633146101f05760405162461bcd60e51b815260206004820152600a6024820152694e6f7420616e6472657760b01b60448201526064016100c5565b6001600160a01b03165f908152600460205260409020805460ff19166001179055565b634e487b7160e01b5f52604160045260245ffd5b600181811c9082168061023b57607f821691505b60208210810361025957634e487b7160e01b5f52602260045260245ffd5b50919050565b601f8211156102a657805f5260205f20601f840160051c810160208510156102845750805b601f840160051c820191505b818110156102a3575f8155600101610290565b50505b505050565b81516001600160401b038111156102c4576102c4610213565b6102d8816102d28454610227565b8461025f565b6020601f82116001811461030a575f83156102f35750848201515b5f19600385901b1c1916600184901b1784556102a3565b5f84815260208120601f198516915b828110156103395787850151825560209485019460019092019101610319565b508482101561035657868401515f19600387901b60f8161c191681555b50505050600190811b01905550565b80516001600160a01b038116811461037b575f80fd5b919050565b5f82601f83011261038f575f80fd5b81516001600160401b038111156103a8576103a8610213565b604051601f8201601f19908116603f011681016001600160401b03811182821017156103d6576103d6610213565b6040528181528382016020018510156103ed575f80fd5b8160208501602083015e5f918101602001919091529392505050565b5f805f806080858703121561041c575f80fd5b61042585610365565b60208601519094506001600160401b03811115610440575f80fd5b61044c87828801610380565b604087015190945090506001600160401b03811115610469575f80fd5b61047587828801610380565b92505061048460608601610365565b905092959194509250565b6117d28061049c5f395ff3fe608060405260043610610161575f3560e01c806385e68531116100cd578063c038fe0411610087578063cde4efa911610062578063cde4efa914610407578063d5abeb011461041b578063e9dc63751461042f578063f2fde38b1461044e575f80fd5b8063c038fe04146103aa578063c47f0027146103c9578063c929ccf3146103e8575f80fd5b806385e68531146102d15780638da5cb5b146102f05780638f32d59b1461031657806390c3f38f1461033557806395a078e814610354578063aad61bb61461038b575f80fd5b806331ae450b1161011e57806331ae450b1461023557806337d5ad2b146102565780636a627842146102775780636d73e6691461028a578063715018a6146102a9578063853828b6146102bd575f80fd5b806301ffc9a7146101655780630ae5e7391461019957806318160ddd146101ba57806324d7806c146101d857806326d58ad3146101f75780632d34567014610216575b5f80fd5b348015610170575f80fd5b5061018461017f36600461111f565b61046d565b60405190151581526020015b60405180910390f35b3480156101a4575f80fd5b506101b86101b336600461115a565b6104cd565b005b3480156101c5575f80fd5b506006545b604051908152602001610190565b3480156101e3575f80fd5b506101846101f236600461115a565b61053c565b348015610202575f80fd5b506101b86102113660046111e1565b610573565b348015610221575f80fd5b506101b861023036600461115a565b6105c6565b348015610240575f80fd5b50610249610621565b604051610190919061125b565b348015610261575f80fd5b5061026a6106c5565b60405161019091906112a6565b6101b861028536600461115a565b61079b565b348015610295575f80fd5b506101b86102a436600461115a565b6108ac565b3480156102b4575f80fd5b506101b8610903565b3480156102c8575f80fd5b506101b8610916565b3480156102dc575f80fd5b506101b86102eb36600461115a565b61097b565b3480156102fb575f80fd5b505f546040516001600160a01b039091168152602001610190565b348015610321575f80fd5b506003546001600160a01b03163314610184565b348015610340575f80fd5b506101b861034f3660046111e1565b6109e2565b34801561035f575f80fd5b5061018461036e36600461115a565b6001600160a01b03165f9081526004602052604090205460ff1690565b348015610396575f80fd5b506101b86103a536600461115a565b610a31565b3480156103b5575f80fd5b5061026a6103c43660046111e1565b610a96565b3480156103d4575f80fd5b506101b86103e33660046111e1565b610ac7565b3480156103f3575f80fd5b506101b86104023660046112db565b610b16565b348015610412575f80fd5b506101b8610b5e565b348015610426575f80fd5b506007546101ca565b34801561043a575f80fd5b5061026a6104493660046112f2565b610cae565b348015610459575f80fd5b506101b861046836600461115a565b610cbf565b5f6001600160e01b0319821663e9dc637560e01b148061049d57506001600160e01b031982166353efcf4f60e11b145b806104b857506001600160e01b031982166354c1bcd960e01b145b806104c757506104c782610cf9565b92915050565b6003546001600160a01b031633146105195760405162461bcd60e51b815260206004820152600a6024820152694e6f7420616e6472657760b01b60448201526064015b60405180910390fd5b6001600160a01b03165f908152600460205260409020805460ff19166001179055565b5f816001600160a01b03166105585f546001600160a01b031690565b6001600160a01b031614806104c757506104c7600183610d1d565b6003546001600160a01b031633148061059a5750335f9081526004602052604090205460ff165b6105b65760405162461bcd60e51b81526004016105109061131c565b600a6105c282826113c5565b5050565b6105ce610d3e565b6105d9600182610d1d565b1561061e5760405133906001600160a01b038316907f7c0c3c84c67c85fcac635147348bfe374c24a1a93d0366d1cfe9d8853cbf89d5905f90a36105c2600182610d6a565b50565b606061062d6001610d7e565b67ffffffffffffffff81111561064557610645611175565b60405190808252806020026020018201604052801561066e578160200160208202803683370190505b5090505f5b61067d6001610d7e565b8110156106c15761068f600182610d87565b8282815181106106a1576106a1611480565b6001600160a01b0390921660209283029190910190910152600101610673565b5090565b60605f60055f9054906101000a90046001600160a01b03166001600160a01b031663f3651cbb6040518163ffffffff1660e01b81526004015f60405180830381865afa158015610717573d5f803e3d5ffd5b505050506040513d5f823e601f3d908101601f1916820160405261073e9190810190611494565b90505f610772600c600b600a8560405160200161075e949392919061158e565b604051602081830303815290604052610d92565b9050806040516020016107859190611633565b6040516020818303038152906040529250505090565b6003546001600160a01b03163314806107c25750335f9081526004602052604090205460ff165b6107de5760405162461bcd60e51b81526004016105109061131c565b600754600654106108275760405162461bcd60e51b8152602060048201526013602482015272139bc81b5bdc99481d1bdad95b9cc81b19599d606a1b6044820152606401610510565b600954604051630525194b60e31b81526001600160a01b03838116600483015290911690632928ca58906024016020604051808303815f875af1158015610870573d5f803e3d5ffd5b505050506040513d601f19601f820116820180604052508101906108949190611664565b5060068054905f6108a48361168f565b919050555050565b6108b4610d3e565b6108bf600182610d1d565b61061e5760405133906001600160a01b038316907f7e1a1a08d52e4ba0e21554733d66165fd5151f99460116223d9e3a608eec5cb1905f90a36105c2600182610db8565b61090b610d3e565b6109145f610dcc565b565b6003546001600160a01b031633148061093d5750335f9081526004602052604090205460ff165b6109595760405162461bcd60e51b81526004016105109061131c565b60405133904780156108fc02915f818181858888f19350505050610914575f80fd5b6003546001600160a01b031633146109c25760405162461bcd60e51b815260206004820152600a6024820152694e6f7420616e6472657760b01b6044820152606401610510565b6001600160a01b03165f908152600460205260409020805460ff19169055565b6003546001600160a01b0316331480610a095750335f9081526004602052604090205460ff165b610a255760405162461bcd60e51b81526004016105109061131c565b600b6105c282826113c5565b6003546001600160a01b0316331480610a585750335f9081526004602052604090205460ff165b610a745760405162461bcd60e51b81526004016105109061131c565b600580546001600160a01b0319166001600160a01b0392909216919091179055565b6060610aa182610d92565b604051602001610ab191906116a7565b6040516020818303038152906040529050919050565b6003546001600160a01b0316331480610aee5750335f9081526004602052604090205460ff165b610b0a5760405162461bcd60e51b81526004016105109061131c565b600c6105c282826113c5565b6003546001600160a01b0316331480610b3d5750335f9081526004602052604090205460ff165b610b595760405162461bcd60e51b81526004016105109061131c565b600855565b6008546003546001600160a01b0316331480610b885750335f9081526004602052604090205460ff165b80610c0e57506009546040516331a9108f60e11b8152600481018390526001600160a01b0390911690636352211e90602401602060405180830381865afa158015610bd5573d5f803e3d5ffd5b505050506040513d601f19601f82011682018060405250810190610bf991906116d1565b6001600160a01b0316336001600160a01b0316145b610c495760405162461bcd60e51b815260206004820152600c60248201526b155b985d5d1a1bdc9a5e995960a21b6044820152606401610510565b60055f9054906101000a90046001600160a01b03166001600160a01b031663cde4efa96040518163ffffffff1660e01b81526004015f604051808303815f87803b158015610c95575f80fd5b505af1158015610ca7573d5f803e3d5ffd5b5050505050565b6060610cb86106c5565b9392505050565b610cc7610d3e565b6001600160a01b038116610cf057604051631e4fbdf760e01b81525f6004820152602401610510565b61061e81610dcc565b5f6001600160e01b03198216637005caad60e01b14806104c757506104c782610e1b565b6001600160a01b0381165f9081526001830160205260408120541515610cb8565b5f546001600160a01b031633146109145760405163118cdaa760e01b8152336004820152602401610510565b5f610cb8836001600160a01b038416610e4f565b5f6104c7825490565b5f610cb88383610f32565b60606104c78260405180606001604052806040815260200161175d604091396001610f58565b5f610cb8836001600160a01b0384166110d3565b5f80546001600160a01b038381166001600160a01b0319831681178455604051919092169283917f8be0079c531659141344cd1fd0a4f28419497f9722a3daafe3b4186f6b6457e09190a35050565b5f6001600160e01b03198216632a9f3abf60e11b14806104c757506301ffc9a760e01b6001600160e01b03198316146104c7565b5f8181526001830160205260408120548015610f29575f610e716001836116ec565b85549091505f90610e84906001906116ec565b9050808214610ee3575f865f018281548110610ea257610ea2611480565b905f5260205f200154905080875f018481548110610ec257610ec2611480565b5f918252602080832090910192909255918252600188019052604090208390555b8554869080610ef457610ef46116ff565b600190038181905f5260205f20015f90559055856001015f8681526020019081526020015f205f9055600193505050506104c7565b5f9150506104c7565b5f825f018281548110610f4757610f47611480565b905f5260205f200154905092915050565b606083515f03610f76575060408051602081019091525f8152610cb8565b5f82610fa657600385516004610f8c9190611713565b610f9790600261172a565b610fa1919061173d565b610fcb565b600385516002610fb6919061172a565b610fc0919061173d565b610fcb906004611713565b90505f8167ffffffffffffffff811115610fe757610fe7611175565b6040519080825280601f01601f191660200182016040528015611011576020820181803683370190505b509050600185016020820187885189016020810180515f82525b82841015611086576003840193508351603f8160121c168701518653600186019550603f81600c1c168701518653600186019550603f8160061c168701518653600186019550603f811687015186535060018501945061102b565b9052505085156110c7576003885106600181146110aa57600281146110bd576110c5565b603d6001830353603d60028303536110c5565b603d60018303535b505b50909695505050505050565b5f81815260018301602052604081205461111857508154600181810184555f8481526020808220909301849055845484825282860190935260409020919091556104c7565b505f6104c7565b5f6020828403121561112f575f80fd5b81356001600160e01b031981168114610cb8575f80fd5b6001600160a01b038116811461061e575f80fd5b5f6020828403121561116a575f80fd5b8135610cb881611146565b634e487b7160e01b5f52604160045260245ffd5b604051601f8201601f1916810167ffffffffffffffff811182821017156111b2576111b2611175565b604052919050565b5f67ffffffffffffffff8211156111d3576111d3611175565b50601f01601f191660200190565b5f602082840312156111f1575f80fd5b813567ffffffffffffffff811115611207575f80fd5b8201601f81018413611217575f80fd5b803561122a611225826111ba565b611189565b81815285602083850101111561123e575f80fd5b816020840160208301375f91810160200191909152949350505050565b602080825282518282018190525f918401906040840190835b8181101561129b5783516001600160a01b0316835260209384019390920191600101611274565b509095945050505050565b602081525f82518060208401528060208501604085015e5f604082850101526040601f19601f83011684010191505092915050565b5f602082840312156112eb575f80fd5b5035919050565b5f8060408385031215611303575f80fd5b823561130e81611146565b946020939093013593505050565b6020808252600e908201526d139bdd08185d5d1a1bdc9a5e995960921b604082015260600190565b600181811c9082168061135857607f821691505b60208210810361137657634e487b7160e01b5f52602260045260245ffd5b50919050565b601f8211156113c057805f5260205f20601f840160051c810160208510156113a15750805b601f840160051c820191505b81811015610ca7575f81556001016113ad565b505050565b815167ffffffffffffffff8111156113df576113df611175565b6113f3816113ed8454611344565b8461137c565b6020601f821160018114611425575f831561140e5750848201515b5f19600385901b1c1916600184901b178455610ca7565b5f84815260208120601f198516915b828110156114545787850151825560209485019460019092019101611434565b508482101561147157868401515f19600387901b60f8161c191681555b50505050600190811b01905550565b634e487b7160e01b5f52603260045260245ffd5b5f602082840312156114a4575f80fd5b815167ffffffffffffffff8111156114ba575f80fd5b8201601f810184136114ca575f80fd5b80516114d8611225826111ba565b8181528560208385010111156114ec575f80fd5b8160208401602083015e5f91810160200191909152949350505050565b5f815461151581611344565b60018216801561152c57600181146115415761156e565b60ff198316865281151582028601935061156e565b845f5260205f205f5b838110156115665781548882015260019091019060200161154a565b505081860193505b50505092915050565b5f81518060208401855e5f93019283525090919050565b693d913730b6b2911d101160b11b81525f6115ac600a830187611509565b72111610113232b9b1b934b83a34b7b7111d101160691b81526115d26013820187611509565b731116101132bc3a32b93730b62fbab936111d101160611b815290506115fb6014820186611509565b6c1116101134b6b0b3b2911d101160991b8152905061161d600d820185611577565b61227d60f01b8152600201979650505050505050565b7f646174613a6170706c69636174696f6e2f6a736f6e3b6261736536342c00000081525f610cb8601d830184611577565b5f60208284031215611674575f80fd5b5051919050565b634e487b7160e01b5f52601160045260245ffd5b5f600182016116a0576116a061167b565b5060010190565b7519185d184e9d195e1d0bda1d1b5b0ed8985cd94d8d0b60521b81525f610cb86016830184611577565b5f602082840312156116e1575f80fd5b8151610cb881611146565b818103818111156104c7576104c761167b565b634e487b7160e01b5f52603160045260245ffd5b80820281158282048414176104c7576104c761167b565b808201808211156104c7576104c761167b565b5f8261175757634e487b7160e01b5f52601260045260245ffd5b50049056fe4142434445464748494a4b4c4d4e4f505152535455565758595a6162636465666768696a6b6c6d6e6f707172737475767778797a303132333435363738392b2fa26469706673582212209d57eb6580771d9004d59201ecbbf7ce7cdc33b1616f89cc9635be4de3179c6764736f6c634300081a0033",
			"opcodes": "PUSH0 PUSH1 0x6 SSTORE PUSH1 0x1 PUSH1 0x7 SSTORE PUSH1 0xC0 PUSH1 0x40 MSTORE PUSH1 0x1C PUSH1 0x80 SWAP1 DUP2 MSTORE PUSH32 0x68747470733A2F2F7777772E6F6D656E74656A6F76656D2E636F6D2F00000000 PUSH1 0xA0 MSTORE PUSH1 0xA SWAP1 PUSH2 0x45 SWAP1 DUP3 PUSH2 0x2AB JUMP JUMPDEST POP PUSH1 0x40 DUP1 MLOAD PUSH1 0x20 DUP2 ADD SWAP1 SWAP2 MSTORE PUSH0 DUP2 MSTORE PUSH1 0xB SWAP1 PUSH2 0x61 SWAP1 DUP3 PUSH2 0x2AB JUMP JUMPDEST POP PUSH1 0x40 DUP1 MLOAD PUSH1 0x20 DUP2 ADD SWAP1 SWAP2 MSTORE PUSH0 DUP2 MSTORE PUSH1 0xC SWAP1 PUSH2 0x7D SWAP1 DUP3 PUSH2 0x2AB JUMP JUMPDEST POP CALLVALUE DUP1 ISZERO PUSH2 0x89 JUMPI PUSH0 DUP1 REVERT JUMPDEST POP PUSH1 0x40 MLOAD PUSH2 0x1C6E CODESIZE SUB DUP1 PUSH2 0x1C6E DUP4 CODECOPY DUP2 ADD PUSH1 0x40 DUP2 SWAP1 MSTORE PUSH2 0xA8 SWAP2 PUSH2 0x409 JUMP JUMPDEST CALLER DUP1 PUSH2 0xCE JUMPI PUSH1 0x40 MLOAD PUSH4 0x1E4FBDF7 PUSH1 0xE0 SHL DUP2 MSTORE PUSH0 PUSH1 0x4 DUP3 ADD MSTORE PUSH1 0x24 ADD JUMPDEST PUSH1 0x40 MLOAD DUP1 SWAP2 SUB SWAP1 REVERT JUMPDEST PUSH2 0xD7 DUP2 PUSH2 0x15A JUMP JUMPDEST POP PUSH1 0x3 DUP1 SLOAD PUSH1 0x1 PUSH1 0x1 PUSH1 0xA0 SHL SUB NOT AND CALLER OR SWAP1 SSTORE PUSH1 0xC PUSH2 0xF6 DUP5 DUP3 PUSH2 0x2AB JUMP JUMPDEST POP PUSH1 0xB PUSH2 0x103 DUP4 DUP3 PUSH2 0x2AB JUMP JUMPDEST POP PUSH1 0x9 DUP1 SLOAD PUSH1 0x1 PUSH1 0x1 PUSH1 0xA0 SHL SUB DUP1 DUP8 AND PUSH1 0x1 PUSH1 0x1 PUSH1 0xA0 SHL SUB NOT SWAP3 DUP4 AND OR SWAP1 SWAP3 SSTORE PUSH1 0x5 DUP1 SLOAD SWAP3 DUP5 AND SWAP3 SWAP1 SWAP2 AND SWAP2 SWAP1 SWAP2 OR SWAP1 SSTORE PUSH2 0x151 PUSH20 0xF1DA6E2D387E9DA611DAC8A7FC587EAA4B010013 PUSH2 0x1A9 JUMP JUMPDEST POP POP POP POP PUSH2 0x48F JUMP JUMPDEST PUSH0 DUP1 SLOAD PUSH1 0x1 PUSH1 0x1 PUSH1 0xA0 SHL SUB DUP4 DUP2 AND PUSH1 0x1 PUSH1 0x1 PUSH1 0xA0 SHL SUB NOT DUP4 AND DUP2 OR DUP5 SSTORE PUSH1 0x40 MLOAD SWAP2 SWAP1 SWAP3 AND SWAP3 DUP4 SWAP2 PUSH32 0x8BE0079C531659141344CD1FD0A4F28419497F9722A3DAAFE3B4186F6B6457E0 SWAP2 SWAP1 LOG3 POP POP JUMP JUMPDEST PUSH1 0x3 SLOAD PUSH1 0x1 PUSH1 0x1 PUSH1 0xA0 SHL SUB AND CALLER EQ PUSH2 0x1F0 JUMPI PUSH1 0x40 MLOAD PUSH3 0x461BCD PUSH1 0xE5 SHL DUP2 MSTORE PUSH1 0x20 PUSH1 0x4 DUP3 ADD MSTORE PUSH1 0xA PUSH1 0x24 DUP3 ADD MSTORE PUSH10 0x4E6F7420616E64726577 PUSH1 0xB0 SHL PUSH1 0x44 DUP3 ADD MSTORE PUSH1 0x64 ADD PUSH2 0xC5 JUMP JUMPDEST PUSH1 0x1 PUSH1 0x1 PUSH1 0xA0 SHL SUB AND PUSH0 SWAP1 DUP2 MSTORE PUSH1 0x4 PUSH1 0x20 MSTORE PUSH1 0x40 SWAP1 KECCAK256 DUP1 SLOAD PUSH1 0xFF NOT AND PUSH1 0x1 OR SWAP1 SSTORE JUMP JUMPDEST PUSH4 0x4E487B71 PUSH1 0xE0 SHL PUSH0 MSTORE PUSH1 0x41 PUSH1 0x4 MSTORE PUSH1 0x24 PUSH0 REVERT JUMPDEST PUSH1 0x1 DUP2 DUP2 SHR SWAP1 DUP3 AND DUP1 PUSH2 0x23B JUMPI PUSH1 0x7F DUP3 AND SWAP2 POP JUMPDEST PUSH1 0x20 DUP3 LT DUP2 SUB PUSH2 0x259 JUMPI PUSH4 0x4E487B71 PUSH1 0xE0 SHL PUSH0 MSTORE PUSH1 0x22 PUSH1 0x4 MSTORE PUSH1 0x24 PUSH0 REVERT JUMPDEST POP SWAP2 SWAP1 POP JUMP JUMPDEST PUSH1 0x1F DUP3 GT ISZERO PUSH2 0x2A6 JUMPI DUP1 PUSH0 MSTORE PUSH1 0x20 PUSH0 KECCAK256 PUSH1 0x1F DUP5 ADD PUSH1 0x5 SHR DUP2 ADD PUSH1 0x20 DUP6 LT ISZERO PUSH2 0x284 JUMPI POP DUP1 JUMPDEST PUSH1 0x1F DUP5 ADD PUSH1 0x5 SHR DUP3 ADD SWAP2 POP JUMPDEST DUP2 DUP2 LT ISZERO PUSH2 0x2A3 JUMPI PUSH0 DUP2 SSTORE PUSH1 0x1 ADD PUSH2 0x290 JUMP JUMPDEST POP POP JUMPDEST POP POP POP JUMP JUMPDEST DUP2 MLOAD PUSH1 0x1 PUSH1 0x1 PUSH1 0x40 SHL SUB DUP2 GT ISZERO PUSH2 0x2C4 JUMPI PUSH2 0x2C4 PUSH2 0x213 JUMP JUMPDEST PUSH2 0x2D8 DUP2 PUSH2 0x2D2 DUP5 SLOAD PUSH2 0x227 JUMP JUMPDEST DUP5 PUSH2 0x25F JUMP JUMPDEST PUSH1 0x20 PUSH1 0x1F DUP3 GT PUSH1 0x1 DUP2 EQ PUSH2 0x30A JUMPI PUSH0 DUP4 ISZERO PUSH2 0x2F3 JUMPI POP DUP5 DUP3 ADD MLOAD JUMPDEST PUSH0 NOT PUSH1 0x3 DUP6 SWAP1 SHL SHR NOT AND PUSH1 0x1 DUP5 SWAP1 SHL OR DUP5 SSTORE PUSH2 0x2A3 JUMP JUMPDEST PUSH0 DUP5 DUP2 MSTORE PUSH1 0x20 DUP2 KECCAK256 PUSH1 0x1F NOT DUP6 AND SWAP2 JUMPDEST DUP3 DUP2 LT ISZERO PUSH2 0x339 JUMPI DUP8 DUP6 ADD MLOAD DUP3 SSTORE PUSH1 0x20 SWAP5 DUP6 ADD SWAP5 PUSH1 0x1 SWAP1 SWAP3 ADD SWAP2 ADD PUSH2 0x319 JUMP JUMPDEST POP DUP5 DUP3 LT ISZERO PUSH2 0x356 JUMPI DUP7 DUP5 ADD MLOAD PUSH0 NOT PUSH1 0x3 DUP8 SWAP1 SHL PUSH1 0xF8 AND SHR NOT AND DUP2 SSTORE JUMPDEST POP POP POP POP PUSH1 0x1 SWAP1 DUP2 SHL ADD SWAP1 SSTORE POP JUMP JUMPDEST DUP1 MLOAD PUSH1 0x1 PUSH1 0x1 PUSH1 0xA0 SHL SUB DUP2 AND DUP2 EQ PUSH2 0x37B JUMPI PUSH0 DUP1 REVERT JUMPDEST SWAP2 SWAP1 POP JUMP JUMPDEST PUSH0 DUP3 PUSH1 0x1F DUP4 ADD SLT PUSH2 0x38F JUMPI PUSH0 DUP1 REVERT JUMPDEST DUP2 MLOAD PUSH1 0x1 PUSH1 0x1 PUSH1 0x40 SHL SUB DUP2 GT ISZERO PUSH2 0x3A8 JUMPI PUSH2 0x3A8 PUSH2 0x213 JUMP JUMPDEST PUSH1 0x40 MLOAD PUSH1 0x1F DUP3 ADD PUSH1 0x1F NOT SWAP1 DUP2 AND PUSH1 0x3F ADD AND DUP2 ADD PUSH1 0x1 PUSH1 0x1 PUSH1 0x40 SHL SUB DUP2 GT DUP3 DUP3 LT OR ISZERO PUSH2 0x3D6 JUMPI PUSH2 0x3D6 PUSH2 0x213 JUMP JUMPDEST PUSH1 0x40 MSTORE DUP2 DUP2 MSTORE DUP4 DUP3 ADD PUSH1 0x20 ADD DUP6 LT ISZERO PUSH2 0x3ED JUMPI PUSH0 DUP1 REVERT JUMPDEST DUP2 PUSH1 0x20 DUP6 ADD PUSH1 0x20 DUP4 ADD MCOPY PUSH0 SWAP2 DUP2 ADD PUSH1 0x20 ADD SWAP2 SWAP1 SWAP2 MSTORE SWAP4 SWAP3 POP POP POP JUMP JUMPDEST PUSH0 DUP1 PUSH0 DUP1 PUSH1 0x80 DUP6 DUP8 SUB SLT ISZERO PUSH2 0x41C JUMPI PUSH0 DUP1 REVERT JUMPDEST PUSH2 0x425 DUP6 PUSH2 0x365 JUMP JUMPDEST PUSH1 0x20 DUP7 ADD MLOAD SWAP1 SWAP5 POP PUSH1 0x1 PUSH1 0x1 PUSH1 0x40 SHL SUB DUP2 GT ISZERO PUSH2 0x440 JUMPI PUSH0 DUP1 REVERT JUMPDEST PUSH2 0x44C DUP8 DUP3 DUP9 ADD PUSH2 0x380 JUMP JUMPDEST PUSH1 0x40 DUP8 ADD MLOAD SWAP1 SWAP5 POP SWAP1 POP PUSH1 0x1 PUSH1 0x1 PUSH1 0x40 SHL SUB DUP2 GT ISZERO PUSH2 0x469 JUMPI PUSH0 DUP1 REVERT JUMPDEST PUSH2 0x475 DUP8 DUP3 DUP9 ADD PUSH2 0x380 JUMP JUMPDEST SWAP3 POP POP PUSH2 0x484 PUSH1 0x60 DUP7 ADD PUSH2 0x365 JUMP JUMPDEST SWAP1 POP SWAP3 SWAP6 SWAP2 SWAP5 POP SWAP3 POP JUMP JUMPDEST PUSH2 0x17D2 DUP1 PUSH2 0x49C PUSH0 CODECOPY PUSH0 RETURN INVALID PUSH1 0x80 PUSH1 0x40 MSTORE PUSH1 0x4 CALLDATASIZE LT PUSH2 0x161 JUMPI PUSH0 CALLDATALOAD PUSH1 0xE0 SHR DUP1 PUSH4 0x85E68531 GT PUSH2 0xCD JUMPI DUP1 PUSH4 0xC038FE04 GT PUSH2 0x87 JUMPI DUP1 PUSH4 0xCDE4EFA9 GT PUSH2 0x62 JUMPI DUP1 PUSH4 0xCDE4EFA9 EQ PUSH2 0x407 JUMPI DUP1 PUSH4 0xD5ABEB01 EQ PUSH2 0x41B JUMPI DUP1 PUSH4 0xE9DC6375 EQ PUSH2 0x42F JUMPI DUP1 PUSH4 0xF2FDE38B EQ PUSH2 0x44E JUMPI PUSH0 DUP1 REVERT JUMPDEST DUP1 PUSH4 0xC038FE04 EQ PUSH2 0x3AA JUMPI DUP1 PUSH4 0xC47F0027 EQ PUSH2 0x3C9 JUMPI DUP1 PUSH4 0xC929CCF3 EQ PUSH2 0x3E8 JUMPI PUSH0 DUP1 REVERT JUMPDEST DUP1 PUSH4 0x85E68531 EQ PUSH2 0x2D1 JUMPI DUP1 PUSH4 0x8DA5CB5B EQ PUSH2 0x2F0 JUMPI DUP1 PUSH4 0x8F32D59B EQ PUSH2 0x316 JUMPI DUP1 PUSH4 0x90C3F38F EQ PUSH2 0x335 JUMPI DUP1 PUSH4 0x95A078E8 EQ PUSH2 0x354 JUMPI DUP1 PUSH4 0xAAD61BB6 EQ PUSH2 0x38B JUMPI PUSH0 DUP1 REVERT JUMPDEST DUP1 PUSH4 0x31AE450B GT PUSH2 0x11E JUMPI DUP1 PUSH4 0x31AE450B EQ PUSH2 0x235 JUMPI DUP1 PUSH4 0x37D5AD2B EQ PUSH2 0x256 JUMPI DUP1 PUSH4 0x6A627842 EQ PUSH2 0x277 JUMPI DUP1 PUSH4 0x6D73E669 EQ PUSH2 0x28A JUMPI DUP1 PUSH4 0x715018A6 EQ PUSH2 0x2A9 JUMPI DUP1 PUSH4 0x853828B6 EQ PUSH2 0x2BD JUMPI PUSH0 DUP1 REVERT JUMPDEST DUP1 PUSH4 0x1FFC9A7 EQ PUSH2 0x165 JUMPI DUP1 PUSH4 0xAE5E739 EQ PUSH2 0x199 JUMPI DUP1 PUSH4 0x18160DDD EQ PUSH2 0x1BA JUMPI DUP1 PUSH4 0x24D7806C EQ PUSH2 0x1D8 JUMPI DUP1 PUSH4 0x26D58AD3 EQ PUSH2 0x1F7 JUMPI DUP1 PUSH4 0x2D345670 EQ PUSH2 0x216 JUMPI JUMPDEST PUSH0 DUP1 REVERT JUMPDEST CALLVALUE DUP1 ISZERO PUSH2 0x170 JUMPI PUSH0 DUP1 REVERT JUMPDEST POP PUSH2 0x184 PUSH2 0x17F CALLDATASIZE PUSH1 0x4 PUSH2 0x111F JUMP JUMPDEST PUSH2 0x46D JUMP JUMPDEST PUSH1 0x40 MLOAD SWAP1 ISZERO ISZERO DUP2 MSTORE PUSH1 0x20 ADD JUMPDEST PUSH1 0x40 MLOAD DUP1 SWAP2 SUB SWAP1 RETURN JUMPDEST CALLVALUE DUP1 ISZERO PUSH2 0x1A4 JUMPI PUSH0 DUP1 REVERT JUMPDEST POP PUSH2 0x1B8 PUSH2 0x1B3 CALLDATASIZE PUSH1 0x4 PUSH2 0x115A JUMP JUMPDEST PUSH2 0x4CD JUMP JUMPDEST STOP JUMPDEST CALLVALUE DUP1 ISZERO PUSH2 0x1C5 JUMPI PUSH0 DUP1 REVERT JUMPDEST POP PUSH1 0x6 SLOAD JUMPDEST PUSH1 0x40 MLOAD SWAP1 DUP2 MSTORE PUSH1 0x20 ADD PUSH2 0x190 JUMP JUMPDEST CALLVALUE DUP1 ISZERO PUSH2 0x1E3 JUMPI PUSH0 DUP1 REVERT JUMPDEST POP PUSH2 0x184 PUSH2 0x1F2 CALLDATASIZE PUSH1 0x4 PUSH2 0x115A JUMP JUMPDEST PUSH2 0x53C JUMP JUMPDEST CALLVALUE DUP1 ISZERO PUSH2 0x202 JUMPI PUSH0 DUP1 REVERT JUMPDEST POP PUSH2 0x1B8 PUSH2 0x211 CALLDATASIZE PUSH1 0x4 PUSH2 0x11E1 JUMP JUMPDEST PUSH2 0x573 JUMP JUMPDEST CALLVALUE DUP1 ISZERO PUSH2 0x221 JUMPI PUSH0 DUP1 REVERT JUMPDEST POP PUSH2 0x1B8 PUSH2 0x230 CALLDATASIZE PUSH1 0x4 PUSH2 0x115A JUMP JUMPDEST PUSH2 0x5C6 JUMP JUMPDEST CALLVALUE DUP1 ISZERO PUSH2 0x240 JUMPI PUSH0 DUP1 REVERT JUMPDEST POP PUSH2 0x249 PUSH2 0x621 JUMP JUMPDEST PUSH1 0x40 MLOAD PUSH2 0x190 SWAP2 SWAP1 PUSH2 0x125B JUMP JUMPDEST CALLVALUE DUP1 ISZERO PUSH2 0x261 JUMPI PUSH0 DUP1 REVERT JUMPDEST POP PUSH2 0x26A PUSH2 0x6C5 JUMP JUMPDEST PUSH1 0x40 MLOAD PUSH2 0x190 SWAP2 SWAP1 PUSH2 0x12A6 JUMP JUMPDEST PUSH2 0x1B8 PUSH2 0x285 CALLDATASIZE PUSH1 0x4 PUSH2 0x115A JUMP JUMPDEST PUSH2 0x79B JUMP JUMPDEST CALLVALUE DUP1 ISZERO PUSH2 0x295 JUMPI PUSH0 DUP1 REVERT JUMPDEST POP PUSH2 0x1B8 PUSH2 0x2A4 CALLDATASIZE PUSH1 0x4 PUSH2 0x115A JUMP JUMPDEST PUSH2 0x8AC JUMP JUMPDEST CALLVALUE DUP1 ISZERO PUSH2 0x2B4 JUMPI PUSH0 DUP1 REVERT JUMPDEST POP PUSH2 0x1B8 PUSH2 0x903 JUMP JUMPDEST CALLVALUE DUP1 ISZERO PUSH2 0x2C8 JUMPI PUSH0 DUP1 REVERT JUMPDEST POP PUSH2 0x1B8 PUSH2 0x916 JUMP JUMPDEST CALLVALUE DUP1 ISZERO PUSH2 0x2DC JUMPI PUSH0 DUP1 REVERT JUMPDEST POP PUSH2 0x1B8 PUSH2 0x2EB CALLDATASIZE PUSH1 0x4 PUSH2 0x115A JUMP JUMPDEST PUSH2 0x97B JUMP JUMPDEST CALLVALUE DUP1 ISZERO PUSH2 0x2FB JUMPI PUSH0 DUP1 REVERT JUMPDEST POP PUSH0 SLOAD PUSH1 0x40 MLOAD PUSH1 0x1 PUSH1 0x1 PUSH1 0xA0 SHL SUB SWAP1 SWAP2 AND DUP2 MSTORE PUSH1 0x20 ADD PUSH2 0x190 JUMP JUMPDEST CALLVALUE DUP1 ISZERO PUSH2 0x321 JUMPI PUSH0 DUP1 REVERT JUMPDEST POP PUSH1 0x3 SLOAD PUSH1 0x1 PUSH1 0x1 PUSH1 0xA0 SHL SUB AND CALLER EQ PUSH2 0x184 JUMP JUMPDEST CALLVALUE DUP1 ISZERO PUSH2 0x340 JUMPI PUSH0 DUP1 REVERT JUMPDEST POP PUSH2 0x1B8 PUSH2 0x34F CALLDATASIZE PUSH1 0x4 PUSH2 0x11E1 JUMP JUMPDEST PUSH2 0x9E2 JUMP JUMPDEST CALLVALUE DUP1 ISZERO PUSH2 0x35F JUMPI PUSH0 DUP1 REVERT JUMPDEST POP PUSH2 0x184 PUSH2 0x36E CALLDATASIZE PUSH1 0x4 PUSH2 0x115A JUMP JUMPDEST PUSH1 0x1 PUSH1 0x1 PUSH1 0xA0 SHL SUB AND PUSH0 SWAP1 DUP2 MSTORE PUSH1 0x4 PUSH1 0x20 MSTORE PUSH1 0x40 SWAP1 KECCAK256 SLOAD PUSH1 0xFF AND SWAP1 JUMP JUMPDEST CALLVALUE DUP1 ISZERO PUSH2 0x396 JUMPI PUSH0 DUP1 REVERT JUMPDEST POP PUSH2 0x1B8 PUSH2 0x3A5 CALLDATASIZE PUSH1 0x4 PUSH2 0x115A JUMP JUMPDEST PUSH2 0xA31 JUMP JUMPDEST CALLVALUE DUP1 ISZERO PUSH2 0x3B5 JUMPI PUSH0 DUP1 REVERT JUMPDEST POP PUSH2 0x26A PUSH2 0x3C4 CALLDATASIZE PUSH1 0x4 PUSH2 0x11E1 JUMP JUMPDEST PUSH2 0xA96 JUMP JUMPDEST CALLVALUE DUP1 ISZERO PUSH2 0x3D4 JUMPI PUSH0 DUP1 REVERT JUMPDEST POP PUSH2 0x1B8 PUSH2 0x3E3 CALLDATASIZE PUSH1 0x4 PUSH2 0x11E1 JUMP JUMPDEST PUSH2 0xAC7 JUMP JUMPDEST CALLVALUE DUP1 ISZERO PUSH2 0x3F3 JUMPI PUSH0 DUP1 REVERT JUMPDEST POP PUSH2 0x1B8 PUSH2 0x402 CALLDATASIZE PUSH1 0x4 PUSH2 0x12DB JUMP JUMPDEST PUSH2 0xB16 JUMP JUMPDEST CALLVALUE DUP1 ISZERO PUSH2 0x412 JUMPI PUSH0 DUP1 REVERT JUMPDEST POP PUSH2 0x1B8 PUSH2 0xB5E JUMP JUMPDEST CALLVALUE DUP1 ISZERO PUSH2 0x426 JUMPI PUSH0 DUP1 REVERT JUMPDEST POP PUSH1 0x7 SLOAD PUSH2 0x1CA JUMP JUMPDEST CALLVALUE DUP1 ISZERO PUSH2 0x43A JUMPI PUSH0 DUP1 REVERT JUMPDEST POP PUSH2 0x26A PUSH2 0x449 CALLDATASIZE PUSH1 0x4 PUSH2 0x12F2 JUMP JUMPDEST PUSH2 0xCAE JUMP JUMPDEST CALLVALUE DUP1 ISZERO PUSH2 0x459 JUMPI PUSH0 DUP1 REVERT JUMPDEST POP PUSH2 0x1B8 PUSH2 0x468 CALLDATASIZE PUSH1 0x4 PUSH2 0x115A JUMP JUMPDEST PUSH2 0xCBF JUMP JUMPDEST PUSH0 PUSH1 0x1 PUSH1 0x1 PUSH1 0xE0 SHL SUB NOT DUP3 AND PUSH4 0xE9DC6375 PUSH1 0xE0 SHL EQ DUP1 PUSH2 0x49D JUMPI POP PUSH1 0x1 PUSH1 0x1 PUSH1 0xE0 SHL SUB NOT DUP3 AND PUSH4 0x53EFCF4F PUSH1 0xE1 SHL EQ JUMPDEST DUP1 PUSH2 0x4B8 JUMPI POP PUSH1 0x1 PUSH1 0x1 PUSH1 0xE0 SHL SUB NOT DUP3 AND PUSH4 0x54C1BCD9 PUSH1 0xE0 SHL EQ JUMPDEST DUP1 PUSH2 0x4C7 JUMPI POP PUSH2 0x4C7 DUP3 PUSH2 0xCF9 JUMP JUMPDEST SWAP3 SWAP2 POP POP JUMP JUMPDEST PUSH1 0x3 SLOAD PUSH1 0x1 PUSH1 0x1 PUSH1 0xA0 SHL SUB AND CALLER EQ PUSH2 0x519 JUMPI PUSH1 0x40 MLOAD PUSH3 0x461BCD PUSH1 0xE5 SHL DUP2 MSTORE PUSH1 0x20 PUSH1 0x4 DUP3 ADD MSTORE PUSH1 0xA PUSH1 0x24 DUP3 ADD MSTORE PUSH10 0x4E6F7420616E64726577 PUSH1 0xB0 SHL PUSH1 0x44 DUP3 ADD MSTORE PUSH1 0x64 ADD JUMPDEST PUSH1 0x40 MLOAD DUP1 SWAP2 SUB SWAP1 REVERT JUMPDEST PUSH1 0x1 PUSH1 0x1 PUSH1 0xA0 SHL SUB AND PUSH0 SWAP1 DUP2 MSTORE PUSH1 0x4 PUSH1 0x20 MSTORE PUSH1 0x40 SWAP1 KECCAK256 DUP1 SLOAD PUSH1 0xFF NOT AND PUSH1 0x1 OR SWAP1 SSTORE JUMP JUMPDEST PUSH0 DUP2 PUSH1 0x1 PUSH1 0x1 PUSH1 0xA0 SHL SUB AND PUSH2 0x558 PUSH0 SLOAD PUSH1 0x1 PUSH1 0x1 PUSH1 0xA0 SHL SUB AND SWAP1 JUMP JUMPDEST PUSH1 0x1 PUSH1 0x1 PUSH1 0xA0 SHL SUB AND EQ DUP1 PUSH2 0x4C7 JUMPI POP PUSH2 0x4C7 PUSH1 0x1 DUP4 PUSH2 0xD1D JUMP JUMPDEST PUSH1 0x3 SLOAD PUSH1 0x1 PUSH1 0x1 PUSH1 0xA0 SHL SUB AND CALLER EQ DUP1 PUSH2 0x59A JUMPI POP CALLER PUSH0 SWAP1 DUP2 MSTORE PUSH1 0x4 PUSH1 0x20 MSTORE PUSH1 0x40 SWAP1 KECCAK256 SLOAD PUSH1 0xFF AND JUMPDEST PUSH2 0x5B6 JUMPI PUSH1 0x40 MLOAD PUSH3 0x461BCD PUSH1 0xE5 SHL DUP2 MSTORE PUSH1 0x4 ADD PUSH2 0x510 SWAP1 PUSH2 0x131C JUMP JUMPDEST PUSH1 0xA PUSH2 0x5C2 DUP3 DUP3 PUSH2 0x13C5 JUMP JUMPDEST POP POP JUMP JUMPDEST PUSH2 0x5CE PUSH2 0xD3E JUMP JUMPDEST PUSH2 0x5D9 PUSH1 0x1 DUP3 PUSH2 0xD1D JUMP JUMPDEST ISZERO PUSH2 0x61E JUMPI PUSH1 0x40 MLOAD CALLER SWAP1 PUSH1 0x1 PUSH1 0x1 PUSH1 0xA0 SHL SUB DUP4 AND SWAP1 PUSH32 0x7C0C3C84C67C85FCAC635147348BFE374C24A1A93D0366D1CFE9D8853CBF89D5 SWAP1 PUSH0 SWAP1 LOG3 PUSH2 0x5C2 PUSH1 0x1 DUP3 PUSH2 0xD6A JUMP JUMPDEST POP JUMP JUMPDEST PUSH1 0x60 PUSH2 0x62D PUSH1 0x1 PUSH2 0xD7E JUMP JUMPDEST PUSH8 0xFFFFFFFFFFFFFFFF DUP2 GT ISZERO PUSH2 0x645 JUMPI PUSH2 0x645 PUSH2 0x1175 JUMP JUMPDEST PUSH1 0x40 MLOAD SWAP1 DUP1 DUP3 MSTORE DUP1 PUSH1 0x20 MUL PUSH1 0x20 ADD DUP3 ADD PUSH1 0x40 MSTORE DUP1 ISZERO PUSH2 0x66E JUMPI DUP2 PUSH1 0x20 ADD PUSH1 0x20 DUP3 MUL DUP1 CALLDATASIZE DUP4 CALLDATACOPY ADD SWAP1 POP JUMPDEST POP SWAP1 POP PUSH0 JUMPDEST PUSH2 0x67D PUSH1 0x1 PUSH2 0xD7E JUMP JUMPDEST DUP2 LT ISZERO PUSH2 0x6C1 JUMPI PUSH2 0x68F PUSH1 0x1 DUP3 PUSH2 0xD87 JUMP JUMPDEST DUP3 DUP3 DUP2 MLOAD DUP2 LT PUSH2 0x6A1 JUMPI PUSH2 0x6A1 PUSH2 0x1480 JUMP JUMPDEST PUSH1 0x1 PUSH1 0x1 PUSH1 0xA0 SHL SUB SWAP1 SWAP3 AND PUSH1 0x20 SWAP3 DUP4 MUL SWAP2 SWAP1 SWAP2 ADD SWAP1 SWAP2 ADD MSTORE PUSH1 0x1 ADD PUSH2 0x673 JUMP JUMPDEST POP SWAP1 JUMP JUMPDEST PUSH1 0x60 PUSH0 PUSH1 0x5 PUSH0 SWAP1 SLOAD SWAP1 PUSH2 0x100 EXP SWAP1 DIV PUSH1 0x1 PUSH1 0x1 PUSH1 0xA0 SHL SUB AND PUSH1 0x1 PUSH1 0x1 PUSH1 0xA0 SHL SUB AND PUSH4 0xF3651CBB PUSH1 0x40 MLOAD DUP2 PUSH4 0xFFFFFFFF AND PUSH1 0xE0 SHL DUP2 MSTORE PUSH1 0x4 ADD PUSH0 PUSH1 0x40 MLOAD DUP1 DUP4 SUB DUP2 DUP7 GAS STATICCALL ISZERO DUP1 ISZERO PUSH2 0x717 JUMPI RETURNDATASIZE PUSH0 DUP1 RETURNDATACOPY RETURNDATASIZE PUSH0 REVERT JUMPDEST POP POP POP POP PUSH1 0x40 MLOAD RETURNDATASIZE PUSH0 DUP3 RETURNDATACOPY PUSH1 0x1F RETURNDATASIZE SWAP1 DUP2 ADD PUSH1 0x1F NOT AND DUP3 ADD PUSH1 0x40 MSTORE PUSH2 0x73E SWAP2 SWAP1 DUP2 ADD SWAP1 PUSH2 0x1494 JUMP JUMPDEST SWAP1 POP PUSH0 PUSH2 0x772 PUSH1 0xC PUSH1 0xB PUSH1 0xA DUP6 PUSH1 0x40 MLOAD PUSH1 0x20 ADD PUSH2 0x75E SWAP5 SWAP4 SWAP3 SWAP2 SWAP1 PUSH2 0x158E JUMP JUMPDEST PUSH1 0x40 MLOAD PUSH1 0x20 DUP2 DUP4 SUB SUB DUP2 MSTORE SWAP1 PUSH1 0x40 MSTORE PUSH2 0xD92 JUMP JUMPDEST SWAP1 POP DUP1 PUSH1 0x40 MLOAD PUSH1 0x20 ADD PUSH2 0x785 SWAP2 SWAP1 PUSH2 0x1633 JUMP JUMPDEST PUSH1 0x40 MLOAD PUSH1 0x20 DUP2 DUP4 SUB SUB DUP2 MSTORE SWAP1 PUSH1 0x40 MSTORE SWAP3 POP POP POP SWAP1 JUMP JUMPDEST PUSH1 0x3 SLOAD PUSH1 0x1 PUSH1 0x1 PUSH1 0xA0 SHL SUB AND CALLER EQ DUP1 PUSH2 0x7C2 JUMPI POP CALLER PUSH0 SWAP1 DUP2 MSTORE PUSH1 0x4 PUSH1 0x20 MSTORE PUSH1 0x40 SWAP1 KECCAK256 SLOAD PUSH1 0xFF AND JUMPDEST PUSH2 0x7DE JUMPI PUSH1 0x40 MLOAD PUSH3 0x461BCD PUSH1 0xE5 SHL DUP2 MSTORE PUSH1 0x4 ADD PUSH2 0x510 SWAP1 PUSH2 0x131C JUMP JUMPDEST PUSH1 0x7 SLOAD PUSH1 0x6 SLOAD LT PUSH2 0x827 JUMPI PUSH1 0x40 MLOAD PUSH3 0x461BCD PUSH1 0xE5 SHL DUP2 MSTORE PUSH1 0x20 PUSH1 0x4 DUP3 ADD MSTORE PUSH1 0x13 PUSH1 0x24 DUP3 ADD MSTORE PUSH19 0x139BC81B5BDC99481D1BDAD95B9CC81B19599D PUSH1 0x6A SHL PUSH1 0x44 DUP3 ADD MSTORE PUSH1 0x64 ADD PUSH2 0x510 JUMP JUMPDEST PUSH1 0x9 SLOAD PUSH1 0x40 MLOAD PUSH4 0x525194B PUSH1 0xE3 SHL DUP2 MSTORE PUSH1 0x1 PUSH1 0x1 PUSH1 0xA0 SHL SUB DUP4 DUP2 AND PUSH1 0x4 DUP4 ADD MSTORE SWAP1 SWAP2 AND SWAP1 PUSH4 0x2928CA58 SWAP1 PUSH1 0x24 ADD PUSH1 0x20 PUSH1 0x40 MLOAD DUP1 DUP4 SUB DUP2 PUSH0 DUP8 GAS CALL ISZERO DUP1 ISZERO PUSH2 0x870 JUMPI RETURNDATASIZE PUSH0 DUP1 RETURNDATACOPY RETURNDATASIZE PUSH0 REVERT JUMPDEST POP POP POP POP PUSH1 0x40 MLOAD RETURNDATASIZE PUSH1 0x1F NOT PUSH1 0x1F DUP3 ADD AND DUP3 ADD DUP1 PUSH1 0x40 MSTORE POP DUP2 ADD SWAP1 PUSH2 0x894 SWAP2 SWAP1 PUSH2 0x1664 JUMP JUMPDEST POP PUSH1 0x6 DUP1 SLOAD SWAP1 PUSH0 PUSH2 0x8A4 DUP4 PUSH2 0x168F JUMP JUMPDEST SWAP2 SWAP1 POP SSTORE POP POP JUMP JUMPDEST PUSH2 0x8B4 PUSH2 0xD3E JUMP JUMPDEST PUSH2 0x8BF PUSH1 0x1 DUP3 PUSH2 0xD1D JUMP JUMPDEST PUSH2 0x61E JUMPI PUSH1 0x40 MLOAD CALLER SWAP1 PUSH1 0x1 PUSH1 0x1 PUSH1 0xA0 SHL SUB DUP4 AND SWAP1 PUSH32 0x7E1A1A08D52E4BA0E21554733D66165FD5151F99460116223D9E3A608EEC5CB1 SWAP1 PUSH0 SWAP1 LOG3 PUSH2 0x5C2 PUSH1 0x1 DUP3 PUSH2 0xDB8 JUMP JUMPDEST PUSH2 0x90B PUSH2 0xD3E JUMP JUMPDEST PUSH2 0x914 PUSH0 PUSH2 0xDCC JUMP JUMPDEST JUMP JUMPDEST PUSH1 0x3 SLOAD PUSH1 0x1 PUSH1 0x1 PUSH1 0xA0 SHL SUB AND CALLER EQ DUP1 PUSH2 0x93D JUMPI POP CALLER PUSH0 SWAP1 DUP2 MSTORE PUSH1 0x4 PUSH1 0x20 MSTORE PUSH1 0x40 SWAP1 KECCAK256 SLOAD PUSH1 0xFF AND JUMPDEST PUSH2 0x959 JUMPI PUSH1 0x40 MLOAD PUSH3 0x461BCD PUSH1 0xE5 SHL DUP2 MSTORE PUSH1 0x4 ADD PUSH2 0x510 SWAP1 PUSH2 0x131C JUMP JUMPDEST PUSH1 0x40 MLOAD CALLER SWAP1 SELFBALANCE DUP1 ISZERO PUSH2 0x8FC MUL SWAP2 PUSH0 DUP2 DUP2 DUP2 DUP6 DUP9 DUP9 CALL SWAP4 POP POP POP POP PUSH2 0x914 JUMPI PUSH0 DUP1 REVERT JUMPDEST PUSH1 0x3 SLOAD PUSH1 0x1 PUSH1 0x1 PUSH1 0xA0 SHL SUB AND CALLER EQ PUSH2 0x9C2 JUMPI PUSH1 0x40 MLOAD PUSH3 0x461BCD PUSH1 0xE5 SHL DUP2 MSTORE PUSH1 0x20 PUSH1 0x4 DUP3 ADD MSTORE PUSH1 0xA PUSH1 0x24 DUP3 ADD MSTORE PUSH10 0x4E6F7420616E64726577 PUSH1 0xB0 SHL PUSH1 0x44 DUP3 ADD MSTORE PUSH1 0x64 ADD PUSH2 0x510 JUMP JUMPDEST PUSH1 0x1 PUSH1 0x1 PUSH1 0xA0 SHL SUB AND PUSH0 SWAP1 DUP2 MSTORE PUSH1 0x4 PUSH1 0x20 MSTORE PUSH1 0x40 SWAP1 KECCAK256 DUP1 SLOAD PUSH1 0xFF NOT AND SWAP1 SSTORE JUMP JUMPDEST PUSH1 0x3 SLOAD PUSH1 0x1 PUSH1 0x1 PUSH1 0xA0 SHL SUB AND CALLER EQ DUP1 PUSH2 0xA09 JUMPI POP CALLER PUSH0 SWAP1 DUP2 MSTORE PUSH1 0x4 PUSH1 0x20 MSTORE PUSH1 0x40 SWAP1 KECCAK256 SLOAD PUSH1 0xFF AND JUMPDEST PUSH2 0xA25 JUMPI PUSH1 0x40 MLOAD PUSH3 0x461BCD PUSH1 0xE5 SHL DUP2 MSTORE PUSH1 0x4 ADD PUSH2 0x510 SWAP1 PUSH2 0x131C JUMP JUMPDEST PUSH1 0xB PUSH2 0x5C2 DUP3 DUP3 PUSH2 0x13C5 JUMP JUMPDEST PUSH1 0x3 SLOAD PUSH1 0x1 PUSH1 0x1 PUSH1 0xA0 SHL SUB AND CALLER EQ DUP1 PUSH2 0xA58 JUMPI POP CALLER PUSH0 SWAP1 DUP2 MSTORE PUSH1 0x4 PUSH1 0x20 MSTORE PUSH1 0x40 SWAP1 KECCAK256 SLOAD PUSH1 0xFF AND JUMPDEST PUSH2 0xA74 JUMPI PUSH1 0x40 MLOAD PUSH3 0x461BCD PUSH1 0xE5 SHL DUP2 MSTORE PUSH1 0x4 ADD PUSH2 0x510 SWAP1 PUSH2 0x131C JUMP JUMPDEST PUSH1 0x5 DUP1 SLOAD PUSH1 0x1 PUSH1 0x1 PUSH1 0xA0 SHL SUB NOT AND PUSH1 0x1 PUSH1 0x1 PUSH1 0xA0 SHL SUB SWAP3 SWAP1 SWAP3 AND SWAP2 SWAP1 SWAP2 OR SWAP1 SSTORE JUMP JUMPDEST PUSH1 0x60 PUSH2 0xAA1 DUP3 PUSH2 0xD92 JUMP JUMPDEST PUSH1 0x40 MLOAD PUSH1 0x20 ADD PUSH2 0xAB1 SWAP2 SWAP1 PUSH2 0x16A7 JUMP JUMPDEST PUSH1 0x40 MLOAD PUSH1 0x20 DUP2 DUP4 SUB SUB DUP2 MSTORE SWAP1 PUSH1 0x40 MSTORE SWAP1 POP SWAP2 SWAP1 POP JUMP JUMPDEST PUSH1 0x3 SLOAD PUSH1 0x1 PUSH1 0x1 PUSH1 0xA0 SHL SUB AND CALLER EQ DUP1 PUSH2 0xAEE JUMPI POP CALLER PUSH0 SWAP1 DUP2 MSTORE PUSH1 0x4 PUSH1 0x20 MSTORE PUSH1 0x40 SWAP1 KECCAK256 SLOAD PUSH1 0xFF AND JUMPDEST PUSH2 0xB0A JUMPI PUSH1 0x40 MLOAD PUSH3 0x461BCD PUSH1 0xE5 SHL DUP2 MSTORE PUSH1 0x4 ADD PUSH2 0x510 SWAP1 PUSH2 0x131C JUMP JUMPDEST PUSH1 0xC PUSH2 0x5C2 DUP3 DUP3 PUSH2 0x13C5 JUMP JUMPDEST PUSH1 0x3 SLOAD PUSH1 0x1 PUSH1 0x1 PUSH1 0xA0 SHL SUB AND CALLER EQ DUP1 PUSH2 0xB3D JUMPI POP CALLER PUSH0 SWAP1 DUP2 MSTORE PUSH1 0x4 PUSH1 0x20 MSTORE PUSH1 0x40 SWAP1 KECCAK256 SLOAD PUSH1 0xFF AND JUMPDEST PUSH2 0xB59 JUMPI PUSH1 0x40 MLOAD PUSH3 0x461BCD PUSH1 0xE5 SHL DUP2 MSTORE PUSH1 0x4 ADD PUSH2 0x510 SWAP1 PUSH2 0x131C JUMP JUMPDEST PUSH1 0x8 SSTORE JUMP JUMPDEST PUSH1 0x8 SLOAD PUSH1 0x3 SLOAD PUSH1 0x1 PUSH1 0x1 PUSH1 0xA0 SHL SUB AND CALLER EQ DUP1 PUSH2 0xB88 JUMPI POP CALLER PUSH0 SWAP1 DUP2 MSTORE PUSH1 0x4 PUSH1 0x20 MSTORE PUSH1 0x40 SWAP1 KECCAK256 SLOAD PUSH1 0xFF AND JUMPDEST DUP1 PUSH2 0xC0E JUMPI POP PUSH1 0x9 SLOAD PUSH1 0x40 MLOAD PUSH4 0x31A9108F PUSH1 0xE1 SHL DUP2 MSTORE PUSH1 0x4 DUP2 ADD DUP4 SWAP1 MSTORE PUSH1 0x1 PUSH1 0x1 PUSH1 0xA0 SHL SUB SWAP1 SWAP2 AND SWAP1 PUSH4 0x6352211E SWAP1 PUSH1 0x24 ADD PUSH1 0x20 PUSH1 0x40 MLOAD DUP1 DUP4 SUB DUP2 DUP7 GAS STATICCALL ISZERO DUP1 ISZERO PUSH2 0xBD5 JUMPI RETURNDATASIZE PUSH0 DUP1 RETURNDATACOPY RETURNDATASIZE PUSH0 REVERT JUMPDEST POP POP POP POP PUSH1 0x40 MLOAD RETURNDATASIZE PUSH1 0x1F NOT PUSH1 0x1F DUP3 ADD AND DUP3 ADD DUP1 PUSH1 0x40 MSTORE POP DUP2 ADD SWAP1 PUSH2 0xBF9 SWAP2 SWAP1 PUSH2 0x16D1 JUMP JUMPDEST PUSH1 0x1 PUSH1 0x1 PUSH1 0xA0 SHL SUB AND CALLER PUSH1 0x1 PUSH1 0x1 PUSH1 0xA0 SHL SUB AND EQ JUMPDEST PUSH2 0xC49 JUMPI PUSH1 0x40 MLOAD PUSH3 0x461BCD PUSH1 0xE5 SHL DUP2 MSTORE PUSH1 0x20 PUSH1 0x4 DUP3 ADD MSTORE PUSH1 0xC PUSH1 0x24 DUP3 ADD MSTORE PUSH12 0x155B985D5D1A1BDC9A5E9959 PUSH1 0xA2 SHL PUSH1 0x44 DUP3 ADD MSTORE PUSH1 0x64 ADD PUSH2 0x510 JUMP JUMPDEST PUSH1 0x5 PUSH0 SWAP1 SLOAD SWAP1 PUSH2 0x100 EXP SWAP1 DIV PUSH1 0x1 PUSH1 0x1 PUSH1 0xA0 SHL SUB AND PUSH1 0x1 PUSH1 0x1 PUSH1 0xA0 SHL SUB AND PUSH4 0xCDE4EFA9 PUSH1 0x40 MLOAD DUP2 PUSH4 0xFFFFFFFF AND PUSH1 0xE0 SHL DUP2 MSTORE PUSH1 0x4 ADD PUSH0 PUSH1 0x40 MLOAD DUP1 DUP4 SUB DUP2 PUSH0 DUP8 DUP1 EXTCODESIZE ISZERO DUP1 ISZERO PUSH2 0xC95 JUMPI PUSH0 DUP1 REVERT JUMPDEST POP GAS CALL ISZERO DUP1 ISZERO PUSH2 0xCA7 JUMPI RETURNDATASIZE PUSH0 DUP1 RETURNDATACOPY RETURNDATASIZE PUSH0 REVERT JUMPDEST POP POP POP POP POP JUMP JUMPDEST PUSH1 0x60 PUSH2 0xCB8 PUSH2 0x6C5 JUMP JUMPDEST SWAP4 SWAP3 POP POP POP JUMP JUMPDEST PUSH2 0xCC7 PUSH2 0xD3E JUMP JUMPDEST PUSH1 0x1 PUSH1 0x1 PUSH1 0xA0 SHL SUB DUP2 AND PUSH2 0xCF0 JUMPI PUSH1 0x40 MLOAD PUSH4 0x1E4FBDF7 PUSH1 0xE0 SHL DUP2 MSTORE PUSH0 PUSH1 0x4 DUP3 ADD MSTORE PUSH1 0x24 ADD PUSH2 0x510 JUMP JUMPDEST PUSH2 0x61E DUP2 PUSH2 0xDCC JUMP JUMPDEST PUSH0 PUSH1 0x1 PUSH1 0x1 PUSH1 0xE0 SHL SUB NOT DUP3 AND PUSH4 0x7005CAAD PUSH1 0xE0 SHL EQ DUP1 PUSH2 0x4C7 JUMPI POP PUSH2 0x4C7 DUP3 PUSH2 0xE1B JUMP JUMPDEST PUSH1 0x1 PUSH1 0x1 PUSH1 0xA0 SHL SUB DUP2 AND PUSH0 SWAP1 DUP2 MSTORE PUSH1 0x1 DUP4 ADD PUSH1 0x20 MSTORE PUSH1 0x40 DUP2 KECCAK256 SLOAD ISZERO ISZERO PUSH2 0xCB8 JUMP JUMPDEST PUSH0 SLOAD PUSH1 0x1 PUSH1 0x1 PUSH1 0xA0 SHL SUB AND CALLER EQ PUSH2 0x914 JUMPI PUSH1 0x40 MLOAD PUSH4 0x118CDAA7 PUSH1 0xE0 SHL DUP2 MSTORE CALLER PUSH1 0x4 DUP3 ADD MSTORE PUSH1 0x24 ADD PUSH2 0x510 JUMP JUMPDEST PUSH0 PUSH2 0xCB8 DUP4 PUSH1 0x1 PUSH1 0x1 PUSH1 0xA0 SHL SUB DUP5 AND PUSH2 0xE4F JUMP JUMPDEST PUSH0 PUSH2 0x4C7 DUP3 SLOAD SWAP1 JUMP JUMPDEST PUSH0 PUSH2 0xCB8 DUP4 DUP4 PUSH2 0xF32 JUMP JUMPDEST PUSH1 0x60 PUSH2 0x4C7 DUP3 PUSH1 0x40 MLOAD DUP1 PUSH1 0x60 ADD PUSH1 0x40 MSTORE DUP1 PUSH1 0x40 DUP2 MSTORE PUSH1 0x20 ADD PUSH2 0x175D PUSH1 0x40 SWAP2 CODECOPY PUSH1 0x1 PUSH2 0xF58 JUMP JUMPDEST PUSH0 PUSH2 0xCB8 DUP4 PUSH1 0x1 PUSH1 0x1 PUSH1 0xA0 SHL SUB DUP5 AND PUSH2 0x10D3 JUMP JUMPDEST PUSH0 DUP1 SLOAD PUSH1 0x1 PUSH1 0x1 PUSH1 0xA0 SHL SUB DUP4 DUP2 AND PUSH1 0x1 PUSH1 0x1 PUSH1 0xA0 SHL SUB NOT DUP4 AND DUP2 OR DUP5 SSTORE PUSH1 0x40 MLOAD SWAP2 SWAP1 SWAP3 AND SWAP3 DUP4 SWAP2 PUSH32 0x8BE0079C531659141344CD1FD0A4F28419497F9722A3DAAFE3B4186F6B6457E0 SWAP2 SWAP1 LOG3 POP POP JUMP JUMPDEST PUSH0 PUSH1 0x1 PUSH1 0x1 PUSH1 0xE0 SHL SUB NOT DUP3 AND PUSH4 0x2A9F3ABF PUSH1 0xE1 SHL EQ DUP1 PUSH2 0x4C7 JUMPI POP PUSH4 0x1FFC9A7 PUSH1 0xE0 SHL PUSH1 0x1 PUSH1 0x1 PUSH1 0xE0 SHL SUB NOT DUP4 AND EQ PUSH2 0x4C7 JUMP JUMPDEST PUSH0 DUP2 DUP2 MSTORE PUSH1 0x1 DUP4 ADD PUSH1 0x20 MSTORE PUSH1 0x40 DUP2 KECCAK256 SLOAD DUP1 ISZERO PUSH2 0xF29 JUMPI PUSH0 PUSH2 0xE71 PUSH1 0x1 DUP4 PUSH2 0x16EC JUMP JUMPDEST DUP6 SLOAD SWAP1 SWAP2 POP PUSH0 SWAP1 PUSH2 0xE84 SWAP1 PUSH1 0x1 SWAP1 PUSH2 0x16EC JUMP JUMPDEST SWAP1 POP DUP1 DUP3 EQ PUSH2 0xEE3 JUMPI PUSH0 DUP7 PUSH0 ADD DUP3 DUP2 SLOAD DUP2 LT PUSH2 0xEA2 JUMPI PUSH2 0xEA2 PUSH2 0x1480 JUMP JUMPDEST SWAP1 PUSH0 MSTORE PUSH1 0x20 PUSH0 KECCAK256 ADD SLOAD SWAP1 POP DUP1 DUP8 PUSH0 ADD DUP5 DUP2 SLOAD DUP2 LT PUSH2 0xEC2 JUMPI PUSH2 0xEC2 PUSH2 0x1480 JUMP JUMPDEST PUSH0 SWAP2 DUP3 MSTORE PUSH1 0x20 DUP1 DUP4 KECCAK256 SWAP1 SWAP2 ADD SWAP3 SWAP1 SWAP3 SSTORE SWAP2 DUP3 MSTORE PUSH1 0x1 DUP9 ADD SWAP1 MSTORE PUSH1 0x40 SWAP1 KECCAK256 DUP4 SWAP1 SSTORE JUMPDEST DUP6 SLOAD DUP7 SWAP1 DUP1 PUSH2 0xEF4 JUMPI PUSH2 0xEF4 PUSH2 0x16FF JUMP JUMPDEST PUSH1 0x1 SWAP1 SUB DUP2 DUP2 SWAP1 PUSH0 MSTORE PUSH1 0x20 PUSH0 KECCAK256 ADD PUSH0 SWAP1 SSTORE SWAP1 SSTORE DUP6 PUSH1 0x1 ADD PUSH0 DUP7 DUP2 MSTORE PUSH1 0x20 ADD SWAP1 DUP2 MSTORE PUSH1 0x20 ADD PUSH0 KECCAK256 PUSH0 SWAP1 SSTORE PUSH1 0x1 SWAP4 POP POP POP POP PUSH2 0x4C7 JUMP JUMPDEST PUSH0 SWAP2 POP POP PUSH2 0x4C7 JUMP JUMPDEST PUSH0 DUP3 PUSH0 ADD DUP3 DUP2 SLOAD DUP2 LT PUSH2 0xF47 JUMPI PUSH2 0xF47 PUSH2 0x1480 JUMP JUMPDEST SWAP1 PUSH0 MSTORE PUSH1 0x20 PUSH0 KECCAK256 ADD SLOAD SWAP1 POP SWAP3 SWAP2 POP POP JUMP JUMPDEST PUSH1 0x60 DUP4 MLOAD PUSH0 SUB PUSH2 0xF76 JUMPI POP PUSH1 0x40 DUP1 MLOAD PUSH1 0x20 DUP2 ADD SWAP1 SWAP2 MSTORE PUSH0 DUP2 MSTORE PUSH2 0xCB8 JUMP JUMPDEST PUSH0 DUP3 PUSH2 0xFA6 JUMPI PUSH1 0x3 DUP6 MLOAD PUSH1 0x4 PUSH2 0xF8C SWAP2 SWAP1 PUSH2 0x1713 JUMP JUMPDEST PUSH2 0xF97 SWAP1 PUSH1 0x2 PUSH2 0x172A JUMP JUMPDEST PUSH2 0xFA1 SWAP2 SWAP1 PUSH2 0x173D JUMP JUMPDEST PUSH2 0xFCB JUMP JUMPDEST PUSH1 0x3 DUP6 MLOAD PUSH1 0x2 PUSH2 0xFB6 SWAP2 SWAP1 PUSH2 0x172A JUMP JUMPDEST PUSH2 0xFC0 SWAP2 SWAP1 PUSH2 0x173D JUMP JUMPDEST PUSH2 0xFCB SWAP1 PUSH1 0x4 PUSH2 0x1713 JUMP JUMPDEST SWAP1 POP PUSH0 DUP2 PUSH8 0xFFFFFFFFFFFFFFFF DUP2 GT ISZERO PUSH2 0xFE7 JUMPI PUSH2 0xFE7 PUSH2 0x1175 JUMP JUMPDEST PUSH1 0x40 MLOAD SWAP1 DUP1 DUP3 MSTORE DUP1 PUSH1 0x1F ADD PUSH1 0x1F NOT AND PUSH1 0x20 ADD DUP3 ADD PUSH1 0x40 MSTORE DUP1 ISZERO PUSH2 0x1011 JUMPI PUSH1 0x20 DUP3 ADD DUP2 DUP1 CALLDATASIZE DUP4 CALLDATACOPY ADD SWAP1 POP JUMPDEST POP SWAP1 POP PUSH1 0x1 DUP6 ADD PUSH1 0x20 DUP3 ADD DUP8 DUP9 MLOAD DUP10 ADD PUSH1 0x20 DUP2 ADD DUP1 MLOAD PUSH0 DUP3 MSTORE JUMPDEST DUP3 DUP5 LT ISZERO PUSH2 0x1086 JUMPI PUSH1 0x3 DUP5 ADD SWAP4 POP DUP4 MLOAD PUSH1 0x3F DUP2 PUSH1 0x12 SHR AND DUP8 ADD MLOAD DUP7 MSTORE8 PUSH1 0x1 DUP7 ADD SWAP6 POP PUSH1 0x3F DUP2 PUSH1 0xC SHR AND DUP8 ADD MLOAD DUP7 MSTORE8 PUSH1 0x1 DUP7 ADD SWAP6 POP PUSH1 0x3F DUP2 PUSH1 0x6 SHR AND DUP8 ADD MLOAD DUP7 MSTORE8 PUSH1 0x1 DUP7 ADD SWAP6 POP PUSH1 0x3F DUP2 AND DUP8 ADD MLOAD DUP7 MSTORE8 POP PUSH1 0x1 DUP6 ADD SWAP5 POP PUSH2 0x102B JUMP JUMPDEST SWAP1 MSTORE POP POP DUP6 ISZERO PUSH2 0x10C7 JUMPI PUSH1 0x3 DUP9 MLOAD MOD PUSH1 0x1 DUP2 EQ PUSH2 0x10AA JUMPI PUSH1 0x2 DUP2 EQ PUSH2 0x10BD JUMPI PUSH2 0x10C5 JUMP JUMPDEST PUSH1 0x3D PUSH1 0x1 DUP4 SUB MSTORE8 PUSH1 0x3D PUSH1 0x2 DUP4 SUB MSTORE8 PUSH2 0x10C5 JUMP JUMPDEST PUSH1 0x3D PUSH1 0x1 DUP4 SUB MSTORE8 JUMPDEST POP JUMPDEST POP SWAP1 SWAP7 SWAP6 POP POP POP POP POP POP JUMP JUMPDEST PUSH0 DUP2 DUP2 MSTORE PUSH1 0x1 DUP4 ADD PUSH1 0x20 MSTORE PUSH1 0x40 DUP2 KECCAK256 SLOAD PUSH2 0x1118 JUMPI POP DUP2 SLOAD PUSH1 0x1 DUP2 DUP2 ADD DUP5 SSTORE PUSH0 DUP5 DUP2 MSTORE PUSH1 0x20 DUP1 DUP3 KECCAK256 SWAP1 SWAP4 ADD DUP5 SWAP1 SSTORE DUP5 SLOAD DUP5 DUP3 MSTORE DUP3 DUP7 ADD SWAP1 SWAP4 MSTORE PUSH1 0x40 SWAP1 KECCAK256 SWAP2 SWAP1 SWAP2 SSTORE PUSH2 0x4C7 JUMP JUMPDEST POP PUSH0 PUSH2 0x4C7 JUMP JUMPDEST PUSH0 PUSH1 0x20 DUP3 DUP5 SUB SLT ISZERO PUSH2 0x112F JUMPI PUSH0 DUP1 REVERT JUMPDEST DUP2 CALLDATALOAD PUSH1 0x1 PUSH1 0x1 PUSH1 0xE0 SHL SUB NOT DUP2 AND DUP2 EQ PUSH2 0xCB8 JUMPI PUSH0 DUP1 REVERT JUMPDEST PUSH1 0x1 PUSH1 0x1 PUSH1 0xA0 SHL SUB DUP2 AND DUP2 EQ PUSH2 0x61E JUMPI PUSH0 DUP1 REVERT JUMPDEST PUSH0 PUSH1 0x20 DUP3 DUP5 SUB SLT ISZERO PUSH2 0x116A JUMPI PUSH0 DUP1 REVERT JUMPDEST DUP2 CALLDATALOAD PUSH2 0xCB8 DUP2 PUSH2 0x1146 JUMP JUMPDEST PUSH4 0x4E487B71 PUSH1 0xE0 SHL PUSH0 MSTORE PUSH1 0x41 PUSH1 0x4 MSTORE PUSH1 0x24 PUSH0 REVERT JUMPDEST PUSH1 0x40 MLOAD PUSH1 0x1F DUP3 ADD PUSH1 0x1F NOT AND DUP2 ADD PUSH8 0xFFFFFFFFFFFFFFFF DUP2 GT DUP3 DUP3 LT OR ISZERO PUSH2 0x11B2 JUMPI PUSH2 0x11B2 PUSH2 0x1175 JUMP JUMPDEST PUSH1 0x40 MSTORE SWAP2 SWAP1 POP JUMP JUMPDEST PUSH0 PUSH8 0xFFFFFFFFFFFFFFFF DUP3 GT ISZERO PUSH2 0x11D3 JUMPI PUSH2 0x11D3 PUSH2 0x1175 JUMP JUMPDEST POP PUSH1 0x1F ADD PUSH1 0x1F NOT AND PUSH1 0x20 ADD SWAP1 JUMP JUMPDEST PUSH0 PUSH1 0x20 DUP3 DUP5 SUB SLT ISZERO PUSH2 0x11F1 JUMPI PUSH0 DUP1 REVERT JUMPDEST DUP2 CALLDATALOAD PUSH8 0xFFFFFFFFFFFFFFFF DUP2 GT ISZERO PUSH2 0x1207 JUMPI PUSH0 DUP1 REVERT JUMPDEST DUP3 ADD PUSH1 0x1F DUP2 ADD DUP5 SGT PUSH2 0x1217 JUMPI PUSH0 DUP1 REVERT JUMPDEST DUP1 CALLDATALOAD PUSH2 0x122A PUSH2 0x1225 DUP3 PUSH2 0x11BA JUMP JUMPDEST PUSH2 0x1189 JUMP JUMPDEST DUP2 DUP2 MSTORE DUP6 PUSH1 0x20 DUP4 DUP6 ADD ADD GT ISZERO PUSH2 0x123E JUMPI PUSH0 DUP1 REVERT JUMPDEST DUP2 PUSH1 0x20 DUP5 ADD PUSH1 0x20 DUP4 ADD CALLDATACOPY PUSH0 SWAP2 DUP2 ADD PUSH1 0x20 ADD SWAP2 SWAP1 SWAP2 MSTORE SWAP5 SWAP4 POP POP POP POP JUMP JUMPDEST PUSH1 0x20 DUP1 DUP3 MSTORE DUP3 MLOAD DUP3 DUP3 ADD DUP2 SWAP1 MSTORE PUSH0 SWAP2 DUP5 ADD SWAP1 PUSH1 0x40 DUP5 ADD SWAP1 DUP4 JUMPDEST DUP2 DUP2 LT ISZERO PUSH2 0x129B JUMPI DUP4 MLOAD PUSH1 0x1 PUSH1 0x1 PUSH1 0xA0 SHL SUB AND DUP4 MSTORE PUSH1 0x20 SWAP4 DUP5 ADD SWAP4 SWAP1 SWAP3 ADD SWAP2 PUSH1 0x1 ADD PUSH2 0x1274 JUMP JUMPDEST POP SWAP1 SWAP6 SWAP5 POP POP POP POP POP JUMP JUMPDEST PUSH1 0x20 DUP2 MSTORE PUSH0 DUP3 MLOAD DUP1 PUSH1 0x20 DUP5 ADD MSTORE DUP1 PUSH1 0x20 DUP6 ADD PUSH1 0x40 DUP6 ADD MCOPY PUSH0 PUSH1 0x40 DUP3 DUP6 ADD ADD MSTORE PUSH1 0x40 PUSH1 0x1F NOT PUSH1 0x1F DUP4 ADD AND DUP5 ADD ADD SWAP2 POP POP SWAP3 SWAP2 POP POP JUMP JUMPDEST PUSH0 PUSH1 0x20 DUP3 DUP5 SUB SLT ISZERO PUSH2 0x12EB JUMPI PUSH0 DUP1 REVERT JUMPDEST POP CALLDATALOAD SWAP2 SWAP1 POP JUMP JUMPDEST PUSH0 DUP1 PUSH1 0x40 DUP4 DUP6 SUB SLT ISZERO PUSH2 0x1303 JUMPI PUSH0 DUP1 REVERT JUMPDEST DUP3 CALLDATALOAD PUSH2 0x130E DUP2 PUSH2 0x1146 JUMP JUMPDEST SWAP5 PUSH1 0x20 SWAP4 SWAP1 SWAP4 ADD CALLDATALOAD SWAP4 POP POP POP JUMP JUMPDEST PUSH1 0x20 DUP1 DUP3 MSTORE PUSH1 0xE SWAP1 DUP3 ADD MSTORE PUSH14 0x139BDD08185D5D1A1BDC9A5E9959 PUSH1 0x92 SHL PUSH1 0x40 DUP3 ADD MSTORE PUSH1 0x60 ADD SWAP1 JUMP JUMPDEST PUSH1 0x1 DUP2 DUP2 SHR SWAP1 DUP3 AND DUP1 PUSH2 0x1358 JUMPI PUSH1 0x7F DUP3 AND SWAP2 POP JUMPDEST PUSH1 0x20 DUP3 LT DUP2 SUB PUSH2 0x1376 JUMPI PUSH4 0x4E487B71 PUSH1 0xE0 SHL PUSH0 MSTORE PUSH1 0x22 PUSH1 0x4 MSTORE PUSH1 0x24 PUSH0 REVERT JUMPDEST POP SWAP2 SWAP1 POP JUMP JUMPDEST PUSH1 0x1F DUP3 GT ISZERO PUSH2 0x13C0 JUMPI DUP1 PUSH0 MSTORE PUSH1 0x20 PUSH0 KECCAK256 PUSH1 0x1F DUP5 ADD PUSH1 0x5 SHR DUP2 ADD PUSH1 0x20 DUP6 LT ISZERO PUSH2 0x13A1 JUMPI POP DUP1 JUMPDEST PUSH1 0x1F DUP5 ADD PUSH1 0x5 SHR DUP3 ADD SWAP2 POP JUMPDEST DUP2 DUP2 LT ISZERO PUSH2 0xCA7 JUMPI PUSH0 DUP2 SSTORE PUSH1 0x1 ADD PUSH2 0x13AD JUMP JUMPDEST POP POP POP JUMP JUMPDEST DUP2 MLOAD PUSH8 0xFFFFFFFFFFFFFFFF DUP2 GT ISZERO PUSH2 0x13DF JUMPI PUSH2 0x13DF PUSH2 0x1175 JUMP JUMPDEST PUSH2 0x13F3 DUP2 PUSH2 0x13ED DUP5 SLOAD PUSH2 0x1344 JUMP JUMPDEST DUP5 PUSH2 0x137C JUMP JUMPDEST PUSH1 0x20 PUSH1 0x1F DUP3 GT PUSH1 0x1 DUP2 EQ PUSH2 0x1425 JUMPI PUSH0 DUP4 ISZERO PUSH2 0x140E JUMPI POP DUP5 DUP3 ADD MLOAD JUMPDEST PUSH0 NOT PUSH1 0x3 DUP6 SWAP1 SHL SHR NOT AND PUSH1 0x1 DUP5 SWAP1 SHL OR DUP5 SSTORE PUSH2 0xCA7 JUMP JUMPDEST PUSH0 DUP5 DUP2 MSTORE PUSH1 0x20 DUP2 KECCAK256 PUSH1 0x1F NOT DUP6 AND SWAP2 JUMPDEST DUP3 DUP2 LT ISZERO PUSH2 0x1454 JUMPI DUP8 DUP6 ADD MLOAD DUP3 SSTORE PUSH1 0x20 SWAP5 DUP6 ADD SWAP5 PUSH1 0x1 SWAP1 SWAP3 ADD SWAP2 ADD PUSH2 0x1434 JUMP JUMPDEST POP DUP5 DUP3 LT ISZERO PUSH2 0x1471 JUMPI DUP7 DUP5 ADD MLOAD PUSH0 NOT PUSH1 0x3 DUP8 SWAP1 SHL PUSH1 0xF8 AND SHR NOT AND DUP2 SSTORE JUMPDEST POP POP POP POP PUSH1 0x1 SWAP1 DUP2 SHL ADD SWAP1 SSTORE POP JUMP JUMPDEST PUSH4 0x4E487B71 PUSH1 0xE0 SHL PUSH0 MSTORE PUSH1 0x32 PUSH1 0x4 MSTORE PUSH1 0x24 PUSH0 REVERT JUMPDEST PUSH0 PUSH1 0x20 DUP3 DUP5 SUB SLT ISZERO PUSH2 0x14A4 JUMPI PUSH0 DUP1 REVERT JUMPDEST DUP2 MLOAD PUSH8 0xFFFFFFFFFFFFFFFF DUP2 GT ISZERO PUSH2 0x14BA JUMPI PUSH0 DUP1 REVERT JUMPDEST DUP3 ADD PUSH1 0x1F DUP2 ADD DUP5 SGT PUSH2 0x14CA JUMPI PUSH0 DUP1 REVERT JUMPDEST DUP1 MLOAD PUSH2 0x14D8 PUSH2 0x1225 DUP3 PUSH2 0x11BA JUMP JUMPDEST DUP2 DUP2 MSTORE DUP6 PUSH1 0x20 DUP4 DUP6 ADD ADD GT ISZERO PUSH2 0x14EC JUMPI PUSH0 DUP1 REVERT JUMPDEST DUP2 PUSH1 0x20 DUP5 ADD PUSH1 0x20 DUP4 ADD MCOPY PUSH0 SWAP2 DUP2 ADD PUSH1 0x20 ADD SWAP2 SWAP1 SWAP2 MSTORE SWAP5 SWAP4 POP POP POP POP JUMP JUMPDEST PUSH0 DUP2 SLOAD PUSH2 0x1515 DUP2 PUSH2 0x1344 JUMP JUMPDEST PUSH1 0x1 DUP3 AND DUP1 ISZERO PUSH2 0x152C JUMPI PUSH1 0x1 DUP2 EQ PUSH2 0x1541 JUMPI PUSH2 0x156E JUMP JUMPDEST PUSH1 0xFF NOT DUP4 AND DUP7 MSTORE DUP2 ISZERO ISZERO DUP3 MUL DUP7 ADD SWAP4 POP PUSH2 0x156E JUMP JUMPDEST DUP5 PUSH0 MSTORE PUSH1 0x20 PUSH0 KECCAK256 PUSH0 JUMPDEST DUP4 DUP2 LT ISZERO PUSH2 0x1566 JUMPI DUP2 SLOAD DUP9 DUP3 ADD MSTORE PUSH1 0x1 SWAP1 SWAP2 ADD SWAP1 PUSH1 0x20 ADD PUSH2 0x154A JUMP JUMPDEST POP POP DUP2 DUP7 ADD SWAP4 POP JUMPDEST POP POP POP SWAP3 SWAP2 POP POP JUMP JUMPDEST PUSH0 DUP2 MLOAD DUP1 PUSH1 0x20 DUP5 ADD DUP6 MCOPY PUSH0 SWAP4 ADD SWAP3 DUP4 MSTORE POP SWAP1 SWAP2 SWAP1 POP JUMP JUMPDEST PUSH10 0x3D913730B6B2911D1011 PUSH1 0xB1 SHL DUP2 MSTORE PUSH0 PUSH2 0x15AC PUSH1 0xA DUP4 ADD DUP8 PUSH2 0x1509 JUMP JUMPDEST PUSH19 0x111610113232B9B1B934B83A34B7B7111D1011 PUSH1 0x69 SHL DUP2 MSTORE PUSH2 0x15D2 PUSH1 0x13 DUP3 ADD DUP8 PUSH2 0x1509 JUMP JUMPDEST PUSH20 0x1116101132BC3A32B93730B62FBAB936111D1011 PUSH1 0x61 SHL DUP2 MSTORE SWAP1 POP PUSH2 0x15FB PUSH1 0x14 DUP3 ADD DUP7 PUSH2 0x1509 JUMP JUMPDEST PUSH13 0x1116101134B6B0B3B2911D1011 PUSH1 0x99 SHL DUP2 MSTORE SWAP1 POP PUSH2 0x161D PUSH1 0xD DUP3 ADD DUP6 PUSH2 0x1577 JUMP JUMPDEST PUSH2 0x227D PUSH1 0xF0 SHL DUP2 MSTORE PUSH1 0x2 ADD SWAP8 SWAP7 POP POP POP POP POP POP POP JUMP JUMPDEST PUSH32 0x646174613A6170706C69636174696F6E2F6A736F6E3B6261736536342C000000 DUP2 MSTORE PUSH0 PUSH2 0xCB8 PUSH1 0x1D DUP4 ADD DUP5 PUSH2 0x1577 JUMP JUMPDEST PUSH0 PUSH1 0x20 DUP3 DUP5 SUB SLT ISZERO PUSH2 0x1674 JUMPI PUSH0 DUP1 REVERT JUMPDEST POP MLOAD SWAP2 SWAP1 POP JUMP JUMPDEST PUSH4 0x4E487B71 PUSH1 0xE0 SHL PUSH0 MSTORE PUSH1 0x11 PUSH1 0x4 MSTORE PUSH1 0x24 PUSH0 REVERT JUMPDEST PUSH0 PUSH1 0x1 DUP3 ADD PUSH2 0x16A0 JUMPI PUSH2 0x16A0 PUSH2 0x167B JUMP JUMPDEST POP PUSH1 0x1 ADD SWAP1 JUMP JUMPDEST PUSH22 0x19185D184E9D195E1D0BDA1D1B5B0ED8985CD94D8D0B PUSH1 0x52 SHL DUP2 MSTORE PUSH0 PUSH2 0xCB8 PUSH1 0x16 DUP4 ADD DUP5 PUSH2 0x1577 JUMP JUMPDEST PUSH0 PUSH1 0x20 DUP3 DUP5 SUB SLT ISZERO PUSH2 0x16E1 JUMPI PUSH0 DUP1 REVERT JUMPDEST DUP2 MLOAD PUSH2 0xCB8 DUP2 PUSH2 0x1146 JUMP JUMPDEST DUP2 DUP2 SUB DUP2 DUP2 GT ISZERO PUSH2 0x4C7 JUMPI PUSH2 0x4C7 PUSH2 0x167B JUMP JUMPDEST PUSH4 0x4E487B71 PUSH1 0xE0 SHL PUSH0 MSTORE PUSH1 0x31 PUSH1 0x4 MSTORE PUSH1 0x24 PUSH0 REVERT JUMPDEST DUP1 DUP3 MUL DUP2 ISZERO DUP3 DUP3 DIV DUP5 EQ OR PUSH2 0x4C7 JUMPI PUSH2 0x4C7 PUSH2 0x167B JUMP JUMPDEST DUP1 DUP3 ADD DUP1 DUP3 GT ISZERO PUSH2 0x4C7 JUMPI PUSH2 0x4C7 PUSH2 0x167B JUMP JUMPDEST PUSH0 DUP3 PUSH2 0x1757 JUMPI PUSH4 0x4E487B71 PUSH1 0xE0 SHL PUSH0 MSTORE PUSH1 0x12 PUSH1 0x4 MSTORE PUSH1 0x24 PUSH0 REVERT JUMPDEST POP DIV SWAP1 JUMP INVALID COINBASE TIMESTAMP NUMBER PREVRANDAO GASLIMIT CHAINID SELFBALANCE BASEFEE BLOBHASH BLOBBASEFEE 0x4B 0x4C 0x4D 0x4E 0x4F POP MLOAD MSTORE MSTORE8 SLOAD SSTORE JUMP JUMPI PC MSIZE GAS PUSH2 0x6263 PUSH5 0x6566676869 PUSH11 0x6B6C6D6E6F707172737475 PUSH23 0x7778797A303132333435363738392B2FA2646970667358 0x22 SLT KECCAK256 SWAP14 JUMPI 0xEB PUSH6 0x80771D9004D5 SWAP3 ADD 0xEC 0xBB 0xF7 0xCE PUSH29 0xDC33B1616F89CC9635BE4DE3179C6764736F6C634300081A0033000000 "
		},
		"gasEstimates": {
			"creation": {
				"codeDepositCost": "1219600",
				"executionCost": "infinite",
				"totalCost": "infinite"
			},
			"external": {
				"animToURI(string)": "infinite",
				"approveAdmin(address)": "infinite",
				"flip()": "infinite",
				"formatTokenURI()": "infinite",
				"getAdmins()": "infinite",
				"grantAccess(address)": "26787",
				"hasAccess(address)": "2640",
				"isAdmin(address)": "infinite",
				"isOwner()": "2376",
				"maxSupply()": "2357",
				"mint(address)": "infinite",
				"owner()": "2344",
				"renounceOwnership()": "infinite",
				"revokeAccess(address)": "26758",
				"revokeAdmin(address)": "infinite",
				"setDescription(string)": "infinite",
				"setExternalUrl(string)": "infinite",
				"setFlipEngine(address)": "29031",
				"setName(string)": "infinite",
				"setTokenId(uint256)": "26746",
				"supportsInterface(bytes4)": "infinite",
				"tokenURI(address,uint256)": "infinite",
				"totalSupply()": "2348",
				"transferOwnership(address)": "infinite",
				"withdrawAll()": "infinite"
			}
		},
		"methodIdentifiers": {
			"animToURI(string)": "c038fe04",
			"approveAdmin(address)": "6d73e669",
			"flip()": "cde4efa9",
			"formatTokenURI()": "37d5ad2b",
			"getAdmins()": "31ae450b",
			"grantAccess(address)": "0ae5e739",
			"hasAccess(address)": "95a078e8",
			"isAdmin(address)": "24d7806c",
			"isOwner()": "8f32d59b",
			"maxSupply()": "d5abeb01",
			"mint(address)": "6a627842",
			"owner()": "8da5cb5b",
			"renounceOwnership()": "715018a6",
			"revokeAccess(address)": "85e68531",
			"revokeAdmin(address)": "2d345670",
			"setDescription(string)": "90c3f38f",
			"setExternalUrl(string)": "26d58ad3",
			"setFlipEngine(address)": "aad61bb6",
			"setName(string)": "c47f0027",
			"setTokenId(uint256)": "c929ccf3",
			"supportsInterface(bytes4)": "01ffc9a7",
			"tokenURI(address,uint256)": "e9dc6375",
			"totalSupply()": "18160ddd",
			"transferOwnership(address)": "f2fde38b",
			"withdrawAll()": "853828b6"
		}
	},
	"abi": [
		{
			"inputs": [
				{
					"internalType": "address",
					"name": "creator",
					"type": "address"
				},
				{
					"internalType": "string",
					"name": "name",
					"type": "string"
				},
				{
					"internalType": "string",
					"name": "description",
					"type": "string"
				},
				{
					"internalType": "address",
					"name": "flipEngineAddr",
					"type": "address"
				}
			],
			"stateMutability": "nonpayable",
			"type": "constructor"
		},
		{
			"inputs": [
				{
					"internalType": "address",
					"name": "owner",
					"type": "address"
				}
			],
			"name": "OwnableInvalidOwner",
			"type": "error"
		},
		{
			"inputs": [
				{
					"internalType": "address",
					"name": "account",
					"type": "address"
				}
			],
			"name": "OwnableUnauthorizedAccount",
			"type": "error"
		},
		{
			"anonymous": false,
			"inputs": [
				{
					"indexed": true,
					"internalType": "address",
					"name": "account",
					"type": "address"
				},
				{
					"indexed": true,
					"internalType": "address",
					"name": "sender",
					"type": "address"
				}
			],
			"name": "AdminApproved",
			"type": "event"
		},
		{
			"anonymous": false,
			"inputs": [
				{
					"indexed": true,
					"internalType": "address",
					"name": "account",
					"type": "address"
				},
				{
					"indexed": true,
					"internalType": "address",
					"name": "sender",
					"type": "address"
				}
			],
			"name": "AdminRevoked",
			"type": "event"
		},
		{
			"anonymous": false,
			"inputs": [
				{
					"indexed": true,
					"internalType": "address",
					"name": "previousOwner",
					"type": "address"
				},
				{
					"indexed": true,
					"internalType": "address",
					"name": "newOwner",
					"type": "address"
				}
			],
			"name": "OwnershipTransferred",
			"type": "event"
		},
		{
			"inputs": [
				{
					"internalType": "string",
					"name": "anim",
					"type": "string"
				}
			],
			"name": "animToURI",
			"outputs": [
				{
					"internalType": "string",
					"name": "",
					"type": "string"
				}
			],
			"stateMutability": "pure",
			"type": "function"
		},
		{
			"inputs": [
				{
					"internalType": "address",
					"name": "admin",
					"type": "address"
				}
			],
			"name": "approveAdmin",
			"outputs": [],
			"stateMutability": "nonpayable",
			"type": "function"
		},
		{
			"inputs": [],
			"name": "flip",
			"outputs": [],
			"stateMutability": "nonpayable",
			"type": "function"
		},
		{
			"inputs": [],
			"name": "formatTokenURI",
			"outputs": [
				{
					"internalType": "string",
					"name": "",
					"type": "string"
				}
			],
			"stateMutability": "view",
			"type": "function"
		},
		{
			"inputs": [],
			"name": "getAdmins",
			"outputs": [
				{
					"internalType": "address[]",
					"name": "admins",
					"type": "address[]"
				}
			],
			"stateMutability": "view",
			"type": "function"
		},
		{
			"inputs": [
				{
					"internalType": "address",
					"name": "addr",
					"type": "address"
				}
			],
			"name": "grantAccess",
			"outputs": [],
			"stateMutability": "nonpayable",
			"type": "function"
		},
		{
			"inputs": [
				{
					"internalType": "address",
					"name": "account",
					"type": "address"
				}
			],
			"name": "hasAccess",
			"outputs": [
				{
					"internalType": "bool",
					"name": "",
					"type": "bool"
				}
			],
			"stateMutability": "view",
			"type": "function"
		},
		{
			"inputs": [
				{
					"internalType": "address",
					"name": "admin",
					"type": "address"
				}
			],
			"name": "isAdmin",
			"outputs": [
				{
					"internalType": "bool",
					"name": "",
					"type": "bool"
				}
			],
			"stateMutability": "view",
			"type": "function"
		},
		{
			"inputs": [],
			"name": "isOwner",
			"outputs": [
				{
					"internalType": "bool",
					"name": "",
					"type": "bool"
				}
			],
			"stateMutability": "view",
			"type": "function"
		},
		{
			"inputs": [],
			"name": "maxSupply",
			"outputs": [
				{
					"internalType": "uint256",
					"name": "",
					"type": "uint256"
				}
			],
			"stateMutability": "view",
			"type": "function"
		},
		{
			"inputs": [
				{
					"internalType": "address",
					"name": "recipient",
					"type": "address"
				}
			],
			"name": "mint",
			"outputs": [],
			"stateMutability": "payable",
			"type": "function"
		},
		{
			"inputs": [],
			"name": "owner",
			"outputs": [
				{
					"internalType": "address",
					"name": "",
					"type": "address"
				}
			],
			"stateMutability": "view",
			"type": "function"
		},
		{
			"inputs": [],
			"name": "renounceOwnership",
			"outputs": [],
			"stateMutability": "nonpayable",
			"type": "function"
		},
		{
			"inputs": [
				{
					"internalType": "address",
					"name": "addr",
					"type": "address"
				}
			],
			"name": "revokeAccess",
			"outputs": [],
			"stateMutability": "nonpayable",
			"type": "function"
		},
		{
			"inputs": [
				{
					"internalType": "address",
					"name": "admin",
					"type": "address"
				}
			],
			"name": "revokeAdmin",
			"outputs": [],
			"stateMutability": "nonpayable",
			"type": "function"
		},
		{
			"inputs": [
				{
					"internalType": "string",
					"name": "des",
					"type": "string"
				}
			],
			"name": "setDescription",
			"outputs": [],
			"stateMutability": "nonpayable",
			"type": "function"
		},
		{
			"inputs": [
				{
					"internalType": "string",
					"name": "externalUrl",
					"type": "string"
				}
			],
			"name": "setExternalUrl",
			"outputs": [],
			"stateMutability": "nonpayable",
			"type": "function"
		},
		{
			"inputs": [
				{
					"internalType": "address",
					"name": "flipEngineAddr",
					"type": "address"
				}
			],
			"name": "setFlipEngine",
			"outputs": [],
			"stateMutability": "nonpayable",
			"type": "function"
		},
		{
			"inputs": [
				{
					"internalType": "string",
					"name": "name",
					"type": "string"
				}
			],
			"name": "setName",
			"outputs": [],
			"stateMutability": "nonpayable",
			"type": "function"
		},
		{
			"inputs": [
				{
					"internalType": "uint256",
					"name": "tokenId",
					"type": "uint256"
				}
			],
			"name": "setTokenId",
			"outputs": [],
			"stateMutability": "nonpayable",
			"type": "function"
		},
		{
			"inputs": [
				{
					"internalType": "bytes4",
					"name": "interfaceId",
					"type": "bytes4"
				}
			],
			"name": "supportsInterface",
			"outputs": [
				{
					"internalType": "bool",
					"name": "",
					"type": "bool"
				}
			],
			"stateMutability": "view",
			"type": "function"
		},
		{
			"inputs": [
				{
					"internalType": "address",
					"name": "creator",
					"type": "address"
				},
				{
					"internalType": "uint256",
					"name": "tokenId",
					"type": "uint256"
				}
			],
			"name": "tokenURI",
			"outputs": [
				{
					"internalType": "string",
					"name": "",
					"type": "string"
				}
			],
			"stateMutability": "view",
			"type": "function"
		},
		{
			"inputs": [],
			"name": "totalSupply",
			"outputs": [
				{
					"internalType": "uint256",
					"name": "",
					"type": "uint256"
				}
			],
			"stateMutability": "view",
			"type": "function"
		},
		{
			"inputs": [
				{
					"internalType": "address",
					"name": "newOwner",
					"type": "address"
				}
			],
			"name": "transferOwnership",
			"outputs": [],
			"stateMutability": "nonpayable",
			"type": "function"
		},
		{
			"inputs": [],
			"name": "withdrawAll",
			"outputs": [],
			"stateMutability": "nonpayable",
			"type": "function"
		}
	]
}