{
	"data": {
		"bytecode": {
			"linkReferences": {},
			"object": "5f600655600160075560c0604052601c60809081527f68747470733a2f2f7777772e6f6d656e74656a6f76656d2e636f6d2f0000000060a052600a906100459082610264565b5060408051602081019091525f8152600b906100619082610264565b5060408051602081019091525f8152600c9061007d9082610264565b50348015610089575f80fd5b50604051611be2380380611be28339810160408190526100a8916103c2565b846001600160a01b0381166100d657604051631e4fbdf760e01b81525f600482015260240160405180910390fd5b6100df8161017d565b50600380546001600160a01b03191633179055600c6100fe8482610264565b50600b61010b8382610264565b50600580546001600160a01b0319166001600160a01b0392909216919091179055505073f1da6e2d387e9da611dac8a7fc587eaa4b0100135f52505060096020527f276d58828274818a74ba193a75039a9f44501df1c8911c786bf047e455c5930f805460ff19166001179055610458565b5f80546001600160a01b038381166001600160a01b0319831681178455604051919092169283917f8be0079c531659141344cd1fd0a4f28419497f9722a3daafe3b4186f6b6457e09190a35050565b634e487b7160e01b5f52604160045260245ffd5b600181811c908216806101f457607f821691505b60208210810361021257634e487b7160e01b5f52602260045260245ffd5b50919050565b601f82111561025f57805f5260205f20601f840160051c8101602085101561023d5750805b601f840160051c820191505b8181101561025c575f8155600101610249565b50505b505050565b81516001600160401b0381111561027d5761027d6101cc565b6102918161028b84546101e0565b84610218565b6020601f8211600181146102c3575f83156102ac5750848201515b5f19600385901b1c1916600184901b17845561025c565b5f84815260208120601f198516915b828110156102f257878501518255602094850194600190920191016102d2565b508482101561030f57868401515f19600387901b60f8161c191681555b50505050600190811b01905550565b80516001600160a01b0381168114610334575f80fd5b919050565b5f82601f830112610348575f80fd5b81516001600160401b03811115610361576103616101cc565b604051601f8201601f19908116603f011681016001600160401b038111828210171561038f5761038f6101cc565b6040528181528382016020018510156103a6575f80fd5b8160208501602083015e5f918101602001919091529392505050565b5f805f805f60a086880312156103d6575f80fd5b6103df8661031e565b94506103ed6020870161031e565b60408701519094506001600160401b03811115610408575f80fd5b61041488828901610339565b606088015190945090506001600160401b03811115610431575f80fd5b61043d88828901610339565b92505061044c6080870161031e565b90509295509295909350565b61177d806104655f395ff3fe60806040526004361061017b575f3560e01c8063853828b6116100cd578063aad61bb611610087578063cde4efa911610062578063cde4efa914610443578063d5abeb0114610457578063e9dc63751461046b578063f2fde38b1461048a575f80fd5b8063aad61bb6146103e6578063c038fe0414610405578063c47f002714610424575f80fd5b8063853828b61461032257806385e68531146103365780638da5cb5b146103555780638f32d59b1461037157806390c3f38f1461039057806395a078e8146103af575f80fd5b80632d3456701161013857806349fe55351161011357806349fe5535146102c85780636a627842146102dc5780636d73e669146102ef578063715018a61461030e575f80fd5b80632d3456701461026757806331ae450b1461028657806337d5ad2b146102a7575f80fd5b806301ffc9a71461017f57806302d05d3f146101b35780630ae5e739146101ea57806318160ddd1461020b57806324d7806c1461022957806326d58ad314610248575b5f80fd5b34801561018a575f80fd5b5061019e6101993660046110f6565b6104a9565b60405190151581526020015b60405180910390f35b3480156101be575f80fd5b506008546101d2906001600160a01b031681565b6040516001600160a01b0390911681526020016101aa565b3480156101f5575f80fd5b50610209610204366004611138565b610509565b005b348015610216575f80fd5b506006545b6040519081526020016101aa565b348015610234575f80fd5b5061019e610243366004611138565b610578565b348015610253575f80fd5b506102096102623660046111bd565b6105af565b348015610272575f80fd5b50610209610281366004611138565b610602565b348015610291575f80fd5b5061029a61065d565b6040516101aa9190611237565b3480156102b2575f80fd5b506102bb610701565b6040516101aa9190611282565b3480156102d3575f80fd5b506102bb6107d7565b6102096102ea366004611138565b610863565b3480156102fa575f80fd5b50610209610309366004611138565b610974565b348015610319575f80fd5b506102096109cb565b34801561032d575f80fd5b506102096109de565b348015610341575f80fd5b50610209610350366004611138565b610a43565b348015610360575f80fd5b505f546001600160a01b03166101d2565b34801561037c575f80fd5b506003546001600160a01b0316331461019e565b34801561039b575f80fd5b506102096103aa3660046111bd565b610aaa565b3480156103ba575f80fd5b5061019e6103c9366004611138565b6001600160a01b03165f9081526004602052604090205460ff1690565b3480156103f1575f80fd5b50610209610400366004611138565b610af9565b348015610410575f80fd5b506102bb61041f3660046111bd565b610b5e565b34801561042f575f80fd5b5061020961043e3660046111bd565b610b8f565b34801561044e575f80fd5b50610209610bde565b348015610462575f80fd5b5060075461021b565b348015610476575f80fd5b506102bb6104853660046112b7565b610c85565b348015610495575f80fd5b506102096104a4366004611138565b610c96565b5f6001600160e01b0319821663e9dc637560e01b14806104d957506001600160e01b031982166353efcf4f60e11b145b806104f457506001600160e01b031982166354c1bcd960e01b145b80610503575061050382610cd0565b92915050565b6003546001600160a01b031633146105555760405162461bcd60e51b815260206004820152600a6024820152694e6f7420616e6472657760b01b60448201526064015b60405180910390fd5b6001600160a01b03165f908152600460205260409020805460ff19166001179055565b5f816001600160a01b03166105945f546001600160a01b031690565b6001600160a01b031614806105035750610503600183610cf4565b6003546001600160a01b03163314806105d65750335f9081526004602052604090205460ff165b6105f25760405162461bcd60e51b815260040161054c906112df565b600a6105fe828261138b565b5050565b61060a610d15565b610615600182610cf4565b1561065a5760405133906001600160a01b038316907f7c0c3c84c67c85fcac635147348bfe374c24a1a93d0366d1cfe9d8853cbf89d5905f90a36105fe600182610d41565b50565b60606106696001610d55565b67ffffffffffffffff81111561068157610681611151565b6040519080825280602002602001820160405280156106aa578160200160208202803683370190505b5090505f5b6106b96001610d55565b8110156106fd576106cb600182610d5e565b8282815181106106dd576106dd611446565b6001600160a01b03909216602092830291909101909101526001016106af565b5090565b60605f60055f9054906101000a90046001600160a01b03166001600160a01b031663f3651cbb6040518163ffffffff1660e01b81526004015f60405180830381865afa158015610753573d5f803e3d5ffd5b505050506040513d5f823e601f3d908101601f1916820160405261077a919081019061145a565b90505f6107ae600c600b600a8560405160200161079a9493929190611554565b604051602081830303815290604052610d69565b9050806040516020016107c191906115f9565b6040516020818303038152906040529250505090565b600a80546107e490611307565b80601f016020809104026020016040519081016040528092919081815260200182805461081090611307565b801561085b5780601f106108325761010080835404028352916020019161085b565b820191905f5260205f20905b81548152906001019060200180831161083e57829003601f168201915b505050505081565b6003546001600160a01b031633148061088a5750335f9081526004602052604090205460ff165b6108a65760405162461bcd60e51b815260040161054c906112df565b600754600654106108ef5760405162461bcd60e51b8152602060048201526013602482015272139bc81b5bdc99481d1bdad95b9cc81b19599d606a1b604482015260640161054c565b600854604051630525194b60e31b81526001600160a01b03838116600483015290911690632928ca58906024016020604051808303815f875af1158015610938573d5f803e3d5ffd5b505050506040513d601f19601f8201168201806040525081019061095c919061162a565b5060068054905f61096c83611655565b919050555050565b61097c610d15565b610987600182610cf4565b61065a5760405133906001600160a01b038316907f7e1a1a08d52e4ba0e21554733d66165fd5151f99460116223d9e3a608eec5cb1905f90a36105fe600182610d8f565b6109d3610d15565b6109dc5f610da3565b565b6003546001600160a01b0316331480610a055750335f9081526004602052604090205460ff165b610a215760405162461bcd60e51b815260040161054c906112df565b60405133904780156108fc02915f818181858888f193505050506109dc575f80fd5b6003546001600160a01b03163314610a8a5760405162461bcd60e51b815260206004820152600a6024820152694e6f7420616e6472657760b01b604482015260640161054c565b6001600160a01b03165f908152600460205260409020805460ff19169055565b6003546001600160a01b0316331480610ad15750335f9081526004602052604090205460ff165b610aed5760405162461bcd60e51b815260040161054c906112df565b600b6105fe828261138b565b6003546001600160a01b0316331480610b205750335f9081526004602052604090205460ff165b610b3c5760405162461bcd60e51b815260040161054c906112df565b600580546001600160a01b0319166001600160a01b0392909216919091179055565b6060610b6982610d69565b604051602001610b79919061166d565b6040516020818303038152906040529050919050565b6003546001600160a01b0316331480610bb65750335f9081526004602052604090205460ff165b610bd25760405162461bcd60e51b815260040161054c906112df565b600c6105fe828261138b565b6003546001600160a01b0316331480610c055750335f9081526004602052604090205460ff165b610c215760405162461bcd60e51b815260040161054c906112df565b60055f9054906101000a90046001600160a01b03166001600160a01b031663cde4efa96040518163ffffffff1660e01b81526004015f604051808303815f87803b158015610c6d575f80fd5b505af1158015610c7f573d5f803e3d5ffd5b50505050565b6060610c8f610701565b9392505050565b610c9e610d15565b6001600160a01b038116610cc757604051631e4fbdf760e01b81525f600482015260240161054c565b61065a81610da3565b5f6001600160e01b03198216637005caad60e01b1480610503575061050382610df2565b6001600160a01b0381165f9081526001830160205260408120541515610c8f565b5f546001600160a01b031633146109dc5760405163118cdaa760e01b815233600482015260240161054c565b5f610c8f836001600160a01b038416610e26565b5f610503825490565b5f610c8f8383610f09565b606061050382604051806060016040528060408152602001611708604091396001610f2f565b5f610c8f836001600160a01b0384166110aa565b5f80546001600160a01b038381166001600160a01b0319831681178455604051919092169283917f8be0079c531659141344cd1fd0a4f28419497f9722a3daafe3b4186f6b6457e09190a35050565b5f6001600160e01b03198216632a9f3abf60e11b148061050357506301ffc9a760e01b6001600160e01b0319831614610503565b5f8181526001830160205260408120548015610f00575f610e48600183611697565b85549091505f90610e5b90600190611697565b9050808214610eba575f865f018281548110610e7957610e79611446565b905f5260205f200154905080875f018481548110610e9957610e99611446565b5f918252602080832090910192909255918252600188019052604090208390555b8554869080610ecb57610ecb6116aa565b600190038181905f5260205f20015f90559055856001015f8681526020019081526020015f205f905560019350505050610503565b5f915050610503565b5f825f018281548110610f1e57610f1e611446565b905f5260205f200154905092915050565b606083515f03610f4d575060408051602081019091525f8152610c8f565b5f82610f7d57600385516004610f6391906116be565b610f6e9060026116d5565b610f7891906116e8565b610fa2565b600385516002610f8d91906116d5565b610f9791906116e8565b610fa29060046116be565b90505f8167ffffffffffffffff811115610fbe57610fbe611151565b6040519080825280601f01601f191660200182016040528015610fe8576020820181803683370190505b509050600185016020820187885189016020810180515f82525b8284101561105d576003840193508351603f8160121c168701518653600186019550603f81600c1c168701518653600186019550603f8160061c168701518653600186019550603f8116870151865350600185019450611002565b90525050851561109e5760038851066001811461108157600281146110945761109c565b603d6001830353603d600283035361109c565b603d60018303535b505b50909695505050505050565b5f8181526001830160205260408120546110ef57508154600181810184555f848152602080822090930184905584548482528286019093526040902091909155610503565b505f610503565b5f60208284031215611106575f80fd5b81356001600160e01b031981168114610c8f575f80fd5b80356001600160a01b0381168114611133575f80fd5b919050565b5f60208284031215611148575f80fd5b610c8f8261111d565b634e487b7160e01b5f52604160045260245ffd5b604051601f8201601f1916810167ffffffffffffffff8111828210171561118e5761118e611151565b604052919050565b5f67ffffffffffffffff8211156111af576111af611151565b50601f01601f191660200190565b5f602082840312156111cd575f80fd5b813567ffffffffffffffff8111156111e3575f80fd5b8201601f810184136111f3575f80fd5b803561120661120182611196565b611165565b81815285602083850101111561121a575f80fd5b816020840160208301375f91810160200191909152949350505050565b602080825282518282018190525f918401906040840190835b818110156112775783516001600160a01b0316835260209384019390920191600101611250565b509095945050505050565b602081525f82518060208401528060208501604085015e5f604082850101526040601f19601f83011684010191505092915050565b5f80604083850312156112c8575f80fd5b6112d18361111d565b946020939093013593505050565b6020808252600e908201526d139bdd08185d5d1a1bdc9a5e995960921b604082015260600190565b600181811c9082168061131b57607f821691505b60208210810361133957634e487b7160e01b5f52602260045260245ffd5b50919050565b601f82111561138657805f5260205f20601f840160051c810160208510156113645750805b601f840160051c820191505b81811015611383575f8155600101611370565b50505b505050565b815167ffffffffffffffff8111156113a5576113a5611151565b6113b9816113b38454611307565b8461133f565b6020601f8211600181146113eb575f83156113d45750848201515b5f19600385901b1c1916600184901b178455611383565b5f84815260208120601f198516915b8281101561141a57878501518255602094850194600190920191016113fa565b508482101561143757868401515f19600387901b60f8161c191681555b50505050600190811b01905550565b634e487b7160e01b5f52603260045260245ffd5b5f6020828403121561146a575f80fd5b815167ffffffffffffffff811115611480575f80fd5b8201601f81018413611490575f80fd5b805161149e61120182611196565b8181528560208385010111156114b2575f80fd5b8160208401602083015e5f91810160200191909152949350505050565b5f81546114db81611307565b6001821680156114f2576001811461150757611534565b60ff1983168652811515820286019350611534565b845f5260205f205f5b8381101561152c57815488820152600190910190602001611510565b505081860193505b50505092915050565b5f81518060208401855e5f93019283525090919050565b693d913730b6b2911d101160b11b81525f611572600a8301876114cf565b72111610113232b9b1b934b83a34b7b7111d101160691b815261159860138201876114cf565b731116101132bc3a32b93730b62fbab936111d101160611b815290506115c160148201866114cf565b6c1116101134b6b0b3b2911d101160991b815290506115e3600d82018561153d565b61227d60f01b8152600201979650505050505050565b7f646174613a6170706c69636174696f6e2f6a736f6e3b6261736536342c00000081525f610c8f601d83018461153d565b5f6020828403121561163a575f80fd5b5051919050565b634e487b7160e01b5f52601160045260245ffd5b5f6001820161166657611666611641565b5060010190565b7519185d184e9d195e1d0bda1d1b5b0ed8985cd94d8d0b60521b81525f610c8f601683018461153d565b8181038181111561050357610503611641565b634e487b7160e01b5f52603160045260245ffd5b808202811582820484141761050357610503611641565b8082018082111561050357610503611641565b5f8261170257634e487b7160e01b5f52601260045260245ffd5b50049056fe4142434445464748494a4b4c4d4e4f505152535455565758595a6162636465666768696a6b6c6d6e6f707172737475767778797a303132333435363738392b2fa26469706673582212209325c0cdc437c6e9b39def20a704917716460760cacb0c10e495d8bf8e069e7964736f6c634300081a0033",
			"opcodes": "PUSH0 PUSH1 0x6 SSTORE PUSH1 0x1 PUSH1 0x7 SSTORE PUSH1 0xC0 PUSH1 0x40 MSTORE PUSH1 0x1C PUSH1 0x80 SWAP1 DUP2 MSTORE PUSH32 0x68747470733A2F2F7777772E6F6D656E74656A6F76656D2E636F6D2F00000000 PUSH1 0xA0 MSTORE PUSH1 0xA SWAP1 PUSH2 0x45 SWAP1 DUP3 PUSH2 0x264 JUMP JUMPDEST POP PUSH1 0x40 DUP1 MLOAD PUSH1 0x20 DUP2 ADD SWAP1 SWAP2 MSTORE PUSH0 DUP2 MSTORE PUSH1 0xB SWAP1 PUSH2 0x61 SWAP1 DUP3 PUSH2 0x264 JUMP JUMPDEST POP PUSH1 0x40 DUP1 MLOAD PUSH1 0x20 DUP2 ADD SWAP1 SWAP2 MSTORE PUSH0 DUP2 MSTORE PUSH1 0xC SWAP1 PUSH2 0x7D SWAP1 DUP3 PUSH2 0x264 JUMP JUMPDEST POP CALLVALUE DUP1 ISZERO PUSH2 0x89 JUMPI PUSH0 DUP1 REVERT JUMPDEST POP PUSH1 0x40 MLOAD PUSH2 0x1BE2 CODESIZE SUB DUP1 PUSH2 0x1BE2 DUP4 CODECOPY DUP2 ADD PUSH1 0x40 DUP2 SWAP1 MSTORE PUSH2 0xA8 SWAP2 PUSH2 0x3C2 JUMP JUMPDEST DUP5 PUSH1 0x1 PUSH1 0x1 PUSH1 0xA0 SHL SUB DUP2 AND PUSH2 0xD6 JUMPI PUSH1 0x40 MLOAD PUSH4 0x1E4FBDF7 PUSH1 0xE0 SHL DUP2 MSTORE PUSH0 PUSH1 0x4 DUP3 ADD MSTORE PUSH1 0x24 ADD PUSH1 0x40 MLOAD DUP1 SWAP2 SUB SWAP1 REVERT JUMPDEST PUSH2 0xDF DUP2 PUSH2 0x17D JUMP JUMPDEST POP PUSH1 0x3 DUP1 SLOAD PUSH1 0x1 PUSH1 0x1 PUSH1 0xA0 SHL SUB NOT AND CALLER OR SWAP1 SSTORE PUSH1 0xC PUSH2 0xFE DUP5 DUP3 PUSH2 0x264 JUMP JUMPDEST POP PUSH1 0xB PUSH2 0x10B DUP4 DUP3 PUSH2 0x264 JUMP JUMPDEST POP PUSH1 0x5 DUP1 SLOAD PUSH1 0x1 PUSH1 0x1 PUSH1 0xA0 SHL SUB NOT AND PUSH1 0x1 PUSH1 0x1 PUSH1 0xA0 SHL SUB SWAP3 SWAP1 SWAP3 AND SWAP2 SWAP1 SWAP2 OR SWAP1 SSTORE POP POP PUSH20 0xF1DA6E2D387E9DA611DAC8A7FC587EAA4B010013 PUSH0 MSTORE POP POP PUSH1 0x9 PUSH1 0x20 MSTORE PUSH32 0x276D58828274818A74BA193A75039A9F44501DF1C8911C786BF047E455C5930F DUP1 SLOAD PUSH1 0xFF NOT AND PUSH1 0x1 OR SWAP1 SSTORE PUSH2 0x458 JUMP JUMPDEST PUSH0 DUP1 SLOAD PUSH1 0x1 PUSH1 0x1 PUSH1 0xA0 SHL SUB DUP4 DUP2 AND PUSH1 0x1 PUSH1 0x1 PUSH1 0xA0 SHL SUB NOT DUP4 AND DUP2 OR DUP5 SSTORE PUSH1 0x40 MLOAD SWAP2 SWAP1 SWAP3 AND SWAP3 DUP4 SWAP2 PUSH32 0x8BE0079C531659141344CD1FD0A4F28419497F9722A3DAAFE3B4186F6B6457E0 SWAP2 SWAP1 LOG3 POP POP JUMP JUMPDEST PUSH4 0x4E487B71 PUSH1 0xE0 SHL PUSH0 MSTORE PUSH1 0x41 PUSH1 0x4 MSTORE PUSH1 0x24 PUSH0 REVERT JUMPDEST PUSH1 0x1 DUP2 DUP2 SHR SWAP1 DUP3 AND DUP1 PUSH2 0x1F4 JUMPI PUSH1 0x7F DUP3 AND SWAP2 POP JUMPDEST PUSH1 0x20 DUP3 LT DUP2 SUB PUSH2 0x212 JUMPI PUSH4 0x4E487B71 PUSH1 0xE0 SHL PUSH0 MSTORE PUSH1 0x22 PUSH1 0x4 MSTORE PUSH1 0x24 PUSH0 REVERT JUMPDEST POP SWAP2 SWAP1 POP JUMP JUMPDEST PUSH1 0x1F DUP3 GT ISZERO PUSH2 0x25F JUMPI DUP1 PUSH0 MSTORE PUSH1 0x20 PUSH0 KECCAK256 PUSH1 0x1F DUP5 ADD PUSH1 0x5 SHR DUP2 ADD PUSH1 0x20 DUP6 LT ISZERO PUSH2 0x23D JUMPI POP DUP1 JUMPDEST PUSH1 0x1F DUP5 ADD PUSH1 0x5 SHR DUP3 ADD SWAP2 POP JUMPDEST DUP2 DUP2 LT ISZERO PUSH2 0x25C JUMPI PUSH0 DUP2 SSTORE PUSH1 0x1 ADD PUSH2 0x249 JUMP JUMPDEST POP POP JUMPDEST POP POP POP JUMP JUMPDEST DUP2 MLOAD PUSH1 0x1 PUSH1 0x1 PUSH1 0x40 SHL SUB DUP2 GT ISZERO PUSH2 0x27D JUMPI PUSH2 0x27D PUSH2 0x1CC JUMP JUMPDEST PUSH2 0x291 DUP2 PUSH2 0x28B DUP5 SLOAD PUSH2 0x1E0 JUMP JUMPDEST DUP5 PUSH2 0x218 JUMP JUMPDEST PUSH1 0x20 PUSH1 0x1F DUP3 GT PUSH1 0x1 DUP2 EQ PUSH2 0x2C3 JUMPI PUSH0 DUP4 ISZERO PUSH2 0x2AC JUMPI POP DUP5 DUP3 ADD MLOAD JUMPDEST PUSH0 NOT PUSH1 0x3 DUP6 SWAP1 SHL SHR NOT AND PUSH1 0x1 DUP5 SWAP1 SHL OR DUP5 SSTORE PUSH2 0x25C JUMP JUMPDEST PUSH0 DUP5 DUP2 MSTORE PUSH1 0x20 DUP2 KECCAK256 PUSH1 0x1F NOT DUP6 AND SWAP2 JUMPDEST DUP3 DUP2 LT ISZERO PUSH2 0x2F2 JUMPI DUP8 DUP6 ADD MLOAD DUP3 SSTORE PUSH1 0x20 SWAP5 DUP6 ADD SWAP5 PUSH1 0x1 SWAP1 SWAP3 ADD SWAP2 ADD PUSH2 0x2D2 JUMP JUMPDEST POP DUP5 DUP3 LT ISZERO PUSH2 0x30F JUMPI DUP7 DUP5 ADD MLOAD PUSH0 NOT PUSH1 0x3 DUP8 SWAP1 SHL PUSH1 0xF8 AND SHR NOT AND DUP2 SSTORE JUMPDEST POP POP POP POP PUSH1 0x1 SWAP1 DUP2 SHL ADD SWAP1 SSTORE POP JUMP JUMPDEST DUP1 MLOAD PUSH1 0x1 PUSH1 0x1 PUSH1 0xA0 SHL SUB DUP2 AND DUP2 EQ PUSH2 0x334 JUMPI PUSH0 DUP1 REVERT JUMPDEST SWAP2 SWAP1 POP JUMP JUMPDEST PUSH0 DUP3 PUSH1 0x1F DUP4 ADD SLT PUSH2 0x348 JUMPI PUSH0 DUP1 REVERT JUMPDEST DUP2 MLOAD PUSH1 0x1 PUSH1 0x1 PUSH1 0x40 SHL SUB DUP2 GT ISZERO PUSH2 0x361 JUMPI PUSH2 0x361 PUSH2 0x1CC JUMP JUMPDEST PUSH1 0x40 MLOAD PUSH1 0x1F DUP3 ADD PUSH1 0x1F NOT SWAP1 DUP2 AND PUSH1 0x3F ADD AND DUP2 ADD PUSH1 0x1 PUSH1 0x1 PUSH1 0x40 SHL SUB DUP2 GT DUP3 DUP3 LT OR ISZERO PUSH2 0x38F JUMPI PUSH2 0x38F PUSH2 0x1CC JUMP JUMPDEST PUSH1 0x40 MSTORE DUP2 DUP2 MSTORE DUP4 DUP3 ADD PUSH1 0x20 ADD DUP6 LT ISZERO PUSH2 0x3A6 JUMPI PUSH0 DUP1 REVERT JUMPDEST DUP2 PUSH1 0x20 DUP6 ADD PUSH1 0x20 DUP4 ADD MCOPY PUSH0 SWAP2 DUP2 ADD PUSH1 0x20 ADD SWAP2 SWAP1 SWAP2 MSTORE SWAP4 SWAP3 POP POP POP JUMP JUMPDEST PUSH0 DUP1 PUSH0 DUP1 PUSH0 PUSH1 0xA0 DUP7 DUP9 SUB SLT ISZERO PUSH2 0x3D6 JUMPI PUSH0 DUP1 REVERT JUMPDEST PUSH2 0x3DF DUP7 PUSH2 0x31E JUMP JUMPDEST SWAP5 POP PUSH2 0x3ED PUSH1 0x20 DUP8 ADD PUSH2 0x31E JUMP JUMPDEST PUSH1 0x40 DUP8 ADD MLOAD SWAP1 SWAP5 POP PUSH1 0x1 PUSH1 0x1 PUSH1 0x40 SHL SUB DUP2 GT ISZERO PUSH2 0x408 JUMPI PUSH0 DUP1 REVERT JUMPDEST PUSH2 0x414 DUP9 DUP3 DUP10 ADD PUSH2 0x339 JUMP JUMPDEST PUSH1 0x60 DUP9 ADD MLOAD SWAP1 SWAP5 POP SWAP1 POP PUSH1 0x1 PUSH1 0x1 PUSH1 0x40 SHL SUB DUP2 GT ISZERO PUSH2 0x431 JUMPI PUSH0 DUP1 REVERT JUMPDEST PUSH2 0x43D DUP9 DUP3 DUP10 ADD PUSH2 0x339 JUMP JUMPDEST SWAP3 POP POP PUSH2 0x44C PUSH1 0x80 DUP8 ADD PUSH2 0x31E JUMP JUMPDEST SWAP1 POP SWAP3 SWAP6 POP SWAP3 SWAP6 SWAP1 SWAP4 POP JUMP JUMPDEST PUSH2 0x177D DUP1 PUSH2 0x465 PUSH0 CODECOPY PUSH0 RETURN INVALID PUSH1 0x80 PUSH1 0x40 MSTORE PUSH1 0x4 CALLDATASIZE LT PUSH2 0x17B JUMPI PUSH0 CALLDATALOAD PUSH1 0xE0 SHR DUP1 PUSH4 0x853828B6 GT PUSH2 0xCD JUMPI DUP1 PUSH4 0xAAD61BB6 GT PUSH2 0x87 JUMPI DUP1 PUSH4 0xCDE4EFA9 GT PUSH2 0x62 JUMPI DUP1 PUSH4 0xCDE4EFA9 EQ PUSH2 0x443 JUMPI DUP1 PUSH4 0xD5ABEB01 EQ PUSH2 0x457 JUMPI DUP1 PUSH4 0xE9DC6375 EQ PUSH2 0x46B JUMPI DUP1 PUSH4 0xF2FDE38B EQ PUSH2 0x48A JUMPI PUSH0 DUP1 REVERT JUMPDEST DUP1 PUSH4 0xAAD61BB6 EQ PUSH2 0x3E6 JUMPI DUP1 PUSH4 0xC038FE04 EQ PUSH2 0x405 JUMPI DUP1 PUSH4 0xC47F0027 EQ PUSH2 0x424 JUMPI PUSH0 DUP1 REVERT JUMPDEST DUP1 PUSH4 0x853828B6 EQ PUSH2 0x322 JUMPI DUP1 PUSH4 0x85E68531 EQ PUSH2 0x336 JUMPI DUP1 PUSH4 0x8DA5CB5B EQ PUSH2 0x355 JUMPI DUP1 PUSH4 0x8F32D59B EQ PUSH2 0x371 JUMPI DUP1 PUSH4 0x90C3F38F EQ PUSH2 0x390 JUMPI DUP1 PUSH4 0x95A078E8 EQ PUSH2 0x3AF JUMPI PUSH0 DUP1 REVERT JUMPDEST DUP1 PUSH4 0x2D345670 GT PUSH2 0x138 JUMPI DUP1 PUSH4 0x49FE5535 GT PUSH2 0x113 JUMPI DUP1 PUSH4 0x49FE5535 EQ PUSH2 0x2C8 JUMPI DUP1 PUSH4 0x6A627842 EQ PUSH2 0x2DC JUMPI DUP1 PUSH4 0x6D73E669 EQ PUSH2 0x2EF JUMPI DUP1 PUSH4 0x715018A6 EQ PUSH2 0x30E JUMPI PUSH0 DUP1 REVERT JUMPDEST DUP1 PUSH4 0x2D345670 EQ PUSH2 0x267 JUMPI DUP1 PUSH4 0x31AE450B EQ PUSH2 0x286 JUMPI DUP1 PUSH4 0x37D5AD2B EQ PUSH2 0x2A7 JUMPI PUSH0 DUP1 REVERT JUMPDEST DUP1 PUSH4 0x1FFC9A7 EQ PUSH2 0x17F JUMPI DUP1 PUSH4 0x2D05D3F EQ PUSH2 0x1B3 JUMPI DUP1 PUSH4 0xAE5E739 EQ PUSH2 0x1EA JUMPI DUP1 PUSH4 0x18160DDD EQ PUSH2 0x20B JUMPI DUP1 PUSH4 0x24D7806C EQ PUSH2 0x229 JUMPI DUP1 PUSH4 0x26D58AD3 EQ PUSH2 0x248 JUMPI JUMPDEST PUSH0 DUP1 REVERT JUMPDEST CALLVALUE DUP1 ISZERO PUSH2 0x18A JUMPI PUSH0 DUP1 REVERT JUMPDEST POP PUSH2 0x19E PUSH2 0x199 CALLDATASIZE PUSH1 0x4 PUSH2 0x10F6 JUMP JUMPDEST PUSH2 0x4A9 JUMP JUMPDEST PUSH1 0x40 MLOAD SWAP1 ISZERO ISZERO DUP2 MSTORE PUSH1 0x20 ADD JUMPDEST PUSH1 0x40 MLOAD DUP1 SWAP2 SUB SWAP1 RETURN JUMPDEST CALLVALUE DUP1 ISZERO PUSH2 0x1BE JUMPI PUSH0 DUP1 REVERT JUMPDEST POP PUSH1 0x8 SLOAD PUSH2 0x1D2 SWAP1 PUSH1 0x1 PUSH1 0x1 PUSH1 0xA0 SHL SUB AND DUP2 JUMP JUMPDEST PUSH1 0x40 MLOAD PUSH1 0x1 PUSH1 0x1 PUSH1 0xA0 SHL SUB SWAP1 SWAP2 AND DUP2 MSTORE PUSH1 0x20 ADD PUSH2 0x1AA JUMP JUMPDEST CALLVALUE DUP1 ISZERO PUSH2 0x1F5 JUMPI PUSH0 DUP1 REVERT JUMPDEST POP PUSH2 0x209 PUSH2 0x204 CALLDATASIZE PUSH1 0x4 PUSH2 0x1138 JUMP JUMPDEST PUSH2 0x509 JUMP JUMPDEST STOP JUMPDEST CALLVALUE DUP1 ISZERO PUSH2 0x216 JUMPI PUSH0 DUP1 REVERT JUMPDEST POP PUSH1 0x6 SLOAD JUMPDEST PUSH1 0x40 MLOAD SWAP1 DUP2 MSTORE PUSH1 0x20 ADD PUSH2 0x1AA JUMP JUMPDEST CALLVALUE DUP1 ISZERO PUSH2 0x234 JUMPI PUSH0 DUP1 REVERT JUMPDEST POP PUSH2 0x19E PUSH2 0x243 CALLDATASIZE PUSH1 0x4 PUSH2 0x1138 JUMP JUMPDEST PUSH2 0x578 JUMP JUMPDEST CALLVALUE DUP1 ISZERO PUSH2 0x253 JUMPI PUSH0 DUP1 REVERT JUMPDEST POP PUSH2 0x209 PUSH2 0x262 CALLDATASIZE PUSH1 0x4 PUSH2 0x11BD JUMP JUMPDEST PUSH2 0x5AF JUMP JUMPDEST CALLVALUE DUP1 ISZERO PUSH2 0x272 JUMPI PUSH0 DUP1 REVERT JUMPDEST POP PUSH2 0x209 PUSH2 0x281 CALLDATASIZE PUSH1 0x4 PUSH2 0x1138 JUMP JUMPDEST PUSH2 0x602 JUMP JUMPDEST CALLVALUE DUP1 ISZERO PUSH2 0x291 JUMPI PUSH0 DUP1 REVERT JUMPDEST POP PUSH2 0x29A PUSH2 0x65D JUMP JUMPDEST PUSH1 0x40 MLOAD PUSH2 0x1AA SWAP2 SWAP1 PUSH2 0x1237 JUMP JUMPDEST CALLVALUE DUP1 ISZERO PUSH2 0x2B2 JUMPI PUSH0 DUP1 REVERT JUMPDEST POP PUSH2 0x2BB PUSH2 0x701 JUMP JUMPDEST PUSH1 0x40 MLOAD PUSH2 0x1AA SWAP2 SWAP1 PUSH2 0x1282 JUMP JUMPDEST CALLVALUE DUP1 ISZERO PUSH2 0x2D3 JUMPI PUSH0 DUP1 REVERT JUMPDEST POP PUSH2 0x2BB PUSH2 0x7D7 JUMP JUMPDEST PUSH2 0x209 PUSH2 0x2EA CALLDATASIZE PUSH1 0x4 PUSH2 0x1138 JUMP JUMPDEST PUSH2 0x863 JUMP JUMPDEST CALLVALUE DUP1 ISZERO PUSH2 0x2FA JUMPI PUSH0 DUP1 REVERT JUMPDEST POP PUSH2 0x209 PUSH2 0x309 CALLDATASIZE PUSH1 0x4 PUSH2 0x1138 JUMP JUMPDEST PUSH2 0x974 JUMP JUMPDEST CALLVALUE DUP1 ISZERO PUSH2 0x319 JUMPI PUSH0 DUP1 REVERT JUMPDEST POP PUSH2 0x209 PUSH2 0x9CB JUMP JUMPDEST CALLVALUE DUP1 ISZERO PUSH2 0x32D JUMPI PUSH0 DUP1 REVERT JUMPDEST POP PUSH2 0x209 PUSH2 0x9DE JUMP JUMPDEST CALLVALUE DUP1 ISZERO PUSH2 0x341 JUMPI PUSH0 DUP1 REVERT JUMPDEST POP PUSH2 0x209 PUSH2 0x350 CALLDATASIZE PUSH1 0x4 PUSH2 0x1138 JUMP JUMPDEST PUSH2 0xA43 JUMP JUMPDEST CALLVALUE DUP1 ISZERO PUSH2 0x360 JUMPI PUSH0 DUP1 REVERT JUMPDEST POP PUSH0 SLOAD PUSH1 0x1 PUSH1 0x1 PUSH1 0xA0 SHL SUB AND PUSH2 0x1D2 JUMP JUMPDEST CALLVALUE DUP1 ISZERO PUSH2 0x37C JUMPI PUSH0 DUP1 REVERT JUMPDEST POP PUSH1 0x3 SLOAD PUSH1 0x1 PUSH1 0x1 PUSH1 0xA0 SHL SUB AND CALLER EQ PUSH2 0x19E JUMP JUMPDEST CALLVALUE DUP1 ISZERO PUSH2 0x39B JUMPI PUSH0 DUP1 REVERT JUMPDEST POP PUSH2 0x209 PUSH2 0x3AA CALLDATASIZE PUSH1 0x4 PUSH2 0x11BD JUMP JUMPDEST PUSH2 0xAAA JUMP JUMPDEST CALLVALUE DUP1 ISZERO PUSH2 0x3BA JUMPI PUSH0 DUP1 REVERT JUMPDEST POP PUSH2 0x19E PUSH2 0x3C9 CALLDATASIZE PUSH1 0x4 PUSH2 0x1138 JUMP JUMPDEST PUSH1 0x1 PUSH1 0x1 PUSH1 0xA0 SHL SUB AND PUSH0 SWAP1 DUP2 MSTORE PUSH1 0x4 PUSH1 0x20 MSTORE PUSH1 0x40 SWAP1 KECCAK256 SLOAD PUSH1 0xFF AND SWAP1 JUMP JUMPDEST CALLVALUE DUP1 ISZERO PUSH2 0x3F1 JUMPI PUSH0 DUP1 REVERT JUMPDEST POP PUSH2 0x209 PUSH2 0x400 CALLDATASIZE PUSH1 0x4 PUSH2 0x1138 JUMP JUMPDEST PUSH2 0xAF9 JUMP JUMPDEST CALLVALUE DUP1 ISZERO PUSH2 0x410 JUMPI PUSH0 DUP1 REVERT JUMPDEST POP PUSH2 0x2BB PUSH2 0x41F CALLDATASIZE PUSH1 0x4 PUSH2 0x11BD JUMP JUMPDEST PUSH2 0xB5E JUMP JUMPDEST CALLVALUE DUP1 ISZERO PUSH2 0x42F JUMPI PUSH0 DUP1 REVERT JUMPDEST POP PUSH2 0x209 PUSH2 0x43E CALLDATASIZE PUSH1 0x4 PUSH2 0x11BD JUMP JUMPDEST PUSH2 0xB8F JUMP JUMPDEST CALLVALUE DUP1 ISZERO PUSH2 0x44E JUMPI PUSH0 DUP1 REVERT JUMPDEST POP PUSH2 0x209 PUSH2 0xBDE JUMP JUMPDEST CALLVALUE DUP1 ISZERO PUSH2 0x462 JUMPI PUSH0 DUP1 REVERT JUMPDEST POP PUSH1 0x7 SLOAD PUSH2 0x21B JUMP JUMPDEST CALLVALUE DUP1 ISZERO PUSH2 0x476 JUMPI PUSH0 DUP1 REVERT JUMPDEST POP PUSH2 0x2BB PUSH2 0x485 CALLDATASIZE PUSH1 0x4 PUSH2 0x12B7 JUMP JUMPDEST PUSH2 0xC85 JUMP JUMPDEST CALLVALUE DUP1 ISZERO PUSH2 0x495 JUMPI PUSH0 DUP1 REVERT JUMPDEST POP PUSH2 0x209 PUSH2 0x4A4 CALLDATASIZE PUSH1 0x4 PUSH2 0x1138 JUMP JUMPDEST PUSH2 0xC96 JUMP JUMPDEST PUSH0 PUSH1 0x1 PUSH1 0x1 PUSH1 0xE0 SHL SUB NOT DUP3 AND PUSH4 0xE9DC6375 PUSH1 0xE0 SHL EQ DUP1 PUSH2 0x4D9 JUMPI POP PUSH1 0x1 PUSH1 0x1 PUSH1 0xE0 SHL SUB NOT DUP3 AND PUSH4 0x53EFCF4F PUSH1 0xE1 SHL EQ JUMPDEST DUP1 PUSH2 0x4F4 JUMPI POP PUSH1 0x1 PUSH1 0x1 PUSH1 0xE0 SHL SUB NOT DUP3 AND PUSH4 0x54C1BCD9 PUSH1 0xE0 SHL EQ JUMPDEST DUP1 PUSH2 0x503 JUMPI POP PUSH2 0x503 DUP3 PUSH2 0xCD0 JUMP JUMPDEST SWAP3 SWAP2 POP POP JUMP JUMPDEST PUSH1 0x3 SLOAD PUSH1 0x1 PUSH1 0x1 PUSH1 0xA0 SHL SUB AND CALLER EQ PUSH2 0x555 JUMPI PUSH1 0x40 MLOAD PUSH3 0x461BCD PUSH1 0xE5 SHL DUP2 MSTORE PUSH1 0x20 PUSH1 0x4 DUP3 ADD MSTORE PUSH1 0xA PUSH1 0x24 DUP3 ADD MSTORE PUSH10 0x4E6F7420616E64726577 PUSH1 0xB0 SHL PUSH1 0x44 DUP3 ADD MSTORE PUSH1 0x64 ADD JUMPDEST PUSH1 0x40 MLOAD DUP1 SWAP2 SUB SWAP1 REVERT JUMPDEST PUSH1 0x1 PUSH1 0x1 PUSH1 0xA0 SHL SUB AND PUSH0 SWAP1 DUP2 MSTORE PUSH1 0x4 PUSH1 0x20 MSTORE PUSH1 0x40 SWAP1 KECCAK256 DUP1 SLOAD PUSH1 0xFF NOT AND PUSH1 0x1 OR SWAP1 SSTORE JUMP JUMPDEST PUSH0 DUP2 PUSH1 0x1 PUSH1 0x1 PUSH1 0xA0 SHL SUB AND PUSH2 0x594 PUSH0 SLOAD PUSH1 0x1 PUSH1 0x1 PUSH1 0xA0 SHL SUB AND SWAP1 JUMP JUMPDEST PUSH1 0x1 PUSH1 0x1 PUSH1 0xA0 SHL SUB AND EQ DUP1 PUSH2 0x503 JUMPI POP PUSH2 0x503 PUSH1 0x1 DUP4 PUSH2 0xCF4 JUMP JUMPDEST PUSH1 0x3 SLOAD PUSH1 0x1 PUSH1 0x1 PUSH1 0xA0 SHL SUB AND CALLER EQ DUP1 PUSH2 0x5D6 JUMPI POP CALLER PUSH0 SWAP1 DUP2 MSTORE PUSH1 0x4 PUSH1 0x20 MSTORE PUSH1 0x40 SWAP1 KECCAK256 SLOAD PUSH1 0xFF AND JUMPDEST PUSH2 0x5F2 JUMPI PUSH1 0x40 MLOAD PUSH3 0x461BCD PUSH1 0xE5 SHL DUP2 MSTORE PUSH1 0x4 ADD PUSH2 0x54C SWAP1 PUSH2 0x12DF JUMP JUMPDEST PUSH1 0xA PUSH2 0x5FE DUP3 DUP3 PUSH2 0x138B JUMP JUMPDEST POP POP JUMP JUMPDEST PUSH2 0x60A PUSH2 0xD15 JUMP JUMPDEST PUSH2 0x615 PUSH1 0x1 DUP3 PUSH2 0xCF4 JUMP JUMPDEST ISZERO PUSH2 0x65A JUMPI PUSH1 0x40 MLOAD CALLER SWAP1 PUSH1 0x1 PUSH1 0x1 PUSH1 0xA0 SHL SUB DUP4 AND SWAP1 PUSH32 0x7C0C3C84C67C85FCAC635147348BFE374C24A1A93D0366D1CFE9D8853CBF89D5 SWAP1 PUSH0 SWAP1 LOG3 PUSH2 0x5FE PUSH1 0x1 DUP3 PUSH2 0xD41 JUMP JUMPDEST POP JUMP JUMPDEST PUSH1 0x60 PUSH2 0x669 PUSH1 0x1 PUSH2 0xD55 JUMP JUMPDEST PUSH8 0xFFFFFFFFFFFFFFFF DUP2 GT ISZERO PUSH2 0x681 JUMPI PUSH2 0x681 PUSH2 0x1151 JUMP JUMPDEST PUSH1 0x40 MLOAD SWAP1 DUP1 DUP3 MSTORE DUP1 PUSH1 0x20 MUL PUSH1 0x20 ADD DUP3 ADD PUSH1 0x40 MSTORE DUP1 ISZERO PUSH2 0x6AA JUMPI DUP2 PUSH1 0x20 ADD PUSH1 0x20 DUP3 MUL DUP1 CALLDATASIZE DUP4 CALLDATACOPY ADD SWAP1 POP JUMPDEST POP SWAP1 POP PUSH0 JUMPDEST PUSH2 0x6B9 PUSH1 0x1 PUSH2 0xD55 JUMP JUMPDEST DUP2 LT ISZERO PUSH2 0x6FD JUMPI PUSH2 0x6CB PUSH1 0x1 DUP3 PUSH2 0xD5E JUMP JUMPDEST DUP3 DUP3 DUP2 MLOAD DUP2 LT PUSH2 0x6DD JUMPI PUSH2 0x6DD PUSH2 0x1446 JUMP JUMPDEST PUSH1 0x1 PUSH1 0x1 PUSH1 0xA0 SHL SUB SWAP1 SWAP3 AND PUSH1 0x20 SWAP3 DUP4 MUL SWAP2 SWAP1 SWAP2 ADD SWAP1 SWAP2 ADD MSTORE PUSH1 0x1 ADD PUSH2 0x6AF JUMP JUMPDEST POP SWAP1 JUMP JUMPDEST PUSH1 0x60 PUSH0 PUSH1 0x5 PUSH0 SWAP1 SLOAD SWAP1 PUSH2 0x100 EXP SWAP1 DIV PUSH1 0x1 PUSH1 0x1 PUSH1 0xA0 SHL SUB AND PUSH1 0x1 PUSH1 0x1 PUSH1 0xA0 SHL SUB AND PUSH4 0xF3651CBB PUSH1 0x40 MLOAD DUP2 PUSH4 0xFFFFFFFF AND PUSH1 0xE0 SHL DUP2 MSTORE PUSH1 0x4 ADD PUSH0 PUSH1 0x40 MLOAD DUP1 DUP4 SUB DUP2 DUP7 GAS STATICCALL ISZERO DUP1 ISZERO PUSH2 0x753 JUMPI RETURNDATASIZE PUSH0 DUP1 RETURNDATACOPY RETURNDATASIZE PUSH0 REVERT JUMPDEST POP POP POP POP PUSH1 0x40 MLOAD RETURNDATASIZE PUSH0 DUP3 RETURNDATACOPY PUSH1 0x1F RETURNDATASIZE SWAP1 DUP2 ADD PUSH1 0x1F NOT AND DUP3 ADD PUSH1 0x40 MSTORE PUSH2 0x77A SWAP2 SWAP1 DUP2 ADD SWAP1 PUSH2 0x145A JUMP JUMPDEST SWAP1 POP PUSH0 PUSH2 0x7AE PUSH1 0xC PUSH1 0xB PUSH1 0xA DUP6 PUSH1 0x40 MLOAD PUSH1 0x20 ADD PUSH2 0x79A SWAP5 SWAP4 SWAP3 SWAP2 SWAP1 PUSH2 0x1554 JUMP JUMPDEST PUSH1 0x40 MLOAD PUSH1 0x20 DUP2 DUP4 SUB SUB DUP2 MSTORE SWAP1 PUSH1 0x40 MSTORE PUSH2 0xD69 JUMP JUMPDEST SWAP1 POP DUP1 PUSH1 0x40 MLOAD PUSH1 0x20 ADD PUSH2 0x7C1 SWAP2 SWAP1 PUSH2 0x15F9 JUMP JUMPDEST PUSH1 0x40 MLOAD PUSH1 0x20 DUP2 DUP4 SUB SUB DUP2 MSTORE SWAP1 PUSH1 0x40 MSTORE SWAP3 POP POP POP SWAP1 JUMP JUMPDEST PUSH1 0xA DUP1 SLOAD PUSH2 0x7E4 SWAP1 PUSH2 0x1307 JUMP JUMPDEST DUP1 PUSH1 0x1F ADD PUSH1 0x20 DUP1 SWAP2 DIV MUL PUSH1 0x20 ADD PUSH1 0x40 MLOAD SWAP1 DUP2 ADD PUSH1 0x40 MSTORE DUP1 SWAP3 SWAP2 SWAP1 DUP2 DUP2 MSTORE PUSH1 0x20 ADD DUP3 DUP1 SLOAD PUSH2 0x810 SWAP1 PUSH2 0x1307 JUMP JUMPDEST DUP1 ISZERO PUSH2 0x85B JUMPI DUP1 PUSH1 0x1F LT PUSH2 0x832 JUMPI PUSH2 0x100 DUP1 DUP4 SLOAD DIV MUL DUP4 MSTORE SWAP2 PUSH1 0x20 ADD SWAP2 PUSH2 0x85B JUMP JUMPDEST DUP3 ADD SWAP2 SWAP1 PUSH0 MSTORE PUSH1 0x20 PUSH0 KECCAK256 SWAP1 JUMPDEST DUP2 SLOAD DUP2 MSTORE SWAP1 PUSH1 0x1 ADD SWAP1 PUSH1 0x20 ADD DUP1 DUP4 GT PUSH2 0x83E JUMPI DUP3 SWAP1 SUB PUSH1 0x1F AND DUP3 ADD SWAP2 JUMPDEST POP POP POP POP POP DUP2 JUMP JUMPDEST PUSH1 0x3 SLOAD PUSH1 0x1 PUSH1 0x1 PUSH1 0xA0 SHL SUB AND CALLER EQ DUP1 PUSH2 0x88A JUMPI POP CALLER PUSH0 SWAP1 DUP2 MSTORE PUSH1 0x4 PUSH1 0x20 MSTORE PUSH1 0x40 SWAP1 KECCAK256 SLOAD PUSH1 0xFF AND JUMPDEST PUSH2 0x8A6 JUMPI PUSH1 0x40 MLOAD PUSH3 0x461BCD PUSH1 0xE5 SHL DUP2 MSTORE PUSH1 0x4 ADD PUSH2 0x54C SWAP1 PUSH2 0x12DF JUMP JUMPDEST PUSH1 0x7 SLOAD PUSH1 0x6 SLOAD LT PUSH2 0x8EF JUMPI PUSH1 0x40 MLOAD PUSH3 0x461BCD PUSH1 0xE5 SHL DUP2 MSTORE PUSH1 0x20 PUSH1 0x4 DUP3 ADD MSTORE PUSH1 0x13 PUSH1 0x24 DUP3 ADD MSTORE PUSH19 0x139BC81B5BDC99481D1BDAD95B9CC81B19599D PUSH1 0x6A SHL PUSH1 0x44 DUP3 ADD MSTORE PUSH1 0x64 ADD PUSH2 0x54C JUMP JUMPDEST PUSH1 0x8 SLOAD PUSH1 0x40 MLOAD PUSH4 0x525194B PUSH1 0xE3 SHL DUP2 MSTORE PUSH1 0x1 PUSH1 0x1 PUSH1 0xA0 SHL SUB DUP4 DUP2 AND PUSH1 0x4 DUP4 ADD MSTORE SWAP1 SWAP2 AND SWAP1 PUSH4 0x2928CA58 SWAP1 PUSH1 0x24 ADD PUSH1 0x20 PUSH1 0x40 MLOAD DUP1 DUP4 SUB DUP2 PUSH0 DUP8 GAS CALL ISZERO DUP1 ISZERO PUSH2 0x938 JUMPI RETURNDATASIZE PUSH0 DUP1 RETURNDATACOPY RETURNDATASIZE PUSH0 REVERT JUMPDEST POP POP POP POP PUSH1 0x40 MLOAD RETURNDATASIZE PUSH1 0x1F NOT PUSH1 0x1F DUP3 ADD AND DUP3 ADD DUP1 PUSH1 0x40 MSTORE POP DUP2 ADD SWAP1 PUSH2 0x95C SWAP2 SWAP1 PUSH2 0x162A JUMP JUMPDEST POP PUSH1 0x6 DUP1 SLOAD SWAP1 PUSH0 PUSH2 0x96C DUP4 PUSH2 0x1655 JUMP JUMPDEST SWAP2 SWAP1 POP SSTORE POP POP JUMP JUMPDEST PUSH2 0x97C PUSH2 0xD15 JUMP JUMPDEST PUSH2 0x987 PUSH1 0x1 DUP3 PUSH2 0xCF4 JUMP JUMPDEST PUSH2 0x65A JUMPI PUSH1 0x40 MLOAD CALLER SWAP1 PUSH1 0x1 PUSH1 0x1 PUSH1 0xA0 SHL SUB DUP4 AND SWAP1 PUSH32 0x7E1A1A08D52E4BA0E21554733D66165FD5151F99460116223D9E3A608EEC5CB1 SWAP1 PUSH0 SWAP1 LOG3 PUSH2 0x5FE PUSH1 0x1 DUP3 PUSH2 0xD8F JUMP JUMPDEST PUSH2 0x9D3 PUSH2 0xD15 JUMP JUMPDEST PUSH2 0x9DC PUSH0 PUSH2 0xDA3 JUMP JUMPDEST JUMP JUMPDEST PUSH1 0x3 SLOAD PUSH1 0x1 PUSH1 0x1 PUSH1 0xA0 SHL SUB AND CALLER EQ DUP1 PUSH2 0xA05 JUMPI POP CALLER PUSH0 SWAP1 DUP2 MSTORE PUSH1 0x4 PUSH1 0x20 MSTORE PUSH1 0x40 SWAP1 KECCAK256 SLOAD PUSH1 0xFF AND JUMPDEST PUSH2 0xA21 JUMPI PUSH1 0x40 MLOAD PUSH3 0x461BCD PUSH1 0xE5 SHL DUP2 MSTORE PUSH1 0x4 ADD PUSH2 0x54C SWAP1 PUSH2 0x12DF JUMP JUMPDEST PUSH1 0x40 MLOAD CALLER SWAP1 SELFBALANCE DUP1 ISZERO PUSH2 0x8FC MUL SWAP2 PUSH0 DUP2 DUP2 DUP2 DUP6 DUP9 DUP9 CALL SWAP4 POP POP POP POP PUSH2 0x9DC JUMPI PUSH0 DUP1 REVERT JUMPDEST PUSH1 0x3 SLOAD PUSH1 0x1 PUSH1 0x1 PUSH1 0xA0 SHL SUB AND CALLER EQ PUSH2 0xA8A JUMPI PUSH1 0x40 MLOAD PUSH3 0x461BCD PUSH1 0xE5 SHL DUP2 MSTORE PUSH1 0x20 PUSH1 0x4 DUP3 ADD MSTORE PUSH1 0xA PUSH1 0x24 DUP3 ADD MSTORE PUSH10 0x4E6F7420616E64726577 PUSH1 0xB0 SHL PUSH1 0x44 DUP3 ADD MSTORE PUSH1 0x64 ADD PUSH2 0x54C JUMP JUMPDEST PUSH1 0x1 PUSH1 0x1 PUSH1 0xA0 SHL SUB AND PUSH0 SWAP1 DUP2 MSTORE PUSH1 0x4 PUSH1 0x20 MSTORE PUSH1 0x40 SWAP1 KECCAK256 DUP1 SLOAD PUSH1 0xFF NOT AND SWAP1 SSTORE JUMP JUMPDEST PUSH1 0x3 SLOAD PUSH1 0x1 PUSH1 0x1 PUSH1 0xA0 SHL SUB AND CALLER EQ DUP1 PUSH2 0xAD1 JUMPI POP CALLER PUSH0 SWAP1 DUP2 MSTORE PUSH1 0x4 PUSH1 0x20 MSTORE PUSH1 0x40 SWAP1 KECCAK256 SLOAD PUSH1 0xFF AND JUMPDEST PUSH2 0xAED JUMPI PUSH1 0x40 MLOAD PUSH3 0x461BCD PUSH1 0xE5 SHL DUP2 MSTORE PUSH1 0x4 ADD PUSH2 0x54C SWAP1 PUSH2 0x12DF JUMP JUMPDEST PUSH1 0xB PUSH2 0x5FE DUP3 DUP3 PUSH2 0x138B JUMP JUMPDEST PUSH1 0x3 SLOAD PUSH1 0x1 PUSH1 0x1 PUSH1 0xA0 SHL SUB AND CALLER EQ DUP1 PUSH2 0xB20 JUMPI POP CALLER PUSH0 SWAP1 DUP2 MSTORE PUSH1 0x4 PUSH1 0x20 MSTORE PUSH1 0x40 SWAP1 KECCAK256 SLOAD PUSH1 0xFF AND JUMPDEST PUSH2 0xB3C JUMPI PUSH1 0x40 MLOAD PUSH3 0x461BCD PUSH1 0xE5 SHL DUP2 MSTORE PUSH1 0x4 ADD PUSH2 0x54C SWAP1 PUSH2 0x12DF JUMP JUMPDEST PUSH1 0x5 DUP1 SLOAD PUSH1 0x1 PUSH1 0x1 PUSH1 0xA0 SHL SUB NOT AND PUSH1 0x1 PUSH1 0x1 PUSH1 0xA0 SHL SUB SWAP3 SWAP1 SWAP3 AND SWAP2 SWAP1 SWAP2 OR SWAP1 SSTORE JUMP JUMPDEST PUSH1 0x60 PUSH2 0xB69 DUP3 PUSH2 0xD69 JUMP JUMPDEST PUSH1 0x40 MLOAD PUSH1 0x20 ADD PUSH2 0xB79 SWAP2 SWAP1 PUSH2 0x166D JUMP JUMPDEST PUSH1 0x40 MLOAD PUSH1 0x20 DUP2 DUP4 SUB SUB DUP2 MSTORE SWAP1 PUSH1 0x40 MSTORE SWAP1 POP SWAP2 SWAP1 POP JUMP JUMPDEST PUSH1 0x3 SLOAD PUSH1 0x1 PUSH1 0x1 PUSH1 0xA0 SHL SUB AND CALLER EQ DUP1 PUSH2 0xBB6 JUMPI POP CALLER PUSH0 SWAP1 DUP2 MSTORE PUSH1 0x4 PUSH1 0x20 MSTORE PUSH1 0x40 SWAP1 KECCAK256 SLOAD PUSH1 0xFF AND JUMPDEST PUSH2 0xBD2 JUMPI PUSH1 0x40 MLOAD PUSH3 0x461BCD PUSH1 0xE5 SHL DUP2 MSTORE PUSH1 0x4 ADD PUSH2 0x54C SWAP1 PUSH2 0x12DF JUMP JUMPDEST PUSH1 0xC PUSH2 0x5FE DUP3 DUP3 PUSH2 0x138B JUMP JUMPDEST PUSH1 0x3 SLOAD PUSH1 0x1 PUSH1 0x1 PUSH1 0xA0 SHL SUB AND CALLER EQ DUP1 PUSH2 0xC05 JUMPI POP CALLER PUSH0 SWAP1 DUP2 MSTORE PUSH1 0x4 PUSH1 0x20 MSTORE PUSH1 0x40 SWAP1 KECCAK256 SLOAD PUSH1 0xFF AND JUMPDEST PUSH2 0xC21 JUMPI PUSH1 0x40 MLOAD PUSH3 0x461BCD PUSH1 0xE5 SHL DUP2 MSTORE PUSH1 0x4 ADD PUSH2 0x54C SWAP1 PUSH2 0x12DF JUMP JUMPDEST PUSH1 0x5 PUSH0 SWAP1 SLOAD SWAP1 PUSH2 0x100 EXP SWAP1 DIV PUSH1 0x1 PUSH1 0x1 PUSH1 0xA0 SHL SUB AND PUSH1 0x1 PUSH1 0x1 PUSH1 0xA0 SHL SUB AND PUSH4 0xCDE4EFA9 PUSH1 0x40 MLOAD DUP2 PUSH4 0xFFFFFFFF AND PUSH1 0xE0 SHL DUP2 MSTORE PUSH1 0x4 ADD PUSH0 PUSH1 0x40 MLOAD DUP1 DUP4 SUB DUP2 PUSH0 DUP8 DUP1 EXTCODESIZE ISZERO DUP1 ISZERO PUSH2 0xC6D JUMPI PUSH0 DUP1 REVERT JUMPDEST POP GAS CALL ISZERO DUP1 ISZERO PUSH2 0xC7F JUMPI RETURNDATASIZE PUSH0 DUP1 RETURNDATACOPY RETURNDATASIZE PUSH0 REVERT JUMPDEST POP POP POP POP JUMP JUMPDEST PUSH1 0x60 PUSH2 0xC8F PUSH2 0x701 JUMP JUMPDEST SWAP4 SWAP3 POP POP POP JUMP JUMPDEST PUSH2 0xC9E PUSH2 0xD15 JUMP JUMPDEST PUSH1 0x1 PUSH1 0x1 PUSH1 0xA0 SHL SUB DUP2 AND PUSH2 0xCC7 JUMPI PUSH1 0x40 MLOAD PUSH4 0x1E4FBDF7 PUSH1 0xE0 SHL DUP2 MSTORE PUSH0 PUSH1 0x4 DUP3 ADD MSTORE PUSH1 0x24 ADD PUSH2 0x54C JUMP JUMPDEST PUSH2 0x65A DUP2 PUSH2 0xDA3 JUMP JUMPDEST PUSH0 PUSH1 0x1 PUSH1 0x1 PUSH1 0xE0 SHL SUB NOT DUP3 AND PUSH4 0x7005CAAD PUSH1 0xE0 SHL EQ DUP1 PUSH2 0x503 JUMPI POP PUSH2 0x503 DUP3 PUSH2 0xDF2 JUMP JUMPDEST PUSH1 0x1 PUSH1 0x1 PUSH1 0xA0 SHL SUB DUP2 AND PUSH0 SWAP1 DUP2 MSTORE PUSH1 0x1 DUP4 ADD PUSH1 0x20 MSTORE PUSH1 0x40 DUP2 KECCAK256 SLOAD ISZERO ISZERO PUSH2 0xC8F JUMP JUMPDEST PUSH0 SLOAD PUSH1 0x1 PUSH1 0x1 PUSH1 0xA0 SHL SUB AND CALLER EQ PUSH2 0x9DC JUMPI PUSH1 0x40 MLOAD PUSH4 0x118CDAA7 PUSH1 0xE0 SHL DUP2 MSTORE CALLER PUSH1 0x4 DUP3 ADD MSTORE PUSH1 0x24 ADD PUSH2 0x54C JUMP JUMPDEST PUSH0 PUSH2 0xC8F DUP4 PUSH1 0x1 PUSH1 0x1 PUSH1 0xA0 SHL SUB DUP5 AND PUSH2 0xE26 JUMP JUMPDEST PUSH0 PUSH2 0x503 DUP3 SLOAD SWAP1 JUMP JUMPDEST PUSH0 PUSH2 0xC8F DUP4 DUP4 PUSH2 0xF09 JUMP JUMPDEST PUSH1 0x60 PUSH2 0x503 DUP3 PUSH1 0x40 MLOAD DUP1 PUSH1 0x60 ADD PUSH1 0x40 MSTORE DUP1 PUSH1 0x40 DUP2 MSTORE PUSH1 0x20 ADD PUSH2 0x1708 PUSH1 0x40 SWAP2 CODECOPY PUSH1 0x1 PUSH2 0xF2F JUMP JUMPDEST PUSH0 PUSH2 0xC8F DUP4 PUSH1 0x1 PUSH1 0x1 PUSH1 0xA0 SHL SUB DUP5 AND PUSH2 0x10AA JUMP JUMPDEST PUSH0 DUP1 SLOAD PUSH1 0x1 PUSH1 0x1 PUSH1 0xA0 SHL SUB DUP4 DUP2 AND PUSH1 0x1 PUSH1 0x1 PUSH1 0xA0 SHL SUB NOT DUP4 AND DUP2 OR DUP5 SSTORE PUSH1 0x40 MLOAD SWAP2 SWAP1 SWAP3 AND SWAP3 DUP4 SWAP2 PUSH32 0x8BE0079C531659141344CD1FD0A4F28419497F9722A3DAAFE3B4186F6B6457E0 SWAP2 SWAP1 LOG3 POP POP JUMP JUMPDEST PUSH0 PUSH1 0x1 PUSH1 0x1 PUSH1 0xE0 SHL SUB NOT DUP3 AND PUSH4 0x2A9F3ABF PUSH1 0xE1 SHL EQ DUP1 PUSH2 0x503 JUMPI POP PUSH4 0x1FFC9A7 PUSH1 0xE0 SHL PUSH1 0x1 PUSH1 0x1 PUSH1 0xE0 SHL SUB NOT DUP4 AND EQ PUSH2 0x503 JUMP JUMPDEST PUSH0 DUP2 DUP2 MSTORE PUSH1 0x1 DUP4 ADD PUSH1 0x20 MSTORE PUSH1 0x40 DUP2 KECCAK256 SLOAD DUP1 ISZERO PUSH2 0xF00 JUMPI PUSH0 PUSH2 0xE48 PUSH1 0x1 DUP4 PUSH2 0x1697 JUMP JUMPDEST DUP6 SLOAD SWAP1 SWAP2 POP PUSH0 SWAP1 PUSH2 0xE5B SWAP1 PUSH1 0x1 SWAP1 PUSH2 0x1697 JUMP JUMPDEST SWAP1 POP DUP1 DUP3 EQ PUSH2 0xEBA JUMPI PUSH0 DUP7 PUSH0 ADD DUP3 DUP2 SLOAD DUP2 LT PUSH2 0xE79 JUMPI PUSH2 0xE79 PUSH2 0x1446 JUMP JUMPDEST SWAP1 PUSH0 MSTORE PUSH1 0x20 PUSH0 KECCAK256 ADD SLOAD SWAP1 POP DUP1 DUP8 PUSH0 ADD DUP5 DUP2 SLOAD DUP2 LT PUSH2 0xE99 JUMPI PUSH2 0xE99 PUSH2 0x1446 JUMP JUMPDEST PUSH0 SWAP2 DUP3 MSTORE PUSH1 0x20 DUP1 DUP4 KECCAK256 SWAP1 SWAP2 ADD SWAP3 SWAP1 SWAP3 SSTORE SWAP2 DUP3 MSTORE PUSH1 0x1 DUP9 ADD SWAP1 MSTORE PUSH1 0x40 SWAP1 KECCAK256 DUP4 SWAP1 SSTORE JUMPDEST DUP6 SLOAD DUP7 SWAP1 DUP1 PUSH2 0xECB JUMPI PUSH2 0xECB PUSH2 0x16AA JUMP JUMPDEST PUSH1 0x1 SWAP1 SUB DUP2 DUP2 SWAP1 PUSH0 MSTORE PUSH1 0x20 PUSH0 KECCAK256 ADD PUSH0 SWAP1 SSTORE SWAP1 SSTORE DUP6 PUSH1 0x1 ADD PUSH0 DUP7 DUP2 MSTORE PUSH1 0x20 ADD SWAP1 DUP2 MSTORE PUSH1 0x20 ADD PUSH0 KECCAK256 PUSH0 SWAP1 SSTORE PUSH1 0x1 SWAP4 POP POP POP POP PUSH2 0x503 JUMP JUMPDEST PUSH0 SWAP2 POP POP PUSH2 0x503 JUMP JUMPDEST PUSH0 DUP3 PUSH0 ADD DUP3 DUP2 SLOAD DUP2 LT PUSH2 0xF1E JUMPI PUSH2 0xF1E PUSH2 0x1446 JUMP JUMPDEST SWAP1 PUSH0 MSTORE PUSH1 0x20 PUSH0 KECCAK256 ADD SLOAD SWAP1 POP SWAP3 SWAP2 POP POP JUMP JUMPDEST PUSH1 0x60 DUP4 MLOAD PUSH0 SUB PUSH2 0xF4D JUMPI POP PUSH1 0x40 DUP1 MLOAD PUSH1 0x20 DUP2 ADD SWAP1 SWAP2 MSTORE PUSH0 DUP2 MSTORE PUSH2 0xC8F JUMP JUMPDEST PUSH0 DUP3 PUSH2 0xF7D JUMPI PUSH1 0x3 DUP6 MLOAD PUSH1 0x4 PUSH2 0xF63 SWAP2 SWAP1 PUSH2 0x16BE JUMP JUMPDEST PUSH2 0xF6E SWAP1 PUSH1 0x2 PUSH2 0x16D5 JUMP JUMPDEST PUSH2 0xF78 SWAP2 SWAP1 PUSH2 0x16E8 JUMP JUMPDEST PUSH2 0xFA2 JUMP JUMPDEST PUSH1 0x3 DUP6 MLOAD PUSH1 0x2 PUSH2 0xF8D SWAP2 SWAP1 PUSH2 0x16D5 JUMP JUMPDEST PUSH2 0xF97 SWAP2 SWAP1 PUSH2 0x16E8 JUMP JUMPDEST PUSH2 0xFA2 SWAP1 PUSH1 0x4 PUSH2 0x16BE JUMP JUMPDEST SWAP1 POP PUSH0 DUP2 PUSH8 0xFFFFFFFFFFFFFFFF DUP2 GT ISZERO PUSH2 0xFBE JUMPI PUSH2 0xFBE PUSH2 0x1151 JUMP JUMPDEST PUSH1 0x40 MLOAD SWAP1 DUP1 DUP3 MSTORE DUP1 PUSH1 0x1F ADD PUSH1 0x1F NOT AND PUSH1 0x20 ADD DUP3 ADD PUSH1 0x40 MSTORE DUP1 ISZERO PUSH2 0xFE8 JUMPI PUSH1 0x20 DUP3 ADD DUP2 DUP1 CALLDATASIZE DUP4 CALLDATACOPY ADD SWAP1 POP JUMPDEST POP SWAP1 POP PUSH1 0x1 DUP6 ADD PUSH1 0x20 DUP3 ADD DUP8 DUP9 MLOAD DUP10 ADD PUSH1 0x20 DUP2 ADD DUP1 MLOAD PUSH0 DUP3 MSTORE JUMPDEST DUP3 DUP5 LT ISZERO PUSH2 0x105D JUMPI PUSH1 0x3 DUP5 ADD SWAP4 POP DUP4 MLOAD PUSH1 0x3F DUP2 PUSH1 0x12 SHR AND DUP8 ADD MLOAD DUP7 MSTORE8 PUSH1 0x1 DUP7 ADD SWAP6 POP PUSH1 0x3F DUP2 PUSH1 0xC SHR AND DUP8 ADD MLOAD DUP7 MSTORE8 PUSH1 0x1 DUP7 ADD SWAP6 POP PUSH1 0x3F DUP2 PUSH1 0x6 SHR AND DUP8 ADD MLOAD DUP7 MSTORE8 PUSH1 0x1 DUP7 ADD SWAP6 POP PUSH1 0x3F DUP2 AND DUP8 ADD MLOAD DUP7 MSTORE8 POP PUSH1 0x1 DUP6 ADD SWAP5 POP PUSH2 0x1002 JUMP JUMPDEST SWAP1 MSTORE POP POP DUP6 ISZERO PUSH2 0x109E JUMPI PUSH1 0x3 DUP9 MLOAD MOD PUSH1 0x1 DUP2 EQ PUSH2 0x1081 JUMPI PUSH1 0x2 DUP2 EQ PUSH2 0x1094 JUMPI PUSH2 0x109C JUMP JUMPDEST PUSH1 0x3D PUSH1 0x1 DUP4 SUB MSTORE8 PUSH1 0x3D PUSH1 0x2 DUP4 SUB MSTORE8 PUSH2 0x109C JUMP JUMPDEST PUSH1 0x3D PUSH1 0x1 DUP4 SUB MSTORE8 JUMPDEST POP JUMPDEST POP SWAP1 SWAP7 SWAP6 POP POP POP POP POP POP JUMP JUMPDEST PUSH0 DUP2 DUP2 MSTORE PUSH1 0x1 DUP4 ADD PUSH1 0x20 MSTORE PUSH1 0x40 DUP2 KECCAK256 SLOAD PUSH2 0x10EF JUMPI POP DUP2 SLOAD PUSH1 0x1 DUP2 DUP2 ADD DUP5 SSTORE PUSH0 DUP5 DUP2 MSTORE PUSH1 0x20 DUP1 DUP3 KECCAK256 SWAP1 SWAP4 ADD DUP5 SWAP1 SSTORE DUP5 SLOAD DUP5 DUP3 MSTORE DUP3 DUP7 ADD SWAP1 SWAP4 MSTORE PUSH1 0x40 SWAP1 KECCAK256 SWAP2 SWAP1 SWAP2 SSTORE PUSH2 0x503 JUMP JUMPDEST POP PUSH0 PUSH2 0x503 JUMP JUMPDEST PUSH0 PUSH1 0x20 DUP3 DUP5 SUB SLT ISZERO PUSH2 0x1106 JUMPI PUSH0 DUP1 REVERT JUMPDEST DUP2 CALLDATALOAD PUSH1 0x1 PUSH1 0x1 PUSH1 0xE0 SHL SUB NOT DUP2 AND DUP2 EQ PUSH2 0xC8F JUMPI PUSH0 DUP1 REVERT JUMPDEST DUP1 CALLDATALOAD PUSH1 0x1 PUSH1 0x1 PUSH1 0xA0 SHL SUB DUP2 AND DUP2 EQ PUSH2 0x1133 JUMPI PUSH0 DUP1 REVERT JUMPDEST SWAP2 SWAP1 POP JUMP JUMPDEST PUSH0 PUSH1 0x20 DUP3 DUP5 SUB SLT ISZERO PUSH2 0x1148 JUMPI PUSH0 DUP1 REVERT JUMPDEST PUSH2 0xC8F DUP3 PUSH2 0x111D JUMP JUMPDEST PUSH4 0x4E487B71 PUSH1 0xE0 SHL PUSH0 MSTORE PUSH1 0x41 PUSH1 0x4 MSTORE PUSH1 0x24 PUSH0 REVERT JUMPDEST PUSH1 0x40 MLOAD PUSH1 0x1F DUP3 ADD PUSH1 0x1F NOT AND DUP2 ADD PUSH8 0xFFFFFFFFFFFFFFFF DUP2 GT DUP3 DUP3 LT OR ISZERO PUSH2 0x118E JUMPI PUSH2 0x118E PUSH2 0x1151 JUMP JUMPDEST PUSH1 0x40 MSTORE SWAP2 SWAP1 POP JUMP JUMPDEST PUSH0 PUSH8 0xFFFFFFFFFFFFFFFF DUP3 GT ISZERO PUSH2 0x11AF JUMPI PUSH2 0x11AF PUSH2 0x1151 JUMP JUMPDEST POP PUSH1 0x1F ADD PUSH1 0x1F NOT AND PUSH1 0x20 ADD SWAP1 JUMP JUMPDEST PUSH0 PUSH1 0x20 DUP3 DUP5 SUB SLT ISZERO PUSH2 0x11CD JUMPI PUSH0 DUP1 REVERT JUMPDEST DUP2 CALLDATALOAD PUSH8 0xFFFFFFFFFFFFFFFF DUP2 GT ISZERO PUSH2 0x11E3 JUMPI PUSH0 DUP1 REVERT JUMPDEST DUP3 ADD PUSH1 0x1F DUP2 ADD DUP5 SGT PUSH2 0x11F3 JUMPI PUSH0 DUP1 REVERT JUMPDEST DUP1 CALLDATALOAD PUSH2 0x1206 PUSH2 0x1201 DUP3 PUSH2 0x1196 JUMP JUMPDEST PUSH2 0x1165 JUMP JUMPDEST DUP2 DUP2 MSTORE DUP6 PUSH1 0x20 DUP4 DUP6 ADD ADD GT ISZERO PUSH2 0x121A JUMPI PUSH0 DUP1 REVERT JUMPDEST DUP2 PUSH1 0x20 DUP5 ADD PUSH1 0x20 DUP4 ADD CALLDATACOPY PUSH0 SWAP2 DUP2 ADD PUSH1 0x20 ADD SWAP2 SWAP1 SWAP2 MSTORE SWAP5 SWAP4 POP POP POP POP JUMP JUMPDEST PUSH1 0x20 DUP1 DUP3 MSTORE DUP3 MLOAD DUP3 DUP3 ADD DUP2 SWAP1 MSTORE PUSH0 SWAP2 DUP5 ADD SWAP1 PUSH1 0x40 DUP5 ADD SWAP1 DUP4 JUMPDEST DUP2 DUP2 LT ISZERO PUSH2 0x1277 JUMPI DUP4 MLOAD PUSH1 0x1 PUSH1 0x1 PUSH1 0xA0 SHL SUB AND DUP4 MSTORE PUSH1 0x20 SWAP4 DUP5 ADD SWAP4 SWAP1 SWAP3 ADD SWAP2 PUSH1 0x1 ADD PUSH2 0x1250 JUMP JUMPDEST POP SWAP1 SWAP6 SWAP5 POP POP POP POP POP JUMP JUMPDEST PUSH1 0x20 DUP2 MSTORE PUSH0 DUP3 MLOAD DUP1 PUSH1 0x20 DUP5 ADD MSTORE DUP1 PUSH1 0x20 DUP6 ADD PUSH1 0x40 DUP6 ADD MCOPY PUSH0 PUSH1 0x40 DUP3 DUP6 ADD ADD MSTORE PUSH1 0x40 PUSH1 0x1F NOT PUSH1 0x1F DUP4 ADD AND DUP5 ADD ADD SWAP2 POP POP SWAP3 SWAP2 POP POP JUMP JUMPDEST PUSH0 DUP1 PUSH1 0x40 DUP4 DUP6 SUB SLT ISZERO PUSH2 0x12C8 JUMPI PUSH0 DUP1 REVERT JUMPDEST PUSH2 0x12D1 DUP4 PUSH2 0x111D JUMP JUMPDEST SWAP5 PUSH1 0x20 SWAP4 SWAP1 SWAP4 ADD CALLDATALOAD SWAP4 POP POP POP JUMP JUMPDEST PUSH1 0x20 DUP1 DUP3 MSTORE PUSH1 0xE SWAP1 DUP3 ADD MSTORE PUSH14 0x139BDD08185D5D1A1BDC9A5E9959 PUSH1 0x92 SHL PUSH1 0x40 DUP3 ADD MSTORE PUSH1 0x60 ADD SWAP1 JUMP JUMPDEST PUSH1 0x1 DUP2 DUP2 SHR SWAP1 DUP3 AND DUP1 PUSH2 0x131B JUMPI PUSH1 0x7F DUP3 AND SWAP2 POP JUMPDEST PUSH1 0x20 DUP3 LT DUP2 SUB PUSH2 0x1339 JUMPI PUSH4 0x4E487B71 PUSH1 0xE0 SHL PUSH0 MSTORE PUSH1 0x22 PUSH1 0x4 MSTORE PUSH1 0x24 PUSH0 REVERT JUMPDEST POP SWAP2 SWAP1 POP JUMP JUMPDEST PUSH1 0x1F DUP3 GT ISZERO PUSH2 0x1386 JUMPI DUP1 PUSH0 MSTORE PUSH1 0x20 PUSH0 KECCAK256 PUSH1 0x1F DUP5 ADD PUSH1 0x5 SHR DUP2 ADD PUSH1 0x20 DUP6 LT ISZERO PUSH2 0x1364 JUMPI POP DUP1 JUMPDEST PUSH1 0x1F DUP5 ADD PUSH1 0x5 SHR DUP3 ADD SWAP2 POP JUMPDEST DUP2 DUP2 LT ISZERO PUSH2 0x1383 JUMPI PUSH0 DUP2 SSTORE PUSH1 0x1 ADD PUSH2 0x1370 JUMP JUMPDEST POP POP JUMPDEST POP POP POP JUMP JUMPDEST DUP2 MLOAD PUSH8 0xFFFFFFFFFFFFFFFF DUP2 GT ISZERO PUSH2 0x13A5 JUMPI PUSH2 0x13A5 PUSH2 0x1151 JUMP JUMPDEST PUSH2 0x13B9 DUP2 PUSH2 0x13B3 DUP5 SLOAD PUSH2 0x1307 JUMP JUMPDEST DUP5 PUSH2 0x133F JUMP JUMPDEST PUSH1 0x20 PUSH1 0x1F DUP3 GT PUSH1 0x1 DUP2 EQ PUSH2 0x13EB JUMPI PUSH0 DUP4 ISZERO PUSH2 0x13D4 JUMPI POP DUP5 DUP3 ADD MLOAD JUMPDEST PUSH0 NOT PUSH1 0x3 DUP6 SWAP1 SHL SHR NOT AND PUSH1 0x1 DUP5 SWAP1 SHL OR DUP5 SSTORE PUSH2 0x1383 JUMP JUMPDEST PUSH0 DUP5 DUP2 MSTORE PUSH1 0x20 DUP2 KECCAK256 PUSH1 0x1F NOT DUP6 AND SWAP2 JUMPDEST DUP3 DUP2 LT ISZERO PUSH2 0x141A JUMPI DUP8 DUP6 ADD MLOAD DUP3 SSTORE PUSH1 0x20 SWAP5 DUP6 ADD SWAP5 PUSH1 0x1 SWAP1 SWAP3 ADD SWAP2 ADD PUSH2 0x13FA JUMP JUMPDEST POP DUP5 DUP3 LT ISZERO PUSH2 0x1437 JUMPI DUP7 DUP5 ADD MLOAD PUSH0 NOT PUSH1 0x3 DUP8 SWAP1 SHL PUSH1 0xF8 AND SHR NOT AND DUP2 SSTORE JUMPDEST POP POP POP POP PUSH1 0x1 SWAP1 DUP2 SHL ADD SWAP1 SSTORE POP JUMP JUMPDEST PUSH4 0x4E487B71 PUSH1 0xE0 SHL PUSH0 MSTORE PUSH1 0x32 PUSH1 0x4 MSTORE PUSH1 0x24 PUSH0 REVERT JUMPDEST PUSH0 PUSH1 0x20 DUP3 DUP5 SUB SLT ISZERO PUSH2 0x146A JUMPI PUSH0 DUP1 REVERT JUMPDEST DUP2 MLOAD PUSH8 0xFFFFFFFFFFFFFFFF DUP2 GT ISZERO PUSH2 0x1480 JUMPI PUSH0 DUP1 REVERT JUMPDEST DUP3 ADD PUSH1 0x1F DUP2 ADD DUP5 SGT PUSH2 0x1490 JUMPI PUSH0 DUP1 REVERT JUMPDEST DUP1 MLOAD PUSH2 0x149E PUSH2 0x1201 DUP3 PUSH2 0x1196 JUMP JUMPDEST DUP2 DUP2 MSTORE DUP6 PUSH1 0x20 DUP4 DUP6 ADD ADD GT ISZERO PUSH2 0x14B2 JUMPI PUSH0 DUP1 REVERT JUMPDEST DUP2 PUSH1 0x20 DUP5 ADD PUSH1 0x20 DUP4 ADD MCOPY PUSH0 SWAP2 DUP2 ADD PUSH1 0x20 ADD SWAP2 SWAP1 SWAP2 MSTORE SWAP5 SWAP4 POP POP POP POP JUMP JUMPDEST PUSH0 DUP2 SLOAD PUSH2 0x14DB DUP2 PUSH2 0x1307 JUMP JUMPDEST PUSH1 0x1 DUP3 AND DUP1 ISZERO PUSH2 0x14F2 JUMPI PUSH1 0x1 DUP2 EQ PUSH2 0x1507 JUMPI PUSH2 0x1534 JUMP JUMPDEST PUSH1 0xFF NOT DUP4 AND DUP7 MSTORE DUP2 ISZERO ISZERO DUP3 MUL DUP7 ADD SWAP4 POP PUSH2 0x1534 JUMP JUMPDEST DUP5 PUSH0 MSTORE PUSH1 0x20 PUSH0 KECCAK256 PUSH0 JUMPDEST DUP4 DUP2 LT ISZERO PUSH2 0x152C JUMPI DUP2 SLOAD DUP9 DUP3 ADD MSTORE PUSH1 0x1 SWAP1 SWAP2 ADD SWAP1 PUSH1 0x20 ADD PUSH2 0x1510 JUMP JUMPDEST POP POP DUP2 DUP7 ADD SWAP4 POP JUMPDEST POP POP POP SWAP3 SWAP2 POP POP JUMP JUMPDEST PUSH0 DUP2 MLOAD DUP1 PUSH1 0x20 DUP5 ADD DUP6 MCOPY PUSH0 SWAP4 ADD SWAP3 DUP4 MSTORE POP SWAP1 SWAP2 SWAP1 POP JUMP JUMPDEST PUSH10 0x3D913730B6B2911D1011 PUSH1 0xB1 SHL DUP2 MSTORE PUSH0 PUSH2 0x1572 PUSH1 0xA DUP4 ADD DUP8 PUSH2 0x14CF JUMP JUMPDEST PUSH19 0x111610113232B9B1B934B83A34B7B7111D1011 PUSH1 0x69 SHL DUP2 MSTORE PUSH2 0x1598 PUSH1 0x13 DUP3 ADD DUP8 PUSH2 0x14CF JUMP JUMPDEST PUSH20 0x1116101132BC3A32B93730B62FBAB936111D1011 PUSH1 0x61 SHL DUP2 MSTORE SWAP1 POP PUSH2 0x15C1 PUSH1 0x14 DUP3 ADD DUP7 PUSH2 0x14CF JUMP JUMPDEST PUSH13 0x1116101134B6B0B3B2911D1011 PUSH1 0x99 SHL DUP2 MSTORE SWAP1 POP PUSH2 0x15E3 PUSH1 0xD DUP3 ADD DUP6 PUSH2 0x153D JUMP JUMPDEST PUSH2 0x227D PUSH1 0xF0 SHL DUP2 MSTORE PUSH1 0x2 ADD SWAP8 SWAP7 POP POP POP POP POP POP POP JUMP JUMPDEST PUSH32 0x646174613A6170706C69636174696F6E2F6A736F6E3B6261736536342C000000 DUP2 MSTORE PUSH0 PUSH2 0xC8F PUSH1 0x1D DUP4 ADD DUP5 PUSH2 0x153D JUMP JUMPDEST PUSH0 PUSH1 0x20 DUP3 DUP5 SUB SLT ISZERO PUSH2 0x163A JUMPI PUSH0 DUP1 REVERT JUMPDEST POP MLOAD SWAP2 SWAP1 POP JUMP JUMPDEST PUSH4 0x4E487B71 PUSH1 0xE0 SHL PUSH0 MSTORE PUSH1 0x11 PUSH1 0x4 MSTORE PUSH1 0x24 PUSH0 REVERT JUMPDEST PUSH0 PUSH1 0x1 DUP3 ADD PUSH2 0x1666 JUMPI PUSH2 0x1666 PUSH2 0x1641 JUMP JUMPDEST POP PUSH1 0x1 ADD SWAP1 JUMP JUMPDEST PUSH22 0x19185D184E9D195E1D0BDA1D1B5B0ED8985CD94D8D0B PUSH1 0x52 SHL DUP2 MSTORE PUSH0 PUSH2 0xC8F PUSH1 0x16 DUP4 ADD DUP5 PUSH2 0x153D JUMP JUMPDEST DUP2 DUP2 SUB DUP2 DUP2 GT ISZERO PUSH2 0x503 JUMPI PUSH2 0x503 PUSH2 0x1641 JUMP JUMPDEST PUSH4 0x4E487B71 PUSH1 0xE0 SHL PUSH0 MSTORE PUSH1 0x31 PUSH1 0x4 MSTORE PUSH1 0x24 PUSH0 REVERT JUMPDEST DUP1 DUP3 MUL DUP2 ISZERO DUP3 DUP3 DIV DUP5 EQ OR PUSH2 0x503 JUMPI PUSH2 0x503 PUSH2 0x1641 JUMP JUMPDEST DUP1 DUP3 ADD DUP1 DUP3 GT ISZERO PUSH2 0x503 JUMPI PUSH2 0x503 PUSH2 0x1641 JUMP JUMPDEST PUSH0 DUP3 PUSH2 0x1702 JUMPI PUSH4 0x4E487B71 PUSH1 0xE0 SHL PUSH0 MSTORE PUSH1 0x12 PUSH1 0x4 MSTORE PUSH1 0x24 PUSH0 REVERT JUMPDEST POP DIV SWAP1 JUMP INVALID COINBASE TIMESTAMP NUMBER PREVRANDAO GASLIMIT CHAINID SELFBALANCE BASEFEE BLOBHASH BLOBBASEFEE 0x4B 0x4C 0x4D 0x4E 0x4F POP MLOAD MSTORE MSTORE8 SLOAD SSTORE JUMP JUMPI PC MSIZE GAS PUSH2 0x6263 PUSH5 0x6566676869 PUSH11 0x6B6C6D6E6F707172737475 PUSH23 0x7778797A303132333435363738392B2FA2646970667358 0x22 SLT KECCAK256 SWAP4 0x25 0xC0 0xCD 0xC4 CALLDATACOPY 0xC6 0xE9 0xB3 SWAP14 0xEF KECCAK256 0xA7 DIV SWAP2 PUSH24 0x16460760CACB0C10E495D8BF8E069E7964736F6C63430008 BYTE STOP CALLER "
		},
		"gasEstimates": {
			"creation": {
				"codeDepositCost": "1202600",
				"executionCost": "infinite",
				"totalCost": "infinite"
			},
			"external": {
				"_externalUrl()": "infinite",
				"animToURI(string)": "infinite",
				"approveAdmin(address)": "infinite",
				"creator()": "2382",
				"flip()": "infinite",
				"formatTokenURI()": "infinite",
				"getAdmins()": "infinite",
				"grantAccess(address)": "26815",
				"hasAccess(address)": "2668",
				"isAdmin(address)": "infinite",
				"isOwner()": "2398",
				"maxSupply()": "2357",
				"mint(address)": "infinite",
				"owner()": "2396",
				"renounceOwnership()": "infinite",
				"revokeAccess(address)": "26786",
				"revokeAdmin(address)": "infinite",
				"setDescription(string)": "infinite",
				"setExternalUrl(string)": "infinite",
				"setFlipEngine(address)": "28949",
				"setName(string)": "infinite",
				"supportsInterface(bytes4)": "infinite",
				"tokenURI(address,uint256)": "infinite",
				"totalSupply()": "2370",
				"transferOwnership(address)": "28439",
				"withdrawAll()": "infinite"
			}
		},
		"methodIdentifiers": {
			"_externalUrl()": "49fe5535",
			"animToURI(string)": "c038fe04",
			"approveAdmin(address)": "6d73e669",
			"creator()": "02d05d3f",
			"flip()": "cde4efa9",
			"formatTokenURI()": "37d5ad2b",
			"getAdmins()": "31ae450b",
			"grantAccess(address)": "0ae5e739",
			"hasAccess(address)": "95a078e8",
			"isAdmin(address)": "24d7806c",
			"isOwner()": "8f32d59b",
			"maxSupply()": "d5abeb01",
			"mint(address)": "6a627842",
			"owner()": "8da5cb5b",
			"renounceOwnership()": "715018a6",
			"revokeAccess(address)": "85e68531",
			"revokeAdmin(address)": "2d345670",
			"setDescription(string)": "90c3f38f",
			"setExternalUrl(string)": "26d58ad3",
			"setFlipEngine(address)": "aad61bb6",
			"setName(string)": "c47f0027",
			"supportsInterface(bytes4)": "01ffc9a7",
			"tokenURI(address,uint256)": "e9dc6375",
			"totalSupply()": "18160ddd",
			"transferOwnership(address)": "f2fde38b",
			"withdrawAll()": "853828b6"
		}
	},
	"abi": [
		{
			"inputs": [
				{
					"internalType": "address",
					"name": "owner",
					"type": "address"
				},
				{
					"internalType": "address",
					"name": "creator",
					"type": "address"
				},
				{
					"internalType": "string",
					"name": "name",
					"type": "string"
				},
				{
					"internalType": "string",
					"name": "description",
					"type": "string"
				},
				{
					"internalType": "address",
					"name": "flipEngineAddr",
					"type": "address"
				}
			],
			"stateMutability": "nonpayable",
			"type": "constructor"
		},
		{
			"inputs": [
				{
					"internalType": "address",
					"name": "owner",
					"type": "address"
				}
			],
			"name": "OwnableInvalidOwner",
			"type": "error"
		},
		{
			"inputs": [
				{
					"internalType": "address",
					"name": "account",
					"type": "address"
				}
			],
			"name": "OwnableUnauthorizedAccount",
			"type": "error"
		},
		{
			"anonymous": false,
			"inputs": [
				{
					"indexed": true,
					"internalType": "address",
					"name": "account",
					"type": "address"
				},
				{
					"indexed": true,
					"internalType": "address",
					"name": "sender",
					"type": "address"
				}
			],
			"name": "AdminApproved",
			"type": "event"
		},
		{
			"anonymous": false,
			"inputs": [
				{
					"indexed": true,
					"internalType": "address",
					"name": "account",
					"type": "address"
				},
				{
					"indexed": true,
					"internalType": "address",
					"name": "sender",
					"type": "address"
				}
			],
			"name": "AdminRevoked",
			"type": "event"
		},
		{
			"anonymous": false,
			"inputs": [
				{
					"indexed": true,
					"internalType": "address",
					"name": "previousOwner",
					"type": "address"
				},
				{
					"indexed": true,
					"internalType": "address",
					"name": "newOwner",
					"type": "address"
				}
			],
			"name": "OwnershipTransferred",
			"type": "event"
		},
		{
			"inputs": [],
			"name": "_externalUrl",
			"outputs": [
				{
					"internalType": "string",
					"name": "",
					"type": "string"
				}
			],
			"stateMutability": "view",
			"type": "function"
		},
		{
			"inputs": [
				{
					"internalType": "string",
					"name": "anim",
					"type": "string"
				}
			],
			"name": "animToURI",
			"outputs": [
				{
					"internalType": "string",
					"name": "",
					"type": "string"
				}
			],
			"stateMutability": "pure",
			"type": "function"
		},
		{
			"inputs": [
				{
					"internalType": "address",
					"name": "admin",
					"type": "address"
				}
			],
			"name": "approveAdmin",
			"outputs": [],
			"stateMutability": "nonpayable",
			"type": "function"
		},
		{
			"inputs": [],
			"name": "creator",
			"outputs": [
				{
					"internalType": "address",
					"name": "",
					"type": "address"
				}
			],
			"stateMutability": "view",
			"type": "function"
		},
		{
			"inputs": [],
			"name": "flip",
			"outputs": [],
			"stateMutability": "nonpayable",
			"type": "function"
		},
		{
			"inputs": [],
			"name": "formatTokenURI",
			"outputs": [
				{
					"internalType": "string",
					"name": "",
					"type": "string"
				}
			],
			"stateMutability": "view",
			"type": "function"
		},
		{
			"inputs": [],
			"name": "getAdmins",
			"outputs": [
				{
					"internalType": "address[]",
					"name": "admins",
					"type": "address[]"
				}
			],
			"stateMutability": "view",
			"type": "function"
		},
		{
			"inputs": [
				{
					"internalType": "address",
					"name": "addr",
					"type": "address"
				}
			],
			"name": "grantAccess",
			"outputs": [],
			"stateMutability": "nonpayable",
			"type": "function"
		},
		{
			"inputs": [
				{
					"internalType": "address",
					"name": "account",
					"type": "address"
				}
			],
			"name": "hasAccess",
			"outputs": [
				{
					"internalType": "bool",
					"name": "",
					"type": "bool"
				}
			],
			"stateMutability": "view",
			"type": "function"
		},
		{
			"inputs": [
				{
					"internalType": "address",
					"name": "admin",
					"type": "address"
				}
			],
			"name": "isAdmin",
			"outputs": [
				{
					"internalType": "bool",
					"name": "",
					"type": "bool"
				}
			],
			"stateMutability": "view",
			"type": "function"
		},
		{
			"inputs": [],
			"name": "isOwner",
			"outputs": [
				{
					"internalType": "bool",
					"name": "",
					"type": "bool"
				}
			],
			"stateMutability": "view",
			"type": "function"
		},
		{
			"inputs": [],
			"name": "maxSupply",
			"outputs": [
				{
					"internalType": "uint256",
					"name": "",
					"type": "uint256"
				}
			],
			"stateMutability": "view",
			"type": "function"
		},
		{
			"inputs": [
				{
					"internalType": "address",
					"name": "recipient",
					"type": "address"
				}
			],
			"name": "mint",
			"outputs": [],
			"stateMutability": "payable",
			"type": "function"
		},
		{
			"inputs": [],
			"name": "owner",
			"outputs": [
				{
					"internalType": "address",
					"name": "",
					"type": "address"
				}
			],
			"stateMutability": "view",
			"type": "function"
		},
		{
			"inputs": [],
			"name": "renounceOwnership",
			"outputs": [],
			"stateMutability": "nonpayable",
			"type": "function"
		},
		{
			"inputs": [
				{
					"internalType": "address",
					"name": "addr",
					"type": "address"
				}
			],
			"name": "revokeAccess",
			"outputs": [],
			"stateMutability": "nonpayable",
			"type": "function"
		},
		{
			"inputs": [
				{
					"internalType": "address",
					"name": "admin",
					"type": "address"
				}
			],
			"name": "revokeAdmin",
			"outputs": [],
			"stateMutability": "nonpayable",
			"type": "function"
		},
		{
			"inputs": [
				{
					"internalType": "string",
					"name": "des",
					"type": "string"
				}
			],
			"name": "setDescription",
			"outputs": [],
			"stateMutability": "nonpayable",
			"type": "function"
		},
		{
			"inputs": [
				{
					"internalType": "string",
					"name": "externalUrl",
					"type": "string"
				}
			],
			"name": "setExternalUrl",
			"outputs": [],
			"stateMutability": "nonpayable",
			"type": "function"
		},
		{
			"inputs": [
				{
					"internalType": "address",
					"name": "flipEngineAddr",
					"type": "address"
				}
			],
			"name": "setFlipEngine",
			"outputs": [],
			"stateMutability": "nonpayable",
			"type": "function"
		},
		{
			"inputs": [
				{
					"internalType": "string",
					"name": "name",
					"type": "string"
				}
			],
			"name": "setName",
			"outputs": [],
			"stateMutability": "nonpayable",
			"type": "function"
		},
		{
			"inputs": [
				{
					"internalType": "bytes4",
					"name": "interfaceId",
					"type": "bytes4"
				}
			],
			"name": "supportsInterface",
			"outputs": [
				{
					"internalType": "bool",
					"name": "",
					"type": "bool"
				}
			],
			"stateMutability": "view",
			"type": "function"
		},
		{
			"inputs": [
				{
					"internalType": "address",
					"name": "creator",
					"type": "address"
				},
				{
					"internalType": "uint256",
					"name": "tokenId",
					"type": "uint256"
				}
			],
			"name": "tokenURI",
			"outputs": [
				{
					"internalType": "string",
					"name": "",
					"type": "string"
				}
			],
			"stateMutability": "view",
			"type": "function"
		},
		{
			"inputs": [],
			"name": "totalSupply",
			"outputs": [
				{
					"internalType": "uint256",
					"name": "",
					"type": "uint256"
				}
			],
			"stateMutability": "view",
			"type": "function"
		},
		{
			"inputs": [
				{
					"internalType": "address",
					"name": "newOwner",
					"type": "address"
				}
			],
			"name": "transferOwnership",
			"outputs": [],
			"stateMutability": "nonpayable",
			"type": "function"
		},
		{
			"inputs": [],
			"name": "withdrawAll",
			"outputs": [],
			"stateMutability": "nonpayable",
			"type": "function"
		}
	]
}