{"abi":[{"type":"constructor","inputs":[{"name":"creator","type":"address","internalType":"address"},{"name":"name","type":"string","internalType":"string"},{"name":"description","type":"string","internalType":"string"},{"name":"flipEngineAddr","type":"address","internalType":"address"}],"stateMutability":"nonpayable"},{"type":"function","name":"animToURI","inputs":[{"name":"anim","type":"string","internalType":"string"}],"outputs":[{"name":"","type":"string","internalType":"string"}],"stateMutability":"pure"},{"type":"function","name":"approveAdmin","inputs":[{"name":"admin","type":"address","internalType":"address"}],"outputs":[],"stateMutability":"nonpayable"},{"type":"function","name":"flip","inputs":[],"outputs":[],"stateMutability":"nonpayable"},{"type":"function","name":"formatTokenURI","inputs":[],"outputs":[{"name":"","type":"string","internalType":"string"}],"stateMutability":"view"},{"type":"function","name":"getAdmins","inputs":[],"outputs":[{"name":"admins","type":"address[]","internalType":"address[]"}],"stateMutability":"view"},{"type":"function","name":"grantAccess","inputs":[{"name":"addr","type":"address","internalType":"address"}],"outputs":[],"stateMutability":"nonpayable"},{"type":"function","name":"hasAccess","inputs":[{"name":"account","type":"address","internalType":"address"}],"outputs":[{"name":"","type":"bool","internalType":"bool"}],"stateMutability":"view"},{"type":"function","name":"isAdmin","inputs":[{"name":"admin","type":"address","internalType":"address"}],"outputs":[{"name":"","type":"bool","internalType":"bool"}],"stateMutability":"view"},{"type":"function","name":"isFlipped","inputs":[],"outputs":[{"name":"","type":"bool","internalType":"bool"}],"stateMutability":"view"},{"type":"function","name":"isOwner","inputs":[],"outputs":[{"name":"","type":"bool","internalType":"bool"}],"stateMutability":"view"},{"type":"function","name":"maxSupply","inputs":[],"outputs":[{"name":"","type":"uint256","internalType":"uint256"}],"stateMutability":"view"},{"type":"function","name":"mint","inputs":[{"name":"recipient","type":"address","internalType":"address"}],"outputs":[],"stateMutability":"payable"},{"type":"function","name":"owner","inputs":[],"outputs":[{"name":"","type":"address","internalType":"address"}],"stateMutability":"view"},{"type":"function","name":"renounceOwnership","inputs":[],"outputs":[],"stateMutability":"nonpayable"},{"type":"function","name":"revokeAccess","inputs":[{"name":"addr","type":"address","internalType":"address"}],"outputs":[],"stateMutability":"nonpayable"},{"type":"function","name":"revokeAdmin","inputs":[{"name":"admin","type":"address","internalType":"address"}],"outputs":[],"stateMutability":"nonpayable"},{"type":"function","name":"setDescription","inputs":[{"name":"des","type":"string","internalType":"string"}],"outputs":[],"stateMutability":"nonpayable"},{"type":"function","name":"setExternalUrl","inputs":[{"name":"externalUrl","type":"string","internalType":"string"}],"outputs":[],"stateMutability":"nonpayable"},{"type":"function","name":"setFlipEngine","inputs":[{"name":"flipEngineAddr","type":"address","internalType":"address"}],"outputs":[],"stateMutability":"nonpayable"},{"type":"function","name":"setName","inputs":[{"name":"name","type":"string","internalType":"string"}],"outputs":[],"stateMutability":"nonpayable"},{"type":"function","name":"setTokenId","inputs":[{"name":"tokenId","type":"uint256","internalType":"uint256"}],"outputs":[],"stateMutability":"nonpayable"},{"type":"function","name":"supportsInterface","inputs":[{"name":"interfaceId","type":"bytes4","internalType":"bytes4"}],"outputs":[{"name":"","type":"bool","internalType":"bool"}],"stateMutability":"view"},{"type":"function","name":"tokenURI","inputs":[{"name":"creator","type":"address","internalType":"address"},{"name":"tokenId","type":"uint256","internalType":"uint256"}],"outputs":[{"name":"","type":"string","internalType":"string"}],"stateMutability":"view"},{"type":"function","name":"totalSupply","inputs":[],"outputs":[{"name":"","type":"uint256","internalType":"uint256"}],"stateMutability":"view"},{"type":"function","name":"transferOwnership","inputs":[{"name":"newOwner","type":"address","internalType":"address"}],"outputs":[],"stateMutability":"nonpayable"},{"type":"function","name":"withdrawAll","inputs":[],"outputs":[],"stateMutability":"nonpayable"},{"type":"event","name":"AdminApproved","inputs":[{"name":"account","type":"address","indexed":true,"internalType":"address"},{"name":"sender","type":"address","indexed":true,"internalType":"address"}],"anonymous":false},{"type":"event","name":"AdminRevoked","inputs":[{"name":"account","type":"address","indexed":true,"internalType":"address"},{"name":"sender","type":"address","indexed":true,"internalType":"address"}],"anonymous":false},{"type":"event","name":"OwnershipTransferred","inputs":[{"name":"previousOwner","type":"address","indexed":true,"internalType":"address"},{"name":"newOwner","type":"address","indexed":true,"internalType":"address"}],"anonymous":false}],"bytecode":{"object":"0x6080604052346104d5576000611f7f8038038061001b816104da565b9283398101916080828403126104d257610034826104ff565b60208301516001600160401b0381116104d05784610053918501610513565b60408401519094906001600160401b0381116104cc5761007a610081926060928701610513565b94016104ff565b8254336001600160a01b0319821681178555919391906001600160a01b03167f8be0079c531659141344cd1fd0a4f28419497f9722a3daafe3b4186f6b6457e08380a3600380546001600160a01b0319163317905560068190556001600755600a546100ec9061057e565b601f811161048e575b507f68747470733a2f2f7777772e6f6d656e74656a6f76656d2e636f6d2f00000038600a55600b546101269061057e565b601f8111610450575b5080600b5561013f600c5461057e565b601f8111610412575b50600c8190558451906001600160401b0382116103fe5750602094601f82116001146103975794819293949560009261038c575b50508160011b916000199060031b1c191617600c555b82516001600160401b038111610376576101ad600b5461057e565b601f811161031c575b506020601f82116001146102b557819293946000926102aa575b50508160011b916000199060031b1c191617600b555b600980546001600160a01b03199081166001600160a01b039384161790915560058054909116928216929092179091556003541633036102785773f1da6e2d387e9da611dac8a7fc587eaa4b01001360005260046020527f6e3a52c53c8864941b35de2fbbb8fb17134ba8afafed39dec562ac2065fb7175805460ff191660011790556040516119af90816105d08239f35b60405162461bcd60e51b815260206004820152600a6024820152694e6f7420616e6472657760b01b6044820152606490fd5b0151905038806101d0565b601f19821690600b600052806000209160005b818110610304575095836001959697106102eb575b505050811b01600b556101e6565b015160001960f88460031b161c191690553880806102dd565b9192602060018192868b0151815501940192016102c8565b600b600052610366907f0175b7a638427703f0dbe7bb9bbf987a2551717b34e79f33b5b1008d1fa01db9601f840160051c8101916020851061036c575b601f0160051c01906105b8565b386101b6565b9091508190610359565b634e487b7160e01b600052604160045260246000fd5b01519050388061017c565b601f19821695600c600052806000209160005b8881106103e6575083600195969798106103cd575b505050811b01600c55610192565b015160001960f88460031b161c191690553880806103bf565b919260206001819286850151815501940192016103aa565b634e487b7160e01b81526041600452602490fd5b600c825261044a90601f0160051c7fdf6966c971051c3d54ec59162606531493a51404a002842f56009d7e5cf4a8c7908101906105b8565b38610148565b600b825261048890601f0160051c7f0175b7a638427703f0dbe7bb9bbf987a2551717b34e79f33b5b1008d1fa01db9908101906105b8565b3861012f565b600a82526104c690601f0160051c7fc65a7bb8d6351c1cf70c95a316cc6a92839c986682d98bc35f958f4883f9d2a8908101906105b8565b386100f5565b8380fd5b825b80fd5b600080fd5b6040519190601f01601f191682016001600160401b0381118382101761037657604052565b51906001600160a01b03821682036104d557565b81601f820112156104d5578051906001600160401b03821161037657610542601f8301601f19166020016104da565b92828452602083830101116104d55760005b82811061056957505060206000918301015290565b80602080928401015182828701015201610554565b90600182811c921680156105ae575b602083101461059857565b634e487b7160e01b600052602260045260246000fd5b91607f169161058d565b8181106105c3575050565b600081556001016105b856fe608080604052600436101561001357600080fd5b600090813560e01c90816301ffc9a714610fc7575080630ae5e73914610f76578063161f5a1014610ee557806318160ddd14610ec757806324d7806c14610e6857806326d58ad314610cec5780632d34567014610c7b57806331ae450b14610b5e57806337d5ad2b14610b425780636a62784214610a1e5780636d73e669146109a8578063715018a61461094e578063853828b6146108e857806385e685311461089a5780638da5cb5b146108735780638f32d59b1461084857806390c3f38f146106cc57806395a078e81461068d578063aad61bb61461061c578063c038fe04146105b5578063c47f002714610425578063c929ccf3146103d6578063cde4efa91461025b578063d5abeb011461023d578063e9dc6375146102075763f2fde38b1461013f57600080fd5b3461020457602036600319011261020457610158611084565b6101606115b1565b6001600160a01b031680156101b05781546001600160a01b03198116821783556001600160a01b03167f8be0079c531659141344cd1fd0a4f28419497f9722a3daafe3b4186f6b6457e08380a380f35b60405162461bcd60e51b815260206004820152602660248201527f4f776e61626c653a206e6577206f776e657220697320746865207a65726f206160448201526564647265737360d01b6064820152608490fd5b80fd5b503461020457604036600319011261020457610221611084565b5061023961022d611273565b6040519182918261117f565b0390f35b50346102045780600319360112610204576020600754604051908152f35b50346102045780600319360112610204576008546003546001600160a01b031633149081156103bf575b811561031e575b50156102ea5760055481906001600160a01b0316803b156102e75781809160046040518095819363cde4efa960e01b83525af180156102da576102cc5780f35b6102d59161109f565b388180f35b50604051903d90823e3d90fd5b50fd5b60405162461bcd60e51b815260206004820152600c60248201526b155b985d5d1a1bdc9a5e995960a21b6044820152606490fd5b6009546040516331a9108f60e11b81526004810192909252909150602090829060249082906001600160a01b03165afa9081156103b457829161036e575b506001600160a01b031633143861028c565b90506020813d6020116103ac575b816103896020938361109f565b810103126103a857516001600160a01b03811681036103a8573861035c565b5080fd5b3d915061037c565b6040513d84823e3d90fd5b3383526004602052604083205460ff169150610285565b5034610204576020366003190112610204576003546001600160a01b03163314801561040f575b610406906111e4565b60043560085580f35b503381526004602052604081205460ff166103fd565b503461020457610434366110f3565b9060018060a01b03600354163314801561059f575b610452906111e4565b815167ffffffffffffffff811161058b5761046e600c54611221565b601f8111610520575b50602092601f82116001146104b4579282938293926104a9575b50508160011b916000199060031b1c191617600c5580f35b015190503880610491565b600c8352601f1982169360008051602061191a83398151915291845b86811061050857508360019596106104ef575b505050811b01600c5580f35b015160001960f88460031b161c191690553880806104e3565b919260206001819286850151815501940192016104d0565b600c8352601f820160051c60008051602061191a833981519152019060208310610575575b601f0160051c60008051602061191a83398151915201905b81811061056a5750610477565b83815560010161055d565b60008051602061191a8339815191529150610545565b634e487b7160e01b82526041600452602482fd5b503381526004602052604081205460ff16610449565b5034610204576102396105cf6105ca366110f3565b611609565b61022d603660405180937519185d184e9d195e1d0bda1d1b5b0ed8985cd94d8d0b60521b602083015261060b815180926020868601910161115c565b81010301601f19810183528261109f565b503461020457602036600319011261020457610636611084565b6003546001600160a01b031633148015610677575b610654906111e4565b60018060a01b03166bffffffffffffffffffffffff60a01b600554161760055580f35b503382526004602052604082205460ff1661064b565b50346102045760203660031901126102045760209060ff906040906001600160a01b036106b8611084565b168152600484522054166040519015158152f35b5034610204576106db366110f3565b9060018060a01b036003541633148015610832575b6106f9906111e4565b815167ffffffffffffffff811161058b57610715600b54611221565b601f81116107c7575b50602092601f821160011461075b57928293829392610750575b50508160011b916000199060031b1c191617600b5580f35b015190503880610738565b600b8352601f1982169360008051602061195a83398151915291845b8681106107af5750836001959610610796575b505050811b01600b5580f35b015160001960f88460031b161c1916905538808061078a565b91926020600181928685015181550194019201610777565b600b8352601f820160051c60008051602061195a83398151915201906020831061081c575b601f0160051c60008051602061195a83398151915201905b818110610811575061071e565b838155600101610804565b60008051602061195a83398151915291506107ec565b503381526004602052604081205460ff166106f0565b503461020457806003193601126102045750602060018060a01b036003541633146040519015158152f35b5034610204578060031936011261020457546040516001600160a01b039091168152602090f35b5034610204576020366003190112610204576108b4611084565b6108c960018060a01b036003541633146111ab565b6001600160a01b03168152600460205260408120805460ff1916905580f35b50346102045780600319360112610204576003546001600160a01b031633148015610938575b610917906111e4565b808080804781811561092f575b3390f1156102045780f35b506108fc610924565b503381526004602052604081205460ff1661090e565b50346102045780600319360112610204576109676115b1565b80546001600160a01b03198116825581906001600160a01b03167f8be0079c531659141344cd1fd0a4f28419497f9722a3daafe3b4186f6b6457e08280a380f35b5034610204576020366003190112610204576109c2611084565b6109ca6115b1565b6001600160a01b0316600081815260026020526040902054156109eb575080f35b610a1a9033817f7e1a1a08d52e4ba0e21554733d66165fd5151f99460116223d9e3a608eec5cb18580a36118b9565b5080f35b50602036600319011261020457610a33611084565b6003546001600160a01b031633148015610b2c575b610a51906111e4565b6006546007541115610af157600954604051630525194b60e31b81526001600160a01b03928316600482015291602091839160249183918791165af180156103b457610ac2575b506006546000198114610aae5760010160065580f35b634e487b7160e01b82526011600452602482fd5b6020813d602011610ae9575b81610adb6020938361109f565b810103126103a85751610a98565b3d9150610ace565b60405162461bcd60e51b8152602060048201526013602482015272139bc81b5bdc99481d1bdad95b9cc81b19599d606a1b6044820152606490fd5b503382526004602052604082205460ff16610a48565b503461020457806003193601126102045761023961022d611273565b5034610204578060031936011261020457600154610b7b8161125b565b610b88604051918261109f565b818152610b948261125b565b602082019290601f1901368437600154845b828110610bfb5750505090604051928392602084019060208552518091526040840192915b818110610bd9575050500390f35b82516001600160a01b0316845285945060209384019390920191600101610bcb565b81811015610c6757600186527fb10e2d527612073b26eecdfd717e6a320cf44b4afac2b0732d9fcbe2b7fa0cf681015484516001600160a01b0390911690821015610c5357600582901b850160200152600101610ba6565b634e487b7160e01b87526032600452602487fd5b634e487b7160e01b86526032600452602486fd5b503461020457602036600319011261020457610c95611084565b610c9d6115b1565b6001600160a01b0316600081815260026020526040902054610cbd575080f35b610a1a9033817f7c0c3c84c67c85fcac635147348bfe374c24a1a93d0366d1cfe9d8853cbf89d58580a361169e565b503461020457610cfb366110f3565b9060018060a01b036003541633148015610e52575b610d19906111e4565b815167ffffffffffffffff811161058b57610d35600a54611221565b601f8111610de7575b50602092601f8211600114610d7b57928293829392610d70575b50508160011b916000199060031b1c191617600a5580f35b015190503880610d58565b600a8352601f1982169360008051602061193a83398151915291845b868110610dcf5750836001959610610db6575b505050811b01600a5580f35b015160001960f88460031b161c19169055388080610daa565b91926020600181928685015181550194019201610d97565b600a8352601f820160051c60008051602061193a833981519152019060208310610e3c575b601f0160051c60008051602061193a83398151915201905b818110610e315750610d3e565b838155600101610e24565b60008051602061193a8339815191529150610e0c565b503381526004602052604081205460ff16610d10565b503461020457602036600319011261020457602090610e85611084565b90546001600160a01b0391821691168114908115610ea9575b506040519015158152f35b610ec191506000526002602052604060002054151590565b38610e9e565b50346102045780600319360112610204576020600654604051908152f35b5034610204578060031936011261020457600554604051630161f5a160e41b815290602090829060049082906001600160a01b03165afa9081156103b4578291610f37575b6020826040519015158152f35b90506020813d602011610f6e575b81610f526020938361109f565b810103126103a8575180151581036103a8576020915038610f2a565b3d9150610f45565b503461020457602036600319011261020457610f90611084565b610fa560018060a01b036003541633146111ab565b6001600160a01b03168152600460205260408120805460ff1916600117905580f35b9050346103a85760203660031901126103a85760043563ffffffff60e01b8116809103611080576020925063e9dc637560e01b811490811561106f575b811561105e575b8115611019575b5015158152f35b637005caad60e01b811491508115611033575b5038611012565b632a9f3abf60e11b81149150811561104d575b503861102c565b6301ffc9a760e01b14905038611046565b6354c1bcd960e01b8114915061100b565b6353efcf4f60e11b81149150611004565b8280fd5b600435906001600160a01b038216820361109a57565b600080fd5b90601f8019910116810190811067ffffffffffffffff8211176110c157604052565b634e487b7160e01b600052604160045260246000fd5b67ffffffffffffffff81116110c157601f01601f191660200190565b602060031982011261109a5760043567ffffffffffffffff811161109a578160238201121561109a5780600401359061112b826110d7565b92611139604051948561109f565b8284526024838301011161109a5781600092602460209301838601378301015290565b60005b83811061116f5750506000910152565b818101518382015260200161115f565b6040916020825261119f815180928160208601526020868601910161115c565b601f01601f1916010190565b156111b257565b60405162461bcd60e51b815260206004820152600a6024820152694e6f7420616e6472657760b01b6044820152606490fd5b156111eb57565b60405162461bcd60e51b815260206004820152600e60248201526d139bdd08185d5d1a1bdc9a5e995960921b6044820152606490fd5b90600182811c92168015611251575b602083101461123b57565b634e487b7160e01b600052602260045260246000fd5b91607f1691611230565b67ffffffffffffffff81116110c15760051b60200190565b60055460405163f3651cbb60e01b815290600090829060049082906001600160a01b03165afa9081156115a55760009161152a575b5060405190693d913730b6b2911d101160b11b60208301526000600c546112ce81611221565b906001811690811561150f57506001146114ca575b5072111610113232b9b1b934b83a34b7b7111d101160691b8152600b5460009161130c82611221565b91600181169081156114ac5750600114611466575b5050731116101132bc3a32b93730b62fbab936111d101160611b8152600a5460009161134c82611221565b916001811690811561144057506001146113f8575b50506002600d846113b295946105ca946c1116101134b6b0b3b2911d101160991b8152611397825180936020878501910161115c565b0161227d60f01b838201520301601d1981018452018261109f565b6113f5603d60405180937f646174613a6170706c69636174696f6e2f6a736f6e3b6261736536342c000000602083015261060b815180926020868601910161115c565b90565b600a60009081529192509060008051602061193a8339815191525b838210611429575050016014016002600d611361565b600181602092546014858701015201910190611413565b60ff1916601480840191909152831515909302909101909101915060029050600d611361565b600b60009081529192509060008051602061195a8339815191525b838210611495575050016013013880611321565b600181602092546013858701015201910190611481565b90506013935060ff9291921916838301528015150201013880611321565b600c600090815290915060008051602061191a8339815191525b8282106114f85750508201602a01386112e3565b60018160209254602a8589010152019101906114e4565b9050602a925060ff19168285015280151502830101386112e3565b903d8082843e61153a818461109f565b8201916020818403126103a85780519067ffffffffffffffff8211611080570182601f820112156103a857805191611571836110d7565b9361157f604051958661109f565b8385526020848401011161020457509061159f916020808501910161115c565b386112a8565b6040513d6000823e3d90fd5b6000546001600160a01b031633036115c557565b606460405162461bcd60e51b815260206004820152602060248201527f4f776e61626c653a2063616c6c6572206973206e6f7420746865206f776e65726044820152fd5b6040516113f59161161b60608361109f565b604082527f4142434445464748494a4b4c4d4e4f505152535455565758595a61626364656660208301527f6768696a6b6c6d6e6f707172737475767778797a303132333435363738392b2f604083015261179c565b80548210156116885760005260206000200190600090565b634e487b7160e01b600052603260045260246000fd5b600081815260026020526040902054801561179557600019810181811161177f5760015460001981019190821161177f5780820361172e575b505050600154801561171857600019016116f2816001611670565b8154906000199060031b1b19169055600155600052600260205260006040812055600190565b634e487b7160e01b600052603160045260246000fd5b61176761173f611750936001611670565b90549060031b1c9283926001611670565b819391549060031b91821b91600019901b19161790565b905560005260026020526040600020553880806116d7565b634e487b7160e01b600052601160045260246000fd5b5050600090565b9190918051156118a15780516002810180911161177f5760039004600281901b91906001600160fe1b0381160361177f576117ef6117d9836110d7565b926117e7604051948561109f565b8084526110d7565b6020830190601f1901368237908081518201956020870190815192600083525b888110611853575050600393949596505251068060011461184057600214611835575090565b603d90600019015390565b50603d9081600019820153600119015390565b600360049199969901986001603f8b5182828260121c16870101518453828282600c1c16870101518385015382828260061c168701015160028501531684010151600382015301949761180f565b5090506040516118b260208261109f565b6000815290565b8060005260026020526040600020541560001461191357600154680100000000000000008110156110c1576118fa6117508260018594016001556001611670565b9055600154906000526002602052604060002055600190565b5060009056fedf6966c971051c3d54ec59162606531493a51404a002842f56009d7e5cf4a8c7c65a7bb8d6351c1cf70c95a316cc6a92839c986682d98bc35f958f4883f9d2a80175b7a638427703f0dbe7bb9bbf987a2551717b34e79f33b5b1008d1fa01db9a2646970667358221220c2a7cd517ed5c2544c941edc947208a5d1fb505409f3c40b4be5a75b1f38434264736f6c634300081c0033","linkReferences":{}},"methodIdentifiers":{"animToURI(string)":"c038fe04","approveAdmin(address)":"6d73e669","flip()":"cde4efa9","formatTokenURI()":"37d5ad2b","getAdmins()":"31ae450b","grantAccess(address)":"0ae5e739","hasAccess(address)":"95a078e8","isAdmin(address)":"24d7806c","isFlipped()":"161f5a10","isOwner()":"8f32d59b","maxSupply()":"d5abeb01","mint(address)":"6a627842","owner()":"8da5cb5b","renounceOwnership()":"715018a6","revokeAccess(address)":"85e68531","revokeAdmin(address)":"2d345670","setDescription(string)":"90c3f38f","setExternalUrl(string)":"26d58ad3","setFlipEngine(address)":"aad61bb6","setName(string)":"c47f0027","setTokenId(uint256)":"c929ccf3","supportsInterface(bytes4)":"01ffc9a7","tokenURI(address,uint256)":"e9dc6375","totalSupply()":"18160ddd","transferOwnership(address)":"f2fde38b","withdrawAll()":"853828b6"},"id":34}