{"abi":[{"type":"constructor","inputs":[{"name":"flipEngineAddr","type":"address","internalType":"address"}],"stateMutability":"nonpayable"},{"type":"function","name":"animToURI","inputs":[{"name":"anim","type":"string","internalType":"string"}],"outputs":[{"name":"","type":"string","internalType":"string"}],"stateMutability":"pure"},{"type":"function","name":"approveAdmin","inputs":[{"name":"admin","type":"address","internalType":"address"}],"outputs":[],"stateMutability":"nonpayable"},{"type":"function","name":"flip","inputs":[],"outputs":[],"stateMutability":"nonpayable"},{"type":"function","name":"formatTokenURI","inputs":[],"outputs":[{"name":"","type":"string","internalType":"string"}],"stateMutability":"view"},{"type":"function","name":"getAdmins","inputs":[],"outputs":[{"name":"admins","type":"address[]","internalType":"address[]"}],"stateMutability":"view"},{"type":"function","name":"grantAccess","inputs":[{"name":"addr","type":"address","internalType":"address"}],"outputs":[],"stateMutability":"nonpayable"},{"type":"function","name":"hasAccess","inputs":[{"name":"account","type":"address","internalType":"address"}],"outputs":[{"name":"","type":"bool","internalType":"bool"}],"stateMutability":"view"},{"type":"function","name":"isAdmin","inputs":[{"name":"admin","type":"address","internalType":"address"}],"outputs":[{"name":"","type":"bool","internalType":"bool"}],"stateMutability":"view"},{"type":"function","name":"isFlipped","inputs":[],"outputs":[{"name":"","type":"bool","internalType":"bool"}],"stateMutability":"view"},{"type":"function","name":"isOwner","inputs":[],"outputs":[{"name":"","type":"bool","internalType":"bool"}],"stateMutability":"view"},{"type":"function","name":"maxSupply","inputs":[],"outputs":[{"name":"","type":"uint256","internalType":"uint256"}],"stateMutability":"view"},{"type":"function","name":"mint","inputs":[{"name":"recipient","type":"address","internalType":"address"}],"outputs":[],"stateMutability":"payable"},{"type":"function","name":"owner","inputs":[],"outputs":[{"name":"","type":"address","internalType":"address"}],"stateMutability":"view"},{"type":"function","name":"renounceOwnership","inputs":[],"outputs":[],"stateMutability":"nonpayable"},{"type":"function","name":"revokeAccess","inputs":[{"name":"addr","type":"address","internalType":"address"}],"outputs":[],"stateMutability":"nonpayable"},{"type":"function","name":"revokeAdmin","inputs":[{"name":"admin","type":"address","internalType":"address"}],"outputs":[],"stateMutability":"nonpayable"},{"type":"function","name":"setCreator","inputs":[{"name":"creator","type":"address","internalType":"address"}],"outputs":[],"stateMutability":"nonpayable"},{"type":"function","name":"setDescription","inputs":[{"name":"des","type":"string","internalType":"string"}],"outputs":[],"stateMutability":"nonpayable"},{"type":"function","name":"setExternalUrl","inputs":[{"name":"externalUrl","type":"string","internalType":"string"}],"outputs":[],"stateMutability":"nonpayable"},{"type":"function","name":"setFlipEngine","inputs":[{"name":"flipEngineAddr","type":"address","internalType":"address"}],"outputs":[],"stateMutability":"nonpayable"},{"type":"function","name":"setName","inputs":[{"name":"name","type":"string","internalType":"string"}],"outputs":[],"stateMutability":"nonpayable"},{"type":"function","name":"setTokenId","inputs":[{"name":"tokenId","type":"uint256","internalType":"uint256"}],"outputs":[],"stateMutability":"nonpayable"},{"type":"function","name":"supportsInterface","inputs":[{"name":"interfaceId","type":"bytes4","internalType":"bytes4"}],"outputs":[{"name":"","type":"bool","internalType":"bool"}],"stateMutability":"view"},{"type":"function","name":"tokenURI","inputs":[{"name":"creator","type":"address","internalType":"address"},{"name":"tokenId","type":"uint256","internalType":"uint256"}],"outputs":[{"name":"","type":"string","internalType":"string"}],"stateMutability":"view"},{"type":"function","name":"totalSupply","inputs":[],"outputs":[{"name":"","type":"uint256","internalType":"uint256"}],"stateMutability":"view"},{"type":"function","name":"transferOwnership","inputs":[{"name":"newOwner","type":"address","internalType":"address"}],"outputs":[],"stateMutability":"nonpayable"},{"type":"function","name":"withdrawAll","inputs":[],"outputs":[],"stateMutability":"nonpayable"},{"type":"event","name":"AdminApproved","inputs":[{"name":"account","type":"address","indexed":true,"internalType":"address"},{"name":"sender","type":"address","indexed":true,"internalType":"address"}],"anonymous":false},{"type":"event","name":"AdminRevoked","inputs":[{"name":"account","type":"address","indexed":true,"internalType":"address"},{"name":"sender","type":"address","indexed":true,"internalType":"address"}],"anonymous":false},{"type":"event","name":"OwnershipTransferred","inputs":[{"name":"previousOwner","type":"address","indexed":true,"internalType":"address"},{"name":"newOwner","type":"address","indexed":true,"internalType":"address"}],"anonymous":false}],"bytecode":{"object":"0x60803461026857601f611e6f38819003918201601f19168301916001600160401b0383118484101761026d5780849260209460405283398101031261026857516001600160a01b038116908190036102685760008054336001600160a01b0319821681178355604051939290916001600160a01b0316907f8be0079c531659141344cd1fd0a4f28419497f9722a3daafe3b4186f6b6457e09080a3600380546001600160a01b031916331790556001600581905560006007556008819055600b5480821c9116801561025e575b60208210146101a057601f8111610214575b506000600b55600c54600181811c9116801561020a575b60208210146101a057601f81116101c0575b506000600c55600d54600181811c911680156101b6575b60208210146101a057601f8111610156575b506000600d55600680546001600160a01b031916919091179055611beb90816102848239f35b600d600052601f0160051c7fd7b6990105719101dabeb77144f2a3385c8033acd3af97e9423a695e81ad1eb5908101905b8181106101945750610130565b60008155600101610187565b634e487b7160e01b600052602260045260246000fd5b90607f169061011e565b600c600052601f0160051c7fdf6966c971051c3d54ec59162606531493a51404a002842f56009d7e5cf4a8c7908101905b8181106101fe5750610107565b600081556001016101f1565b90607f16906100f5565b600b600052601f0160051c7f0175b7a638427703f0dbe7bb9bbf987a2551717b34e79f33b5b1008d1fa01db9908101905b81811061025257506100de565b60008155600101610245565b90607f16906100cc565b600080fd5b634e487b7160e01b600052604160045260246000fdfe608080604052600436101561001357600080fd5b600090813560e01c90816301ffc9a71461122f575080630ae5e739146111bf578063161f5a101461111d57806318160ddd146110ff57806324d7806c146110a057806326d58ad314610f245780632d34567014610eb357806331ae450b14610d9657806337d5ad2b14610d7a5780633f51601814610d095780636a62784214610be15780636d73e66914610b6b578063715018a614610b11578063853828b6146109ba57806385e685311461094d5780638da5cb5b146109265780638f32d59b146108fb57806390c3f38f1461077f57806395a078e814610740578063aad61bb614610682578063c038fe041461061b578063c47f00271461048b578063c929ccf3146103f0578063cde4efa914610266578063d5abeb0114610248578063e9dc6375146102125763f2fde38b1461014a57600080fd5b3461020f57602036600319011261020f576101636112e8565b61016b6117ed565b6001600160a01b031680156101bb5781546001600160a01b03198116821783556001600160a01b03167f8be0079c531659141344cd1fd0a4f28419497f9722a3daafe3b4186f6b6457e08380a380f35b60405162461bcd60e51b815260206004820152602660248201527f4f776e61626c653a206e6577206f776e657220697320746865207a65726f206160448201526564647265737360d01b6064820152608490fd5b80fd5b503461020f57604036600319011261020f5761022c6112e8565b5061024461023861149e565b604051918291826113e3565b0390f35b503461020f578060031936011261020f576020600854604051908152f35b503461020f578060031936011261020f576009546003546001600160a01b0316331480156103da575b801561033c575b15610306576006548291906001600160a01b0316803b1561030257604051631642e2fd60e31b8152306004820152602481019290925282908290604490829084905af180156102f7576102e65750f35b816102f091611303565b61020f5780f35b6040513d84823e3d90fd5b5050fd5b60405162461bcd60e51b815260206004820152600e60248201526d139bdd08105d5d1a1bdc9a5e995960921b6044820152606490fd5b50600a546040516331a9108f60e11b81526004810183905290602090829060249082906001600160a01b03165afa9081156103cf578391610389575b506001600160a01b03163314610296565b90506020813d6020116103c7575b816103a460209383611303565b810103126103c357516001600160a01b03811681036103c35738610378565b8280fd5b3d9150610397565b6040513d85823e3d90fd5b50338252600460205260ff60408320541661028f565b503461020f57602036600319011261020f578060043560018060a01b036003541633148015610475575b6104239061140f565b60098190556006546001600160a01b031690813b1561030257829160648392604051948593849263e8a50d1360e01b84523060048501526024840152600160448401525af180156102f7576102e65750f35b503382526004602052604082205460ff1661041a565b503461020f5761049a36611357565b9060018060a01b036003541633148015610605575b6104b89061140f565b815167ffffffffffffffff81116105f1576104d4600d5461144c565b601f8111610586575b50602092601f821160011461051a5792829382939261050f575b50508160011b916000199060031b1c191617600d5580f35b0151905038806104f7565b600d8352601f19821693600080516020611b7683398151915291845b86811061056e5750836001959610610555575b505050811b01600d5580f35b015160001960f88460031b161c19169055388080610549565b91926020600181928685015181550194019201610536565b600d8352601f820160051c600080516020611b768339815191520190602083106105db575b601f0160051c600080516020611b7683398151915201905b8181106105d057506104dd565b8381556001016105c3565b600080516020611b7683398151915291506105ab565b634e487b7160e01b82526041600452602482fd5b503381526004602052604081205460ff166104af565b503461020f5761024461063561063036611357565b611845565b610238603660405180937519185d184e9d195e1d0bda1d1b5b0ed8985cd94d8d0b60521b602083015261067181518092602086860191016113c0565b81010301601f198101835282611303565b503461020f57602036600319011261020f578061069d6112e8565b6003546001600160a01b03163314801561072a575b6106bb9061140f565b600680546001600160a01b0319166001600160a01b03929092169182179055803b1561072757818091602460405180958193630ae5e73960e01b83523060048401525af1801561071a5761070c5780f35b61071591611303565b388180f35b50604051903d90823e3d90fd5b50fd5b503382526004602052604082205460ff166106b2565b503461020f57602036600319011261020f5760209060ff906040906001600160a01b0361076b6112e8565b168152600484522054166040519015158152f35b503461020f5761078e36611357565b9060018060a01b0360035416331480156108e5575b6107ac9061140f565b815167ffffffffffffffff81116105f1576107c8600c5461144c565b601f811161087a575b50602092601f821160011461080e57928293829392610803575b50508160011b916000199060031b1c191617600c5580f35b0151905038806107eb565b600c8352601f19821693600080516020611b5683398151915291845b8681106108625750836001959610610849575b505050811b01600c5580f35b015160001960f88460031b161c1916905538808061083d565b9192602060018192868501518155019401920161082a565b600c8352601f820160051c600080516020611b568339815191520190602083106108cf575b601f0160051c600080516020611b5683398151915201905b8181106108c457506107d1565b8381556001016108b7565b600080516020611b56833981519152915061089f565b503381526004602052604081205460ff166107a3565b503461020f578060031936011261020f5750602060018060a01b036003541633146040519015158152f35b503461020f578060031936011261020f57546040516001600160a01b039091168152602090f35b503461020f57602036600319011261020f576109676112e8565b6003546001600160a01b0316331480156109a4575b6109859061140f565b6001600160a01b03168152600460205260408120805460ff1916905580f35b503382526004602052604082205460ff1661097c565b503461020f578060031936011261020f576003546001600160a01b031633148015610afb575b6109e99061140f565b600260055414610ab6576002600555478015610a78578180808093335af13d15610a73573d610a178161133b565b90610a256040519283611303565b81528260203d92013e5b15610a3c57600160055580f35b60405162461bcd60e51b815260206004820152600f60248201526e151c985b9cd9995c8819985a5b1959608a1b6044820152606490fd5b610a2f565b60405162461bcd60e51b81526020600482015260166024820152754e6f2062616c616e636520746f20776974686472617760501b6044820152606490fd5b60405162461bcd60e51b815260206004820152601f60248201527f5265656e7472616e637947756172643a207265656e7472616e742063616c6c006044820152606490fd5b503381526004602052604081205460ff166109e0565b503461020f578060031936011261020f57610b2a6117ed565b80546001600160a01b03198116825581906001600160a01b03167f8be0079c531659141344cd1fd0a4f28419497f9722a3daafe3b4186f6b6457e08280a380f35b503461020f57602036600319011261020f57610b856112e8565b610b8d6117ed565b6001600160a01b031660008181526002602052604090205415610bae575080f35b610bdd9033817f7e1a1a08d52e4ba0e21554733d66165fd5151f99460116223d9e3a608eec5cb18580a3611af5565b5080f35b50602036600319011261020f57610bf66112e8565b6003546001600160a01b031633148015610cf3575b610c149061140f565b6007546008541115610cb857600a54604051630525194b60e31b81526001600160a01b03928316600482015291602091839160249183918791165af180156102f757610c85575b506007546000198114610c715760010160075580f35b634e487b7160e01b82526011600452602482fd5b6020813d602011610cb0575b81610c9e60209383611303565b81010312610cac5751610c5b565b5080fd5b3d9150610c91565b60405162461bcd60e51b8152602060048201526013602482015272139bc81b5bdc99481d1bdad95b9cc81b19599d606a1b6044820152606490fd5b503382526004602052604082205460ff16610c0b565b503461020f57602036600319011261020f57610d236112e8565b6003546001600160a01b031633148015610d64575b610d419061140f565b60018060a01b03166bffffffffffffffffffffffff60a01b600a541617600a5580f35b503382526004602052604082205460ff16610d38565b503461020f578060031936011261020f5761024461023861149e565b503461020f578060031936011261020f57600154610db381611486565b610dc06040519182611303565b818152610dcc82611486565b602082019290601f1901368437600154845b828110610e335750505090604051928392602084019060208552518091526040840192915b818110610e11575050500390f35b82516001600160a01b0316845285945060209384019390920191600101610e03565b81811015610e9f57600186527fb10e2d527612073b26eecdfd717e6a320cf44b4afac2b0732d9fcbe2b7fa0cf681015484516001600160a01b0390911690821015610e8b57600582901b850160200152600101610dde565b634e487b7160e01b87526032600452602487fd5b634e487b7160e01b86526032600452602486fd5b503461020f57602036600319011261020f57610ecd6112e8565b610ed56117ed565b6001600160a01b0316600081815260026020526040902054610ef5575080f35b610bdd9033817f7c0c3c84c67c85fcac635147348bfe374c24a1a93d0366d1cfe9d8853cbf89d58580a36118da565b503461020f57610f3336611357565b9060018060a01b03600354163314801561108a575b610f519061140f565b815167ffffffffffffffff81116105f157610f6d600b5461144c565b601f811161101f575b50602092601f8211600114610fb357928293829392610fa8575b50508160011b916000199060031b1c191617600b5580f35b015190503880610f90565b600b8352601f19821693600080516020611b9683398151915291845b8681106110075750836001959610610fee575b505050811b01600b5580f35b015160001960f88460031b161c19169055388080610fe2565b91926020600181928685015181550194019201610fcf565b600b8352601f820160051c600080516020611b96833981519152019060208310611074575b601f0160051c600080516020611b9683398151915201905b8181106110695750610f76565b83815560010161105c565b600080516020611b968339815191529150611044565b503381526004602052604081205460ff16610f48565b503461020f57602036600319011261020f576020906110bd6112e8565b90546001600160a01b03918216911681149081156110e1575b506040519015158152f35b6110f991506000526002602052604060002054151590565b386110d6565b503461020f578060031936011261020f576020600754604051908152f35b503461020f578060031936011261020f57600654600954604051630958c58560e11b8152306004820152602481019190915290602090829060449082906001600160a01b03165afa9081156102f7578291611180575b6020826040519015158152f35b90506020813d6020116111b7575b8161119b60209383611303565b81010312610cac57518015158103610cac576020915038611173565b3d915061118e565b503461020f57602036600319011261020f576111d96112e8565b6003546001600160a01b031633148015611219575b6111f79061140f565b6001600160a01b03168152600460205260408120805460ff1916600117905580f35b503382526004602052604082205460ff166111ee565b905034610cac576020366003190112610cac5760043563ffffffff60e01b81168091036103c3576020925063e9dc637560e01b81149081156112d7575b81156112c6575b8115611281575b5015158152f35b637005caad60e01b81149150811561129b575b503861127a565b632a9f3abf60e11b8114915081156112b5575b5038611294565b6301ffc9a760e01b149050386112ae565b6354c1bcd960e01b81149150611273565b6353efcf4f60e11b8114915061126c565b600435906001600160a01b03821682036112fe57565b600080fd5b90601f8019910116810190811067ffffffffffffffff82111761132557604052565b634e487b7160e01b600052604160045260246000fd5b67ffffffffffffffff811161132557601f01601f191660200190565b60206003198201126112fe5760043567ffffffffffffffff81116112fe57816023820112156112fe5780600401359061138f8261133b565b9261139d6040519485611303565b828452602483830101116112fe5781600092602460209301838601378301015290565b60005b8381106113d35750506000910152565b81810151838201526020016113c3565b6040916020825261140381518092816020860152602086860191016113c0565b601f01601f1916010190565b1561141657565b60405162461bcd60e51b815260206004820152600e60248201526d139bdd08185d5d1a1bdc9a5e995960921b6044820152606490fd5b90600182811c9216801561147c575b602083101461146657565b634e487b7160e01b600052602260045260246000fd5b91607f169161145b565b67ffffffffffffffff81116113255760051b60200190565b600654600954604051630cec158360e21b8152306004820152602481019190915290600090829060449082906001600160a01b03165afa9081156117e157600091611766575b5060405190693d913730b6b2911d101160b11b60208301526000600d5461150a8161144c565b906001811690811561174b5750600114611706575b5072111610113232b9b1b934b83a34b7b7111d101160691b8152600c546000916115488261144c565b91600181169081156116e857506001146116a2575b5050731116101132bc3a32b93730b62fbab936111d101160611b8152600b546000916115888261144c565b916001811690811561167c5750600114611634575b50506002600d846115ee9594610630946c1116101134b6b0b3b2911d101160991b81526115d382518093602087850191016113c0565b0161227d60f01b838201520301601d19810184520182611303565b611631603d60405180937f646174613a6170706c69636174696f6e2f6a736f6e3b6261736536342c000000602083015261067181518092602086860191016113c0565b90565b600b600090815291925090600080516020611b968339815191525b838210611665575050016014016002600d61159d565b60018160209254601485870101520191019061164f565b60ff1916601480840191909152831515909302909101909101915060029050600d61159d565b600c600090815291925090600080516020611b568339815191525b8382106116d157505001601301388061155d565b6001816020925460138587010152019101906116bd565b90506013935060ff929192191683830152801515020101388061155d565b600d6000908152909150600080516020611b768339815191525b8282106117345750508201602a013861151f565b60018160209254602a858901015201910190611720565b9050602a925060ff191682850152801515028301013861151f565b903d8082843e6117768184611303565b820191602081840312610cac5780519067ffffffffffffffff82116103c3570182601f82011215610cac578051916117ad8361133b565b936117bb6040519586611303565b8385526020848401011161020f5750906117db91602080850191016113c0565b386114e4565b6040513d6000823e3d90fd5b6000546001600160a01b0316330361180157565b606460405162461bcd60e51b815260206004820152602060248201527f4f776e61626c653a2063616c6c6572206973206e6f7420746865206f776e65726044820152fd5b60405161163191611857606083611303565b604082527f4142434445464748494a4b4c4d4e4f505152535455565758595a61626364656660208301527f6768696a6b6c6d6e6f707172737475767778797a303132333435363738392b2f60408301526119d8565b80548210156118c45760005260206000200190600090565b634e487b7160e01b600052603260045260246000fd5b60008181526002602052604090205480156119d15760001981018181116119bb576001546000198101919082116119bb5780820361196a575b5050506001548015611954576000190161192e8160016118ac565b8154906000199060031b1b19169055600155600052600260205260006040812055600190565b634e487b7160e01b600052603160045260246000fd5b6119a361197b61198c9360016118ac565b90549060031b1c92839260016118ac565b819391549060031b91821b91600019901b19161790565b90556000526002602052604060002055388080611913565b634e487b7160e01b600052601160045260246000fd5b5050600090565b919091805115611add578051600281018091116119bb5760039004600281901b91906001600160fe1b038116036119bb57611a2b611a158361133b565b92611a236040519485611303565b80845261133b565b6020830190601f1901368237908081518201956020870190815192600083525b888110611a8f5750506003939495965052510680600114611a7c57600214611a71575090565b603d90600019015390565b50603d9081600019820153600119015390565b600360049199969901986001603f8b5182828260121c16870101518453828282600c1c16870101518385015382828260061c1687010151600285015316840101516003820153019497611a4b565b509050604051611aee602082611303565b6000815290565b80600052600260205260406000205415600014611b4f576001546801000000000000000081101561132557611b3661198c82600185940160015560016118ac565b9055600154906000526002602052604060002055600190565b5060009056fedf6966c971051c3d54ec59162606531493a51404a002842f56009d7e5cf4a8c7d7b6990105719101dabeb77144f2a3385c8033acd3af97e9423a695e81ad1eb50175b7a638427703f0dbe7bb9bbf987a2551717b34e79f33b5b1008d1fa01db9a2646970667358221220a45ca01c2e7bb09292eae0920709ebd1cb8f028d4a6c922c06fc1216a82e797164736f6c634300081c0033","linkReferences":{}},"methodIdentifiers":{"animToURI(string)":"c038fe04","approveAdmin(address)":"6d73e669","flip()":"cde4efa9","formatTokenURI()":"37d5ad2b","getAdmins()":"31ae450b","grantAccess(address)":"0ae5e739","hasAccess(address)":"95a078e8","isAdmin(address)":"24d7806c","isFlipped()":"161f5a10","isOwner()":"8f32d59b","maxSupply()":"d5abeb01","mint(address)":"6a627842","owner()":"8da5cb5b","renounceOwnership()":"715018a6","revokeAccess(address)":"85e68531","revokeAdmin(address)":"2d345670","setCreator(address)":"3f516018","setDescription(string)":"90c3f38f","setExternalUrl(string)":"26d58ad3","setFlipEngine(address)":"aad61bb6","setName(string)":"c47f0027","setTokenId(uint256)":"c929ccf3","supportsInterface(bytes4)":"01ffc9a7","tokenURI(address,uint256)":"e9dc6375","totalSupply()":"18160ddd","transferOwnership(address)":"f2fde38b","withdrawAll()":"853828b6"},"id":35}