{"abi":[{"type":"constructor","inputs":[{"name":"creator","type":"address","internalType":"address"},{"name":"name","type":"string","internalType":"string"},{"name":"description","type":"string","internalType":"string"},{"name":"flipEngineAddr","type":"address","internalType":"address"}],"stateMutability":"nonpayable"},{"type":"function","name":"animToURI","inputs":[{"name":"anim","type":"string","internalType":"string"}],"outputs":[{"name":"","type":"string","internalType":"string"}],"stateMutability":"pure"},{"type":"function","name":"approveAdmin","inputs":[{"name":"admin","type":"address","internalType":"address"}],"outputs":[],"stateMutability":"nonpayable"},{"type":"function","name":"flip","inputs":[],"outputs":[],"stateMutability":"nonpayable"},{"type":"function","name":"formatTokenURI","inputs":[],"outputs":[{"name":"","type":"string","internalType":"string"}],"stateMutability":"view"},{"type":"function","name":"getAdmins","inputs":[],"outputs":[{"name":"admins","type":"address[]","internalType":"address[]"}],"stateMutability":"view"},{"type":"function","name":"grantAccess","inputs":[{"name":"addr","type":"address","internalType":"address"}],"outputs":[],"stateMutability":"nonpayable"},{"type":"function","name":"hasAccess","inputs":[{"name":"account","type":"address","internalType":"address"}],"outputs":[{"name":"","type":"bool","internalType":"bool"}],"stateMutability":"view"},{"type":"function","name":"isAdmin","inputs":[{"name":"admin","type":"address","internalType":"address"}],"outputs":[{"name":"","type":"bool","internalType":"bool"}],"stateMutability":"view"},{"type":"function","name":"isFlipped","inputs":[],"outputs":[{"name":"","type":"bool","internalType":"bool"}],"stateMutability":"view"},{"type":"function","name":"isOwner","inputs":[],"outputs":[{"name":"","type":"bool","internalType":"bool"}],"stateMutability":"view"},{"type":"function","name":"maxSupply","inputs":[],"outputs":[{"name":"","type":"uint256","internalType":"uint256"}],"stateMutability":"view"},{"type":"function","name":"mint","inputs":[{"name":"recipient","type":"address","internalType":"address"}],"outputs":[],"stateMutability":"payable"},{"type":"function","name":"owner","inputs":[],"outputs":[{"name":"","type":"address","internalType":"address"}],"stateMutability":"view"},{"type":"function","name":"renounceOwnership","inputs":[],"outputs":[],"stateMutability":"nonpayable"},{"type":"function","name":"revokeAccess","inputs":[{"name":"addr","type":"address","internalType":"address"}],"outputs":[],"stateMutability":"nonpayable"},{"type":"function","name":"revokeAdmin","inputs":[{"name":"admin","type":"address","internalType":"address"}],"outputs":[],"stateMutability":"nonpayable"},{"type":"function","name":"setDescription","inputs":[{"name":"des","type":"string","internalType":"string"}],"outputs":[],"stateMutability":"nonpayable"},{"type":"function","name":"setExternalUrl","inputs":[{"name":"externalUrl","type":"string","internalType":"string"}],"outputs":[],"stateMutability":"nonpayable"},{"type":"function","name":"setFlipEngine","inputs":[{"name":"flipEngineAddr","type":"address","internalType":"address"}],"outputs":[],"stateMutability":"nonpayable"},{"type":"function","name":"setName","inputs":[{"name":"name","type":"string","internalType":"string"}],"outputs":[],"stateMutability":"nonpayable"},{"type":"function","name":"setTokenId","inputs":[{"name":"tokenId","type":"uint256","internalType":"uint256"}],"outputs":[],"stateMutability":"nonpayable"},{"type":"function","name":"supportsInterface","inputs":[{"name":"interfaceId","type":"bytes4","internalType":"bytes4"}],"outputs":[{"name":"","type":"bool","internalType":"bool"}],"stateMutability":"view"},{"type":"function","name":"tokenURI","inputs":[{"name":"creator","type":"address","internalType":"address"},{"name":"tokenId","type":"uint256","internalType":"uint256"}],"outputs":[{"name":"","type":"string","internalType":"string"}],"stateMutability":"view"},{"type":"function","name":"totalSupply","inputs":[],"outputs":[{"name":"","type":"uint256","internalType":"uint256"}],"stateMutability":"view"},{"type":"function","name":"transferOwnership","inputs":[{"name":"newOwner","type":"address","internalType":"address"}],"outputs":[],"stateMutability":"nonpayable"},{"type":"function","name":"withdrawAll","inputs":[],"outputs":[],"stateMutability":"nonpayable"},{"type":"event","name":"AdminApproved","inputs":[{"name":"account","type":"address","indexed":true,"internalType":"address"},{"name":"sender","type":"address","indexed":true,"internalType":"address"}],"anonymous":false},{"type":"event","name":"AdminRevoked","inputs":[{"name":"account","type":"address","indexed":true,"internalType":"address"},{"name":"sender","type":"address","indexed":true,"internalType":"address"}],"anonymous":false},{"type":"event","name":"OwnershipTransferred","inputs":[{"name":"previousOwner","type":"address","indexed":true,"internalType":"address"},{"name":"newOwner","type":"address","indexed":true,"internalType":"address"}],"anonymous":false}],"bytecode":{"object":"0x60806040523461043357600061209d8038038061001b81610438565b928339810191608082840312610430576100348261045d565b60208301516001600160401b03811161042e5784610053918501610471565b60408401519094906001600160401b03811161042a5761007a610081926060928701610471565b940161045d565b8254336001600160a01b0319821681178555919391906001600160a01b03167f8be0079c531659141344cd1fd0a4f28419497f9722a3daafe3b4186f6b6457e08380a3600380546001600160a01b03191633179055600160058190556007829055600855600b546100f1906104dc565b601f81116103ec575b5080600b5561010a600c546104dc565b601f81116103ae575b5080600c55610123600d546104dc565b601f8111610370575b50600d8190558451906001600160401b03821161035c5750602094601f82116001146102f5579481929394956000926102ea575b50508160011b916000199060031b1c191617600d555b82516001600160401b0381116102d457610191600c546104dc565b601f811161027a575b506020601f82116001146102135781929394600092610208575b50508160011b916000199060031b1c191617600c555b600a80546001600160a01b039283166001600160a01b03199182161790915560068054939092169216919091179055604051611b6f908161052e8239f35b0151905038806101b4565b601f19821690600c600052806000209160005b81811061026257509583600195969710610249575b505050811b01600c556101ca565b015160001960f88460031b161c1916905538808061023b565b9192602060018192868b015181550194019201610226565b600c6000526102c4907fdf6966c971051c3d54ec59162606531493a51404a002842f56009d7e5cf4a8c7601f840160051c810191602085106102ca575b601f0160051c0190610516565b3861019a565b90915081906102b7565b634e487b7160e01b600052604160045260246000fd5b015190503880610160565b601f19821695600d600052806000209160005b8881106103445750836001959697981061032b575b505050811b01600d55610176565b015160001960f88460031b161c1916905538808061031d565b91926020600181928685015181550194019201610308565b634e487b7160e01b81526041600452602490fd5b600d82526103a890601f0160051c7fd7b6990105719101dabeb77144f2a3385c8033acd3af97e9423a695e81ad1eb590810190610516565b3861012c565b600c82526103e690601f0160051c7fdf6966c971051c3d54ec59162606531493a51404a002842f56009d7e5cf4a8c790810190610516565b38610113565b600b825261042490601f0160051c7f0175b7a638427703f0dbe7bb9bbf987a2551717b34e79f33b5b1008d1fa01db990810190610516565b386100fa565b8380fd5b825b80fd5b600080fd5b6040519190601f01601f191682016001600160401b038111838210176102d457604052565b51906001600160a01b038216820361043357565b81601f82011215610433578051906001600160401b0382116102d4576104a0601f8301601f1916602001610438565b92828452602083830101116104335760005b8281106104c757505060206000918301015290565b806020809284010151828287010152016104b2565b90600182811c9216801561050c575b60208310146104f657565b634e487b7160e01b600052602260045260246000fd5b91607f16916104eb565b818110610521575050565b6000815560010161051656fe608080604052600436101561001357600080fd5b600090813560e01c90816301ffc9a7146111b3575080630ae5e73914611143578063161f5a10146110a157806318160ddd1461108357806324d7806c1461102457806326d58ad314610ea85780632d34567014610e3757806331ae450b14610d1a57806337d5ad2b14610cfe5780636a62784214610bd65780636d73e66914610b60578063715018a614610b06578063853828b6146109af57806385e68531146109425780638da5cb5b1461091b5780638f32d59b146108f057806390c3f38f1461077457806395a078e814610735578063aad61bb614610677578063c038fe0414610610578063c47f002714610480578063c929ccf3146103e5578063cde4efa91461025b578063d5abeb011461023d578063e9dc6375146102075763f2fde38b1461013f57600080fd5b346102045760203660031901126102045761015861126c565b610160611771565b6001600160a01b031680156101b05781546001600160a01b03198116821783556001600160a01b03167f8be0079c531659141344cd1fd0a4f28419497f9722a3daafe3b4186f6b6457e08380a380f35b60405162461bcd60e51b815260206004820152602660248201527f4f776e61626c653a206e6577206f776e657220697320746865207a65726f206160448201526564647265737360d01b6064820152608490fd5b80fd5b50346102045760403660031901126102045761022161126c565b5061023961022d611422565b60405191829182611367565b0390f35b50346102045780600319360112610204576020600854604051908152f35b50346102045780600319360112610204576009546003546001600160a01b0316331480156103cf575b8015610331575b156102fb576006548291906001600160a01b0316803b156102f757604051631642e2fd60e31b8152306004820152602481019290925282908290604490829084905af180156102ec576102db5750f35b816102e591611287565b6102045780f35b6040513d84823e3d90fd5b5050fd5b60405162461bcd60e51b815260206004820152600e60248201526d139bdd08105d5d1a1bdc9a5e995960921b6044820152606490fd5b50600a546040516331a9108f60e11b81526004810183905290602090829060249082906001600160a01b03165afa9081156103c457839161037e575b506001600160a01b0316331461028b565b90506020813d6020116103bc575b8161039960209383611287565b810103126103b857516001600160a01b03811681036103b8573861036d565b8280fd5b3d915061038c565b6040513d85823e3d90fd5b50338252600460205260ff604083205416610284565b5034610204576020366003190112610204578060043560018060a01b03600354163314801561046a575b61041890611393565b60098190556006546001600160a01b031690813b156102f757829160648392604051948593849263e8a50d1360e01b84523060048501526024840152600160448401525af180156102ec576102db5750f35b503382526004602052604082205460ff1661040f565b50346102045761048f366112db565b9060018060a01b0360035416331480156105fa575b6104ad90611393565b815167ffffffffffffffff81116105e6576104c9600d546113d0565b601f811161057b575b50602092601f821160011461050f57928293829392610504575b50508160011b916000199060031b1c191617600d5580f35b0151905038806104ec565b600d8352601f19821693600080516020611afa83398151915291845b868110610563575083600195961061054a575b505050811b01600d5580f35b015160001960f88460031b161c1916905538808061053e565b9192602060018192868501518155019401920161052b565b600d8352601f820160051c600080516020611afa8339815191520190602083106105d0575b601f0160051c600080516020611afa83398151915201905b8181106105c557506104d2565b8381556001016105b8565b600080516020611afa83398151915291506105a0565b634e487b7160e01b82526041600452602482fd5b503381526004602052604081205460ff166104a4565b50346102045761023961062a610625366112db565b6117c9565b61022d603660405180937519185d184e9d195e1d0bda1d1b5b0ed8985cd94d8d0b60521b60208301526106668151809260208686019101611344565b81010301601f198101835282611287565b5034610204576020366003190112610204578061069261126c565b6003546001600160a01b03163314801561071f575b6106b090611393565b600680546001600160a01b0319166001600160a01b03929092169182179055803b1561071c57818091602460405180958193630ae5e73960e01b83523060048401525af1801561070f576107015780f35b61070a91611287565b388180f35b50604051903d90823e3d90fd5b50fd5b503382526004602052604082205460ff166106a7565b50346102045760203660031901126102045760209060ff906040906001600160a01b0361076061126c565b168152600484522054166040519015158152f35b503461020457610783366112db565b9060018060a01b0360035416331480156108da575b6107a190611393565b815167ffffffffffffffff81116105e6576107bd600c546113d0565b601f811161086f575b50602092601f8211600114610803579282938293926107f8575b50508160011b916000199060031b1c191617600c5580f35b0151905038806107e0565b600c8352601f19821693600080516020611ada83398151915291845b868110610857575083600195961061083e575b505050811b01600c5580f35b015160001960f88460031b161c19169055388080610832565b9192602060018192868501518155019401920161081f565b600c8352601f820160051c600080516020611ada8339815191520190602083106108c4575b601f0160051c600080516020611ada83398151915201905b8181106108b957506107c6565b8381556001016108ac565b600080516020611ada8339815191529150610894565b503381526004602052604081205460ff16610798565b503461020457806003193601126102045750602060018060a01b036003541633146040519015158152f35b5034610204578060031936011261020457546040516001600160a01b039091168152602090f35b50346102045760203660031901126102045761095c61126c565b6003546001600160a01b031633148015610999575b61097a90611393565b6001600160a01b03168152600460205260408120805460ff1916905580f35b503382526004602052604082205460ff16610971565b50346102045780600319360112610204576003546001600160a01b031633148015610af0575b6109de90611393565b600260055414610aab576002600555478015610a6d578180808093335af13d15610a68573d610a0c816112bf565b90610a1a6040519283611287565b81528260203d92013e5b15610a3157600160055580f35b60405162461bcd60e51b815260206004820152600f60248201526e151c985b9cd9995c8819985a5b1959608a1b6044820152606490fd5b610a24565b60405162461bcd60e51b81526020600482015260166024820152754e6f2062616c616e636520746f20776974686472617760501b6044820152606490fd5b60405162461bcd60e51b815260206004820152601f60248201527f5265656e7472616e637947756172643a207265656e7472616e742063616c6c006044820152606490fd5b503381526004602052604081205460ff166109d5565b5034610204578060031936011261020457610b1f611771565b80546001600160a01b03198116825581906001600160a01b03167f8be0079c531659141344cd1fd0a4f28419497f9722a3daafe3b4186f6b6457e08280a380f35b503461020457602036600319011261020457610b7a61126c565b610b82611771565b6001600160a01b031660008181526002602052604090205415610ba3575080f35b610bd29033817f7e1a1a08d52e4ba0e21554733d66165fd5151f99460116223d9e3a608eec5cb18580a3611a79565b5080f35b50602036600319011261020457610beb61126c565b6003546001600160a01b031633148015610ce8575b610c0990611393565b6007546008541115610cad57600a54604051630525194b60e31b81526001600160a01b03928316600482015291602091839160249183918791165af180156102ec57610c7a575b506007546000198114610c665760010160075580f35b634e487b7160e01b82526011600452602482fd5b6020813d602011610ca5575b81610c9360209383611287565b81010312610ca15751610c50565b5080fd5b3d9150610c86565b60405162461bcd60e51b8152602060048201526013602482015272139bc81b5bdc99481d1bdad95b9cc81b19599d606a1b6044820152606490fd5b503382526004602052604082205460ff16610c00565b503461020457806003193601126102045761023961022d611422565b5034610204578060031936011261020457600154610d378161140a565b610d446040519182611287565b818152610d508261140a565b602082019290601f1901368437600154845b828110610db75750505090604051928392602084019060208552518091526040840192915b818110610d95575050500390f35b82516001600160a01b0316845285945060209384019390920191600101610d87565b81811015610e2357600186527fb10e2d527612073b26eecdfd717e6a320cf44b4afac2b0732d9fcbe2b7fa0cf681015484516001600160a01b0390911690821015610e0f57600582901b850160200152600101610d62565b634e487b7160e01b87526032600452602487fd5b634e487b7160e01b86526032600452602486fd5b503461020457602036600319011261020457610e5161126c565b610e59611771565b6001600160a01b0316600081815260026020526040902054610e79575080f35b610bd29033817f7c0c3c84c67c85fcac635147348bfe374c24a1a93d0366d1cfe9d8853cbf89d58580a361185e565b503461020457610eb7366112db565b9060018060a01b03600354163314801561100e575b610ed590611393565b815167ffffffffffffffff81116105e657610ef1600b546113d0565b601f8111610fa3575b50602092601f8211600114610f3757928293829392610f2c575b50508160011b916000199060031b1c191617600b5580f35b015190503880610f14565b600b8352601f19821693600080516020611b1a83398151915291845b868110610f8b5750836001959610610f72575b505050811b01600b5580f35b015160001960f88460031b161c19169055388080610f66565b91926020600181928685015181550194019201610f53565b600b8352601f820160051c600080516020611b1a833981519152019060208310610ff8575b601f0160051c600080516020611b1a83398151915201905b818110610fed5750610efa565b838155600101610fe0565b600080516020611b1a8339815191529150610fc8565b503381526004602052604081205460ff16610ecc565b50346102045760203660031901126102045760209061104161126c565b90546001600160a01b0391821691168114908115611065575b506040519015158152f35b61107d91506000526002602052604060002054151590565b3861105a565b50346102045780600319360112610204576020600754604051908152f35b5034610204578060031936011261020457600654600954604051630958c58560e11b8152306004820152602481019190915290602090829060449082906001600160a01b03165afa9081156102ec578291611104575b6020826040519015158152f35b90506020813d60201161113b575b8161111f60209383611287565b81010312610ca157518015158103610ca15760209150386110f7565b3d9150611112565b50346102045760203660031901126102045761115d61126c565b6003546001600160a01b03163314801561119d575b61117b90611393565b6001600160a01b03168152600460205260408120805460ff1916600117905580f35b503382526004602052604082205460ff16611172565b905034610ca1576020366003190112610ca15760043563ffffffff60e01b81168091036103b8576020925063e9dc637560e01b811490811561125b575b811561124a575b8115611205575b5015158152f35b637005caad60e01b81149150811561121f575b50386111fe565b632a9f3abf60e11b811491508115611239575b5038611218565b6301ffc9a760e01b14905038611232565b6354c1bcd960e01b811491506111f7565b6353efcf4f60e11b811491506111f0565b600435906001600160a01b038216820361128257565b600080fd5b90601f8019910116810190811067ffffffffffffffff8211176112a957604052565b634e487b7160e01b600052604160045260246000fd5b67ffffffffffffffff81116112a957601f01601f191660200190565b60206003198201126112825760043567ffffffffffffffff8111611282578160238201121561128257806004013590611313826112bf565b926113216040519485611287565b828452602483830101116112825781600092602460209301838601378301015290565b60005b8381106113575750506000910152565b8181015183820152602001611347565b604091602082526113878151809281602086015260208686019101611344565b601f01601f1916010190565b1561139a57565b60405162461bcd60e51b815260206004820152600e60248201526d139bdd08185d5d1a1bdc9a5e995960921b6044820152606490fd5b90600182811c92168015611400575b60208310146113ea57565b634e487b7160e01b600052602260045260246000fd5b91607f16916113df565b67ffffffffffffffff81116112a95760051b60200190565b600654600954604051630cec158360e21b8152306004820152602481019190915290600090829060449082906001600160a01b03165afa908115611765576000916116ea575b5060405190693d913730b6b2911d101160b11b60208301526000600d5461148e816113d0565b90600181169081156116cf575060011461168a575b5072111610113232b9b1b934b83a34b7b7111d101160691b8152600c546000916114cc826113d0565b916001811690811561166c5750600114611626575b5050731116101132bc3a32b93730b62fbab936111d101160611b8152600b5460009161150c826113d0565b916001811690811561160057506001146115b8575b50506002600d846115729594610625946c1116101134b6b0b3b2911d101160991b81526115578251809360208785019101611344565b0161227d60f01b838201520301601d19810184520182611287565b6115b5603d60405180937f646174613a6170706c69636174696f6e2f6a736f6e3b6261736536342c00000060208301526106668151809260208686019101611344565b90565b600b600090815291925090600080516020611b1a8339815191525b8382106115e9575050016014016002600d611521565b6001816020925460148587010152019101906115d3565b60ff1916601480840191909152831515909302909101909101915060029050600d611521565b600c600090815291925090600080516020611ada8339815191525b8382106116555750500160130138806114e1565b600181602092546013858701015201910190611641565b90506013935060ff92919219168383015280151502010138806114e1565b600d6000908152909150600080516020611afa8339815191525b8282106116b85750508201602a01386114a3565b60018160209254602a8589010152019101906116a4565b9050602a925060ff19168285015280151502830101386114a3565b903d8082843e6116fa8184611287565b820191602081840312610ca15780519067ffffffffffffffff82116103b8570182601f82011215610ca157805191611731836112bf565b9361173f6040519586611287565b8385526020848401011161020457509061175f9160208085019101611344565b38611468565b6040513d6000823e3d90fd5b6000546001600160a01b0316330361178557565b606460405162461bcd60e51b815260206004820152602060248201527f4f776e61626c653a2063616c6c6572206973206e6f7420746865206f776e65726044820152fd5b6040516115b5916117db606083611287565b604082527f4142434445464748494a4b4c4d4e4f505152535455565758595a61626364656660208301527f6768696a6b6c6d6e6f707172737475767778797a303132333435363738392b2f604083015261195c565b80548210156118485760005260206000200190600090565b634e487b7160e01b600052603260045260246000fd5b600081815260026020526040902054801561195557600019810181811161193f5760015460001981019190821161193f578082036118ee575b50505060015480156118d857600019016118b2816001611830565b8154906000199060031b1b19169055600155600052600260205260006040812055600190565b634e487b7160e01b600052603160045260246000fd5b6119276118ff611910936001611830565b90549060031b1c9283926001611830565b819391549060031b91821b91600019901b19161790565b90556000526002602052604060002055388080611897565b634e487b7160e01b600052601160045260246000fd5b5050600090565b919091805115611a615780516002810180911161193f5760039004600281901b91906001600160fe1b0381160361193f576119af611999836112bf565b926119a76040519485611287565b8084526112bf565b6020830190601f1901368237908081518201956020870190815192600083525b888110611a135750506003939495965052510680600114611a00576002146119f5575090565b603d90600019015390565b50603d9081600019820153600119015390565b600360049199969901986001603f8b5182828260121c16870101518453828282600c1c16870101518385015382828260061c16870101516002850153168401015160038201530194976119cf565b509050604051611a72602082611287565b6000815290565b80600052600260205260406000205415600014611ad357600154680100000000000000008110156112a957611aba6119108260018594016001556001611830565b9055600154906000526002602052604060002055600190565b5060009056fedf6966c971051c3d54ec59162606531493a51404a002842f56009d7e5cf4a8c7d7b6990105719101dabeb77144f2a3385c8033acd3af97e9423a695e81ad1eb50175b7a638427703f0dbe7bb9bbf987a2551717b34e79f33b5b1008d1fa01db9a26469706673582212203d9d0a3b75c6ac5e5e68bb16bc8e2f6591083948587f966b22a49429bf27afb064736f6c634300081c0033","linkReferences":{}},"methodIdentifiers":{"animToURI(string)":"c038fe04","approveAdmin(address)":"6d73e669","flip()":"cde4efa9","formatTokenURI()":"37d5ad2b","getAdmins()":"31ae450b","grantAccess(address)":"0ae5e739","hasAccess(address)":"95a078e8","isAdmin(address)":"24d7806c","isFlipped()":"161f5a10","isOwner()":"8f32d59b","maxSupply()":"d5abeb01","mint(address)":"6a627842","owner()":"8da5cb5b","renounceOwnership()":"715018a6","revokeAccess(address)":"85e68531","revokeAdmin(address)":"2d345670","setDescription(string)":"90c3f38f","setExternalUrl(string)":"26d58ad3","setFlipEngine(address)":"aad61bb6","setName(string)":"c47f0027","setTokenId(uint256)":"c929ccf3","supportsInterface(bytes4)":"01ffc9a7","tokenURI(address,uint256)":"e9dc6375","totalSupply()":"18160ddd","transferOwnership(address)":"f2fde38b","withdrawAll()":"853828b6"},"id":20}