{"abi":[{"type":"constructor","inputs":[{"name":"randomGeneratorAddr","type":"address","internalType":"address"},{"name":"colorEngineAddr","type":"address","internalType":"address"},{"name":"textureEngineAddr","type":"address","internalType":"address"}],"stateMutability":"nonpayable"},{"type":"function","name":"colorEngine","inputs":[],"outputs":[{"name":"","type":"address","internalType":"contract ColorEngine"}],"stateMutability":"view"},{"type":"function","name":"getAnim","inputs":[{"name":"tokenId","type":"uint256","internalType":"uint256"},{"name":"hash","type":"bytes32","internalType":"bytes32"},{"name":"width","type":"uint256","internalType":"uint256"},{"name":"height","type":"uint256","internalType":"uint256"}],"outputs":[{"name":"","type":"string","internalType":"string"},{"name":"","type":"string","internalType":"string"}],"stateMutability":"view"},{"type":"function","name":"grantAccess","inputs":[{"name":"addr","type":"address","internalType":"address"}],"outputs":[],"stateMutability":"nonpayable"},{"type":"function","name":"hasAccess","inputs":[{"name":"account","type":"address","internalType":"address"}],"outputs":[{"name":"","type":"bool","internalType":"bool"}],"stateMutability":"view"},{"type":"function","name":"isOwner","inputs":[],"outputs":[{"name":"","type":"bool","internalType":"bool"}],"stateMutability":"view"},{"type":"function","name":"randomGenerator","inputs":[],"outputs":[{"name":"","type":"address","internalType":"contract RandomGenerator"}],"stateMutability":"view"},{"type":"function","name":"revokeAccess","inputs":[{"name":"addr","type":"address","internalType":"address"}],"outputs":[],"stateMutability":"nonpayable"},{"type":"function","name":"setColorEngine","inputs":[{"name":"addr","type":"address","internalType":"address"}],"outputs":[],"stateMutability":"nonpayable"},{"type":"function","name":"setRandomGenerator","inputs":[{"name":"addr","type":"address","internalType":"address"}],"outputs":[],"stateMutability":"nonpayable"},{"type":"function","name":"setTextureEngine","inputs":[{"name":"addr","type":"address","internalType":"address"}],"outputs":[],"stateMutability":"nonpayable"},{"type":"function","name":"textureEngine","inputs":[],"outputs":[{"name":"","type":"address","internalType":"contract TextureEngine"}],"stateMutability":"view"}],"bytecode":{"object":"0x60803460ae57601f6164ca38819003918201601f19168301916001600160401b0383118484101760b35780849260609460405283398101031260ae5760428160c9565b906057604060516020840160c9565b920160c9565b600080546001600160a01b031990811633179091556003805482166001600160a01b03958616179055600280548216938516939093179092556004805490921692169190911790556040516163ed90816100dd8239f35b600080fd5b634e487b7160e01b600052604160045260246000fd5b51906001600160a01b038216820360ae5756fe610b20604052600436101561001357600080fd5b60003560e01c80630ae5e739146150695780632da0f9bc146150405780633b7d2f491461030a5780634bc19fee1461029557806385e68531146102425780638f32d59b1461021a57806395a078e8146101d75780639d20b355146101ae578063b1bcbc8d14610139578063c687bb24146100c45763dcbad90d1461009657600080fd5b346100bf5760003660031901126100bf576003546040516001600160a01b039091168152602090f35b600080fd5b346100bf5760203660031901126100bf576004356001600160a01b038116908190036100bf576000546001600160a01b031633148015610120575b610108906155a5565b6001600160601b0360a01b6004541617600455600080f35b503360009081526001602052604090205460ff166100ff565b346100bf5760203660031901126100bf576004356001600160a01b038116908190036100bf576000546001600160a01b031633148015610195575b61017d906155a5565b6001600160601b0360a01b6002541617600255600080f35b503360009081526001602052604090205460ff16610174565b346100bf5760003660031901126100bf576002546040516001600160a01b039091168152602090f35b346100bf5760203660031901126100bf576004356001600160a01b038116908190036100bf576000526001602052602060ff604060002054166040519015158152f35b346100bf5760003660031901126100bf57602060018060a01b03600054163314604051908152f35b346100bf5760203660031901126100bf576004356001600160a01b038116908190036100bf5761027d60018060a01b03600054163314615109565b6000908152600160205260409020805460ff19169055005b346100bf5760203660031901126100bf576004356001600160a01b038116908190036100bf576000546001600160a01b0316331480156102f1575b6102d9906155a5565b6001600160601b0360a01b6003541617600355600080f35b503360009081526001602052604090205460ff166102d0565b346100bf5760803660031901126100bf576003546001600160a01b0390811661084052600254166109e09081526040516309b52f9960e01b8152600060048201529051602090829060249082905afa90811561460e5760009161500e575b5060405190630e6c328760e31b8252602435600483015260006024830152600060448301526064820152602081608481610840515afa90811561460e57600091614fdc575b5060405190631139eabb60e21b82526004820152600060248201526000816044816109e0515afa801561460e5760006109a052614e94575b506060610a20819052604051906103fc9082615142565b6002815260208101601f19610a2051019182368337600261041c826151ea565b526004610428826151f7565b526040519182916378b6eaf960e11b83526064830190602435600485015260016024850152610a205160448501525180915260848301919060005b818110614e7b57505050908082602093500381610840515afa801561460e5760006108a052614e46575b50600261082052604051610a20516104f292602092916104ad9083615142565b61082051825236838301376000196104c4826151ea565b5260016104d0826151f7565b5260405180938192633bc927bf60e11b8352610820516024356004850161523b565b0381610840515afa90811561460e57600091614e14575b506108205160001914610a9a576001610820510161052682615283565b6107e05260405190630e6c328760e31b825260243560048301528060248301526008604483015260146064830152602082608481610840515afa801561460e576000610ac052614dd6575b61057b91506151db565b600a610ac05101610ac05111610a9a57604051630e6c328760e31b8152610ac051602480356004840152820183905260448201819052600a0160648201529060208280608481010381610840515afa801561460e57600061080052614d98575b6105e591506151db565b60405190631d5c42b160e01b8252602435600483015280602483015260326044830152602082606481610840515afa91821561460e57600092614d73575b5061062d906151db565b6000610a40529015614cd75760405190630e6c328760e31b825260243560048301528060248301526001604483015260056064830152602082608481610840515afa801561460e57600090614ca3575b61068b9250610a40526151db565b604051639583669960e01b81526024356004820152816024820152600a6044820152601d6064820152602081608481610840515afa801561460e576000610a8052614c6d575b506106de61074c916151db565b60806108808190526040516020916106f69082615142565b6003815261088051601f190136838301376103e5610713826151ea565b526103e6610720826151f7565b526103e761072d82615207565b52604051809481926378b6eaf960e11b8352856024356004850161523b565b0381610840515afa801561460e57600061096052614c2f575b61076f91506151db565b60405190630e6c328760e31b82526024356004830152806024830152600060448301526127106064830152602082608481610840515afa801561460e57600061086052614bf1575b6107c191506151db565b60a06109808190526040516109408190526107dc9190615142565b60046109405152601f196109805101366020610940510137602c19610803610940516151ea565b526087610812610940516151f7565b52602c1961082261094051615207565b52600061083161094051615217565b5260405190633bc927bf60e11b82526020828061085861094051856024356004850161523b565b0381610840515afa91821561460e57600092614bbb575b50610879906151db565b610b0052604051610ae052631d5c42b160e01b610ae051526024356004610ae0510152610b00516024610ae051015260146044610ae05101526020610ae0516064610ae051610840515afa610aa052610aa0511561460e576000610a6052610aa051614b81575b6108ec610b00516151db565b906000610a0052610a6051600014614b4f5760405161090c604082615142565b600d81526c3234b9b83630b1b2b6b2b73a1960991b6020820152610a00525b600061068052610a60511561463a57610946610a4051615701565b61094e615737565b9061095761560b565b6109c05261096761086051615701565b61092052610973615737565b6109005261097f6156af565b600161086051016108605111610a9a5761099e60016108605101615701565b6109a66156d8565b604b6108e08190526108c05260006107a052915b6108c05161461a576109ce6107a05161517a565b61078052604051610760526109e96107805161076051615142565b6107a05161076051526109fe6107a05161517a565b601f19013660206107605101375b6107a0516106e0526108e05115610ab0576107a051600019810161074081905211610a9a57610740516107a052600a6108e0510660300180603011610a9a576107605151610740511015610a845760ff60f81b9060f81b1660001a601f6106e05161076051010153600a6108e051046108e052610a0c565b634e487b7160e01b600052603260045260246000fd5b634e487b7160e01b600052601160045260246000fd5b604051948594610ac2602087016152ca565b808251602081940191610ad4926150c1565b01610ade90615324565b808251602081940191610af0926150c1565b016d27206e756d4f6374617665733d2760901b81526109c0515190600e8101826109c05160200191610b21926150c1565b01600e8101672720736565643d2760c01b905261092051519060168101826109205160200191610b50926150c1565b610b5d910160160161536a565b61090051519080826109005160200191610b76926150c1565b016d27206e756d4f6374617665733d2760901b815281519182600e83019160200191610ba1926150c1565b01600e8101672720736565643d2760c01b905281519182601683019160200191610bca926150c1565b01600e01600881017f2720726573756c743d2774757262756c656e636532273e3c2f66655475726275905260288101653632b731b29f60d11b9052602e01610c11906153d8565b808251602081940191610c23926150c1565b01610c2d9061540d565b61076051519080826107605160200191610c46926150c1565b017f2720726573756c743d27646973706c6163656d656e74322720784368616e6e658152602081017f6c53656c6563746f723d27412720794368616e6e656c53656c6563746f723d279052604081017620939f1e17b332a234b9b83630b1b2b6b2b73a26b0b81f60491b9052605781016c3c6665426c656e6420696e3d2760981b9052610a005151610a005160200191816064820190610ce691856150c1565b0160648101662720696e323d2760c81b9052610a0051519182606b8301610d0c926150c1565b610d199101606b016154a1565b03601f1981018252610d2b9082615142565b6106805260146001610d48610d42610e0b94615be6565b95615be6565b946008610d576107e051615be6565b60386040519889947f7472616e736c6174652835302c35302920726f746174652800000000000000006020870152610d98815180926020868a0191016150c1565b85016705240e6c6c2d8ca560c31b83820152610dbe8251809360206040850191016150c1565b0101600160fd1b83820152610ddd8251809360206009850191016150c1565b01017329207472616e736c617465282d35302c2d35302960601b838201520301600b19810185520183615142565b60405190633bc927bf60e11b825260208280610e3161094051856024356004850161523b565b0381610840515afa801561460e576145db575b610e4e91506151db565b6106c052602061072081905260405190610e689082615142565b6000815260008061070052610e7f610ac05161529a565b91610e8c610a805161529a565b93826106a0526203d0906106a0526201869f1991620249f092610800516103e86108005102046103e814610800511517156145c757610800516040610660526103e80296945b6106a0518613156142945760018060a01b0360045416610660515190637250a4cb60e01b825260243560048301526106c0516024830152600082604481845afa91821561172357604492600061062052614276575b506000610f366106c0516151db565b916106605151938480926350b74cb560e01b825260243560048301528560248301525afa91821561172357610f709261425d575b506151db565b610720516109a0510151519081600019810111610a9a57610660515191630e6c328760e31b83526024356004840152816024840152600060448401526000190160648301526107205182608481610840515afa80156117235760006104a05261421c575b610fde91506151db565b610720516109a051015151600019810191908211610a9a576106605151630e6c328760e31b8152610720516104a051602480356004850152830184905260448301526064820193909352918280608481010381610840515afa8015611723576000610440526141db575b61105291506151db565b610660515190639583669960e01b8252602435600483015280602483015260006044830152600560648301526107205182608481610840515afa918215611723576000926141a0575b506110aa9082610500526151db565b906108205113614193575b6106605151631d5c42b160e01b81526024356004820152816024820152603260448201526107205181606481610840515afa90811561172357600091614173575b5061415e575b61111261044051610720516109a0510151615227565b51610660515190630e7acc9960e41b82526107205160048301528180611140610720519360248301906150e4565b03816109e0515afa90811561172357600091614127575b506102e052600061064052610660515190631d5c42b160e01b82526024356004830152806024830152600560448301526107205182606481610840515afa918215613dfd5761064051926140fe575b506111b0906151db565b610660515190631d5c42b160e01b82526024356004830152806024830152601460448301526107205182606481610840515afa918215613dfd5761064051926140d5575b506111fe906151db565b610640516105a052911561401e5750610660515190630e6c328760e31b825260243560048301528060248301526101f460448301526103e860648301526107205182608481610840515afa8015613dfd576106405190613fe7575b61126792506105a0526151db565b610660515190630e6c328760e31b8252602435600483015280602483015260c8604483015261012c60648301526107205182608481610840515afa8015613dfd576106405161054052613fad575b6112bf91506151db565b610660515190631d5c42b160e01b82526024356004830152806024830152600560448301526107205182606481610840515afa918215613dfd576106405192613f84575b5061130d906151db565b610640516105e0529015613f1257610660515190630e6c328760e31b8252602435600483015280602483015260126044830152601860648301526107205182608481610840515afa918215613dfd576106405192613ed8575b5081620f4240810204620f42401482151715613ebe57620f424061138e92026105e0526151db565b610100610600819052610660515191906113a89083615142565b60078252601f1961060051013661072051840137600a6113c7836151ea565b5260036113d3836151f7565b52600a6113df83615207565b5260056113eb83615217565b52815160041015613ea45761098051600a90830152815160051015613ea457600760c0830152815160061015613ea457600a60e08301526106605151916378b6eaf960e11b835282806114496107205193856024356004850161523b565b0381610840515afa8015613dfd576106405161056052613e6a575b61146e91506151db565b610660515190630e6c328760e31b825260243560048301528060248301526103e860448301526107d060648301526107205182608481610840515afa918215613dfd576106405192613e27575b506114c5906151db565b610720516109a051015151610420526104205115613e0d57610640516102405261066051516114f76107205182615142565b610640518152610320526106405161040052610660515190631d5c42b160e01b82526024356004830152806024830152603260448301526107205182606481610840515afa918215613dfd57611559926106405161052052613dc757506151db565b6105c05261064051610580525b600a61058051106133fd576106605151630e6c328760e31b815260243560048201526105c051602482015260016044820152600460648201526107205181608481610840515afa908115611723576000916133c6575b50806104e0526115ce6105c0516151db565b610340526115f0610720516109a05101516115ea838251615552565b90615227565b516103e0526106605151630e7acc9960e41b8152610720516004820152610720518180611623602482016103e0516150e4565b03816109e0515afa9081156117235760009161338f575b506102e0525b60506102e051118015613382575b1561337c57610720516109a051015180516104e051101561173157506116766104e0516151db565b6104e052611695610720516109a05101516115ea6104e0518251615552565b516103e0526106605151630e7acc9960e41b81526107205160048201526107205181806116c8602482016103e0516150e4565b03816109e0515afa908115611723576000916116e9575b506102e052611640565b90610720513d610720511161171c575b6117038184615142565b82610720519181010312611719575051826116df565b80fd5b503d6116f9565b61066051513d6000823e3d90fd5b9061173b91615227565b516103e0526106605151630e7acc9960e41b815261072051600482015261072051818061176e602482016103e0516150e4565b03816109e0515afa90811561172357600091613345575b506102e0525b61066051516103c0526117a4610880516103c051615142565b60036103c05152601f19610880510136610720516103c05101376175306117cd6103c0516151ea565b526188b86117dd6103c0516151f7565b52619c406117ed6103c051615207565b5261066051516103a0526378b6eaf960e11b6103a05152610720516103a0516103a05161182a6103c0516103405160243560046103a0510161523b565b036103a051610840515afa61038052610380511561172357600061036052610380516132fc575b61185d610340516151db565b610300526105e0516207a11f19810111610a9a576000610200525b60056102005110612a07576102e0516102c0526106605151630e6c328760e31b8152602435600482015261030051602482015260046044820152600860648201526107205181608481610840515afa908115611723576000916129d0575b50806104e0526118e8610300516151db565b6102a052611904610720516109a05101516115ea838251615552565b516103e0526106605151630e7acc9960e41b8152610720516004820152610720518180611937602482016103e0516150e4565b03816109e0515afa80156117235760009061299a575b6119619150806102e0526102c0519061558c565b60008112611a35575b60556102e0511190811561298b575b8115612980575b501561297a57610720516109a05101516101c0526101c051516104e0511015611a79576119af6104e0516151db565b6104e0526119ce610720516109a05101516115ea6104e0518251615552565b516103e0526106605151630e7acc9960e41b8152610720516004820152610720518180611a01602482016103e0516150e4565b03816109e0515afa801561172357600090611a43575b611a2b9150806102e0526102c0519061558c565b600081121561196a575b611a3e9061555f565b61196a565b610720513d8111611a72575b611a598184615142565b826107205191810103126117195750611a2b9051611a17565b503d611a4f565b611a86906101c051615227565b516106605151630e7acc9960e41b815261072080516004830152518180611ab060248201866150e4565b03816109e0515afa90811561172357600091612941575b50611af9916000916102e0526106605151809381926343d5cfd160e11b835261066051600484015260448301906150e4565b6019602483015203816109e0515afa90811561172357600091612928575b506103e0525b60006101a0525b60056101a0511061275857610720516109a051015151600019810190600181901c908211610a9a576106605151630e6c328760e31b8152610720516102a0516024803560048501528301526044820192909252606481019290925261084051829060849082905afa90811561172357600091612721575b50806104e052611bad6102a0516151db565b50611bc6610720516109a05101516115ea838251615552565b516103e0526106605151630e7acc9960e41b8152610720516004820152610720518180611bf9602482016103e0516150e4565b03816109e0515afa8015611723576000906126eb575b611c239150806102e0526102c0519061558c565b60008112611cf1575b60556102e051119081156126dc575b81156126d1575b50156126cb57610720516109a051015180516104e0511015611d355750611c6b6104e0516151db565b6104e052611c8a610720516109a05101516115ea6104e0518251615552565b516103e0526106605151630e7acc9960e41b8152610720516004820152610720518180611cbd602482016103e0516150e4565b03816109e0515afa801561172357600090611cff575b611ce79150806102e0526102c0519061558c565b6000811215611c2c575b611cfa9061555f565b611c2c565b610720513d8111611d2e575b611d158184615142565b826107205191810103126117195750611ce79051611cd3565b503d611d0b565b611d44611d6b92600092615227565b516106605151809381926343d5cfd160e11b835261066051600484015260448301906150e4565b6019602483015203816109e0515afa908115611723576000916126b2575b506103e0525b600060a0525b600560a051106124e7576124ab6014606460016035611db5600435615701565b82611dc26108a051615701565b602c611dcf604435615701565b83611dda8935615701565b611de5604435615701565b82611df08c35615701565b91609a611dfe604435615701565b9460d98f611e0c9035615701565b9861011a611e1b604435615701565b9c611e27606435615701565b9f6106605151610100527f3c21646f637479706568746d6c3e3c68746d6c206c616e673d656e3e3c6d6574610720516101005101527f6120636f6e74656e743d27746578742f68746d6c3b20636861727365743d5554610660516101005101527f462d3827687474702d65717569763d436f6e74656e742d547970653e3c6d6574610a20516101005101527f6120636f6e74656e743d2777696474683d6465766963652d77696474682c696e610880516101005101527f697469616c2d7363616c653d31276e616d653d76696577706f72743e3c6d6574610980516101005101527f6120636f6e74656e743d2769653d6564676527687474702d65717569763d582d60c06101005101527f55412d436f6d70617469626c653e3c6d657461206172746973743d416e64726560e06101005101527f77204d69746368656c6c3e3c7469746c653e506174696e61202300000000000061060051610100510152611f9d815180928561010051019061072051016150c1565b61010051016e1e17ba34ba36329f1e39ba3cb6329f60891b838201527f7376677b746f7563682d616374696f6e3a6e6f6e653b706f696e7465722d657661012982015269656e74733a6e6f6e657d60b01b6101498201527f626f64797b6d617267696e2d746f703a303b646973706c61793a666c65783b6a6101538201527f7573746966792d636f6e74656e743a63656e7465723b616c69676e2d6974656d6101738201527f733a63656e7465723b6261636b67726f756e642d636f6c6f723a72676228323561019382015275302c3235302c323530293b6d617267696e3a3070787d60501b6101b38201527f7376677b66696c7465723a7365706961282e32296272696768746e65737328316101c982015269052c6dedce8e4c2e6e8560b31b6101e98201526120db825180936101f384019061072051016150c1565b01017f297361747572617465283130293b6d61782d6865696768743a31303076683b6d838201527f61782d77696474683a31303076773b70616464696e673a30766d696e3b626f7860f98201527f2d736861646f773a2e35766d696e2e35766d696e2031766d696e2072676261286101198201527f302c302c302c2e35293b626f782d73697a696e673a626f726465722d626f787d6101398201527f406d6564696120286d696e2d6173706563742d726174696f3a200000000000006101598201526121b48251809361017384019061072051016150c1565b0101602f60f81b838201526121d582518093609b84019061072051016150c1565b01016229207b60e81b83820152662020737667207b60c81b60048201527f202020206865696768743a2031303076682021696d706f7274616e743b000000600b8201527f2020202077696474683a2063616c63283130307668202a202800000000000000602882015261225482518093604184019061072051016150c1565b010190602f60f81b6106605183015261227981518092604185019061072051016150c1565b610660519101016d29292021696d706f7274616e743b60901b838201526220207d60e81b600f820152607d60f81b60128201527f406d6564696120286d61782d6173706563742d726174696f3a2000000000000060138201526122e882518093602d84019061072051016150c1565b0101602f60f81b8382015261230982518093602d84019061072051016150c1565b01016229207b60e81b83820152662020737667207b60c81b600482015271202020206865696768743a2031303076773b60701b600b8201527f2020202077696474683a2063616c63283130307677202a202800000000000000601d82015261237d82518093603684019061072051016150c1565b0101602f60f81b8382015261239e82518093603684019061072051016150c1565b01016229293b60e81b828201526220207d60e81b6004820152607d60f81b6007820152671e17b9ba3cb6329f60c11b60088201527f3c626f64793e3c7376672069643d277068616e7461736d53564727207669657760108201527f426f783d2730203020313030203130302720786d6c6e733d27687474703a2f2f6030820152743bbbbb973b999737b933979918181817b9bb33939f60591b605082015261068051519061245882606583016107205161068051016150c1565b0101610620515190612475828483016107205161062051016150c1565b0101731e17b9bb339f1e17b137b23c9f1e17b43a36b61f60611b8152610100519003600b19810161010051520161010051615142565b6124e36109a0515161066051519182916106605183526124d3610660518401610100516150e4565b90838203610720518501526150e4565b0390f35b60a051614e2060a0510204614e201460a051151715610a9a57612519614e2060a051026207a11f196105e05101615552565b6080526207a12060a0510260a05181046207a1201460a051151715610a9a576289544081810311610a9a576289544003610240819052610720516109a0510151516125639161550c565b60c052610360516105a052600060e0525b610720516109a05101515160e05110156126a45761259760c05161024051615552565b610240526102e05160321161268f576125cf600060e0515b6106605151809381926343d5cfd160e11b83526103e05160048401615570565b03816109e0515afa9081156117235760009161266e575b506103e861054051026105405181046103e81461054051151715610a9a5761ea5f198101908111610a9a5761263691610400519161086051916105a0519160805190610240519061032051615cc1565b61032052612646610400516151db565b610400526107d06105a05101806105a05111610a9a576105a052600160e0510160e052612574565b612689913d8091833e6126818183615142565b81019061552c565b816125e6565b6125cf600061269f60e05161555f565b6125af565b600160a0510160a052611d95565b6126c5913d8091833e6126818183615142565b81611d89565b50611d8f565b600591501282611c42565b9050600f6102e0511090611c3b565b610720513d811161271a575b6127018184615142565b826107205191810103126117195750611c239051611c0f565b503d6126f7565b90610720513d6107205111612751575b61273b8184615142565b8261072051918101031261171957505181611b9b565b503d612731565b6101a051614e206101a0510204614e20146101a051151715610a9a5761278e614e206101a051026207a11f196105e05101615552565b610120526207a1206101a051026101a05181046207a120146101a051151715610a9a576289544081810311610a9a576289544003610240819052610720516109a0510151516127dc9161550c565b61016052610360516105a0526000610140525b610720516109a051015151610140511015612918576128146101605161024051615552565b610240526102e0516032116129075761284c6000610140516106605151809381926343d5cfd160e11b83526103e05160048401615570565b03816109e0515afa908115611723576000916128ee575b506103e861054051026105405181046103e81461054051151715610a9a5761752f198101908111610a9a576128b491610400519161086051916105a051916101205190610240519061032051615cc1565b610320526128c4610400516151db565b610400526107d06105a05101806105a05111610a9a576105a05260016101405101610140526127ef565b612901913d8091833e6126818183615142565b81612863565b61284c600061269f6101405161555f565b60016101a051016101a052611b24565b61293b913d8091833e6126818183615142565b81611b17565b90610720513d6107205111612973575b61295b8184615142565b82610720519181010312611719575051611af9611ac7565b503d612951565b50611b1d565b600591501282611980565b9050600f6102e0511090611979565b610720513d81116129c9575b6129b08184615142565b826107205191810103126117195750611961905161194d565b503d6129a6565b90610720513d6107205111612a00575b6129ea8184615142565b82610720519181010312611719575051816118d6565b503d6129e0565b61020051614e20610200510204614e201461020051151715610a9a57612a3d614e2061020051026207a11f196105e05101615552565b610280526207a12061020051026102005181046207a1201461020051151715610a9a576289544081810311610a9a576289544003610240819052610720516109a051015151612a8b9161550c565b61022052610360516105a0526000610260525b610720516109a0510151516102605110156132ec57612ac36102205161024051615552565b610240526102e0516032116132db57612afb6000610260516106605151809381926343d5cfd160e11b83526103e05160048401615570565b03816109e0515afa908115611723576000916132c2575b506103e86105405102906105405182046103e81461054051151715610a9a578161270f19810111610a9a57600061018052612b4f61040051615701565b90612b98602b610660515180946a6772696446696c7465722d60a81b61072051830152612b87815180928585019061072051016150c1565b81010301601f198101845283615142565b61270f1983016103e880820282900414901517156132a8576105a051612bc7906103e861270f1986010261550c565b612bdd61012c6103e861270f1987010204615a15565b90612bea6216e360615945565b94612bf99061270f1901615945565b9461028051612c0790615aaf565b93612c126004615701565b9661086051612c2090615701565b93612c2a90615945565b9261024051612c3890615b4b565b946106605151998a98610720518a016b3c66696c7465722069643d2760a01b90528a51602c8b01818d610720510191612c70926150c1565b8a01602c810161139f60f11b9052602e81017f3c666554757262756c656e636520747970653d276672616374616c4e6f6973659052604e8101702720626173654672657175656e63793d2760781b905281519182605f830191610720510191612cd8926150c1565b01602c01603381016d27206e756d4f6374617665733d2760901b9052815191826041830191610720510191612d0c926150c1565b01603301600e8101672720736565643d2760c01b9052815191826016830191610720510191612d3a926150c1565b01600e01600881017713903932b9bab63a1e93ba3ab9313ab632b731b29390179f60411b905261072051810160008051602061637883398151915290526106605181017f63652720696e3d27536f757263654772617068696327207363616c653d270000905281519182605e830191610720510191612db8926150c1565b01600801605681016000805160206163988339815191529052607681016000805160206163588339815191529052609681016c1390179f1e17b334b63a32b91f60991b905260a38101753c7061747465726e2069643d2768617368477269642d60501b905287519060b9810182610720518b0191612e35926150c1565b01605601906063820168272077696474683d2760b81b905280516107205182019281606c820190612e6691866150c1565b01606301600981016927206865696768743d2760b01b9052815190816013820190612e9191866150c1565b01600901600a81017f27207061747465726e556e6974733d277573657253706163654f6e557365273e9052602a81016c3c726563742077696474683d2760981b9052815190816037820190612ee691866150c1565b01600a0190602d82016927206865696768743d2760b01b905251918260378301612f0f926150c1565b01602d01600a81016927207374726f6b653d2760b01b9052815191826014830191610720510191612f3f926150c1565b01600a01600a81016f27207374726f6b652d77696474683d2760801b905281519182601a830191610720510191612f75926150c1565b01600a01601081017f272066696c6c2d6f7061636974793d273027207374726f6b652d6f706163697490526030810162793d2760e81b9052815191826033830191610720510191612fc5926150c1565b0160100190602382017604e40e8e4c2dce6ccdee4da7a4ee8e4c2dce6d8c2e8ca5604b1b905280516107205182019281603a82019061300491866150c1565b016023019060178201600b60fa1b905251918260188301613024926150c1565b01601701600181016d1493979f1e17b830ba3a32b9371f60911b90520360010160111981018352600e016130589083615142565b61066051519081610720518101936103205151858161072051610320510191613080926150c1565b820190805190816107205184019161072051019161309d926150c1565b6107205191010103601f19810183526130b69083615142565b61066051519081610720518101917f3c72656374207472616e73666f726d3d277472616e736c6174652835302c353083526106605182017f2920726f74617465283129207363616c652831203129207472616e736c6174659052610a2051820168282d35302c2d35302960b81b9052606982016a272069643d27726563742d60a81b90528051607483018161072051840191613151926150c1565b8201607481017f272077696474683d273330302527206865696768743d27333030252720783d279052609481017f2d3130302720793d272d313030272066696c7465723d2775726c282300000000905281519060b0810182610720518501916131b9926150c1565b01607401603c81017629272066696c6c3d2775726c282368617368477269642d60481b90528151918260538301916107205101916131f6926150c1565b01603c0160178101631493979f60e11b905203601701601b19810183526004016132209083615142565b610660515193849351908161072051860161323a926150c1565b83019151908161072051840161324f926150c1565b6107205191010103601f19810182526132689082615142565b8061018052610320526104005161327e906151db565b610400526105a0516107d001806105a05111610a9a576105a0526001610260510161026052612a9e565b634e487b7160e01b61018051526011600452602461018051fd5b6132d5913d8091833e6126818183615142565b81612b12565b612afb600061269f6102605161555f565b6001610200510161020052611878565b610720513d811161333e575b613315816103a051615142565b610720516103a0519182019190910312613337576103a0515161036052611851565b6103605180fd5b503d613308565b90610720513d6107205111613375575b61335f8184615142565b8261072051918101031261171957505181611785565b503d613355565b5061178b565b5060146102e0511061164e565b9050610720513d61072051116133bf575b6133aa8183615142565b816107205191810103126100bf57518261163a565b503d6133a0565b90610720513d61072051116133f6575b6133e08184615142565b82610720519181010312611719575051816115bc565b503d6133d6565b61058051617ae3610580510204617ae31461058051151715610a9a5761342d617ae361058051026105e051615552565b6104c0526207a12061058051026105805181046207a1201461058051151715610a9a57624c4b400180624c4b4011610a9a5761024052600061048052610578811015613dbd57610578610480525b61048051610640526000610460525b610720516109a051015151610460511015613dad5761042051620f4240046102405101806102405111610a9a57806102405260036104605110600014613d91576134e06104a051610720516109a0510151615227565b515b6105205115613d625761046051613d3b576063195b61046051810290600160ff1b61046051146000821216610a9a57808205610460511490151715610a9a576135539161353560009261058051906154f0565b61066051516343d5cfd160e11b815293849283929060048401615570565b03816109e0515afa90811561172357600091613d22575b50610540516103e86105405102046103e81461054051151715610a9a57610640516103e86106405102046103e81461064051151715610a9a5760006101e0526135b561040051615701565b906135ed602b610660515180946a6772696446696c7465722d60a81b61072051830152612b87815180928585019061072051016150c1565b610540516103e88181028015620f424090930204141715613d08576105a05161054051620f4240029061361f9161550c565b6105405161363790610190620f424090910204615a15565b90610640516103e80261364990615945565b94610540516103e80261365b90615945565b936104c05161366990615aaf565b946105605161367790615701565b976108605161368590615701565b9461368f90615945565b9361369990615b4b565b946106605151998a98610720518a016b3c66696c7465722069643d2760a01b90528a51602c8b01818d6107205101916136d1926150c1565b8a01602c810161139f60f11b9052602e81017f3c666554757262756c656e636520747970653d276672616374616c4e6f6973659052604e8101702720626173654672657175656e63793d2760781b905281519182605f830191610720510191613739926150c1565b01602c01603381016d27206e756d4f6374617665733d2760901b905281519182604183019161072051019161376d926150c1565b01603301600e8101672720736565643d2760c01b905281519182601683019161072051019161379b926150c1565b01600e01600881017713903932b9bab63a1e93ba3ab9313ab632b731b29390179f60411b905261072051810160008051602061637883398151915290526106605181017f63652720696e3d27536f757263654772617068696327207363616c653d270000905281519182605e830191610720510191613819926150c1565b01600801605681016000805160206163988339815191529052607681016000805160206163588339815191529052609681016c1390179f1e17b334b63a32b91f60991b905260a38101753c7061747465726e2069643d2768617368477269642d60501b905287519060b9810182610720518b0191613896926150c1565b01605601906063820168272077696474683d2760b81b905280516107205182019281606c8201906138c791866150c1565b01606301600981016927206865696768743d2760b01b90528151908160138201906138f291866150c1565b01600901600a81017f27207061747465726e556e6974733d277573657253706163654f6e557365273e9052602a81016c3c726563742077696474683d2760981b905281519081603782019061394791866150c1565b01600a0190602d82016927206865696768743d2760b01b905251918260378301613970926150c1565b01602d01600a81016927207374726f6b653d2760b01b90528151918260148301916107205101916139a0926150c1565b01600a01600a81016f27207374726f6b652d77696474683d2760801b905281519182601a8301916107205101916139d6926150c1565b01600a01601081017f272066696c6c2d6f7061636974793d273027207374726f6b652d6f706163697490526030810162793d2760e81b9052815191826033830191610720510191613a26926150c1565b0160100190602382017604e40e8e4c2dce6ccdee4da7a4ee8e4c2dce6d8c2e8ca5604b1b905280516107205182019281603a820190613a6591866150c1565b016023019060178201600b60fa1b905251918260188301613a85926150c1565b01601701600181016d1493979f1e17b830ba3a32b9371f60911b90520360010160111981018352600e01613ab99083615142565b61066051519081610720518101936103205151858161072051610320510191613ae1926150c1565b8201908051908161072051840191610720510191613afe926150c1565b6107205191010103601f1981018352613b179083615142565b61066051519081610720518101917f3c72656374207472616e73666f726d3d277472616e736c6174652835302c353083526106605182017f2920726f74617465283129207363616c652831203129207472616e736c6174659052610a2051820168282d35302c2d35302960b81b9052606982016a272069643d27726563742d60a81b90528051607483018161072051840191613bb2926150c1565b8201607481017f272077696474683d273330302527206865696768743d27333030252720783d279052609481017f2d3130302720793d272d313030272066696c7465723d2775726c282300000000905281519060b081018261072051850191613c1a926150c1565b01607401603c81017629272066696c6c3d2775726c282368617368477269642d60481b9052815191826053830191610720510191613c57926150c1565b01603c0160178101631493979f60e11b905203601701601b1981018352600401613c819083615142565b6106605151938493519081610720518601613c9b926150c1565b830191519081610720518401613cb0926150c1565b6107205191010103601f1981018252613cc99082615142565b806101e0526103205261040051613cdf906151db565b6104005261064051606401806106405111610a9a5761064052600161046051016104605261348a565b634e487b7160e01b6101e05152601160045260246101e051fd5b613d35913d8091833e6126818183615142565b8361356a565b60046104605110600014613d5157604f196134f7565b613d5d6105005161555f565b6134f7565b61046051613d72576031196134f7565b60046104605110600014613d88576027196134f7565b610500516134f7565b613da761044051610720516109a0510151615227565b516134e2565b6001610580510161058052611566565b806104805261347b565b613dec90610720513d6107205111613df6575b613de48183615142565b8101906152b2565b6105205283610f6a565b503d613dda565b61066051513d61064051823e3d90fd5b634e487b7160e01b61064051526012600452602461064051fd5b909150610720513d6107205111613e63575b613e438183615142565b6107205190820182900312613e5c5751906114c56114bb565b6106405180fd5b503d613e39565b610720513d8111613e9d575b613e808184615142565b6107205190830183900312613e5c5761146e915161056052611464565b503d613e76565b634e487b7160e01b61064051526032600452602461064051fd5b634e487b7160e01b61064051526011600452602461064051fd5b909150610720513d6107205111613f0b575b613ef48183615142565b6107205190820182900312613e5c57519082611366565b503d613eea565b610660515190630e6c328760e31b8252602435600483015280602483015260146044830152602260648301526107205182608481610840515afa918215613dfd576106405192613ed8575081620f4240810204620f42401482151715613ebe57620f424061138e92026105e0526151db565b61130d919250613fa690610720513d6107205111613df657613de48183615142565b9190611303565b610720513d8111613fe0575b613fc38184615142565b6107205190830183900312613e5c576112bf9151610540526112b5565b503d613fb9565b50610720513d8111614017575b613ffe8184615142565b6107205190830183900312613e5c576112679151611259565b503d613ff4565b1561407c57610660515190630e6c328760e31b825260243560048301528060248301526107d06044830152610fa060648301526107205182608481610840515afa8015613dfd576106405190613fe75761126792506105a0526151db565b610660515190630e6c328760e31b8252602435600483015280602483015261070860448301526107d060648301526107205182608481610840515afa8015613dfd576106405190613fe75761126792506105a0526151db565b6111fe9192506140f790610720513d6107205111613df657613de48183615142565b91906111f4565b6111b091925061412090610720513d6107205111613df657613de48183615142565b91906111a6565b9050610720513d6107205111614157575b6141428183615142565b816107205191810103126100bf575182611157565b503d614138565b61416a61050051615283565b610500526110fc565b6107205161418d92503d8111613df657613de48183615142565b826110f6565b61082051610500526110b5565b9091610720513d61072051116141d4575b6141bb8184615142565b82610720519181010312611719575051906110aa61109b565b503d6141b1565b610720513d8111614215575b6141f18184615142565b610720519083018390031261420e57611052915161044052611048565b6104405180fd5b503d6141e7565b610720513d8111614256575b6142328184615142565b610720519083018390031261424f57610fde91516104a052610fd4565b6104a05180fd5b503d614228565b614271903d806000833e6126818183615142565b610f6a565b61428a903d806000833e6126818183615142565b6106205282610f27565b61429d906151db565b94610720516109a05101968751518710156145be575b60068101906000600683129112908015821691151617610a9a57866142d9919851615227565b516106605151906142ed6106605183615142565b61082051825261663160f01b6107205183015283915b87831261431d5750505086614317916154f0565b94610ed2565b9091949961432d610700516151db565b6107005261096051810290808204610960511490151715610a9a576103e88791049a614357615896565b6143608d615945565b61436989615c48565b61437288615c48565b9061437c8b615c48565b926143868a615c48565b94610660515197878998519081610720518b01916107205101916143a9926150c1565b880190610720518201703c6c696e65207472616e73666f726d3d2760781b9052805190816031840191602001916143df926150c1565b61072051910101601181016e272066696c7465723d2775726c282360881b905289519061072051810182610720518d0191614419926150c1565b01601101600f8101722927207374726f6b652d6f7061636974793d2760681b9052815191826022830191610720510191614452926150c1565b01600f01601381016927207374726f6b653d2760b01b9052895190601d810182610720518d0191614482926150c1565b01601301600a810175139039ba3cb6329e93b9ba3937b5b296bbb4b23a341d60511b905281519182610720518301916107205101916144c0926150c1565b01600a016016810165272079313d2760d01b905281519182601c8301916107205101916144ec926150c1565b016016016006810165272078313d2760d01b905281519182600c830191610720510191614518926150c1565b016006016006810165272078323d2760d01b905281519182600c830191610720510191614544926150c1565b016006016006810165272079323d2760d01b905281519182600c830191610720510191614570926150c1565b0160060160068101631390179f60e11b905203600601601b198101825260040161459a9082615142565b9461f424810190600061f42483129112908015821691151617610a9a579190614303565b600096506142b3565b634e487b7160e01b85526011600452602485fd5b6020823d602011614606575b816145f460209383615142565b810103126100bf57610e4e9150610e44565b3d91506145e7565b6040513d6000823e3d90fd5b6146266107a0516151db565b6107a052600a6108c051046108c0526109ba565b614646610a4051615701565b61464e615737565b61465661560b565b61466261086051615701565b61466a615737565b6146726156af565b600161086051016108605111614b355761469160016108605101615701565b614699615737565b916146a26156af565b936108205161086051016108605111614b35576108205161086051016146c790615701565b956146d06156d8565b976146d96156d8565b996146e26156d8565b9b6040516107c0526107c0516020016146fa906152ca565b80825160208194019161470c926150c1565b0161471690615324565b808251602081940191614728926150c1565b016d27206e756d4f6374617665733d2760901b815281519182600e83019160200191614753926150c1565b01600e8101672720736565643d2760c01b90528151918260168301916020019161477c926150c1565b614789910160160161536a565b80825160208194019161479b926150c1565b016d27206e756d4f6374617665733d2760901b815281519182600e830191602001916147c6926150c1565b01600e8101672720736565643d2760c01b9052815191826016830191602001916147ef926150c1565b01600e01600881017f2720726573756c743d2774757262756c656e636532273e3c2f666554757262759052602881017f6c656e63653e3c666554757262756c656e636520747970653d276672616374619052604881017f6c4e6f6973652720626173654672657175656e63793d27000000000000000000905281519182605f8301916020019161487e926150c1565b01600801605781016d27206e756d4f6374617665733d2760901b9052815191826065830191602001916148b0926150c1565b01605701600e8101672720736565643d2760c01b9052815191826016830191602001916148dc926150c1565b01600e01600881017f2720726573756c743d2774757262756c656e636533273e3c2f66655475726275905260288101653632b731b29f60d11b9052602e01614923906153d8565b808251602081940191614935926150c1565b0161493f9061540d565b808251602081940191614951926150c1565b017f2720726573756c743d27646973706c6163656d656e74322720784368616e6e658152602081017f6c53656c6563746f723d27412720794368616e6e656c53656c6563746f723d279052604081017f41273e3c2f6665446973706c6163656d656e744d61703e3c6665446973706c619052610a205181017f63656d656e744d617020696e323d2774757262756c656e6365332720696e3d27905261088051810175646973706c6163656d656e743227207363616c653d2760501b905281519182609683019160200191614a24926150c1565b7f2720726573756c743d27646973706c6163656d656e74332720784368616e6e65609692909101918201527f6c53656c6563746f723d27412720794368616e6e656c53656c6563746f723d2760b68201527620939f1e17b332a234b9b83630b1b2b6b2b73a26b0b81f60491b60d68201526c3c6665426c656e6420696e3d2760981b60ed820152610a00518051602090910191614ac58260fa8301856150c1565b016096019060648201662720696e323d2760c81b9052610a0051519081606b8401614aef926150c1565b6107c05191614b019101606b016154a1565b03601f1981016107c051526107c05190614b1a91615142565b6107c0516106805260146001610d48610d42610e0b94615be6565b634e487b7160e01b61068051526011600452602461068051fd5b6040805190614b5e9082615142565b600d81526c646973706c6163656d656e743360981b6020820152610a005261092b565b60203d602011614bb4575b80614b9d614bab92610ae051615142565b610ae05101610ae0516152b2565b610a60526108e0565b503d614b8c565b9091506020813d602011614be9575b81614bd760209383615142565b810103126100bf57519061087961086f565b3d9150614bca565b6020823d602011614c27575b81614c0a60209383615142565b81010312614c20576107c19151610860526107b7565b6108605180fd5b3d9150614bfd565b6020823d602011614c65575b81614c4860209383615142565b81010312614c5e5761076f915161096052610765565b6109605180fd5b3d9150614c3b565b6020813d602011614c9b575b81614c8660209383615142565b810103126100bf5751610a80526106de6106d1565b3d9150614c79565b506020823d602011614ccf575b81614cbd60209383615142565b810103126100bf5761068b915161067d565b3d9150614cb0565b60405190630e6c328760e31b8252602435600483015280602483015260016044830152600a6064830152602082608481610840515afa8015614d6557610a405190614d2a5761068b9250610a40526151db565b506020823d602011614d5d575b81614d4460209383615142565b81010312614d565761068b915161067d565b610a405180fd5b3d9150614d37565b6040513d610a4051823e3d90fd5b61062d919250614d919060203d602011613df657613de48183615142565b9190610623565b6020823d602011614dce575b81614db160209383615142565b81010312614dc7576105e59151610800526105db565b6108005180fd5b3d9150614da4565b6020823d602011614e0c575b81614def60209383615142565b81010312614e055761057b9151610ac052610571565b610ac05180fd5b3d9150614de2565b906020823d602011614e3e575b81614e2e60209383615142565b8101031261171957505181610509565b3d9150614e21565b6020813d602011614e73575b81614e5f60209383615142565b810103126100bf57516108a052602061048d565b3d9150614e52565b8251845285945060209384019390920191600101610463565b3d806109a051833e614ea68183615142565b810190602081830312614fbb5780519067ffffffffffffffff8211614fbb570190604082820312614fbb57604051916040830183811067ffffffffffffffff821117614fc257604052805167ffffffffffffffff8111614fbb5782614f0c918301615196565b835260208101519067ffffffffffffffff8211614fbb57019080601f83011215614fbb5781519167ffffffffffffffff8311614fc2578260051b906020820193614f596040519586615142565b845260208085019282010191838311614fbb5760208201905b838210614f8d57505050505060208201526109a052806103e5565b815167ffffffffffffffff8111614fbb57602091614fb087848094880101615196565b815201910190614f72565b6109a05180fd5b634e487b7160e01b6109a05152604160045260246109a051fd5b90506020813d602011615006575b81614ff760209383615142565b810103126100bf5751816103ad565b3d9150614fea565b90506020813d602011615038575b8161502960209383615142565b810103126100bf575181610368565b3d915061501c565b346100bf5760003660031901126100bf576004546040516001600160a01b039091168152602090f35b346100bf5760203660031901126100bf576004356001600160a01b038116908190036100bf576150a460018060a01b03600054163314615109565b60005260016020526040600020600160ff19825416179055600080f35b60005b8381106150d45750506000910152565b81810151838201526020016150c4565b906020916150fd815180928185528580860191016150c1565b601f01601f1916010190565b1561511057565b60405162461bcd60e51b815260206004820152600a6024820152694e6f7420616e6472657760b01b6044820152606490fd5b90601f8019910116810190811067ffffffffffffffff82111761516457604052565b634e487b7160e01b600052604160045260246000fd5b67ffffffffffffffff811161516457601f01601f191660200190565b81601f820112156100bf5780516151ac8161517a565b926151ba6040519485615142565b818452602082840101116100bf576151d891602080850191016150c1565b90565b6000198114610a9a5760010190565b805115610a845760200190565b805160011015610a845760400190565b805160021015610a845760600190565b805160031015610a845760800190565b8051821015610a845760209160051b010190565b6080906020929360608201948252838201526060604082015284518094520192019060005b81811061526d5750505090565b8251845260209384019390920191600101615260565b9081600003918083056000191490151715610a9a57565b906103e88202918083056103e81490151715610a9a57565b908160209103126100bf575180151581036100bf5790565b7f3c646566733e3c66696c7465722069643d276631273e3c66654761757373696181527f6e426c757220726573756c743d27626c75722720737464446576696174696f6e6020820152613d2760f01b604082015260420190565b7f272f3e3c666554757262756c656e636520747970653d276672616374616c4e6f8152736973652720626173654672657175656e63793d2760601b602082015260340190565b7f2720726573756c743d2774757262756c656e6365273e3c2f666554757262756c81527f656e63653e3c666554757262756c656e636520747970653d276672616374616c6020820152754e6f6973652720626173654672657175656e63793d2760501b604082015260560190565b60008051602061637883398151915281527463652720696e3d27626c757227207363616c653d2760581b602082015260350190565b600080516020616398833981519152815260008051602061635883398151915260208201527f273e3c2f6665446973706c6163656d656e744d61703e3c6665446973706c616360408201527f656d656e744d617020696e323d2774757262756c656e6365322720696e3d27646060820152736973706c6163656d656e7427207363616c653d2760601b608082015260940190565b7f2720726573756c743d276275726e27206d6f64653d276e6f726d616c273e3c2f81527f6665426c656e643e3c2f66696c7465723e3c2f646566733e0000000000000000602082015260380190565b91909160008382019384129112908015821691151617610a9a57565b8115615516570490565b634e487b7160e01b600052601260045260246000fd5b906020828203126100bf57815167ffffffffffffffff81116100bf576151d89201615196565b91908203918211610a9a57565b600160ff1b8114610a9a5760000390565b9291906155876020916040865260408601906150e4565b930152565b81810392916000138015828513169184121617610a9a57565b156155ac57565b60405162461bcd60e51b815260206004820152600e60248201526d139bdd08185d5d1a1bdc9a5e995960921b6044820152606490fd5b604051906155f1604083615142565b60018252600360fc1b6020830152565b8115615516570690565b600f600081805b61569b57506156208161517a565b9061562e6040519283615142565b808252601f1961563d8261517a565b013660208401375b80928015615694576000198201918211610a9a578193600a82066030019283603011610a9a5784511115610a8457600a9260f81b6001600160f81b03191660001a908401601f01530491615645565b5050905090565b906156a7600a916151db565b910480615612565b6001600081805b6156c457506156208161517a565b906156d0600a916151db565b9104806156b6565b604b600081805b6156ed57506156208161517a565b906156f9600a916151db565b9104806156df565b801561572e57600081805b61571a57506156208161517a565b90615726600a916151db565b91048061570c565b506151d86155e2565b6000601e805b615882575060038111156157ba5750601e6151d860016157666157606000615701565b93615701565b926020604051948261578187945180928580880191016150c1565b8301601760f91b8382015261579f82518093856021850191016150c1565b01010301601f198101835282615142565b6151d89150615701565b60409182516157c98482615142565b6002815261181760f11b6020820152906000915b8360030360038111610a9a578310156158325760019061582a82602088518461580f82965180928580860191016150c1565b8101600360fc1b838201520301601e19810184520182615142565b9201916157dd565b909392506151d891506020615847601e615701565b9351938261585e86945180928580880191016150c1565b8301615872825180938580850191016150c1565b010103601f198101835282615142565b9061588e600a916151db565b91048061573d565b60006096805b615931575060038111156158bf575060966151d860016157666157606000615701565b60409182516158ce8482615142565b6002815261181760f11b6020820152906000915b8360030360038111610a9a5783101561591c5760019061591482602088518461580f82965180928580860191016150c1565b9201916158e2565b909392506151d8915060206158476096615701565b9061593d600a916151db565b91048061589c565b801561572e57600081805b615a015750600381111561598f57506103e89061596d828261550c565b9161597791615601565b9081156157b05760016157666157606151d893615701565b90604092835161599f8582615142565b6002815261181760f11b6020820152916000925b8460030360038111610a9a578410156159ed576001906159e582602089518461580f82965180928580860191016150c1565b9301926159b3565b919493506151d89250615847602091615701565b90615a0d600a916151db565b910480615950565b801561572e57600081805b615a9b57506004811115615a3d57506127109061596d828261550c565b906040928351615a4d8582615142565b6002815261181760f11b6020820152916000925b8460040360048111610a9a578410156159ed57600190615a9382602089518461580f82965180928580860191016150c1565b930192615a61565b90615aa7600a916151db565b910480615a20565b801561572e57600081805b615b3757506009811115615ad95750633b9aca009061596d828261550c565b906040928351615ae98582615142565b6002815261181760f11b6020820152916000925b8460090360098111610a9a578410156159ed57600190615b2f82602089518461580f82965180928580860191016150c1565b930192615afd565b90615b43600a916151db565b910480615aba565b801561572e57600081805b615bd257506007811115615b745750629896809061596d828261550c565b906040928351615b848582615142565b6002815261181760f11b6020820152916000925b8460070360078111610a9a578410156159ed57600190615bca82602089518461580f82965180928580860191016150c1565b930192615b98565b90615bde600a916151db565b910480615b56565b801561572e57615c0a600082129182600014615c0557615c059061555f565b615701565b90156151d8576151d860216040518093602d60f81b6020830152615c3781518092602086860191016150c1565b81010301601f198101835282615142565b801561572e5760008112908115615cbc57615c629061555f565b6103e8808207910581615ca557615c0a9150615701565b156151d8576151d860216040518093602d60f81b6020830152615c3781518092602086860191016150c1565b6001615766615760615cb693615701565b90615c79565b615c62565b96615cd3909692959396949194615701565b9360405195615d18602b8860208101986a6772696446696c7465722d60a81b8a52615d0781518092602086860191016150c1565b81010301601f198101895288615142565b6103e88202948286046103e81483151715610a9a57615d37908661550c565b946101909004615d4690615a15565b92615d536216e360615945565b92615d5d90615945565b98615d6790615aaf565b98615d726004615701565b95615d7c90615701565b96615d8690615945565b92615d9090615b4b565b93604051978897602089019c6b3c66696c7465722069643d2760a01b8e528c518c81602c8d01615dbf926150c1565b61139f60f11b602c918c01918201527f3c666554757262756c656e636520747970653d276672616374616c4e6f697365602e820152702720626173654672657175656e63793d2760781b604e820152815191615e24908390605f8401906020016150c1565b01602c01603381016d27206e756d4f6374617665733d2760901b905281519182604183019160200191615e56926150c1565b01603301600e8101672720736565643d2760c01b905281519182601683019160200191615e82926150c1565b01600e01600881017713903932b9bab63a1e93ba3ab9313ab632b731b29390179f60411b9052602081016000805160206163788339815191529052604081017f63652720696e3d27536f757263654772617068696327207363616c653d270000905281519182605e83019160200191615efa926150c1565b01600801605681016000805160206163988339815191529052607681016000805160206163588339815191529052609681016c1390179f1e17b334b63a32b91f60991b905260a38101753c7061747465726e2069643d2768617368477269642d60501b90528951908160b9820190615f72918c6150c1565b01605601906063820168272077696474683d2760b81b90528051602082019281606c820190615fa191866150c1565b01606301600981016927206865696768743d2760b01b9052815190816013820190615fcc91866150c1565b01600901600a81017f27207061747465726e556e6974733d277573657253706163654f6e557365273e9052602a81016c3c726563742077696474683d2760981b905281519081603782019061602191866150c1565b01600a0190602d82016927206865696768743d2760b01b90525191826037830161604a926150c1565b01602d01600a81016927207374726f6b653d2760b01b905281519182601483019160200191616078926150c1565b01600a01600a81016f27207374726f6b652d77696474683d2760801b905281519182601a830191602001916160ac926150c1565b01600a01601081017f272066696c6c2d6f7061636974793d273027207374726f6b652d6f706163697490526030810162793d2760e81b9052815191826033830191602001916160fa926150c1565b0160100190602382017604e40e8e4c2dce6ccdee4da7a4ee8e4c2dce6d8c2e8ca5604b1b90528051602082019281603a82019061613791866150c1565b016023019060178201600b60fa1b905251918260188301616157926150c1565b01601701600181016d1493979f1e17b830ba3a32b9371f60911b90520360010160111981018252600e0161618b9082615142565b60405193849160208301968781516020819301916161a8926150c1565b830190519182602083016161bb926150c1565b01038084526161cd9060200184615142565b604051809160208201937f3c72656374207472616e73666f726d3d277472616e736c6174652835302c35308552604083017f2920726f74617465283129207363616c652831203129207472616e736c61746590526060830168282d35302c2d35302960b81b9052606983016a272069643d27726563742d60a81b9052805180607485019061625b91856150c1565b7f272077696474683d273330302527206865696768743d27333030252720783d276074918501918201527f2d3130302720793d272d313030272066696c7465723d2775726c28230000000060948201528151906162bc8260b08301866150c1565b0160740190603c82017629272066696c6c3d2775726c282368617368477269642d60481b9052519182605383016162f2926150c1565b01603c0160178101631493979f60e11b905203601701601b198101825260040161631c9082615142565b60405193849351908160208601616332926150c1565b83019051918260208301616345926150c1565b01038082526151d8906020018261514256fe53656c6563746f723d27412720794368616e6e656c53656c6563746f723d27413c6665446973706c6163656d656e744d617020696e323d2774757262756c656e2720726573756c743d27646973706c6163656d656e742720784368616e6e656ca264697066735822122043413e65c2e96c041fbe598803266581e01e384589913c5d0fe658835951124564736f6c634300081c0033","linkReferences":{}},"methodIdentifiers":{"colorEngine()":"9d20b355","getAnim(uint256,bytes32,uint256,uint256)":"3b7d2f49","grantAccess(address)":"0ae5e739","hasAccess(address)":"95a078e8","isOwner()":"8f32d59b","randomGenerator()":"dcbad90d","revokeAccess(address)":"85e68531","setColorEngine(address)":"b1bcbc8d","setRandomGenerator(address)":"4bc19fee","setTextureEngine(address)":"c687bb24","textureEngine()":"2da0f9bc"},"id":37}