{"abi":[{"type":"constructor","inputs":[],"stateMutability":"nonpayable"},{"type":"function","name":"addFirstImageChunk","inputs":[{"name":"contractAddress","type":"address","internalType":"address"},{"name":"tokenId","type":"uint256","internalType":"uint256"},{"name":"chunkIndex","type":"uint256","internalType":"uint256"},{"name":"chunk","type":"string","internalType":"string"}],"outputs":[],"stateMutability":"nonpayable"},{"type":"function","name":"addSecondImageChunk","inputs":[{"name":"contractAddress","type":"address","internalType":"address"},{"name":"tokenId","type":"uint256","internalType":"uint256"},{"name":"chunkIndex","type":"uint256","internalType":"uint256"},{"name":"chunk","type":"string","internalType":"string"}],"outputs":[],"stateMutability":"nonpayable"},{"type":"function","name":"deleteFirstImage","inputs":[{"name":"contractAddress","type":"address","internalType":"address"},{"name":"tokenId","type":"uint256","internalType":"uint256"}],"outputs":[],"stateMutability":"nonpayable"},{"type":"function","name":"deleteSecondImage","inputs":[{"name":"contractAddress","type":"address","internalType":"address"},{"name":"tokenId","type":"uint256","internalType":"uint256"}],"outputs":[],"stateMutability":"nonpayable"},{"type":"function","name":"firstImageChunkCount","inputs":[{"name":"","type":"address","internalType":"address"},{"name":"","type":"uint256","internalType":"uint256"}],"outputs":[{"name":"","type":"uint256","internalType":"uint256"}],"stateMutability":"view"},{"type":"function","name":"firstImageChunks","inputs":[{"name":"","type":"address","internalType":"address"},{"name":"","type":"uint256","internalType":"uint256"},{"name":"","type":"uint256","internalType":"uint256"}],"outputs":[{"name":"","type":"string","internalType":"string"}],"stateMutability":"view"},{"type":"function","name":"flip","inputs":[{"name":"contractAddress","type":"address","internalType":"address"},{"name":"tokenId","type":"uint256","internalType":"uint256"}],"outputs":[],"stateMutability":"nonpayable"},{"type":"function","name":"getFirstImage","inputs":[{"name":"contractAddress","type":"address","internalType":"address"},{"name":"tokenId","type":"uint256","internalType":"uint256"}],"outputs":[{"name":"","type":"string","internalType":"string"}],"stateMutability":"view"},{"type":"function","name":"getFirstImageChunks","inputs":[{"name":"contractAddress","type":"address","internalType":"address"},{"name":"tokenId","type":"uint256","internalType":"uint256"},{"name":"startIndex","type":"uint256","internalType":"uint256"},{"name":"endIndex","type":"uint256","internalType":"uint256"}],"outputs":[{"name":"","type":"string[]","internalType":"string[]"}],"stateMutability":"view"},{"type":"function","name":"getFlipEnabled","inputs":[{"name":"contractAddress","type":"address","internalType":"address"},{"name":"tokenId","type":"uint256","internalType":"uint256"}],"outputs":[{"name":"","type":"bool","internalType":"bool"}],"stateMutability":"view"},{"type":"function","name":"getFlipState","inputs":[{"name":"contractAddress","type":"address","internalType":"address"},{"name":"tokenId","type":"uint256","internalType":"uint256"}],"outputs":[{"name":"","type":"bool","internalType":"bool"}],"stateMutability":"view"},{"type":"function","name":"getImage","inputs":[{"name":"contractAddress","type":"address","internalType":"address"},{"name":"tokenId","type":"uint256","internalType":"uint256"}],"outputs":[{"name":"","type":"string","internalType":"string"}],"stateMutability":"view"},{"type":"function","name":"getSecondImage","inputs":[{"name":"contractAddress","type":"address","internalType":"address"},{"name":"tokenId","type":"uint256","internalType":"uint256"}],"outputs":[{"name":"","type":"string","internalType":"string"}],"stateMutability":"view"},{"type":"function","name":"getSecondImageChunks","inputs":[{"name":"contractAddress","type":"address","internalType":"address"},{"name":"tokenId","type":"uint256","internalType":"uint256"},{"name":"startIndex","type":"uint256","internalType":"uint256"},{"name":"endIndex","type":"uint256","internalType":"uint256"}],"outputs":[{"name":"","type":"string[]","internalType":"string[]"}],"stateMutability":"view"},{"type":"function","name":"grantAccess","inputs":[{"name":"addr","type":"address","internalType":"address"}],"outputs":[],"stateMutability":"nonpayable"},{"type":"function","name":"hasAccess","inputs":[{"name":"account","type":"address","internalType":"address"}],"outputs":[{"name":"","type":"bool","internalType":"bool"}],"stateMutability":"view"},{"type":"function","name":"isFlipEnabled","inputs":[{"name":"","type":"address","internalType":"address"},{"name":"","type":"uint256","internalType":"uint256"}],"outputs":[{"name":"","type":"bool","internalType":"bool"}],"stateMutability":"view"},{"type":"function","name":"isFlipped","inputs":[{"name":"","type":"address","internalType":"address"},{"name":"","type":"uint256","internalType":"uint256"}],"outputs":[{"name":"","type":"bool","internalType":"bool"}],"stateMutability":"view"},{"type":"function","name":"isOwner","inputs":[],"outputs":[{"name":"","type":"bool","internalType":"bool"}],"stateMutability":"view"},{"type":"function","name":"revokeAccess","inputs":[{"name":"addr","type":"address","internalType":"address"}],"outputs":[],"stateMutability":"nonpayable"},{"type":"function","name":"secondImageChunkCount","inputs":[{"name":"","type":"address","internalType":"address"},{"name":"","type":"uint256","internalType":"uint256"}],"outputs":[{"name":"","type":"uint256","internalType":"uint256"}],"stateMutability":"view"},{"type":"function","name":"secondImageChunks","inputs":[{"name":"","type":"address","internalType":"address"},{"name":"","type":"uint256","internalType":"uint256"},{"name":"","type":"uint256","internalType":"uint256"}],"outputs":[{"name":"","type":"string","internalType":"string"}],"stateMutability":"view"},{"type":"function","name":"setFlipEnabled","inputs":[{"name":"contractAddress","type":"address","internalType":"address"},{"name":"tokenId","type":"uint256","internalType":"uint256"},{"name":"enabled","type":"bool","internalType":"bool"}],"outputs":[],"stateMutability":"nonpayable"},{"type":"function","name":"withdrawAll","inputs":[],"outputs":[],"stateMutability":"nonpayable"}],"bytecode":{"object":"0x60808060405234602c57600080546001600160a01b0319163317905560016002556114f590816100328239f35b600080fdfe6080604052600436101561001257600080fd5b60003560e01c806307ba8d3814610e235780630996306214610d4a5780630ae5e73914610cf557806310ac8a0714610ccd578063116c4f7a14610bf457806312b18b0a146106be5780631b4fec201461070b57806333b0560c14610bcc578063501e12e314610b8457806367342f9f14610b5c57806370137e9014610b14578063853828b6146109ab57806385e685311461095c57806388b8d3901461089c5780638f32d59b1461087457806395a078e814610835578063a81576df14610758578063ae39ca011461070b578063af43385b146106be578063b21717e8146105c0578063b35ffa9b14610410578063db1fc8a01461021d578063e4a3b6ec146101be5763e8a50d131461012457600080fd5b346101b95760603660031901126101b95761013d610e6a565b60443580151581036101b95761019e9160018060a01b0360005416331480156101a0575b61016a906110ec565b60018060a01b03166000526004602052604060002060243560005260205260406000209060ff801983541691151516179055565b005b503360009081526001602052604090205460ff16610161565b600080fd5b346101b9576101cc36610e80565b9160018060a01b031660005260076020526040600020906000526020526040600020906000526020526102196102056040600020610f06565b604051918291602083526020830190610fcd565b0390f35b346101b95761022b36611080565b919360018060a01b0360005416331480156103f7575b61024a906110ec565b60018060a01b03169182600052600760205260406000208460005260205260406000208560005260205260406000209167ffffffffffffffff82116103e1576102938354610eaa565b601f81116103a4575b50600090601f8311600114610340576102ce929160009183610335575b50508160011b916000199060031b1c19161790565b90555b8060005260086020526040600020826000526020526040600020548310156102f557005b6001830180931161031f576000526008602052604060002090600052602052604060002055600080f35b634e487b7160e01b600052601160045260246000fd5b0135905087806102b9565b8382526020822091601f198416815b81811061038c5750908460019594939210610372575b505050811b0190556102d1565b0135600019600384901b60f8161c19169055868080610365565b9193602060018192878701358155019501920161034f565b6103d190846000526020600020601f850160051c810191602086106103d7575b601f0160051c0190611129565b8661029c565b90915081906103c4565b634e487b7160e01b600052604160045260246000fd5b503360009081526001602052604090205460ff16610241565b346101b95761041e36611080565b919360018060a01b0360005416331480156105a7575b61043d906110ec565b60018060a01b03169182600052600560205260406000208460005260205260406000208560005260205260406000209167ffffffffffffffff82116103e1576104868354610eaa565b601f8111610575575b50600090601f8311600114610511576104c09291600091836103355750508160011b916000199060031b1c19161790565b90555b8060005260066020526040600020826000526020526040600020548310156104e757005b6001830180931161031f576000526006602052604060002090600052602052604060002055600080f35b8382526020822091601f198416815b81811061055d5750908460019594939210610543575b505050811b0190556104c3565b0135600019600384901b60f8161c19169055868080610536565b91936020600181928787013581550195019201610520565b6105a190846000526020600020601f850160051c810191602086106103d757601f0160051c0190611129565b8661048f565b503360009081526001602052604090205460ff16610434565b346101b95760403660031901126101b9576105d9610e6a565b6024359060018060a01b0360005416331480156106a5575b6105fa906110ec565b60018060a01b031680600052600460205260406000208260005260205260ff604060002054161561065157600090815260036020908152604080832093835292905220805460ff808216151660ff19909116179055005b60405162461bcd60e51b815260206004820152602660248201527f466c697070696e67206973206e6f7420656e61626c656420666f722074686973604482015265103a37b5b2b760d11b6064820152608490fd5b503360009081526001602052604090205460ff166105f1565b346101b95760403660031901126101b9576001600160a01b036106df610e6a565b1660005260036020526040600020602435600052602052602060ff604060002054166040519015158152f35b346101b95760403660031901126101b9576001600160a01b0361072c610e6a565b1660005260046020526040600020602435600052602052602060ff604060002054166040519015158152f35b346101b95761076636610ff2565b91926107748284101561120a565b60018060a01b0316928360005260086020526040600020816000526020526107a26040600020548410611246565b6107ac8284611288565b6001810180911161031f576107c0906112ad565b93825b848111156107d957604051806102198882611020565b6108309082600052600760205260406000208460005260205260406000208160005260205261082a60406000206108196108138885611288565b91610f06565b610823828b611306565b5288611306565b506112f7565b6107c3565b346101b95760203660031901126101b9576001600160a01b03610856610e6a565b166000526001602052602060ff604060002054166040519015158152f35b346101b95760003660031901126101b957602060018060a01b03600054163314604051908152f35b346101b9576108aa36610ff2565b91926108b88284101561120a565b60018060a01b0316928360005260066020526040600020816000526020526108e66040600020548410611246565b6108f08284611288565b6001810180911161031f57610904906112ad565b93825b8481111561091d57604051806102198882611020565b6109579082600052600560205260406000208460005260205260406000208160005260205261082a60406000206108196108138885611288565b610907565b346101b95760203660031901126101b957610975610e6a565b61098a60018060a01b0360005416331461118f565b6001600160a01b03166000908152600160205260409020805460ff19169055005b346101b95760003660031901126101b9576000546001600160a01b031633148015610afb575b6109da906110ec565b6002805414610ab65760028055478015610a7857600080808093335af13d15610a73573d67ffffffffffffffff81116103e15760405190610a25601f8201601f191660200183610ee4565b8152600060203d92013e5b15610a3c576001600255005b60405162461bcd60e51b815260206004820152600f60248201526e151c985b9cd9995c8819985a5b1959608a1b6044820152606490fd5b610a30565b60405162461bcd60e51b81526020600482015260166024820152754e6f2062616c616e636520746f20776974686472617760501b6044820152606490fd5b60405162461bcd60e51b815260206004820152601f60248201527f5265656e7472616e637947756172643a207265656e7472616e742063616c6c006044820152606490fd5b503360009081526001602052604090205460ff166109d1565b346101b95760403660031901126101b9576001600160a01b03610b35610e6a565b16600052600860205260406000206024356000526020526020604060002054604051908152f35b346101b95760403660031901126101b957610219610205610b7b610e6a565b6024359061143e565b346101b95760403660031901126101b9576001600160a01b03610ba5610e6a565b16600052600660205260406000206024356000526020526020604060002054604051908152f35b346101b95760403660031901126101b957610219610205610beb610e6a565b602435906111c7565b346101b95760403660031901126101b957610c0d610e6a565b6024359060018060a01b036000541633148015610cb4575b610c2e906110ec565b6001600160a01b031660005b816000526006602052604060002083600052602052604060002054811015610c9357600190826000526005602052604060002084600052602052604060002081600052602052610c8d6040600020611140565b01610c3a565b50600052600660205260406000209060005260205260006040812055600080f35b503360009081526001602052604090205460ff16610c25565b346101b95760403660031901126101b957610219610205610cec610e6a565b6024359061139e565b346101b95760203660031901126101b957610d0e610e6a565b610d2360018060a01b0360005416331461118f565b6001600160a01b03166000908152600160208190526040909120805460ff19169091179055005b346101b95760403660031901126101b957610d63610e6a565b6024359060018060a01b036000541633148015610e0a575b610d84906110ec565b6001600160a01b031660005b816000526008602052604060002083600052602052604060002054811015610de957600190826000526007602052604060002084600052602052604060002081600052602052610de36040600020611140565b01610d90565b50600052600860205260406000209060005260205260006040812055600080f35b503360009081526001602052604090205460ff16610d7b565b346101b957610e3136610e80565b9160018060a01b031660005260056020526040600020906000526020526040600020906000526020526102196102056040600020610f06565b600435906001600160a01b03821682036101b957565b60609060031901126101b9576004356001600160a01b03811681036101b957906024359060443590565b90600182811c92168015610eda575b6020831014610ec457565b634e487b7160e01b600052602260045260246000fd5b91607f1691610eb9565b90601f8019910116810190811067ffffffffffffffff8211176103e157604052565b9060405191826000825492610f1a84610eaa565b8084529360018116908115610f885750600114610f41575b50610f3f92500383610ee4565b565b90506000929192526020600020906000915b818310610f6c575050906020610f3f9282010138610f32565b6020919350806001915483858901015201910190918492610f53565b905060209250610f3f94915060ff191682840152151560051b82010138610f32565b60005b838110610fbd5750506000910152565b8181015183820152602001610fad565b90602091610fe681518092818552858086019101610faa565b601f01601f1916010190565b60809060031901126101b9576004356001600160a01b03811681036101b95790602435906044359060643590565b602081016020825282518091526040820191602060408360051b8301019401926000915b83831061105357505050505090565b9091929394602080611071600193603f198682030187528951610fcd565b97019301930191939290611044565b60806003198201126101b9576004356001600160a01b03811681036101b95791602435916044359160643567ffffffffffffffff81116101b957826023820112156101b95780600401359267ffffffffffffffff84116101b957602484830101116101b9576024019190565b156110f357565b60405162461bcd60e51b815260206004820152600e60248201526d139bdd08185d5d1a1bdc9a5e995960921b6044820152606490fd5b818110611134575050565b60008155600101611129565b61114a8154610eaa565b9081611154575050565b81601f60009311600114611166575055565b8183526020832061118291601f0160051c810190600101611129565b8082528160208120915555565b1561119657565b60405162461bcd60e51b81526020600482015260096024820152682737ba1030b236b4b760b91b6044820152606490fd5b9060018060a01b038216600052600360205260406000208160005260205260ff60406000205416600014611201576111fe9161139e565b90565b6111fe9161143e565b1561121157565b60405162461bcd60e51b815260206004820152600d60248201526c496e76616c69642072616e676560981b6044820152606490fd5b1561124d57565b60405162461bcd60e51b8152602060048201526013602482015272496e646578206f7574206f6620626f756e647360681b6044820152606490fd5b9190820391821161031f57565b67ffffffffffffffff81116103e15760051b60200190565b906112b782611295565b6112c46040519182610ee4565b82815280926112d5601f1991611295565b019060005b8281106112e657505050565b8060606020809385010152016112da565b600019811461031f5760010190565b805182101561131a5760209160051b010190565b634e487b7160e01b600052603260045260246000fd5b6000929181549161134083610eaa565b926001811690811561138b575060011461135957505050565b909192935060005260206000206000905b8382106113775750500190565b60018160209254848601520191019061136a565b60ff191683525050811515909102019150565b916000919060605b60018060a01b0385168060005260086020526040600020846000526020526040600020548510156114365761142e6001926020926000526007835260406000208660005283526040600020876000528352611420604060002060405194836114178795518092848089019101610faa565b84010190611330565b03601f198101835282610ee4565b9301926113a6565b509350915050565b916000919060605b60018060a01b038516806000526006602052604060002084600052602052604060002054851015611436576114b76001926020926000526005835260406000208660005283526040600020876000528352611420604060002060405194836114178795518092848089019101610faa565b93019261144656fea264697066735822122066195c6c9398f1fbe99bc382f7be3514b6079668e7a7a5c952928328ac991f6864736f6c634300081c0033","linkReferences":{}},"methodIdentifiers":{"addFirstImageChunk(address,uint256,uint256,string)":"b35ffa9b","addSecondImageChunk(address,uint256,uint256,string)":"db1fc8a0","deleteFirstImage(address,uint256)":"116c4f7a","deleteSecondImage(address,uint256)":"09963062","firstImageChunkCount(address,uint256)":"501e12e3","firstImageChunks(address,uint256,uint256)":"07ba8d38","flip(address,uint256)":"b21717e8","getFirstImage(address,uint256)":"67342f9f","getFirstImageChunks(address,uint256,uint256,uint256)":"88b8d390","getFlipEnabled(address,uint256)":"ae39ca01","getFlipState(address,uint256)":"12b18b0a","getImage(address,uint256)":"33b0560c","getSecondImage(address,uint256)":"10ac8a07","getSecondImageChunks(address,uint256,uint256,uint256)":"a81576df","grantAccess(address)":"0ae5e739","hasAccess(address)":"95a078e8","isFlipEnabled(address,uint256)":"1b4fec20","isFlipped(address,uint256)":"af43385b","isOwner()":"8f32d59b","revokeAccess(address)":"85e68531","secondImageChunkCount(address,uint256)":"70137e90","secondImageChunks(address,uint256,uint256)":"e4a3b6ec","setFlipEnabled(address,uint256,bool)":"e8a50d13","withdrawAll()":"853828b6"},"id":34}