{"abi":[{"type":"constructor","inputs":[],"stateMutability":"nonpayable"},{"type":"function","name":"addFirstImageChunk","inputs":[{"name":"chunkIndex","type":"uint256","internalType":"uint256"},{"name":"chunkData","type":"string","internalType":"string"}],"outputs":[],"stateMutability":"nonpayable"},{"type":"function","name":"addSecondImageChunk","inputs":[{"name":"chunkIndex","type":"uint256","internalType":"uint256"},{"name":"chunkData","type":"string","internalType":"string"}],"outputs":[],"stateMutability":"nonpayable"},{"type":"function","name":"deleteFirstImage","inputs":[],"outputs":[],"stateMutability":"nonpayable"},{"type":"function","name":"deleteSecondImage","inputs":[],"outputs":[],"stateMutability":"nonpayable"},{"type":"function","name":"flip","inputs":[],"outputs":[],"stateMutability":"nonpayable"},{"type":"function","name":"getFirstImage","inputs":[],"outputs":[{"name":"","type":"string","internalType":"string"}],"stateMutability":"view"},{"type":"function","name":"getImage","inputs":[],"outputs":[{"name":"","type":"string","internalType":"string"}],"stateMutability":"view"},{"type":"function","name":"getSecondImage","inputs":[],"outputs":[{"name":"","type":"string","internalType":"string"}],"stateMutability":"view"},{"type":"function","name":"grantAccess","inputs":[{"name":"addr","type":"address","internalType":"address"}],"outputs":[],"stateMutability":"nonpayable"},{"type":"function","name":"hasAccess","inputs":[{"name":"account","type":"address","internalType":"address"}],"outputs":[{"name":"","type":"bool","internalType":"bool"}],"stateMutability":"view"},{"type":"function","name":"isFlipped","inputs":[],"outputs":[{"name":"","type":"bool","internalType":"bool"}],"stateMutability":"view"},{"type":"function","name":"isOwner","inputs":[],"outputs":[{"name":"","type":"bool","internalType":"bool"}],"stateMutability":"view"},{"type":"function","name":"revokeAccess","inputs":[{"name":"addr","type":"address","internalType":"address"}],"outputs":[],"stateMutability":"nonpayable"},{"type":"function","name":"withdrawAll","inputs":[],"outputs":[],"stateMutability":"nonpayable"}],"bytecode":{"object":"0x60808060405234603157600080546001600160a01b031916331790556006805460ff19169055610ade90816100378239f35b600080fdfe6080604052600436101561001257600080fd5b60003560e01c806303e03c6e146106e25780630ae5e7391461068a578063161f5a10146106675780632edeeea61461050a578063668f7b781461048f578063853828b61461042657806385e68531146103d35780638f32d59b146103ab5780638feb144e1461033057806395a078e8146102ed5780639a9ed199146102d1578063b710e59814610147578063cde4efa9146100e75763f3651cbb146100b657600080fd5b346100e25760003660031901126100e2576100de6100d2610969565b60405191829182610721565b0390f35b600080fd5b346100e25760003660031901126100e2576000546001600160a01b03163314801561012e575b61011690610825565b60065460ff80821615169060ff191617600655600080f35b503360009081526001602052604090205460ff1661010d565b346100e2576101553661076f565b9060018060a01b0360005416331480156102b8575b61017390610825565b6101806004548214610862565b60005260026020526040600020815167ffffffffffffffff81116102a2576101a882546108a4565b601f8111610265575b50602092601f8211600114610202576101e4929382916000926101f7575b50508160011b916000199060031b1c19161790565b90555b6101f26004546108f5565b600455005b0151905084806101cf565b601f1982169383600052806000209160005b86811061024d5750836001959610610234575b505050811b0190556101e7565b015160001960f88460031b161c19169055838080610227565b91926020600181928685015181550194019201610214565b61029290836000526020600020601f840160051c81019160208510610298575b601f0160051c01906108de565b836101b1565b9091508190610285565b634e487b7160e01b600052604160045260246000fd5b503360009081526001602052604090205460ff1661016a565b346100e25760003660031901126100e2576100de6100d2610a5a565b346100e25760203660031901126100e2576004356001600160a01b038116908190036100e2576000526001602052602060ff604060002054166040519015158152f35b346100e25760003660031901126100e2576000546001600160a01b031633148015610392575b61035f90610825565b60005b60055481101561038b57806001916000526003602052610385604060002061091a565b01610362565b6000600555005b503360009081526001602052604090205460ff16610356565b346100e25760003660031901126100e257602060018060a01b03600054163314604051908152f35b346100e25760203660031901126100e2576004356001600160a01b038116908190036100e25761040e60018060a01b036000541633146107ed565b6000908152600160205260409020805460ff19169055005b346100e25760003660031901126100e2576000546001600160a01b031633148015610476575b61045590610825565b60008080804781811561046d575b3390f1156100e257005b506108fc610463565b503360009081526001602052604090205460ff1661044c565b346100e25760003660031901126100e2576000546001600160a01b0316331480156104f1575b6104be90610825565b60005b6004548110156104ea578060019160005260026020526104e4604060002061091a565b016104c1565b6000600455005b503360009081526001602052604090205460ff166104b5565b346100e2576105183661076f565b9060018060a01b03600054163314801561064e575b61053690610825565b6105436005548214610862565b60005260036020526040600020815167ffffffffffffffff81116102a25761056b82546108a4565b601f811161061c575b50602092601f82116001146105b9576105a6929382916000926101f75750508160011b916000199060031b1c19161790565b90555b6105b46005546108f5565b600555005b601f1982169383600052806000209160005b86811061060457508360019596106105eb575b505050811b0190556105a9565b015160001960f88460031b161c191690558380806105de565b919260206001819286850151815501940192016105cb565b61064890836000526020600020601f840160051c8101916020851061029857601f0160051c01906108de565b83610574565b503360009081526001602052604090205460ff1661052d565b346100e25760003660031901126100e257602060ff600654166040519015158152f35b346100e25760203660031901126100e2576004356001600160a01b038116908190036100e2576106c560018060a01b036000541633146107ed565b60005260016020526040600020600160ff19825416179055600080f35b346100e25760003660031901126100e2576100de6100d26109f5565b60005b8381106107115750506000910152565b8181015183820152602001610701565b6040916020825261074181518092816020860152602086860191016106fe565b601f01601f1916010190565b90601f8019910116810190811067ffffffffffffffff8211176102a257604052565b9060406003198301126100e2576004359160243567ffffffffffffffff81116100e257816023820112156100e25780600401359067ffffffffffffffff82116102a257604051926107ca601f8401601f19166020018561074d565b828452602483830101116100e25781600092602460209301838601378301015290565b156107f457565b60405162461bcd60e51b81526020600482015260096024820152682737ba1030b236b4b760b91b6044820152606490fd5b1561082c57565b60405162461bcd60e51b815260206004820152600e60248201526d139bdd08185d5d1a1bdc9a5e995960921b6044820152606490fd5b1561086957565b60405162461bcd60e51b8152602060048201526013602482015272092dcecc2d8d2c840c6d0eadcd640d2dcc8caf606b1b6044820152606490fd5b90600182811c921680156108d4575b60208310146108be57565b634e487b7160e01b600052602260045260246000fd5b91607f16916108b3565b8181106108e9575050565b600081556001016108de565b60001981146109045760010190565b634e487b7160e01b600052601160045260246000fd5b61092481546108a4565b908161092e575050565b81601f60009311600114610940575055565b8183526020832061095c91601f0160051c8101906001016108de565b8082528160208120915555565b60065460ff161561097f5761097c6109f5565b90565b61097c610a5a565b60009291815491610997836108a4565b92600181169081156109e257506001146109b057505050565b909192935060005260206000206000905b8382106109ce5750500190565b6001816020925484860152019101906109c1565b60ff191683525050811515909102019150565b606060006005545b808210610a0957505090565b90916020610a526001928560005260038352610a4460406000206040519483610a3b87955180928480890191016106fe565b84010190610987565b03601f19810183528261074d565b9201906109fd565b606060006004545b808210610a6e57505090565b90916020610aa06001928560005260028352610a4460406000206040519483610a3b87955180928480890191016106fe565b920190610a6256fea2646970667358221220667249d632ad63a3c02534d88beac8155dd3d95bd1584f1a2564beea59901de964736f6c634300081c0033","linkReferences":{}},"methodIdentifiers":{"addFirstImageChunk(uint256,string)":"b710e598","addSecondImageChunk(uint256,string)":"2edeeea6","deleteFirstImage()":"668f7b78","deleteSecondImage()":"8feb144e","flip()":"cde4efa9","getFirstImage()":"9a9ed199","getImage()":"f3651cbb","getSecondImage()":"03e03c6e","grantAccess(address)":"0ae5e739","hasAccess(address)":"95a078e8","isFlipped()":"161f5a10","isOwner()":"8f32d59b","revokeAccess(address)":"85e68531","withdrawAll()":"853828b6"},"id":33}