{"abi":[{"type":"constructor","inputs":[],"stateMutability":"nonpayable"},{"type":"function","name":"addColorPalette","inputs":[{"name":"name","type":"string","internalType":"string"},{"name":"colorString","type":"string","internalType":"string"},{"name":"index","type":"uint256","internalType":"uint256"}],"outputs":[],"stateMutability":"nonpayable"},{"type":"function","name":"addColorPalettesInBulk","inputs":[{"name":"palettes","type":"string","internalType":"string"},{"name":"index","type":"uint256","internalType":"uint256"}],"outputs":[],"stateMutability":"nonpayable"},{"type":"function","name":"adjustColor","inputs":[{"name":"hexColor","type":"string","internalType":"string"},{"name":"percent","type":"int256","internalType":"int256"}],"outputs":[{"name":"","type":"string","internalType":"string"}],"stateMutability":"pure"},{"type":"function","name":"clearColors","inputs":[{"name":"index","type":"uint256","internalType":"uint256"}],"outputs":[],"stateMutability":"nonpayable"},{"type":"function","name":"colorPalettes","inputs":[{"name":"","type":"uint256","internalType":"uint256"},{"name":"","type":"uint256","internalType":"uint256"}],"outputs":[{"name":"name","type":"string","internalType":"string"}],"stateMutability":"view"},{"type":"function","name":"getAllPalettes","inputs":[{"name":"index","type":"uint256","internalType":"uint256"}],"outputs":[{"name":"","type":"tuple[]","internalType":"struct ColorEngine.ColorPalette[]","components":[{"name":"name","type":"string","internalType":"string"},{"name":"colors","type":"string[]","internalType":"string[]"}]}],"stateMutability":"view"},{"type":"function","name":"getColor","inputs":[{"name":"paletteIndex","type":"uint256","internalType":"uint256"},{"name":"colorIndex","type":"uint256","internalType":"uint256"},{"name":"index","type":"uint256","internalType":"uint256"}],"outputs":[{"name":"","type":"string","internalType":"string"}],"stateMutability":"view"},{"type":"function","name":"getColorPaletteForJson","inputs":[{"name":"paletteIndex","type":"uint256","internalType":"uint256"},{"name":"index","type":"uint256","internalType":"uint256"}],"outputs":[{"name":"","type":"string","internalType":"string"}],"stateMutability":"view"},{"type":"function","name":"getLuminance","inputs":[{"name":"hexColor","type":"string","internalType":"string"}],"outputs":[{"name":"","type":"uint256","internalType":"uint256"}],"stateMutability":"pure"},{"type":"function","name":"getPalette","inputs":[{"name":"paletteIndex","type":"uint256","internalType":"uint256"},{"name":"index","type":"uint256","internalType":"uint256"}],"outputs":[{"name":"","type":"tuple","internalType":"struct ColorEngine.ColorPalette","components":[{"name":"name","type":"string","internalType":"string"},{"name":"colors","type":"string[]","internalType":"string[]"}]}],"stateMutability":"view"},{"type":"function","name":"getPaletteColors","inputs":[{"name":"paletteIndex","type":"uint256","internalType":"uint256"},{"name":"index","type":"uint256","internalType":"uint256"}],"outputs":[{"name":"","type":"string[]","internalType":"string[]"}],"stateMutability":"view"},{"type":"function","name":"getPaletteCount","inputs":[{"name":"index","type":"uint256","internalType":"uint256"}],"outputs":[{"name":"","type":"uint256","internalType":"uint256"}],"stateMutability":"view"},{"type":"function","name":"getPaletteLength","inputs":[{"name":"paletteIndex","type":"uint256","internalType":"uint256"},{"name":"index","type":"uint256","internalType":"uint256"}],"outputs":[{"name":"","type":"uint256","internalType":"uint256"}],"stateMutability":"view"},{"type":"function","name":"getPaletteName","inputs":[{"name":"paletteIndex","type":"uint256","internalType":"uint256"},{"name":"index","type":"uint256","internalType":"uint256"}],"outputs":[{"name":"","type":"string","internalType":"string"}],"stateMutability":"view"},{"type":"function","name":"grantAccess","inputs":[{"name":"addr","type":"address","internalType":"address"}],"outputs":[],"stateMutability":"nonpayable"},{"type":"function","name":"hasAccess","inputs":[{"name":"account","type":"address","internalType":"address"}],"outputs":[{"name":"","type":"bool","internalType":"bool"}],"stateMutability":"view"},{"type":"function","name":"isOwner","inputs":[],"outputs":[{"name":"","type":"bool","internalType":"bool"}],"stateMutability":"view"},{"type":"function","name":"owner","inputs":[],"outputs":[{"name":"","type":"address","internalType":"address"}],"stateMutability":"view"},{"type":"function","name":"paletteCount","inputs":[{"name":"","type":"uint256","internalType":"uint256"}],"outputs":[{"name":"","type":"uint256","internalType":"uint256"}],"stateMutability":"view"},{"type":"function","name":"revokeAccess","inputs":[{"name":"addr","type":"address","internalType":"address"}],"outputs":[],"stateMutability":"nonpayable"},{"type":"function","name":"setPaletteName","inputs":[{"name":"paletteIndex","type":"uint256","internalType":"uint256"},{"name":"newName","type":"string","internalType":"string"},{"name":"index","type":"uint256","internalType":"uint256"}],"outputs":[],"stateMutability":"nonpayable"},{"type":"function","name":"updateColorPalette","inputs":[{"name":"paletteIndex","type":"uint256","internalType":"uint256"},{"name":"name","type":"string","internalType":"string"},{"name":"colorString","type":"string","internalType":"string"},{"name":"index","type":"uint256","internalType":"uint256"}],"outputs":[],"stateMutability":"nonpayable"},{"type":"function","name":"updateColorPaletteName","inputs":[{"name":"paletteIndex","type":"uint256","internalType":"uint256"},{"name":"name","type":"string","internalType":"string"},{"name":"index","type":"uint256","internalType":"uint256"}],"outputs":[],"stateMutability":"nonpayable"}],"bytecode":{"object":"0x60808060405234602757600080546001600160a01b03191633179055611f95908161002d8239f35b600080fdfe608080604052600436101561001357600080fd5b60003560e01c90816309b52f99146110ab575080630ae5e7391461105357806310909ecb14610f8b5780631f3b1ef414610f40578063226508bd14610e8e57806323301b3e14610e4057806323a659d614610dbe57806327f3795414610c6f5780632fbdeb7014610b4d57806344e7aaec14610ac057806372625c9e146108a95780637fa21d34146107fb57806385e68531146107a857806387ab9fa2146107695780638da5cb5b146107405780638e869eb9146105d35780638f32d59b146105ab57806395a078e8146105685780639f8add7b146103a8578063a202cb811461035d578063b2a7d2b814610284578063e7acc9901461014d5763fbf91fdf1461011c57600080fd5b346101485760203660031901126101485760043560005260046020526020604060002054604051908152f35b600080fd5b34610148576020366003190112610148576004356001600160401b0381116101485761017d90369060040161119e565b6000908051158015908161024f575b50610246575b61019c8282611b6e565b9060028301808411610230576101b29082611b6e565b9260048101809111610230576101c791611b6e565b918161012b029161012b830403610230578061024b029061024b820403610230576101f191611702565b90806072029060728204036102305761020991611702565b6103e88102908082046103e814901517156102305760209061271060ff6040519204048152f35b634e487b7160e01b600052601160045260246000fd5b60019150610192565b90506102705760208101516001600160f81b031916602360f81b148361018c565b634e487b7160e01b82526032600452602482fd5b346101485760203660031901126101485760043560018060a01b036000541633148015610344575b6102b59061148c565b60005b81600052600460205260406000205481101561033257816000526003602052604060002081600052602052600160406000206102f381611931565b01805490600081558161030b575b50506001016102b8565b6000526020600020908101905b81811015610301578061032c600192611931565b01610318565b50600090815260046020526040812055005b503360009081526001602052604090205460ff166102ac565b346101485761036b3661111b565b9060005260036020526040600020906000526020526103a461039060406000206112cd565b6040519182916020835260208301906110f6565b0390f35b34610148576060366003190112610148576004356001600160401b038111610148576103d890369060040161119e565b6024356001600160401b038111610148576103f790369060040161119e565b9060443560018060a01b03600054163314801561054f575b6104189061148c565b60005b82518110156104a8576001906104626001600160f81b031961043d8387611688565b5116604160f81b8110159081610499575b8115610475575b8115610468575b50611699565b0161041b565b90508360fd1b148761045c565b9050606160f81b8110158061048b575b90610455565b50603d60f91b811115610485565b602d60f91b811115915061044e565b50916104bc906104b661160d565b90611980565b8260005260046020526104ee6040600020549284600052600360205260406000208460005260205260406000206114e0565b60005b81518110156105335760019084600052600360205260406000208460005260205261052d8260406000200161052683866115f9565b5190611651565b016104f1565b836000526004602052604060002061054b8154611679565b9055005b503360009081526001602052604090205460ff1661040f565b34610148576020366003190112610148576004356001600160a01b03811690819003610148576000526001602052602060ff604060002054166040519015158152f35b3461014857600036600319011261014857602060018060a01b03600054163314604051908152f35b34610148576105e13661111b565b908160005260046020526105fb60406000205482106113aa565b8160005260036020526040600020816000526020526106286106236001604060002001611434565b611ca4565b916000526003602052604060002090600052602052604060002060405190607b60f81b602083015268113730b6b2911d101160b91b602183015260009080549061067182611293565b916001811690811561071957506001146106dc575b6103a4846103906001600c838a8961088b60f21b81526901131b7b637b939911d160b51b60028201526106c282518093602087850191016110d3565b01607d60f81b838201520301601e19810184520182611162565b90915060005260206000206000905b8282106107025750508101602a016001600c610686565b60018160209254602a8588010152019101906106eb565b60ff1916602a808701919091528315159093028501909201925060019150600c9050610686565b34610148576000366003190112610148576002546040516001600160a01b039091168152602090f35b34610148576040366003190112610148576004356001600160401b0381116101485761039061079f6103a492369060040161119e565b6024359061172f565b34610148576020366003190112610148576004356001600160a01b03811690819003610148576107e360018060a01b03600054163314611371565b6000908152600160205260409020805460ff19169055005b3461014857610809366111e5565b9160018060a01b036000541633148015610890575b6108279061148c565b82600052600460205261084060406000205482106113aa565b60005b825181101561086b576001906108656001600160f81b031961043d8387611688565b01610843565b5061088e92600052600360205260406000209060005260205260406000206114e0565b005b503360009081526001602052604090205460ff1661081e565b34610148576040366003190112610148576004356001600160401b038111610148576108d990369060040161119e565b60243560018060a01b036000541633148015610aa7575b6108fc9092919261148c565b61092260409182519061090f8483611162565b60018252601f60fa1b6020830152611980565b916000915b835183101561088e5761095e61093d84866115f9565b5182519061094b8483611162565b60018252601360f91b6020830152611980565b6002815103610a3d576000815115610a2957506020810151906000815160011015610a295750826109939101516104b661160d565b928060005260046020526109c38360002054928260005260036020528460002084600052602052846000206114e0565b60005b84518110156109ff5760019082600052600360205284600020846000526020526109f982866000200161052683896115f9565b016109c6565b50925050929160019082600052600460205284600020610a1f8154611679565b9055019192610927565b634e487b7160e01b81526032600452602490fd5b815162461bcd60e51b815260206004820152603d60248201527f496e76616c696420666f726d61743a20456163682070616c65747465206d757360448201527f7420686176652061206e616d6520616e6420636f6c6f72206c6973742e0000006064820152608490fd5b503360009081526001602052604090205460ff166108f0565b34610148576103a4610ad13661111b565b90610ada6115e0565b50816000526004602052610af460406000205482106113aa565b600091825260036020908152604080842092845291905290819020905190610b34906001810190610b2d90610b2885611131565b6112cd565b8352611434565b602082015260405191829160208352602083019061121b565b34610148576080366003190112610148576004356024356001600160401b03811161014857610b8090369060040161119e565b6044356001600160401b03811161014857610b9f90369060040161119e565b90610c08610be86064359360018060a01b036000541633148015610c56575b610bc79061148c565b846000526004602052610be060406000205487106113aa565b6104b661160d565b9183600052600360205260406000208560005260205260406000206114e0565b60005b815181101561088e5780610c50610c24600193856115f9565b51856000526003602052604060002087600052602052610c4a83856040600020016113ef565b9061162c565b01610c0b565b503360009081526001602052604090205460ff16610bbe565b346101485760203660031901126101485760043580600052600460205260406000205490610c9c8261141d565b91610caa6040519384611162565b808352610cb9601f199161141d565b0160005b818110610da757505060005b816000526004602052604060002054811015610d3f576001908260005260036020526040600020816000526020526040600020610d1e8360405192610d0d84611131565b610d16816112cd565b845201611434565b6020820152610d2d82866115f9565b52610d3881856115f9565b5001610cc9565b826040518091602082016020835281518091526040830190602060408260051b8601019301916000905b828210610d7857505050500390f35b91936001919395506020610d978192603f198a8203018652885161121b565b9601920192018594939192610d69565b602090610db26115e0565b82828701015201610cbd565b346101485761088e610dcf366111e5565b6000549192916001600160a01b031633148015610e27575b610df09061148c565b806000526004602052610e0960406000205483106113aa565b600052600360205260406000209060005260205260406000206114e0565b503360009081526001602052604090205460ff16610de7565b3461014857610e4e3661111b565b806000526004602052610e6760406000205483106113aa565b60005260036020526040600020906000526020526020600160406000200154604051908152f35b3461014857610e9c3661111b565b806000526004602052610eb560406000205483106113aa565b6000526003602052604060002090600052602052610ed96001604060002001611434565b6040518091602082016020835281518091526040830190602060408260051b8601019301916000905b828210610f1157505050500390f35b91936001919395506020610f308192603f198a820301865288516110f6565b9601920192018594939192610f02565b3461014857610f4e3661111b565b806000526004602052610f6760406000205483106113aa565b60005260036020526040600020906000526020526103a461039060406000206112cd565b346101485760603660031901126101485760043560243590604435806000526004602052610fbf60406000205483106113aa565b806000526003602052604060002082600052602052600160406000200154831015611017576103a4926103909261101192600052600360205260406000209060005260205260016040600020016113ef565b506112cd565b60405162461bcd60e51b815260206004820152601460248201527310dbdb1bdc88191bd95cc81b9bdd08195e1a5cdd60621b6044820152606490fd5b34610148576020366003190112610148576004356001600160a01b038116908190036101485761108e60018060a01b03600054163314611371565b60005260016020526040600020600160ff19825416179055600080f35b3461014857602036600319011261014857602090600435600052600482526040600020548152f35b60005b8381106110e65750506000910152565b81810151838201526020016110d6565b9060209161110f815180928185528580860191016110d3565b601f01601f1916010190565b6040906003190112610148576004359060243590565b604081019081106001600160401b0382111761114c57604052565b634e487b7160e01b600052604160045260246000fd5b90601f801991011681019081106001600160401b0382111761114c57604052565b6001600160401b03811161114c57601f01601f191660200190565b81601f82011215610148578035906111b582611183565b926111c36040519485611162565b8284526020838301011161014857816000926020809301838601378301015290565b9060606003198301126101485760043591602435906001600160401b038211610148576112149160040161119e565b9060443590565b602061123082516040855260408501906110f6565b910151916020818303910152815180825260208201916020808360051b8301019401926000915b83831061126657505050505090565b9091929394602080611284600193601f1986820301875289516110f6565b97019301930191939290611257565b90600182811c921680156112c3575b60208310146112ad57565b634e487b7160e01b600052602260045260246000fd5b91607f16916112a2565b90604051918260008254926112e184611293565b808452936001811690811561134f5750600114611308575b5061130692500383611162565b565b90506000929192526020600020906000915b81831061133357505090602061130692820101386112f9565b602091935080600191548385890101520191019091849261131a565b90506020925061130694915060ff191682840152151560051b820101386112f9565b1561137857565b60405162461bcd60e51b815260206004820152600a6024820152694e6f7420616e6472657760b01b6044820152606490fd5b156113b157565b60405162461bcd60e51b815260206004820152601660248201527514185b195d1d1948191bd95cc81b9bdd08195e1a5cdd60521b6044820152606490fd5b80548210156114075760005260206000200190600090565b634e487b7160e01b600052603260045260246000fd5b6001600160401b03811161114c5760051b60200190565b9081546114408161141d565b9261144e6040519485611162565b818452602084019060005260206000206000915b83831061146f5750505050565b60016020819261147e856112cd565b815201920192019190611462565b1561149357565b60405162461bcd60e51b815260206004820152600e60248201526d139bdd08185d5d1a1bdc9a5e995960921b6044820152606490fd5b8181106114d4575050565b600081556001016114c9565b91909182516001600160401b03811161114c576114fd8254611293565b601f81116115a3575b506020601f82116001146115415781929394600092611536575b50508160011b916000199060031b1c1916179055565b015190503880611520565b601f1982169083600052806000209160005b81811061158b57509583600195969710611572575b505050811b019055565b015160001960f88460031b161c19169055388080611568565b9192602060018192868b015181550194019201611553565b6115d090836000526020600020601f840160051c810191602085106115d6575b601f0160051c01906114c9565b38611506565b90915081906115c3565b604051906115ed82611131565b60606020838281520152565b80518210156114075760209160051b010190565b6040519061161c604083611162565b60018252600b60fa1b6020830152565b919061163b57611306916114e0565b634e487b7160e01b600052600060045260246000fd5b908154916801000000000000000083101561114c5782610c4a916001611306950181556113ef565b60001981146102305760010190565b908151811015611407570160200190565b156116a057565b60405162461bcd60e51b815260206004820152603460248201527f4e616d65206d75737420626520616c7068616265746963616c206368617261636044820152737465727320616e6420737061636573206f6e6c7960601b6064820152608490fd5b9190820180921161023057565b9190820391821161023057565b8181029291811591840414171561023057565b811561192c5760008151158015908161190b575b50611903575b6117538183611b6e565b9160028201808311610230576117699082611b6e565b91600481018091116102305761177e91611b6e565b92600081121561189c5780606401908112600116610230576000811361186e5750505050600061184d81805b8060ff10600014611868575060ff925b8060ff10600014611862575060ff905b8060ff10600014611850575060206117f56117ef6117e960ff96611c47565b93611c47565b94611c47565b61183e6021604051968795602360f81b8688015261181b8151809288868b0191016110d3565b860161182f825180938886850191016110d3565b010191828151948592016110d3565b0103601f198101835282611162565b90565b6117f56117ef6117e960209396611c47565b906117ca565b926117ba565b61189581606461188e8282611887819761184d9a61171c565b049661171c565b049561171c565b04906117aa565b918060ff039060ff82116102305760646118b9856118c09461171c565b0490611702565b908060ff039060ff82116102305760646118b9856118dd9461171c565b928060ff039060ff82116102305760646118b961184d956118fd9461171c565b906117aa565b506001611749565b9050610a295760208201516001600160f81b031916602360f81b1438611743565b905090565b61193b8154611293565b9081611945575050565b81601f60009311600114611957575055565b8183526020832061197391601f0160051c8101906001016114c9565b8082528160208120915555565b9060016000915b611994845182519061170f565b6001810180911161023057831015611a285760019360005b8251811015611a1e576001600160f81b03196119d16119cb8388611702565b84611688565b51166001600160f81b03196119e68386611688565b5116036119f5576001016119ac565b5093509160005b611a0a575b60010191611987565b90611a16600191611679565b919050611a01565b50939290926119fc565b929150611a348161141d565b90611a426040519283611162565b808252611a51601f199161141d565b0160005b818110611b5d5750506000928392845b611a72825184519061170f565b6001810180911161023057861015611b345760019460005b8451811015611b2a576001600160f81b0319611aaf611aa9838b611702565b86611688565b51166001600160f81b0319611ac48388611688565b511603611ad357600101611a8a565b5094509460005b611ae8575b60010194611a65565b9394611af9858397611b1494611de4565b611b0382866115f9565b52611b0e81856115f9565b50611679565b936001611b22835186611702565b949050611adf565b5094959095611ada565b929450611b489150611b5993815191611de4565b611b5282856115f9565b52826115f9565b5090565b806060602080938601015201611a55565b6001820191828111610230578151831015611c0257611ba0611bb291611b9960ff60f81b9185611688565b5116611e66565b91611b9960009460ff60f81b92611688565b9060041b90610ff060f0831692168203611bee5760ff16019060ff8211611bda575060ff1690565b634e487b7160e01b81526011600452602490fd5b634e487b7160e01b83526011600452602483fd5b60405162461bcd60e51b815260206004820152601960248201527f496e76616c69642068657820737472696e67206c656e677468000000000000006044820152606490fd5b604090815191611c578184611162565b600283526020830190601f1901368237611c7660ff8360041c16611f1d565b60001a9183511561140757611c8f92600f925316611f1d565b60001a81516001101561140757602182015390565b90815115611dc25760408051611cba8282611162565b60018152605b60f81b6020820152926000935b8151851015611d865760019085611d4a575b611d428280611cee89876115f9565b5193602088519582611d0988945180928580880191016110d3565b8301601160f91b83820152611d2782518093856021850191016110d3565b0101601160f91b838201520301601e19810184520182611162565b940193611ccd565b611d81826020865184611d6682965180928580860191016110d3565b8101600b60fa1b838201520301601e19810184520182611162565b611cdf565b929350506001602061184d925184611da782965180928580860191016110d3565b8101605d60f81b838201520301601e19810184520182611162565b9050604051611dd2604082611162565b60028152615b5d60f01b602082015290565b9291611df0828261170f565b91611dfa83611183565b92611e086040519485611162565b808452611e17601f1991611183565b01366020850137805b828110611e2f57509193505050565b6001906001600160f81b0319611e458289611688565b5116611e5f611e54858461170f565b9160001a9187611688565b5301611e20565b60f81c603081101580611f12575b611f0357604181101580611ef8575b611ee957606181101580611ede575b611ecf5760405162461bcd60e51b8152602060048201526011602482015270125b9d985b1a59081a195e08191a59da5d607a1b6044820152606490fd5b6056190160ff81116102305790565b506066811115611e92565b6036190160ff81116102305790565b506046811115611e83565b602f190160ff81116102305790565b506039811115611e74565b60ff16600a811015611f445760300160ff81116102305760f81b6001600160f81b03191690565b60570160ff81116102305760f81b6001600160f81b0319169056fea2646970667358221220ff77944df08cda8761bab69f1f8daa30cf007bf43090fdbc0c80b9c1b4a3107064736f6c634300081c0033","linkReferences":{}},"methodIdentifiers":{"addColorPalette(string,string,uint256)":"9f8add7b","addColorPalettesInBulk(string,uint256)":"72625c9e","adjustColor(string,int256)":"87ab9fa2","clearColors(uint256)":"b2a7d2b8","colorPalettes(uint256,uint256)":"a202cb81","getAllPalettes(uint256)":"27f37954","getColor(uint256,uint256,uint256)":"10909ecb","getColorPaletteForJson(uint256,uint256)":"8e869eb9","getLuminance(string)":"e7acc990","getPalette(uint256,uint256)":"44e7aaec","getPaletteColors(uint256,uint256)":"226508bd","getPaletteCount(uint256)":"09b52f99","getPaletteLength(uint256,uint256)":"23301b3e","getPaletteName(uint256,uint256)":"1f3b1ef4","grantAccess(address)":"0ae5e739","hasAccess(address)":"95a078e8","isOwner()":"8f32d59b","owner()":"8da5cb5b","paletteCount(uint256)":"fbf91fdf","revokeAccess(address)":"85e68531","setPaletteName(uint256,string,uint256)":"23a659d6","updateColorPalette(uint256,string,string,uint256)":"2fbdeb70","updateColorPaletteName(uint256,string,uint256)":"7fa21d34"},"id":33}