{"abi":[{"type":"constructor","inputs":[],"stateMutability":"nonpayable"},{"type":"function","name":"getColors","inputs":[],"outputs":[{"name":"","type":"string[]","internalType":"string[]"}],"stateMutability":"view"},{"type":"function","name":"palettes","inputs":[{"name":"","type":"uint256","internalType":"uint256"}],"outputs":[{"name":"","type":"string","internalType":"string"}],"stateMutability":"view"}],"bytecode":{"object":"0x608060405234614a5b57604051610e4081016001600160401b038111828210176149a15760405261003060a0614a60565b607781527f233865306430302c233761306130302c236133306530302c233636303930302c60208201527f233964613333322c233937396333302c236235626233612c236362626435322c60408201527f236332623333612c236162356634652c236131356234612c233536363834362c60608201527f233733613761392c236237393736622c23653164396332000000000000000000608082015281526100d860a0614a60565b606f81527f236338633639392c236334633239322c236362633839352c233263366434312c60208201527f233262363933662c233262366534302c233566613539352c233630613339332c60408201527f233865336631612c233861336431392c236332326433622c233966623436642c60608201526e233261313631362c2363303830343760881b6080820152602082015261017560a0614a60565b607781527f233036313432632c233037313633312c233036313432642c233035313232392c60208201527f236532643261632c236533643462312c236533643562352c236136623135642c60408201527f236134616635612c233536383034372c233534376534352c236538616537372c60608201527f236137376434642c236231343433642c233237363638370000000000000000006080820152604082015261022060a0614a60565b607781527f236337323236632c236364323336662c236337323336642c236335323036612c60208201527f236262616432362c236265616632372c236239616232372c233435376131312c60408201527f233437376531312c233266353137372c233331353437632c236332343139372c60608201527f236434393662652c233631396261372c23626162633966000000000000000000608082015260608201526102cb60a0614a60565b606f81527f233734303030302c233761303030302c233730303130312c233735303130312c60208201527f233564393938612c233566396238632c236236386430372c236261393030372c60408201527f236235386430382c233563393938612c236439636661392c236439636661362c60608201526e233365373232612c2339393739326360881b6080820152608082015261036860a0614a60565b606f81527f233837376235642c233834373935632c233839376335642c236533633536612c60208201527f236532633236352c236533633636642c236334626161362c236339626661632c60408201527f233236326531322c233234326331312c233664383135332c233831346630362c60608201526e233634303631332c2334653830393360881b608082015260a082015261040560a0614a60565b606f81527f236538643261392c236561643361392c236561643561652c236537636661322c60208201527f236538643161362c236538643361622c236236323031652c236233323131652c60408201527f233366373939662c233430373739632c236134393232382c236130386532372c60608201526e233565366433332c2335393638333160881b608082015260c08201526104a260a0614a60565b606f81527f233132313531642c233130313231392c233065313031362c236365623331622c60208201527f236362623131612c236337616431612c233766306232352c233735306132312c60408201527f236265373131332c236234366331332c233339373734382c236362346234362c60608201526e119a181c189b9a9611b21bb21c9c3160891b608082015260e082015261053f60a0614a60565b606f81527f236334626639352c236338633439642c236363633861342c233561373830642c60208201527f233532366530632c233536373430622c233739393334312c233765396134322c60408201527f236134383835632c236136386336342c236164623237392c236163616638332c60608201526e08d8ce18cc4d0e0b08d898ce198c99608a1b60808201526101008201526105dd6080614a60565b605781527f236433323538372c236464343039392c236430323538362c236461326639302c60208201527f236536633232622c236561633934382c233663376532372c233739386332622c60408201527f236536643237342c236635663566352c2361623564313400000000000000000060608201526101208201526106636080614a60565b605f81527f236335636162392c236361636662662c236330633662332c236336636462372c60208201527f233832303033302c233761303032642c233562386133632c233537383333612c60408201527f236332396630302c233465316231662c233264346333302c233835623238350060608201526101408201526106e960a0614a60565b606781527f233137316231392c233236326332392c233133313631342c233233323932362c60208201527f236139313430322c236132313130312c236361313630322c236430393531342c60408201527f236363393231342c236539613932302c233361363231662c233762613137642c60608201526608d94d994c584d60ca1b608082015261016082015261077f60a0614a60565b606f81527f236263326330652c236232323630612c236164333631662c233236346536362c60208201527f233261356237392c233164336535332c236630653062332c236339613236362c60408201527f236331393334652c236364613737302c233731383331632c233763386631652c60608201526e046cc60ca60c4665846cc66ca70c67608b1b608082015261018082015261081d60a0614a60565b606f81527f233739303231332c233639303231312c233734303631372c233734303231332c60208201527f236231386433362c236163383833352c236134383233322c236463643962362c60408201527f236436643261392c236462643862382c233334323333342c233366303431372c60608201526e119c1bb1b231329611b1981a181bb160891b60808201526101a08201526108bb60a0614a60565b607781527f233133326532622c233066323432322c233137333633322c236330623131642c60208201527f236236613631622c233237373033642c233235366133612c233065353638372c60408201527f233130356639342c236335326331312c236232323831302c236439383437332c60608201527f236134383233322c233661613831652c2337656362393900000000000000000060808201526101c082015261096760a0614a60565b606f81527f233935323833322c233831323232632c233937323132642c233930396435352c60208201527f233932613134662c233832386634642c236666666166372c236666666666662c60408201527f236237393735642c236264613036622c233630393235312c233738366337382c60608201526e236536386462382c2339616361643960881b60808201526101e0820152610a0560a0614a60565b606f81527f236562363532312c236564373633622c236530363332342c236337343631382c60208201527f236266343431382c236366343030632c236135366133322c236134363933322c60408201527f236437633331342c236465636231622c233131316436662c236136626363312c60608201526e119c1b1833191896119931199b981b60891b6080820152610200820152610aa360a0614a60565b607781527f236533643663372c236565653664642c236530643363322c236561646664312c60208201527f236330303232642c236236303232632c236361303233312c233732313534332c60408201527f233561313133362c233764613239642c233835613861332c233164343236302c60608201527f233162336535612c236562383563372c233835346338630000000000000000006080820152610220820152610b4f60c0614a60565b609f81527f236637656265332c236639663165622c236637653864662c236638656265332c60208201527f233031303330352c233034306431352c233037316435332c233036313834362c60408201527f233234306431322c233161303930642c236637656265332c233031303330352c60608201527f233037316435332c233234306431322c236533616333352c236535623234332c60808201527f233661323232372c236235356534302c233338346133342c236235613031630060a0820152610240820152610c2160a0614a60565b607781527f233030303332362c233030303433332c233035303031662c236430613632322c60208201527f236337396532332c236135303030382c236161303330632c236363653364392c60408201527f236434653764662c233633383439662c233731386661382c236439386463302c60608201527f233030323864632c233564376436372c236233633437380000000000000000006080820152610260820152610ccd60a0614a60565b606781527f236564656464652c236538653864342c236631663165352c236536643236662c60208201527f236538643637642c236537643337342c233966376534372c233937373934342c60408201527f236564653861382c236566656161662c236163376539612c236564633464362c60608201526611b13099b31b3360c91b6080820152610280820152610d6360a0614a60565b606f81527f236437326132662c236439333633622c236365323732642c236432323832652c60208201527f233438393164322c233432386564312c233533393063362c236533663264362c60408201527f236561663565302c236438653963382c236437386435342c233066316436642c60608201526e0466cccc4686cc85846c8607064727608b1b60808201526102a0820152610e0160a0614a60565b606f81527f236463643763372c236438643263302c236465646263652c236436643062642c60208201527f236430633962342c236434636462352c233838303431382c233931303431612c60408201527f233437383137612c233433376137342c236233626437322c233235343334352c60608201526e236437383761352c2364353963383160881b60808201526102c0820152610e9f6080614a60565b604f81527f236437643963352c236435643763312c236439646263372c236439646263372c60208201527f236233326234342c236236326234342c236239326434362c236335383438312c60408201526e0236337383838352c2363363834383608c1b60608201526102e0820152610f1760a0614a60565b607f81527f233933366230302c233965373430302c233866363930302c233836363330332c60208201527f236362353361362c236365356161392c236337343339642c236365353561372c60408201527f233661303334302c233732303434362c236137313131382c236235313231612c60608201527f233139323331322c236435616230302c233539353131322c23383739643839006080820152610300820152610fc360a0614a60565b606f81527f233238373632652c233237373232642c233265383533352c233232366432382c60208201527f233264376233342c233330376533362c236666313736392c236666316636642c60408201527f236666646565362c236666653565632c233030326239642c233365396530392c60608201526e08d98dd9998d994b08ce0d0c990d59608a1b60808201526103208201526110616080614a60565b605f81527f233062313531662c233130316632642c233035306130662c233034313131662c60208201527f233662393734342c233737613934632c236237616433372c236164613333342c60408201527f233637353532612c236337653666302c236439393166372c233366306132660060608201526103408201526110e760a0614a60565b606f81527f236139646339372c236264653461662c236237653261372c236138643939362c60208201527f236230646639662c236165646461362c233433643235322c233338636334372c60408201527f236239396461312c236164333536322c236332646562362c233265343133622c60608201526e11b0b2311c99b096119c9ab0b2309b60891b608082015261036082015261118560a0614a60565b606781527f233832613561302c233665393639302c233764613139622c233830613339652c60208201527f233866616561392c233834613439662c233935393538352c233962396238632c60408201527f236434643963662c236366643463392c233965613535332c233730393031372c6060820152661199329a1a189b60c91b608082015261038082015261121b60a0614a60565b606f81527f236165396136632c236233613037352c236136393135652c233931316431612c60208201527f233836316231382c236130323131632c233235343035362c233166333534372c60408201527f233635366235302c233662373135362c236231356235642c236234356636312c60608201526e08cd190c990ccd0b08cd584ccd4cd9608a1b60808201526103a08201526112b960a0614a60565b606f81527f236261363636622c236265366637342c236239363436612c236265363036362c60208201527f236233353635632c236331373637622c233136306330662c233064303730392c60408201527f236362616539612c236430623661342c233834306432622c233466333331372c60608201526e11b1329b19981816119a3318b19a1960891b60808201526103c082015261135760a0614a60565b606f81527f236335396530632c236237393230622c236434613930632c236263393831352c60208201527f236361613130632c236362613231302c233962316231382c233962316231382c60408201527f233330333033312c233338333833392c233030366532662c233030356332382c60608201526e233365353936312c2334343631366160881b60808201526103e08201526113f560a0614a60565b606f81527f233261336232622c233236333632372c233266343233302c236263306530322c60208201527f236236306530322c236363313430302c236533396634342c236532396334302c60408201527f236635653366662c236638656266662c233364383266662c233432383466662c60608201526e233135303631382c2331323035313560881b608082015261040082015261149360a0614a60565b607f81527f233030333238332c233030333738662c233063326536342c233062333437342c60208201527f233237346338362c233033333638362c233062326636622c233064333637372c60408201527f236236613733372c236139396233322c236332643963322c236361646563612c60608201527f233066333434652c233063326234302c233330383861352c2332653832396500608082015261042082015261153f60a0614a60565b606f81527f236439636661312c236433633739322c236464643461632c233230353264342c60208201527f233165346563382c233236356465382c236266336437362c236232333836642c60408201527f236363396134322c236362393533612c233831393333392c233865613233662c60608201526e11b232b232b2329611b29b329b329b60891b60808201526104408201526115dd6080614a60565b605f81527f233166313931322c233237316631362c233161313530662c233162313530652c60208201527f233137313230642c233133313030622c233439386463372c233466393063392c60408201527f233466386563342c236439623230382c236434616530382c2363666161303700606082015261046082015261166360a0614a60565b607f81527f233145364145382c233137363344452c233234366665302c233137363464392c60208201527f233261353331342c233236346131322c233738353031392c233665346131372c60408201527f233633353062362c233638353662382c233835316135342c233737313834632c60608201527f236134386131352c233965383431302c233966336130342c2339353337303400608082015261048082015261170f60a0614a60565b606f81527f236363643161642c236338636461372c236434643862612c236430643562342c60208201527f236337636539632c236366643462302c233532616161612c233531396539652c60408201527f236238303731372c236163303631342c236239393835352c233965633262352c60608201526e0233963386239342c2332623136323608c1b60808201526104a08201526117ad60a0614a60565b606f81527f233264393262302c233266393762362c233238386661662c233961376333322c60208201527f233936373933312c233865373332652c236339316130302c236264313930302c60408201527f233462393230392c233435383630392c236339346332372c236434633732362c60608201526e0233861366137352c2331363065313608c1b60808201526104c082015261184b60a0614a60565b606f81527f233166323935312c233139323234332c233232326435392c236635643135372c60208201527f236636643436352c236636643536612c233830346130632c233735343330622c60408201527f233331316631322c233264316331312c236538363531322c236565366632302c60608201526e11b333331bb19b9611b3333330b21b60891b60808201526104e08201526118e960a0614a60565b606f81527f236161383035632c236165383736352c236165386436662c233534323834302c60208201527f233561326234352c233438323333372c236231303732362c236136303732342c60408201527f233431373730382c233532383331652c233732613237372c233030326164322c60608201526e233737366239612c2363396431393160881b608082015261050082015261198760a0614a60565b607f81527f233133316131332c233066313530662c233135316531352c233161323331612c60208201527f236462623536622c236463623836662c236465626337382c236433623036392c60408201527f236334633437612c236361636138362c236364636438652c233438343134302c60608201527f233365333833372c233135316531352c236266373634352c23663265336334006080820152610520820152611a3360a0614a60565b607f81527f236136653361382c236165653561662c236231653762332c236235653862372c60208201527f236131373936312c233933366535382c233939373335632c233936373135612c60408201527f236365303734352c236335303734332c233230356132342c233164353332312c60608201527f236661343261312c236432613430302c233535393162392c23313030653166006080820152610540820152611adf60a0614a60565b607f81527f236462633761362c236464636161632c236531636461642c233064313232382c60208201527f233061306531662c233130313633322c236437303230302c236530303430302c60408201527f236333303730342c233438363934632c233434363434382c233430356534342c60608201527f236436623332622c236437623532642c233132323934382c23313032363431006080820152610560820152611b8b60a0614a60565b606781527f233537373936382c233565383237302c233465373336312c233438373035632c60208201527f233534373336332c233963643139342c236136643639662c236139643761322c60408201527f236261646662342c236133643439622c236536633735342c236531313430302c6060820152660233736303030360cc1b6080820152610580820152611c2160a0614a60565b606f81527f236533646562302c236537653362622c236536653162372c236531646261382c60208201527f236535653162382c236539653462612c236266633437612c236336636138362c60408201527f236465643136652c236530643337362c236465376437642c236339626136362c60608201526e236231373736312c2362646233386360881b60808201526105a0820152611cbf60c0614a60565b608781527f233466383436352c233464383036322c233563393937352c233636613338302c60208201527f233939623863392c233934623563372c236166633764352c233532363836302c60408201527f233438356235342c236262613438382c236333623039372c233438323632612c60608201527f233565333133362c236261323732372c233264343962302c236230383562642c6080820152662362303939346160c81b60a08201526105c0820152611d7b60a0614a60565b607f81527f233461356366662c233563366366662c233730376566662c233531363166302c60208201527f233532363366662c233461356366662c236637646234352c236638653236322c60408201527f236637646233622c236635633465382c236633623965342c236639646366312c60608201527f236637653663342c233861616333302c233336333633392c236239396436340060808201526105e0820152611e2760a0614a60565b607781527f236463646363352c236439643962662c236538653864392c236431643162332c60208201527f236265366439312c236336383061302c236239363438622c233439386461332c60408201527f233439386461332c233366363031622c233334353031362c233736303030382c60608201527f236263386431372c233330316631372c236238363031370000000000000000006080820152610600820152611ed360a0614a60565b607781527f233233363236342c233230353935622c233261373637392c233330383538382c60208201527f236666363661312c236666383562342c236666393963302c236666356339612c60408201527f233932623837632c233963626638382c236637313432342c236637323633342c60608201527f233464326632622c236465373434632c236663653365640000000000000000006080820152610620820152611f7f6080614a60565b604f81527f233032313939322c233033323062352c233032313938642c236161363030652c60208201527f233937353630632c236430373731312c233365396438322c233436616639312c60408201526e0236562653865362c2366356632663608c1b6060820152610640820152611ff760a0614a60565b607781527f233666623135372c233762623836352c233635613834642c233564396134372c60208201527f236238303030302c236133303030302c236363303030302c233032326637652c60408201527f233031323636352c233064306531362c233137313932372c236434353639642c60608201527f236533323830302c236536396130302c2335636337633700000000000000000060808201526106608201526120a360a0614a60565b606f81527f236431633239342c236461636561392c236530643662382c236365626538642c60208201527f233562373137312c233634376437642c233664383838382c236337313130302c60408201527f236133306530302c236238306630302c233836396336302c233737386235352c60608201526e0236361393534342c2364326134363608c1b608082015261068082015261214160a0614a60565b606f81527f233837636665302c233764636364652c233664633664392c233965643965362c60208201527f233639393238622c233731393839312c233839613961342c233764613139622c60408201527f233165363264372c233238366365322c233162353963352c233136343961322c60608201526e0236133393830302c2338663835303608c1b60808201526106a08201526121df60a0614a60565b607f81527f233736613437662c233835616438642c233931623639382c233964626561342c60208201527f233033306435372c233034313237362c233035313438612c233036313739642c60408201527f236366626437352c236435633538362c236136363630322c236361376430322c60608201527f233236353132652c233265363133372c236434643964362c236466653265300060808201526106c082015261228b60a0614a60565b607f81527f233032313034352c233033313836332c233034316437372c233034323138622c60208201527f233130376434612c233065366334302c233133393035362c233135613236312c60408201527f233237623338342c233263633939352c233365633635652c233532636236652c60608201527f233863373431322c236132383631352c233736396531332c233839623731350060808201526106e082015261233760a0614a60565b606f81527f236564646562352c236633653963652c236562643961642c236537643439632c60208201527f233433366532302c233464376532352c233330346631372c236533386331322c60408201527f236564393631642c236630613734322c236238613237632c236531336634342c60608201526e233432333732352c2362303566303560881b60808201526107008201526123d560a0614a60565b606f81527f233139333537332c233164336538362c233231343639372c233235346561372c60208201527f233564386361392c233739613062392c233663393762322c236264626462352c60408201527f236366636663392c236232623261392c236238383638642c236333393839652c60608201526e233766383938362c2337363766376360881b608082015261072082015261247360c0614a60565b608781527f233639396261632c233762613862372c233839623162652c233766356130342c60208201527f233965373030352c236231376530362c233038306230642c233130313531392c60408201527f233137323032362c233864376530302c236133393330302c233161343739302c60608201527f233230353661632c233935383333632c236134353230302c236465366635622c6080820152660233966313530360cc1b60a082015261074082015261252f60a0614a60565b607f81527f233466366439372c233566376561622c233663383962322c233739393462392c60208201527f233337353432312c233330343931642c233433363732382c233464373632652c60408201527f233765326238302c233937333339392c233166316132312c233262323432652c60608201527f233166336138382c236231383334312c236334366262612c233663393136330060808201526107608201526125db60a0614a60565b607781527f233131326237332c233133333038312c233066323536322c233165383763332c60208201527f233163376162302c233166383963372c233532613538382c233562616539312c60408201527f233461393637632c233438343036382c233463343436662c233434336336322c60608201527f236162636661642c233764393161632c23333638363766000000000000000000608082015261078082015261268760a0614a60565b607f81527f233430353335652c233461363036642c233361346235352c233533366237392c60208201527f233832383732662c233932393733352c236131613633612c236166623534302c60408201527f233138326531612c233233343332362c236238623137322c236331626238352c60608201527f233936363635362c236335623132622c236161353733302c236261316331350060808201526107a082015261273360a0614a60565b606781527f233863643439652c236136646562342c236235653363302c233739636438652c60208201527f236333653963642c236363663063632c236466663664662c233735633536312c60408201527f233861636437392c236462626435372c236236373132342c236533663264362c60608201526611b298321cb23160c91b60808201526107c08201526127c960a0614a60565b606f81527f233335376437362c233433396439342c233364386638372c233331373236632c60208201527f233233353032312c233263363532392c233333373432662c233337356432312c60408201527f233437373932612c233530383833302c233866383432302c233363343437392c60608201526e119cb2991b9a31961199b31a1b9a1b60891b60808201526107e082015261286760a0614a60565b607781527f236462643463322c236630656465352c236432633962322c236539653464382c60208201527f236231626436662c236262633538312c233961613834642c236231626436662c60408201527f233934623339652c236130626261382c233763613238382c233562373936362c60608201527f233639386337362c236462613835632c23653262383739000000000000000000608082015261080082015261291360a0614a60565b607f81527f236164383132392c236336393432662c236430396533392c236434613634392c60208201527f233166333434362c233235336635352c233263343936332c233332353437312c60408201527f236266353033352c236361356233662c233630373264372c233763386264652c60608201527f236431616262612c236462626463392c233438336535652c233535343936660060808201526108208201526129bf60a0614a60565b607f81527f236334626439392c236263623338612c236432636462312c233262346339312c60208201527f233334356161642c233338363262632c236162323332382c236261323632622c60408201527f236362326132662c233564333837352c233537333536652c233738343939372c60608201527f233530306431352c233639313131622c236166326630302c23636333363030006080820152610840820152612a6b60a0614a60565b607781527f236337333230302c236530333830302c236635336430302c236666353731662c60208201527f233663613136652c233566393536312c233833616638342c233866623739302c60408201527f233030316638302c233030316637612c233030313936362c233165313831372c60608201527f233265323532332c236434643963372c236533653664620000000000000000006080820152610860820152612b1760a0614a60565b606f81527f233437343935662c233364336635312c233538356137342c233630363338302c60208201527f233739393735312c233839613936302c233933623036642c233938373633342c60408201527f236137383333392c236236386533652c236465616231372c233335346231662c60608201526e0236238623339342c2363653465303608c1b6080820152610880820152612bb560a0614a60565b606f81527f236536656264622c236534653964382c236462653263612c236431646262642c60208201527f236138653362302c236331656263372c236431663064352c236265396230302c60408201527f236530623730302c236635633830302c236632393130332c236664396430642c60608201526e11989c99991c30961198b1999c1cb160891b60808201526108a0820152612c5360a0614a60565b607f81527f236462643465302c236437643064642c236364633464342c236333623863632c60208201527f233166313831392c233265323332352c233361326332652c233435333533382c60408201527f233761353831322c233865363631352c233465343336372c233564353137622c60608201527f233337346433382c233434356634352c233262326637322c233262326637320060808201526108c0820152612cff60a0614a60565b607781527f233131336537362c233134346238662c233137353561312c233139356562332c60208201527f236334636362302c236431643763312c236461646663642c236533653764612c60408201527f233765623838642c233936633561322c233632356333662c233730363934382c60608201527f233266326232322c233534393261642c2364303635303000000000000000000060808201526108e0820152612dab60a0614a60565b606781527f233763363133652c233838366134342c233935373534622c236133383035322c60208201527f236635643439392c236634636639302c236632633737642c236661636632392c60408201527f236639636131302c236566633030362c233830323732662c233233323432332c6060820152662335656261373760c81b6080820152610900820152612e4160a0614a60565b607781527f233039306431352c233132316232622c233138323333392c233166326334372c60208201527f233038323936302c233039326637312c233062333738342c236533303230302c60408201527f236666306530612c236632643664652c236562633164312c233631306230342c60608201527f233631666134372c233030303764302c236564613637350000000000000000006080820152610920820152612eed60a0614a60565b606781527f233133316533362c233162326134622c233230333335612c233235336236612c60208201527f233261343337392c233435363966662c233333356366662c233634383636642c60408201527f233732393737632c236132623339322c236164626339662c236262356331312c6060820152662363643634313360c81b6080820152610940820152612f8360a0614a60565b606781527f236330393332382c236261386532362c236435613533342c236439616334352c60208201527f236463623435362c233433343838662c233465353461362c233862343930302c60408201527f233761343130302c236436636663342c236465643863662c233534393239322c606082015266119b1a309b309b60c91b608082015261096082015261301960a0614a60565b607781527f236138633263632c236266643264392c236363646265312c236438653465382c60208201527f236564656463632c236561656163332c236534653462342c236466646661342c60408201527f233165323433312c233237326633662c236463336333392c236530353435322c60608201527f233963626164652c236165366134322c2365646366623300000000000000000060808201526109808201526130c560c0614a60565b608f81527f236264393238622c236333396439372c236362613961342c233738366636642c60208201527f233862383137652c233934386238392c236361393735362c236334386434352c60408201527f233532393835392c233630613936372c233161353033302c233233366334302c60608201527f233661376139312c236265313332642c236432363037652c233766333537662c60808201526e1198181899b11996119a3218b2183160891b60a08201526109a082015261318960a0614a60565b607781527f236538656265302c236534653764612c236462646663642c236431643763312c60208201527f233239333866662c233437353466662c233563363766662c236538346330302c60408201527f236666356330612c233739613830302c233932636330302c236366616530302c60608201527f236635636330302c233264313761632c2362363835303500000000000000000060808201526109c082015261323560a0614a60565b606f81527f236436646562332c236530653663362c236538656364342c236431646161612c60208201527f236661666364362c236664666565632c236638666263362c236261633238662c60408201527f236365643462302c236336636361332c233831623839362c233937633461382c60608201526e08ce4c8e4c8d8e4b08d88e190d8e4d608a1b60808201526109e08201526132d36080614a60565b605f81527f236562653663632c236538653263342c236532646262362c236634663165322c60208201527f236639663866302c236235653338322c236334653839622c236365656361632c60408201527f233330363833302c233361376533612c233939333631332c23666631633030006060820152610a0082015261335960a0614a60565b606781527f236632633762302c236631633161372c236565623539362c236636646163612c60208201527f236562613838342c233735613234322c233838623835312c233564363337642c60408201527f233638366638642c236434613435312c236364363032382c233066306631612c6060820152662363373164306160c81b6080820152610a208201526133ef60a0614a60565b606f81527f236562653664342c236564653964392c236561653564322c236631656464662c60208201527f233430326431392c233432326631612c233436333131622c236235643632362c60408201527f236262646132662c236335653034642c233537373930302c233530373030302c60608201526e08cc8d0c8c4c190b08d98dcc4e4c8d608a1b6080820152610a4082015261348d60a0614a60565b607f81527f233938383236342c236136393337372c236165396438342c236236613639302c60208201527f233966333632342c236237336632612c233438356237342c233536366438612c60408201527f233365313031342c233531313531612c233634346333612c233735353834332c60608201527f236164383932362c233732353030302c233061316634632c23333631663133006080820152610a6082015261353960a0614a60565b607f81527f233066313832362c233036303930662c233137323533612c233164326534392c60208201527f233731383638332c233761393038632c233835393939352c233930613239662c60408201527f233765623536352c233863626437352c236137373231332c236238376531342c60608201527f236439346433322c236431636662662c236163633535622c23373930303063006080820152610a808201526135e560a0614a60565b607781527f236462646562642c236461646363312c236539656164362c236434643862312c60208201527f236339623339392c236335616439312c236331613838612c233934626461642c60408201527f233964633362342c236165353333322c233965346332652c236339393462302c60608201527f236366613062612c236432623131392c236334613531370000000000000000006080820152610aa08201526136916080614a60565b605781527f236366613430302c236635633430302c236363613330302c236666636530612c60208201527f236337636663342c236434646164322c236466653364642c233139313931632c60408201527f233236323632622c233837393538392c233765346530300000000000000000006060820152610ac082015261371760c0614a60565b608f81527f236162303030302c236363303030302c236530303030302c233737383163662c60208201527f233539363663352c233638373363612c236465343562332c236533363362662c60408201527f236235623064622c236362633765352c236439303534332c236566303634632c60608201527f236435346130302c236635353630302c233131323339612c233134326162382c60808201526e08cdcd0e0c4c0c0b08cc18cc190c19608a1b60a0820152610ae08201526137db60a0614a60565b606f81527f236632643663342c236630643062632c236563633561632c236638653864652c60208201527f236330313532332c236463313832392c236238313432322c233466363439312c60408201527f233537366439652c233631373861382c233262323932642c236661623834352c60608201526e236462386638352c2338386134633560881b6080820152610b0082015261387960a0614a60565b607781527f236131646564342c233937643863662c236234653464632c236333653965332c60208201527f233732313030332c233633306530332c233862313330342c236632633961622c60408201527f236639653864632c236530633265622c236439623265362c236164646266662c60608201527f236562626430612c236661616462302c233030306538370000000000000000006080820152610b2082015261392560a0614a60565b606781527f233765613338382c233835613838652c233934623339632c233664393737382c60208201527f233832616238642c233835613838652c233664393737382c233966626439662c60408201527f233938623939382c236137633361372c233836336131352c233763333631332c6060820152662339323430313760c81b6080820152610b408201526139bb60a0614a60565b606781527f236336363732662c236430373033392c236438383835612c236434376334392c60208201527f236663666666612c236537666664362c236633666665622c233064306630662c60408201527f233266333733372c233163323132312c236666313932652c236439653866662c6060820152662335376361363160c81b6080820152610b60820152613a5160a0614a60565b607f81527f233361346532302c233336343831652c233462363532392c233536373432662c60208201527f233432666638352c233563666639352c233333666637612c233730666661322c60408201527f236165633735642c236262643037362c236331386430302c236530613530302c60608201527f233162343031662c233130316331372c236538666634352c23663730333537006080820152610b80820152613afd60a0614a60565b606f81527f233838353833382c233832353433352c233966363734312c236165373034372c60208201527f236663646234352c236664653035652c236663643833362c233039303630642c60408201527f233133306431632c233164313332612c236637656466352c236632653365662c60608201526e236533336630332c2366623464306560881b6080820152610ba0820152613b9b60a0614a60565b607781527f233862383938312c233964396239352c233766376437362c236137613561302c60208201527f233261326333312c233338336234322c233432343534642c233462346635382c60408201527f236536653064622c236435636263332c236465643563662c233863623332352c60608201527f236130636232612c236436623333332c236461623934340000000000000000006080820152610bc0820152613c4760a0614a60565b606f81527f236530653364342c236462646663652c236432643763312c236339636662342c60208201527f233633393836652c233834616538622c233737613638312c233538373335362c60408201527f233633383036302c233663386336392c233661633561632c233762636362362c60608201526e233664313933332c2331393162316360881b6080820152610be0820152613ce560a0614a60565b606f81527f233734386138322c233835393939312c233930613239622c233962616261352c60208201527f236439613838662c236530623861342c236535633562332c233066306431302c60408201527f233230316332322c233261323532642c236661663765642c236636663164662c60608201526e236632653831322c2339316337666360881b6080820152610c00820152613d836080614a60565b605f81527f233563303330302c233761303430302c233866303530302c233532303330302c60208201527f233364303230302c233038306130612c233132313731372c233162323232322c60408201527f236538616431632c236562623733332c236637663766632c23376465363534006060820152610c20820152613e0960a0614a60565b607781527f236439633933302c236366626532362c236265616532332c236163396532302c60208201527f233162316331642c233134313431352c233237323932612c233661373232622c60408201527f233762383533322c236434643963342c236534653764612c236335613430302c60608201527f233239343833362c233361326434652c233633373937370000000000000000006080820152610c40820152613eb560a0614a60565b606781527f236530653666302c236436646565622c236338643265342c236261633764652c60208201527f233062306631642c233131313732632c233136316533622c233735393733632c60408201527f233838616634362c233933623935302c233138333032342c233230323433352c60608201526608cd4e4e4d0d5960ca1b6080820152610c60820152613f4b60a0614a60565b606f81527f233262356237612c233330363538382c233335373039372c233361376261362c60208201527f236436636663632c236432636163362c236564656165382c236230383137392c60408201527f236262393238622c236333396639382c233764613363372c233864616563652c60608201526e08d88e18cc8cd98b08d8cd58d94d8d608a1b6080820152610c80820152613fe960a0614a60565b606f81527f233734373032392c233661363632352c233562353832302c233838383333302c60208201527f233937393233352c236136613133612c236666393964392c236666616465312c60408201527f236666633265392c236637353733642c236638363534662c236638373636322c60608201526e233665353032642c2338323565333560881b6080820152610ca082015261408760a0614a60565b606f81527f236661663065622c236637653764652c236633646163652c236566636562652c60208201527f233036333835342c233038346237322c233039353838362c233264643936642c60408201527f233236636636342c233233626535632c233162336331392c233237353632342c60608201526e0233235383430302c2339363931303608c1b6080820152610cc082015261412560a0614a60565b606781527f233135316634322c233164326235642c233232333236642c233237336137632c60208201527f236231316230392c233962313730382c233838313430372c236165356262362c60408201527f236239373263302c236330383063362c233231346435362c233237356436382c6060820152661199321b309b9b60c91b6080820152610ce08201526141bb60a0614a60565b607781527f233166356366662c233061346266662c233437373866662c233333363966662c60208201527f236530653665382c236633663666362c236430643964632c233939666633332c60408201527f236133666634372c233964303030302c236238303030302c233835663563322c60608201527f236131663764302c233161373130302c233138363630300000000000000000006080820152610d0082015261426760c0614a60565b608f81527f233132313431382c233161316432332c233233323732662c233733376534312c60208201527f233837393434632c233933613235332c233237353132362c233266363132652c60408201527f233261313231612c236261386362352c233638393763322c233764613463612c60608201527f236465633261312c236162653363322c233264353936372c233764336330302c60808201526e08cd184c98cd8c4b08d88c8e4d0d4d608a1b60a0820152610d2082015261432b6080614a60565b605f81527f236635663066352c236633656466332c236637663366372c236637663366372c60208201527f233234326432652c233232326132622c236530663230302c236539663530302c60408201527f233662666630662c236666363130332c233461626166662c23303064346139006060820152610d408201526143b160a0614a60565b607f81527f236236313031622c236365313231662c236531313432312c233063353264372c60208201527f233138363466322c233262373166332c233138613539342c233163633462312c60408201527f233166643663312c236666646234372c236666646535632c236666653738352c60608201527f236134303738382c236334303861312c236666353439362c23386363333238006080820152610d6082015261445d60a0614a60565b607f81527f233461366439622c233561376661662c233638386162362c233735393462642c60208201527f233833396662312c233735393561392c233638386261312c233565383139372c60408201527f236162626161382c236264633962612c236139303038382c236363303061332c60608201527f236365323430302c233033323466662c236366623330302c23306531323136006080820152610d8082015261450960a0614a60565b607f81527f236632663763392c236564663462382c236539663261362c236535656639352c60208201527f236666653332392c236666653734372c233332353430332c233437373630342c60408201527f236562366539312c236565383161302c233131353734632c233134363635612c60608201527f236264646230382c236434663631332c233062326437352c23616634363030006080820152610da08201526145b560a0614a60565b607f81527f233030306139622c233030306362382c233030306563632c233030306665302c60208201527f233530626238642c233564633039352c233663633639662c233762636361392c60408201527f233535303038662c233632303061332c233333366130302c233435386630302c60608201527f233062306330642c236630383264392c236265336430302c23343763623030006080820152610dc082015261466160c0614a60565b608781527f236230626161362c236162623661302c236136623139612c236337636563302c60208201527f236230623761392c236530653665332c236532653465332c236536656265382c60408201527f236538656465622c236465653865332c236162303731642c236132303731622c60608201527f233962303831632c233331333532622c233263333032372c233935613739372c6080820152662339386139396160c81b60a0820152610de082015261471d60a0614a60565b607781527f236439646564362c236435646264322c236362643263362c236330633962622c60208201527f236236626662302c236536643133302c236539643634392c236562646135632c60408201527f236335383638382c236431396661302c236437616361652c233635373037652c60608201527f233638623833302c236439353730302c233739336335640000000000000000006080820152610e008201526147c96080614a60565b605f81527f233164313932312c233239323332662c233134313231372c233333326333612c60208201527f233364333534362c236330623132312c236431633032332c236463636132652c60408201527f236432336230302c236635343530302c236332636662642c23643364646430006060820152610e208201526000546072600055806072106149b7575b506000808052600080516020614de8833981519152915b60728210614884576040516103119081614ad78239f35b80518051906001600160401b0382116149a1576148a18554614a85565b601f8111614964575b50602090601f83116001146148f75792826001949360209386956000926148ec575b5050600019600383901b1c191690841b1786555b0193019101909161486d565b0151905038806148cc565b90601f1983169186600052816000209260005b81811061494c5750936020936001969387969383889510614933575b505050811b0186556148e0565b015160001960f88460031b161c19169055388080614926565b8284015185556001909401936020938401930161490a565b61499190866000526020600020601f850160051c81019160208610614997575b601f0160051c0190614abf565b386148aa565b9091508190614984565b634e487b7160e01b600052604160045260246000fd5b60008052600080516020614de8833981519152017f290decd9548b62a8d60345a988386fc84ba6bc95484008f6362f93160ef3e5d55b8181106149fa5750614856565b80614a0760019254614a85565b80614a14575b50016149ed565b601f81118314614a2a5750600081555b38614a0d565b614a48908260005283601f6020600020920160051c82019101614abf565b8060005260006020812081835555614a24565b600080fd5b6040519190601f01601f191682016001600160401b038111838210176149a157604052565b90600182811c92168015614ab5575b6020831014614a9f57565b634e487b7160e01b600052602260045260246000fd5b91607f1691614a94565b818110614aca575050565b60008155600101614abf56fe608080604052600436101561001357600080fd5b60003560e01c90816387c79d1d146100a2575063dcf7eefe1461003557600080fd5b3461009d57602036600319011261009d5760043560005481101561009d5761008561009991600080527f290decd9548b62a8d60345a988386fc84ba6bc95484008f6362f93160ef3e5630161020b565b6040519182916020835260208301906101a8565b0390f35b600080fd5b3461009d57600036600319011261009d5760005467ffffffffffffffff8111610192576100d560208260051b01836101e9565b808252602082019081600080527f290decd9548b62a8d60345a988386fc84ba6bc95484008f6362f93160ef3e5636000915b83831061017557848660405191829160208301906020845251809152604083019060408160051b85010192916000905b82821061014657505050500390f35b919360019193955060206101658192603f198a820301865288516101a8565b9601920192018594939192610137565b6001602081926101848561020b565b815201920192019190610107565b634e487b7160e01b600052604160045260246000fd5b919082519283825260005b8481106101d4575050826000602080949584010152601f8019910116010190565b806020809284010151828286010152016101b3565b90601f8019910116810190811067ffffffffffffffff82111761019257604052565b906040519160008154918260011c926001811680156102d1575b6020851081146102bd5784875286939291811561029b5750600114610254575b50610252925003836101e9565b565b90506000929192526020600020906000915b81831061027f5750509060206102529282010138610245565b6020919350806001915483858901015201910190918492610266565b90506020925061025294915060ff191682840152151560051b82010138610245565b634e487b7160e01b84526022600452602484fd5b93607f169361022556fea2646970667358221220270e4f739d9e59b984f81b0626f839c856e35f4ade14a3b31a066223a442bb9564736f6c634300081c0033290decd9548b62a8d60345a988386fc84ba6bc95484008f6362f93160ef3e563","linkReferences":{}},"methodIdentifiers":{"getColors()":"87c79d1d","palettes(uint256)":"dcf7eefe"},"id":34}