{"abi":[{"type":"constructor","inputs":[],"stateMutability":"nonpayable"},{"type":"function","name":"generateRandom","inputs":[{"name":"hash","type":"bytes32","internalType":"bytes32"},{"name":"nonce","type":"uint256","internalType":"uint256"}],"outputs":[{"name":"","type":"uint256","internalType":"uint256"}],"stateMutability":"pure"},{"type":"function","name":"randomBool","inputs":[{"name":"hash","type":"bytes32","internalType":"bytes32"},{"name":"nonce","type":"uint256","internalType":"uint256"},{"name":"probability","type":"uint256","internalType":"uint256"}],"outputs":[{"name":"","type":"bool","internalType":"bool"}],"stateMutability":"pure"},{"type":"function","name":"randomDec","inputs":[{"name":"hash","type":"bytes32","internalType":"bytes32"},{"name":"nonce","type":"uint256","internalType":"uint256"}],"outputs":[{"name":"","type":"uint256","internalType":"uint256"}],"stateMutability":"pure"},{"type":"function","name":"randomInt","inputs":[{"name":"hash","type":"bytes32","internalType":"bytes32"},{"name":"nonce","type":"uint256","internalType":"uint256"},{"name":"min","type":"int256","internalType":"int256"},{"name":"max","type":"int256","internalType":"int256"}],"outputs":[{"name":"","type":"int256","internalType":"int256"}],"stateMutability":"pure"},{"type":"function","name":"randomInt256Choice","inputs":[{"name":"hash","type":"bytes32","internalType":"bytes32"},{"name":"nonce","type":"uint256","internalType":"uint256"},{"name":"choices","type":"int256[]","internalType":"int256[]"}],"outputs":[{"name":"","type":"int256","internalType":"int256"}],"stateMutability":"pure"},{"type":"function","name":"randomNum","inputs":[{"name":"hash","type":"bytes32","internalType":"bytes32"},{"name":"nonce","type":"uint256","internalType":"uint256"},{"name":"min","type":"uint256","internalType":"uint256"},{"name":"max","type":"uint256","internalType":"uint256"}],"outputs":[{"name":"","type":"uint256","internalType":"uint256"}],"stateMutability":"pure"},{"type":"function","name":"randomStringChoice","inputs":[{"name":"hash","type":"bytes32","internalType":"bytes32"},{"name":"nonce","type":"uint256","internalType":"uint256"},{"name":"choices","type":"string[]","internalType":"string[]"}],"outputs":[{"name":"","type":"string","internalType":"string"}],"stateMutability":"pure"},{"type":"function","name":"randomUInt","inputs":[{"name":"hash","type":"bytes32","internalType":"bytes32"},{"name":"nonce","type":"uint256","internalType":"uint256"},{"name":"min","type":"uint256","internalType":"uint256"},{"name":"max","type":"uint256","internalType":"uint256"}],"outputs":[{"name":"","type":"uint256","internalType":"uint256"}],"stateMutability":"pure"},{"type":"function","name":"randomUInt256Choice","inputs":[{"name":"hash","type":"bytes32","internalType":"bytes32"},{"name":"nonce","type":"uint256","internalType":"uint256"},{"name":"choices","type":"uint256[]","internalType":"uint256[]"}],"outputs":[{"name":"","type":"uint256","internalType":"uint256"}],"stateMutability":"pure"}],"bytecode":{"object":"0x608080604052346015576106d1908161001b8239f35b600080fdfe6080604052600436101561001257600080fd5b60003560e01c80630dc854e7146104b85780631d5c42b1146104655780634dc29df11461044957806354ee210014610430578063736194381461040157806377924f7e146103755780637c1634cd146101f157806395836699146101805763f16dd5f21461007f57600080fd5b3461017b57606036600319011261017b5760443567ffffffffffffffff811161017b573660238201121561017b578060040135906100bc82610527565b916100ca6040519384610505565b8083526024602084019160051b8301019136831161017b57602401905b82821061016b57836100fb8151151561062d565b8051600019810190811161015557602091670de0b6b3a76400006101458361012761014c951515610589565b610132811515610589565b610140602435600435610552565b61053f565b0490610671565b51604051908152f35b634e487b7160e01b600052601160045260246000fd5b81358152602091820191016100e7565b600080fd5b3461017b57608036600319011261017b576044356064356101a2828213610589565b81810360008312908115928082128316908213841617610155576101d4670de0b6b3a764000091610132811515610589565b048093019283129081151691161761015557602090604051908152f35b3461017b57606036600319011261017b5760443567ffffffffffffffff811161017b573660238201121561017b57806004013561022d81610527565b9161023b6040519384610505565b8183526024602084019260051b8201019036821161017b5760248101925b8284106102e7578461026d8151151561062d565b805160001981019190821161015557670de0b6b3a764000061014583610127610297951515610589565b5160405190602082528181519182602083015260005b8381106102cf5750508160006040809484010152601f80199101168101030190f35b602082820181015160408784010152859350016102ad565b833567ffffffffffffffff811161017b5782013660438201121561017b5760248101359167ffffffffffffffff831161035f57604051610331601f8501601f191660200182610505565b838152366044848601011161017b576000602085819660448397018386013783010152815201930192610259565b634e487b7160e01b600052604160045260246000fd5b3461017b57606036600319011261017b5760443567ffffffffffffffff811161017b573660238201121561017b578060040135906103b282610527565b916103c06040519384610505565b8083526024602084019160051b8301019136831161017b57602401905b8282106103f157836100fb8151151561062d565b81358152602091820191016103dd565b3461017b576020610428610414366104e7565b92610423828594939411610589565b6105c5565b604051908152f35b3461017b576020610428610443366104d1565b90610607565b3461017b57602061042861045c366104e7565b929190916105c5565b3461017b57606036600319011261017b57604435610487602435600435610552565b90670de0b6b3a7640000810290808204670de0b6b3a764000014901517156101555760209160646040519204118152f35b3461017b5760206104286104cb366104d1565b90610552565b604090600319011261017b576004359060243590565b608090600319011261017b5760043590602435906044359060643590565b90601f8019910116810190811067ffffffffffffffff82111761035f57604052565b67ffffffffffffffff811161035f5760051b60200190565b8181029291811591840414171561015557565b63ffffffff9161056191610607565b16670de0b6b3a7640000810290808204670de0b6b3a764000014901517156101555760201c90565b1561059057565b60405162461bcd60e51b815260206004820152600d60248201526c496e76616c69642072616e676560981b6044820152606490fd5b906105dd919392936105d8858511610589565b610552565b82820391821161015557670de0b6b3a7640000916105fa9161053f565b0481018091116101555790565b906040519060208201928352604082015260408152610627606082610505565b51902090565b1561063457565b60405162461bcd60e51b815260206004820152601560248201527441727261792063616e6e6f7420626520656d70747960581b6044820152606490fd5b80518210156106855760209160051b010190565b634e487b7160e01b600052603260045260246000fdfea26469706673582212207c47078a210e74f1b4096fd6c2c789696dc539acb858eed948441705693211cb64736f6c634300081c0033","linkReferences":{}},"methodIdentifiers":{"generateRandom(bytes32,uint256)":"54ee2100","randomBool(bytes32,uint256,uint256)":"1d5c42b1","randomDec(bytes32,uint256)":"0dc854e7","randomInt(bytes32,uint256,int256,int256)":"95836699","randomInt256Choice(bytes32,uint256,int256[])":"77924f7e","randomNum(bytes32,uint256,uint256,uint256)":"4dc29df1","randomStringChoice(bytes32,uint256,string[])":"7c1634cd","randomUInt(bytes32,uint256,uint256,uint256)":"73619438","randomUInt256Choice(bytes32,uint256,uint256[])":"f16dd5f2"},"id":40}