{"abi":[{"type":"constructor","inputs":[{"name":"randomGeneratorAddr","type":"address","internalType":"address"},{"name":"colorEngineAddr","type":"address","internalType":"address"}],"stateMutability":"nonpayable"},{"type":"function","name":"addColorPalette","inputs":[{"name":"name","type":"string","internalType":"string"},{"name":"colorString","type":"string","internalType":"string"}],"outputs":[],"stateMutability":"nonpayable"},{"type":"function","name":"colorEngine","inputs":[],"outputs":[{"name":"","type":"address","internalType":"contract ColorEngine"}],"stateMutability":"view"},{"type":"function","name":"getAnim","inputs":[{"name":"tokenId","type":"uint256","internalType":"uint256"},{"name":"hash","type":"bytes32","internalType":"bytes32"}],"outputs":[{"name":"","type":"string","internalType":"string"},{"name":"","type":"string","internalType":"string"},{"name":"","type":"uint256","internalType":"uint256"}],"stateMutability":"view"},{"type":"function","name":"getImage","inputs":[{"name":"tokenId","type":"uint256","internalType":"uint256"},{"name":"hash","type":"bytes32","internalType":"bytes32"}],"outputs":[{"name":"","type":"string","internalType":"string"}],"stateMutability":"view"},{"type":"function","name":"grantAccess","inputs":[{"name":"addr","type":"address","internalType":"address"}],"outputs":[],"stateMutability":"nonpayable"},{"type":"function","name":"hasAccess","inputs":[{"name":"account","type":"address","internalType":"address"}],"outputs":[{"name":"","type":"bool","internalType":"bool"}],"stateMutability":"view"},{"type":"function","name":"isOwner","inputs":[],"outputs":[{"name":"","type":"bool","internalType":"bool"}],"stateMutability":"view"},{"type":"function","name":"randomGenerator","inputs":[],"outputs":[{"name":"","type":"address","internalType":"contract RandomGenerator"}],"stateMutability":"view"},{"type":"function","name":"revokeAccess","inputs":[{"name":"addr","type":"address","internalType":"address"}],"outputs":[],"stateMutability":"nonpayable"},{"type":"function","name":"setColorEngine","inputs":[{"name":"addr","type":"address","internalType":"address"}],"outputs":[],"stateMutability":"nonpayable"},{"type":"function","name":"setRandomGenerator","inputs":[{"name":"addr","type":"address","internalType":"address"}],"outputs":[],"stateMutability":"nonpayable"},{"type":"function","name":"updateColorPaletteName","inputs":[{"name":"paletteIndex","type":"uint256","internalType":"uint256"},{"name":"colorPaletteName","type":"string","internalType":"string"}],"outputs":[],"stateMutability":"nonpayable"}],"bytecode":{"object":"0x608034609157601f61759c38819003918201601f19168301916001600160401b038311848410176096578084926040948552833981010312609157604b602060458360ac565b920160ac565b60008054336001600160a01b031991821617909155600380546001600160a01b03948516908316179055600280549290931691161790556040516174dc90816100c08239f35b600080fd5b634e487b7160e01b600052604160045260246000fd5b51906001600160a01b038216820360915756fe6103a0604052600436101561001357600080fd5b600060e05260e0513560e01c80630ae5e739146170845780634bc19fee146170045780635134d0fd14616f2157806385e6853114616ec657806386c48f9d14616dae5780638f32d59b14616d84578063902cb6c914615cb257806395a078e814615c6d5780639d20b35514615c43578063b1bcbc8d14615bc3578063b739ddda146100d75763dcbad90d146100a757600080fd5b346100d15760e0513660031901126100d1576003546040516001600160a01b039091168152602090f35b60e05180fd5b346100d1576100e536617196565b6002546040516307cec7bd60e21b81526004810184905260e080516024830152519093916001600160a01b03169084604481845afa938415615b955760e05194615ba2575b50600354604051630e6c328760e31b81526004810185905260e051602482015260016044820152603260648201529190602090839060849082906001600160a01b03165afa918215615b955760e05192615b5c575b5061018983617404565b60408051909490919061019c8684617113565b601083526f181899199a1a9b1b9c1cb0b131b232b360811b60208401526080938651936101c98686617113565b604285526020850198601f198701368b37855115615b445760308a53855160011015615b44576078602187015360e0515b60208110615a9a57505050865191638e869eb960e01b8352600483015260e05160248301528160448160e051935afa908115615a8e5760e05191615a6a575b5061024385617404565b908651978895602087017f3c21646f637479706568746d6c3e3c68746d6c206c616e673d656e3e3c6d657490528887017f6120636f6e74656e743d27746578742f68746d6c3b20636861727365743d55549052606087017f462d3827687474702d65717569763d436f6e74656e742d547970653e3c6d6574905286017f6120636f6e74656e743d2777696474683d6465766963652d77696474682c696e905260a086017f697469616c2d7363616c653d31276e616d653d76696577706f72743e3c6d6574905260c086017f6120636f6e74656e743d2769653d6564676527687474702d65717569763d582d905260e086017f55412d436f6d70617469626c653e3c6d657461206172746973743d416e647265905261010086017f77204d69746368656c6c3e3c7469746c653e506f707570202300000000000000905283519460208501958061011989019061039891896171ac565b7f3c2f7469746c653e3c7374796c653e68746d6c7b6865696768743a313030257d610119918901918201527f626f64797b6d696e2d6865696768743a313030253b6d617267696e3a303b70616101398201527f6464696e673a307d63616e7661737b70616464696e673a303b6d617267696e3a6101598201527f6175746f3b646973706c61793a626c6f636b3b706f736974696f6e3a6162736f6101798201527f6c7574653b6c6566743a303b72696768743a303b66696c7465723a73657069616101998201527214171914be9e17b9ba3cb6329f1e3137b23c9f60691b6101b98201527f3c7363726970743e636c6173732052616e646f6d7b636f6e7374727563746f726101cc8201527f2865297b746869732e757365413d21313b6c657420743d66756e6374696f6e286101ec8201527f65297b6c657420743d7061727365496e7428652e73756273747228302c38292c61020c8201527f3136292c6f3d7061727365496e7428652e73756273747228382c38292c31362961022c8201527f2c6e3d7061727365496e7428652e7375627374722831362c38292c3136292c6161024c8201527f3d7061727365496e7428652e7375627374722832342c38292c3136293b72657461026c8201527f75726e2066756e6374696f6e28297b747c3d302c6f7c3d302c6e7c3d302c617c61028c8201527f3d303b6c657420653d28742b6f7c30292b617c303b72657475726e20613d612b6102ac8201527f317c302c743d6f5e6f3e3e3e392c6f3d6e2b286e3c3c33297c302c6e3d6e3c3c6102cc8201527f32317c6e3e3e3e31312c6e3d6e2b657c302c28653e3e3e30292f3432393439366102ec8201527f373239367d7d3b746869732e70726e67413d6e6577207428652e73756273747261030c8201527f28322c333229292c746869732e70726e67423d6e6577207428652e737562737461032c8201527f722833342c333229293b666f72286c657420653d303b653c3165363b652b3d3261034c8201527f29746869732e70726e674128292c746869732e70726e674228297d72616e646f61036c8201527f6d5f64656328297b72657475726e20746869732e757365413d21746869732e7561038c8201527f7365412c746869732e757365413f746869732e70726e674128293a746869732e6103ac8201527f70726e674228297d72616e646f6d5f6e756d28652c74297b72657475726e20656103cc8201527f2b28742d65292a746869732e72616e646f6d5f64656328297d72616e646f6d5f6103ec8201527f696e7428652c74297b72657475726e204d6174682e666c6f6f7228746869732e61040c8201527f72616e646f6d5f6e756d28652c742b3129297d72616e646f6d5f626f6f6c286561042c8201527f297b72657475726e20746869732e72616e646f6d5f64656328293c657d72616e61044c8201527f646f6d5f63686f6963652865297b72657475726e20655b746869732e72616e6461046c8201527f6f6d5f696e7428302c652e6c656e6774682d31295d7d7d6c657420686173683d61048c820152602760f81b6104ac82015290519161081c9083906104ad8401906171ac565b0161011901610394810169272c746f6b656e49643d60b01b90528351908161039e82019061084a91886171ac565b0161039401600a81017f3b636f6e73742072616e646f6d3d6e65772052616e646f6d2868617368293b6c9052602a81017f65742070616c65747465426f7865733d5b5d2c70617274793d72616e646f6d2e9052604a81017f72616e646f6d5f626f6f6c282e35292c636f6c6f7250616c657474653d0000009052815191826067830191602001916108da926171ac565b7f3b66756e6374696f6e2061737369676e436f6c6f72526f6c65732865297b6c65606792909101918201527f7420743d652e6d61702828653d3e287b6865783a652c68736c3a686578546f4860878201527f534c2865297d2929292c6f3d5b2e2e2e745d2e736f7274282828652c74293d3e60a78201527f742e68736c2e6c2d652e68736c2e6c29292c6e3d5b2e2e2e745d2e736f72742860c78201527f2828652c74293d3e742e68736c2e732d652e68736c2e7329293b72657475726e60e78201527f7b66696c6c436f6c6f723a686578546f48534c537472696e67286f5b4d6174686101078201527f2e666c6f6f72286f2e6c656e6774682f32295d2e686578292c6c69676874436f6101278201527f6c6f723a686578546f48534c537472696e67286f5b315d2e686578292c6c69676101478201527f68746572436f6c6f723a686578546f48534c537472696e67286f5b305d2e68656101678201527f78292c6461726b436f6c6f723a686578546f48534c537472696e67286f5b6f2e6101878201527f6c656e6774682d325d2e686578292c6461726b6572436f6c6f723a686578546f6101a78201527f48534c537472696e67286f5b6f2e6c656e6774682d315d2e686578292c6163636101c78201527f656e74436f6c6f723a686578546f48534c537472696e67286e5b305d2e6865786101e78201527f292c74657874436f6c6f724c696768743a686578546f48534c537472696e67286102078201527f6f5b305d2e686578292c74657874436f6c6f724461726b3a686578546f48534c6102278201527f537472696e67286f5b6f2e6c656e6774682d315d2e686578292c6261636b67726102478201527f6f756e64436f6c6f723a686578546f48534c537472696e67286f5b6f2e6c656e6102678201527f6774682d315d2e686578297d7d66756e6374696f6e207265736574436f6c6f726102878201527f7328653d2130297b636f6e737420743d61737369676e436f6c6f72526f6c65736102a78201527f28636f6c6f7250616c657474652e636f6c6f7273293b6526262866696c6c436f6102c78201527f6c6f723d742e66696c6c436f6c6f72292c6c69676874436f6c6f723d742e6c696102e78201527f676874436f6c6f722c6c696768746572436f6c6f723d742e6c696768746572436103078201527f6f6c6f722c6461726b436f6c6f723d742e6461726b436f6c6f722c6461726b656103278201527f72436f6c6f723d742e6461726b6572436f6c6f722c616363656e74436f6c6f726103478201527f3d742e616363656e74436f6c6f722c74657874436f6c6f724c696768743d742e6103678201527f74657874436f6c6f724c696768742c74657874436f6c6f724461726b3d742e746103878201527f657874436f6c6f724461726b2c6261636b67726f756e64436f6c6f723d742e626103a78201527f61636b67726f756e64436f6c6f727d6c657420636f6c6f72526f6c65733d61736103c78201527f7369676e436f6c6f72526f6c657328636f6c6f7250616c657474652e636f6c6f6103e78201527f7273292c66696c6c436f6c6f723d636f6c6f72526f6c65732e66696c6c436f6c6104078201527f6f722c6c69676874436f6c6f723d636f6c6f72526f6c65732e6c69676874436f6104278201527f6c6f722c6c696768746572436f6c6f723d636f6c6f72526f6c65732e6c6967686104478201527f746572436f6c6f722c6461726b436f6c6f723d636f6c6f72526f6c65732e64616104678201527f726b436f6c6f722c6461726b6572436f6c6f723d636f6c6f72526f6c65732e646104878201527f61726b6572436f6c6f722c616363656e74436f6c6f723d636f6c6f72526f6c656104a78201527f732e616363656e74436f6c6f722c74657874436f6c6f724c696768743d636f6c6104c78201527f6f72526f6c65732e74657874436f6c6f724c696768742c74657874436f6c6f726104e78201527f4461726b3d636f6c6f72526f6c65732e74657874436f6c6f724461726b2c62616105078201527f636b67726f756e64436f6c6f723d636f6c6f72526f6c65732e6261636b67726f6105278201527f756e64436f6c6f723b636f6c6f72733d736f7274436f6c6f7273427948534c286105478201527f636f6c6f7250616c657474652e636f6c6f7273292c70616c65747465426f78656105678201527f732e70757368287b636f6c6f723a66696c6c436f6c6f727d293b666f72286c656105878201527f7420653d313b653c636f6c6f72732e6c656e6774683b652b2b2970616c6574746105a78201527f65426f7865732e70757368287b636f6c6f723a686578546f48534c537472696e6105c78201527f6728636f6c6f72735b655d297d293b6c657420626f7865733d5b5d2c6e756d426105e7820152646f7865733d60d81b610607820152815191600a820191610fdf91849161060c01906020016171ac565b7f3b666f72286c657420653d303b653c6e756d426f7865733b652b2b29626f786561060292909101918201527f732e7075736828686578546f48534c537472696e672872616e646f6d2e72616e6106228201527f646f6d5f63686f69636528636f6c6f72732929293b636f6e73742063616e76616106428201527f733d646f63756d656e742e637265617465456c656d656e74282763616e7661736106628201527f27293b6c657420736d616c6c657244696d656e73696f6e3d4d6174682e6d696e6106828201527f2877696e646f772e696e6e65724865696768742c77696e646f772e696e6e65726106a28201527f5769647468293b63616e7661732e77696474683d3465332c63616e7661732e686106c28201527f65696768743d3465333b636f6e7374206374783d63616e7661732e676574436f6106e28201527f6e746578742827326427293b63616e7661732e7374796c652e77696474683d736107028201527f6d616c6c657244696d656e73696f6e2b277078272c63616e7661732e7374796c6107228201527f652e6865696768743d736d616c6c657244696d656e73696f6e2b277078272c636107428201527f616e7661732e7374796c652e626f78536861646f773d2730203020312e3572656107628201527f6d2023323532353235272c646f63756d656e742e626f64792e617070656e64436107828201527f68696c642863616e766173293b6c6574206c696e654f6666736574583d2e30306107a28201527f312a736d616c6c657244696d656e73696f6e2c6c696e654f6666736574593d2e6107c28201527f3030312a736d616c6c657244696d656e73696f6e2c626f74746f6d42617248656107e28201527f696768743d2e30352a63616e7661732e6865696768742c6f666673637265656e6108028201527f43616e7661733d646f63756d656e742e637265617465456c656d656e742827636108228201527f616e76617327292c746f7043616e7661733d646f63756d656e742e63726561746108428201527f65456c656d656e74282763616e76617327293b6f666673637265656e43616e766108628201527f61732e77696474683d63616e7661732e77696474682c6f666673637265656e436108828201527f616e7661732e6865696768743d63616e7661732e6865696768742c746f7043616108a28201527f6e7661732e77696474683d63616e7661732e77696474682c746f7043616e76616108c28201527f732e6865696768743d63616e7661732e6865696768743b6c6574206f666673636108e28201527f7265656e4374783d6f666673637265656e43616e7661732e676574436f6e74656109028201527f78742827326427292c746f704374783d746f7043616e7661732e676574436f6e6109228201527f746578742827326427292c7365636f6e6461727943616e7661733d646f63756d6109428201527f656e742e637265617465456c656d656e74282763616e76617327292c6261636b6109628201527f67726f756e6443616e7661733d646f63756d656e742e637265617465456c656d6109828201527f656e74282763616e76617327292c6261636b67726f756e64546f67676c653d7b6109a28201527f7d2c6267436f6c6f72546f67676c653d7b7d2c646f776e6c6f6164426f783d7b6109c28201527f7d2c69735265736964756556697369626c653d21312c69734267436f6c6f72546109e28201527f6f67676c653d21302c6973446f776e6c6f6164696e673d21313b7365636f6e64610a028201527f61727943616e7661732e77696474683d63616e7661732e77696474682c736563610a228201527f6f6e6461727943616e7661732e6865696768743d63616e7661732e6865696768610a428201527f742c6261636b67726f756e6443616e7661732e77696474683d63616e7661732e610a628201527f77696474682c6261636b67726f756e6443616e7661732e6865696768743d6361610a828201527f6e7661732e6865696768743b6c65742070616c6574746557696474682c746974610aa28201527f6c654f66667365742c7365636f6e646172794374783d7365636f6e6461727943610ac28201527f616e7661732e676574436f6e746578742827326427292c6261636b67726f756e610ae28201527f644374783d6261636b67726f756e6443616e7661732e676574436f6e74657874610b028201527f2827326427293b66756e6374696f6e20647261774261736528297b6973526573610b228201527f6964756556697369626c657c7c286261636b67726f756e644374782e636c6561610b428201527f725265637428302c302c63616e7661732e77696474682c63616e7661732e6865610b628201527f69676874292c7365636f6e646172794374782e636c6561725265637428302c30610b828201527f2c63616e7661732e77696474682c63616e7661732e68656967687429292c6669610ba28201527f6c6c4261636b67726f756e6428292c64726177426f74746f6d42617228292c64610bc28201527f726177426f74746f6d4261724c696e657328292c6472617750616c6574746542610be28201527f6f78657328297d66756e6374696f6e2066696c6c4261636b67726f756e642829610c028201527f7b6c657420653d686578546f48534c28636f6c6f72735b305d293b6261636b67610c228201527f726f756e64436f6c6f723d68736c546f537472696e6728652e682c652e732c69610c428201527f734267436f6c6f72546f67676c653f652e6c2b2e312a652e6c3a652e6c2d2e31610c628201527f2a652e6c292c6261636b67726f756e644374782e66696c6c5374796c653d6261610c828201527f636b67726f756e64436f6c6f722c6261636b67726f756e644374782e66696c6c610ca28201527f5265637428302c302c63616e7661732e77696474682c63616e7661732e686569610cc28201527f676874292c6261636b67726f756e644374782e66696c6c5374796c653d66696c610ce28201527f6c436f6c6f727d66756e6374696f6e2064726177426f74746f6d42617228297b610d028201527f746f704374782e66696c6c5374796c653d66696c6c436f6c6f722c746f704374610d228201527f782e66696c6c5265637428302c63616e7661732e6865696768742d626f74746f610d428201527f6d4261724865696768742c63616e7661732e77696474682c626f74746f6d4261610d628201527f72486569676874292c746f704374782e7374726f6b655374796c653d61636365610d828201527f6e74436f6c6f722c746f704374782e6c696e654361703d27726f756e64272c74610da28201527f6f704374782e6c696e6557696474683d4d6174682e666c6f6f722863616e7661610dc28201527f732e77696474682f373030297d66756e6374696f6e2064726177426f74746f6d610de28201527f4261724c696e657328297b746f704374782e626567696e5061746828292c746f610e028201527f704374782e6d6f7665546f28302c63616e7661732e6865696768742d626f7474610e228201527f6f6d426172486569676874292c746f704374782e6c696e65546f2863616e7661610e428201527f732e77696474682c63616e7661732e6865696768742d626f74746f6d42617248610e628201527f6569676874292c746f704374782e7374726f6b6528297d66756e6374696f6e20610e828201527f6472617743656e74657265645465787428652c742c6f2c6e297b652e666f6e74610ea28201527f3d63616e7661732e77696474682f37352b2770782048656c766574696361272c610ec28201527f652e66696c6c5374796c653d6e3b636f6e737420613d652e6d65617375726554610ee28201527f6578742874292c6c3d612e77696474682c733d6f2e782d6c2d31362a6c696e65610f028201527f4f6666736574582c693d6f2e792b286f2e6865696768742b612e61637475616c610f228201527f426f756e64696e67426f78417363656e74292f323b652e66696c6c5465787428610f428201527f742c732c69297d66756e6374696f6e206472617750616c65747465426f786573610f628201527f28297b7469746c654f66667365743d2e3030352a63616e7661732e7769647468610f828201527f2c70616c6574746557696474683d2863616e7661732e77696474682d322a7469610fa28201527f746c654f6666736574292f636f6c6f72732e6c656e6774683b666f72286c6574610fc28201527f20653d303b653c70616c65747465426f7865732e6c656e6774683b652b2b297b610fe28201527f6c657420743d63616e7661732e77696474682d28652b31292a70616c657474656110028201527f57696474682d7469746c654f66667365743b746f704374782e66696c6c5374796110228201527f6c653d70616c65747465426f7865735b655d2e636f6c6f722c70616c657474656110428201527f426f7865735b655d2e783d742c70616c65747465426f7865735b655d2e793d636110628201527f616e7661732e6865696768742d626f74746f6d4261724865696768742b7469746110828201527f6c654f66667365742c70616c65747465426f7865735b655d2e77696474683d706110a28201527f616c6574746557696474682c70616c65747465426f7865735b655d2e686569676110c28201527f68743d626f74746f6d4261724865696768742d322a7469746c654f66667365746110e28201527f2c746f704374782e66696c6c526563742870616c65747465426f7865735b655d6111028201527f2e782c70616c65747465426f7865735b655d2e792c70616c65747465426f78656111228201527f735b655d2e77696474682c70616c65747465426f7865735b655d2e68656967686111428201527f74292c70616c65747465426f7865735b655d2e697353656c65637465643f64726111628201527f6177426f78426f726465727328742b332a6c696e654f6666736574582c63616e6111828201527f7661732e6865696768742d626f74746f6d4261724865696768742b7469746c656111a28201527f4f66667365742d322a6c696e654f6666736574592c626f74746f6d42617248656111c28201527f696768742d322a7469746c654f66667365742c70616c6574746557696474682d6111e28201527f342a6c696e654f6666736574582c746f70437478293a64726177426f78426f726112028201527f6465727328742c63616e7661732e6865696768742d626f74746f6d42617248656112228201527f696768742b7469746c654f66667365742c626f74746f6d4261724865696768746112428201527f2d322a7469746c654f66667365742c70616c6574746557696474682c746f70436112628201527f7478297d7d626f78446174613d5b5d3b6c6574206d696e5769647468416c6c3d6112828201527f72616e646f6d2e72616e646f6d5f696e74283130302c316533292c6d617857696112a28201527f647468416c6c3d72616e646f6d2e72616e646f6d5f696e74283165332c63616e6112c28201527f7661732e7769647468292c6d696e486569676874416c6c3d72616e646f6d2e726112e28201527f616e646f6d5f696e7428332c35292c6d6178486569676874416c6c3d72616e646113028201527f6f6d2e72616e646f6d5f696e7428352c3135293b666f72286c657420653d303b6113228201527f653c6e756d426f7865733b652b2b297b7365636f6e646172794374782e666f6e6113428201527f743d63616e7661732e77696474682f37352b2770782048656c766574696361276113628201527f3b6c657420653d72616e646f6d2e72616e646f6d5f696e74283130302c6d61786113828201527f5769647468416c6c292c743d72616e646f6d2e72616e646f6d5f6e756d286d696113a28201527f6e5769647468416c6c2c65292b31362a6c696e654f6666736574582c6f3d72616113c28201527f6e646f6d2e72616e646f6d5f696e7428352c6d6178486569676874416c6c292c6113e28201527f6e3d72616e646f6d2e72616e646f6d5f6e756d286d696e486569676874416c6c6114028201527f2c6f292c613d6e2a2863616e7661732e77696474682f3330293b6e3c342626286114228201527f613d6e2a2863616e7661732e77696474682f323529292c626f78446174612e706114428201527f757368287b626f7857696474683a742c626f784865696768743a612c67456e616114628201527f626c65643a653d3d3d307c7c72616e646f6d2e72616e646f6d5f626f6f6c282e6114828201527f33297d297d66756e6374696f6e206973436f6c6c6964696e6728652c74297b636114a28201527f6f6e7374206f3d652e782b312e312a652e626f7857696474682c6e3d652e792b6114c28201527f312e312a652e626f784865696768742c613d742e782b312e312a742e626f78576114e28201527f696474682c6c3d742e792b312e312a742e626f784865696768743b72657475726115028201527f6e2128742e783e3d6f7c7c652e783e3d617c7c742e793e3d6e7c7c652e793e3d6115228201527f6c297d66756e6374696f6e20706f736974696f6e426f7828652c74297b6c65746115428201527f206f3d303b646f7b696628652e783d72616e646f6d2e72616e646f6d5f6e756d6115628201527f2831302c63616e7661732e77696474682d652e626f7857696474682d63616e766115828201527f61732e77696474682a2e3034292c652e793d72616e646f6d2e72616e646f6d5f6115a28201527f6e756d2831302c63616e7661732e6865696768742d626f74746f6d42617248656115c28201527f696768742d652e626f78486569676874292c21742e736f6d652828743d3e69736115e28201527f436f6c6c6964696e6728652c742929292972657475726e21303b6f2b2b7d77686116028201527f696c65286f3c3530293b72657475726e21317d666f72286c657420653d303b656116228201527f3c626f78446174612e6c656e6774683b652b2b29706f736974696f6e426f78286116428201527f626f78446174615b655d2c626f78446174612e736c69636528302c6529297c7c6116628201527f28626f78446174612e73706c69636528652c31292c652d2d293b66756e6374696116828201527f6f6e2064726177426f78426f726465727328652c742c6f2c6e2c613d6e756c6c6116a28201527f297b28613d617c7c6f666673637265656e437478292e7374726f6b655374796c6116c28201527f653d6c69676874436f6c6f722c612e6c696e6557696474683d4d6174682e666c6116e28201527f6f6f722863616e7661732e77696474682f316533292c612e626567696e5061746117028201527f6828292c612e6d6f7665546f28652c742b6f292c612e6c696e65546f28652c746117228201527f292c612e6c696e65546f28652b6e2c74292c612e7374726f6b6528292c612e736117428201527f74726f6b655374796c653d6c696768746572436f6c6f722c612e626567696e506117628201527f61746828292c612e6d6f7665546f28652b6c696e654f6666736574582c742b6f6117828201527f292c612e6c696e65546f28652b6c696e654f6666736574582c742b6c696e654f6117a28201527f666673657459292c612e6c696e65546f28652b6e2c742b6c696e654f666673656117c28201527f7459292c612e7374726f6b6528292c612e7374726f6b655374796c653d6461726117e28201527f6b6572436f6c6f722c612e626567696e5061746828292c612e6d6f7665546f286118028201527f652c742b6f2b6c696e654f666673657459292c612e6c696e65546f28652b6e2c6118228201527f742b6f2b6c696e654f666673657459292c612e6c696e65546f28652b6e2c74296118428201527f2c612e7374726f6b6528292c612e7374726f6b655374796c653d6461726b436f6118628201527f6c6f722c612e626567696e5061746828292c612e6d6f7665546f28652c742b6f6118828201527f292c612e6c696e65546f28652d6c696e654f6666736574582b6e2c742b6f292c6118a28201527f612e6c696e65546f28652d6c696e654f6666736574582b6e2c74292c612e73746118c28201527f726f6b6528297d66756e6374696f6e2064726177426f78426f726465727332286118e28201527f652c742c6f2c6e2c613d6e756c6c297b28613d617c7c6f666673637265656e436119028201527f7478292e7374726f6b655374796c653d6461726b436f6c6f722c612e6c696e656119228201527f57696474683d4d6174682e666c6f6f722863616e7661732e77696474682f31656119428201527f33292c612e626567696e5061746828292c612e6d6f7665546f28652c742b6f296119628201527f2c612e6c696e65546f28652c74292c612e6c696e65546f28652b6e2c74292c616119828201527f2e7374726f6b6528292c612e7374726f6b655374796c653d6461726b436f6c6f6119a28201527f722c612e626567696e5061746828292c612e6d6f7665546f28652b6c696e654f6119c28201527f6666736574582c742b6f292c612e6c696e65546f28652b6c696e654f666673656119e28201527f74582c742b6c696e654f666673657459292c612e6c696e65546f28652b6e2c74611a028201527f2b6c696e654f666673657459292c612e7374726f6b6528292c612e7374726f6b611a228201527f655374796c653d6c69676874436f6c6f722c612e626567696e5061746828292c611a428201527f612e6d6f7665546f28652c742b6f2b6c696e654f666673657459292c612e6c69611a628201527f6e65546f28652b6e2c742b6f2b6c696e654f666673657459292c612e6c696e65611a828201527f546f28652b6e2c74292c612e7374726f6b6528292c612e7374726f6b65537479611aa28201527f6c653d6c69676874436f6c6f722c612e626567696e5061746828292c612e6d6f611ac28201527f7665546f28652c742b6f292c612e6c696e65546f28652d6c696e654f66667365611ae28201527f74582b6e2c742b6f292c612e6c696e65546f28652d6c696e654f666673657458611b028201527f2b6e2c74292c612e7374726f6b6528297d66756e6374696f6e2064726177426f611b228201527f78657328297b6c657420653d33352c743d303b666f72286c6574206f206f6620611b428201527f626f7844617461297b742b2b2c652b3d343b6c6574206e3d6f2e782c613d6f2e611b628201527f792c6c3d6f2e626f7857696474682c733d6f2e626f784865696768743b6f6666611b828201527f73637265656e4374782e66696c6c5374796c653d70617274793f626f7865735b611ba28201527f745d3a66696c6c436f6c6f722c6f666673637265656e4374782e66696c6c5265611bc28201527f6374286e2c612c6c2c73292c6f666673637265656e4374782e66696c6c526563611be28201527f74286e2c612c6c2c73293b6c657420693d6f666673637265656e4374782e6372611c028201527f656174654c696e6561724772616469656e74286e2b32352a6c696e654f666673611c228201527f6574582c612b32352a6c696e654f6666736574592c6e2b6c2d35302a6c696e65611c428201527f4f6666736574582c612b32352a6c696e654f666673657459293b692e61646443611c628201527f6f6c6f7253746f7028302c616363656e74436f6c6f72292c692e616464436f6c611c828201527f6f7253746f7028312c6c696768746572436f6c6f72292c6f666673637265656e611ca28201527f4374782e66696c6c5374796c653d692c6f666673637265656e4374782e626567611cc28201527f696e5061746828292c6f666673637265656e4374782e66696c6c52656374286e611ce28201527f2b32352a6c696e654f6666736574582c612b32352a6c696e654f666673657459611d028201527f2c6c2d35302a6c696e654f6666736574582c63616e7661732e77696474682f34611d228201527f30292c6f666673637265656e4374782e7374726f6b6528292c6f666673637265611d428201527f656e4374782e66696c6c5374796c653d70617274793f626f7865735b745d3a66611d628201527f696c6c436f6c6f722c64726177426f78426f7264657273286e2c612c732c6c29611d828201527f2c64726177426f78426f726465727332286e2b35302a6c696e654f6666736574611da28201527f582c612b3130302a6c696e654f6666736574592b63616e7661732e7769647468611dc28201527f2f34302c732d3130302a6c696e654f6666736574592d2835302a6c696e654f66611de28201527f66736574592b63616e7661732e77696474682f3430292c6c2d3130302a6c696e611e028201527f654f666673657458297d7365636f6e646172794374782e64726177496d616765611e228201527f286f666673637265656e43616e7661732c302c30297d66756e6374696f6e2070611e428201527f6f73746572697a6543616e76617328652c742c6f297b666f7228766172206e3d611e628201527f652e676574496d6167654461746128302c302c742e77696474682c742e686569611e828201527f676874292c613d6e2e646174612c6c3d4d6174682e6365696c283235352f6f29611ea28201527f2c733d303b733c612e6c656e6774683b732b3d3429666f722876617220693d30611ec28201527f3b693c333b692b2b29615b732b695d3d4d6174682e666c6f6f7228615b732b69611ee28201527f5d2f6c292a6c3b652e707574496d61676544617461286e2c302c30297d6c6574611f028201527f2066697273743d21302c6669727374323d21303b66756e6374696f6e20726564611f228201527f72617743616e76617328297b6966286f666673637265656e4374782e636c6561611f428201527f725265637428302c302c6f666673637265656e43616e7661732e77696474682c611f628201527f6f666673637265656e43616e7661732e686569676874292c746f704374782e63611f828201527f6c6561725265637428302c302c6f666673637265656e43616e7661732e776964611fa28201527f74682c6f666673637265656e43616e7661732e686569676874292c6472617742611fc28201527f61736528292c64726177426f78657328292c6973446f776e6c6f6164696e6726611fe28201527f2628646f776e6c6f616428292c6973446f776e6c6f6164696e673d2131292c636120028201527f74782e64726177496d616765286261636b67726f756e6443616e7661732c302c6120228201527f302c63616e7661732e77696474682c63616e7661732e686569676874292c63746120428201527f782e64726177496d616765287365636f6e6461727943616e7661732c302c302c6120628201527f63616e7661732e77696474682c63616e7661732e686569676874292c6374782e6120828201527f64726177496d61676528746f7043616e7661732c302c302c63616e7661732e776120a28201527f696474682c63616e7661732e686569676874292c6669727374297b66697273746120c28201527f322626286669727374323d21312c6261636b67726f756e64546f67676c652e696120e28201527f7353656c65637465643d21302c69735265736964756556697369626c653d21696121028201527f735265736964756556697369626c652c7365636f6e646172794374782e636c656121228201527f61725265637428302c302c63616e7661732e77696474682c63616e7661732e686121428201527f65696768742b626f74746f6d426172486569676874292c72656472617743616e6121628201527f7661732829292c66697273743d21313b636f6e737420653d63616e7661732e776121828201527f696474682f72616e646f6d2e72616e646f6d5f6e756d28312e352c33292c743d6121a28201527f63616e7661732e6865696768742f72616e646f6d2e72616e646f6d5f6e756d286121c28201527f312e352c33293b6c6574206f3d652c6e3d742c613d736574496e74657276616c6121e28201527f282866756e6374696f6e28297b677261766974617465286f2c6e297d292c38306122028201527f293b73657454696d656f7574282828293d3e7b636c656172496e74657276616c6122228201527f2861292c613d6e756c6c2c72656472617743616e76617328297d292c383030296122428201527f2c6164644d6f7573654576656e747328297d7d66756e6374696f6e20646f776e6122628201527f6c6f616428297b76617220653d646f63756d656e742e637265617465456c656d6122828201527f656e74282763616e76617327293b652e77696474683d63616e7661732e7769646122a28201527f74682d626f74746f6d4261724865696768742c652e6865696768743d63616e766122c28201527f61732e6865696768742d626f74746f6d4261724865696768743b76617220743d6122e28201527f652e676574436f6e746578742827326427293b742e66696c7465723d277365706123028201527f6961282e3229272c742e64726177496d616765286261636b67726f756e6443616123228201527f6e7661732c302c302c652e77696474682c6261636b67726f756e6443616e76616123428201527f732e686569676874292c742e64726177496d616765287365636f6e64617279436123628201527f616e7661732c302c302c652e77696474682c7365636f6e6461727943616e76616123828201527f732e686569676874293b766172206f3d646f63756d656e742e637265617465456123a28201527f6c656d656e7428276127293b6f2e646f776e6c6f61643d2750616c657474655f6123c2820152602360f81b6123e2820152905191605d8201916134709184916123e301906171ac565b7f2e706e67272c6f2e687265663d652e746f4461746155524c28292c6f2e636c6991016123868101919091527f636b28297d636f6e737420636f6e746578744d656e753d646f63756d656e742e6123a68201527f637265617465456c656d656e74282764697627293b66756e6374696f6e2063726123c68201527f656174654d656e754974656d2865297b636f6e737420743d646f63756d656e746123e68201527f2e637265617465456c656d656e74282764697627293b72657475726e20742e746124068201527f657874436f6e74656e743d652c742e7374796c652e70616464696e673d272e356124268201527f656d272c742e7374796c652e637572736f723d27706f696e746572272c742e736124468201527f74796c652e636f6c6f723d2723666666272c742e7374796c652e666f6e7446616124668201527f6d696c793d2748656c766574696361272c742e7374796c652e666f6e7453697a6124868201527f653d2731367078272c742e7374796c652e6d696e4865696768743d27343470786124a68201527f272c742e7374796c652e646973706c61793d27666c6578272c742e7374796c656124c68201527f2e616c69676e4974656d733d2763656e746572272c742e6164644576656e744c6124e68201527f697374656e657228276d6f7573656f766572272c2828293d3e7b742e7374796c6125068201527f652e6261636b67726f756e64436f6c6f723d2723666666272c742e7374796c656125268201527f2e636f6c6f723d2723303030277d29292c742e6164644576656e744c697374656125468201527f6e657228276d6f7573656f7574272c2828293d3e7b742e7374796c652e6261636125668201527f6b67726f756e64436f6c6f723d277472616e73706172656e74272c742e7374796125868201527f6c652e636f6c6f723d2723666666277d29292c747d636f6e746578744d656e756125a68201527f2e7374796c652e706f736974696f6e3d276669786564272c636f6e746578744d6125c68201527f656e752e7374796c652e646973706c61793d276e6f6e65272c636f6e746578746125e68201527f4d656e752e7374796c652e6261636b67726f756e64436f6c6f723d27233030306126068201527f272c636f6e746578744d656e752e7374796c652e626f726465723d272e3031656126268201527f6d20736f6c69642023666666272c636f6e746578744d656e752e7374796c652e6126468201527f70616464696e673d272e31656d272c636f6e746578744d656e752e7374796c656126668201527f2e7a496e6465783d2731303030272c636f6e746578744d656e752e7374796c656126868201527f2e6d696e57696474683d273135307078272c636f6e746578744d656e752e73746126a68201527f796c652e746f756368416374696f6e3d276e6f6e65273b636f6e737420636f706126c68201527f794f7074696f6e3d6372656174654d656e754974656d2827436f707920496d616126e68201527f676527293b636f70794f7074696f6e2e6164644576656e744c697374656e65726127068201527f2827636c69636b272c28653d3e7b636f6e737420743d646f63756d656e742e636127268201527f7265617465456c656d656e74282763616e76617327293b742e77696474683d636127468201527f616e7661732e77696474682d626f74746f6d4261724865696768742c742e68656127668201527f696768743d63616e7661732e6865696768742d626f74746f6d426172486569676127868201527f68743b636f6e7374206f3d742e676574436f6e746578742827326427293b62616127a68201527f636b67726f756e644374782e66696c7465723d277365706961282e3229272c736127c68201527f65636f6e646172794374782e66696c7465723d277365706961282e3229272c6f6127e68201527f2e66696c7465723d277365706961282e3229272c6f2e64726177496d616765286128068201527f6261636b67726f756e6443616e7661732c302c302c742e77696474682c6261636128268201527f6b67726f756e6443616e7661732e686569676874292c6f2e64726177496d61676128468201527f65287365636f6e6461727943616e7661732c302c302c742e77696474682c73656128668201527f636f6e6461727943616e7661732e686569676874292c742e746f426c6f6228286128868201527f653d3e7b636f6e737420743d6e657720436c6970626f6172644974656d287b276128a68201527f696d6167652f706e67273a657d293b6e6176696761746f722e636c6970626f616128c68201527f72642e7772697465285b745d297d29292c636f6e746578744d656e752e7374796128e68201527f6c652e646973706c61793d276e6f6e65277d29293b636f6e73742062674f70746129068201527f696f6e3d6372656174654d656e754974656d2827546f67676c65204261636b676129268201527f726f756e6427293b62674f7074696f6e2e6164644576656e744c697374656e656129468201527f722827636c69636b272c28653d3e7b69734267436f6c6f72546f67676c653d216129668201527f69734267436f6c6f72546f67676c652c6261636b67726f756e644374782e636c6129868201527f6561725265637428302c302c63616e7661732e77696474682c63616e7661732e6129a68201527f686569676874292c72656472617743616e76617328292c636f6e746578744d656129c68201527f6e752e7374796c652e646973706c61793d276e6f6e65277d29293b636f6e73746129e68201527f20726573696475654f7074696f6e3d6372656174654d656e754974656d282754612a068201527f6f67676c65205265736964756527293b726573696475654f7074696f6e2e6164612a268201527f644576656e744c697374656e65722827636c69636b272c28653d3e7b69735265612a468201527f736964756556697369626c653d2169735265736964756556697369626c652c73612a668201527f65636f6e646172794374782e636c6561725265637428302c302c63616e766173612a868201527f2e77696474682c63616e7661732e6865696768742b626f74746f6d4261724865612aa68201527f69676874292c72656472617743616e76617328292c636f6e746578744d656e75612ac68201527f2e7374796c652e646973706c61793d276e6f6e65277d29293b636f6e73742064612ae68201527f6f776e6c6f61644f7074696f6e3d6372656174654d656e754974656d2827446f612b068201527f776e6c6f616420504e4727293b646f776e6c6f61644f7074696f6e2e61646445612b268201527f76656e744c697374656e65722827636c69636b272c28653d3e7b6973446f776e612b468201527f6c6f6164696e673d21302c72656472617743616e76617328292c636f6e746578612b668201527f744d656e752e7374796c652e646973706c61793d276e6f6e65277d29292c636f612b868201527f6e746578744d656e752e617070656e644368696c6428636f70794f7074696f6e612ba68201527f292c636f6e746578744d656e752e617070656e644368696c642862674f707469612bc68201527f6f6e292c636f6e746578744d656e752e617070656e644368696c642872657369612be68201527f6475654f7074696f6e292c636f6e746578744d656e752e617070656e64436869612c068201527f6c6428646f776e6c6f61644f7074696f6e292c646f63756d656e742e626f6479612c268201527f2e617070656e644368696c6428636f6e746578744d656e75293b66756e637469612c468201527f6f6e2073686f77436f6e746578744d656e7528652c74297b636f6e746578744d612c668201527f656e752e7374796c652e646973706c61793d27626c6f636b273b636f6e737420612c868201527f6f3d636f6e746578744d656e752e676574426f756e64696e67436c69656e7452612ca68201527f65637428292c6e3d77696e646f772e696e6e657257696474682c613d77696e64612cc68201527f6f772e696e6e65724865696768743b652b6f2e77696474683e6e262628653d6e612ce68201527f2d6f2e7769647468292c742b6f2e6865696768743e61262628743d612d6f2e68612d068201527f6569676874292c636f6e746578744d656e752e7374796c652e6c6566743d652b612d268201527f277078272c636f6e746578744d656e752e7374796c652e746f703d742b277078612d468201527f277d63616e7661732e6164644576656e744c697374656e65722827636f6e7465612d668201527f78746d656e75272c28653d3e7b652e70726576656e7444656661756c7428292c612d868201527f73686f77436f6e746578744d656e7528652e70616765582c652e706167655929612da68201527f7d29292c646f63756d656e742e6164644576656e744c697374656e6572282763612dc68201527f6c69636b272c28653d3e7b636f6e746578744d656e752e636f6e7461696e7328612de68201527f652e746172676574297c7c28636f6e746578744d656e752e7374796c652e6469612e068201527f73706c61793d276e6f6e6527297d29292c72656472617743616e76617328293b612e268201527f6c6574206f6666736574582c6f6666736574592c677261766974617465496e74612e468201527f657276616c3d6e756c6c2c67583d302c67593d302c69734472616767696e673d612e668201527f21312c73656c6563746564426f783d6e756c6c2c73656c656374656450616c65612e868201527f747465426f783d6e756c6c3b66756e6374696f6e206164644d6f757365457665612ea68201527f6e747328297b63616e7661732e6164644576656e744c697374656e657228276d612ec68201527f6f757365646f776e272c28653d3e7b696628303d3d3d652e627574746f6e297b612ee68201527f636f6e737420743d63616e7661732e676574426f756e64696e67436c69656e74612f068201527f5265637428293b6c6574206f3d652e636c69656e74582d742e6c6566742c6e3d612f268201527f652e636c69656e74592d742e746f703b6f3d6d617056616c7565286f2c302c73612f468201527f6d616c6c657244696d656e73696f6e2c302c63616e7661732e7769647468292c612f668201527f6e3d6d617056616c7565286e2c302c736d616c6c657244696d656e73696f6e2c612f868201527f302c63616e7661732e686569676874293b666f72286c65742065206f6620626f612fa68201527f7844617461296966286f3e3d652e7826266f3c3d652e782b652e626f78576964612fc68201527f746826266e3e3d652e7926266e3c3d652e792b652e626f78486569676874297b612fe68201527f69734472616767696e673d21302c73656c6563746564426f783d652c6f6666736130068201527f6574583d6f2d652e782c6f6666736574593d6e2d652e793b627265616b7d69666130268201527f286e756c6c213d73656c6563746564426f782972657475726e3b666f72286c656130468201527f7420653d303b653c70616c65747465426f7865732e6c656e6774683b652b2b296130668201527f7b636f6e737420743d70616c65747465426f7865735b655d3b6966286f3e3d746130868201527f2e7826266f3c3d742e782b742e776964746826266e3e3d742e7926266e3c3d746130a68201527f2e792b742e6865696768742972657475726e2073656c656374656450616c65746130c68201527f7465426f783d742c73656c656374656450616c65747465426f782e697353656c6130e68201527f65637465643d21302c66696c6c436f6c6f723d73656c656374656450616c65746131068201527f7465426f782e636f6c6f722c70617274793d21312c7265736574436f6c6f72736131268201527f282131292c766f69642072656472617743616e76617328297d6e756c6c3d3d676131468201527f7261766974617465496e74657276616c26262867583d6f2c67593d6e2c6772616131668201527f766974617465496e74657276616c3d736574496e74657276616c282866756e636131868201527f74696f6e28297b6772617669746174652867582c6759297d292c313029297d7d6131a68201527f29297d66756e6374696f6e2067726176697461746528652c74297b666f72286c6131c68201527f6574206f206f6620626f7844617461297b6966286f2e67456e61626c6564297b6131e68201527f636f6e7374206e3d652d286f2e782b6f2e626f7857696474682f32292c613d746132068201527f2d286f2e792b6f2e626f784865696768742f32292c6c3d4d6174682e737172746132268201527f286e2a6e2b612a61292c733d6e2f6c2c693d612f6c2c723d323b6f2e782b3d736132468201527f2a722c6f2e792b3d692a727d7d72656472617743616e76617328297d63616e766132668201527f61732e6164644576656e744c697374656e657228276d6f7573656d6f7665272c6132868201527f28653d3e7b69662869734472616767696e67262673656c6563746564426f78296132a68201527f7b636f6e737420743d63616e7661732e676574426f756e64696e67436c69656e6132c68201527f745265637428293b6c6574206f3d652e636c69656e74582d742e6c6566742c6e6132e68201527f3d652e636c69656e74592d742e746f703b6f3d6d617056616c7565286f2c302c6133068201527f736d616c6c657244696d656e73696f6e2c302c63616e7661732e7769647468296133268201527f2c6e3d6d617056616c7565286e2c302c736d616c6c657244696d656e73696f6e6133468201527f2c302c63616e7661732e686569676874292c73656c6563746564426f782e783d6133668201527f6f2d6f6666736574582c73656c6563746564426f782e793d6e2d6f66667365746133868201527f592c72656472617743616e76617328297d6966286e756c6c213d6772617669746133a68201527f617465496e74657276616c297b636f6e737420743d63616e7661732e676574426133c68201527f6f756e64696e67436c69656e745265637428293b6c6574206f3d652e636c69656133e68201527f6e74582d742e6c6566742c6e3d652e636c69656e74592d742e746f703b67583d6134068201527f6d617056616c7565286f2c302c736d616c6c657244696d656e73696f6e2c302c6134268201527f63616e7661732e7769647468292c67593d6d617056616c7565286e2c302c736d6134468201527f616c6c657244696d656e73696f6e2c302c63616e7661732e686569676874297d6134668201527f7d29292c63616e7661732e6164644576656e744c697374656e657228276d6f756134868201527f73657570272c28653d3e7b696628636c656172496e74657276616c28677261766134a68201527f6974617465496e74657276616c292c677261766974617465496e74657276616c6134c68201527f3d6e756c6c2c69734472616767696e673d21312c6e756c6c213d73656c6563746134e68201527f656450616c65747465426f7826262873656c656374656450616c65747465426f6135068201527f782e697353656c65637465643d21312c70617274793d21312c73656c656374656135268201527f6450616c65747465426f783d6e756c6c2c72656472617743616e7661732829296135468201527f2c6e756c6c3d3d73656c6563746564426f782972657475726e3b636f6e7374206135668201527f743d63616e7661732e676574426f756e64696e67436c69656e745265637428296135868201527f3b6c6574206f3d652e636c69656e74582d742e6c6566742c6e3d652e636c69656135a68201527f6e74592d742e746f703b6f3d6d617056616c7565286f2c302c736d616c6c65726135c68201527f44696d656e73696f6e2c302c63616e7661732e7769647468292c6e3d6d6170566135e68201527f616c7565286e2c302c736d616c6c657244696d656e73696f6e2c302c63616e7661360682018190527f61732e686569676874292c73656c6563746564426f782e783d6f2d6f666673656136268301527f74582c73656c6563746564426f782e793d6e2d6f6666736574592c73656c65636136468301527f746564426f783d6e756c6c2c72656472617743616e76617328297d29292c63616136668301527f6e7661732e6164644576656e744c697374656e65722827636f6e746578746d656136868301527f6e75272c2866756e6374696f6e2865297b7d29293b6c6574206c6173745461706136a68301527f54696d653d303b66756e6374696f6e20686578546f48534c537472696e6728656136c68301527f297b636f6e737420743d686578546f48534c2865293b72657475726e2068736c6136e68301527f546f537472696e6728742e682c742e732c742e6c297d66756e6374696f6e20686137068301527f736c546f537472696e6728652c742c6f297b72657475726e6068736c28247b656137268301527f7d2c20247b747d252c20247b6f7d2529607d66756e6374696f6e20686578546f6137468301527f48534c2865297b653d652e7265706c616365282f5e232f2c2727293b6c6574206137668301527f742c6f2c6e3d7061727365496e7428652e737562737472696e6728302c32292c6137868301527f3136292f3235352c613d7061727365496e7428652e737562737472696e6728326137a68301527f2c34292c3136292f3235352c6c3d7061727365496e7428652e737562737472696137c68301527f6e6728342c36292c3136292f3235352c733d4d6174682e6d6178286e2c612c6c6137e68301527f292c693d4d6174682e6d696e286e2c612c6c292c723d28732b69292f323b69666138068301527f28733d3d3d6929743d6f3d303b656c73657b6c657420653d732d693b737769746138268301527f6368286f3d723e2e353f652f28322d732d69293a652f28732b69292c73297b636138468301527f617365206e3a743d28612d6c292f652b28613c6c3f363a30293b627265616b3b6138668301527f6361736520613a743d286c2d6e292f652b323b627265616b3b63617365206c3a6138868301527f743d286e2d61292f652b347d742f3d367d72657475726e20743d4d6174682e726138a68301527f6f756e64283336302a74292c6f3d4d6174682e726f756e64283130302a6f292c6138c68301527f723d4d6174682e726f756e64283130302a72292c7b683a742c733a6f2c6c3a726138e68301527f7d7d66756e6374696f6e20736f7274436f6c6f7273427948534c2865297b72656139068301527f7475726e5b2e2e2e655d2e736f7274282828652c74293d3e7b636f6e7374206f6139268301527f3d686578546f48534c2865292c6e3d686578546f48534c2874293b72657475726139468301527f6e206f2e68213d3d6e2e683f6f2e682d6e2e683a6f2e73213d3d6e2e733f6e2e6139668301527f732d6f2e733a6e2e6c2d6f2e6c7d29297d66756e6374696f6e206d617056616c6139868301527f756528652c742c6f2c6e2c61297b72657475726e206e2b28652d74292f286f2d6139a68301527f74292a28612d6e297d63616e7661732e6164644576656e744c697374656e65726139c68301527f2827746f7563687374617274272c28653d3e7b652e70726576656e74446566616139e68301527f756c7428292c636f6e746578744d656e752e636f6e7461696e7328652e746172613a068301527f676574297c7c28636f6e746578744d656e752e7374796c652e646973706c6179613a268301527f3d276e6f6e6527293b636f6e737420743d286e65772044617465292e67657454613a468301527f696d6528293b6c61737454617054696d653d743b636f6e7374206f3d63616e76613a668301527f61732e676574426f756e64696e67436c69656e745265637428293b6c6574206e613a868301527f3d652e746f75636865735b305d2e636c69656e74582d6f2e6c6566742c613d65613aa68301527f2e746f75636865735b305d2e636c69656e74592d6f2e746f703b6e3d6d617056613ac6830152613ae68201527f61732e7769647468292c613d6d617056616c756528612c302c736d616c6c6572613b068201527f44696d656e73696f6e2c302c63616e7661732e686569676874293b666f72286c613b268201527f65742065206f6620626f7844617461296966286e3e3d652e7826266e3c3d652e613b468201527f782b652e626f7857696474682626613e3d652e792626613c3d652e792b652e62613b668201527f6f78486569676874297b69734472616767696e673d21302c73656c6563746564613b868201527f426f783d652c6f6666736574583d6e2d652e782c6f6666736574593d612d652e613ba68201527f793b6c61737454617054696d653d303b627265616b7d6966286e756c6c3d3d73613bc68201527f656c6563746564426f78297b666f72286c657420653d303b653c70616c657474613be68201527f65426f7865732e6c656e6774683b652b2b297b636f6e737420743d70616c6574613c068201527f7465426f7865735b655d3b6966286e3e3d742e7826266e3c3d742e782b742e77613c268201527f696474682626613e3d742e792626613c3d742e792b742e686569676874297265613c468201527f7475726e2073656c656374656450616c65747465426f783d742c73656c656374613c668201527f656450616c65747465426f782e697353656c65637465643d21302c66696c6c43613c868201527f6f6c6f723d73656c656374656450616c65747465426f782e636f6c6f722c7265613ca68201527f736574436f6c6f7273282131292c70617274793d66616c73652c766f69642072613cc68201527f656472617743616e76617328293b7d6e756c6c3d3d677261766974617465496e613ce68201527f74657276616c26262867583d6e2c67593d612c677261766974617465496e7465613d068201527f7276616c3d736574496e74657276616c282866756e6374696f6e28297b677261613d268201527f7669746174652867582c6759297d292c313029297d7d29292c63616e7661732e613d468201527f6164644576656e744c697374656e65722827746f7563686d6f7665272c28653d613d668201527f3e7b696628652e70726576656e7444656661756c7428292c6973447261676769613d868201527f6e67262673656c6563746564426f78297b636f6e737420743d63616e7661732e613da68201527f676574426f756e64696e67436c69656e745265637428293b6c6574206f3d652e613dc68201527f746f75636865735b305d2e636c69656e74582d742e6c6566742c6e3d652e746f613de68201527f75636865735b305d2e636c69656e74592d742e746f703b6f3d6d617056616c75613e068201527f65286f2c302c736d616c6c657244696d656e73696f6e2c302c63616e7661732e613e268201527f7769647468292c6e3d6d617056616c7565286e2c302c736d616c6c657244696d613e468201527f656e73696f6e2c302c63616e7661732e686569676874292c73656c6563746564613e668201527f426f782e783d6f2d6f6666736574582c73656c6563746564426f782e793d6e2d613e868201527f6f6666736574592c72656472617743616e76617328297d6966286e756c6c213d613ea68201527f677261766974617465496e74657276616c297b636f6e737420743d63616e7661613ec68201527f732e676574426f756e64696e67436c69656e745265637428293b6c6574206f3d613ee68201527f652e746f75636865735b305d2e636c69656e74582d742e6c6566742c6e3d652e613f068201527f746f75636865735b305d2e636c69656e74592d742e746f703b67583d6d617056613f268201527f616c7565286f2c302c736d616c6c657244696d656e73696f6e2c302c63616e76613f468201527f61732e7769647468292c67593d6d617056616c7565286e2c302c736d616c6c65613f668201527f7244696d656e73696f6e2c302c63616e7661732e686569676874297d7d29292c613f868201527f63616e7661732e6164644576656e744c697374656e65722827746f756368656e613fa68201527f64272c28653d3e7b652e70726576656e7444656661756c7428293b636f6e7374613fc68201527f20743d286e65772044617465292e67657454696d6528292d6c61737454617054613fe68201527f696d653b696628743c313530302626743e3530302626743e302972657475726e6140068201527f20636c656172496e74657276616c28677261766974617465496e74657276616c6140268201527f292c677261766974617465496e74657276616c3d6e756c6c2c62723d63616e766140468201527f61732e676574426f756e64696e67436c69656e745265637428292c73686f77436140668201527f6f6e746578744d656e752862722e6c6566742c62722e746f70292c766f6964286140868201527f6c61737454617054696d653d30293b636c656172496e74657276616c286772616140a68201527f766974617465496e74657276616c292c677261766974617465496e74657276616140c68201527f6c3d6e756c6c2c6261636b67726f756e64546f67676c652e697353656c6563746140e68201527f65642626286261636b67726f756e64546f67676c652e697353656c65637465646141068201527f3d21312c72656472617743616e7661732829292c6267436f6c6f72546f67676c6141268201527f652e697353656c65637465642626286267436f6c6f72546f67676c652e6973536141468201527f656c65637465643d21312c72656472617743616e7661732829292c646f776e6c6141668201527f6f6164426f782e697353656c6563746564262628646f776e6c6f6164426f782e6141868201527f697353656c65637465643d21312c6973446f776e6c6f6164696e673d21302c726141a68201527f656472617743616e7661732829292c6e756c6c213d73656c656374656450616c6141c68201527f65747465426f7826262873656c656374656450616c65747465426f782e6973536141e68201527f656c65637465643d21312c73656c656374656450616c65747465426f783d6e756142068201527f6c6c2c72656472617743616e7661732829292c69734472616767696e673d21316142268201527f2c73656c6563746564426f783d6e756c6c2c72656472617743616e76617328296142468201526b3e94949e17b9b1b934b83a1f60a11b6142668201526d1e17b137b23c9f1e17b43a36b61f60911b6142728201520361426081018452615a3b906142800184617113565b81519384936060855260608501615a51916171cf565b8481036020860152615a62916171cf565b918301520390f35b615a8891503d8060e051833e615a808183617113565b8101906172f0565b88610239565b86513d60e051823e3d90fd5b81811a906001600160f81b0319615ab8600484901c600f16866173f3565b5116918160011b9282840460021483151715615b2c57836002019081600211615b2c57615aea9060e0511a918b6173f3565b536001600160f81b031990615b0290600f16866173f3565b51169160e0515060030180600311615b2c57615b2560019360e0511a918a6173f3565b53016101fa565b634e487b7160e01b60e051526011600452602460e051fd5b634e487b7160e01b60e051526032600452602460e051fd5b9091506020813d602011615b8d575b81615b7860209383617113565b81010312615b885751908561017f565b600080fd5b3d9150615b6b565b6040513d60e051823e3d90fd5b6084919450615bbc903d8060e051833e615a808183617113565b939061012a565b346100d15760203660031901126100d1576004356001600160a01b038116908190036100d15760e051546001600160a01b031633148015615c28575b615c089061722d565b6bffffffffffffffffffffffff60a01b600254161760025560e05160e051f35b5060e08051339052600160205251604090205460ff16615bff565b346100d15760e0513660031901126100d1576002546040516001600160a01b039091168152602090f35b346100d15760203660031901126100d1576004356001600160a01b038116908190036100d15760e051526001602052602060ff604060e0512054166040519015158152f35b346100d157615cc036617196565b60805260018060a01b03600254169060405190631139eabb60e21b8252600482015260e051602482015260e05181604481855afa8015615b955760e05161036052616c57575b506103605160200151805190919015615b44576020615d429201516040519283916343d5cfd160e11b83526040600484015260448301906171cf565b91600a6024830152818060e0519403915afa908115615b955760e05191616c3b575b50615e476003609c60405180947f3c7376672077696474683d2736333027206865696768743d273633302720766960208301527f6577426f783d2730203020363330203633302720786d6c6e733d27687474703a60408301527f2f2f7777772e77332e6f72672f323030302f737667273e00000000000000000060608301527f3c726563742077696474683d2736333027206865696768743d27363330272066607783015264696c6c3d2760d81b6097830152615e2a81518092602086860191016171ac565b81016213979f60e91b838201520301601c19810184520182617113565b6103005260e0805160a052600354604051630e6c328760e31b815260805160048201529151602483015260016044830152603260648301526001600160a01b031690602081608481855afa908115615b955760e05191616c09575b50600160a052615ec4615eb4826172af565b6040516103805261038051617113565b806103805152601f19615ed6826172af565b0160e0515b818110616bcf57828460e05160c05260e051610340525b816103405110615f5957615f55604051615f4160066020836103005151615f21818484018561030051016171ac565b8101651e17b9bb339f60d11b838201520301601919810184520182617113565b6040519182916020835260208301906171cf565b0390f35b60e05191825b831580616bc5575b15616bb357604051630e6c328760e31b8152608051600482015260a05160248201526001604482015261014a6064820152602081608481875afa8015615b955760e0516102e052616b7e575b50615fbf60a051617315565b604051630e6c328760e31b81526080516004820152602481018290526001604482015261014a606482015290602082608481885afa918215615b955760e05192616b47575b5061600e90617315565b604051630e6c328760e31b8152608051600482015260248101829052601e604482015261012c6064820152602081608481895afa8015615b955760e05161026052616b10575b5061605e90617315565b604051630e6c328760e31b8152608051600482015260248101829052601e604482015261012c6064820152602081608481895afa8015615b955760e0516102c052616ad9575b506160ae90617315565b60a05260e051805b60c05181106169f3575b50156160d6575b506160d190617315565b615f5f565b9093506040516160e5816170e2565b6102e05181528160208201526102605160408201526102c051606082015261611260c051610380516172c6565b5261612260c051610380516172c6565b5061612e60c051617315565b60c05260206103605101515180600019810111615b2c57604051630e6c328760e31b8152608051600482015260a0516024820152600160448201526000199091016064820152602081608481875afa908115615b955760e051916169c0575b5061619960a051617315565b61036051602001515160001981019291908311615b2c5760405192630e6c328760e31b84526080516004850152816024850152600160448501526064840152602083608481895afa928315615b955760e05193616986575b506161fb90617315565b60a05261620a6102e051617404565b6103205261621783617404565b6101805261622761026051617404565b916162456162376102c051617404565b9260206103605101516172c6565b51906162536102e051617404565b9061625d86617404565b9061626a61026051617404565b60e05160149290839081805b61696e5750616284816173c1565b945b61692957505061036051602001519061629e916172c6565b51926102e0516162ad90617404565b946102c0516162bc908b617348565b6162c590617404565b966102e0516162d390617404565b986162dd8c617404565b9a6102e0516162eb90617404565b9c6162f581617404565b61010052610260516102e0519061630b91617348565b61631490617404565b6102805261632181617404565b6102a0526102e05161633290617404565b610240526102c0516163449082617348565b61634d90617404565b61022052610260516102e0519061636391617348565b61636c90617404565b610200526102c05161637e9082617348565b61638790617404565b6101e052610260516102e0519061639d91617348565b6163a690617404565b6101c0526163b381617404565b6101a052610260516102e051906163c991617348565b6163d290617404565b610160526102c0516163e391617348565b6163ec90617404565b6101405260405161012052610300515161012051602001816103005160200191616415926171ac565b610120510160208101683c7265637420783d2760b81b905261032051519060298101826103205160200191616449926171ac565b0160200160098101642720793d2760d81b9052610180515190600e8101826101805160200191616478926171ac565b016009016005810168272077696474683d2760b81b905281519182600e830191602001916164a5926171ac565b01600501600981016927206865696768743d2760b01b9052815191826013830191602001916164d3926171ac565b01600901600a810167272066696c6c3d2760c01b9052815191826012830191602001916164ff926171ac565b01600a01600881016213979f60e91b9052600b8101683c7265637420783d2760b81b905281519182601483019160200191616539926171ac565b01600801600c8101642720793d2760d81b905281519182601183019160200191616562926171ac565b01600c016005810168272077696474683d2760b81b905281519182600e8301916020019161658f926171ac565b01600501600981016927206865696768743d2760b01b9052815191826013830191602001916165bd926171ac565b01600901600a810167272066696c6c3d2760c01b9052815191826012830191602001916165e9926171ac565b01600a01600881016213979f60e91b9052600b8101693c6c696e652078313d2760b01b905281519182601583019160200191616624926171ac565b01600801600d810165272079313d2760d01b90528151918260138301916020019161664e926171ac565b01600d016006810165272078323d2760d01b905281519182600c83019160200191616678926171ac565b016006016006810165272079323d2760d01b905281519182600c830191602001916166a2926171ac565b6166af9101600c01617355565b693c6c696e652078313d2760b01b815281519182600a830191602001916166d5926171ac565b01600a810165272079313d2760d01b905261010051519060108101826101005160200191616702926171ac565b01600a016006810165272078323d2760d01b9052610280515190600c8101826102805160200191616732926171ac565b016006016006810165272079323d2760d01b90526102a0515190600c8101826102a05160200191616762926171ac565b61676f9101600c01617355565b693c6c696e652078313d2760b01b8152610240515190600a810182610240516020019161679b926171ac565b01600a810165272079313d2760d01b9052610220515190601081018261022051602001916167c8926171ac565b01600a016006810165272078323d2760d01b9052610200515190600c81018261020051602001916167f8926171ac565b016006016006810165272079323d2760d01b90526101e0515190600c8101826101e05160200191616828926171ac565b6168359101600c0161738a565b693c6c696e652078313d2760b01b81526101c0515190600a8101826101c05160200191616861926171ac565b01600a810165272079313d2760d01b90526101a051519060108101826101a0516020019161688e926171ac565b01600a016006810165272078323d2760d01b9052610160515190600c81018261016051602001916168be926171ac565b016006016006810165272079323d2760d01b90526101405151600c82018161014051602001916168ed926171ac565b61012051916168ff9101600c0161738a565b03601f1981016101205152610120519061691891617113565b6101205161030052600192846160c7565b6000198101908111615b2c578091600a8106603001603011615b2c57600a9161696560ff60f81b84840660300160f81b1660e0511a91886173f3565b53049081616286565b915061697b600a91617315565b910480859291616276565b90925060203d81116169b9575b61699d8183617113565b602082600092810103126169b6575051916161fb6161f1565b80fd5b503d616993565b905060203d81116169ec575b6169d68183617113565b602082600092810103126169b65750518561618d565b503d6169cc565b616a0081610380516172c6565b5151836020616a1284610380516172c6565b510151916040616a2585610380516172c6565b510151926060616a3886610380516172c6565b5101519180616a55616a50610260516102e051617348565b61733a565b10948515616abb575b50508315616aa1575b8315616a88575b50505015616a7e576001016160b6565b50506001866160c0565b616a9892935090616a5091617348565b10838980616a6e565b809350616ab4616a506102c05185617348565b1092616a67565b616ad091929550616a50906102e05193617348565b10928b80616a5e565b60203d8111616b09575b616aed8183617113565b602082600092810103126169b65750516102c0526160ae6160a4565b503d616ae3565b60203d8111616b40575b616b248183617113565b602082600092810103126169b65750516102605261605e616054565b503d616b1a565b90915060203d8111616b77575b616b5e8183617113565b602082600092810103126169b65750519061600e616004565b503d616b54565b60203d8111616bac575b616b928183617113565b602082600092810103126169b65750516102e05284615fb3565b503d616b88565b50610340805160010190529150615ef2565b50600a8110615f67565b602090604051616bde816170e2565b60e051815260e0518382015260e051604082015260e051606082015282826103805101015201615edb565b90506020813d602011616c33575b81616c2460209383617113565b81010312615b88575182615ea2565b3d9150616c17565b616c5191503d8060e051833e615a808183617113565b81615d64565b3d8060e051833e616c688183617113565b8101906020818303126100d1578051906001600160401b0382116100d15701906040828203126100d15760405191604083018381106001600160401b03821117616d6c5760405280516001600160401b0381116100d15782616ccb91830161726a565b83526020810151906001600160401b0382116100d157019080601f830112156100d1578151616cf9816172af565b92616d076040519485617113565b81845260208085019260051b820101918383116100d15760208201905b838210616d3f57505050505060208201526103605281615d06565b81516001600160401b0381116100d157602091616d618784809488010161726a565b815201910190616d24565b634e487b7160e01b60e051526041600452602460e051fd5b346100d15760e0513660031901126100d157602060018060a01b0360e05154163314604051908152f35b346100d15760403660031901126100d1576004356001600160401b0381116100d157616dde90369060040161714f565b6024356001600160401b0381116100d157616dfd90369060040161714f565b9060018060a01b0360e051541633148015616eab575b616e1c9061722d565b6002546001600160a01b031690813b156100d157616e6a616e5893604051948593639f8add7b60e01b85526060600486015260648501906171cf565b838103600319016024850152906171cf565b9160e0516044830152818060e05194039160e051905af18015615b9557616e92575b60e05180f35b60e051616e9e91617113565b60e0516100d15780616e8c565b5060e08051339052600160205251604090205460ff16616e13565b346100d15760203660031901126100d1576004356001600160a01b038116908190036100d157616f0260018060a01b0360e051541633146171f4565b60e051526001602052604060e0512060ff19815416905560e05160e051f35b346100d15760403660031901126100d1576024356001600160401b0381116100d157616f5190369060040161714f565b60e051546001600160a01b031633148015616fe9575b616f709061722d565b6002546001600160a01b0316803b156100d157604051631fe8874d60e21b8152600480359082015260606024820152918290616fb09060648301906171cf565b9160e0516044830152818060e05194039160e051905af18015615b9557616fd75760e05180f35b60e051616fe391617113565b80616e8c565b5060e08051339052600160205251604090205460ff16616f67565b346100d15760203660031901126100d1576004356001600160a01b038116908190036100d15760e051546001600160a01b031633148015617069575b6170499061722d565b6bffffffffffffffffffffffff60a01b600354161760035560e05160e051f35b5060e08051339052600160205251604090205460ff16617040565b346100d15760203660031901126100d1576004356001600160a01b038116908190036100d1576170c060018060a01b0360e051541633146171f4565b60e051526001602052604060e05120600160ff1982541617905560e05160e051f35b608081019081106001600160401b038211176170fd57604052565b634e487b7160e01b600052604160045260246000fd5b90601f801991011681019081106001600160401b038211176170fd57604052565b6001600160401b0381116170fd57601f01601f191660200190565b81601f82011215615b885780359061716682617134565b926171746040519485617113565b82845260208383010111615b8857816000926020809301838601378301015290565b6040906003190112615b88576004359060243590565b60005b8381106171bf5750506000910152565b81810151838201526020016171af565b906020916171e8815180928185528580860191016171ac565b601f01601f1916010190565b156171fb57565b60405162461bcd60e51b815260206004820152600a6024820152694e6f7420616e6472657760b01b6044820152606490fd5b1561723457565b60405162461bcd60e51b815260206004820152600e60248201526d139bdd08185d5d1a1bdc9a5e995960921b6044820152606490fd5b81601f82011215615b8857805161728081617134565b9261728e6040519485617113565b81845260208284010111615b88576172ac91602080850191016171ac565b90565b6001600160401b0381116170fd5760051b60200190565b80518210156172da5760209160051b010190565b634e487b7160e01b600052603260045260246000fd5b90602082820312615b885781516001600160401b038111615b88576172ac920161726a565b60001981146173245760010190565b634e487b7160e01b600052601160045260246000fd5b90600a820180921161732457565b9190820180921161732457565b7f27207374726f6b653d27776869746527207374726f6b652d77696474683d273181526213979f60e91b602082015260230190565b7f27207374726f6b653d272336363636363627207374726f6b652d77696474683d815264139893979f60d91b602082015260250190565b906173cb82617134565b6173d86040519182617113565b82815280926173e9601f1991617134565b0190602036910137565b9081518110156172da570160200190565b80156174865780600081805b61746e575061741e816173c1565b925b61742957505090565b6000198101908111617324578091600a8106603001918260301161732457600a9260f81b6001600160f81b03191660001a9061746590866173f3565b53049081617420565b915061747b600a91617315565b910480839291617410565b50604051617495604082617113565b60018152600360fc1b60208201529056fea264697066735822122076b64d0cdf48da862efa6f2054d4a7f668161c07244b91d59ed96ea6545d599b64736f6c634300081c0033","linkReferences":{}},"methodIdentifiers":{"addColorPalette(string,string)":"86c48f9d","colorEngine()":"9d20b355","getAnim(uint256,bytes32)":"b739ddda","getImage(uint256,bytes32)":"902cb6c9","grantAccess(address)":"0ae5e739","hasAccess(address)":"95a078e8","isOwner()":"8f32d59b","randomGenerator()":"dcbad90d","revokeAccess(address)":"85e68531","setColorEngine(address)":"b1bcbc8d","setRandomGenerator(address)":"4bc19fee","updateColorPaletteName(uint256,string)":"5134d0fd"},"id":36}